{
	"solidity-study/solidity-1base/8/LeaderBoard.sol": {
		"LeaderBoard": {
			"abi": [
				{
					"inputs": [
						{
							"internalType": "address",
							"name": "user",
							"type": "address"
						},
						{
							"internalType": "uint256",
							"name": "score",
							"type": "uint256"
						}
					],
					"name": "addOrUpdate",
					"outputs": [],
					"stateMutability": "nonpayable",
					"type": "function"
				},
				{
					"inputs": [
						{
							"internalType": "uint256",
							"name": "",
							"type": "uint256"
						}
					],
					"name": "addressArr",
					"outputs": [
						{
							"internalType": "address",
							"name": "",
							"type": "address"
						}
					],
					"stateMutability": "view",
					"type": "function"
				},
				{
					"inputs": [
						{
							"internalType": "address",
							"name": "user",
							"type": "address"
						}
					],
					"name": "delScoreByAddress",
					"outputs": [],
					"stateMutability": "nonpayable",
					"type": "function"
				},
				{
					"inputs": [
						{
							"internalType": "address",
							"name": "user",
							"type": "address"
						}
					],
					"name": "getScoreByAddress",
					"outputs": [
						{
							"internalType": "uint256",
							"name": "",
							"type": "uint256"
						}
					],
					"stateMutability": "view",
					"type": "function"
				},
				{
					"inputs": [
						{
							"internalType": "uint256",
							"name": "n",
							"type": "uint256"
						}
					],
					"name": "get_first_sort_n_user",
					"outputs": [
						{
							"internalType": "address[]",
							"name": "",
							"type": "address[]"
						}
					],
					"stateMutability": "view",
					"type": "function"
				},
				{
					"inputs": [
						{
							"internalType": "address",
							"name": "",
							"type": "address"
						}
					],
					"name": "scoresMap",
					"outputs": [
						{
							"internalType": "uint256",
							"name": "",
							"type": "uint256"
						}
					],
					"stateMutability": "view",
					"type": "function"
				}
			],
			"devdoc": {
				"kind": "dev",
				"methods": {},
				"version": 1
			},
			"evm": {
				"assembly": "    /* \"solidity-study/solidity-1base/8/LeaderBoard.sol\":62:2299  contract LeaderBoard{... */\n  mstore(0x40, 0x80)\n  callvalue\n  dup1\n  iszero\n  tag_1\n  jumpi\n  0x00\n  dup1\n  revert\ntag_1:\n  pop\n  dataSize(sub_0)\n  dup1\n  dataOffset(sub_0)\n  0x00\n  codecopy\n  0x00\n  return\nstop\n\nsub_0: assembly {\n        /* \"solidity-study/solidity-1base/8/LeaderBoard.sol\":62:2299  contract LeaderBoard{... */\n      mstore(0x40, 0x80)\n      callvalue\n      dup1\n      iszero\n      tag_1\n      jumpi\n      0x00\n      dup1\n      revert\n    tag_1:\n      pop\n      jumpi(tag_2, lt(calldatasize, 0x04))\n      shr(0xe0, calldataload(0x00))\n      dup1\n      0x283568e0\n      eq\n      tag_3\n      jumpi\n      dup1\n      0x2d4d0a17\n      eq\n      tag_4\n      jumpi\n      dup1\n      0x36fb2061\n      eq\n      tag_5\n      jumpi\n      dup1\n      0x4c58e077\n      eq\n      tag_6\n      jumpi\n      dup1\n      0x8d6255a5\n      eq\n      tag_7\n      jumpi\n      dup1\n      0xac6ab9ed\n      eq\n      tag_8\n      jumpi\n    tag_2:\n      0x00\n      dup1\n      revert\n        /* \"solidity-study/solidity-1base/8/LeaderBoard.sol\":718:967  function addOrUpdate(address user, uint score) public {... */\n    tag_3:\n      tag_9\n      0x04\n      dup1\n      calldatasize\n      sub\n      dup2\n      add\n      swap1\n      tag_10\n      swap2\n      swap1\n      tag_11\n      jump\t// in\n    tag_10:\n      tag_12\n      jump\t// in\n    tag_9:\n      stop\n        /* \"solidity-study/solidity-1base/8/LeaderBoard.sol\":1957:2294  function get_first_sort_n_user(uint n) public view returns(address[] memory){... */\n    tag_4:\n      tag_13\n      0x04\n      dup1\n      calldatasize\n      sub\n      dup2\n      add\n      swap1\n      tag_14\n      swap2\n      swap1\n      tag_15\n      jump\t// in\n    tag_14:\n      tag_16\n      jump\t// in\n    tag_13:\n      mload(0x40)\n      tag_17\n      swap2\n      swap1\n      tag_18\n      jump\t// in\n    tag_17:\n      mload(0x40)\n      dup1\n      swap2\n      sub\n      swap1\n      return\n        /* \"solidity-study/solidity-1base/8/LeaderBoard.sol\":149:190  mapping(address => uint) public scoresMap */\n    tag_5:\n      tag_19\n      0x04\n      dup1\n      calldatasize\n      sub\n      dup2\n      add\n      swap1\n      tag_20\n      swap2\n      swap1\n      tag_21\n      jump\t// in\n    tag_20:\n      tag_22\n      jump\t// in\n    tag_19:\n      mload(0x40)\n      tag_23\n      swap2\n      swap1\n      tag_24\n      jump\t// in\n    tag_23:\n      mload(0x40)\n      dup1\n      swap2\n      sub\n      swap1\n      return\n        /* \"solidity-study/solidity-1base/8/LeaderBoard.sol\":296:464  function getScoreByAddress(address user) public view returns(uint){... */\n    tag_6:\n      tag_25\n      0x04\n      dup1\n      calldatasize\n      sub\n      dup2\n      add\n      swap1\n      tag_26\n      swap2\n      swap1\n      tag_21\n      jump\t// in\n    tag_26:\n      tag_27\n      jump\t// in\n    tag_25:\n      mload(0x40)\n      tag_28\n      swap2\n      swap1\n      tag_24\n      jump\t// in\n    tag_28:\n      mload(0x40)\n      dup1\n      swap2\n      sub\n      swap1\n      return\n        /* \"solidity-study/solidity-1base/8/LeaderBoard.sol\":492:683  function delScoreByAddress(address user) public  {... */\n    tag_7:\n      tag_29\n      0x04\n      dup1\n      calldatasize\n      sub\n      dup2\n      add\n      swap1\n      tag_30\n      swap2\n      swap1\n      tag_21\n      jump\t// in\n    tag_30:\n      tag_31\n      jump\t// in\n    tag_29:\n      stop\n        /* \"solidity-study/solidity-1base/8/LeaderBoard.sol\":220:247  address[] public addressArr */\n    tag_8:\n      tag_32\n      0x04\n      dup1\n      calldatasize\n      sub\n      dup2\n      add\n      swap1\n      tag_33\n      swap2\n      swap1\n      tag_15\n      jump\t// in\n    tag_33:\n      tag_34\n      jump\t// in\n    tag_32:\n      mload(0x40)\n      tag_35\n      swap2\n      swap1\n      tag_36\n      jump\t// in\n    tag_35:\n      mload(0x40)\n      dup1\n      swap2\n      sub\n      swap1\n      return\n        /* \"solidity-study/solidity-1base/8/LeaderBoard.sol\":718:967  function addOrUpdate(address user, uint score) public {... */\n    tag_12:\n        /* \"solidity-study/solidity-1base/8/LeaderBoard.sol\":804:805  0 */\n      0x00\n        /* \"solidity-study/solidity-1base/8/LeaderBoard.sol\":786:795  scoresMap */\n      dup1\n        /* \"solidity-study/solidity-1base/8/LeaderBoard.sol\":786:801  scoresMap[user] */\n      0x00\n        /* \"solidity-study/solidity-1base/8/LeaderBoard.sol\":796:800  user */\n      dup5\n        /* \"solidity-study/solidity-1base/8/LeaderBoard.sol\":786:801  scoresMap[user] */\n      0xffffffffffffffffffffffffffffffffffffffff\n      and\n      0xffffffffffffffffffffffffffffffffffffffff\n      and\n      dup2\n      mstore\n      0x20\n      add\n      swap1\n      dup2\n      mstore\n      0x20\n      add\n      0x00\n      keccak256\n      sload\n        /* \"solidity-study/solidity-1base/8/LeaderBoard.sol\":786:805  scoresMap[user] > 0 */\n      gt\n        /* \"solidity-study/solidity-1base/8/LeaderBoard.sol\":783:887  if(scoresMap[user] > 0){... */\n      iszero\n      tag_38\n      jumpi\n        /* \"solidity-study/solidity-1base/8/LeaderBoard.sol\":847:875  del_and_sort_for_array(user) */\n      tag_39\n        /* \"solidity-study/solidity-1base/8/LeaderBoard.sol\":870:874  user */\n      dup3\n        /* \"solidity-study/solidity-1base/8/LeaderBoard.sol\":847:869  del_and_sort_for_array */\n      tag_40\n        /* \"solidity-study/solidity-1base/8/LeaderBoard.sol\":847:875  del_and_sort_for_array(user) */\n      jump\t// in\n    tag_39:\n        /* \"solidity-study/solidity-1base/8/LeaderBoard.sol\":783:887  if(scoresMap[user] > 0){... */\n    tag_38:\n        /* \"solidity-study/solidity-1base/8/LeaderBoard.sol\":915:920  score */\n      dup1\n        /* \"solidity-study/solidity-1base/8/LeaderBoard.sol\":897:906  scoresMap */\n      0x00\n        /* \"solidity-study/solidity-1base/8/LeaderBoard.sol\":897:912  scoresMap[user] */\n      dup1\n        /* \"solidity-study/solidity-1base/8/LeaderBoard.sol\":907:911  user */\n      dup5\n        /* \"solidity-study/solidity-1base/8/LeaderBoard.sol\":897:912  scoresMap[user] */\n      0xffffffffffffffffffffffffffffffffffffffff\n      and\n      0xffffffffffffffffffffffffffffffffffffffff\n      and\n      dup2\n      mstore\n      0x20\n      add\n      swap1\n      dup2\n      mstore\n      0x20\n      add\n      0x00\n      keccak256\n        /* \"solidity-study/solidity-1base/8/LeaderBoard.sol\":897:920  scoresMap[user] = score */\n      dup2\n      swap1\n      sstore\n      pop\n        /* \"solidity-study/solidity-1base/8/LeaderBoard.sol\":931:959  add_and_sort_for_array(user) */\n      tag_41\n        /* \"solidity-study/solidity-1base/8/LeaderBoard.sol\":954:958  user */\n      dup3\n        /* \"solidity-study/solidity-1base/8/LeaderBoard.sol\":931:953  add_and_sort_for_array */\n      tag_42\n        /* \"solidity-study/solidity-1base/8/LeaderBoard.sol\":931:959  add_and_sort_for_array(user) */\n      jump\t// in\n    tag_41:\n        /* \"solidity-study/solidity-1base/8/LeaderBoard.sol\":718:967  function addOrUpdate(address user, uint score) public {... */\n      pop\n      pop\n      jump\t// out\n        /* \"solidity-study/solidity-1base/8/LeaderBoard.sol\":1957:2294  function get_first_sort_n_user(uint n) public view returns(address[] memory){... */\n    tag_16:\n        /* \"solidity-study/solidity-1base/8/LeaderBoard.sol\":2016:2032  address[] memory */\n      0x60\n        /* \"solidity-study/solidity-1base/8/LeaderBoard.sol\":2055:2056  0 */\n      0x00\n        /* \"solidity-study/solidity-1base/8/LeaderBoard.sol\":2052:2053  n */\n      dup3\n        /* \"solidity-study/solidity-1base/8/LeaderBoard.sol\":2052:2056  n>=0 */\n      lt\n      iszero\n        /* \"solidity-study/solidity-1base/8/LeaderBoard.sol\":2052:2082  n>=0 && n <= addressArr.length */\n      dup1\n      iszero\n      tag_44\n      jumpi\n      pop\n        /* \"solidity-study/solidity-1base/8/LeaderBoard.sol\":2065:2075  addressArr */\n      0x01\n        /* \"solidity-study/solidity-1base/8/LeaderBoard.sol\":2065:2082  addressArr.length */\n      dup1\n      sload\n      swap1\n      pop\n        /* \"solidity-study/solidity-1base/8/LeaderBoard.sol\":2060:2061  n */\n      dup3\n        /* \"solidity-study/solidity-1base/8/LeaderBoard.sol\":2060:2082  n <= addressArr.length */\n      gt\n      iszero\n        /* \"solidity-study/solidity-1base/8/LeaderBoard.sol\":2052:2082  n>=0 && n <= addressArr.length */\n    tag_44:\n        /* \"solidity-study/solidity-1base/8/LeaderBoard.sol\":2044:2122  require(n>=0 && n <= addressArr.length, \"n is greater then addressArr length\") */\n      tag_45\n      jumpi\n      mload(0x40)\n      0x08c379a000000000000000000000000000000000000000000000000000000000\n      dup2\n      mstore\n      0x04\n      add\n      tag_46\n      swap1\n      tag_47\n      jump\t// in\n    tag_46:\n      mload(0x40)\n      dup1\n      swap2\n      sub\n      swap1\n      revert\n    tag_45:\n        /* \"solidity-study/solidity-1base/8/LeaderBoard.sol\":2133:2156  address[] memory resArr */\n      0x00\n        /* \"solidity-study/solidity-1base/8/LeaderBoard.sol\":2173:2174  n */\n      dup3\n        /* \"solidity-study/solidity-1base/8/LeaderBoard.sol\":2159:2175  new address[](n) */\n      0xffffffffffffffff\n      dup2\n      gt\n      iszero\n      tag_48\n      jumpi\n      tag_49\n      tag_50\n      jump\t// in\n    tag_49:\n    tag_48:\n      mload(0x40)\n      swap1\n      dup1\n      dup3\n      mstore\n      dup1\n      0x20\n      mul\n      0x20\n      add\n      dup3\n      add\n      0x40\n      mstore\n      dup1\n      iszero\n      tag_51\n      jumpi\n      dup2\n      0x20\n      add\n      0x20\n      dup3\n      mul\n      dup1\n      calldatasize\n      dup4\n      calldatacopy\n      dup1\n      dup3\n      add\n      swap2\n      pop\n      pop\n      swap1\n      pop\n    tag_51:\n      pop\n        /* \"solidity-study/solidity-1base/8/LeaderBoard.sol\":2133:2175  address[] memory resArr = new address[](n) */\n      swap1\n      pop\n        /* \"solidity-study/solidity-1base/8/LeaderBoard.sol\":2191:2197  uint x */\n      0x00\n        /* \"solidity-study/solidity-1base/8/LeaderBoard.sol\":2187:2263  for(uint x=0; x< n; x++){... */\n    tag_52:\n        /* \"solidity-study/solidity-1base/8/LeaderBoard.sol\":2204:2205  n */\n      dup4\n        /* \"solidity-study/solidity-1base/8/LeaderBoard.sol\":2201:2202  x */\n      dup2\n        /* \"solidity-study/solidity-1base/8/LeaderBoard.sol\":2201:2205  x< n */\n      lt\n        /* \"solidity-study/solidity-1base/8/LeaderBoard.sol\":2187:2263  for(uint x=0; x< n; x++){... */\n      iszero\n      tag_53\n      jumpi\n        /* \"solidity-study/solidity-1base/8/LeaderBoard.sol\":2238:2248  addressArr */\n      0x01\n        /* \"solidity-study/solidity-1base/8/LeaderBoard.sol\":2249:2250  x */\n      dup2\n        /* \"solidity-study/solidity-1base/8/LeaderBoard.sol\":2238:2251  addressArr[x] */\n      dup2\n      sload\n      dup2\n      lt\n      tag_55\n      jumpi\n      tag_56\n      tag_57\n      jump\t// in\n    tag_56:\n    tag_55:\n      swap1\n      0x00\n      mstore\n      keccak256(0x00, 0x20)\n      add\n      0x00\n      swap1\n      sload\n      swap1\n      0x0100\n      exp\n      swap1\n      div\n      0xffffffffffffffffffffffffffffffffffffffff\n      and\n        /* \"solidity-study/solidity-1base/8/LeaderBoard.sol\":2226:2232  resArr */\n      dup3\n        /* \"solidity-study/solidity-1base/8/LeaderBoard.sol\":2233:2234  x */\n      dup3\n        /* \"solidity-study/solidity-1base/8/LeaderBoard.sol\":2226:2235  resArr[x] */\n      dup2\n      mload\n      dup2\n      lt\n      tag_59\n      jumpi\n      tag_60\n      tag_57\n      jump\t// in\n    tag_60:\n    tag_59:\n      0x20\n      mul\n      0x20\n      add\n      add\n        /* \"solidity-study/solidity-1base/8/LeaderBoard.sol\":2226:2251  resArr[x] = addressArr[x] */\n      swap1\n      0xffffffffffffffffffffffffffffffffffffffff\n      and\n      swap1\n      dup2\n      0xffffffffffffffffffffffffffffffffffffffff\n      and\n      dup2\n      mstore\n      pop\n      pop\n        /* \"solidity-study/solidity-1base/8/LeaderBoard.sol\":2207:2210  x++ */\n      dup1\n      dup1\n      0x01\n      add\n      swap2\n      pop\n      pop\n        /* \"solidity-study/solidity-1base/8/LeaderBoard.sol\":2187:2263  for(uint x=0; x< n; x++){... */\n      jump(tag_52)\n    tag_53:\n      pop\n        /* \"solidity-study/solidity-1base/8/LeaderBoard.sol\":2280:2286  resArr */\n      dup1\n        /* \"solidity-study/solidity-1base/8/LeaderBoard.sol\":2273:2286  return resArr */\n      swap2\n      pop\n      pop\n        /* \"solidity-study/solidity-1base/8/LeaderBoard.sol\":1957:2294  function get_first_sort_n_user(uint n) public view returns(address[] memory){... */\n      swap2\n      swap1\n      pop\n      jump\t// out\n        /* \"solidity-study/solidity-1base/8/LeaderBoard.sol\":149:190  mapping(address => uint) public scoresMap */\n    tag_22:\n      mstore(0x20, 0x00)\n      dup1\n      0x00\n      mstore\n      keccak256(0x00, 0x40)\n      0x00\n      swap2\n      pop\n      swap1\n      pop\n      sload\n      dup2\n      jump\t// out\n        /* \"solidity-study/solidity-1base/8/LeaderBoard.sol\":296:464  function getScoreByAddress(address user) public view returns(uint){... */\n    tag_27:\n        /* \"solidity-study/solidity-1base/8/LeaderBoard.sol\":357:361  uint */\n      0x00\n        /* \"solidity-study/solidity-1base/8/LeaderBoard.sol\":399:400  0 */\n      dup1\n        /* \"solidity-study/solidity-1base/8/LeaderBoard.sol\":381:390  scoresMap */\n      0x00\n        /* \"solidity-study/solidity-1base/8/LeaderBoard.sol\":381:396  scoresMap[user] */\n      dup1\n        /* \"solidity-study/solidity-1base/8/LeaderBoard.sol\":391:395  user */\n      dup5\n        /* \"solidity-study/solidity-1base/8/LeaderBoard.sol\":381:396  scoresMap[user] */\n      0xffffffffffffffffffffffffffffffffffffffff\n      and\n      0xffffffffffffffffffffffffffffffffffffffff\n      and\n      dup2\n      mstore\n      0x20\n      add\n      swap1\n      dup2\n      mstore\n      0x20\n      add\n      0x00\n      keccak256\n      sload\n        /* \"solidity-study/solidity-1base/8/LeaderBoard.sol\":381:400  scoresMap[user] >=0 */\n      lt\n      iszero\n        /* \"solidity-study/solidity-1base/8/LeaderBoard.sol\":373:423  require(scoresMap[user] >=0 ,\"user is not exists\") */\n      tag_62\n      jumpi\n      mload(0x40)\n      0x08c379a000000000000000000000000000000000000000000000000000000000\n      dup2\n      mstore\n      0x04\n      add\n      tag_63\n      swap1\n      tag_64\n      jump\t// in\n    tag_63:\n      mload(0x40)\n      dup1\n      swap2\n      sub\n      swap1\n      revert\n    tag_62:\n        /* \"solidity-study/solidity-1base/8/LeaderBoard.sol\":441:450  scoresMap */\n      0x00\n        /* \"solidity-study/solidity-1base/8/LeaderBoard.sol\":441:456  scoresMap[user] */\n      dup1\n        /* \"solidity-study/solidity-1base/8/LeaderBoard.sol\":451:455  user */\n      dup4\n        /* \"solidity-study/solidity-1base/8/LeaderBoard.sol\":441:456  scoresMap[user] */\n      0xffffffffffffffffffffffffffffffffffffffff\n      and\n      0xffffffffffffffffffffffffffffffffffffffff\n      and\n      dup2\n      mstore\n      0x20\n      add\n      swap1\n      dup2\n      mstore\n      0x20\n      add\n      0x00\n      keccak256\n      sload\n        /* \"solidity-study/solidity-1base/8/LeaderBoard.sol\":434:456  return scoresMap[user] */\n      swap1\n      pop\n        /* \"solidity-study/solidity-1base/8/LeaderBoard.sol\":296:464  function getScoreByAddress(address user) public view returns(uint){... */\n      swap2\n      swap1\n      pop\n      jump\t// out\n        /* \"solidity-study/solidity-1base/8/LeaderBoard.sol\":492:683  function delScoreByAddress(address user) public  {... */\n    tag_31:\n        /* \"solidity-study/solidity-1base/8/LeaderBoard.sol\":579:580  0 */\n      0x00\n        /* \"solidity-study/solidity-1base/8/LeaderBoard.sol\":561:570  scoresMap */\n      dup1\n        /* \"solidity-study/solidity-1base/8/LeaderBoard.sol\":561:576  scoresMap[user] */\n      0x00\n        /* \"solidity-study/solidity-1base/8/LeaderBoard.sol\":571:575  user */\n      dup4\n        /* \"solidity-study/solidity-1base/8/LeaderBoard.sol\":561:576  scoresMap[user] */\n      0xffffffffffffffffffffffffffffffffffffffff\n      and\n      0xffffffffffffffffffffffffffffffffffffffff\n      and\n      dup2\n      mstore\n      0x20\n      add\n      swap1\n      dup2\n      mstore\n      0x20\n      add\n      0x00\n      keccak256\n      sload\n        /* \"solidity-study/solidity-1base/8/LeaderBoard.sol\":561:580  scoresMap[user] >=0 */\n      lt\n      iszero\n        /* \"solidity-study/solidity-1base/8/LeaderBoard.sol\":553:603  require(scoresMap[user] >=0 ,\"user is not exists\") */\n      tag_66\n      jumpi\n      mload(0x40)\n      0x08c379a000000000000000000000000000000000000000000000000000000000\n      dup2\n      mstore\n      0x04\n      add\n      tag_67\n      swap1\n      tag_64\n      jump\t// in\n    tag_67:\n      mload(0x40)\n      dup1\n      swap2\n      sub\n      swap1\n      revert\n    tag_66:\n        /* \"solidity-study/solidity-1base/8/LeaderBoard.sol\":621:630  scoresMap */\n      0x00\n        /* \"solidity-study/solidity-1base/8/LeaderBoard.sol\":621:636  scoresMap[user] */\n      dup1\n        /* \"solidity-study/solidity-1base/8/LeaderBoard.sol\":631:635  user */\n      dup3\n        /* \"solidity-study/solidity-1base/8/LeaderBoard.sol\":621:636  scoresMap[user] */\n      0xffffffffffffffffffffffffffffffffffffffff\n      and\n      0xffffffffffffffffffffffffffffffffffffffff\n      and\n      dup2\n      mstore\n      0x20\n      add\n      swap1\n      dup2\n      mstore\n      0x20\n      add\n      0x00\n      keccak256\n        /* \"solidity-study/solidity-1base/8/LeaderBoard.sol\":614:636  delete scoresMap[user] */\n      0x00\n      swap1\n      sstore\n        /* \"solidity-study/solidity-1base/8/LeaderBoard.sol\":647:675  del_and_sort_for_array(user) */\n      tag_68\n        /* \"solidity-study/solidity-1base/8/LeaderBoard.sol\":670:674  user */\n      dup2\n        /* \"solidity-study/solidity-1base/8/LeaderBoard.sol\":647:669  del_and_sort_for_array */\n      tag_40\n        /* \"solidity-study/solidity-1base/8/LeaderBoard.sol\":647:675  del_and_sort_for_array(user) */\n      jump\t// in\n    tag_68:\n        /* \"solidity-study/solidity-1base/8/LeaderBoard.sol\":492:683  function delScoreByAddress(address user) public  {... */\n      pop\n      jump\t// out\n        /* \"solidity-study/solidity-1base/8/LeaderBoard.sol\":220:247  address[] public addressArr */\n    tag_34:\n      0x01\n      dup2\n      dup2\n      sload\n      dup2\n      lt\n      tag_69\n      jumpi\n      0x00\n      dup1\n      revert\n    tag_69:\n      swap1\n      0x00\n      mstore\n      keccak256(0x00, 0x20)\n      add\n      0x00\n      swap2\n      pop\n      sload\n      swap1\n      0x0100\n      exp\n      swap1\n      div\n      0xffffffffffffffffffffffffffffffffffffffff\n      and\n      dup2\n      jump\t// out\n        /* \"solidity-study/solidity-1base/8/LeaderBoard.sol\":1111:1423  function del_and_sort_for_array(address user) private {... */\n    tag_40:\n        /* \"solidity-study/solidity-1base/8/LeaderBoard.sol\":1180:1186  uint i */\n      0x00\n        /* \"solidity-study/solidity-1base/8/LeaderBoard.sol\":1176:1389  for(uint i =0; i < addressArr.length ; i++){... */\n    tag_72:\n        /* \"solidity-study/solidity-1base/8/LeaderBoard.sol\":1195:1205  addressArr */\n      0x01\n        /* \"solidity-study/solidity-1base/8/LeaderBoard.sol\":1195:1212  addressArr.length */\n      dup1\n      sload\n      swap1\n      pop\n        /* \"solidity-study/solidity-1base/8/LeaderBoard.sol\":1191:1192  i */\n      dup2\n        /* \"solidity-study/solidity-1base/8/LeaderBoard.sol\":1191:1212  i < addressArr.length */\n      lt\n        /* \"solidity-study/solidity-1base/8/LeaderBoard.sol\":1176:1389  for(uint i =0; i < addressArr.length ; i++){... */\n      iszero\n      tag_73\n      jumpi\n        /* \"solidity-study/solidity-1base/8/LeaderBoard.sol\":1254:1258  user */\n      dup2\n        /* \"solidity-study/solidity-1base/8/LeaderBoard.sol\":1237:1258  addressArr[i] == user */\n      0xffffffffffffffffffffffffffffffffffffffff\n      and\n        /* \"solidity-study/solidity-1base/8/LeaderBoard.sol\":1237:1247  addressArr */\n      0x01\n        /* \"solidity-study/solidity-1base/8/LeaderBoard.sol\":1248:1249  i */\n      dup3\n        /* \"solidity-study/solidity-1base/8/LeaderBoard.sol\":1237:1250  addressArr[i] */\n      dup2\n      sload\n      dup2\n      lt\n      tag_75\n      jumpi\n      tag_76\n      tag_57\n      jump\t// in\n    tag_76:\n    tag_75:\n      swap1\n      0x00\n      mstore\n      keccak256(0x00, 0x20)\n      add\n      0x00\n      swap1\n      sload\n      swap1\n      0x0100\n      exp\n      swap1\n      div\n      0xffffffffffffffffffffffffffffffffffffffff\n      and\n        /* \"solidity-study/solidity-1base/8/LeaderBoard.sol\":1237:1258  addressArr[i] == user */\n      0xffffffffffffffffffffffffffffffffffffffff\n      and\n      sub\n        /* \"solidity-study/solidity-1base/8/LeaderBoard.sol\":1234:1378  if(addressArr[i] == user){... */\n      tag_78\n      jumpi\n        /* \"solidity-study/solidity-1base/8/LeaderBoard.sol\":1294:1304  addressArr */\n      0x01\n        /* \"solidity-study/solidity-1base/8/LeaderBoard.sol\":1325:1326  1 */\n      dup1\n        /* \"solidity-study/solidity-1base/8/LeaderBoard.sol\":1305:1315  addressArr */\n      dup1\n        /* \"solidity-study/solidity-1base/8/LeaderBoard.sol\":1305:1322  addressArr.length */\n      dup1\n      sload\n      swap1\n      pop\n        /* \"solidity-study/solidity-1base/8/LeaderBoard.sol\":1305:1326  addressArr.length - 1 */\n      tag_79\n      swap2\n      swap1\n      tag_80\n      jump\t// in\n    tag_79:\n        /* \"solidity-study/solidity-1base/8/LeaderBoard.sol\":1294:1327  addressArr[addressArr.length - 1] */\n      dup2\n      sload\n      dup2\n      lt\n      tag_81\n      jumpi\n      tag_82\n      tag_57\n      jump\t// in\n    tag_82:\n    tag_81:\n      swap1\n      0x00\n      mstore\n      keccak256(0x00, 0x20)\n      add\n      0x00\n      swap1\n      sload\n      swap1\n      0x0100\n      exp\n      swap1\n      div\n      0xffffffffffffffffffffffffffffffffffffffff\n      and\n        /* \"solidity-study/solidity-1base/8/LeaderBoard.sol\":1278:1288  addressArr */\n      0x01\n        /* \"solidity-study/solidity-1base/8/LeaderBoard.sol\":1289:1290  i */\n      dup3\n        /* \"solidity-study/solidity-1base/8/LeaderBoard.sol\":1278:1291  addressArr[i] */\n      dup2\n      sload\n      dup2\n      lt\n      tag_84\n      jumpi\n      tag_85\n      tag_57\n      jump\t// in\n    tag_85:\n    tag_84:\n      swap1\n      0x00\n      mstore\n      keccak256(0x00, 0x20)\n      add\n      0x00\n        /* \"solidity-study/solidity-1base/8/LeaderBoard.sol\":1278:1327  addressArr[i] = addressArr[addressArr.length - 1] */\n      0x0100\n      exp\n      dup2\n      sload\n      dup2\n      0xffffffffffffffffffffffffffffffffffffffff\n      mul\n      not\n      and\n      swap1\n      dup4\n      0xffffffffffffffffffffffffffffffffffffffff\n      and\n      mul\n      or\n      swap1\n      sstore\n      pop\n        /* \"solidity-study/solidity-1base/8/LeaderBoard.sol\":1346:1356  addressArr */\n      0x01\n        /* \"solidity-study/solidity-1base/8/LeaderBoard.sol\":1346:1362  addressArr.pop() */\n      dup1\n      sload\n      dup1\n      tag_87\n      jumpi\n      tag_88\n      tag_89\n      jump\t// in\n    tag_88:\n    tag_87:\n      0x01\n      swap1\n      sub\n      dup2\n      dup2\n      swap1\n      0x00\n      mstore\n      keccak256(0x00, 0x20)\n      add\n      exp(0x0100, 0x00)\n      dup2\n      sload\n      swap1\n      0xffffffffffffffffffffffffffffffffffffffff\n      mul\n      not\n      and\n      swap1\n      sstore\n      swap1\n      sstore\n        /* \"solidity-study/solidity-1base/8/LeaderBoard.sol\":1234:1378  if(addressArr[i] == user){... */\n    tag_78:\n        /* \"solidity-study/solidity-1base/8/LeaderBoard.sol\":1215:1218  i++ */\n      dup1\n      dup1\n      0x01\n      add\n      swap2\n      pop\n      pop\n        /* \"solidity-study/solidity-1base/8/LeaderBoard.sol\":1176:1389  for(uint i =0; i < addressArr.length ; i++){... */\n      jump(tag_72)\n    tag_73:\n      pop\n        /* \"solidity-study/solidity-1base/8/LeaderBoard.sol\":1399:1415  sort_for_array() */\n      tag_91\n        /* \"solidity-study/solidity-1base/8/LeaderBoard.sol\":1399:1413  sort_for_array */\n      tag_92\n        /* \"solidity-study/solidity-1base/8/LeaderBoard.sol\":1399:1415  sort_for_array() */\n      jump\t// in\n    tag_91:\n        /* \"solidity-study/solidity-1base/8/LeaderBoard.sol\":1111:1423  function del_and_sort_for_array(address user) private {... */\n      pop\n      jump\t// out\n        /* \"solidity-study/solidity-1base/8/LeaderBoard.sol\":977:1099  function add_and_sort_for_array(address user) private  {... */\n    tag_42:\n        /* \"solidity-study/solidity-1base/8/LeaderBoard.sol\":1043:1053  addressArr */\n      0x01\n        /* \"solidity-study/solidity-1base/8/LeaderBoard.sol\":1059:1063  user */\n      dup2\n        /* \"solidity-study/solidity-1base/8/LeaderBoard.sol\":1043:1064  addressArr.push(user) */\n      swap1\n      dup1\n      0x01\n      dup2\n      sload\n      add\n      dup1\n      dup3\n      sstore\n      dup1\n      swap2\n      pop\n      pop\n      0x01\n      swap1\n      sub\n      swap1\n      0x00\n      mstore\n      keccak256(0x00, 0x20)\n      add\n      0x00\n      swap1\n      swap2\n      swap1\n      swap2\n      swap1\n      swap2\n      0x0100\n      exp\n      dup2\n      sload\n      dup2\n      0xffffffffffffffffffffffffffffffffffffffff\n      mul\n      not\n      and\n      swap1\n      dup4\n      0xffffffffffffffffffffffffffffffffffffffff\n      and\n      mul\n      or\n      swap1\n      sstore\n      pop\n        /* \"solidity-study/solidity-1base/8/LeaderBoard.sol\":1075:1091  sort_for_array() */\n      tag_95\n        /* \"solidity-study/solidity-1base/8/LeaderBoard.sol\":1075:1089  sort_for_array */\n      tag_92\n        /* \"solidity-study/solidity-1base/8/LeaderBoard.sol\":1075:1091  sort_for_array() */\n      jump\t// in\n    tag_95:\n        /* \"solidity-study/solidity-1base/8/LeaderBoard.sol\":977:1099  function add_and_sort_for_array(address user) private  {... */\n      pop\n      jump\t// out\n        /* \"solidity-study/solidity-1base/8/LeaderBoard.sol\":1435:1912  function  sort_for_array() private {... */\n    tag_92:\n        /* \"solidity-study/solidity-1base/8/LeaderBoard.sol\":1508:1509  0 */\n      0x00\n        /* \"solidity-study/solidity-1base/8/LeaderBoard.sol\":1489:1499  addressArr */\n      0x01\n        /* \"solidity-study/solidity-1base/8/LeaderBoard.sol\":1489:1506  addressArr.length */\n      dup1\n      sload\n      swap1\n      pop\n        /* \"solidity-study/solidity-1base/8/LeaderBoard.sol\":1489:1509  addressArr.length >0 */\n      gt\n        /* \"solidity-study/solidity-1base/8/LeaderBoard.sol\":1481:1530  require(addressArr.length >0 ,\"empty addressArr\") */\n      tag_97\n      jumpi\n      mload(0x40)\n      0x08c379a000000000000000000000000000000000000000000000000000000000\n      dup2\n      mstore\n      0x04\n      add\n      tag_98\n      swap1\n      tag_99\n      jump\t// in\n    tag_98:\n      mload(0x40)\n      dup1\n      swap2\n      sub\n      swap1\n      revert\n    tag_97:\n        /* \"solidity-study/solidity-1base/8/LeaderBoard.sol\":1545:1551  uint x */\n      0x00\n        /* \"solidity-study/solidity-1base/8/LeaderBoard.sol\":1541:1905  for(uint x=0; x<addressArr.length-1;x++){... */\n    tag_100:\n        /* \"solidity-study/solidity-1base/8/LeaderBoard.sol\":1575:1576  1 */\n      0x01\n        /* \"solidity-study/solidity-1base/8/LeaderBoard.sol\":1557:1567  addressArr */\n      dup1\n        /* \"solidity-study/solidity-1base/8/LeaderBoard.sol\":1557:1574  addressArr.length */\n      dup1\n      sload\n      swap1\n      pop\n        /* \"solidity-study/solidity-1base/8/LeaderBoard.sol\":1557:1576  addressArr.length-1 */\n      tag_103\n      swap2\n      swap1\n      tag_80\n      jump\t// in\n    tag_103:\n        /* \"solidity-study/solidity-1base/8/LeaderBoard.sol\":1555:1556  x */\n      dup2\n        /* \"solidity-study/solidity-1base/8/LeaderBoard.sol\":1555:1576  x<addressArr.length-1 */\n      lt\n        /* \"solidity-study/solidity-1base/8/LeaderBoard.sol\":1541:1905  for(uint x=0; x<addressArr.length-1;x++){... */\n      iszero\n      tag_101\n      jumpi\n        /* \"solidity-study/solidity-1base/8/LeaderBoard.sol\":1600:1606  uint y */\n      0x00\n        /* \"solidity-study/solidity-1base/8/LeaderBoard.sol\":1609:1610  1 */\n      0x01\n        /* \"solidity-study/solidity-1base/8/LeaderBoard.sol\":1607:1608  x */\n      dup3\n        /* \"solidity-study/solidity-1base/8/LeaderBoard.sol\":1607:1610  x+1 */\n      tag_107\n      swap2\n      swap1\n      tag_108\n      jump\t// in\n    tag_107:\n        /* \"solidity-study/solidity-1base/8/LeaderBoard.sol\":1600:1610  uint y=x+1 */\n      swap1\n      pop\n        /* \"solidity-study/solidity-1base/8/LeaderBoard.sol\":1596:1894  for(uint y=x+1; y < addressArr.length; y++){... */\n    tag_104:\n        /* \"solidity-study/solidity-1base/8/LeaderBoard.sol\":1616:1626  addressArr */\n      0x01\n        /* \"solidity-study/solidity-1base/8/LeaderBoard.sol\":1616:1633  addressArr.length */\n      dup1\n      sload\n      swap1\n      pop\n        /* \"solidity-study/solidity-1base/8/LeaderBoard.sol\":1612:1613  y */\n      dup2\n        /* \"solidity-study/solidity-1base/8/LeaderBoard.sol\":1612:1633  y < addressArr.length */\n      lt\n        /* \"solidity-study/solidity-1base/8/LeaderBoard.sol\":1596:1894  for(uint y=x+1; y < addressArr.length; y++){... */\n      iszero\n      tag_105\n      jumpi\n        /* \"solidity-study/solidity-1base/8/LeaderBoard.sol\":1688:1697  scoresMap */\n      0x00\n        /* \"solidity-study/solidity-1base/8/LeaderBoard.sol\":1688:1712  scoresMap[addressArr[y]] */\n      dup1\n        /* \"solidity-study/solidity-1base/8/LeaderBoard.sol\":1698:1708  addressArr */\n      0x01\n        /* \"solidity-study/solidity-1base/8/LeaderBoard.sol\":1709:1710  y */\n      dup4\n        /* \"solidity-study/solidity-1base/8/LeaderBoard.sol\":1698:1711  addressArr[y] */\n      dup2\n      sload\n      dup2\n      lt\n      tag_109\n      jumpi\n      tag_110\n      tag_57\n      jump\t// in\n    tag_110:\n    tag_109:\n      swap1\n      0x00\n      mstore\n      keccak256(0x00, 0x20)\n      add\n      0x00\n      swap1\n      sload\n      swap1\n      0x0100\n      exp\n      swap1\n      div\n      0xffffffffffffffffffffffffffffffffffffffff\n      and\n        /* \"solidity-study/solidity-1base/8/LeaderBoard.sol\":1688:1712  scoresMap[addressArr[y]] */\n      0xffffffffffffffffffffffffffffffffffffffff\n      and\n      0xffffffffffffffffffffffffffffffffffffffff\n      and\n      dup2\n      mstore\n      0x20\n      add\n      swap1\n      dup2\n      mstore\n      0x20\n      add\n      0x00\n      keccak256\n      sload\n        /* \"solidity-study/solidity-1base/8/LeaderBoard.sol\":1661:1670  scoresMap */\n      0x00\n        /* \"solidity-study/solidity-1base/8/LeaderBoard.sol\":1661:1685  scoresMap[addressArr[x]] */\n      dup1\n        /* \"solidity-study/solidity-1base/8/LeaderBoard.sol\":1671:1681  addressArr */\n      0x01\n        /* \"solidity-study/solidity-1base/8/LeaderBoard.sol\":1682:1683  x */\n      dup6\n        /* \"solidity-study/solidity-1base/8/LeaderBoard.sol\":1671:1684  addressArr[x] */\n      dup2\n      sload\n      dup2\n      lt\n      tag_112\n      jumpi\n      tag_113\n      tag_57\n      jump\t// in\n    tag_113:\n    tag_112:\n      swap1\n      0x00\n      mstore\n      keccak256(0x00, 0x20)\n      add\n      0x00\n      swap1\n      sload\n      swap1\n      0x0100\n      exp\n      swap1\n      div\n      0xffffffffffffffffffffffffffffffffffffffff\n      and\n        /* \"solidity-study/solidity-1base/8/LeaderBoard.sol\":1661:1685  scoresMap[addressArr[x]] */\n      0xffffffffffffffffffffffffffffffffffffffff\n      and\n      0xffffffffffffffffffffffffffffffffffffffff\n      and\n      dup2\n      mstore\n      0x20\n      add\n      swap1\n      dup2\n      mstore\n      0x20\n      add\n      0x00\n      keccak256\n      sload\n        /* \"solidity-study/solidity-1base/8/LeaderBoard.sol\":1661:1712  scoresMap[addressArr[x]] > scoresMap[addressArr[y]] */\n      gt\n        /* \"solidity-study/solidity-1base/8/LeaderBoard.sol\":1658:1879  if(scoresMap[addressArr[x]] > scoresMap[addressArr[y]]){... */\n      iszero\n      tag_115\n      jumpi\n        /* \"solidity-study/solidity-1base/8/LeaderBoard.sol\":1736:1748  address temp */\n      0x00\n        /* \"solidity-study/solidity-1base/8/LeaderBoard.sol\":1751:1761  addressArr */\n      0x01\n        /* \"solidity-study/solidity-1base/8/LeaderBoard.sol\":1762:1763  x */\n      dup4\n        /* \"solidity-study/solidity-1base/8/LeaderBoard.sol\":1751:1764  addressArr[x] */\n      dup2\n      sload\n      dup2\n      lt\n      tag_116\n      jumpi\n      tag_117\n      tag_57\n      jump\t// in\n    tag_117:\n    tag_116:\n      swap1\n      0x00\n      mstore\n      keccak256(0x00, 0x20)\n      add\n      0x00\n      swap1\n      sload\n      swap1\n      0x0100\n      exp\n      swap1\n      div\n      0xffffffffffffffffffffffffffffffffffffffff\n      and\n        /* \"solidity-study/solidity-1base/8/LeaderBoard.sol\":1736:1764  address temp = addressArr[x] */\n      swap1\n      pop\n        /* \"solidity-study/solidity-1base/8/LeaderBoard.sol\":1803:1813  addressArr */\n      0x01\n        /* \"solidity-study/solidity-1base/8/LeaderBoard.sol\":1814:1815  y */\n      dup3\n        /* \"solidity-study/solidity-1base/8/LeaderBoard.sol\":1803:1816  addressArr[y] */\n      dup2\n      sload\n      dup2\n      lt\n      tag_119\n      jumpi\n      tag_120\n      tag_57\n      jump\t// in\n    tag_120:\n    tag_119:\n      swap1\n      0x00\n      mstore\n      keccak256(0x00, 0x20)\n      add\n      0x00\n      swap1\n      sload\n      swap1\n      0x0100\n      exp\n      swap1\n      div\n      0xffffffffffffffffffffffffffffffffffffffff\n      and\n        /* \"solidity-study/solidity-1base/8/LeaderBoard.sol\":1787:1797  addressArr */\n      0x01\n        /* \"solidity-study/solidity-1base/8/LeaderBoard.sol\":1798:1799  x */\n      dup5\n        /* \"solidity-study/solidity-1base/8/LeaderBoard.sol\":1787:1800  addressArr[x] */\n      dup2\n      sload\n      dup2\n      lt\n      tag_122\n      jumpi\n      tag_123\n      tag_57\n      jump\t// in\n    tag_123:\n    tag_122:\n      swap1\n      0x00\n      mstore\n      keccak256(0x00, 0x20)\n      add\n      0x00\n        /* \"solidity-study/solidity-1base/8/LeaderBoard.sol\":1787:1816  addressArr[x] = addressArr[y] */\n      0x0100\n      exp\n      dup2\n      sload\n      dup2\n      0xffffffffffffffffffffffffffffffffffffffff\n      mul\n      not\n      and\n      swap1\n      dup4\n      0xffffffffffffffffffffffffffffffffffffffff\n      and\n      mul\n      or\n      swap1\n      sstore\n      pop\n        /* \"solidity-study/solidity-1base/8/LeaderBoard.sol\":1855:1859  temp */\n      dup1\n        /* \"solidity-study/solidity-1base/8/LeaderBoard.sol\":1839:1849  addressArr */\n      0x01\n        /* \"solidity-study/solidity-1base/8/LeaderBoard.sol\":1850:1851  y */\n      dup4\n        /* \"solidity-study/solidity-1base/8/LeaderBoard.sol\":1839:1852  addressArr[y] */\n      dup2\n      sload\n      dup2\n      lt\n      tag_125\n      jumpi\n      tag_126\n      tag_57\n      jump\t// in\n    tag_126:\n    tag_125:\n      swap1\n      0x00\n      mstore\n      keccak256(0x00, 0x20)\n      add\n      0x00\n        /* \"solidity-study/solidity-1base/8/LeaderBoard.sol\":1839:1859  addressArr[y] = temp */\n      0x0100\n      exp\n      dup2\n      sload\n      dup2\n      0xffffffffffffffffffffffffffffffffffffffff\n      mul\n      not\n      and\n      swap1\n      dup4\n      0xffffffffffffffffffffffffffffffffffffffff\n      and\n      mul\n      or\n      swap1\n      sstore\n      pop\n        /* \"solidity-study/solidity-1base/8/LeaderBoard.sol\":1713:1879  {... */\n      pop\n        /* \"solidity-study/solidity-1base/8/LeaderBoard.sol\":1658:1879  if(scoresMap[addressArr[x]] > scoresMap[addressArr[y]]){... */\n    tag_115:\n        /* \"solidity-study/solidity-1base/8/LeaderBoard.sol\":1635:1638  y++ */\n      dup1\n      dup1\n      0x01\n      add\n      swap2\n      pop\n      pop\n        /* \"solidity-study/solidity-1base/8/LeaderBoard.sol\":1596:1894  for(uint y=x+1; y < addressArr.length; y++){... */\n      jump(tag_104)\n    tag_105:\n      pop\n        /* \"solidity-study/solidity-1base/8/LeaderBoard.sol\":1577:1580  x++ */\n      dup1\n      dup1\n      0x01\n      add\n      swap2\n      pop\n      pop\n        /* \"solidity-study/solidity-1base/8/LeaderBoard.sol\":1541:1905  for(uint x=0; x<addressArr.length-1;x++){... */\n      jump(tag_100)\n    tag_101:\n      pop\n        /* \"solidity-study/solidity-1base/8/LeaderBoard.sol\":1435:1912  function  sort_for_array() private {... */\n      jump\t// out\n        /* \"#utility.yul\":88:205   */\n    tag_129:\n        /* \"#utility.yul\":197:198   */\n      0x00\n        /* \"#utility.yul\":194:195   */\n      dup1\n        /* \"#utility.yul\":187:199   */\n      revert\n        /* \"#utility.yul\":334:460   */\n    tag_131:\n        /* \"#utility.yul\":371:378   */\n      0x00\n        /* \"#utility.yul\":411:453   */\n      0xffffffffffffffffffffffffffffffffffffffff\n        /* \"#utility.yul\":404:409   */\n      dup3\n        /* \"#utility.yul\":400:454   */\n      and\n        /* \"#utility.yul\":389:454   */\n      swap1\n      pop\n        /* \"#utility.yul\":334:460   */\n      swap2\n      swap1\n      pop\n      jump\t// out\n        /* \"#utility.yul\":466:562   */\n    tag_132:\n        /* \"#utility.yul\":503:510   */\n      0x00\n        /* \"#utility.yul\":532:556   */\n      tag_161\n        /* \"#utility.yul\":550:555   */\n      dup3\n        /* \"#utility.yul\":532:556   */\n      tag_131\n      jump\t// in\n    tag_161:\n        /* \"#utility.yul\":521:556   */\n      swap1\n      pop\n        /* \"#utility.yul\":466:562   */\n      swap2\n      swap1\n      pop\n      jump\t// out\n        /* \"#utility.yul\":568:690   */\n    tag_133:\n        /* \"#utility.yul\":641:665   */\n      tag_163\n        /* \"#utility.yul\":659:664   */\n      dup2\n        /* \"#utility.yul\":641:665   */\n      tag_132\n      jump\t// in\n    tag_163:\n        /* \"#utility.yul\":634:639   */\n      dup2\n        /* \"#utility.yul\":631:666   */\n      eq\n        /* \"#utility.yul\":621:684   */\n      tag_164\n      jumpi\n        /* \"#utility.yul\":680:681   */\n      0x00\n        /* \"#utility.yul\":677:678   */\n      dup1\n        /* \"#utility.yul\":670:682   */\n      revert\n        /* \"#utility.yul\":621:684   */\n    tag_164:\n        /* \"#utility.yul\":568:690   */\n      pop\n      jump\t// out\n        /* \"#utility.yul\":696:835   */\n    tag_134:\n        /* \"#utility.yul\":742:747   */\n      0x00\n        /* \"#utility.yul\":780:786   */\n      dup2\n        /* \"#utility.yul\":767:787   */\n      calldataload\n        /* \"#utility.yul\":758:787   */\n      swap1\n      pop\n        /* \"#utility.yul\":796:829   */\n      tag_166\n        /* \"#utility.yul\":823:828   */\n      dup2\n        /* \"#utility.yul\":796:829   */\n      tag_133\n      jump\t// in\n    tag_166:\n        /* \"#utility.yul\":696:835   */\n      swap3\n      swap2\n      pop\n      pop\n      jump\t// out\n        /* \"#utility.yul\":841:918   */\n    tag_135:\n        /* \"#utility.yul\":878:885   */\n      0x00\n        /* \"#utility.yul\":907:912   */\n      dup2\n        /* \"#utility.yul\":896:912   */\n      swap1\n      pop\n        /* \"#utility.yul\":841:918   */\n      swap2\n      swap1\n      pop\n      jump\t// out\n        /* \"#utility.yul\":924:1046   */\n    tag_136:\n        /* \"#utility.yul\":997:1021   */\n      tag_169\n        /* \"#utility.yul\":1015:1020   */\n      dup2\n        /* \"#utility.yul\":997:1021   */\n      tag_135\n      jump\t// in\n    tag_169:\n        /* \"#utility.yul\":990:995   */\n      dup2\n        /* \"#utility.yul\":987:1022   */\n      eq\n        /* \"#utility.yul\":977:1040   */\n      tag_170\n      jumpi\n        /* \"#utility.yul\":1036:1037   */\n      0x00\n        /* \"#utility.yul\":1033:1034   */\n      dup1\n        /* \"#utility.yul\":1026:1038   */\n      revert\n        /* \"#utility.yul\":977:1040   */\n    tag_170:\n        /* \"#utility.yul\":924:1046   */\n      pop\n      jump\t// out\n        /* \"#utility.yul\":1052:1191   */\n    tag_137:\n        /* \"#utility.yul\":1098:1103   */\n      0x00\n        /* \"#utility.yul\":1136:1142   */\n      dup2\n        /* \"#utility.yul\":1123:1143   */\n      calldataload\n        /* \"#utility.yul\":1114:1143   */\n      swap1\n      pop\n        /* \"#utility.yul\":1152:1185   */\n      tag_172\n        /* \"#utility.yul\":1179:1184   */\n      dup2\n        /* \"#utility.yul\":1152:1185   */\n      tag_136\n      jump\t// in\n    tag_172:\n        /* \"#utility.yul\":1052:1191   */\n      swap3\n      swap2\n      pop\n      pop\n      jump\t// out\n        /* \"#utility.yul\":1197:1671   */\n    tag_11:\n        /* \"#utility.yul\":1265:1271   */\n      0x00\n        /* \"#utility.yul\":1273:1279   */\n      dup1\n        /* \"#utility.yul\":1322:1324   */\n      0x40\n        /* \"#utility.yul\":1310:1319   */\n      dup4\n        /* \"#utility.yul\":1301:1308   */\n      dup6\n        /* \"#utility.yul\":1297:1320   */\n      sub\n        /* \"#utility.yul\":1293:1325   */\n      slt\n        /* \"#utility.yul\":1290:1409   */\n      iszero\n      tag_174\n      jumpi\n        /* \"#utility.yul\":1328:1407   */\n      tag_175\n      tag_129\n      jump\t// in\n    tag_175:\n        /* \"#utility.yul\":1290:1409   */\n    tag_174:\n        /* \"#utility.yul\":1448:1449   */\n      0x00\n        /* \"#utility.yul\":1473:1526   */\n      tag_176\n        /* \"#utility.yul\":1518:1525   */\n      dup6\n        /* \"#utility.yul\":1509:1515   */\n      dup3\n        /* \"#utility.yul\":1498:1507   */\n      dup7\n        /* \"#utility.yul\":1494:1516   */\n      add\n        /* \"#utility.yul\":1473:1526   */\n      tag_134\n      jump\t// in\n    tag_176:\n        /* \"#utility.yul\":1463:1526   */\n      swap3\n      pop\n        /* \"#utility.yul\":1419:1536   */\n      pop\n        /* \"#utility.yul\":1575:1577   */\n      0x20\n        /* \"#utility.yul\":1601:1654   */\n      tag_177\n        /* \"#utility.yul\":1646:1653   */\n      dup6\n        /* \"#utility.yul\":1637:1643   */\n      dup3\n        /* \"#utility.yul\":1626:1635   */\n      dup7\n        /* \"#utility.yul\":1622:1644   */\n      add\n        /* \"#utility.yul\":1601:1654   */\n      tag_137\n      jump\t// in\n    tag_177:\n        /* \"#utility.yul\":1591:1654   */\n      swap2\n      pop\n        /* \"#utility.yul\":1546:1664   */\n      pop\n        /* \"#utility.yul\":1197:1671   */\n      swap3\n      pop\n      swap3\n      swap1\n      pop\n      jump\t// out\n        /* \"#utility.yul\":1677:2006   */\n    tag_15:\n        /* \"#utility.yul\":1736:1742   */\n      0x00\n        /* \"#utility.yul\":1785:1787   */\n      0x20\n        /* \"#utility.yul\":1773:1782   */\n      dup3\n        /* \"#utility.yul\":1764:1771   */\n      dup5\n        /* \"#utility.yul\":1760:1783   */\n      sub\n        /* \"#utility.yul\":1756:1788   */\n      slt\n        /* \"#utility.yul\":1753:1872   */\n      iszero\n      tag_179\n      jumpi\n        /* \"#utility.yul\":1791:1870   */\n      tag_180\n      tag_129\n      jump\t// in\n    tag_180:\n        /* \"#utility.yul\":1753:1872   */\n    tag_179:\n        /* \"#utility.yul\":1911:1912   */\n      0x00\n        /* \"#utility.yul\":1936:1989   */\n      tag_181\n        /* \"#utility.yul\":1981:1988   */\n      dup5\n        /* \"#utility.yul\":1972:1978   */\n      dup3\n        /* \"#utility.yul\":1961:1970   */\n      dup6\n        /* \"#utility.yul\":1957:1979   */\n      add\n        /* \"#utility.yul\":1936:1989   */\n      tag_137\n      jump\t// in\n    tag_181:\n        /* \"#utility.yul\":1926:1989   */\n      swap2\n      pop\n        /* \"#utility.yul\":1882:1999   */\n      pop\n        /* \"#utility.yul\":1677:2006   */\n      swap3\n      swap2\n      pop\n      pop\n      jump\t// out\n        /* \"#utility.yul\":2012:2126   */\n    tag_138:\n        /* \"#utility.yul\":2079:2085   */\n      0x00\n        /* \"#utility.yul\":2113:2118   */\n      dup2\n        /* \"#utility.yul\":2107:2119   */\n      mload\n        /* \"#utility.yul\":2097:2119   */\n      swap1\n      pop\n        /* \"#utility.yul\":2012:2126   */\n      swap2\n      swap1\n      pop\n      jump\t// out\n        /* \"#utility.yul\":2132:2316   */\n    tag_139:\n        /* \"#utility.yul\":2231:2242   */\n      0x00\n        /* \"#utility.yul\":2265:2271   */\n      dup3\n        /* \"#utility.yul\":2260:2263   */\n      dup3\n        /* \"#utility.yul\":2253:2272   */\n      mstore\n        /* \"#utility.yul\":2305:2309   */\n      0x20\n        /* \"#utility.yul\":2300:2303   */\n      dup3\n        /* \"#utility.yul\":2296:2310   */\n      add\n        /* \"#utility.yul\":2281:2310   */\n      swap1\n      pop\n        /* \"#utility.yul\":2132:2316   */\n      swap3\n      swap2\n      pop\n      pop\n      jump\t// out\n        /* \"#utility.yul\":2322:2454   */\n    tag_140:\n        /* \"#utility.yul\":2389:2393   */\n      0x00\n        /* \"#utility.yul\":2412:2415   */\n      dup2\n        /* \"#utility.yul\":2404:2415   */\n      swap1\n      pop\n        /* \"#utility.yul\":2442:2446   */\n      0x20\n        /* \"#utility.yul\":2437:2440   */\n      dup3\n        /* \"#utility.yul\":2433:2447   */\n      add\n        /* \"#utility.yul\":2425:2447   */\n      swap1\n      pop\n        /* \"#utility.yul\":2322:2454   */\n      swap2\n      swap1\n      pop\n      jump\t// out\n        /* \"#utility.yul\":2460:2568   */\n    tag_141:\n        /* \"#utility.yul\":2537:2561   */\n      tag_186\n        /* \"#utility.yul\":2555:2560   */\n      dup2\n        /* \"#utility.yul\":2537:2561   */\n      tag_132\n      jump\t// in\n    tag_186:\n        /* \"#utility.yul\":2532:2535   */\n      dup3\n        /* \"#utility.yul\":2525:2562   */\n      mstore\n        /* \"#utility.yul\":2460:2568   */\n      pop\n      pop\n      jump\t// out\n        /* \"#utility.yul\":2574:2753   */\n    tag_142:\n        /* \"#utility.yul\":2643:2653   */\n      0x00\n        /* \"#utility.yul\":2664:2710   */\n      tag_188\n        /* \"#utility.yul\":2706:2709   */\n      dup4\n        /* \"#utility.yul\":2698:2704   */\n      dup4\n        /* \"#utility.yul\":2664:2710   */\n      tag_141\n      jump\t// in\n    tag_188:\n        /* \"#utility.yul\":2742:2746   */\n      0x20\n        /* \"#utility.yul\":2737:2740   */\n      dup4\n        /* \"#utility.yul\":2733:2747   */\n      add\n        /* \"#utility.yul\":2719:2747   */\n      swap1\n      pop\n        /* \"#utility.yul\":2574:2753   */\n      swap3\n      swap2\n      pop\n      pop\n      jump\t// out\n        /* \"#utility.yul\":2759:2872   */\n    tag_143:\n        /* \"#utility.yul\":2829:2833   */\n      0x00\n        /* \"#utility.yul\":2861:2865   */\n      0x20\n        /* \"#utility.yul\":2856:2859   */\n      dup3\n        /* \"#utility.yul\":2852:2866   */\n      add\n        /* \"#utility.yul\":2844:2866   */\n      swap1\n      pop\n        /* \"#utility.yul\":2759:2872   */\n      swap2\n      swap1\n      pop\n      jump\t// out\n        /* \"#utility.yul\":2908:3640   */\n    tag_144:\n        /* \"#utility.yul\":3027:3030   */\n      0x00\n        /* \"#utility.yul\":3056:3110   */\n      tag_191\n        /* \"#utility.yul\":3104:3109   */\n      dup3\n        /* \"#utility.yul\":3056:3110   */\n      tag_138\n      jump\t// in\n    tag_191:\n        /* \"#utility.yul\":3126:3212   */\n      tag_192\n        /* \"#utility.yul\":3205:3211   */\n      dup2\n        /* \"#utility.yul\":3200:3203   */\n      dup6\n        /* \"#utility.yul\":3126:3212   */\n      tag_139\n      jump\t// in\n    tag_192:\n        /* \"#utility.yul\":3119:3212   */\n      swap4\n      pop\n        /* \"#utility.yul\":3236:3292   */\n      tag_193\n        /* \"#utility.yul\":3286:3291   */\n      dup4\n        /* \"#utility.yul\":3236:3292   */\n      tag_140\n      jump\t// in\n    tag_193:\n        /* \"#utility.yul\":3315:3322   */\n      dup1\n        /* \"#utility.yul\":3346:3347   */\n      0x00\n        /* \"#utility.yul\":3331:3615   */\n    tag_194:\n        /* \"#utility.yul\":3356:3362   */\n      dup4\n        /* \"#utility.yul\":3353:3354   */\n      dup2\n        /* \"#utility.yul\":3350:3363   */\n      lt\n        /* \"#utility.yul\":3331:3615   */\n      iszero\n      tag_196\n      jumpi\n        /* \"#utility.yul\":3432:3438   */\n      dup2\n        /* \"#utility.yul\":3426:3439   */\n      mload\n        /* \"#utility.yul\":3459:3522   */\n      tag_197\n        /* \"#utility.yul\":3518:3521   */\n      dup9\n        /* \"#utility.yul\":3503:3516   */\n      dup3\n        /* \"#utility.yul\":3459:3522   */\n      tag_142\n      jump\t// in\n    tag_197:\n        /* \"#utility.yul\":3452:3522   */\n      swap8\n      pop\n        /* \"#utility.yul\":3545:3605   */\n      tag_198\n        /* \"#utility.yul\":3598:3604   */\n      dup4\n        /* \"#utility.yul\":3545:3605   */\n      tag_143\n      jump\t// in\n    tag_198:\n        /* \"#utility.yul\":3535:3605   */\n      swap3\n      pop\n        /* \"#utility.yul\":3391:3615   */\n      pop\n        /* \"#utility.yul\":3378:3379   */\n      0x01\n        /* \"#utility.yul\":3375:3376   */\n      dup2\n        /* \"#utility.yul\":3371:3380   */\n      add\n        /* \"#utility.yul\":3366:3380   */\n      swap1\n      pop\n        /* \"#utility.yul\":3331:3615   */\n      jump(tag_194)\n    tag_196:\n        /* \"#utility.yul\":3335:3349   */\n      pop\n        /* \"#utility.yul\":3631:3634   */\n      dup6\n        /* \"#utility.yul\":3624:3634   */\n      swap4\n      pop\n        /* \"#utility.yul\":3032:3640   */\n      pop\n      pop\n      pop\n        /* \"#utility.yul\":2908:3640   */\n      swap3\n      swap2\n      pop\n      pop\n      jump\t// out\n        /* \"#utility.yul\":3646:4019   */\n    tag_18:\n        /* \"#utility.yul\":3789:3793   */\n      0x00\n        /* \"#utility.yul\":3827:3829   */\n      0x20\n        /* \"#utility.yul\":3816:3825   */\n      dup3\n        /* \"#utility.yul\":3812:3830   */\n      add\n        /* \"#utility.yul\":3804:3830   */\n      swap1\n      pop\n        /* \"#utility.yul\":3876:3885   */\n      dup2\n        /* \"#utility.yul\":3870:3874   */\n      dup2\n        /* \"#utility.yul\":3866:3886   */\n      sub\n        /* \"#utility.yul\":3862:3863   */\n      0x00\n        /* \"#utility.yul\":3851:3860   */\n      dup4\n        /* \"#utility.yul\":3847:3864   */\n      add\n        /* \"#utility.yul\":3840:3887   */\n      mstore\n        /* \"#utility.yul\":3904:4012   */\n      tag_200\n        /* \"#utility.yul\":4007:4011   */\n      dup2\n        /* \"#utility.yul\":3998:4004   */\n      dup5\n        /* \"#utility.yul\":3904:4012   */\n      tag_144\n      jump\t// in\n    tag_200:\n        /* \"#utility.yul\":3896:4012   */\n      swap1\n      pop\n        /* \"#utility.yul\":3646:4019   */\n      swap3\n      swap2\n      pop\n      pop\n      jump\t// out\n        /* \"#utility.yul\":4025:4354   */\n    tag_21:\n        /* \"#utility.yul\":4084:4090   */\n      0x00\n        /* \"#utility.yul\":4133:4135   */\n      0x20\n        /* \"#utility.yul\":4121:4130   */\n      dup3\n        /* \"#utility.yul\":4112:4119   */\n      dup5\n        /* \"#utility.yul\":4108:4131   */\n      sub\n        /* \"#utility.yul\":4104:4136   */\n      slt\n        /* \"#utility.yul\":4101:4220   */\n      iszero\n      tag_202\n      jumpi\n        /* \"#utility.yul\":4139:4218   */\n      tag_203\n      tag_129\n      jump\t// in\n    tag_203:\n        /* \"#utility.yul\":4101:4220   */\n    tag_202:\n        /* \"#utility.yul\":4259:4260   */\n      0x00\n        /* \"#utility.yul\":4284:4337   */\n      tag_204\n        /* \"#utility.yul\":4329:4336   */\n      dup5\n        /* \"#utility.yul\":4320:4326   */\n      dup3\n        /* \"#utility.yul\":4309:4318   */\n      dup6\n        /* \"#utility.yul\":4305:4327   */\n      add\n        /* \"#utility.yul\":4284:4337   */\n      tag_134\n      jump\t// in\n    tag_204:\n        /* \"#utility.yul\":4274:4337   */\n      swap2\n      pop\n        /* \"#utility.yul\":4230:4347   */\n      pop\n        /* \"#utility.yul\":4025:4354   */\n      swap3\n      swap2\n      pop\n      pop\n      jump\t// out\n        /* \"#utility.yul\":4360:4478   */\n    tag_145:\n        /* \"#utility.yul\":4447:4471   */\n      tag_206\n        /* \"#utility.yul\":4465:4470   */\n      dup2\n        /* \"#utility.yul\":4447:4471   */\n      tag_135\n      jump\t// in\n    tag_206:\n        /* \"#utility.yul\":4442:4445   */\n      dup3\n        /* \"#utility.yul\":4435:4472   */\n      mstore\n        /* \"#utility.yul\":4360:4478   */\n      pop\n      pop\n      jump\t// out\n        /* \"#utility.yul\":4484:4706   */\n    tag_24:\n        /* \"#utility.yul\":4577:4581   */\n      0x00\n        /* \"#utility.yul\":4615:4617   */\n      0x20\n        /* \"#utility.yul\":4604:4613   */\n      dup3\n        /* \"#utility.yul\":4600:4618   */\n      add\n        /* \"#utility.yul\":4592:4618   */\n      swap1\n      pop\n        /* \"#utility.yul\":4628:4699   */\n      tag_208\n        /* \"#utility.yul\":4696:4697   */\n      0x00\n        /* \"#utility.yul\":4685:4694   */\n      dup4\n        /* \"#utility.yul\":4681:4698   */\n      add\n        /* \"#utility.yul\":4672:4678   */\n      dup5\n        /* \"#utility.yul\":4628:4699   */\n      tag_145\n      jump\t// in\n    tag_208:\n        /* \"#utility.yul\":4484:4706   */\n      swap3\n      swap2\n      pop\n      pop\n      jump\t// out\n        /* \"#utility.yul\":4712:4830   */\n    tag_146:\n        /* \"#utility.yul\":4799:4823   */\n      tag_210\n        /* \"#utility.yul\":4817:4822   */\n      dup2\n        /* \"#utility.yul\":4799:4823   */\n      tag_132\n      jump\t// in\n    tag_210:\n        /* \"#utility.yul\":4794:4797   */\n      dup3\n        /* \"#utility.yul\":4787:4824   */\n      mstore\n        /* \"#utility.yul\":4712:4830   */\n      pop\n      pop\n      jump\t// out\n        /* \"#utility.yul\":4836:5058   */\n    tag_36:\n        /* \"#utility.yul\":4929:4933   */\n      0x00\n        /* \"#utility.yul\":4967:4969   */\n      0x20\n        /* \"#utility.yul\":4956:4965   */\n      dup3\n        /* \"#utility.yul\":4952:4970   */\n      add\n        /* \"#utility.yul\":4944:4970   */\n      swap1\n      pop\n        /* \"#utility.yul\":4980:5051   */\n      tag_212\n        /* \"#utility.yul\":5048:5049   */\n      0x00\n        /* \"#utility.yul\":5037:5046   */\n      dup4\n        /* \"#utility.yul\":5033:5050   */\n      add\n        /* \"#utility.yul\":5024:5030   */\n      dup5\n        /* \"#utility.yul\":4980:5051   */\n      tag_146\n      jump\t// in\n    tag_212:\n        /* \"#utility.yul\":4836:5058   */\n      swap3\n      swap2\n      pop\n      pop\n      jump\t// out\n        /* \"#utility.yul\":5064:5233   */\n    tag_147:\n        /* \"#utility.yul\":5148:5159   */\n      0x00\n        /* \"#utility.yul\":5182:5188   */\n      dup3\n        /* \"#utility.yul\":5177:5180   */\n      dup3\n        /* \"#utility.yul\":5170:5189   */\n      mstore\n        /* \"#utility.yul\":5222:5226   */\n      0x20\n        /* \"#utility.yul\":5217:5220   */\n      dup3\n        /* \"#utility.yul\":5213:5227   */\n      add\n        /* \"#utility.yul\":5198:5227   */\n      swap1\n      pop\n        /* \"#utility.yul\":5064:5233   */\n      swap3\n      swap2\n      pop\n      pop\n      jump\t// out\n        /* \"#utility.yul\":5239:5461   */\n    tag_148:\n        /* \"#utility.yul\":5379:5413   */\n      0x6e2069732067726561746572207468656e2061646472657373417272206c656e\n        /* \"#utility.yul\":5375:5376   */\n      0x00\n        /* \"#utility.yul\":5367:5373   */\n      dup3\n        /* \"#utility.yul\":5363:5377   */\n      add\n        /* \"#utility.yul\":5356:5414   */\n      mstore\n        /* \"#utility.yul\":5448:5453   */\n      0x6774680000000000000000000000000000000000000000000000000000000000\n        /* \"#utility.yul\":5443:5445   */\n      0x20\n        /* \"#utility.yul\":5435:5441   */\n      dup3\n        /* \"#utility.yul\":5431:5446   */\n      add\n        /* \"#utility.yul\":5424:5454   */\n      mstore\n        /* \"#utility.yul\":5239:5461   */\n      pop\n      jump\t// out\n        /* \"#utility.yul\":5467:5833   */\n    tag_149:\n        /* \"#utility.yul\":5609:5612   */\n      0x00\n        /* \"#utility.yul\":5630:5697   */\n      tag_216\n        /* \"#utility.yul\":5694:5696   */\n      0x23\n        /* \"#utility.yul\":5689:5692   */\n      dup4\n        /* \"#utility.yul\":5630:5697   */\n      tag_147\n      jump\t// in\n    tag_216:\n        /* \"#utility.yul\":5623:5697   */\n      swap2\n      pop\n        /* \"#utility.yul\":5706:5799   */\n      tag_217\n        /* \"#utility.yul\":5795:5798   */\n      dup3\n        /* \"#utility.yul\":5706:5799   */\n      tag_148\n      jump\t// in\n    tag_217:\n        /* \"#utility.yul\":5824:5826   */\n      0x40\n        /* \"#utility.yul\":5819:5822   */\n      dup3\n        /* \"#utility.yul\":5815:5827   */\n      add\n        /* \"#utility.yul\":5808:5827   */\n      swap1\n      pop\n        /* \"#utility.yul\":5467:5833   */\n      swap2\n      swap1\n      pop\n      jump\t// out\n        /* \"#utility.yul\":5839:6258   */\n    tag_47:\n        /* \"#utility.yul\":6005:6009   */\n      0x00\n        /* \"#utility.yul\":6043:6045   */\n      0x20\n        /* \"#utility.yul\":6032:6041   */\n      dup3\n        /* \"#utility.yul\":6028:6046   */\n      add\n        /* \"#utility.yul\":6020:6046   */\n      swap1\n      pop\n        /* \"#utility.yul\":6092:6101   */\n      dup2\n        /* \"#utility.yul\":6086:6090   */\n      dup2\n        /* \"#utility.yul\":6082:6102   */\n      sub\n        /* \"#utility.yul\":6078:6079   */\n      0x00\n        /* \"#utility.yul\":6067:6076   */\n      dup4\n        /* \"#utility.yul\":6063:6080   */\n      add\n        /* \"#utility.yul\":6056:6103   */\n      mstore\n        /* \"#utility.yul\":6120:6251   */\n      tag_219\n        /* \"#utility.yul\":6246:6250   */\n      dup2\n        /* \"#utility.yul\":6120:6251   */\n      tag_149\n      jump\t// in\n    tag_219:\n        /* \"#utility.yul\":6112:6251   */\n      swap1\n      pop\n        /* \"#utility.yul\":5839:6258   */\n      swap2\n      swap1\n      pop\n      jump\t// out\n        /* \"#utility.yul\":6264:6444   */\n    tag_50:\n        /* \"#utility.yul\":6312:6389   */\n      0x4e487b7100000000000000000000000000000000000000000000000000000000\n        /* \"#utility.yul\":6309:6310   */\n      0x00\n        /* \"#utility.yul\":6302:6390   */\n      mstore\n        /* \"#utility.yul\":6409:6413   */\n      0x41\n        /* \"#utility.yul\":6406:6407   */\n      0x04\n        /* \"#utility.yul\":6399:6414   */\n      mstore\n        /* \"#utility.yul\":6433:6437   */\n      0x24\n        /* \"#utility.yul\":6430:6431   */\n      0x00\n        /* \"#utility.yul\":6423:6438   */\n      revert\n        /* \"#utility.yul\":6450:6630   */\n    tag_57:\n        /* \"#utility.yul\":6498:6575   */\n      0x4e487b7100000000000000000000000000000000000000000000000000000000\n        /* \"#utility.yul\":6495:6496   */\n      0x00\n        /* \"#utility.yul\":6488:6576   */\n      mstore\n        /* \"#utility.yul\":6595:6599   */\n      0x32\n        /* \"#utility.yul\":6592:6593   */\n      0x04\n        /* \"#utility.yul\":6585:6600   */\n      mstore\n        /* \"#utility.yul\":6619:6623   */\n      0x24\n        /* \"#utility.yul\":6616:6617   */\n      0x00\n        /* \"#utility.yul\":6609:6624   */\n      revert\n        /* \"#utility.yul\":6636:6804   */\n    tag_150:\n        /* \"#utility.yul\":6776:6796   */\n      0x75736572206973206e6f74206578697374730000000000000000000000000000\n        /* \"#utility.yul\":6772:6773   */\n      0x00\n        /* \"#utility.yul\":6764:6770   */\n      dup3\n        /* \"#utility.yul\":6760:6774   */\n      add\n        /* \"#utility.yul\":6753:6797   */\n      mstore\n        /* \"#utility.yul\":6636:6804   */\n      pop\n      jump\t// out\n        /* \"#utility.yul\":6810:7176   */\n    tag_151:\n        /* \"#utility.yul\":6952:6955   */\n      0x00\n        /* \"#utility.yul\":6973:7040   */\n      tag_224\n        /* \"#utility.yul\":7037:7039   */\n      0x12\n        /* \"#utility.yul\":7032:7035   */\n      dup4\n        /* \"#utility.yul\":6973:7040   */\n      tag_147\n      jump\t// in\n    tag_224:\n        /* \"#utility.yul\":6966:7040   */\n      swap2\n      pop\n        /* \"#utility.yul\":7049:7142   */\n      tag_225\n        /* \"#utility.yul\":7138:7141   */\n      dup3\n        /* \"#utility.yul\":7049:7142   */\n      tag_150\n      jump\t// in\n    tag_225:\n        /* \"#utility.yul\":7167:7169   */\n      0x20\n        /* \"#utility.yul\":7162:7165   */\n      dup3\n        /* \"#utility.yul\":7158:7170   */\n      add\n        /* \"#utility.yul\":7151:7170   */\n      swap1\n      pop\n        /* \"#utility.yul\":6810:7176   */\n      swap2\n      swap1\n      pop\n      jump\t// out\n        /* \"#utility.yul\":7182:7601   */\n    tag_64:\n        /* \"#utility.yul\":7348:7352   */\n      0x00\n        /* \"#utility.yul\":7386:7388   */\n      0x20\n        /* \"#utility.yul\":7375:7384   */\n      dup3\n        /* \"#utility.yul\":7371:7389   */\n      add\n        /* \"#utility.yul\":7363:7389   */\n      swap1\n      pop\n        /* \"#utility.yul\":7435:7444   */\n      dup2\n        /* \"#utility.yul\":7429:7433   */\n      dup2\n        /* \"#utility.yul\":7425:7445   */\n      sub\n        /* \"#utility.yul\":7421:7422   */\n      0x00\n        /* \"#utility.yul\":7410:7419   */\n      dup4\n        /* \"#utility.yul\":7406:7423   */\n      add\n        /* \"#utility.yul\":7399:7446   */\n      mstore\n        /* \"#utility.yul\":7463:7594   */\n      tag_227\n        /* \"#utility.yul\":7589:7593   */\n      dup2\n        /* \"#utility.yul\":7463:7594   */\n      tag_151\n      jump\t// in\n    tag_227:\n        /* \"#utility.yul\":7455:7594   */\n      swap1\n      pop\n        /* \"#utility.yul\":7182:7601   */\n      swap2\n      swap1\n      pop\n      jump\t// out\n        /* \"#utility.yul\":7607:7787   */\n    tag_152:\n        /* \"#utility.yul\":7655:7732   */\n      0x4e487b7100000000000000000000000000000000000000000000000000000000\n        /* \"#utility.yul\":7652:7653   */\n      0x00\n        /* \"#utility.yul\":7645:7733   */\n      mstore\n        /* \"#utility.yul\":7752:7756   */\n      0x11\n        /* \"#utility.yul\":7749:7750   */\n      0x04\n        /* \"#utility.yul\":7742:7757   */\n      mstore\n        /* \"#utility.yul\":7776:7780   */\n      0x24\n        /* \"#utility.yul\":7773:7774   */\n      0x00\n        /* \"#utility.yul\":7766:7781   */\n      revert\n        /* \"#utility.yul\":7793:7987   */\n    tag_80:\n        /* \"#utility.yul\":7833:7837   */\n      0x00\n        /* \"#utility.yul\":7853:7873   */\n      tag_230\n        /* \"#utility.yul\":7871:7872   */\n      dup3\n        /* \"#utility.yul\":7853:7873   */\n      tag_135\n      jump\t// in\n    tag_230:\n        /* \"#utility.yul\":7848:7873   */\n      swap2\n      pop\n        /* \"#utility.yul\":7887:7907   */\n      tag_231\n        /* \"#utility.yul\":7905:7906   */\n      dup4\n        /* \"#utility.yul\":7887:7907   */\n      tag_135\n      jump\t// in\n    tag_231:\n        /* \"#utility.yul\":7882:7907   */\n      swap3\n      pop\n        /* \"#utility.yul\":7931:7932   */\n      dup3\n        /* \"#utility.yul\":7928:7929   */\n      dup3\n        /* \"#utility.yul\":7924:7933   */\n      sub\n        /* \"#utility.yul\":7916:7933   */\n      swap1\n      pop\n        /* \"#utility.yul\":7955:7956   */\n      dup2\n        /* \"#utility.yul\":7949:7953   */\n      dup2\n        /* \"#utility.yul\":7946:7957   */\n      gt\n        /* \"#utility.yul\":7943:7980   */\n      iszero\n      tag_232\n      jumpi\n        /* \"#utility.yul\":7960:7978   */\n      tag_233\n      tag_152\n      jump\t// in\n    tag_233:\n        /* \"#utility.yul\":7943:7980   */\n    tag_232:\n        /* \"#utility.yul\":7793:7987   */\n      swap3\n      swap2\n      pop\n      pop\n      jump\t// out\n        /* \"#utility.yul\":7993:8173   */\n    tag_89:\n        /* \"#utility.yul\":8041:8118   */\n      0x4e487b7100000000000000000000000000000000000000000000000000000000\n        /* \"#utility.yul\":8038:8039   */\n      0x00\n        /* \"#utility.yul\":8031:8119   */\n      mstore\n        /* \"#utility.yul\":8138:8142   */\n      0x31\n        /* \"#utility.yul\":8135:8136   */\n      0x04\n        /* \"#utility.yul\":8128:8143   */\n      mstore\n        /* \"#utility.yul\":8162:8166   */\n      0x24\n        /* \"#utility.yul\":8159:8160   */\n      0x00\n        /* \"#utility.yul\":8152:8167   */\n      revert\n        /* \"#utility.yul\":8179:8345   */\n    tag_153:\n        /* \"#utility.yul\":8319:8337   */\n      0x656d707479206164647265737341727200000000000000000000000000000000\n        /* \"#utility.yul\":8315:8316   */\n      0x00\n        /* \"#utility.yul\":8307:8313   */\n      dup3\n        /* \"#utility.yul\":8303:8317   */\n      add\n        /* \"#utility.yul\":8296:8338   */\n      mstore\n        /* \"#utility.yul\":8179:8345   */\n      pop\n      jump\t// out\n        /* \"#utility.yul\":8351:8717   */\n    tag_154:\n        /* \"#utility.yul\":8493:8496   */\n      0x00\n        /* \"#utility.yul\":8514:8581   */\n      tag_237\n        /* \"#utility.yul\":8578:8580   */\n      0x10\n        /* \"#utility.yul\":8573:8576   */\n      dup4\n        /* \"#utility.yul\":8514:8581   */\n      tag_147\n      jump\t// in\n    tag_237:\n        /* \"#utility.yul\":8507:8581   */\n      swap2\n      pop\n        /* \"#utility.yul\":8590:8683   */\n      tag_238\n        /* \"#utility.yul\":8679:8682   */\n      dup3\n        /* \"#utility.yul\":8590:8683   */\n      tag_153\n      jump\t// in\n    tag_238:\n        /* \"#utility.yul\":8708:8710   */\n      0x20\n        /* \"#utility.yul\":8703:8706   */\n      dup3\n        /* \"#utility.yul\":8699:8711   */\n      add\n        /* \"#utility.yul\":8692:8711   */\n      swap1\n      pop\n        /* \"#utility.yul\":8351:8717   */\n      swap2\n      swap1\n      pop\n      jump\t// out\n        /* \"#utility.yul\":8723:9142   */\n    tag_99:\n        /* \"#utility.yul\":8889:8893   */\n      0x00\n        /* \"#utility.yul\":8927:8929   */\n      0x20\n        /* \"#utility.yul\":8916:8925   */\n      dup3\n        /* \"#utility.yul\":8912:8930   */\n      add\n        /* \"#utility.yul\":8904:8930   */\n      swap1\n      pop\n        /* \"#utility.yul\":8976:8985   */\n      dup2\n        /* \"#utility.yul\":8970:8974   */\n      dup2\n        /* \"#utility.yul\":8966:8986   */\n      sub\n        /* \"#utility.yul\":8962:8963   */\n      0x00\n        /* \"#utility.yul\":8951:8960   */\n      dup4\n        /* \"#utility.yul\":8947:8964   */\n      add\n        /* \"#utility.yul\":8940:8987   */\n      mstore\n        /* \"#utility.yul\":9004:9135   */\n      tag_240\n        /* \"#utility.yul\":9130:9134   */\n      dup2\n        /* \"#utility.yul\":9004:9135   */\n      tag_154\n      jump\t// in\n    tag_240:\n        /* \"#utility.yul\":8996:9135   */\n      swap1\n      pop\n        /* \"#utility.yul\":8723:9142   */\n      swap2\n      swap1\n      pop\n      jump\t// out\n        /* \"#utility.yul\":9148:9339   */\n    tag_108:\n        /* \"#utility.yul\":9188:9191   */\n      0x00\n        /* \"#utility.yul\":9207:9227   */\n      tag_242\n        /* \"#utility.yul\":9225:9226   */\n      dup3\n        /* \"#utility.yul\":9207:9227   */\n      tag_135\n      jump\t// in\n    tag_242:\n        /* \"#utility.yul\":9202:9227   */\n      swap2\n      pop\n        /* \"#utility.yul\":9241:9261   */\n      tag_243\n        /* \"#utility.yul\":9259:9260   */\n      dup4\n        /* \"#utility.yul\":9241:9261   */\n      tag_135\n      jump\t// in\n    tag_243:\n        /* \"#utility.yul\":9236:9261   */\n      swap3\n      pop\n        /* \"#utility.yul\":9284:9285   */\n      dup3\n        /* \"#utility.yul\":9281:9282   */\n      dup3\n        /* \"#utility.yul\":9277:9286   */\n      add\n        /* \"#utility.yul\":9270:9286   */\n      swap1\n      pop\n        /* \"#utility.yul\":9305:9308   */\n      dup1\n        /* \"#utility.yul\":9302:9303   */\n      dup3\n        /* \"#utility.yul\":9299:9309   */\n      gt\n        /* \"#utility.yul\":9296:9332   */\n      iszero\n      tag_244\n      jumpi\n        /* \"#utility.yul\":9312:9330   */\n      tag_245\n      tag_152\n      jump\t// in\n    tag_245:\n        /* \"#utility.yul\":9296:9332   */\n    tag_244:\n        /* \"#utility.yul\":9148:9339   */\n      swap3\n      swap2\n      pop\n      pop\n      jump\t// out\n\n    auxdata: 0xa2646970667358221220ed7c6f8df3f5ae9f7c4d946746e2a3d3fddc19a0e72993c5e3d12a37b0d64d9a64736f6c634300081a0033\n}\n",
				"bytecode": {
					"linkReferences": {},
					"object": "6080604052348015600e575f80fd5b50610ed88061001c5f395ff3fe608060405234801561000f575f80fd5b5060043610610060575f3560e01c8063283568e0146100645780632d4d0a171461008057806336fb2061146100b05780634c58e077146100e05780638d6255a514610110578063ac6ab9ed1461012c575b5f80fd5b61007e60048036038101906100799190610a5f565b61015c565b005b61009a60048036038101906100959190610a9d565b6101f8565b6040516100a79190610b7f565b60405180910390f35b6100ca60048036038101906100c59190610b9f565b610344565b6040516100d79190610bd9565b60405180910390f35b6100fa60048036038101906100f59190610b9f565b610358565b6040516101079190610bd9565b60405180910390f35b61012a60048036038101906101259190610b9f565b61041c565b005b61014660048036038101906101419190610a9d565b6104e6565b6040516101539190610c01565b60405180910390f35b5f805f8473ffffffffffffffffffffffffffffffffffffffff1673ffffffffffffffffffffffffffffffffffffffff1681526020019081526020015f205411156101aa576101a982610521565b5b805f808473ffffffffffffffffffffffffffffffffffffffff1673ffffffffffffffffffffffffffffffffffffffff1681526020019081526020015f20819055506101f4826106a0565b5050565b60605f821015801561020f57506001805490508211155b61024e576040517f08c379a000000000000000000000000000000000000000000000000000000000815260040161024590610c9a565b60405180910390fd5b5f8267ffffffffffffffff81111561026957610268610cb8565b5b6040519080825280602002602001820160405280156102975781602001602082028036833780820191505090505b5090505f5b8381101561033a57600181815481106102b8576102b7610ce5565b5b905f5260205f20015f9054906101000a900473ffffffffffffffffffffffffffffffffffffffff168282815181106102f3576102f2610ce5565b5b602002602001019073ffffffffffffffffffffffffffffffffffffffff16908173ffffffffffffffffffffffffffffffffffffffff1681525050808060010191505061029c565b5080915050919050565b5f602052805f5260405f205f915090505481565b5f805f808473ffffffffffffffffffffffffffffffffffffffff1673ffffffffffffffffffffffffffffffffffffffff1681526020019081526020015f205410156103d8576040517f08c379a00000000000000000000000000000000000000000000000000000000081526004016103cf90610d5c565b60405180910390fd5b5f808373ffffffffffffffffffffffffffffffffffffffff1673ffffffffffffffffffffffffffffffffffffffff1681526020019081526020015f20549050919050565b5f805f8373ffffffffffffffffffffffffffffffffffffffff1673ffffffffffffffffffffffffffffffffffffffff1681526020019081526020015f2054101561049b576040517f08c379a000000000000000000000000000000000000000000000000000000000815260040161049290610d5c565b60405180910390fd5b5f808273ffffffffffffffffffffffffffffffffffffffff1673ffffffffffffffffffffffffffffffffffffffff1681526020019081526020015f205f90556104e381610521565b50565b600181815481106104f5575f80fd5b905f5260205f20015f915054906101000a900473ffffffffffffffffffffffffffffffffffffffff1681565b5f5b600180549050811015610694578173ffffffffffffffffffffffffffffffffffffffff166001828154811061055b5761055a610ce5565b5b905f5260205f20015f9054906101000a900473ffffffffffffffffffffffffffffffffffffffff1673ffffffffffffffffffffffffffffffffffffffff16036106875760018080805490506105b09190610da7565b815481106105c1576105c0610ce5565b5b905f5260205f20015f9054906101000a900473ffffffffffffffffffffffffffffffffffffffff16600182815481106105fd576105fc610ce5565b5b905f5260205f20015f6101000a81548173ffffffffffffffffffffffffffffffffffffffff021916908373ffffffffffffffffffffffffffffffffffffffff160217905550600180548061065457610653610dda565b5b600190038181905f5260205f20015f6101000a81549073ffffffffffffffffffffffffffffffffffffffff021916905590555b8080600101915050610523565b5061069d61070b565b50565b600181908060018154018082558091505060019003905f5260205f20015f9091909190916101000a81548173ffffffffffffffffffffffffffffffffffffffff021916908373ffffffffffffffffffffffffffffffffffffffff16021790555061070861070b565b50565b5f60018054905011610752576040517f08c379a000000000000000000000000000000000000000000000000000000000815260040161074990610e51565b60405180910390fd5b5f5b600180805490506107659190610da7565b8110156109cb575f60018261077a9190610e6f565b90505b6001805490508110156109bd575f80600183815481106107a05761079f610ce5565b5b905f5260205f20015f9054906101000a900473ffffffffffffffffffffffffffffffffffffffff1673ffffffffffffffffffffffffffffffffffffffff1673ffffffffffffffffffffffffffffffffffffffff1681526020019081526020015f20545f806001858154811061081857610817610ce5565b5b905f5260205f20015f9054906101000a900473ffffffffffffffffffffffffffffffffffffffff1673ffffffffffffffffffffffffffffffffffffffff1673ffffffffffffffffffffffffffffffffffffffff1681526020019081526020015f205411156109b0575f6001838154811061089557610894610ce5565b5b905f5260205f20015f9054906101000a900473ffffffffffffffffffffffffffffffffffffffff169050600182815481106108d3576108d2610ce5565b5b905f5260205f20015f9054906101000a900473ffffffffffffffffffffffffffffffffffffffff166001848154811061090f5761090e610ce5565b5b905f5260205f20015f6101000a81548173ffffffffffffffffffffffffffffffffffffffff021916908373ffffffffffffffffffffffffffffffffffffffff160217905550806001838154811061096957610968610ce5565b5b905f5260205f20015f6101000a81548173ffffffffffffffffffffffffffffffffffffffff021916908373ffffffffffffffffffffffffffffffffffffffff160217905550505b808060010191505061077d565b508080600101915050610754565b50565b5f80fd5b5f73ffffffffffffffffffffffffffffffffffffffff82169050919050565b5f6109fb826109d2565b9050919050565b610a0b816109f1565b8114610a15575f80fd5b50565b5f81359050610a2681610a02565b92915050565b5f819050919050565b610a3e81610a2c565b8114610a48575f80fd5b50565b5f81359050610a5981610a35565b92915050565b5f8060408385031215610a7557610a746109ce565b5b5f610a8285828601610a18565b9250506020610a9385828601610a4b565b9150509250929050565b5f60208284031215610ab257610ab16109ce565b5b5f610abf84828501610a4b565b91505092915050565b5f81519050919050565b5f82825260208201905092915050565b5f819050602082019050919050565b610afa816109f1565b82525050565b5f610b0b8383610af1565b60208301905092915050565b5f602082019050919050565b5f610b2d82610ac8565b610b378185610ad2565b9350610b4283610ae2565b805f5b83811015610b72578151610b598882610b00565b9750610b6483610b17565b925050600181019050610b45565b5085935050505092915050565b5f6020820190508181035f830152610b978184610b23565b905092915050565b5f60208284031215610bb457610bb36109ce565b5b5f610bc184828501610a18565b91505092915050565b610bd381610a2c565b82525050565b5f602082019050610bec5f830184610bca565b92915050565b610bfb816109f1565b82525050565b5f602082019050610c145f830184610bf2565b92915050565b5f82825260208201905092915050565b7f6e2069732067726561746572207468656e2061646472657373417272206c656e5f8201527f6774680000000000000000000000000000000000000000000000000000000000602082015250565b5f610c84602383610c1a565b9150610c8f82610c2a565b604082019050919050565b5f6020820190508181035f830152610cb181610c78565b9050919050565b7f4e487b71000000000000000000000000000000000000000000000000000000005f52604160045260245ffd5b7f4e487b71000000000000000000000000000000000000000000000000000000005f52603260045260245ffd5b7f75736572206973206e6f742065786973747300000000000000000000000000005f82015250565b5f610d46601283610c1a565b9150610d5182610d12565b602082019050919050565b5f6020820190508181035f830152610d7381610d3a565b9050919050565b7f4e487b71000000000000000000000000000000000000000000000000000000005f52601160045260245ffd5b5f610db182610a2c565b9150610dbc83610a2c565b9250828203905081811115610dd457610dd3610d7a565b5b92915050565b7f4e487b71000000000000000000000000000000000000000000000000000000005f52603160045260245ffd5b7f656d7074792061646472657373417272000000000000000000000000000000005f82015250565b5f610e3b601083610c1a565b9150610e4682610e07565b602082019050919050565b5f6020820190508181035f830152610e6881610e2f565b9050919050565b5f610e7982610a2c565b9150610e8483610a2c565b9250828201905080821115610e9c57610e9b610d7a565b5b9291505056fea2646970667358221220ed7c6f8df3f5ae9f7c4d946746e2a3d3fddc19a0e72993c5e3d12a37b0d64d9a64736f6c634300081a0033",
					"opcodes": "PUSH1 0x80 PUSH1 0x40 MSTORE CALLVALUE DUP1 ISZERO PUSH1 0xE JUMPI PUSH0 DUP1 REVERT JUMPDEST POP PUSH2 0xED8 DUP1 PUSH2 0x1C PUSH0 CODECOPY PUSH0 RETURN INVALID PUSH1 0x80 PUSH1 0x40 MSTORE CALLVALUE DUP1 ISZERO PUSH2 0xF JUMPI PUSH0 DUP1 REVERT JUMPDEST POP PUSH1 0x4 CALLDATASIZE LT PUSH2 0x60 JUMPI PUSH0 CALLDATALOAD PUSH1 0xE0 SHR DUP1 PUSH4 0x283568E0 EQ PUSH2 0x64 JUMPI DUP1 PUSH4 0x2D4D0A17 EQ PUSH2 0x80 JUMPI DUP1 PUSH4 0x36FB2061 EQ PUSH2 0xB0 JUMPI DUP1 PUSH4 0x4C58E077 EQ PUSH2 0xE0 JUMPI DUP1 PUSH4 0x8D6255A5 EQ PUSH2 0x110 JUMPI DUP1 PUSH4 0xAC6AB9ED EQ PUSH2 0x12C JUMPI JUMPDEST PUSH0 DUP1 REVERT JUMPDEST PUSH2 0x7E PUSH1 0x4 DUP1 CALLDATASIZE SUB DUP2 ADD SWAP1 PUSH2 0x79 SWAP2 SWAP1 PUSH2 0xA5F JUMP JUMPDEST PUSH2 0x15C JUMP JUMPDEST STOP JUMPDEST PUSH2 0x9A PUSH1 0x4 DUP1 CALLDATASIZE SUB DUP2 ADD SWAP1 PUSH2 0x95 SWAP2 SWAP1 PUSH2 0xA9D JUMP JUMPDEST PUSH2 0x1F8 JUMP JUMPDEST PUSH1 0x40 MLOAD PUSH2 0xA7 SWAP2 SWAP1 PUSH2 0xB7F JUMP JUMPDEST PUSH1 0x40 MLOAD DUP1 SWAP2 SUB SWAP1 RETURN JUMPDEST PUSH2 0xCA PUSH1 0x4 DUP1 CALLDATASIZE SUB DUP2 ADD SWAP1 PUSH2 0xC5 SWAP2 SWAP1 PUSH2 0xB9F JUMP JUMPDEST PUSH2 0x344 JUMP JUMPDEST PUSH1 0x40 MLOAD PUSH2 0xD7 SWAP2 SWAP1 PUSH2 0xBD9 JUMP JUMPDEST PUSH1 0x40 MLOAD DUP1 SWAP2 SUB SWAP1 RETURN JUMPDEST PUSH2 0xFA PUSH1 0x4 DUP1 CALLDATASIZE SUB DUP2 ADD SWAP1 PUSH2 0xF5 SWAP2 SWAP1 PUSH2 0xB9F JUMP JUMPDEST PUSH2 0x358 JUMP JUMPDEST PUSH1 0x40 MLOAD PUSH2 0x107 SWAP2 SWAP1 PUSH2 0xBD9 JUMP JUMPDEST PUSH1 0x40 MLOAD DUP1 SWAP2 SUB SWAP1 RETURN JUMPDEST PUSH2 0x12A PUSH1 0x4 DUP1 CALLDATASIZE SUB DUP2 ADD SWAP1 PUSH2 0x125 SWAP2 SWAP1 PUSH2 0xB9F JUMP JUMPDEST PUSH2 0x41C JUMP JUMPDEST STOP JUMPDEST PUSH2 0x146 PUSH1 0x4 DUP1 CALLDATASIZE SUB DUP2 ADD SWAP1 PUSH2 0x141 SWAP2 SWAP1 PUSH2 0xA9D JUMP JUMPDEST PUSH2 0x4E6 JUMP JUMPDEST PUSH1 0x40 MLOAD PUSH2 0x153 SWAP2 SWAP1 PUSH2 0xC01 JUMP JUMPDEST PUSH1 0x40 MLOAD DUP1 SWAP2 SUB SWAP1 RETURN JUMPDEST PUSH0 DUP1 PUSH0 DUP5 PUSH20 0xFFFFFFFFFFFFFFFFFFFFFFFFFFFFFFFFFFFFFFFF AND PUSH20 0xFFFFFFFFFFFFFFFFFFFFFFFFFFFFFFFFFFFFFFFF AND DUP2 MSTORE PUSH1 0x20 ADD SWAP1 DUP2 MSTORE PUSH1 0x20 ADD PUSH0 KECCAK256 SLOAD GT ISZERO PUSH2 0x1AA JUMPI PUSH2 0x1A9 DUP3 PUSH2 0x521 JUMP JUMPDEST JUMPDEST DUP1 PUSH0 DUP1 DUP5 PUSH20 0xFFFFFFFFFFFFFFFFFFFFFFFFFFFFFFFFFFFFFFFF AND PUSH20 0xFFFFFFFFFFFFFFFFFFFFFFFFFFFFFFFFFFFFFFFF AND DUP2 MSTORE PUSH1 0x20 ADD SWAP1 DUP2 MSTORE PUSH1 0x20 ADD PUSH0 KECCAK256 DUP2 SWAP1 SSTORE POP PUSH2 0x1F4 DUP3 PUSH2 0x6A0 JUMP JUMPDEST POP POP JUMP JUMPDEST PUSH1 0x60 PUSH0 DUP3 LT ISZERO DUP1 ISZERO PUSH2 0x20F JUMPI POP PUSH1 0x1 DUP1 SLOAD SWAP1 POP DUP3 GT ISZERO JUMPDEST PUSH2 0x24E JUMPI PUSH1 0x40 MLOAD PUSH32 0x8C379A000000000000000000000000000000000000000000000000000000000 DUP2 MSTORE PUSH1 0x4 ADD PUSH2 0x245 SWAP1 PUSH2 0xC9A JUMP JUMPDEST PUSH1 0x40 MLOAD DUP1 SWAP2 SUB SWAP1 REVERT JUMPDEST PUSH0 DUP3 PUSH8 0xFFFFFFFFFFFFFFFF DUP2 GT ISZERO PUSH2 0x269 JUMPI PUSH2 0x268 PUSH2 0xCB8 JUMP JUMPDEST JUMPDEST PUSH1 0x40 MLOAD SWAP1 DUP1 DUP3 MSTORE DUP1 PUSH1 0x20 MUL PUSH1 0x20 ADD DUP3 ADD PUSH1 0x40 MSTORE DUP1 ISZERO PUSH2 0x297 JUMPI DUP2 PUSH1 0x20 ADD PUSH1 0x20 DUP3 MUL DUP1 CALLDATASIZE DUP4 CALLDATACOPY DUP1 DUP3 ADD SWAP2 POP POP SWAP1 POP JUMPDEST POP SWAP1 POP PUSH0 JUMPDEST DUP4 DUP2 LT ISZERO PUSH2 0x33A JUMPI PUSH1 0x1 DUP2 DUP2 SLOAD DUP2 LT PUSH2 0x2B8 JUMPI PUSH2 0x2B7 PUSH2 0xCE5 JUMP JUMPDEST JUMPDEST SWAP1 PUSH0 MSTORE PUSH1 0x20 PUSH0 KECCAK256 ADD PUSH0 SWAP1 SLOAD SWAP1 PUSH2 0x100 EXP SWAP1 DIV PUSH20 0xFFFFFFFFFFFFFFFFFFFFFFFFFFFFFFFFFFFFFFFF AND DUP3 DUP3 DUP2 MLOAD DUP2 LT PUSH2 0x2F3 JUMPI PUSH2 0x2F2 PUSH2 0xCE5 JUMP JUMPDEST JUMPDEST PUSH1 0x20 MUL PUSH1 0x20 ADD ADD SWAP1 PUSH20 0xFFFFFFFFFFFFFFFFFFFFFFFFFFFFFFFFFFFFFFFF AND SWAP1 DUP2 PUSH20 0xFFFFFFFFFFFFFFFFFFFFFFFFFFFFFFFFFFFFFFFF AND DUP2 MSTORE POP POP DUP1 DUP1 PUSH1 0x1 ADD SWAP2 POP POP PUSH2 0x29C JUMP JUMPDEST POP DUP1 SWAP2 POP POP SWAP2 SWAP1 POP JUMP JUMPDEST PUSH0 PUSH1 0x20 MSTORE DUP1 PUSH0 MSTORE PUSH1 0x40 PUSH0 KECCAK256 PUSH0 SWAP2 POP SWAP1 POP SLOAD DUP2 JUMP JUMPDEST PUSH0 DUP1 PUSH0 DUP1 DUP5 PUSH20 0xFFFFFFFFFFFFFFFFFFFFFFFFFFFFFFFFFFFFFFFF AND PUSH20 0xFFFFFFFFFFFFFFFFFFFFFFFFFFFFFFFFFFFFFFFF AND DUP2 MSTORE PUSH1 0x20 ADD SWAP1 DUP2 MSTORE PUSH1 0x20 ADD PUSH0 KECCAK256 SLOAD LT ISZERO PUSH2 0x3D8 JUMPI PUSH1 0x40 MLOAD PUSH32 0x8C379A000000000000000000000000000000000000000000000000000000000 DUP2 MSTORE PUSH1 0x4 ADD PUSH2 0x3CF SWAP1 PUSH2 0xD5C JUMP JUMPDEST PUSH1 0x40 MLOAD DUP1 SWAP2 SUB SWAP1 REVERT JUMPDEST PUSH0 DUP1 DUP4 PUSH20 0xFFFFFFFFFFFFFFFFFFFFFFFFFFFFFFFFFFFFFFFF AND PUSH20 0xFFFFFFFFFFFFFFFFFFFFFFFFFFFFFFFFFFFFFFFF AND DUP2 MSTORE PUSH1 0x20 ADD SWAP1 DUP2 MSTORE PUSH1 0x20 ADD PUSH0 KECCAK256 SLOAD SWAP1 POP SWAP2 SWAP1 POP JUMP JUMPDEST PUSH0 DUP1 PUSH0 DUP4 PUSH20 0xFFFFFFFFFFFFFFFFFFFFFFFFFFFFFFFFFFFFFFFF AND PUSH20 0xFFFFFFFFFFFFFFFFFFFFFFFFFFFFFFFFFFFFFFFF AND DUP2 MSTORE PUSH1 0x20 ADD SWAP1 DUP2 MSTORE PUSH1 0x20 ADD PUSH0 KECCAK256 SLOAD LT ISZERO PUSH2 0x49B JUMPI PUSH1 0x40 MLOAD PUSH32 0x8C379A000000000000000000000000000000000000000000000000000000000 DUP2 MSTORE PUSH1 0x4 ADD PUSH2 0x492 SWAP1 PUSH2 0xD5C JUMP JUMPDEST PUSH1 0x40 MLOAD DUP1 SWAP2 SUB SWAP1 REVERT JUMPDEST PUSH0 DUP1 DUP3 PUSH20 0xFFFFFFFFFFFFFFFFFFFFFFFFFFFFFFFFFFFFFFFF AND PUSH20 0xFFFFFFFFFFFFFFFFFFFFFFFFFFFFFFFFFFFFFFFF AND DUP2 MSTORE PUSH1 0x20 ADD SWAP1 DUP2 MSTORE PUSH1 0x20 ADD PUSH0 KECCAK256 PUSH0 SWAP1 SSTORE PUSH2 0x4E3 DUP2 PUSH2 0x521 JUMP JUMPDEST POP JUMP JUMPDEST PUSH1 0x1 DUP2 DUP2 SLOAD DUP2 LT PUSH2 0x4F5 JUMPI PUSH0 DUP1 REVERT JUMPDEST SWAP1 PUSH0 MSTORE PUSH1 0x20 PUSH0 KECCAK256 ADD PUSH0 SWAP2 POP SLOAD SWAP1 PUSH2 0x100 EXP SWAP1 DIV PUSH20 0xFFFFFFFFFFFFFFFFFFFFFFFFFFFFFFFFFFFFFFFF AND DUP2 JUMP JUMPDEST PUSH0 JUMPDEST PUSH1 0x1 DUP1 SLOAD SWAP1 POP DUP2 LT ISZERO PUSH2 0x694 JUMPI DUP2 PUSH20 0xFFFFFFFFFFFFFFFFFFFFFFFFFFFFFFFFFFFFFFFF AND PUSH1 0x1 DUP3 DUP2 SLOAD DUP2 LT PUSH2 0x55B JUMPI PUSH2 0x55A PUSH2 0xCE5 JUMP JUMPDEST JUMPDEST SWAP1 PUSH0 MSTORE PUSH1 0x20 PUSH0 KECCAK256 ADD PUSH0 SWAP1 SLOAD SWAP1 PUSH2 0x100 EXP SWAP1 DIV PUSH20 0xFFFFFFFFFFFFFFFFFFFFFFFFFFFFFFFFFFFFFFFF AND PUSH20 0xFFFFFFFFFFFFFFFFFFFFFFFFFFFFFFFFFFFFFFFF AND SUB PUSH2 0x687 JUMPI PUSH1 0x1 DUP1 DUP1 DUP1 SLOAD SWAP1 POP PUSH2 0x5B0 SWAP2 SWAP1 PUSH2 0xDA7 JUMP JUMPDEST DUP2 SLOAD DUP2 LT PUSH2 0x5C1 JUMPI PUSH2 0x5C0 PUSH2 0xCE5 JUMP JUMPDEST JUMPDEST SWAP1 PUSH0 MSTORE PUSH1 0x20 PUSH0 KECCAK256 ADD PUSH0 SWAP1 SLOAD SWAP1 PUSH2 0x100 EXP SWAP1 DIV PUSH20 0xFFFFFFFFFFFFFFFFFFFFFFFFFFFFFFFFFFFFFFFF AND PUSH1 0x1 DUP3 DUP2 SLOAD DUP2 LT PUSH2 0x5FD JUMPI PUSH2 0x5FC PUSH2 0xCE5 JUMP JUMPDEST JUMPDEST SWAP1 PUSH0 MSTORE PUSH1 0x20 PUSH0 KECCAK256 ADD PUSH0 PUSH2 0x100 EXP DUP2 SLOAD DUP2 PUSH20 0xFFFFFFFFFFFFFFFFFFFFFFFFFFFFFFFFFFFFFFFF MUL NOT AND SWAP1 DUP4 PUSH20 0xFFFFFFFFFFFFFFFFFFFFFFFFFFFFFFFFFFFFFFFF AND MUL OR SWAP1 SSTORE POP PUSH1 0x1 DUP1 SLOAD DUP1 PUSH2 0x654 JUMPI PUSH2 0x653 PUSH2 0xDDA JUMP JUMPDEST JUMPDEST PUSH1 0x1 SWAP1 SUB DUP2 DUP2 SWAP1 PUSH0 MSTORE PUSH1 0x20 PUSH0 KECCAK256 ADD PUSH0 PUSH2 0x100 EXP DUP2 SLOAD SWAP1 PUSH20 0xFFFFFFFFFFFFFFFFFFFFFFFFFFFFFFFFFFFFFFFF MUL NOT AND SWAP1 SSTORE SWAP1 SSTORE JUMPDEST DUP1 DUP1 PUSH1 0x1 ADD SWAP2 POP POP PUSH2 0x523 JUMP JUMPDEST POP PUSH2 0x69D PUSH2 0x70B JUMP JUMPDEST POP JUMP JUMPDEST PUSH1 0x1 DUP2 SWAP1 DUP1 PUSH1 0x1 DUP2 SLOAD ADD DUP1 DUP3 SSTORE DUP1 SWAP2 POP POP PUSH1 0x1 SWAP1 SUB SWAP1 PUSH0 MSTORE PUSH1 0x20 PUSH0 KECCAK256 ADD PUSH0 SWAP1 SWAP2 SWAP1 SWAP2 SWAP1 SWAP2 PUSH2 0x100 EXP DUP2 SLOAD DUP2 PUSH20 0xFFFFFFFFFFFFFFFFFFFFFFFFFFFFFFFFFFFFFFFF MUL NOT AND SWAP1 DUP4 PUSH20 0xFFFFFFFFFFFFFFFFFFFFFFFFFFFFFFFFFFFFFFFF AND MUL OR SWAP1 SSTORE POP PUSH2 0x708 PUSH2 0x70B JUMP JUMPDEST POP JUMP JUMPDEST PUSH0 PUSH1 0x1 DUP1 SLOAD SWAP1 POP GT PUSH2 0x752 JUMPI PUSH1 0x40 MLOAD PUSH32 0x8C379A000000000000000000000000000000000000000000000000000000000 DUP2 MSTORE PUSH1 0x4 ADD PUSH2 0x749 SWAP1 PUSH2 0xE51 JUMP JUMPDEST PUSH1 0x40 MLOAD DUP1 SWAP2 SUB SWAP1 REVERT JUMPDEST PUSH0 JUMPDEST PUSH1 0x1 DUP1 DUP1 SLOAD SWAP1 POP PUSH2 0x765 SWAP2 SWAP1 PUSH2 0xDA7 JUMP JUMPDEST DUP2 LT ISZERO PUSH2 0x9CB JUMPI PUSH0 PUSH1 0x1 DUP3 PUSH2 0x77A SWAP2 SWAP1 PUSH2 0xE6F JUMP JUMPDEST SWAP1 POP JUMPDEST PUSH1 0x1 DUP1 SLOAD SWAP1 POP DUP2 LT ISZERO PUSH2 0x9BD JUMPI PUSH0 DUP1 PUSH1 0x1 DUP4 DUP2 SLOAD DUP2 LT PUSH2 0x7A0 JUMPI PUSH2 0x79F PUSH2 0xCE5 JUMP JUMPDEST JUMPDEST SWAP1 PUSH0 MSTORE PUSH1 0x20 PUSH0 KECCAK256 ADD PUSH0 SWAP1 SLOAD SWAP1 PUSH2 0x100 EXP SWAP1 DIV PUSH20 0xFFFFFFFFFFFFFFFFFFFFFFFFFFFFFFFFFFFFFFFF AND PUSH20 0xFFFFFFFFFFFFFFFFFFFFFFFFFFFFFFFFFFFFFFFF AND PUSH20 0xFFFFFFFFFFFFFFFFFFFFFFFFFFFFFFFFFFFFFFFF AND DUP2 MSTORE PUSH1 0x20 ADD SWAP1 DUP2 MSTORE PUSH1 0x20 ADD PUSH0 KECCAK256 SLOAD PUSH0 DUP1 PUSH1 0x1 DUP6 DUP2 SLOAD DUP2 LT PUSH2 0x818 JUMPI PUSH2 0x817 PUSH2 0xCE5 JUMP JUMPDEST JUMPDEST SWAP1 PUSH0 MSTORE PUSH1 0x20 PUSH0 KECCAK256 ADD PUSH0 SWAP1 SLOAD SWAP1 PUSH2 0x100 EXP SWAP1 DIV PUSH20 0xFFFFFFFFFFFFFFFFFFFFFFFFFFFFFFFFFFFFFFFF AND PUSH20 0xFFFFFFFFFFFFFFFFFFFFFFFFFFFFFFFFFFFFFFFF AND PUSH20 0xFFFFFFFFFFFFFFFFFFFFFFFFFFFFFFFFFFFFFFFF AND DUP2 MSTORE PUSH1 0x20 ADD SWAP1 DUP2 MSTORE PUSH1 0x20 ADD PUSH0 KECCAK256 SLOAD GT ISZERO PUSH2 0x9B0 JUMPI PUSH0 PUSH1 0x1 DUP4 DUP2 SLOAD DUP2 LT PUSH2 0x895 JUMPI PUSH2 0x894 PUSH2 0xCE5 JUMP JUMPDEST JUMPDEST SWAP1 PUSH0 MSTORE PUSH1 0x20 PUSH0 KECCAK256 ADD PUSH0 SWAP1 SLOAD SWAP1 PUSH2 0x100 EXP SWAP1 DIV PUSH20 0xFFFFFFFFFFFFFFFFFFFFFFFFFFFFFFFFFFFFFFFF AND SWAP1 POP PUSH1 0x1 DUP3 DUP2 SLOAD DUP2 LT PUSH2 0x8D3 JUMPI PUSH2 0x8D2 PUSH2 0xCE5 JUMP JUMPDEST JUMPDEST SWAP1 PUSH0 MSTORE PUSH1 0x20 PUSH0 KECCAK256 ADD PUSH0 SWAP1 SLOAD SWAP1 PUSH2 0x100 EXP SWAP1 DIV PUSH20 0xFFFFFFFFFFFFFFFFFFFFFFFFFFFFFFFFFFFFFFFF AND PUSH1 0x1 DUP5 DUP2 SLOAD DUP2 LT PUSH2 0x90F JUMPI PUSH2 0x90E PUSH2 0xCE5 JUMP JUMPDEST JUMPDEST SWAP1 PUSH0 MSTORE PUSH1 0x20 PUSH0 KECCAK256 ADD PUSH0 PUSH2 0x100 EXP DUP2 SLOAD DUP2 PUSH20 0xFFFFFFFFFFFFFFFFFFFFFFFFFFFFFFFFFFFFFFFF MUL NOT AND SWAP1 DUP4 PUSH20 0xFFFFFFFFFFFFFFFFFFFFFFFFFFFFFFFFFFFFFFFF AND MUL OR SWAP1 SSTORE POP DUP1 PUSH1 0x1 DUP4 DUP2 SLOAD DUP2 LT PUSH2 0x969 JUMPI PUSH2 0x968 PUSH2 0xCE5 JUMP JUMPDEST JUMPDEST SWAP1 PUSH0 MSTORE PUSH1 0x20 PUSH0 KECCAK256 ADD PUSH0 PUSH2 0x100 EXP DUP2 SLOAD DUP2 PUSH20 0xFFFFFFFFFFFFFFFFFFFFFFFFFFFFFFFFFFFFFFFF MUL NOT AND SWAP1 DUP4 PUSH20 0xFFFFFFFFFFFFFFFFFFFFFFFFFFFFFFFFFFFFFFFF AND MUL OR SWAP1 SSTORE POP POP JUMPDEST DUP1 DUP1 PUSH1 0x1 ADD SWAP2 POP POP PUSH2 0x77D JUMP JUMPDEST POP DUP1 DUP1 PUSH1 0x1 ADD SWAP2 POP POP PUSH2 0x754 JUMP JUMPDEST POP JUMP JUMPDEST PUSH0 DUP1 REVERT JUMPDEST PUSH0 PUSH20 0xFFFFFFFFFFFFFFFFFFFFFFFFFFFFFFFFFFFFFFFF DUP3 AND SWAP1 POP SWAP2 SWAP1 POP JUMP JUMPDEST PUSH0 PUSH2 0x9FB DUP3 PUSH2 0x9D2 JUMP JUMPDEST SWAP1 POP SWAP2 SWAP1 POP JUMP JUMPDEST PUSH2 0xA0B DUP2 PUSH2 0x9F1 JUMP JUMPDEST DUP2 EQ PUSH2 0xA15 JUMPI PUSH0 DUP1 REVERT JUMPDEST POP JUMP JUMPDEST PUSH0 DUP2 CALLDATALOAD SWAP1 POP PUSH2 0xA26 DUP2 PUSH2 0xA02 JUMP JUMPDEST SWAP3 SWAP2 POP POP JUMP JUMPDEST PUSH0 DUP2 SWAP1 POP SWAP2 SWAP1 POP JUMP JUMPDEST PUSH2 0xA3E DUP2 PUSH2 0xA2C JUMP JUMPDEST DUP2 EQ PUSH2 0xA48 JUMPI PUSH0 DUP1 REVERT JUMPDEST POP JUMP JUMPDEST PUSH0 DUP2 CALLDATALOAD SWAP1 POP PUSH2 0xA59 DUP2 PUSH2 0xA35 JUMP JUMPDEST SWAP3 SWAP2 POP POP JUMP JUMPDEST PUSH0 DUP1 PUSH1 0x40 DUP4 DUP6 SUB SLT ISZERO PUSH2 0xA75 JUMPI PUSH2 0xA74 PUSH2 0x9CE JUMP JUMPDEST JUMPDEST PUSH0 PUSH2 0xA82 DUP6 DUP3 DUP7 ADD PUSH2 0xA18 JUMP JUMPDEST SWAP3 POP POP PUSH1 0x20 PUSH2 0xA93 DUP6 DUP3 DUP7 ADD PUSH2 0xA4B JUMP JUMPDEST SWAP2 POP POP SWAP3 POP SWAP3 SWAP1 POP JUMP JUMPDEST PUSH0 PUSH1 0x20 DUP3 DUP5 SUB SLT ISZERO PUSH2 0xAB2 JUMPI PUSH2 0xAB1 PUSH2 0x9CE JUMP JUMPDEST JUMPDEST PUSH0 PUSH2 0xABF DUP5 DUP3 DUP6 ADD PUSH2 0xA4B JUMP JUMPDEST SWAP2 POP POP SWAP3 SWAP2 POP POP JUMP JUMPDEST PUSH0 DUP2 MLOAD SWAP1 POP SWAP2 SWAP1 POP JUMP JUMPDEST PUSH0 DUP3 DUP3 MSTORE PUSH1 0x20 DUP3 ADD SWAP1 POP SWAP3 SWAP2 POP POP JUMP JUMPDEST PUSH0 DUP2 SWAP1 POP PUSH1 0x20 DUP3 ADD SWAP1 POP SWAP2 SWAP1 POP JUMP JUMPDEST PUSH2 0xAFA DUP2 PUSH2 0x9F1 JUMP JUMPDEST DUP3 MSTORE POP POP JUMP JUMPDEST PUSH0 PUSH2 0xB0B DUP4 DUP4 PUSH2 0xAF1 JUMP JUMPDEST PUSH1 0x20 DUP4 ADD SWAP1 POP SWAP3 SWAP2 POP POP JUMP JUMPDEST PUSH0 PUSH1 0x20 DUP3 ADD SWAP1 POP SWAP2 SWAP1 POP JUMP JUMPDEST PUSH0 PUSH2 0xB2D DUP3 PUSH2 0xAC8 JUMP JUMPDEST PUSH2 0xB37 DUP2 DUP6 PUSH2 0xAD2 JUMP JUMPDEST SWAP4 POP PUSH2 0xB42 DUP4 PUSH2 0xAE2 JUMP JUMPDEST DUP1 PUSH0 JUMPDEST DUP4 DUP2 LT ISZERO PUSH2 0xB72 JUMPI DUP2 MLOAD PUSH2 0xB59 DUP9 DUP3 PUSH2 0xB00 JUMP JUMPDEST SWAP8 POP PUSH2 0xB64 DUP4 PUSH2 0xB17 JUMP JUMPDEST SWAP3 POP POP PUSH1 0x1 DUP2 ADD SWAP1 POP PUSH2 0xB45 JUMP JUMPDEST POP DUP6 SWAP4 POP POP POP POP SWAP3 SWAP2 POP POP JUMP JUMPDEST PUSH0 PUSH1 0x20 DUP3 ADD SWAP1 POP DUP2 DUP2 SUB PUSH0 DUP4 ADD MSTORE PUSH2 0xB97 DUP2 DUP5 PUSH2 0xB23 JUMP JUMPDEST SWAP1 POP SWAP3 SWAP2 POP POP JUMP JUMPDEST PUSH0 PUSH1 0x20 DUP3 DUP5 SUB SLT ISZERO PUSH2 0xBB4 JUMPI PUSH2 0xBB3 PUSH2 0x9CE JUMP JUMPDEST JUMPDEST PUSH0 PUSH2 0xBC1 DUP5 DUP3 DUP6 ADD PUSH2 0xA18 JUMP JUMPDEST SWAP2 POP POP SWAP3 SWAP2 POP POP JUMP JUMPDEST PUSH2 0xBD3 DUP2 PUSH2 0xA2C JUMP JUMPDEST DUP3 MSTORE POP POP JUMP JUMPDEST PUSH0 PUSH1 0x20 DUP3 ADD SWAP1 POP PUSH2 0xBEC PUSH0 DUP4 ADD DUP5 PUSH2 0xBCA JUMP JUMPDEST SWAP3 SWAP2 POP POP JUMP JUMPDEST PUSH2 0xBFB DUP2 PUSH2 0x9F1 JUMP JUMPDEST DUP3 MSTORE POP POP JUMP JUMPDEST PUSH0 PUSH1 0x20 DUP3 ADD SWAP1 POP PUSH2 0xC14 PUSH0 DUP4 ADD DUP5 PUSH2 0xBF2 JUMP JUMPDEST SWAP3 SWAP2 POP POP JUMP JUMPDEST PUSH0 DUP3 DUP3 MSTORE PUSH1 0x20 DUP3 ADD SWAP1 POP SWAP3 SWAP2 POP POP JUMP JUMPDEST PUSH32 0x6E2069732067726561746572207468656E2061646472657373417272206C656E PUSH0 DUP3 ADD MSTORE PUSH32 0x6774680000000000000000000000000000000000000000000000000000000000 PUSH1 0x20 DUP3 ADD MSTORE POP JUMP JUMPDEST PUSH0 PUSH2 0xC84 PUSH1 0x23 DUP4 PUSH2 0xC1A JUMP JUMPDEST SWAP2 POP PUSH2 0xC8F DUP3 PUSH2 0xC2A JUMP JUMPDEST PUSH1 0x40 DUP3 ADD SWAP1 POP SWAP2 SWAP1 POP JUMP JUMPDEST PUSH0 PUSH1 0x20 DUP3 ADD SWAP1 POP DUP2 DUP2 SUB PUSH0 DUP4 ADD MSTORE PUSH2 0xCB1 DUP2 PUSH2 0xC78 JUMP JUMPDEST SWAP1 POP SWAP2 SWAP1 POP JUMP JUMPDEST PUSH32 0x4E487B7100000000000000000000000000000000000000000000000000000000 PUSH0 MSTORE PUSH1 0x41 PUSH1 0x4 MSTORE PUSH1 0x24 PUSH0 REVERT JUMPDEST PUSH32 0x4E487B7100000000000000000000000000000000000000000000000000000000 PUSH0 MSTORE PUSH1 0x32 PUSH1 0x4 MSTORE PUSH1 0x24 PUSH0 REVERT JUMPDEST PUSH32 0x75736572206973206E6F74206578697374730000000000000000000000000000 PUSH0 DUP3 ADD MSTORE POP JUMP JUMPDEST PUSH0 PUSH2 0xD46 PUSH1 0x12 DUP4 PUSH2 0xC1A JUMP JUMPDEST SWAP2 POP PUSH2 0xD51 DUP3 PUSH2 0xD12 JUMP JUMPDEST PUSH1 0x20 DUP3 ADD SWAP1 POP SWAP2 SWAP1 POP JUMP JUMPDEST PUSH0 PUSH1 0x20 DUP3 ADD SWAP1 POP DUP2 DUP2 SUB PUSH0 DUP4 ADD MSTORE PUSH2 0xD73 DUP2 PUSH2 0xD3A JUMP JUMPDEST SWAP1 POP SWAP2 SWAP1 POP JUMP JUMPDEST PUSH32 0x4E487B7100000000000000000000000000000000000000000000000000000000 PUSH0 MSTORE PUSH1 0x11 PUSH1 0x4 MSTORE PUSH1 0x24 PUSH0 REVERT JUMPDEST PUSH0 PUSH2 0xDB1 DUP3 PUSH2 0xA2C JUMP JUMPDEST SWAP2 POP PUSH2 0xDBC DUP4 PUSH2 0xA2C JUMP JUMPDEST SWAP3 POP DUP3 DUP3 SUB SWAP1 POP DUP2 DUP2 GT ISZERO PUSH2 0xDD4 JUMPI PUSH2 0xDD3 PUSH2 0xD7A JUMP JUMPDEST JUMPDEST SWAP3 SWAP2 POP POP JUMP JUMPDEST PUSH32 0x4E487B7100000000000000000000000000000000000000000000000000000000 PUSH0 MSTORE PUSH1 0x31 PUSH1 0x4 MSTORE PUSH1 0x24 PUSH0 REVERT JUMPDEST PUSH32 0x656D707479206164647265737341727200000000000000000000000000000000 PUSH0 DUP3 ADD MSTORE POP JUMP JUMPDEST PUSH0 PUSH2 0xE3B PUSH1 0x10 DUP4 PUSH2 0xC1A JUMP JUMPDEST SWAP2 POP PUSH2 0xE46 DUP3 PUSH2 0xE07 JUMP JUMPDEST PUSH1 0x20 DUP3 ADD SWAP1 POP SWAP2 SWAP1 POP JUMP JUMPDEST PUSH0 PUSH1 0x20 DUP3 ADD SWAP1 POP DUP2 DUP2 SUB PUSH0 DUP4 ADD MSTORE PUSH2 0xE68 DUP2 PUSH2 0xE2F JUMP JUMPDEST SWAP1 POP SWAP2 SWAP1 POP JUMP JUMPDEST PUSH0 PUSH2 0xE79 DUP3 PUSH2 0xA2C JUMP JUMPDEST SWAP2 POP PUSH2 0xE84 DUP4 PUSH2 0xA2C JUMP JUMPDEST SWAP3 POP DUP3 DUP3 ADD SWAP1 POP DUP1 DUP3 GT ISZERO PUSH2 0xE9C JUMPI PUSH2 0xE9B PUSH2 0xD7A JUMP JUMPDEST JUMPDEST SWAP3 SWAP2 POP POP JUMP INVALID LOG2 PUSH5 0x6970667358 0x22 SLT KECCAK256 0xED PUSH29 0x6F8DF3F5AE9F7C4D946746E2A3D3FDDC19A0E72993C5E3D12A37B0D64D SWAP11 PUSH5 0x736F6C6343 STOP ADDMOD BYTE STOP CALLER "
				},
				"gasEstimates": {
					"creation": {
						"codeDepositCost": "760000",
						"executionCost": "790",
						"totalCost": "760790"
					},
					"external": {
						"addOrUpdate(address,uint256)": "infinite",
						"addressArr(uint256)": "5032",
						"delScoreByAddress(address)": "infinite",
						"getScoreByAddress(address)": "5087",
						"get_first_sort_n_user(uint256)": "infinite",
						"scoresMap(address)": "2823"
					},
					"internal": {
						"add_and_sort_for_array(address)": "infinite",
						"del_and_sort_for_array(address)": "infinite",
						"sort_for_array()": "infinite"
					}
				},
				"methodIdentifiers": {
					"addOrUpdate(address,uint256)": "283568e0",
					"addressArr(uint256)": "ac6ab9ed",
					"delScoreByAddress(address)": "8d6255a5",
					"getScoreByAddress(address)": "4c58e077",
					"get_first_sort_n_user(uint256)": "2d4d0a17",
					"scoresMap(address)": "36fb2061"
				}
			},
			"storageLayout": {
				"storage": [
					{
						"astId": 5,
						"contract": "solidity-study/solidity-1base/8/LeaderBoard.sol:LeaderBoard",
						"label": "scoresMap",
						"offset": 0,
						"slot": "0",
						"type": "t_mapping(t_address,t_uint256)"
					},
					{
						"astId": 8,
						"contract": "solidity-study/solidity-1base/8/LeaderBoard.sol:LeaderBoard",
						"label": "addressArr",
						"offset": 0,
						"slot": "1",
						"type": "t_array(t_address)dyn_storage"
					}
				],
				"types": {
					"t_address": {
						"encoding": "inplace",
						"label": "address",
						"numberOfBytes": "20"
					},
					"t_array(t_address)dyn_storage": {
						"base": "t_address",
						"encoding": "dynamic_array",
						"label": "address[]",
						"numberOfBytes": "32"
					},
					"t_mapping(t_address,t_uint256)": {
						"encoding": "mapping",
						"key": "t_address",
						"label": "mapping(address => uint256)",
						"numberOfBytes": "32",
						"value": "t_uint256"
					},
					"t_uint256": {
						"encoding": "inplace",
						"label": "uint256",
						"numberOfBytes": "32"
					}
				}
			},
			"userdoc": {
				"kind": "user",
				"methods": {},
				"version": 1
			}
		}
	}
}