{
	"solidity-study/solidity-1base/8/MapDemo.sol": {
		"MapDemo": {
			"abi": [
				{
					"inputs": [
						{
							"internalType": "string",
							"name": "key",
							"type": "string"
						}
					],
					"name": "delKey",
					"outputs": [],
					"stateMutability": "nonpayable",
					"type": "function"
				},
				{
					"inputs": [
						{
							"internalType": "string",
							"name": "key",
							"type": "string"
						}
					],
					"name": "get",
					"outputs": [
						{
							"internalType": "uint256",
							"name": "",
							"type": "uint256"
						}
					],
					"stateMutability": "view",
					"type": "function"
				},
				{
					"inputs": [
						{
							"internalType": "string",
							"name": "key",
							"type": "string"
						}
					],
					"name": "getUserRecord",
					"outputs": [
						{
							"internalType": "uint256[]",
							"name": "",
							"type": "uint256[]"
						}
					],
					"stateMutability": "view",
					"type": "function"
				},
				{
					"inputs": [
						{
							"internalType": "string",
							"name": "",
							"type": "string"
						}
					],
					"name": "map",
					"outputs": [
						{
							"internalType": "uint256",
							"name": "",
							"type": "uint256"
						}
					],
					"stateMutability": "view",
					"type": "function"
				},
				{
					"inputs": [
						{
							"internalType": "string",
							"name": "",
							"type": "string"
						},
						{
							"internalType": "uint256",
							"name": "",
							"type": "uint256"
						}
					],
					"name": "scoresMap",
					"outputs": [
						{
							"internalType": "uint256",
							"name": "",
							"type": "uint256"
						}
					],
					"stateMutability": "view",
					"type": "function"
				},
				{
					"inputs": [
						{
							"internalType": "string",
							"name": "key",
							"type": "string"
						},
						{
							"internalType": "uint256",
							"name": "value",
							"type": "uint256"
						}
					],
					"name": "updateValue",
					"outputs": [],
					"stateMutability": "nonpayable",
					"type": "function"
				}
			],
			"devdoc": {
				"kind": "dev",
				"methods": {},
				"version": 1
			},
			"evm": {
				"assembly": "    /* \"solidity-study/solidity-1base/8/MapDemo.sol\":62:1042  contract MapDemo{... */\n  mstore(0x40, 0x80)\n  callvalue\n  dup1\n  iszero\n  tag_1\n  jumpi\n  0x00\n  dup1\n  revert\ntag_1:\n  pop\n  dataSize(sub_0)\n  dup1\n  dataOffset(sub_0)\n  0x00\n  codecopy\n  0x00\n  return\nstop\n\nsub_0: assembly {\n        /* \"solidity-study/solidity-1base/8/MapDemo.sol\":62:1042  contract MapDemo{... */\n      mstore(0x40, 0x80)\n      callvalue\n      dup1\n      iszero\n      tag_1\n      jumpi\n      0x00\n      dup1\n      revert\n    tag_1:\n      pop\n      jumpi(tag_2, lt(calldatasize, 0x04))\n      shr(0xe0, calldataload(0x00))\n      dup1\n      0x23814fc5\n      eq\n      tag_3\n      jumpi\n      dup1\n      0x3c77b376\n      eq\n      tag_4\n      jumpi\n      dup1\n      0x61752b97\n      eq\n      tag_5\n      jumpi\n      dup1\n      0x693ec85e\n      eq\n      tag_6\n      jumpi\n      dup1\n      0xa5ea7671\n      eq\n      tag_7\n      jumpi\n      dup1\n      0xe57cd8ae\n      eq\n      tag_8\n      jumpi\n    tag_2:\n      0x00\n      dup1\n      revert\n        /* \"solidity-study/solidity-1base/8/MapDemo.sol\":164:198  mapping(string => uint) public map */\n    tag_3:\n      tag_9\n      0x04\n      dup1\n      calldatasize\n      sub\n      dup2\n      add\n      swap1\n      tag_10\n      swap2\n      swap1\n      tag_11\n      jump\t// in\n    tag_10:\n      tag_12\n      jump\t// in\n    tag_9:\n      mload(0x40)\n      tag_13\n      swap2\n      swap1\n      tag_14\n      jump\t// in\n    tag_13:\n      mload(0x40)\n      dup1\n      swap2\n      sub\n      swap1\n      return\n        /* \"solidity-study/solidity-1base/8/MapDemo.sol\":795:903  function delKey(string memory key) public {... */\n    tag_4:\n      tag_15\n      0x04\n      dup1\n      calldatasize\n      sub\n      dup2\n      add\n      swap1\n      tag_16\n      swap2\n      swap1\n      tag_11\n      jump\t// in\n    tag_16:\n      tag_17\n      jump\t// in\n    tag_15:\n      stop\n        /* \"solidity-study/solidity-1base/8/MapDemo.sol\":909:1025  function getUserRecord(string memory key) public view returns(uint[] memory){... */\n    tag_5:\n      tag_18\n      0x04\n      dup1\n      calldatasize\n      sub\n      dup2\n      add\n      swap1\n      tag_19\n      swap2\n      swap1\n      tag_11\n      jump\t// in\n    tag_19:\n      tag_20\n      jump\t// in\n    tag_18:\n      mload(0x40)\n      tag_21\n      swap2\n      swap1\n      tag_22\n      jump\t// in\n    tag_21:\n      mload(0x40)\n      dup1\n      swap2\n      sub\n      swap1\n      return\n        /* \"solidity-study/solidity-1base/8/MapDemo.sol\":299:390  function get(string memory key) public view returns(uint){... */\n    tag_6:\n      tag_23\n      0x04\n      dup1\n      calldatasize\n      sub\n      dup2\n      add\n      swap1\n      tag_24\n      swap2\n      swap1\n      tag_11\n      jump\t// in\n    tag_24:\n      tag_25\n      jump\t// in\n    tag_23:\n      mload(0x40)\n      tag_26\n      swap2\n      swap1\n      tag_14\n      jump\t// in\n    tag_26:\n      mload(0x40)\n      dup1\n      swap2\n      sub\n      swap1\n      return\n        /* \"solidity-study/solidity-1base/8/MapDemo.sol\":425:716  function updateValue(string memory key,uint value) public  {... */\n    tag_7:\n      tag_27\n      0x04\n      dup1\n      calldatasize\n      sub\n      dup2\n      add\n      swap1\n      tag_28\n      swap2\n      swap1\n      tag_29\n      jump\t// in\n    tag_28:\n      tag_30\n      jump\t// in\n    tag_27:\n      stop\n        /* \"solidity-study/solidity-1base/8/MapDemo.sol\":205:247  mapping(string => uint[]) public scoresMap */\n    tag_8:\n      tag_31\n      0x04\n      dup1\n      calldatasize\n      sub\n      dup2\n      add\n      swap1\n      tag_32\n      swap2\n      swap1\n      tag_29\n      jump\t// in\n    tag_32:\n      tag_33\n      jump\t// in\n    tag_31:\n      mload(0x40)\n      tag_34\n      swap2\n      swap1\n      tag_14\n      jump\t// in\n    tag_34:\n      mload(0x40)\n      dup1\n      swap2\n      sub\n      swap1\n      return\n        /* \"solidity-study/solidity-1base/8/MapDemo.sol\":164:198  mapping(string => uint) public map */\n    tag_12:\n      0x00\n      dup2\n      dup1\n      mload\n      0x20\n      dup2\n      add\n      dup3\n      add\n      dup1\n      mload\n      dup5\n      dup3\n      mstore\n      0x20\n      dup4\n      add\n      0x20\n      dup6\n      add\n      keccak256\n      dup2\n      dup4\n      mstore\n      dup1\n      swap6\n      pop\n      pop\n      pop\n      pop\n      pop\n      pop\n      0x00\n      swap2\n      pop\n      swap1\n      pop\n      sload\n      dup2\n      jump\t// out\n        /* \"solidity-study/solidity-1base/8/MapDemo.sol\":795:903  function delKey(string memory key) public {... */\n    tag_17:\n        /* \"solidity-study/solidity-1base/8/MapDemo.sol\":855:858  map */\n      0x00\n        /* \"solidity-study/solidity-1base/8/MapDemo.sol\":859:862  key */\n      dup2\n        /* \"solidity-study/solidity-1base/8/MapDemo.sol\":855:863  map[key] */\n      mload(0x40)\n      tag_36\n      swap2\n      swap1\n      tag_37\n      jump\t// in\n    tag_36:\n      swap1\n      dup2\n      mstore\n      0x20\n      add\n      mload(0x40)\n      dup1\n      swap2\n      sub\n      swap1\n      keccak256\n        /* \"solidity-study/solidity-1base/8/MapDemo.sol\":848:863  delete map[key] */\n      0x00\n      swap1\n      sstore\n        /* \"solidity-study/solidity-1base/8/MapDemo.sol\":881:890  scoresMap */\n      0x01\n        /* \"solidity-study/solidity-1base/8/MapDemo.sol\":891:894  key */\n      dup2\n        /* \"solidity-study/solidity-1base/8/MapDemo.sol\":881:895  scoresMap[key] */\n      mload(0x40)\n      tag_38\n      swap2\n      swap1\n      tag_37\n      jump\t// in\n    tag_38:\n      swap1\n      dup2\n      mstore\n      0x20\n      add\n      mload(0x40)\n      dup1\n      swap2\n      sub\n      swap1\n      keccak256\n      0x00\n        /* \"solidity-study/solidity-1base/8/MapDemo.sol\":874:895  delete scoresMap[key] */\n      tag_39\n      swap2\n      swap1\n      tag_40\n      jump\t// in\n    tag_39:\n        /* \"solidity-study/solidity-1base/8/MapDemo.sol\":795:903  function delKey(string memory key) public {... */\n      pop\n      jump\t// out\n        /* \"solidity-study/solidity-1base/8/MapDemo.sol\":909:1025  function getUserRecord(string memory key) public view returns(uint[] memory){... */\n    tag_20:\n        /* \"solidity-study/solidity-1base/8/MapDemo.sol\":971:984  uint[] memory */\n      0x60\n        /* \"solidity-study/solidity-1base/8/MapDemo.sol\":1003:1012  scoresMap */\n      0x01\n        /* \"solidity-study/solidity-1base/8/MapDemo.sol\":1013:1016  key */\n      dup3\n        /* \"solidity-study/solidity-1base/8/MapDemo.sol\":1003:1017  scoresMap[key] */\n      mload(0x40)\n      tag_42\n      swap2\n      swap1\n      tag_37\n      jump\t// in\n    tag_42:\n      swap1\n      dup2\n      mstore\n      0x20\n      add\n      mload(0x40)\n      dup1\n      swap2\n      sub\n      swap1\n      keccak256\n        /* \"solidity-study/solidity-1base/8/MapDemo.sol\":996:1017  return scoresMap[key] */\n      dup1\n      sload\n      dup1\n      0x20\n      mul\n      0x20\n      add\n      mload(0x40)\n      swap1\n      dup2\n      add\n      0x40\n      mstore\n      dup1\n      swap3\n      swap2\n      swap1\n      dup2\n      dup2\n      mstore\n      0x20\n      add\n      dup3\n      dup1\n      sload\n      dup1\n      iszero\n      tag_43\n      jumpi\n      0x20\n      mul\n      dup3\n      add\n      swap2\n      swap1\n      0x00\n      mstore\n      keccak256(0x00, 0x20)\n      swap1\n    tag_44:\n      dup2\n      sload\n      dup2\n      mstore\n      0x20\n      add\n      swap1\n      0x01\n      add\n      swap1\n      dup1\n      dup4\n      gt\n      tag_44\n      jumpi\n    tag_43:\n      pop\n      pop\n      pop\n      pop\n      pop\n      swap1\n      pop\n        /* \"solidity-study/solidity-1base/8/MapDemo.sol\":909:1025  function getUserRecord(string memory key) public view returns(uint[] memory){... */\n      swap2\n      swap1\n      pop\n      jump\t// out\n        /* \"solidity-study/solidity-1base/8/MapDemo.sol\":299:390  function get(string memory key) public view returns(uint){... */\n    tag_25:\n        /* \"solidity-study/solidity-1base/8/MapDemo.sol\":351:355  uint */\n      0x00\n        /* \"solidity-study/solidity-1base/8/MapDemo.sol\":374:377  map */\n      dup1\n        /* \"solidity-study/solidity-1base/8/MapDemo.sol\":378:381  key */\n      dup3\n        /* \"solidity-study/solidity-1base/8/MapDemo.sol\":374:382  map[key] */\n      mload(0x40)\n      tag_46\n      swap2\n      swap1\n      tag_37\n      jump\t// in\n    tag_46:\n      swap1\n      dup2\n      mstore\n      0x20\n      add\n      mload(0x40)\n      dup1\n      swap2\n      sub\n      swap1\n      keccak256\n      sload\n        /* \"solidity-study/solidity-1base/8/MapDemo.sol\":367:382  return map[key] */\n      swap1\n      pop\n        /* \"solidity-study/solidity-1base/8/MapDemo.sol\":299:390  function get(string memory key) public view returns(uint){... */\n      swap2\n      swap1\n      pop\n      jump\t// out\n        /* \"solidity-study/solidity-1base/8/MapDemo.sol\":425:716  function updateValue(string memory key,uint value) public  {... */\n    tag_30:\n        /* \"solidity-study/solidity-1base/8/MapDemo.sol\":656:661  value */\n      dup1\n        /* \"solidity-study/solidity-1base/8/MapDemo.sol\":645:648  map */\n      0x00\n        /* \"solidity-study/solidity-1base/8/MapDemo.sol\":649:652  key */\n      dup4\n        /* \"solidity-study/solidity-1base/8/MapDemo.sol\":645:653  map[key] */\n      mload(0x40)\n      tag_48\n      swap2\n      swap1\n      tag_37\n      jump\t// in\n    tag_48:\n      swap1\n      dup2\n      mstore\n      0x20\n      add\n      mload(0x40)\n      dup1\n      swap2\n      sub\n      swap1\n      keccak256\n      sload\n        /* \"solidity-study/solidity-1base/8/MapDemo.sol\":645:661  map[key] + value */\n      tag_49\n      swap2\n      swap1\n      tag_50\n      jump\t// in\n    tag_49:\n        /* \"solidity-study/solidity-1base/8/MapDemo.sol\":634:637  map */\n      0x00\n        /* \"solidity-study/solidity-1base/8/MapDemo.sol\":638:641  key */\n      dup4\n        /* \"solidity-study/solidity-1base/8/MapDemo.sol\":634:642  map[key] */\n      mload(0x40)\n      tag_51\n      swap2\n      swap1\n      tag_37\n      jump\t// in\n    tag_51:\n      swap1\n      dup2\n      mstore\n      0x20\n      add\n      mload(0x40)\n      dup1\n      swap2\n      sub\n      swap1\n      keccak256\n        /* \"solidity-study/solidity-1base/8/MapDemo.sol\":634:661  map[key] = map[key] + value */\n      dup2\n      swap1\n      sstore\n      pop\n        /* \"solidity-study/solidity-1base/8/MapDemo.sol\":672:681  scoresMap */\n      0x01\n        /* \"solidity-study/solidity-1base/8/MapDemo.sol\":682:685  key */\n      dup3\n        /* \"solidity-study/solidity-1base/8/MapDemo.sol\":672:686  scoresMap[key] */\n      mload(0x40)\n      tag_52\n      swap2\n      swap1\n      tag_37\n      jump\t// in\n    tag_52:\n      swap1\n      dup2\n      mstore\n      0x20\n      add\n      mload(0x40)\n      dup1\n      swap2\n      sub\n      swap1\n      keccak256\n        /* \"solidity-study/solidity-1base/8/MapDemo.sol\":692:697  value */\n      dup2\n        /* \"solidity-study/solidity-1base/8/MapDemo.sol\":672:698  scoresMap[key].push(value) */\n      swap1\n      dup1\n      0x01\n      dup2\n      sload\n      add\n      dup1\n      dup3\n      sstore\n      dup1\n      swap2\n      pop\n      pop\n      0x01\n      swap1\n      sub\n      swap1\n      0x00\n      mstore\n      keccak256(0x00, 0x20)\n      add\n      0x00\n      swap1\n      swap2\n      swap1\n      swap2\n      swap1\n      swap2\n      pop\n      sstore\n        /* \"solidity-study/solidity-1base/8/MapDemo.sol\":425:716  function updateValue(string memory key,uint value) public  {... */\n      pop\n      pop\n      jump\t// out\n        /* \"solidity-study/solidity-1base/8/MapDemo.sol\":205:247  mapping(string => uint[]) public scoresMap */\n    tag_33:\n      0x01\n      dup3\n      dup1\n      mload\n      0x20\n      dup2\n      add\n      dup3\n      add\n      dup1\n      mload\n      dup5\n      dup3\n      mstore\n      0x20\n      dup4\n      add\n      0x20\n      dup6\n      add\n      keccak256\n      dup2\n      dup4\n      mstore\n      dup1\n      swap6\n      pop\n      pop\n      pop\n      pop\n      pop\n      pop\n      dup2\n      dup2\n      sload\n      dup2\n      lt\n      tag_54\n      jumpi\n      0x00\n      dup1\n      revert\n    tag_54:\n      swap1\n      0x00\n      mstore\n      keccak256(0x00, 0x20)\n      add\n      0x00\n      swap2\n      pop\n      swap2\n      pop\n      pop\n      sload\n      dup2\n      jump\t// out\n    tag_40:\n      pop\n      dup1\n      sload\n      0x00\n      dup3\n      sstore\n      swap1\n      0x00\n      mstore\n      keccak256(0x00, 0x20)\n      swap1\n      dup2\n      add\n      swap1\n      tag_57\n      swap2\n      swap1\n      tag_58\n      jump\t// in\n    tag_57:\n      pop\n      jump\t// out\n    tag_58:\n    tag_59:\n      dup1\n      dup3\n      gt\n      iszero\n      tag_60\n      jumpi\n      0x00\n      dup2\n      0x00\n      swap1\n      sstore\n      pop\n      0x01\n      add\n      jump(tag_59)\n    tag_60:\n      pop\n      swap1\n      jump\t// out\n        /* \"#utility.yul\":7:82   */\n    tag_61:\n        /* \"#utility.yul\":40:46   */\n      0x00\n        /* \"#utility.yul\":73:75   */\n      0x40\n        /* \"#utility.yul\":67:76   */\n      mload\n        /* \"#utility.yul\":57:76   */\n      swap1\n      pop\n        /* \"#utility.yul\":7:82   */\n      swap1\n      jump\t// out\n        /* \"#utility.yul\":88:205   */\n    tag_62:\n        /* \"#utility.yul\":197:198   */\n      0x00\n        /* \"#utility.yul\":194:195   */\n      dup1\n        /* \"#utility.yul\":187:199   */\n      revert\n        /* \"#utility.yul\":211:328   */\n    tag_63:\n        /* \"#utility.yul\":320:321   */\n      0x00\n        /* \"#utility.yul\":317:318   */\n      dup1\n        /* \"#utility.yul\":310:322   */\n      revert\n        /* \"#utility.yul\":334:451   */\n    tag_64:\n        /* \"#utility.yul\":443:444   */\n      0x00\n        /* \"#utility.yul\":440:441   */\n      dup1\n        /* \"#utility.yul\":433:445   */\n      revert\n        /* \"#utility.yul\":457:574   */\n    tag_65:\n        /* \"#utility.yul\":566:567   */\n      0x00\n        /* \"#utility.yul\":563:564   */\n      dup1\n        /* \"#utility.yul\":556:568   */\n      revert\n        /* \"#utility.yul\":580:682   */\n    tag_66:\n        /* \"#utility.yul\":621:627   */\n      0x00\n        /* \"#utility.yul\":672:674   */\n      0x1f\n        /* \"#utility.yul\":668:675   */\n      not\n        /* \"#utility.yul\":663:665   */\n      0x1f\n        /* \"#utility.yul\":656:661   */\n      dup4\n        /* \"#utility.yul\":652:666   */\n      add\n        /* \"#utility.yul\":648:676   */\n      and\n        /* \"#utility.yul\":638:676   */\n      swap1\n      pop\n        /* \"#utility.yul\":580:682   */\n      swap2\n      swap1\n      pop\n      jump\t// out\n        /* \"#utility.yul\":688:868   */\n    tag_67:\n        /* \"#utility.yul\":736:813   */\n      0x4e487b7100000000000000000000000000000000000000000000000000000000\n        /* \"#utility.yul\":733:734   */\n      0x00\n        /* \"#utility.yul\":726:814   */\n      mstore\n        /* \"#utility.yul\":833:837   */\n      0x41\n        /* \"#utility.yul\":830:831   */\n      0x04\n        /* \"#utility.yul\":823:838   */\n      mstore\n        /* \"#utility.yul\":857:861   */\n      0x24\n        /* \"#utility.yul\":854:855   */\n      0x00\n        /* \"#utility.yul\":847:862   */\n      revert\n        /* \"#utility.yul\":874:1155   */\n    tag_68:\n        /* \"#utility.yul\":957:984   */\n      tag_99\n        /* \"#utility.yul\":979:983   */\n      dup3\n        /* \"#utility.yul\":957:984   */\n      tag_66\n      jump\t// in\n    tag_99:\n        /* \"#utility.yul\":949:955   */\n      dup2\n        /* \"#utility.yul\":945:985   */\n      add\n        /* \"#utility.yul\":1087:1093   */\n      dup2\n        /* \"#utility.yul\":1075:1085   */\n      dup2\n        /* \"#utility.yul\":1072:1094   */\n      lt\n        /* \"#utility.yul\":1051:1069   */\n      0xffffffffffffffff\n        /* \"#utility.yul\":1039:1049   */\n      dup3\n        /* \"#utility.yul\":1036:1070   */\n      gt\n        /* \"#utility.yul\":1033:1095   */\n      or\n        /* \"#utility.yul\":1030:1118   */\n      iszero\n      tag_100\n      jumpi\n        /* \"#utility.yul\":1098:1116   */\n      tag_101\n      tag_67\n      jump\t// in\n    tag_101:\n        /* \"#utility.yul\":1030:1118   */\n    tag_100:\n        /* \"#utility.yul\":1138:1148   */\n      dup1\n        /* \"#utility.yul\":1134:1136   */\n      0x40\n        /* \"#utility.yul\":1127:1149   */\n      mstore\n        /* \"#utility.yul\":917:1155   */\n      pop\n        /* \"#utility.yul\":874:1155   */\n      pop\n      pop\n      jump\t// out\n        /* \"#utility.yul\":1161:1290   */\n    tag_69:\n        /* \"#utility.yul\":1195:1201   */\n      0x00\n        /* \"#utility.yul\":1222:1242   */\n      tag_103\n      tag_61\n      jump\t// in\n    tag_103:\n        /* \"#utility.yul\":1212:1242   */\n      swap1\n      pop\n        /* \"#utility.yul\":1251:1284   */\n      tag_104\n        /* \"#utility.yul\":1279:1283   */\n      dup3\n        /* \"#utility.yul\":1271:1277   */\n      dup3\n        /* \"#utility.yul\":1251:1284   */\n      tag_68\n      jump\t// in\n    tag_104:\n        /* \"#utility.yul\":1161:1290   */\n      swap2\n      swap1\n      pop\n      jump\t// out\n        /* \"#utility.yul\":1296:1604   */\n    tag_70:\n        /* \"#utility.yul\":1358:1362   */\n      0x00\n        /* \"#utility.yul\":1448:1466   */\n      0xffffffffffffffff\n        /* \"#utility.yul\":1440:1446   */\n      dup3\n        /* \"#utility.yul\":1437:1467   */\n      gt\n        /* \"#utility.yul\":1434:1490   */\n      iszero\n      tag_106\n      jumpi\n        /* \"#utility.yul\":1470:1488   */\n      tag_107\n      tag_67\n      jump\t// in\n    tag_107:\n        /* \"#utility.yul\":1434:1490   */\n    tag_106:\n        /* \"#utility.yul\":1508:1537   */\n      tag_108\n        /* \"#utility.yul\":1530:1536   */\n      dup3\n        /* \"#utility.yul\":1508:1537   */\n      tag_66\n      jump\t// in\n    tag_108:\n        /* \"#utility.yul\":1500:1537   */\n      swap1\n      pop\n        /* \"#utility.yul\":1592:1596   */\n      0x20\n        /* \"#utility.yul\":1586:1590   */\n      dup2\n        /* \"#utility.yul\":1582:1597   */\n      add\n        /* \"#utility.yul\":1574:1597   */\n      swap1\n      pop\n        /* \"#utility.yul\":1296:1604   */\n      swap2\n      swap1\n      pop\n      jump\t// out\n        /* \"#utility.yul\":1610:1758   */\n    tag_71:\n        /* \"#utility.yul\":1708:1714   */\n      dup3\n        /* \"#utility.yul\":1703:1706   */\n      dup2\n        /* \"#utility.yul\":1698:1701   */\n      dup4\n        /* \"#utility.yul\":1685:1715   */\n      calldatacopy\n        /* \"#utility.yul\":1749:1750   */\n      0x00\n        /* \"#utility.yul\":1740:1746   */\n      dup4\n        /* \"#utility.yul\":1735:1738   */\n      dup4\n        /* \"#utility.yul\":1731:1747   */\n      add\n        /* \"#utility.yul\":1724:1751   */\n      mstore\n        /* \"#utility.yul\":1610:1758   */\n      pop\n      pop\n      pop\n      jump\t// out\n        /* \"#utility.yul\":1764:2189   */\n    tag_72:\n        /* \"#utility.yul\":1842:1847   */\n      0x00\n        /* \"#utility.yul\":1867:1933   */\n      tag_111\n        /* \"#utility.yul\":1883:1932   */\n      tag_112\n        /* \"#utility.yul\":1925:1931   */\n      dup5\n        /* \"#utility.yul\":1883:1932   */\n      tag_70\n      jump\t// in\n    tag_112:\n        /* \"#utility.yul\":1867:1933   */\n      tag_69\n      jump\t// in\n    tag_111:\n        /* \"#utility.yul\":1858:1933   */\n      swap1\n      pop\n        /* \"#utility.yul\":1956:1962   */\n      dup3\n        /* \"#utility.yul\":1949:1954   */\n      dup2\n        /* \"#utility.yul\":1942:1963   */\n      mstore\n        /* \"#utility.yul\":1994:1998   */\n      0x20\n        /* \"#utility.yul\":1987:1992   */\n      dup2\n        /* \"#utility.yul\":1983:1999   */\n      add\n        /* \"#utility.yul\":2032:2035   */\n      dup5\n        /* \"#utility.yul\":2023:2029   */\n      dup5\n        /* \"#utility.yul\":2018:2021   */\n      dup5\n        /* \"#utility.yul\":2014:2030   */\n      add\n        /* \"#utility.yul\":2011:2036   */\n      gt\n        /* \"#utility.yul\":2008:2120   */\n      iszero\n      tag_113\n      jumpi\n        /* \"#utility.yul\":2039:2118   */\n      tag_114\n      tag_65\n      jump\t// in\n    tag_114:\n        /* \"#utility.yul\":2008:2120   */\n    tag_113:\n        /* \"#utility.yul\":2129:2183   */\n      tag_115\n        /* \"#utility.yul\":2176:2182   */\n      dup5\n        /* \"#utility.yul\":2171:2174   */\n      dup3\n        /* \"#utility.yul\":2166:2169   */\n      dup6\n        /* \"#utility.yul\":2129:2183   */\n      tag_71\n      jump\t// in\n    tag_115:\n        /* \"#utility.yul\":1848:2189   */\n      pop\n        /* \"#utility.yul\":1764:2189   */\n      swap4\n      swap3\n      pop\n      pop\n      pop\n      jump\t// out\n        /* \"#utility.yul\":2209:2549   */\n    tag_73:\n        /* \"#utility.yul\":2265:2270   */\n      0x00\n        /* \"#utility.yul\":2314:2317   */\n      dup3\n        /* \"#utility.yul\":2307:2311   */\n      0x1f\n        /* \"#utility.yul\":2299:2305   */\n      dup4\n        /* \"#utility.yul\":2295:2312   */\n      add\n        /* \"#utility.yul\":2291:2318   */\n      slt\n        /* \"#utility.yul\":2281:2403   */\n      tag_117\n      jumpi\n        /* \"#utility.yul\":2322:2401   */\n      tag_118\n      tag_64\n      jump\t// in\n    tag_118:\n        /* \"#utility.yul\":2281:2403   */\n    tag_117:\n        /* \"#utility.yul\":2439:2445   */\n      dup2\n        /* \"#utility.yul\":2426:2446   */\n      calldataload\n        /* \"#utility.yul\":2464:2543   */\n      tag_119\n        /* \"#utility.yul\":2539:2542   */\n      dup5\n        /* \"#utility.yul\":2531:2537   */\n      dup3\n        /* \"#utility.yul\":2524:2528   */\n      0x20\n        /* \"#utility.yul\":2516:2522   */\n      dup7\n        /* \"#utility.yul\":2512:2529   */\n      add\n        /* \"#utility.yul\":2464:2543   */\n      tag_72\n      jump\t// in\n    tag_119:\n        /* \"#utility.yul\":2455:2543   */\n      swap2\n      pop\n        /* \"#utility.yul\":2271:2549   */\n      pop\n        /* \"#utility.yul\":2209:2549   */\n      swap3\n      swap2\n      pop\n      pop\n      jump\t// out\n        /* \"#utility.yul\":2555:3064   */\n    tag_11:\n        /* \"#utility.yul\":2624:2630   */\n      0x00\n        /* \"#utility.yul\":2673:2675   */\n      0x20\n        /* \"#utility.yul\":2661:2670   */\n      dup3\n        /* \"#utility.yul\":2652:2659   */\n      dup5\n        /* \"#utility.yul\":2648:2671   */\n      sub\n        /* \"#utility.yul\":2644:2676   */\n      slt\n        /* \"#utility.yul\":2641:2760   */\n      iszero\n      tag_121\n      jumpi\n        /* \"#utility.yul\":2679:2758   */\n      tag_122\n      tag_62\n      jump\t// in\n    tag_122:\n        /* \"#utility.yul\":2641:2760   */\n    tag_121:\n        /* \"#utility.yul\":2827:2828   */\n      0x00\n        /* \"#utility.yul\":2816:2825   */\n      dup3\n        /* \"#utility.yul\":2812:2829   */\n      add\n        /* \"#utility.yul\":2799:2830   */\n      calldataload\n        /* \"#utility.yul\":2857:2875   */\n      0xffffffffffffffff\n        /* \"#utility.yul\":2849:2855   */\n      dup2\n        /* \"#utility.yul\":2846:2876   */\n      gt\n        /* \"#utility.yul\":2843:2960   */\n      iszero\n      tag_123\n      jumpi\n        /* \"#utility.yul\":2879:2958   */\n      tag_124\n      tag_63\n      jump\t// in\n    tag_124:\n        /* \"#utility.yul\":2843:2960   */\n    tag_123:\n        /* \"#utility.yul\":2984:3047   */\n      tag_125\n        /* \"#utility.yul\":3039:3046   */\n      dup5\n        /* \"#utility.yul\":3030:3036   */\n      dup3\n        /* \"#utility.yul\":3019:3028   */\n      dup6\n        /* \"#utility.yul\":3015:3037   */\n      add\n        /* \"#utility.yul\":2984:3047   */\n      tag_73\n      jump\t// in\n    tag_125:\n        /* \"#utility.yul\":2974:3047   */\n      swap2\n      pop\n        /* \"#utility.yul\":2770:3057   */\n      pop\n        /* \"#utility.yul\":2555:3064   */\n      swap3\n      swap2\n      pop\n      pop\n      jump\t// out\n        /* \"#utility.yul\":3070:3147   */\n    tag_74:\n        /* \"#utility.yul\":3107:3114   */\n      0x00\n        /* \"#utility.yul\":3136:3141   */\n      dup2\n        /* \"#utility.yul\":3125:3141   */\n      swap1\n      pop\n        /* \"#utility.yul\":3070:3147   */\n      swap2\n      swap1\n      pop\n      jump\t// out\n        /* \"#utility.yul\":3153:3271   */\n    tag_75:\n        /* \"#utility.yul\":3240:3264   */\n      tag_128\n        /* \"#utility.yul\":3258:3263   */\n      dup2\n        /* \"#utility.yul\":3240:3264   */\n      tag_74\n      jump\t// in\n    tag_128:\n        /* \"#utility.yul\":3235:3238   */\n      dup3\n        /* \"#utility.yul\":3228:3265   */\n      mstore\n        /* \"#utility.yul\":3153:3271   */\n      pop\n      pop\n      jump\t// out\n        /* \"#utility.yul\":3277:3499   */\n    tag_14:\n        /* \"#utility.yul\":3370:3374   */\n      0x00\n        /* \"#utility.yul\":3408:3410   */\n      0x20\n        /* \"#utility.yul\":3397:3406   */\n      dup3\n        /* \"#utility.yul\":3393:3411   */\n      add\n        /* \"#utility.yul\":3385:3411   */\n      swap1\n      pop\n        /* \"#utility.yul\":3421:3492   */\n      tag_130\n        /* \"#utility.yul\":3489:3490   */\n      0x00\n        /* \"#utility.yul\":3478:3487   */\n      dup4\n        /* \"#utility.yul\":3474:3491   */\n      add\n        /* \"#utility.yul\":3465:3471   */\n      dup5\n        /* \"#utility.yul\":3421:3492   */\n      tag_75\n      jump\t// in\n    tag_130:\n        /* \"#utility.yul\":3277:3499   */\n      swap3\n      swap2\n      pop\n      pop\n      jump\t// out\n        /* \"#utility.yul\":3505:3619   */\n    tag_76:\n        /* \"#utility.yul\":3572:3578   */\n      0x00\n        /* \"#utility.yul\":3606:3611   */\n      dup2\n        /* \"#utility.yul\":3600:3612   */\n      mload\n        /* \"#utility.yul\":3590:3612   */\n      swap1\n      pop\n        /* \"#utility.yul\":3505:3619   */\n      swap2\n      swap1\n      pop\n      jump\t// out\n        /* \"#utility.yul\":3625:3809   */\n    tag_77:\n        /* \"#utility.yul\":3724:3735   */\n      0x00\n        /* \"#utility.yul\":3758:3764   */\n      dup3\n        /* \"#utility.yul\":3753:3756   */\n      dup3\n        /* \"#utility.yul\":3746:3765   */\n      mstore\n        /* \"#utility.yul\":3798:3802   */\n      0x20\n        /* \"#utility.yul\":3793:3796   */\n      dup3\n        /* \"#utility.yul\":3789:3803   */\n      add\n        /* \"#utility.yul\":3774:3803   */\n      swap1\n      pop\n        /* \"#utility.yul\":3625:3809   */\n      swap3\n      swap2\n      pop\n      pop\n      jump\t// out\n        /* \"#utility.yul\":3815:3947   */\n    tag_78:\n        /* \"#utility.yul\":3882:3886   */\n      0x00\n        /* \"#utility.yul\":3905:3908   */\n      dup2\n        /* \"#utility.yul\":3897:3908   */\n      swap1\n      pop\n        /* \"#utility.yul\":3935:3939   */\n      0x20\n        /* \"#utility.yul\":3930:3933   */\n      dup3\n        /* \"#utility.yul\":3926:3940   */\n      add\n        /* \"#utility.yul\":3918:3940   */\n      swap1\n      pop\n        /* \"#utility.yul\":3815:3947   */\n      swap2\n      swap1\n      pop\n      jump\t// out\n        /* \"#utility.yul\":3953:4061   */\n    tag_79:\n        /* \"#utility.yul\":4030:4054   */\n      tag_135\n        /* \"#utility.yul\":4048:4053   */\n      dup2\n        /* \"#utility.yul\":4030:4054   */\n      tag_74\n      jump\t// in\n    tag_135:\n        /* \"#utility.yul\":4025:4028   */\n      dup3\n        /* \"#utility.yul\":4018:4055   */\n      mstore\n        /* \"#utility.yul\":3953:4061   */\n      pop\n      pop\n      jump\t// out\n        /* \"#utility.yul\":4067:4246   */\n    tag_80:\n        /* \"#utility.yul\":4136:4146   */\n      0x00\n        /* \"#utility.yul\":4157:4203   */\n      tag_137\n        /* \"#utility.yul\":4199:4202   */\n      dup4\n        /* \"#utility.yul\":4191:4197   */\n      dup4\n        /* \"#utility.yul\":4157:4203   */\n      tag_79\n      jump\t// in\n    tag_137:\n        /* \"#utility.yul\":4235:4239   */\n      0x20\n        /* \"#utility.yul\":4230:4233   */\n      dup4\n        /* \"#utility.yul\":4226:4240   */\n      add\n        /* \"#utility.yul\":4212:4240   */\n      swap1\n      pop\n        /* \"#utility.yul\":4067:4246   */\n      swap3\n      swap2\n      pop\n      pop\n      jump\t// out\n        /* \"#utility.yul\":4252:4365   */\n    tag_81:\n        /* \"#utility.yul\":4322:4326   */\n      0x00\n        /* \"#utility.yul\":4354:4358   */\n      0x20\n        /* \"#utility.yul\":4349:4352   */\n      dup3\n        /* \"#utility.yul\":4345:4359   */\n      add\n        /* \"#utility.yul\":4337:4359   */\n      swap1\n      pop\n        /* \"#utility.yul\":4252:4365   */\n      swap2\n      swap1\n      pop\n      jump\t// out\n        /* \"#utility.yul\":4401:5133   */\n    tag_82:\n        /* \"#utility.yul\":4520:4523   */\n      0x00\n        /* \"#utility.yul\":4549:4603   */\n      tag_140\n        /* \"#utility.yul\":4597:4602   */\n      dup3\n        /* \"#utility.yul\":4549:4603   */\n      tag_76\n      jump\t// in\n    tag_140:\n        /* \"#utility.yul\":4619:4705   */\n      tag_141\n        /* \"#utility.yul\":4698:4704   */\n      dup2\n        /* \"#utility.yul\":4693:4696   */\n      dup6\n        /* \"#utility.yul\":4619:4705   */\n      tag_77\n      jump\t// in\n    tag_141:\n        /* \"#utility.yul\":4612:4705   */\n      swap4\n      pop\n        /* \"#utility.yul\":4729:4785   */\n      tag_142\n        /* \"#utility.yul\":4779:4784   */\n      dup4\n        /* \"#utility.yul\":4729:4785   */\n      tag_78\n      jump\t// in\n    tag_142:\n        /* \"#utility.yul\":4808:4815   */\n      dup1\n        /* \"#utility.yul\":4839:4840   */\n      0x00\n        /* \"#utility.yul\":4824:5108   */\n    tag_143:\n        /* \"#utility.yul\":4849:4855   */\n      dup4\n        /* \"#utility.yul\":4846:4847   */\n      dup2\n        /* \"#utility.yul\":4843:4856   */\n      lt\n        /* \"#utility.yul\":4824:5108   */\n      iszero\n      tag_145\n      jumpi\n        /* \"#utility.yul\":4925:4931   */\n      dup2\n        /* \"#utility.yul\":4919:4932   */\n      mload\n        /* \"#utility.yul\":4952:5015   */\n      tag_146\n        /* \"#utility.yul\":5011:5014   */\n      dup9\n        /* \"#utility.yul\":4996:5009   */\n      dup3\n        /* \"#utility.yul\":4952:5015   */\n      tag_80\n      jump\t// in\n    tag_146:\n        /* \"#utility.yul\":4945:5015   */\n      swap8\n      pop\n        /* \"#utility.yul\":5038:5098   */\n      tag_147\n        /* \"#utility.yul\":5091:5097   */\n      dup4\n        /* \"#utility.yul\":5038:5098   */\n      tag_81\n      jump\t// in\n    tag_147:\n        /* \"#utility.yul\":5028:5098   */\n      swap3\n      pop\n        /* \"#utility.yul\":4884:5108   */\n      pop\n        /* \"#utility.yul\":4871:4872   */\n      0x01\n        /* \"#utility.yul\":4868:4869   */\n      dup2\n        /* \"#utility.yul\":4864:4873   */\n      add\n        /* \"#utility.yul\":4859:4873   */\n      swap1\n      pop\n        /* \"#utility.yul\":4824:5108   */\n      jump(tag_143)\n    tag_145:\n        /* \"#utility.yul\":4828:4842   */\n      pop\n        /* \"#utility.yul\":5124:5127   */\n      dup6\n        /* \"#utility.yul\":5117:5127   */\n      swap4\n      pop\n        /* \"#utility.yul\":4525:5133   */\n      pop\n      pop\n      pop\n        /* \"#utility.yul\":4401:5133   */\n      swap3\n      swap2\n      pop\n      pop\n      jump\t// out\n        /* \"#utility.yul\":5139:5512   */\n    tag_22:\n        /* \"#utility.yul\":5282:5286   */\n      0x00\n        /* \"#utility.yul\":5320:5322   */\n      0x20\n        /* \"#utility.yul\":5309:5318   */\n      dup3\n        /* \"#utility.yul\":5305:5323   */\n      add\n        /* \"#utility.yul\":5297:5323   */\n      swap1\n      pop\n        /* \"#utility.yul\":5369:5378   */\n      dup2\n        /* \"#utility.yul\":5363:5367   */\n      dup2\n        /* \"#utility.yul\":5359:5379   */\n      sub\n        /* \"#utility.yul\":5355:5356   */\n      0x00\n        /* \"#utility.yul\":5344:5353   */\n      dup4\n        /* \"#utility.yul\":5340:5357   */\n      add\n        /* \"#utility.yul\":5333:5380   */\n      mstore\n        /* \"#utility.yul\":5397:5505   */\n      tag_149\n        /* \"#utility.yul\":5500:5504   */\n      dup2\n        /* \"#utility.yul\":5491:5497   */\n      dup5\n        /* \"#utility.yul\":5397:5505   */\n      tag_82\n      jump\t// in\n    tag_149:\n        /* \"#utility.yul\":5389:5505   */\n      swap1\n      pop\n        /* \"#utility.yul\":5139:5512   */\n      swap3\n      swap2\n      pop\n      pop\n      jump\t// out\n        /* \"#utility.yul\":5518:5640   */\n    tag_83:\n        /* \"#utility.yul\":5591:5615   */\n      tag_151\n        /* \"#utility.yul\":5609:5614   */\n      dup2\n        /* \"#utility.yul\":5591:5615   */\n      tag_74\n      jump\t// in\n    tag_151:\n        /* \"#utility.yul\":5584:5589   */\n      dup2\n        /* \"#utility.yul\":5581:5616   */\n      eq\n        /* \"#utility.yul\":5571:5634   */\n      tag_152\n      jumpi\n        /* \"#utility.yul\":5630:5631   */\n      0x00\n        /* \"#utility.yul\":5627:5628   */\n      dup1\n        /* \"#utility.yul\":5620:5632   */\n      revert\n        /* \"#utility.yul\":5571:5634   */\n    tag_152:\n        /* \"#utility.yul\":5518:5640   */\n      pop\n      jump\t// out\n        /* \"#utility.yul\":5646:5785   */\n    tag_84:\n        /* \"#utility.yul\":5692:5697   */\n      0x00\n        /* \"#utility.yul\":5730:5736   */\n      dup2\n        /* \"#utility.yul\":5717:5737   */\n      calldataload\n        /* \"#utility.yul\":5708:5737   */\n      swap1\n      pop\n        /* \"#utility.yul\":5746:5779   */\n      tag_154\n        /* \"#utility.yul\":5773:5778   */\n      dup2\n        /* \"#utility.yul\":5746:5779   */\n      tag_83\n      jump\t// in\n    tag_154:\n        /* \"#utility.yul\":5646:5785   */\n      swap3\n      swap2\n      pop\n      pop\n      jump\t// out\n        /* \"#utility.yul\":5791:6445   */\n    tag_29:\n        /* \"#utility.yul\":5869:5875   */\n      0x00\n        /* \"#utility.yul\":5877:5883   */\n      dup1\n        /* \"#utility.yul\":5926:5928   */\n      0x40\n        /* \"#utility.yul\":5914:5923   */\n      dup4\n        /* \"#utility.yul\":5905:5912   */\n      dup6\n        /* \"#utility.yul\":5901:5924   */\n      sub\n        /* \"#utility.yul\":5897:5929   */\n      slt\n        /* \"#utility.yul\":5894:6013   */\n      iszero\n      tag_156\n      jumpi\n        /* \"#utility.yul\":5932:6011   */\n      tag_157\n      tag_62\n      jump\t// in\n    tag_157:\n        /* \"#utility.yul\":5894:6013   */\n    tag_156:\n        /* \"#utility.yul\":6080:6081   */\n      0x00\n        /* \"#utility.yul\":6069:6078   */\n      dup4\n        /* \"#utility.yul\":6065:6082   */\n      add\n        /* \"#utility.yul\":6052:6083   */\n      calldataload\n        /* \"#utility.yul\":6110:6128   */\n      0xffffffffffffffff\n        /* \"#utility.yul\":6102:6108   */\n      dup2\n        /* \"#utility.yul\":6099:6129   */\n      gt\n        /* \"#utility.yul\":6096:6213   */\n      iszero\n      tag_158\n      jumpi\n        /* \"#utility.yul\":6132:6211   */\n      tag_159\n      tag_63\n      jump\t// in\n    tag_159:\n        /* \"#utility.yul\":6096:6213   */\n    tag_158:\n        /* \"#utility.yul\":6237:6300   */\n      tag_160\n        /* \"#utility.yul\":6292:6299   */\n      dup6\n        /* \"#utility.yul\":6283:6289   */\n      dup3\n        /* \"#utility.yul\":6272:6281   */\n      dup7\n        /* \"#utility.yul\":6268:6290   */\n      add\n        /* \"#utility.yul\":6237:6300   */\n      tag_73\n      jump\t// in\n    tag_160:\n        /* \"#utility.yul\":6227:6300   */\n      swap3\n      pop\n        /* \"#utility.yul\":6023:6310   */\n      pop\n        /* \"#utility.yul\":6349:6351   */\n      0x20\n        /* \"#utility.yul\":6375:6428   */\n      tag_161\n        /* \"#utility.yul\":6420:6427   */\n      dup6\n        /* \"#utility.yul\":6411:6417   */\n      dup3\n        /* \"#utility.yul\":6400:6409   */\n      dup7\n        /* \"#utility.yul\":6396:6418   */\n      add\n        /* \"#utility.yul\":6375:6428   */\n      tag_84\n      jump\t// in\n    tag_161:\n        /* \"#utility.yul\":6365:6428   */\n      swap2\n      pop\n        /* \"#utility.yul\":6320:6438   */\n      pop\n        /* \"#utility.yul\":5791:6445   */\n      swap3\n      pop\n      swap3\n      swap1\n      pop\n      jump\t// out\n        /* \"#utility.yul\":6451:6550   */\n    tag_85:\n        /* \"#utility.yul\":6503:6509   */\n      0x00\n        /* \"#utility.yul\":6537:6542   */\n      dup2\n        /* \"#utility.yul\":6531:6543   */\n      mload\n        /* \"#utility.yul\":6521:6543   */\n      swap1\n      pop\n        /* \"#utility.yul\":6451:6550   */\n      swap2\n      swap1\n      pop\n      jump\t// out\n        /* \"#utility.yul\":6556:6704   */\n    tag_86:\n        /* \"#utility.yul\":6658:6669   */\n      0x00\n        /* \"#utility.yul\":6695:6698   */\n      dup2\n        /* \"#utility.yul\":6680:6698   */\n      swap1\n      pop\n        /* \"#utility.yul\":6556:6704   */\n      swap3\n      swap2\n      pop\n      pop\n      jump\t// out\n        /* \"#utility.yul\":6710:6849   */\n    tag_87:\n        /* \"#utility.yul\":6799:6805   */\n      dup3\n        /* \"#utility.yul\":6794:6797   */\n      dup2\n        /* \"#utility.yul\":6789:6792   */\n      dup4\n        /* \"#utility.yul\":6783:6806   */\n      mcopy\n        /* \"#utility.yul\":6840:6841   */\n      0x00\n        /* \"#utility.yul\":6831:6837   */\n      dup4\n        /* \"#utility.yul\":6826:6829   */\n      dup4\n        /* \"#utility.yul\":6822:6838   */\n      add\n        /* \"#utility.yul\":6815:6842   */\n      mstore\n        /* \"#utility.yul\":6710:6849   */\n      pop\n      pop\n      pop\n      jump\t// out\n        /* \"#utility.yul\":6855:7245   */\n    tag_88:\n        /* \"#utility.yul\":6961:6964   */\n      0x00\n        /* \"#utility.yul\":6989:7028   */\n      tag_166\n        /* \"#utility.yul\":7022:7027   */\n      dup3\n        /* \"#utility.yul\":6989:7028   */\n      tag_85\n      jump\t// in\n    tag_166:\n        /* \"#utility.yul\":7044:7133   */\n      tag_167\n        /* \"#utility.yul\":7126:7132   */\n      dup2\n        /* \"#utility.yul\":7121:7124   */\n      dup6\n        /* \"#utility.yul\":7044:7133   */\n      tag_86\n      jump\t// in\n    tag_167:\n        /* \"#utility.yul\":7037:7133   */\n      swap4\n      pop\n        /* \"#utility.yul\":7142:7207   */\n      tag_168\n        /* \"#utility.yul\":7200:7206   */\n      dup2\n        /* \"#utility.yul\":7195:7198   */\n      dup6\n        /* \"#utility.yul\":7188:7192   */\n      0x20\n        /* \"#utility.yul\":7181:7186   */\n      dup7\n        /* \"#utility.yul\":7177:7193   */\n      add\n        /* \"#utility.yul\":7142:7207   */\n      tag_87\n      jump\t// in\n    tag_168:\n        /* \"#utility.yul\":7232:7238   */\n      dup1\n        /* \"#utility.yul\":7227:7230   */\n      dup5\n        /* \"#utility.yul\":7223:7239   */\n      add\n        /* \"#utility.yul\":7216:7239   */\n      swap2\n      pop\n        /* \"#utility.yul\":6965:7245   */\n      pop\n        /* \"#utility.yul\":6855:7245   */\n      swap3\n      swap2\n      pop\n      pop\n      jump\t// out\n        /* \"#utility.yul\":7251:7526   */\n    tag_37:\n        /* \"#utility.yul\":7383:7386   */\n      0x00\n        /* \"#utility.yul\":7405:7500   */\n      tag_170\n        /* \"#utility.yul\":7496:7499   */\n      dup3\n        /* \"#utility.yul\":7487:7493   */\n      dup5\n        /* \"#utility.yul\":7405:7500   */\n      tag_88\n      jump\t// in\n    tag_170:\n        /* \"#utility.yul\":7398:7500   */\n      swap2\n      pop\n        /* \"#utility.yul\":7517:7520   */\n      dup2\n        /* \"#utility.yul\":7510:7520   */\n      swap1\n      pop\n        /* \"#utility.yul\":7251:7526   */\n      swap3\n      swap2\n      pop\n      pop\n      jump\t// out\n        /* \"#utility.yul\":7532:7712   */\n    tag_89:\n        /* \"#utility.yul\":7580:7657   */\n      0x4e487b7100000000000000000000000000000000000000000000000000000000\n        /* \"#utility.yul\":7577:7578   */\n      0x00\n        /* \"#utility.yul\":7570:7658   */\n      mstore\n        /* \"#utility.yul\":7677:7681   */\n      0x11\n        /* \"#utility.yul\":7674:7675   */\n      0x04\n        /* \"#utility.yul\":7667:7682   */\n      mstore\n        /* \"#utility.yul\":7701:7705   */\n      0x24\n        /* \"#utility.yul\":7698:7699   */\n      0x00\n        /* \"#utility.yul\":7691:7706   */\n      revert\n        /* \"#utility.yul\":7718:7909   */\n    tag_50:\n        /* \"#utility.yul\":7758:7761   */\n      0x00\n        /* \"#utility.yul\":7777:7797   */\n      tag_173\n        /* \"#utility.yul\":7795:7796   */\n      dup3\n        /* \"#utility.yul\":7777:7797   */\n      tag_74\n      jump\t// in\n    tag_173:\n        /* \"#utility.yul\":7772:7797   */\n      swap2\n      pop\n        /* \"#utility.yul\":7811:7831   */\n      tag_174\n        /* \"#utility.yul\":7829:7830   */\n      dup4\n        /* \"#utility.yul\":7811:7831   */\n      tag_74\n      jump\t// in\n    tag_174:\n        /* \"#utility.yul\":7806:7831   */\n      swap3\n      pop\n        /* \"#utility.yul\":7854:7855   */\n      dup3\n        /* \"#utility.yul\":7851:7852   */\n      dup3\n        /* \"#utility.yul\":7847:7856   */\n      add\n        /* \"#utility.yul\":7840:7856   */\n      swap1\n      pop\n        /* \"#utility.yul\":7875:7878   */\n      dup1\n        /* \"#utility.yul\":7872:7873   */\n      dup3\n        /* \"#utility.yul\":7869:7879   */\n      gt\n        /* \"#utility.yul\":7866:7902   */\n      iszero\n      tag_175\n      jumpi\n        /* \"#utility.yul\":7882:7900   */\n      tag_176\n      tag_89\n      jump\t// in\n    tag_176:\n        /* \"#utility.yul\":7866:7902   */\n    tag_175:\n        /* \"#utility.yul\":7718:7909   */\n      swap3\n      swap2\n      pop\n      pop\n      jump\t// out\n\n    auxdata: 0xa2646970667358221220a4de5fa6b1d2b8f96e6997b07de45eceb631552ef5da0a222d342cab5f48dcfd64736f6c634300081a0033\n}\n",
				"bytecode": {
					"linkReferences": {},
					"object": "6080604052348015600e575f80fd5b506107988061001c5f395ff3fe608060405234801561000f575f80fd5b5060043610610060575f3560e01c806323814fc5146100645780633c77b3761461009457806361752b97146100b0578063693ec85e146100e0578063a5ea767114610110578063e57cd8ae1461012c575b5f80fd5b61007e600480360381019061007991906104c7565b61015c565b60405161008b9190610526565b60405180910390f35b6100ae60048036038101906100a991906104c7565b610188565b005b6100ca60048036038101906100c591906104c7565b6101d4565b6040516100d791906105f6565b60405180910390f35b6100fa60048036038101906100f591906104c7565b610248565b6040516101079190610526565b60405180910390f35b61012a60048036038101906101259190610640565b61026e565b005b61014660048036038101906101419190610640565b6102fe565b6040516101539190610526565b60405180910390f35b5f818051602081018201805184825260208301602085012081835280955050505050505f915090505481565b5f8160405161019791906106ec565b90815260200160405180910390205f90556001816040516101b891906106ec565b90815260200160405180910390205f6101d19190610341565b50565b60606001826040516101e691906106ec565b908152602001604051809103902080548060200260200160405190810160405280929190818152602001828054801561023c57602002820191905f5260205f20905b815481526020019060010190808311610228575b50505050509050919050565b5f808260405161025891906106ec565b9081526020016040518091039020549050919050565b805f8360405161027e91906106ec565b908152602001604051809103902054610297919061072f565b5f836040516102a691906106ec565b9081526020016040518091039020819055506001826040516102c891906106ec565b908152602001604051809103902081908060018154018082558091505060019003905f5260205f20015f90919091909150555050565b600182805160208101820180518482526020830160208501208183528095505050505050818154811061032f575f80fd5b905f5260205f20015f91509150505481565b5080545f8255905f5260205f209081019061035c919061035f565b50565b5b80821115610376575f815f905550600101610360565b5090565b5f604051905090565b5f80fd5b5f80fd5b5f80fd5b5f80fd5b5f601f19601f8301169050919050565b7f4e487b71000000000000000000000000000000000000000000000000000000005f52604160045260245ffd5b6103d982610393565b810181811067ffffffffffffffff821117156103f8576103f76103a3565b5b80604052505050565b5f61040a61037a565b905061041682826103d0565b919050565b5f67ffffffffffffffff821115610435576104346103a3565b5b61043e82610393565b9050602081019050919050565b828183375f83830152505050565b5f61046b6104668461041b565b610401565b9050828152602081018484840111156104875761048661038f565b5b61049284828561044b565b509392505050565b5f82601f8301126104ae576104ad61038b565b5b81356104be848260208601610459565b91505092915050565b5f602082840312156104dc576104db610383565b5b5f82013567ffffffffffffffff8111156104f9576104f8610387565b5b6105058482850161049a565b91505092915050565b5f819050919050565b6105208161050e565b82525050565b5f6020820190506105395f830184610517565b92915050565b5f81519050919050565b5f82825260208201905092915050565b5f819050602082019050919050565b6105718161050e565b82525050565b5f6105828383610568565b60208301905092915050565b5f602082019050919050565b5f6105a48261053f565b6105ae8185610549565b93506105b983610559565b805f5b838110156105e95781516105d08882610577565b97506105db8361058e565b9250506001810190506105bc565b5085935050505092915050565b5f6020820190508181035f83015261060e818461059a565b905092915050565b61061f8161050e565b8114610629575f80fd5b50565b5f8135905061063a81610616565b92915050565b5f806040838503121561065657610655610383565b5b5f83013567ffffffffffffffff81111561067357610672610387565b5b61067f8582860161049a565b92505060206106908582860161062c565b9150509250929050565b5f81519050919050565b5f81905092915050565b8281835e5f83830152505050565b5f6106c68261069a565b6106d081856106a4565b93506106e08185602086016106ae565b80840191505092915050565b5f6106f782846106bc565b915081905092915050565b7f4e487b71000000000000000000000000000000000000000000000000000000005f52601160045260245ffd5b5f6107398261050e565b91506107448361050e565b925082820190508082111561075c5761075b610702565b5b9291505056fea2646970667358221220a4de5fa6b1d2b8f96e6997b07de45eceb631552ef5da0a222d342cab5f48dcfd64736f6c634300081a0033",
					"opcodes": "PUSH1 0x80 PUSH1 0x40 MSTORE CALLVALUE DUP1 ISZERO PUSH1 0xE JUMPI PUSH0 DUP1 REVERT JUMPDEST POP PUSH2 0x798 DUP1 PUSH2 0x1C PUSH0 CODECOPY PUSH0 RETURN INVALID PUSH1 0x80 PUSH1 0x40 MSTORE CALLVALUE DUP1 ISZERO PUSH2 0xF JUMPI PUSH0 DUP1 REVERT JUMPDEST POP PUSH1 0x4 CALLDATASIZE LT PUSH2 0x60 JUMPI PUSH0 CALLDATALOAD PUSH1 0xE0 SHR DUP1 PUSH4 0x23814FC5 EQ PUSH2 0x64 JUMPI DUP1 PUSH4 0x3C77B376 EQ PUSH2 0x94 JUMPI DUP1 PUSH4 0x61752B97 EQ PUSH2 0xB0 JUMPI DUP1 PUSH4 0x693EC85E EQ PUSH2 0xE0 JUMPI DUP1 PUSH4 0xA5EA7671 EQ PUSH2 0x110 JUMPI DUP1 PUSH4 0xE57CD8AE EQ PUSH2 0x12C JUMPI JUMPDEST PUSH0 DUP1 REVERT JUMPDEST PUSH2 0x7E PUSH1 0x4 DUP1 CALLDATASIZE SUB DUP2 ADD SWAP1 PUSH2 0x79 SWAP2 SWAP1 PUSH2 0x4C7 JUMP JUMPDEST PUSH2 0x15C JUMP JUMPDEST PUSH1 0x40 MLOAD PUSH2 0x8B SWAP2 SWAP1 PUSH2 0x526 JUMP JUMPDEST PUSH1 0x40 MLOAD DUP1 SWAP2 SUB SWAP1 RETURN JUMPDEST PUSH2 0xAE PUSH1 0x4 DUP1 CALLDATASIZE SUB DUP2 ADD SWAP1 PUSH2 0xA9 SWAP2 SWAP1 PUSH2 0x4C7 JUMP JUMPDEST PUSH2 0x188 JUMP JUMPDEST STOP JUMPDEST PUSH2 0xCA PUSH1 0x4 DUP1 CALLDATASIZE SUB DUP2 ADD SWAP1 PUSH2 0xC5 SWAP2 SWAP1 PUSH2 0x4C7 JUMP JUMPDEST PUSH2 0x1D4 JUMP JUMPDEST PUSH1 0x40 MLOAD PUSH2 0xD7 SWAP2 SWAP1 PUSH2 0x5F6 JUMP JUMPDEST PUSH1 0x40 MLOAD DUP1 SWAP2 SUB SWAP1 RETURN JUMPDEST PUSH2 0xFA PUSH1 0x4 DUP1 CALLDATASIZE SUB DUP2 ADD SWAP1 PUSH2 0xF5 SWAP2 SWAP1 PUSH2 0x4C7 JUMP JUMPDEST PUSH2 0x248 JUMP JUMPDEST PUSH1 0x40 MLOAD PUSH2 0x107 SWAP2 SWAP1 PUSH2 0x526 JUMP JUMPDEST PUSH1 0x40 MLOAD DUP1 SWAP2 SUB SWAP1 RETURN JUMPDEST PUSH2 0x12A PUSH1 0x4 DUP1 CALLDATASIZE SUB DUP2 ADD SWAP1 PUSH2 0x125 SWAP2 SWAP1 PUSH2 0x640 JUMP JUMPDEST PUSH2 0x26E JUMP JUMPDEST STOP JUMPDEST PUSH2 0x146 PUSH1 0x4 DUP1 CALLDATASIZE SUB DUP2 ADD SWAP1 PUSH2 0x141 SWAP2 SWAP1 PUSH2 0x640 JUMP JUMPDEST PUSH2 0x2FE JUMP JUMPDEST PUSH1 0x40 MLOAD PUSH2 0x153 SWAP2 SWAP1 PUSH2 0x526 JUMP JUMPDEST PUSH1 0x40 MLOAD DUP1 SWAP2 SUB SWAP1 RETURN JUMPDEST PUSH0 DUP2 DUP1 MLOAD PUSH1 0x20 DUP2 ADD DUP3 ADD DUP1 MLOAD DUP5 DUP3 MSTORE PUSH1 0x20 DUP4 ADD PUSH1 0x20 DUP6 ADD KECCAK256 DUP2 DUP4 MSTORE DUP1 SWAP6 POP POP POP POP POP POP PUSH0 SWAP2 POP SWAP1 POP SLOAD DUP2 JUMP JUMPDEST PUSH0 DUP2 PUSH1 0x40 MLOAD PUSH2 0x197 SWAP2 SWAP1 PUSH2 0x6EC JUMP JUMPDEST SWAP1 DUP2 MSTORE PUSH1 0x20 ADD PUSH1 0x40 MLOAD DUP1 SWAP2 SUB SWAP1 KECCAK256 PUSH0 SWAP1 SSTORE PUSH1 0x1 DUP2 PUSH1 0x40 MLOAD PUSH2 0x1B8 SWAP2 SWAP1 PUSH2 0x6EC JUMP JUMPDEST SWAP1 DUP2 MSTORE PUSH1 0x20 ADD PUSH1 0x40 MLOAD DUP1 SWAP2 SUB SWAP1 KECCAK256 PUSH0 PUSH2 0x1D1 SWAP2 SWAP1 PUSH2 0x341 JUMP JUMPDEST POP JUMP JUMPDEST PUSH1 0x60 PUSH1 0x1 DUP3 PUSH1 0x40 MLOAD PUSH2 0x1E6 SWAP2 SWAP1 PUSH2 0x6EC JUMP JUMPDEST SWAP1 DUP2 MSTORE PUSH1 0x20 ADD PUSH1 0x40 MLOAD DUP1 SWAP2 SUB SWAP1 KECCAK256 DUP1 SLOAD DUP1 PUSH1 0x20 MUL PUSH1 0x20 ADD PUSH1 0x40 MLOAD SWAP1 DUP2 ADD PUSH1 0x40 MSTORE DUP1 SWAP3 SWAP2 SWAP1 DUP2 DUP2 MSTORE PUSH1 0x20 ADD DUP3 DUP1 SLOAD DUP1 ISZERO PUSH2 0x23C JUMPI PUSH1 0x20 MUL DUP3 ADD SWAP2 SWAP1 PUSH0 MSTORE PUSH1 0x20 PUSH0 KECCAK256 SWAP1 JUMPDEST DUP2 SLOAD DUP2 MSTORE PUSH1 0x20 ADD SWAP1 PUSH1 0x1 ADD SWAP1 DUP1 DUP4 GT PUSH2 0x228 JUMPI JUMPDEST POP POP POP POP POP SWAP1 POP SWAP2 SWAP1 POP JUMP JUMPDEST PUSH0 DUP1 DUP3 PUSH1 0x40 MLOAD PUSH2 0x258 SWAP2 SWAP1 PUSH2 0x6EC JUMP JUMPDEST SWAP1 DUP2 MSTORE PUSH1 0x20 ADD PUSH1 0x40 MLOAD DUP1 SWAP2 SUB SWAP1 KECCAK256 SLOAD SWAP1 POP SWAP2 SWAP1 POP JUMP JUMPDEST DUP1 PUSH0 DUP4 PUSH1 0x40 MLOAD PUSH2 0x27E SWAP2 SWAP1 PUSH2 0x6EC JUMP JUMPDEST SWAP1 DUP2 MSTORE PUSH1 0x20 ADD PUSH1 0x40 MLOAD DUP1 SWAP2 SUB SWAP1 KECCAK256 SLOAD PUSH2 0x297 SWAP2 SWAP1 PUSH2 0x72F JUMP JUMPDEST PUSH0 DUP4 PUSH1 0x40 MLOAD PUSH2 0x2A6 SWAP2 SWAP1 PUSH2 0x6EC JUMP JUMPDEST SWAP1 DUP2 MSTORE PUSH1 0x20 ADD PUSH1 0x40 MLOAD DUP1 SWAP2 SUB SWAP1 KECCAK256 DUP2 SWAP1 SSTORE POP PUSH1 0x1 DUP3 PUSH1 0x40 MLOAD PUSH2 0x2C8 SWAP2 SWAP1 PUSH2 0x6EC JUMP JUMPDEST SWAP1 DUP2 MSTORE PUSH1 0x20 ADD PUSH1 0x40 MLOAD DUP1 SWAP2 SUB SWAP1 KECCAK256 DUP2 SWAP1 DUP1 PUSH1 0x1 DUP2 SLOAD ADD DUP1 DUP3 SSTORE DUP1 SWAP2 POP POP PUSH1 0x1 SWAP1 SUB SWAP1 PUSH0 MSTORE PUSH1 0x20 PUSH0 KECCAK256 ADD PUSH0 SWAP1 SWAP2 SWAP1 SWAP2 SWAP1 SWAP2 POP SSTORE POP POP JUMP JUMPDEST PUSH1 0x1 DUP3 DUP1 MLOAD PUSH1 0x20 DUP2 ADD DUP3 ADD DUP1 MLOAD DUP5 DUP3 MSTORE PUSH1 0x20 DUP4 ADD PUSH1 0x20 DUP6 ADD KECCAK256 DUP2 DUP4 MSTORE DUP1 SWAP6 POP POP POP POP POP POP DUP2 DUP2 SLOAD DUP2 LT PUSH2 0x32F JUMPI PUSH0 DUP1 REVERT JUMPDEST SWAP1 PUSH0 MSTORE PUSH1 0x20 PUSH0 KECCAK256 ADD PUSH0 SWAP2 POP SWAP2 POP POP SLOAD DUP2 JUMP JUMPDEST POP DUP1 SLOAD PUSH0 DUP3 SSTORE SWAP1 PUSH0 MSTORE PUSH1 0x20 PUSH0 KECCAK256 SWAP1 DUP2 ADD SWAP1 PUSH2 0x35C SWAP2 SWAP1 PUSH2 0x35F JUMP JUMPDEST POP JUMP JUMPDEST JUMPDEST DUP1 DUP3 GT ISZERO PUSH2 0x376 JUMPI PUSH0 DUP2 PUSH0 SWAP1 SSTORE POP PUSH1 0x1 ADD PUSH2 0x360 JUMP JUMPDEST POP SWAP1 JUMP JUMPDEST PUSH0 PUSH1 0x40 MLOAD SWAP1 POP SWAP1 JUMP JUMPDEST PUSH0 DUP1 REVERT JUMPDEST PUSH0 DUP1 REVERT JUMPDEST PUSH0 DUP1 REVERT JUMPDEST PUSH0 DUP1 REVERT JUMPDEST PUSH0 PUSH1 0x1F NOT PUSH1 0x1F DUP4 ADD AND SWAP1 POP SWAP2 SWAP1 POP JUMP JUMPDEST PUSH32 0x4E487B7100000000000000000000000000000000000000000000000000000000 PUSH0 MSTORE PUSH1 0x41 PUSH1 0x4 MSTORE PUSH1 0x24 PUSH0 REVERT JUMPDEST PUSH2 0x3D9 DUP3 PUSH2 0x393 JUMP JUMPDEST DUP2 ADD DUP2 DUP2 LT PUSH8 0xFFFFFFFFFFFFFFFF DUP3 GT OR ISZERO PUSH2 0x3F8 JUMPI PUSH2 0x3F7 PUSH2 0x3A3 JUMP JUMPDEST JUMPDEST DUP1 PUSH1 0x40 MSTORE POP POP POP JUMP JUMPDEST PUSH0 PUSH2 0x40A PUSH2 0x37A JUMP JUMPDEST SWAP1 POP PUSH2 0x416 DUP3 DUP3 PUSH2 0x3D0 JUMP JUMPDEST SWAP2 SWAP1 POP JUMP JUMPDEST PUSH0 PUSH8 0xFFFFFFFFFFFFFFFF DUP3 GT ISZERO PUSH2 0x435 JUMPI PUSH2 0x434 PUSH2 0x3A3 JUMP JUMPDEST JUMPDEST PUSH2 0x43E DUP3 PUSH2 0x393 JUMP JUMPDEST SWAP1 POP PUSH1 0x20 DUP2 ADD SWAP1 POP SWAP2 SWAP1 POP JUMP JUMPDEST DUP3 DUP2 DUP4 CALLDATACOPY PUSH0 DUP4 DUP4 ADD MSTORE POP POP POP JUMP JUMPDEST PUSH0 PUSH2 0x46B PUSH2 0x466 DUP5 PUSH2 0x41B JUMP JUMPDEST PUSH2 0x401 JUMP JUMPDEST SWAP1 POP DUP3 DUP2 MSTORE PUSH1 0x20 DUP2 ADD DUP5 DUP5 DUP5 ADD GT ISZERO PUSH2 0x487 JUMPI PUSH2 0x486 PUSH2 0x38F JUMP JUMPDEST JUMPDEST PUSH2 0x492 DUP5 DUP3 DUP6 PUSH2 0x44B JUMP JUMPDEST POP SWAP4 SWAP3 POP POP POP JUMP JUMPDEST PUSH0 DUP3 PUSH1 0x1F DUP4 ADD SLT PUSH2 0x4AE JUMPI PUSH2 0x4AD PUSH2 0x38B JUMP JUMPDEST JUMPDEST DUP2 CALLDATALOAD PUSH2 0x4BE DUP5 DUP3 PUSH1 0x20 DUP7 ADD PUSH2 0x459 JUMP JUMPDEST SWAP2 POP POP SWAP3 SWAP2 POP POP JUMP JUMPDEST PUSH0 PUSH1 0x20 DUP3 DUP5 SUB SLT ISZERO PUSH2 0x4DC JUMPI PUSH2 0x4DB PUSH2 0x383 JUMP JUMPDEST JUMPDEST PUSH0 DUP3 ADD CALLDATALOAD PUSH8 0xFFFFFFFFFFFFFFFF DUP2 GT ISZERO PUSH2 0x4F9 JUMPI PUSH2 0x4F8 PUSH2 0x387 JUMP JUMPDEST JUMPDEST PUSH2 0x505 DUP5 DUP3 DUP6 ADD PUSH2 0x49A JUMP JUMPDEST SWAP2 POP POP SWAP3 SWAP2 POP POP JUMP JUMPDEST PUSH0 DUP2 SWAP1 POP SWAP2 SWAP1 POP JUMP JUMPDEST PUSH2 0x520 DUP2 PUSH2 0x50E JUMP JUMPDEST DUP3 MSTORE POP POP JUMP JUMPDEST PUSH0 PUSH1 0x20 DUP3 ADD SWAP1 POP PUSH2 0x539 PUSH0 DUP4 ADD DUP5 PUSH2 0x517 JUMP JUMPDEST SWAP3 SWAP2 POP POP JUMP JUMPDEST PUSH0 DUP2 MLOAD SWAP1 POP SWAP2 SWAP1 POP JUMP JUMPDEST PUSH0 DUP3 DUP3 MSTORE PUSH1 0x20 DUP3 ADD SWAP1 POP SWAP3 SWAP2 POP POP JUMP JUMPDEST PUSH0 DUP2 SWAP1 POP PUSH1 0x20 DUP3 ADD SWAP1 POP SWAP2 SWAP1 POP JUMP JUMPDEST PUSH2 0x571 DUP2 PUSH2 0x50E JUMP JUMPDEST DUP3 MSTORE POP POP JUMP JUMPDEST PUSH0 PUSH2 0x582 DUP4 DUP4 PUSH2 0x568 JUMP JUMPDEST PUSH1 0x20 DUP4 ADD SWAP1 POP SWAP3 SWAP2 POP POP JUMP JUMPDEST PUSH0 PUSH1 0x20 DUP3 ADD SWAP1 POP SWAP2 SWAP1 POP JUMP JUMPDEST PUSH0 PUSH2 0x5A4 DUP3 PUSH2 0x53F JUMP JUMPDEST PUSH2 0x5AE DUP2 DUP6 PUSH2 0x549 JUMP JUMPDEST SWAP4 POP PUSH2 0x5B9 DUP4 PUSH2 0x559 JUMP JUMPDEST DUP1 PUSH0 JUMPDEST DUP4 DUP2 LT ISZERO PUSH2 0x5E9 JUMPI DUP2 MLOAD PUSH2 0x5D0 DUP9 DUP3 PUSH2 0x577 JUMP JUMPDEST SWAP8 POP PUSH2 0x5DB DUP4 PUSH2 0x58E JUMP JUMPDEST SWAP3 POP POP PUSH1 0x1 DUP2 ADD SWAP1 POP PUSH2 0x5BC JUMP JUMPDEST POP DUP6 SWAP4 POP POP POP POP SWAP3 SWAP2 POP POP JUMP JUMPDEST PUSH0 PUSH1 0x20 DUP3 ADD SWAP1 POP DUP2 DUP2 SUB PUSH0 DUP4 ADD MSTORE PUSH2 0x60E DUP2 DUP5 PUSH2 0x59A JUMP JUMPDEST SWAP1 POP SWAP3 SWAP2 POP POP JUMP JUMPDEST PUSH2 0x61F DUP2 PUSH2 0x50E JUMP JUMPDEST DUP2 EQ PUSH2 0x629 JUMPI PUSH0 DUP1 REVERT JUMPDEST POP JUMP JUMPDEST PUSH0 DUP2 CALLDATALOAD SWAP1 POP PUSH2 0x63A DUP2 PUSH2 0x616 JUMP JUMPDEST SWAP3 SWAP2 POP POP JUMP JUMPDEST PUSH0 DUP1 PUSH1 0x40 DUP4 DUP6 SUB SLT ISZERO PUSH2 0x656 JUMPI PUSH2 0x655 PUSH2 0x383 JUMP JUMPDEST JUMPDEST PUSH0 DUP4 ADD CALLDATALOAD PUSH8 0xFFFFFFFFFFFFFFFF DUP2 GT ISZERO PUSH2 0x673 JUMPI PUSH2 0x672 PUSH2 0x387 JUMP JUMPDEST JUMPDEST PUSH2 0x67F DUP6 DUP3 DUP7 ADD PUSH2 0x49A JUMP JUMPDEST SWAP3 POP POP PUSH1 0x20 PUSH2 0x690 DUP6 DUP3 DUP7 ADD PUSH2 0x62C JUMP JUMPDEST SWAP2 POP POP SWAP3 POP SWAP3 SWAP1 POP JUMP JUMPDEST PUSH0 DUP2 MLOAD SWAP1 POP SWAP2 SWAP1 POP JUMP JUMPDEST PUSH0 DUP2 SWAP1 POP SWAP3 SWAP2 POP POP JUMP JUMPDEST DUP3 DUP2 DUP4 MCOPY PUSH0 DUP4 DUP4 ADD MSTORE POP POP POP JUMP JUMPDEST PUSH0 PUSH2 0x6C6 DUP3 PUSH2 0x69A JUMP JUMPDEST PUSH2 0x6D0 DUP2 DUP6 PUSH2 0x6A4 JUMP JUMPDEST SWAP4 POP PUSH2 0x6E0 DUP2 DUP6 PUSH1 0x20 DUP7 ADD PUSH2 0x6AE JUMP JUMPDEST DUP1 DUP5 ADD SWAP2 POP POP SWAP3 SWAP2 POP POP JUMP JUMPDEST PUSH0 PUSH2 0x6F7 DUP3 DUP5 PUSH2 0x6BC JUMP JUMPDEST SWAP2 POP DUP2 SWAP1 POP SWAP3 SWAP2 POP POP JUMP JUMPDEST PUSH32 0x4E487B7100000000000000000000000000000000000000000000000000000000 PUSH0 MSTORE PUSH1 0x11 PUSH1 0x4 MSTORE PUSH1 0x24 PUSH0 REVERT JUMPDEST PUSH0 PUSH2 0x739 DUP3 PUSH2 0x50E JUMP JUMPDEST SWAP2 POP PUSH2 0x744 DUP4 PUSH2 0x50E JUMP JUMPDEST SWAP3 POP DUP3 DUP3 ADD SWAP1 POP DUP1 DUP3 GT ISZERO PUSH2 0x75C JUMPI PUSH2 0x75B PUSH2 0x702 JUMP JUMPDEST JUMPDEST SWAP3 SWAP2 POP POP JUMP INVALID LOG2 PUSH5 0x6970667358 0x22 SLT KECCAK256 LOG4 0xDE PUSH0 0xA6 0xB1 0xD2 0xB8 0xF9 PUSH15 0x6997B07DE45ECEB631552EF5DA0A22 0x2D CALLVALUE 0x2C 0xAB PUSH0 BASEFEE 0xDC REVERT PUSH5 0x736F6C6343 STOP ADDMOD BYTE STOP CALLER "
				},
				"gasEstimates": {
					"creation": {
						"codeDepositCost": "388800",
						"executionCost": "422",
						"totalCost": "389222"
					},
					"external": {
						"delKey(string)": "infinite",
						"get(string)": "infinite",
						"getUserRecord(string)": "infinite",
						"map(string)": "infinite",
						"scoresMap(string,uint256)": "infinite",
						"updateValue(string,uint256)": "infinite"
					}
				},
				"methodIdentifiers": {
					"delKey(string)": "3c77b376",
					"get(string)": "693ec85e",
					"getUserRecord(string)": "61752b97",
					"map(string)": "23814fc5",
					"scoresMap(string,uint256)": "e57cd8ae",
					"updateValue(string,uint256)": "a5ea7671"
				}
			},
			"storageLayout": {
				"storage": [
					{
						"astId": 5,
						"contract": "solidity-study/solidity-1base/8/MapDemo.sol:MapDemo",
						"label": "map",
						"offset": 0,
						"slot": "0",
						"type": "t_mapping(t_string_memory_ptr,t_uint256)"
					},
					{
						"astId": 10,
						"contract": "solidity-study/solidity-1base/8/MapDemo.sol:MapDemo",
						"label": "scoresMap",
						"offset": 0,
						"slot": "1",
						"type": "t_mapping(t_string_memory_ptr,t_array(t_uint256)dyn_storage)"
					}
				],
				"types": {
					"t_array(t_uint256)dyn_storage": {
						"base": "t_uint256",
						"encoding": "dynamic_array",
						"label": "uint256[]",
						"numberOfBytes": "32"
					},
					"t_mapping(t_string_memory_ptr,t_array(t_uint256)dyn_storage)": {
						"encoding": "mapping",
						"key": "t_string_memory_ptr",
						"label": "mapping(string => uint256[])",
						"numberOfBytes": "32",
						"value": "t_array(t_uint256)dyn_storage"
					},
					"t_mapping(t_string_memory_ptr,t_uint256)": {
						"encoding": "mapping",
						"key": "t_string_memory_ptr",
						"label": "mapping(string => uint256)",
						"numberOfBytes": "32",
						"value": "t_uint256"
					},
					"t_string_memory_ptr": {
						"encoding": "bytes",
						"label": "string",
						"numberOfBytes": "32"
					},
					"t_uint256": {
						"encoding": "inplace",
						"label": "uint256",
						"numberOfBytes": "32"
					}
				}
			},
			"userdoc": {
				"kind": "user",
				"methods": {},
				"version": 1
			}
		}
	}
}