{
	"solidity-study/solidity-1base/3/AddressDemo.sol": {
		"AddressDemo": {
			"abi": [
				{
					"inputs": [],
					"stateMutability": "nonpayable",
					"type": "constructor"
				},
				{
					"inputs": [
						{
							"internalType": "address payable",
							"name": "addr",
							"type": "address"
						}
					],
					"name": "tesTranser",
					"outputs": [],
					"stateMutability": "nonpayable",
					"type": "function"
				},
				{
					"inputs": [
						{
							"internalType": "address payable",
							"name": "x",
							"type": "address"
						}
					],
					"name": "testTranser",
					"outputs": [],
					"stateMutability": "nonpayable",
					"type": "function"
				}
			],
			"devdoc": {
				"kind": "dev",
				"methods": {},
				"version": 1
			},
			"evm": {
				"assembly": "    /* \"solidity-study/solidity-1base/3/AddressDemo.sol\":62:2786  contract AddressDemo{... */\n  mstore(0x40, 0x80)\n    /* \"solidity-study/solidity-1base/3/AddressDemo.sol\":165:207  0x5B38Da6a701c568545dCfcB03FcB875f56beddC4 */\n  0x5b38da6a701c568545dcfcb03fcb875f56beddc4\n    /* \"solidity-study/solidity-1base/3/AddressDemo.sol\":149:207  address addr1 = 0x5B38Da6a701c568545dCfcB03FcB875f56beddC4 */\n  0x00\n  dup1\n  0x0100\n  exp\n  dup2\n  sload\n  dup2\n  0xffffffffffffffffffffffffffffffffffffffff\n  mul\n  not\n  and\n  swap1\n  dup4\n  0xffffffffffffffffffffffffffffffffffffffff\n  and\n  mul\n  or\n  swap1\n  sstore\n  pop\n    /* \"solidity-study/solidity-1base/3/AddressDemo.sol\":341:383  0xAb8483F64d9C6d1EcF9b849Ae677dD3315835cb2 */\n  0xab8483f64d9c6d1ecf9b849ae677dd3315835cb2\n    /* \"solidity-study/solidity-1base/3/AddressDemo.sol\":303:384  address payable payableAddr = payable(0xAb8483F64d9C6d1EcF9b849Ae677dD3315835cb2) */\n  0x01\n  exp(0x0100, 0x00)\n  dup2\n  sload\n  dup2\n  0xffffffffffffffffffffffffffffffffffffffff\n  mul\n  not\n  and\n  swap1\n  dup4\n  0xffffffffffffffffffffffffffffffffffffffff\n  and\n  mul\n  or\n  swap1\n  sstore\n  pop\n    /* \"solidity-study/solidity-1base/3/AddressDemo.sol\":1438:1443  addr1 */\n  0x00\n  dup1\n  sload\n  swap1\n  0x0100\n  exp\n  swap1\n  div\n  0xffffffffffffffffffffffffffffffffffffffff\n  and\n    /* \"solidity-study/solidity-1base/3/AddressDemo.sol\":1404:1444  address payable payAddr = payable(addr1) */\n  0x02\n  exp(0x0100, 0x00)\n  dup2\n  sload\n  dup2\n  0xffffffffffffffffffffffffffffffffffffffff\n  mul\n  not\n  and\n  swap1\n  dup4\n  0xffffffffffffffffffffffffffffffffffffffff\n  and\n  mul\n  or\n  swap1\n  sstore\n  pop\n    /* \"solidity-study/solidity-1base/3/AddressDemo.sol\":1467:1478  payableAddr */\n  0x01\n  0x00\n  swap1\n  sload\n  swap1\n  0x0100\n  exp\n  swap1\n  div\n  0xffffffffffffffffffffffffffffffffffffffff\n  and\n    /* \"solidity-study/solidity-1base/3/AddressDemo.sol\":1451:1478  address addr2 = payableAddr */\n  0x03\n  exp(0x0100, 0x00)\n  dup2\n  sload\n  dup2\n  0xffffffffffffffffffffffffffffffffffffffff\n  mul\n  not\n  and\n  swap1\n  dup4\n  0xffffffffffffffffffffffffffffffffffffffff\n  and\n  mul\n  or\n  swap1\n  sstore\n  pop\n    /* \"solidity-study/solidity-1base/3/AddressDemo.sol\":1487:1604  constructor(){... */\n  callvalue\n  dup1\n  iszero\n  tag_1\n  jumpi\n  0x00\n  dup1\n  revert\ntag_1:\n  pop\n    /* \"solidity-study/solidity-1base/3/AddressDemo.sol\":1524:1535  payableAddr */\n  0x01\n  0x00\n  swap1\n  sload\n  swap1\n  0x0100\n  exp\n  swap1\n  div\n  0xffffffffffffffffffffffffffffffffffffffff\n  and\n    /* \"solidity-study/solidity-1base/3/AddressDemo.sol\":1524:1544  payableAddr.transfer */\n  0xffffffffffffffffffffffffffffffffffffffff\n  and\n    /* \"solidity-study/solidity-1base/3/AddressDemo.sol\":1524:1549  payableAddr.transfer(100) */\n  0x08fc\n    /* \"solidity-study/solidity-1base/3/AddressDemo.sol\":1545:1548  100 */\n  0x64\n    /* \"solidity-study/solidity-1base/3/AddressDemo.sol\":1524:1549  payableAddr.transfer(100) */\n  swap1\n  dup2\n  iszero\n  mul\n  swap1\n  mload(0x40)\n  0x00\n  mload(0x40)\n  dup1\n  dup4\n  sub\n  dup2\n  dup6\n  dup9\n  dup9\n  call\n  swap4\n  pop\n  pop\n  pop\n  pop\n  iszero\n  dup1\n  iszero\n  tag_5\n  jumpi\n  returndatasize\n  0x00\n  dup1\n  returndatacopy\n  revert(0x00, returndatasize)\ntag_5:\n  pop\n    /* \"solidity-study/solidity-1base/3/AddressDemo.sol\":1560:1573  bool isSucess */\n  0x00\n    /* \"solidity-study/solidity-1base/3/AddressDemo.sol\":1576:1587  payableAddr */\n  0x01\n  0x00\n  swap1\n  sload\n  swap1\n  0x0100\n  exp\n  swap1\n  div\n  0xffffffffffffffffffffffffffffffffffffffff\n  and\n    /* \"solidity-study/solidity-1base/3/AddressDemo.sol\":1576:1592  payableAddr.send */\n  0xffffffffffffffffffffffffffffffffffffffff\n  and\n    /* \"solidity-study/solidity-1base/3/AddressDemo.sol\":1576:1596  payableAddr.send(10) */\n  0x08fc\n    /* \"solidity-study/solidity-1base/3/AddressDemo.sol\":1593:1595  10 */\n  0x0a\n    /* \"solidity-study/solidity-1base/3/AddressDemo.sol\":1576:1596  payableAddr.send(10) */\n  swap1\n  dup2\n  iszero\n  mul\n  swap1\n  mload(0x40)\n  0x00\n  mload(0x40)\n  dup1\n  dup4\n  sub\n  dup2\n  dup6\n  dup9\n  dup9\n  call\n  swap4\n  pop\n  pop\n  pop\n  pop\n    /* \"solidity-study/solidity-1base/3/AddressDemo.sol\":1560:1596  bool isSucess = payableAddr.send(10) */\n  swap1\n  pop\n    /* \"solidity-study/solidity-1base/3/AddressDemo.sol\":1500:1604  {... */\n  pop\n    /* \"solidity-study/solidity-1base/3/AddressDemo.sol\":62:2786  contract AddressDemo{... */\n  dataSize(sub_0)\n  dup1\n  dataOffset(sub_0)\n  0x00\n  codecopy\n  0x00\n  return\nstop\n\nsub_0: assembly {\n        /* \"solidity-study/solidity-1base/3/AddressDemo.sol\":62:2786  contract AddressDemo{... */\n      mstore(0x40, 0x80)\n      callvalue\n      dup1\n      iszero\n      tag_1\n      jumpi\n      0x00\n      dup1\n      revert\n    tag_1:\n      pop\n      jumpi(tag_2, lt(calldatasize, 0x04))\n      shr(0xe0, calldataload(0x00))\n      dup1\n      0x362e48d0\n      eq\n      tag_3\n      jumpi\n      dup1\n      0x412a1a39\n      eq\n      tag_4\n      jumpi\n    tag_2:\n      0x00\n      dup1\n      revert\n        /* \"solidity-study/solidity-1base/3/AddressDemo.sol\":1612:1956  function testTranser(address payable x) public {... */\n    tag_3:\n      tag_5\n      0x04\n      dup1\n      calldatasize\n      sub\n      dup2\n      add\n      swap1\n      tag_6\n      swap2\n      swap1\n      tag_7\n      jump\t// in\n    tag_6:\n      tag_8\n      jump\t// in\n    tag_5:\n      stop\n        /* \"solidity-study/solidity-1base/3/AddressDemo.sol\":1964:2781  function tesTranser(address payable addr) public {... */\n    tag_4:\n      tag_9\n      0x04\n      dup1\n      calldatasize\n      sub\n      dup2\n      add\n      swap1\n      tag_10\n      swap2\n      swap1\n      tag_7\n      jump\t// in\n    tag_10:\n      tag_11\n      jump\t// in\n    tag_9:\n      stop\n        /* \"solidity-study/solidity-1base/3/AddressDemo.sol\":1612:1956  function testTranser(address payable x) public {... */\n    tag_8:\n        /* \"solidity-study/solidity-1base/3/AddressDemo.sol\":1670:1687  address myAddress */\n      0x00\n        /* \"solidity-study/solidity-1base/3/AddressDemo.sol\":1698:1702  this */\n      address\n        /* \"solidity-study/solidity-1base/3/AddressDemo.sol\":1670:1703  address myAddress = address(this) */\n      swap1\n      pop\n        /* \"solidity-study/solidity-1base/3/AddressDemo.sol\":1887:1889  10 */\n      0x0a\n        /* \"solidity-study/solidity-1base/3/AddressDemo.sol\":1866:1875  myAddress */\n      dup2\n        /* \"solidity-study/solidity-1base/3/AddressDemo.sol\":1866:1883  myAddress.balance */\n      0xffffffffffffffffffffffffffffffffffffffff\n      and\n      balance\n        /* \"solidity-study/solidity-1base/3/AddressDemo.sol\":1866:1889  myAddress.balance >= 10 */\n      lt\n      iszero\n        /* \"solidity-study/solidity-1base/3/AddressDemo.sol\":1866:1907  myAddress.balance >= 10 && x.balance < 10 */\n      dup1\n      iszero\n      tag_13\n      jumpi\n      pop\n        /* \"solidity-study/solidity-1base/3/AddressDemo.sol\":1905:1907  10 */\n      0x0a\n        /* \"solidity-study/solidity-1base/3/AddressDemo.sol\":1893:1894  x */\n      dup3\n        /* \"solidity-study/solidity-1base/3/AddressDemo.sol\":1893:1902  x.balance */\n      0xffffffffffffffffffffffffffffffffffffffff\n      and\n      balance\n        /* \"solidity-study/solidity-1base/3/AddressDemo.sol\":1893:1907  x.balance < 10 */\n      lt\n        /* \"solidity-study/solidity-1base/3/AddressDemo.sol\":1866:1907  myAddress.balance >= 10 && x.balance < 10 */\n    tag_13:\n        /* \"solidity-study/solidity-1base/3/AddressDemo.sol\":1863:1949  if(myAddress.balance >= 10 && x.balance < 10){... */\n      iszero\n      tag_14\n      jumpi\n        /* \"solidity-study/solidity-1base/3/AddressDemo.sol\":1923:1924  x */\n      dup2\n        /* \"solidity-study/solidity-1base/3/AddressDemo.sol\":1923:1933  x.transfer */\n      0xffffffffffffffffffffffffffffffffffffffff\n      and\n        /* \"solidity-study/solidity-1base/3/AddressDemo.sol\":1923:1937  x.transfer(10) */\n      0x08fc\n        /* \"solidity-study/solidity-1base/3/AddressDemo.sol\":1934:1936  10 */\n      0x0a\n        /* \"solidity-study/solidity-1base/3/AddressDemo.sol\":1923:1937  x.transfer(10) */\n      swap1\n      dup2\n      iszero\n      mul\n      swap1\n      mload(0x40)\n      0x00\n      mload(0x40)\n      dup1\n      dup4\n      sub\n      dup2\n      dup6\n      dup9\n      dup9\n      call\n      swap4\n      pop\n      pop\n      pop\n      pop\n      iszero\n      dup1\n      iszero\n      tag_16\n      jumpi\n      returndatasize\n      0x00\n      dup1\n      returndatacopy\n      revert(0x00, returndatasize)\n    tag_16:\n      pop\n        /* \"solidity-study/solidity-1base/3/AddressDemo.sol\":1863:1949  if(myAddress.balance >= 10 && x.balance < 10){... */\n    tag_14:\n        /* \"solidity-study/solidity-1base/3/AddressDemo.sol\":1659:1956  {... */\n      pop\n        /* \"solidity-study/solidity-1base/3/AddressDemo.sol\":1612:1956  function testTranser(address payable x) public {... */\n      pop\n      jump\t// out\n        /* \"solidity-study/solidity-1base/3/AddressDemo.sol\":1964:2781  function tesTranser(address payable addr) public {... */\n    tag_11:\n        /* \"solidity-study/solidity-1base/3/AddressDemo.sol\":2024:2038  address myAddr */\n      0x00\n        /* \"solidity-study/solidity-1base/3/AddressDemo.sol\":2049:2053  this */\n      address\n        /* \"solidity-study/solidity-1base/3/AddressDemo.sol\":2024:2054  address myAddr = address(this) */\n      swap1\n      pop\n        /* \"solidity-study/solidity-1base/3/AddressDemo.sol\":2086:2088  10 */\n      0x0a\n        /* \"solidity-study/solidity-1base/3/AddressDemo.sol\":2068:2074  myAddr */\n      dup2\n        /* \"solidity-study/solidity-1base/3/AddressDemo.sol\":2068:2082  myAddr.balance */\n      0xffffffffffffffffffffffffffffffffffffffff\n      and\n      balance\n        /* \"solidity-study/solidity-1base/3/AddressDemo.sol\":2068:2088  myAddr.balance >= 10 */\n      lt\n      iszero\n        /* \"solidity-study/solidity-1base/3/AddressDemo.sol\":2068:2109  myAddr.balance >= 10 && addr.balance < 10 */\n      dup1\n      iszero\n      tag_18\n      jumpi\n      pop\n        /* \"solidity-study/solidity-1base/3/AddressDemo.sol\":2107:2109  10 */\n      0x0a\n        /* \"solidity-study/solidity-1base/3/AddressDemo.sol\":2092:2096  addr */\n      dup3\n        /* \"solidity-study/solidity-1base/3/AddressDemo.sol\":2092:2104  addr.balance */\n      0xffffffffffffffffffffffffffffffffffffffff\n      and\n      balance\n        /* \"solidity-study/solidity-1base/3/AddressDemo.sol\":2092:2109  addr.balance < 10 */\n      lt\n        /* \"solidity-study/solidity-1base/3/AddressDemo.sol\":2068:2109  myAddr.balance >= 10 && addr.balance < 10 */\n    tag_18:\n        /* \"solidity-study/solidity-1base/3/AddressDemo.sol\":2065:2774  if(myAddr.balance >= 10 && addr.balance < 10){... */\n      iszero\n      tag_19\n      jumpi\n        /* \"solidity-study/solidity-1base/3/AddressDemo.sol\":2125:2129  addr */\n      dup2\n        /* \"solidity-study/solidity-1base/3/AddressDemo.sol\":2125:2138  addr.transfer */\n      0xffffffffffffffffffffffffffffffffffffffff\n      and\n        /* \"solidity-study/solidity-1base/3/AddressDemo.sol\":2125:2142  addr.transfer(10) */\n      0x08fc\n        /* \"solidity-study/solidity-1base/3/AddressDemo.sol\":2139:2141  10 */\n      0x0a\n        /* \"solidity-study/solidity-1base/3/AddressDemo.sol\":2125:2142  addr.transfer(10) */\n      swap1\n      dup2\n      iszero\n      mul\n      swap1\n      mload(0x40)\n      0x00\n      mload(0x40)\n      dup1\n      dup4\n      sub\n      dup2\n      dup6\n      dup9\n      dup9\n      call\n      swap4\n      pop\n      pop\n      pop\n      pop\n      iszero\n      dup1\n      iszero\n      tag_21\n      jumpi\n      returndatasize\n      0x00\n      dup1\n      returndatacopy\n      revert(0x00, returndatasize)\n    tag_21:\n      pop\n        /* \"solidity-study/solidity-1base/3/AddressDemo.sol\":2277:2281  this */\n      address\n        /* \"solidity-study/solidity-1base/3/AddressDemo.sol\":2269:2287  address(this).call */\n      0xffffffffffffffffffffffffffffffffffffffff\n      and\n        /* \"solidity-study/solidity-1base/3/AddressDemo.sol\":2294:2301  1 ether */\n      0x0de0b6b3a7640000\n        /* \"solidity-study/solidity-1base/3/AddressDemo.sol\":2303:2356  abi.encodeWithSignature(\"register(string)\", \"myName\") */\n      add(0x24, mload(0x40))\n      tag_22\n      swap1\n      tag_23\n      jump\t// in\n    tag_22:\n      mload(0x40)\n      0x20\n      dup2\n      dup4\n      sub\n      sub\n      dup2\n      mstore\n      swap1\n      0x40\n      mstore\n      and(not(0xffffffffffffffffffffffffffffffffffffffffffffffffffffffff), 0xf2c298be00000000000000000000000000000000000000000000000000000000)\n      0x20\n      dup3\n      add\n      dup1\n      mload\n      0xffffffffffffffffffffffffffffffffffffffffffffffffffffffff\n      dup4\n      dup2\n      dup4\n      and\n      or\n      dup4\n      mstore\n      pop\n      pop\n      pop\n      pop\n        /* \"solidity-study/solidity-1base/3/AddressDemo.sol\":2269:2357  address(this).call{value:1 ether}(abi.encodeWithSignature(\"register(string)\", \"myName\")) */\n      mload(0x40)\n      tag_24\n      swap2\n      swap1\n      tag_25\n      jump\t// in\n    tag_24:\n      0x00\n      mload(0x40)\n      dup1\n      dup4\n      sub\n      dup2\n      dup6\n      dup8\n      gas\n      call\n      swap3\n      pop\n      pop\n      pop\n      returndatasize\n      dup1\n      0x00\n      dup2\n      eq\n      tag_28\n      jumpi\n      mload(0x40)\n      swap2\n      pop\n      and(add(returndatasize, 0x3f), not(0x1f))\n      dup3\n      add\n      0x40\n      mstore\n      returndatasize\n      dup3\n      mstore\n      returndatasize\n      0x00\n      0x20\n      dup5\n      add\n      returndatacopy\n      jump(tag_27)\n    tag_28:\n      0x60\n      swap2\n      pop\n    tag_27:\n      pop\n      pop\n      pop\n        /* \"solidity-study/solidity-1base/3/AddressDemo.sol\":2464:2468  this */\n      address\n        /* \"solidity-study/solidity-1base/3/AddressDemo.sol\":2456:2474  address(this).call */\n      0xffffffffffffffffffffffffffffffffffffffff\n      and\n        /* \"solidity-study/solidity-1base/3/AddressDemo.sol\":2479:2484  10000 */\n      0x2710\n        /* \"solidity-study/solidity-1base/3/AddressDemo.sol\":2486:2538  abi.encodeWithSignature(\"register(string)\",\"myName\") */\n      add(0x24, mload(0x40))\n      tag_29\n      swap1\n      tag_23\n      jump\t// in\n    tag_29:\n      mload(0x40)\n      0x20\n      dup2\n      dup4\n      sub\n      sub\n      dup2\n      mstore\n      swap1\n      0x40\n      mstore\n      and(not(0xffffffffffffffffffffffffffffffffffffffffffffffffffffffff), 0xf2c298be00000000000000000000000000000000000000000000000000000000)\n      0x20\n      dup3\n      add\n      dup1\n      mload\n      0xffffffffffffffffffffffffffffffffffffffffffffffffffffffff\n      dup4\n      dup2\n      dup4\n      and\n      or\n      dup4\n      mstore\n      pop\n      pop\n      pop\n      pop\n        /* \"solidity-study/solidity-1base/3/AddressDemo.sol\":2456:2539  address(this).call{gas:10000}(abi.encodeWithSignature(\"register(string)\",\"myName\")) */\n      mload(0x40)\n      tag_30\n      swap2\n      swap1\n      tag_25\n      jump\t// in\n    tag_30:\n      0x00\n      mload(0x40)\n      dup1\n      dup4\n      sub\n      dup2\n      0x00\n      dup8\n      dup8\n      call\n      swap3\n      pop\n      pop\n      pop\n      returndatasize\n      dup1\n      0x00\n      dup2\n      eq\n      tag_33\n      jumpi\n      mload(0x40)\n      swap2\n      pop\n      and(add(returndatasize, 0x3f), not(0x1f))\n      dup3\n      add\n      0x40\n      mstore\n      returndatasize\n      dup3\n      mstore\n      returndatasize\n      0x00\n      0x20\n      dup5\n      add\n      returndatacopy\n      jump(tag_32)\n    tag_33:\n      0x60\n      swap2\n      pop\n    tag_32:\n      pop\n      pop\n      pop\n        /* \"solidity-study/solidity-1base/3/AddressDemo.sol\":2671:2675  this */\n      address\n        /* \"solidity-study/solidity-1base/3/AddressDemo.sol\":2663:2681  address(this).call */\n      0xffffffffffffffffffffffffffffffffffffffff\n      and\n        /* \"solidity-study/solidity-1base/3/AddressDemo.sol\":2686:2692  100000 */\n      0x0186a0\n        /* \"solidity-study/solidity-1base/3/AddressDemo.sol\":2700:2707  1 ether */\n      0x0de0b6b3a7640000\n        /* \"solidity-study/solidity-1base/3/AddressDemo.sol\":2709:2761  abi.encodeWithSignature(\"register(string)\",\"myName\") */\n      add(0x24, mload(0x40))\n      tag_34\n      swap1\n      tag_23\n      jump\t// in\n    tag_34:\n      mload(0x40)\n      0x20\n      dup2\n      dup4\n      sub\n      sub\n      dup2\n      mstore\n      swap1\n      0x40\n      mstore\n      and(not(0xffffffffffffffffffffffffffffffffffffffffffffffffffffffff), 0xf2c298be00000000000000000000000000000000000000000000000000000000)\n      0x20\n      dup3\n      add\n      dup1\n      mload\n      0xffffffffffffffffffffffffffffffffffffffffffffffffffffffff\n      dup4\n      dup2\n      dup4\n      and\n      or\n      dup4\n      mstore\n      pop\n      pop\n      pop\n      pop\n        /* \"solidity-study/solidity-1base/3/AddressDemo.sol\":2663:2762  address(this).call{gas:100000, value:1 ether}(abi.encodeWithSignature(\"register(string)\",\"myName\")) */\n      mload(0x40)\n      tag_35\n      swap2\n      swap1\n      tag_25\n      jump\t// in\n    tag_35:\n      0x00\n      mload(0x40)\n      dup1\n      dup4\n      sub\n      dup2\n      dup6\n      dup9\n      dup9\n      call\n      swap4\n      pop\n      pop\n      pop\n      pop\n      returndatasize\n      dup1\n      0x00\n      dup2\n      eq\n      tag_38\n      jumpi\n      mload(0x40)\n      swap2\n      pop\n      and(add(returndatasize, 0x3f), not(0x1f))\n      dup3\n      add\n      0x40\n      mstore\n      returndatasize\n      dup3\n      mstore\n      returndatasize\n      0x00\n      0x20\n      dup5\n      add\n      returndatacopy\n      jump(tag_37)\n    tag_38:\n      0x60\n      swap2\n      pop\n    tag_37:\n      pop\n      pop\n      pop\n        /* \"solidity-study/solidity-1base/3/AddressDemo.sol\":2065:2774  if(myAddr.balance >= 10 && addr.balance < 10){... */\n    tag_19:\n        /* \"solidity-study/solidity-1base/3/AddressDemo.sol\":2013:2781  {... */\n      pop\n        /* \"solidity-study/solidity-1base/3/AddressDemo.sol\":1964:2781  function tesTranser(address payable addr) public {... */\n      pop\n      jump\t// out\n        /* \"#utility.yul\":88:205   */\n    tag_40:\n        /* \"#utility.yul\":197:198   */\n      0x00\n        /* \"#utility.yul\":194:195   */\n      dup1\n        /* \"#utility.yul\":187:199   */\n      revert\n        /* \"#utility.yul\":334:460   */\n    tag_42:\n        /* \"#utility.yul\":371:378   */\n      0x00\n        /* \"#utility.yul\":411:453   */\n      0xffffffffffffffffffffffffffffffffffffffff\n        /* \"#utility.yul\":404:409   */\n      dup3\n        /* \"#utility.yul\":400:454   */\n      and\n        /* \"#utility.yul\":389:454   */\n      swap1\n      pop\n        /* \"#utility.yul\":334:460   */\n      swap2\n      swap1\n      pop\n      jump\t// out\n        /* \"#utility.yul\":466:570   */\n    tag_43:\n        /* \"#utility.yul\":511:518   */\n      0x00\n        /* \"#utility.yul\":540:564   */\n      tag_59\n        /* \"#utility.yul\":558:563   */\n      dup3\n        /* \"#utility.yul\":540:564   */\n      tag_42\n      jump\t// in\n    tag_59:\n        /* \"#utility.yul\":529:564   */\n      swap1\n      pop\n        /* \"#utility.yul\":466:570   */\n      swap2\n      swap1\n      pop\n      jump\t// out\n        /* \"#utility.yul\":576:714   */\n    tag_44:\n        /* \"#utility.yul\":657:689   */\n      tag_61\n        /* \"#utility.yul\":683:688   */\n      dup2\n        /* \"#utility.yul\":657:689   */\n      tag_43\n      jump\t// in\n    tag_61:\n        /* \"#utility.yul\":650:655   */\n      dup2\n        /* \"#utility.yul\":647:690   */\n      eq\n        /* \"#utility.yul\":637:708   */\n      tag_62\n      jumpi\n        /* \"#utility.yul\":704:705   */\n      0x00\n        /* \"#utility.yul\":701:702   */\n      dup1\n        /* \"#utility.yul\":694:706   */\n      revert\n        /* \"#utility.yul\":637:708   */\n    tag_62:\n        /* \"#utility.yul\":576:714   */\n      pop\n      jump\t// out\n        /* \"#utility.yul\":720:875   */\n    tag_45:\n        /* \"#utility.yul\":774:779   */\n      0x00\n        /* \"#utility.yul\":812:818   */\n      dup2\n        /* \"#utility.yul\":799:819   */\n      calldataload\n        /* \"#utility.yul\":790:819   */\n      swap1\n      pop\n        /* \"#utility.yul\":828:869   */\n      tag_64\n        /* \"#utility.yul\":863:868   */\n      dup2\n        /* \"#utility.yul\":828:869   */\n      tag_44\n      jump\t// in\n    tag_64:\n        /* \"#utility.yul\":720:875   */\n      swap3\n      swap2\n      pop\n      pop\n      jump\t// out\n        /* \"#utility.yul\":881:1226   */\n    tag_7:\n        /* \"#utility.yul\":948:954   */\n      0x00\n        /* \"#utility.yul\":997:999   */\n      0x20\n        /* \"#utility.yul\":985:994   */\n      dup3\n        /* \"#utility.yul\":976:983   */\n      dup5\n        /* \"#utility.yul\":972:995   */\n      sub\n        /* \"#utility.yul\":968:1000   */\n      slt\n        /* \"#utility.yul\":965:1084   */\n      iszero\n      tag_66\n      jumpi\n        /* \"#utility.yul\":1003:1082   */\n      tag_67\n      tag_40\n      jump\t// in\n    tag_67:\n        /* \"#utility.yul\":965:1084   */\n    tag_66:\n        /* \"#utility.yul\":1123:1124   */\n      0x00\n        /* \"#utility.yul\":1148:1209   */\n      tag_68\n        /* \"#utility.yul\":1201:1208   */\n      dup5\n        /* \"#utility.yul\":1192:1198   */\n      dup3\n        /* \"#utility.yul\":1181:1190   */\n      dup6\n        /* \"#utility.yul\":1177:1199   */\n      add\n        /* \"#utility.yul\":1148:1209   */\n      tag_45\n      jump\t// in\n    tag_68:\n        /* \"#utility.yul\":1138:1209   */\n      swap2\n      pop\n        /* \"#utility.yul\":1094:1219   */\n      pop\n        /* \"#utility.yul\":881:1226   */\n      swap3\n      swap2\n      pop\n      pop\n      jump\t// out\n        /* \"#utility.yul\":1232:1401   */\n    tag_46:\n        /* \"#utility.yul\":1316:1327   */\n      0x00\n        /* \"#utility.yul\":1350:1356   */\n      dup3\n        /* \"#utility.yul\":1345:1348   */\n      dup3\n        /* \"#utility.yul\":1338:1357   */\n      mstore\n        /* \"#utility.yul\":1390:1394   */\n      0x20\n        /* \"#utility.yul\":1385:1388   */\n      dup3\n        /* \"#utility.yul\":1381:1395   */\n      add\n        /* \"#utility.yul\":1366:1395   */\n      swap1\n      pop\n        /* \"#utility.yul\":1232:1401   */\n      swap3\n      swap2\n      pop\n      pop\n      jump\t// out\n        /* \"#utility.yul\":1407:1563   */\n    tag_47:\n        /* \"#utility.yul\":1547:1555   */\n      0x6d794e616d650000000000000000000000000000000000000000000000000000\n        /* \"#utility.yul\":1543:1544   */\n      0x00\n        /* \"#utility.yul\":1535:1541   */\n      dup3\n        /* \"#utility.yul\":1531:1545   */\n      add\n        /* \"#utility.yul\":1524:1556   */\n      mstore\n        /* \"#utility.yul\":1407:1563   */\n      pop\n      jump\t// out\n        /* \"#utility.yul\":1569:1934   */\n    tag_48:\n        /* \"#utility.yul\":1711:1714   */\n      0x00\n        /* \"#utility.yul\":1732:1798   */\n      tag_72\n        /* \"#utility.yul\":1796:1797   */\n      0x06\n        /* \"#utility.yul\":1791:1794   */\n      dup4\n        /* \"#utility.yul\":1732:1798   */\n      tag_46\n      jump\t// in\n    tag_72:\n        /* \"#utility.yul\":1725:1798   */\n      swap2\n      pop\n        /* \"#utility.yul\":1807:1900   */\n      tag_73\n        /* \"#utility.yul\":1896:1899   */\n      dup3\n        /* \"#utility.yul\":1807:1900   */\n      tag_47\n      jump\t// in\n    tag_73:\n        /* \"#utility.yul\":1925:1927   */\n      0x20\n        /* \"#utility.yul\":1920:1923   */\n      dup3\n        /* \"#utility.yul\":1916:1928   */\n      add\n        /* \"#utility.yul\":1909:1928   */\n      swap1\n      pop\n        /* \"#utility.yul\":1569:1934   */\n      swap2\n      swap1\n      pop\n      jump\t// out\n        /* \"#utility.yul\":1940:2359   */\n    tag_23:\n        /* \"#utility.yul\":2106:2110   */\n      0x00\n        /* \"#utility.yul\":2144:2146   */\n      0x20\n        /* \"#utility.yul\":2133:2142   */\n      dup3\n        /* \"#utility.yul\":2129:2147   */\n      add\n        /* \"#utility.yul\":2121:2147   */\n      swap1\n      pop\n        /* \"#utility.yul\":2193:2202   */\n      dup2\n        /* \"#utility.yul\":2187:2191   */\n      dup2\n        /* \"#utility.yul\":2183:2203   */\n      sub\n        /* \"#utility.yul\":2179:2180   */\n      0x00\n        /* \"#utility.yul\":2168:2177   */\n      dup4\n        /* \"#utility.yul\":2164:2181   */\n      add\n        /* \"#utility.yul\":2157:2204   */\n      mstore\n        /* \"#utility.yul\":2221:2352   */\n      tag_75\n        /* \"#utility.yul\":2347:2351   */\n      dup2\n        /* \"#utility.yul\":2221:2352   */\n      tag_48\n      jump\t// in\n    tag_75:\n        /* \"#utility.yul\":2213:2352   */\n      swap1\n      pop\n        /* \"#utility.yul\":1940:2359   */\n      swap2\n      swap1\n      pop\n      jump\t// out\n        /* \"#utility.yul\":2365:2463   */\n    tag_49:\n        /* \"#utility.yul\":2416:2422   */\n      0x00\n        /* \"#utility.yul\":2450:2455   */\n      dup2\n        /* \"#utility.yul\":2444:2456   */\n      mload\n        /* \"#utility.yul\":2434:2456   */\n      swap1\n      pop\n        /* \"#utility.yul\":2365:2463   */\n      swap2\n      swap1\n      pop\n      jump\t// out\n        /* \"#utility.yul\":2469:2616   */\n    tag_50:\n        /* \"#utility.yul\":2570:2581   */\n      0x00\n        /* \"#utility.yul\":2607:2610   */\n      dup2\n        /* \"#utility.yul\":2592:2610   */\n      swap1\n      pop\n        /* \"#utility.yul\":2469:2616   */\n      swap3\n      swap2\n      pop\n      pop\n      jump\t// out\n        /* \"#utility.yul\":2622:2761   */\n    tag_51:\n        /* \"#utility.yul\":2711:2717   */\n      dup3\n        /* \"#utility.yul\":2706:2709   */\n      dup2\n        /* \"#utility.yul\":2701:2704   */\n      dup4\n        /* \"#utility.yul\":2695:2718   */\n      mcopy\n        /* \"#utility.yul\":2752:2753   */\n      0x00\n        /* \"#utility.yul\":2743:2749   */\n      dup4\n        /* \"#utility.yul\":2738:2741   */\n      dup4\n        /* \"#utility.yul\":2734:2750   */\n      add\n        /* \"#utility.yul\":2727:2754   */\n      mstore\n        /* \"#utility.yul\":2622:2761   */\n      pop\n      pop\n      pop\n      jump\t// out\n        /* \"#utility.yul\":2767:3153   */\n    tag_52:\n        /* \"#utility.yul\":2871:2874   */\n      0x00\n        /* \"#utility.yul\":2899:2937   */\n      tag_80\n        /* \"#utility.yul\":2931:2936   */\n      dup3\n        /* \"#utility.yul\":2899:2937   */\n      tag_49\n      jump\t// in\n    tag_80:\n        /* \"#utility.yul\":2953:3041   */\n      tag_81\n        /* \"#utility.yul\":3034:3040   */\n      dup2\n        /* \"#utility.yul\":3029:3032   */\n      dup6\n        /* \"#utility.yul\":2953:3041   */\n      tag_50\n      jump\t// in\n    tag_81:\n        /* \"#utility.yul\":2946:3041   */\n      swap4\n      pop\n        /* \"#utility.yul\":3050:3115   */\n      tag_82\n        /* \"#utility.yul\":3108:3114   */\n      dup2\n        /* \"#utility.yul\":3103:3106   */\n      dup6\n        /* \"#utility.yul\":3096:3100   */\n      0x20\n        /* \"#utility.yul\":3089:3094   */\n      dup7\n        /* \"#utility.yul\":3085:3101   */\n      add\n        /* \"#utility.yul\":3050:3115   */\n      tag_51\n      jump\t// in\n    tag_82:\n        /* \"#utility.yul\":3140:3146   */\n      dup1\n        /* \"#utility.yul\":3135:3138   */\n      dup5\n        /* \"#utility.yul\":3131:3147   */\n      add\n        /* \"#utility.yul\":3124:3147   */\n      swap2\n      pop\n        /* \"#utility.yul\":2875:3153   */\n      pop\n        /* \"#utility.yul\":2767:3153   */\n      swap3\n      swap2\n      pop\n      pop\n      jump\t// out\n        /* \"#utility.yul\":3159:3430   */\n    tag_25:\n        /* \"#utility.yul\":3289:3292   */\n      0x00\n        /* \"#utility.yul\":3311:3404   */\n      tag_84\n        /* \"#utility.yul\":3400:3403   */\n      dup3\n        /* \"#utility.yul\":3391:3397   */\n      dup5\n        /* \"#utility.yul\":3311:3404   */\n      tag_52\n      jump\t// in\n    tag_84:\n        /* \"#utility.yul\":3304:3404   */\n      swap2\n      pop\n        /* \"#utility.yul\":3421:3424   */\n      dup2\n        /* \"#utility.yul\":3414:3424   */\n      swap1\n      pop\n        /* \"#utility.yul\":3159:3430   */\n      swap3\n      swap2\n      pop\n      pop\n      jump\t// out\n\n    auxdata: 0xa26469706673582212206dec3ebe55a7b93fc76dfab1ade1aa4980eccba770238e271e7e33c56b02672b64736f6c634300081a0033\n}\n",
				"bytecode": {
					"linkReferences": {},
					"object": "6080604052735b38da6a701c568545dcfcb03fcb875f56beddc45f806101000a81548173ffffffffffffffffffffffffffffffffffffffff021916908373ffffffffffffffffffffffffffffffffffffffff16021790555073ab8483f64d9c6d1ecf9b849ae677dd3315835cb260015f6101000a81548173ffffffffffffffffffffffffffffffffffffffff021916908373ffffffffffffffffffffffffffffffffffffffff1602179055505f8054906101000a900473ffffffffffffffffffffffffffffffffffffffff1660025f6101000a81548173ffffffffffffffffffffffffffffffffffffffff021916908373ffffffffffffffffffffffffffffffffffffffff16021790555060015f9054906101000a900473ffffffffffffffffffffffffffffffffffffffff1660035f6101000a81548173ffffffffffffffffffffffffffffffffffffffff021916908373ffffffffffffffffffffffffffffffffffffffff160217905550348015610176575f80fd5b5060015f9054906101000a900473ffffffffffffffffffffffffffffffffffffffff1673ffffffffffffffffffffffffffffffffffffffff166108fc606490811502906040515f60405180830381858888f193505050501580156101dc573d5f803e3d5ffd5b505f60015f9054906101000a900473ffffffffffffffffffffffffffffffffffffffff1673ffffffffffffffffffffffffffffffffffffffff166108fc600a90811502906040515f60405180830381858888f19350505050905050610623806102445f395ff3fe608060405234801561000f575f80fd5b5060043610610034575f3560e01c8063362e48d014610038578063412a1a3914610054575b5f80fd5b610052600480360381019061004d91906104e2565b610070565b005b61006e600480360381019061006991906104e2565b610102565b005b5f309050600a8173ffffffffffffffffffffffffffffffffffffffff1631101580156100b35750600a8273ffffffffffffffffffffffffffffffffffffffff1631105b156100fe578173ffffffffffffffffffffffffffffffffffffffff166108fc600a90811502906040515f60405180830381858888f193505050501580156100fc573d5f803e3d5ffd5b505b5050565b5f309050600a8173ffffffffffffffffffffffffffffffffffffffff1631101580156101455750600a8273ffffffffffffffffffffffffffffffffffffffff1631105b15610480578173ffffffffffffffffffffffffffffffffffffffff166108fc600a90811502906040515f60405180830381858888f1935050505015801561018e573d5f803e3d5ffd5b503073ffffffffffffffffffffffffffffffffffffffff16670de0b6b3a76400006040516024016101be90610567565b6040516020818303038152906040527ff2c298be000000000000000000000000000000000000000000000000000000007bffffffffffffffffffffffffffffffffffffffffffffffffffffffff19166020820180517bffffffffffffffffffffffffffffffffffffffffffffffffffffffff838183161783525050505060405161024891906105d7565b5f6040518083038185875af1925050503d805f8114610282576040519150601f19603f3d011682016040523d82523d5f602084013e610287565b606091505b5050503073ffffffffffffffffffffffffffffffffffffffff166127106040516024016102b390610567565b6040516020818303038152906040527ff2c298be000000000000000000000000000000000000000000000000000000007bffffffffffffffffffffffffffffffffffffffffffffffffffffffff19166020820180517bffffffffffffffffffffffffffffffffffffffffffffffffffffffff838183161783525050505060405161033d91906105d7565b5f604051808303815f8787f1925050503d805f8114610377576040519150601f19603f3d011682016040523d82523d5f602084013e61037c565b606091505b5050503073ffffffffffffffffffffffffffffffffffffffff16620186a0670de0b6b3a76400006040516024016103b290610567565b6040516020818303038152906040527ff2c298be000000000000000000000000000000000000000000000000000000007bffffffffffffffffffffffffffffffffffffffffffffffffffffffff19166020820180517bffffffffffffffffffffffffffffffffffffffffffffffffffffffff838183161783525050505060405161043c91906105d7565b5f60405180830381858888f193505050503d805f8114610477576040519150601f19603f3d011682016040523d82523d5f602084013e61047c565b606091505b5050505b5050565b5f80fd5b5f73ffffffffffffffffffffffffffffffffffffffff82169050919050565b5f6104b182610488565b9050919050565b6104c1816104a7565b81146104cb575f80fd5b50565b5f813590506104dc816104b8565b92915050565b5f602082840312156104f7576104f6610484565b5b5f610504848285016104ce565b91505092915050565b5f82825260208201905092915050565b7f6d794e616d6500000000000000000000000000000000000000000000000000005f82015250565b5f61055160068361050d565b915061055c8261051d565b602082019050919050565b5f6020820190508181035f83015261057e81610545565b9050919050565b5f81519050919050565b5f81905092915050565b8281835e5f83830152505050565b5f6105b182610585565b6105bb818561058f565b93506105cb818560208601610599565b80840191505092915050565b5f6105e282846105a7565b91508190509291505056fea26469706673582212206dec3ebe55a7b93fc76dfab1ade1aa4980eccba770238e271e7e33c56b02672b64736f6c634300081a0033",
					"opcodes": "PUSH1 0x80 PUSH1 0x40 MSTORE PUSH20 0x5B38DA6A701C568545DCFCB03FCB875F56BEDDC4 PUSH0 DUP1 PUSH2 0x100 EXP DUP2 SLOAD DUP2 PUSH20 0xFFFFFFFFFFFFFFFFFFFFFFFFFFFFFFFFFFFFFFFF MUL NOT AND SWAP1 DUP4 PUSH20 0xFFFFFFFFFFFFFFFFFFFFFFFFFFFFFFFFFFFFFFFF AND MUL OR SWAP1 SSTORE POP PUSH20 0xAB8483F64D9C6D1ECF9B849AE677DD3315835CB2 PUSH1 0x1 PUSH0 PUSH2 0x100 EXP DUP2 SLOAD DUP2 PUSH20 0xFFFFFFFFFFFFFFFFFFFFFFFFFFFFFFFFFFFFFFFF MUL NOT AND SWAP1 DUP4 PUSH20 0xFFFFFFFFFFFFFFFFFFFFFFFFFFFFFFFFFFFFFFFF AND MUL OR SWAP1 SSTORE POP PUSH0 DUP1 SLOAD SWAP1 PUSH2 0x100 EXP SWAP1 DIV PUSH20 0xFFFFFFFFFFFFFFFFFFFFFFFFFFFFFFFFFFFFFFFF AND PUSH1 0x2 PUSH0 PUSH2 0x100 EXP DUP2 SLOAD DUP2 PUSH20 0xFFFFFFFFFFFFFFFFFFFFFFFFFFFFFFFFFFFFFFFF MUL NOT AND SWAP1 DUP4 PUSH20 0xFFFFFFFFFFFFFFFFFFFFFFFFFFFFFFFFFFFFFFFF AND MUL OR SWAP1 SSTORE POP PUSH1 0x1 PUSH0 SWAP1 SLOAD SWAP1 PUSH2 0x100 EXP SWAP1 DIV PUSH20 0xFFFFFFFFFFFFFFFFFFFFFFFFFFFFFFFFFFFFFFFF AND PUSH1 0x3 PUSH0 PUSH2 0x100 EXP DUP2 SLOAD DUP2 PUSH20 0xFFFFFFFFFFFFFFFFFFFFFFFFFFFFFFFFFFFFFFFF MUL NOT AND SWAP1 DUP4 PUSH20 0xFFFFFFFFFFFFFFFFFFFFFFFFFFFFFFFFFFFFFFFF AND MUL OR SWAP1 SSTORE POP CALLVALUE DUP1 ISZERO PUSH2 0x176 JUMPI PUSH0 DUP1 REVERT JUMPDEST POP PUSH1 0x1 PUSH0 SWAP1 SLOAD SWAP1 PUSH2 0x100 EXP SWAP1 DIV PUSH20 0xFFFFFFFFFFFFFFFFFFFFFFFFFFFFFFFFFFFFFFFF AND PUSH20 0xFFFFFFFFFFFFFFFFFFFFFFFFFFFFFFFFFFFFFFFF AND PUSH2 0x8FC PUSH1 0x64 SWAP1 DUP2 ISZERO MUL SWAP1 PUSH1 0x40 MLOAD PUSH0 PUSH1 0x40 MLOAD DUP1 DUP4 SUB DUP2 DUP6 DUP9 DUP9 CALL SWAP4 POP POP POP POP ISZERO DUP1 ISZERO PUSH2 0x1DC JUMPI RETURNDATASIZE PUSH0 DUP1 RETURNDATACOPY RETURNDATASIZE PUSH0 REVERT JUMPDEST POP PUSH0 PUSH1 0x1 PUSH0 SWAP1 SLOAD SWAP1 PUSH2 0x100 EXP SWAP1 DIV PUSH20 0xFFFFFFFFFFFFFFFFFFFFFFFFFFFFFFFFFFFFFFFF AND PUSH20 0xFFFFFFFFFFFFFFFFFFFFFFFFFFFFFFFFFFFFFFFF AND PUSH2 0x8FC PUSH1 0xA SWAP1 DUP2 ISZERO MUL SWAP1 PUSH1 0x40 MLOAD PUSH0 PUSH1 0x40 MLOAD DUP1 DUP4 SUB DUP2 DUP6 DUP9 DUP9 CALL SWAP4 POP POP POP POP SWAP1 POP POP PUSH2 0x623 DUP1 PUSH2 0x244 PUSH0 CODECOPY PUSH0 RETURN INVALID PUSH1 0x80 PUSH1 0x40 MSTORE CALLVALUE DUP1 ISZERO PUSH2 0xF JUMPI PUSH0 DUP1 REVERT JUMPDEST POP PUSH1 0x4 CALLDATASIZE LT PUSH2 0x34 JUMPI PUSH0 CALLDATALOAD PUSH1 0xE0 SHR DUP1 PUSH4 0x362E48D0 EQ PUSH2 0x38 JUMPI DUP1 PUSH4 0x412A1A39 EQ PUSH2 0x54 JUMPI JUMPDEST PUSH0 DUP1 REVERT JUMPDEST PUSH2 0x52 PUSH1 0x4 DUP1 CALLDATASIZE SUB DUP2 ADD SWAP1 PUSH2 0x4D SWAP2 SWAP1 PUSH2 0x4E2 JUMP JUMPDEST PUSH2 0x70 JUMP JUMPDEST STOP JUMPDEST PUSH2 0x6E PUSH1 0x4 DUP1 CALLDATASIZE SUB DUP2 ADD SWAP1 PUSH2 0x69 SWAP2 SWAP1 PUSH2 0x4E2 JUMP JUMPDEST PUSH2 0x102 JUMP JUMPDEST STOP JUMPDEST PUSH0 ADDRESS SWAP1 POP PUSH1 0xA DUP2 PUSH20 0xFFFFFFFFFFFFFFFFFFFFFFFFFFFFFFFFFFFFFFFF AND BALANCE LT ISZERO DUP1 ISZERO PUSH2 0xB3 JUMPI POP PUSH1 0xA DUP3 PUSH20 0xFFFFFFFFFFFFFFFFFFFFFFFFFFFFFFFFFFFFFFFF AND BALANCE LT JUMPDEST ISZERO PUSH2 0xFE JUMPI DUP2 PUSH20 0xFFFFFFFFFFFFFFFFFFFFFFFFFFFFFFFFFFFFFFFF AND PUSH2 0x8FC PUSH1 0xA SWAP1 DUP2 ISZERO MUL SWAP1 PUSH1 0x40 MLOAD PUSH0 PUSH1 0x40 MLOAD DUP1 DUP4 SUB DUP2 DUP6 DUP9 DUP9 CALL SWAP4 POP POP POP POP ISZERO DUP1 ISZERO PUSH2 0xFC JUMPI RETURNDATASIZE PUSH0 DUP1 RETURNDATACOPY RETURNDATASIZE PUSH0 REVERT JUMPDEST POP JUMPDEST POP POP JUMP JUMPDEST PUSH0 ADDRESS SWAP1 POP PUSH1 0xA DUP2 PUSH20 0xFFFFFFFFFFFFFFFFFFFFFFFFFFFFFFFFFFFFFFFF AND BALANCE LT ISZERO DUP1 ISZERO PUSH2 0x145 JUMPI POP PUSH1 0xA DUP3 PUSH20 0xFFFFFFFFFFFFFFFFFFFFFFFFFFFFFFFFFFFFFFFF AND BALANCE LT JUMPDEST ISZERO PUSH2 0x480 JUMPI DUP2 PUSH20 0xFFFFFFFFFFFFFFFFFFFFFFFFFFFFFFFFFFFFFFFF AND PUSH2 0x8FC PUSH1 0xA SWAP1 DUP2 ISZERO MUL SWAP1 PUSH1 0x40 MLOAD PUSH0 PUSH1 0x40 MLOAD DUP1 DUP4 SUB DUP2 DUP6 DUP9 DUP9 CALL SWAP4 POP POP POP POP ISZERO DUP1 ISZERO PUSH2 0x18E JUMPI RETURNDATASIZE PUSH0 DUP1 RETURNDATACOPY RETURNDATASIZE PUSH0 REVERT JUMPDEST POP ADDRESS PUSH20 0xFFFFFFFFFFFFFFFFFFFFFFFFFFFFFFFFFFFFFFFF AND PUSH8 0xDE0B6B3A7640000 PUSH1 0x40 MLOAD PUSH1 0x24 ADD PUSH2 0x1BE SWAP1 PUSH2 0x567 JUMP JUMPDEST PUSH1 0x40 MLOAD PUSH1 0x20 DUP2 DUP4 SUB SUB DUP2 MSTORE SWAP1 PUSH1 0x40 MSTORE PUSH32 0xF2C298BE00000000000000000000000000000000000000000000000000000000 PUSH28 0xFFFFFFFFFFFFFFFFFFFFFFFFFFFFFFFFFFFFFFFFFFFFFFFFFFFFFFFF NOT AND PUSH1 0x20 DUP3 ADD DUP1 MLOAD PUSH28 0xFFFFFFFFFFFFFFFFFFFFFFFFFFFFFFFFFFFFFFFFFFFFFFFFFFFFFFFF DUP4 DUP2 DUP4 AND OR DUP4 MSTORE POP POP POP POP PUSH1 0x40 MLOAD PUSH2 0x248 SWAP2 SWAP1 PUSH2 0x5D7 JUMP JUMPDEST PUSH0 PUSH1 0x40 MLOAD DUP1 DUP4 SUB DUP2 DUP6 DUP8 GAS CALL SWAP3 POP POP POP RETURNDATASIZE DUP1 PUSH0 DUP2 EQ PUSH2 0x282 JUMPI PUSH1 0x40 MLOAD SWAP2 POP PUSH1 0x1F NOT PUSH1 0x3F RETURNDATASIZE ADD AND DUP3 ADD PUSH1 0x40 MSTORE RETURNDATASIZE DUP3 MSTORE RETURNDATASIZE PUSH0 PUSH1 0x20 DUP5 ADD RETURNDATACOPY PUSH2 0x287 JUMP JUMPDEST PUSH1 0x60 SWAP2 POP JUMPDEST POP POP POP ADDRESS PUSH20 0xFFFFFFFFFFFFFFFFFFFFFFFFFFFFFFFFFFFFFFFF AND PUSH2 0x2710 PUSH1 0x40 MLOAD PUSH1 0x24 ADD PUSH2 0x2B3 SWAP1 PUSH2 0x567 JUMP JUMPDEST PUSH1 0x40 MLOAD PUSH1 0x20 DUP2 DUP4 SUB SUB DUP2 MSTORE SWAP1 PUSH1 0x40 MSTORE PUSH32 0xF2C298BE00000000000000000000000000000000000000000000000000000000 PUSH28 0xFFFFFFFFFFFFFFFFFFFFFFFFFFFFFFFFFFFFFFFFFFFFFFFFFFFFFFFF NOT AND PUSH1 0x20 DUP3 ADD DUP1 MLOAD PUSH28 0xFFFFFFFFFFFFFFFFFFFFFFFFFFFFFFFFFFFFFFFFFFFFFFFFFFFFFFFF DUP4 DUP2 DUP4 AND OR DUP4 MSTORE POP POP POP POP PUSH1 0x40 MLOAD PUSH2 0x33D SWAP2 SWAP1 PUSH2 0x5D7 JUMP JUMPDEST PUSH0 PUSH1 0x40 MLOAD DUP1 DUP4 SUB DUP2 PUSH0 DUP8 DUP8 CALL SWAP3 POP POP POP RETURNDATASIZE DUP1 PUSH0 DUP2 EQ PUSH2 0x377 JUMPI PUSH1 0x40 MLOAD SWAP2 POP PUSH1 0x1F NOT PUSH1 0x3F RETURNDATASIZE ADD AND DUP3 ADD PUSH1 0x40 MSTORE RETURNDATASIZE DUP3 MSTORE RETURNDATASIZE PUSH0 PUSH1 0x20 DUP5 ADD RETURNDATACOPY PUSH2 0x37C JUMP JUMPDEST PUSH1 0x60 SWAP2 POP JUMPDEST POP POP POP ADDRESS PUSH20 0xFFFFFFFFFFFFFFFFFFFFFFFFFFFFFFFFFFFFFFFF AND PUSH3 0x186A0 PUSH8 0xDE0B6B3A7640000 PUSH1 0x40 MLOAD PUSH1 0x24 ADD PUSH2 0x3B2 SWAP1 PUSH2 0x567 JUMP JUMPDEST PUSH1 0x40 MLOAD PUSH1 0x20 DUP2 DUP4 SUB SUB DUP2 MSTORE SWAP1 PUSH1 0x40 MSTORE PUSH32 0xF2C298BE00000000000000000000000000000000000000000000000000000000 PUSH28 0xFFFFFFFFFFFFFFFFFFFFFFFFFFFFFFFFFFFFFFFFFFFFFFFFFFFFFFFF NOT AND PUSH1 0x20 DUP3 ADD DUP1 MLOAD PUSH28 0xFFFFFFFFFFFFFFFFFFFFFFFFFFFFFFFFFFFFFFFFFFFFFFFFFFFFFFFF DUP4 DUP2 DUP4 AND OR DUP4 MSTORE POP POP POP POP PUSH1 0x40 MLOAD PUSH2 0x43C SWAP2 SWAP1 PUSH2 0x5D7 JUMP JUMPDEST PUSH0 PUSH1 0x40 MLOAD DUP1 DUP4 SUB DUP2 DUP6 DUP9 DUP9 CALL SWAP4 POP POP POP POP RETURNDATASIZE DUP1 PUSH0 DUP2 EQ PUSH2 0x477 JUMPI PUSH1 0x40 MLOAD SWAP2 POP PUSH1 0x1F NOT PUSH1 0x3F RETURNDATASIZE ADD AND DUP3 ADD PUSH1 0x40 MSTORE RETURNDATASIZE DUP3 MSTORE RETURNDATASIZE PUSH0 PUSH1 0x20 DUP5 ADD RETURNDATACOPY PUSH2 0x47C JUMP JUMPDEST PUSH1 0x60 SWAP2 POP JUMPDEST POP POP POP JUMPDEST POP POP JUMP JUMPDEST PUSH0 DUP1 REVERT JUMPDEST PUSH0 PUSH20 0xFFFFFFFFFFFFFFFFFFFFFFFFFFFFFFFFFFFFFFFF DUP3 AND SWAP1 POP SWAP2 SWAP1 POP JUMP JUMPDEST PUSH0 PUSH2 0x4B1 DUP3 PUSH2 0x488 JUMP JUMPDEST SWAP1 POP SWAP2 SWAP1 POP JUMP JUMPDEST PUSH2 0x4C1 DUP2 PUSH2 0x4A7 JUMP JUMPDEST DUP2 EQ PUSH2 0x4CB JUMPI PUSH0 DUP1 REVERT JUMPDEST POP JUMP JUMPDEST PUSH0 DUP2 CALLDATALOAD SWAP1 POP PUSH2 0x4DC DUP2 PUSH2 0x4B8 JUMP JUMPDEST SWAP3 SWAP2 POP POP JUMP JUMPDEST PUSH0 PUSH1 0x20 DUP3 DUP5 SUB SLT ISZERO PUSH2 0x4F7 JUMPI PUSH2 0x4F6 PUSH2 0x484 JUMP JUMPDEST JUMPDEST PUSH0 PUSH2 0x504 DUP5 DUP3 DUP6 ADD PUSH2 0x4CE JUMP JUMPDEST SWAP2 POP POP SWAP3 SWAP2 POP POP JUMP JUMPDEST PUSH0 DUP3 DUP3 MSTORE PUSH1 0x20 DUP3 ADD SWAP1 POP SWAP3 SWAP2 POP POP JUMP JUMPDEST PUSH32 0x6D794E616D650000000000000000000000000000000000000000000000000000 PUSH0 DUP3 ADD MSTORE POP JUMP JUMPDEST PUSH0 PUSH2 0x551 PUSH1 0x6 DUP4 PUSH2 0x50D JUMP JUMPDEST SWAP2 POP PUSH2 0x55C DUP3 PUSH2 0x51D JUMP JUMPDEST PUSH1 0x20 DUP3 ADD SWAP1 POP SWAP2 SWAP1 POP JUMP JUMPDEST PUSH0 PUSH1 0x20 DUP3 ADD SWAP1 POP DUP2 DUP2 SUB PUSH0 DUP4 ADD MSTORE PUSH2 0x57E DUP2 PUSH2 0x545 JUMP JUMPDEST SWAP1 POP SWAP2 SWAP1 POP JUMP JUMPDEST PUSH0 DUP2 MLOAD SWAP1 POP SWAP2 SWAP1 POP JUMP JUMPDEST PUSH0 DUP2 SWAP1 POP SWAP3 SWAP2 POP POP JUMP JUMPDEST DUP3 DUP2 DUP4 MCOPY PUSH0 DUP4 DUP4 ADD MSTORE POP POP POP JUMP JUMPDEST PUSH0 PUSH2 0x5B1 DUP3 PUSH2 0x585 JUMP JUMPDEST PUSH2 0x5BB DUP2 DUP6 PUSH2 0x58F JUMP JUMPDEST SWAP4 POP PUSH2 0x5CB DUP2 DUP6 PUSH1 0x20 DUP7 ADD PUSH2 0x599 JUMP JUMPDEST DUP1 DUP5 ADD SWAP2 POP POP SWAP3 SWAP2 POP POP JUMP JUMPDEST PUSH0 PUSH2 0x5E2 DUP3 DUP5 PUSH2 0x5A7 JUMP JUMPDEST SWAP2 POP DUP2 SWAP1 POP SWAP3 SWAP2 POP POP JUMP INVALID LOG2 PUSH5 0x6970667358 0x22 SLT KECCAK256 PUSH14 0xEC3EBE55A7B93FC76DFAB1ADE1AA BLOBHASH DUP1 0xEC 0xCB 0xA7 PUSH17 0x238E271E7E33C56B02672B64736F6C6343 STOP ADDMOD BYTE STOP CALLER "
				},
				"gasEstimates": {
					"creation": {
						"codeDepositCost": "314200",
						"executionCost": "infinite",
						"totalCost": "infinite"
					},
					"external": {
						"tesTranser(address)": "infinite",
						"testTranser(address)": "infinite"
					}
				},
				"methodIdentifiers": {
					"tesTranser(address)": "412a1a39",
					"testTranser(address)": "362e48d0"
				}
			},
			"storageLayout": {
				"storage": [
					{
						"astId": 4,
						"contract": "solidity-study/solidity-1base/3/AddressDemo.sol:AddressDemo",
						"label": "addr1",
						"offset": 0,
						"slot": "0",
						"type": "t_address"
					},
					{
						"astId": 10,
						"contract": "solidity-study/solidity-1base/3/AddressDemo.sol:AddressDemo",
						"label": "payableAddr",
						"offset": 0,
						"slot": "1",
						"type": "t_address_payable"
					},
					{
						"astId": 16,
						"contract": "solidity-study/solidity-1base/3/AddressDemo.sol:AddressDemo",
						"label": "payAddr",
						"offset": 0,
						"slot": "2",
						"type": "t_address_payable"
					},
					{
						"astId": 19,
						"contract": "solidity-study/solidity-1base/3/AddressDemo.sol:AddressDemo",
						"label": "addr2",
						"offset": 0,
						"slot": "3",
						"type": "t_address"
					}
				],
				"types": {
					"t_address": {
						"encoding": "inplace",
						"label": "address",
						"numberOfBytes": "20"
					},
					"t_address_payable": {
						"encoding": "inplace",
						"label": "address payable",
						"numberOfBytes": "20"
					}
				}
			},
			"userdoc": {
				"kind": "user",
				"methods": {},
				"version": 1
			}
		}
	}
}