{
	"solidity-study/solidity-1base/6/ReferenceDemo.sol": {
		"ReferenceDemo": {
			"abi": [
				{
					"inputs": [
						{
							"internalType": "uint256[]",
							"name": "y",
							"type": "uint256[]"
						}
					],
					"name": "f",
					"outputs": [],
					"stateMutability": "nonpayable",
					"type": "function"
				},
				{
					"inputs": [],
					"name": "getData",
					"outputs": [
						{
							"internalType": "uint256[]",
							"name": "",
							"type": "uint256[]"
						}
					],
					"stateMutability": "view",
					"type": "function"
				},
				{
					"inputs": [
						{
							"internalType": "uint256[]",
							"name": "newArr",
							"type": "uint256[]"
						}
					],
					"name": "modifyMemoryData",
					"outputs": [
						{
							"internalType": "uint256[]",
							"name": "",
							"type": "uint256[]"
						}
					],
					"stateMutability": "pure",
					"type": "function"
				},
				{
					"inputs": [
						{
							"internalType": "uint256",
							"name": "index",
							"type": "uint256"
						},
						{
							"internalType": "uint256",
							"name": "x",
							"type": "uint256"
						}
					],
					"name": "modifyStorageData",
					"outputs": [],
					"stateMutability": "nonpayable",
					"type": "function"
				},
				{
					"inputs": [],
					"name": "printx",
					"outputs": [
						{
							"internalType": "uint256",
							"name": "",
							"type": "uint256"
						}
					],
					"stateMutability": "view",
					"type": "function"
				},
				{
					"inputs": [
						{
							"internalType": "uint256[]",
							"name": "newData",
							"type": "uint256[]"
						}
					],
					"name": "updateData",
					"outputs": [],
					"stateMutability": "nonpayable",
					"type": "function"
				}
			],
			"devdoc": {
				"kind": "dev",
				"methods": {},
				"version": 1
			},
			"evm": {
				"assembly": "    /* \"solidity-study/solidity-1base/6/ReferenceDemo.sol\":62:1122  contract ReferenceDemo{... */\n  mstore(0x40, 0x80)\n  callvalue\n  dup1\n  iszero\n  tag_1\n  jumpi\n  0x00\n  dup1\n  revert\ntag_1:\n  pop\n  dataSize(sub_0)\n  dup1\n  dataOffset(sub_0)\n  0x00\n  codecopy\n  0x00\n  return\nstop\n\nsub_0: assembly {\n        /* \"solidity-study/solidity-1base/6/ReferenceDemo.sol\":62:1122  contract ReferenceDemo{... */\n      mstore(0x40, 0x80)\n      callvalue\n      dup1\n      iszero\n      tag_1\n      jumpi\n      0x00\n      dup1\n      revert\n    tag_1:\n      pop\n      jumpi(tag_2, lt(calldatasize, 0x04))\n      shr(0xe0, calldataload(0x00))\n      dup1\n      0x1aca9506\n      eq\n      tag_3\n      jumpi\n      dup1\n      0x3bc5de30\n      eq\n      tag_4\n      jumpi\n      dup1\n      0x7bc5bbbf\n      eq\n      tag_5\n      jumpi\n      dup1\n      0xaa44269d\n      eq\n      tag_6\n      jumpi\n      dup1\n      0xc104210b\n      eq\n      tag_7\n      jumpi\n      dup1\n      0xe6b80ce6\n      eq\n      tag_8\n      jumpi\n    tag_2:\n      0x00\n      dup1\n      revert\n        /* \"solidity-study/solidity-1base/6/ReferenceDemo.sol\":470:543  function printx() public view returns(uint){... */\n    tag_3:\n      tag_9\n      tag_10\n      jump\t// in\n    tag_9:\n      mload(0x40)\n      tag_11\n      swap2\n      swap1\n      tag_12\n      jump\t// in\n    tag_11:\n      mload(0x40)\n      dup1\n      swap2\n      sub\n      swap1\n      return\n        /* \"solidity-study/solidity-1base/6/ReferenceDemo.sol\":662:745  function getData() public view returns(uint[] memory){... */\n    tag_4:\n      tag_13\n      tag_14\n      jump\t// in\n    tag_13:\n      mload(0x40)\n      tag_15\n      swap2\n      swap1\n      tag_16\n      jump\t// in\n    tag_15:\n      mload(0x40)\n      dup1\n      swap2\n      sub\n      swap1\n      return\n        /* \"solidity-study/solidity-1base/6/ReferenceDemo.sol\":137:464  function f(uint[] memory y) public {... */\n    tag_5:\n      tag_17\n      0x04\n      dup1\n      calldatasize\n      sub\n      dup2\n      add\n      swap1\n      tag_18\n      swap2\n      swap1\n      tag_19\n      jump\t// in\n    tag_18:\n      tag_20\n      jump\t// in\n    tag_17:\n      stop\n        /* \"solidity-study/solidity-1base/6/ReferenceDemo.sol\":573:656  function updateData(uint[] memory newData) public {... */\n    tag_6:\n      tag_21\n      0x04\n      dup1\n      calldatasize\n      sub\n      dup2\n      add\n      swap1\n      tag_22\n      swap2\n      swap1\n      tag_19\n      jump\t// in\n    tag_22:\n      tag_23\n      jump\t// in\n    tag_21:\n      stop\n        /* \"solidity-study/solidity-1base/6/ReferenceDemo.sol\":920:1114  function modifyMemoryData(uint[] memory newArr) public pure returns(uint[] memory){... */\n    tag_7:\n      tag_24\n      0x04\n      dup1\n      calldatasize\n      sub\n      dup2\n      add\n      swap1\n      tag_25\n      swap2\n      swap1\n      tag_19\n      jump\t// in\n    tag_25:\n      tag_26\n      jump\t// in\n    tag_24:\n      mload(0x40)\n      tag_27\n      swap2\n      swap1\n      tag_16\n      jump\t// in\n    tag_27:\n      mload(0x40)\n      dup1\n      swap2\n      sub\n      swap1\n      return\n        /* \"solidity-study/solidity-1base/6/ReferenceDemo.sol\":751:912  function modifyStorageData(uint index,uint x) public {... */\n    tag_8:\n      tag_28\n      0x04\n      dup1\n      calldatasize\n      sub\n      dup2\n      add\n      swap1\n      tag_29\n      swap2\n      swap1\n      tag_30\n      jump\t// in\n    tag_29:\n      tag_31\n      jump\t// in\n    tag_28:\n      stop\n        /* \"solidity-study/solidity-1base/6/ReferenceDemo.sol\":470:543  function printx() public view returns(uint){... */\n    tag_10:\n        /* \"solidity-study/solidity-1base/6/ReferenceDemo.sol\":508:512  uint */\n      0x00\n        /* \"solidity-study/solidity-1base/6/ReferenceDemo.sol\":531:532  x */\n      dup1\n        /* \"solidity-study/solidity-1base/6/ReferenceDemo.sol\":533:534  0 */\n      0x00\n        /* \"solidity-study/solidity-1base/6/ReferenceDemo.sol\":531:535  x[0] */\n      dup2\n      sload\n      dup2\n      lt\n      tag_33\n      jumpi\n      tag_34\n      tag_35\n      jump\t// in\n    tag_34:\n    tag_33:\n      swap1\n      0x00\n      mstore\n      keccak256(0x00, 0x20)\n      add\n      sload\n        /* \"solidity-study/solidity-1base/6/ReferenceDemo.sol\":524:535  return x[0] */\n      swap1\n      pop\n        /* \"solidity-study/solidity-1base/6/ReferenceDemo.sol\":470:543  function printx() public view returns(uint){... */\n      swap1\n      jump\t// out\n        /* \"solidity-study/solidity-1base/6/ReferenceDemo.sol\":662:745  function getData() public view returns(uint[] memory){... */\n    tag_14:\n        /* \"solidity-study/solidity-1base/6/ReferenceDemo.sol\":701:714  uint[] memory */\n      0x60\n        /* \"solidity-study/solidity-1base/6/ReferenceDemo.sol\":733:737  data */\n      0x01\n        /* \"solidity-study/solidity-1base/6/ReferenceDemo.sol\":726:737  return data */\n      dup1\n      sload\n      dup1\n      0x20\n      mul\n      0x20\n      add\n      mload(0x40)\n      swap1\n      dup2\n      add\n      0x40\n      mstore\n      dup1\n      swap3\n      swap2\n      swap1\n      dup2\n      dup2\n      mstore\n      0x20\n      add\n      dup3\n      dup1\n      sload\n      dup1\n      iszero\n      tag_38\n      jumpi\n      0x20\n      mul\n      dup3\n      add\n      swap2\n      swap1\n      0x00\n      mstore\n      keccak256(0x00, 0x20)\n      swap1\n    tag_39:\n      dup2\n      sload\n      dup2\n      mstore\n      0x20\n      add\n      swap1\n      0x01\n      add\n      swap1\n      dup1\n      dup4\n      gt\n      tag_39\n      jumpi\n    tag_38:\n      pop\n      pop\n      pop\n      pop\n      pop\n      swap1\n      pop\n        /* \"solidity-study/solidity-1base/6/ReferenceDemo.sol\":662:745  function getData() public view returns(uint[] memory){... */\n      swap1\n      jump\t// out\n        /* \"solidity-study/solidity-1base/6/ReferenceDemo.sol\":137:464  function f(uint[] memory y) public {... */\n    tag_20:\n        /* \"solidity-study/solidity-1base/6/ReferenceDemo.sol\":187:188  y */\n      dup1\n        /* \"solidity-study/solidity-1base/6/ReferenceDemo.sol\":183:184  x */\n      0x00\n        /* \"solidity-study/solidity-1base/6/ReferenceDemo.sol\":183:188  x = y */\n      swap1\n      dup1\n      mload\n      swap1\n      0x20\n      add\n      swap1\n      tag_41\n      swap3\n      swap2\n      swap1\n      tag_42\n      jump\t// in\n    tag_41:\n      pop\n        /* \"solidity-study/solidity-1base/6/ReferenceDemo.sol\":233:249  uint[] storage z */\n      0x00\n        /* \"solidity-study/solidity-1base/6/ReferenceDemo.sol\":353:356  100 */\n      0x64\n        /* \"solidity-study/solidity-1base/6/ReferenceDemo.sol\":346:347  z */\n      dup2\n        /* \"solidity-study/solidity-1base/6/ReferenceDemo.sol\":348:349  0 */\n      0x00\n        /* \"solidity-study/solidity-1base/6/ReferenceDemo.sol\":346:350  z[0] */\n      dup2\n      sload\n      dup2\n      lt\n      tag_43\n      jumpi\n      tag_44\n      tag_35\n      jump\t// in\n    tag_44:\n    tag_43:\n      swap1\n      0x00\n      mstore\n      keccak256(0x00, 0x20)\n      add\n        /* \"solidity-study/solidity-1base/6/ReferenceDemo.sol\":346:356  z[0] = 100 */\n      dup2\n      swap1\n      sstore\n      pop\n        /* \"solidity-study/solidity-1base/6/ReferenceDemo.sol\":172:464  {... */\n      pop\n        /* \"solidity-study/solidity-1base/6/ReferenceDemo.sol\":137:464  function f(uint[] memory y) public {... */\n      pop\n      jump\t// out\n        /* \"solidity-study/solidity-1base/6/ReferenceDemo.sol\":573:656  function updateData(uint[] memory newData) public {... */\n    tag_23:\n        /* \"solidity-study/solidity-1base/6/ReferenceDemo.sol\":641:648  newData */\n      dup1\n        /* \"solidity-study/solidity-1base/6/ReferenceDemo.sol\":634:638  data */\n      0x01\n        /* \"solidity-study/solidity-1base/6/ReferenceDemo.sol\":634:648  data = newData */\n      swap1\n      dup1\n      mload\n      swap1\n      0x20\n      add\n      swap1\n      tag_47\n      swap3\n      swap2\n      swap1\n      tag_42\n      jump\t// in\n    tag_47:\n      pop\n        /* \"solidity-study/solidity-1base/6/ReferenceDemo.sol\":573:656  function updateData(uint[] memory newData) public {... */\n      pop\n      jump\t// out\n        /* \"solidity-study/solidity-1base/6/ReferenceDemo.sol\":920:1114  function modifyMemoryData(uint[] memory newArr) public pure returns(uint[] memory){... */\n    tag_26:\n        /* \"solidity-study/solidity-1base/6/ReferenceDemo.sol\":988:1001  uint[] memory */\n      0x60\n        /* \"solidity-study/solidity-1base/6/ReferenceDemo.sol\":1037:1038  0 */\n      0x00\n        /* \"solidity-study/solidity-1base/6/ReferenceDemo.sol\":1021:1027  newArr */\n      dup3\n        /* \"solidity-study/solidity-1base/6/ReferenceDemo.sol\":1021:1034  newArr.length */\n      mload\n        /* \"solidity-study/solidity-1base/6/ReferenceDemo.sol\":1021:1038  newArr.length > 0 */\n      gt\n        /* \"solidity-study/solidity-1base/6/ReferenceDemo.sol\":1013:1055  require(newArr.length > 0, \"error newArr\") */\n      tag_49\n      jumpi\n      mload(0x40)\n      0x08c379a000000000000000000000000000000000000000000000000000000000\n      dup2\n      mstore\n      0x04\n      add\n      tag_50\n      swap1\n      tag_51\n      jump\t// in\n    tag_50:\n      mload(0x40)\n      dup1\n      swap2\n      sub\n      swap1\n      revert\n    tag_49:\n        /* \"solidity-study/solidity-1base/6/ReferenceDemo.sol\":1078:1082  1234 */\n      0x04d2\n        /* \"solidity-study/solidity-1base/6/ReferenceDemo.sol\":1066:1072  newArr */\n      dup3\n        /* \"solidity-study/solidity-1base/6/ReferenceDemo.sol\":1073:1074  0 */\n      0x00\n        /* \"solidity-study/solidity-1base/6/ReferenceDemo.sol\":1066:1075  newArr[0] */\n      dup2\n      mload\n      dup2\n      lt\n      tag_52\n      jumpi\n      tag_53\n      tag_35\n      jump\t// in\n    tag_53:\n    tag_52:\n      0x20\n      mul\n      0x20\n      add\n      add\n        /* \"solidity-study/solidity-1base/6/ReferenceDemo.sol\":1066:1082  newArr[0] = 1234 */\n      dup2\n      dup2\n      mstore\n      pop\n      pop\n        /* \"solidity-study/solidity-1base/6/ReferenceDemo.sol\":1100:1106  newArr */\n      dup2\n        /* \"solidity-study/solidity-1base/6/ReferenceDemo.sol\":1093:1106  return newArr */\n      swap1\n      pop\n        /* \"solidity-study/solidity-1base/6/ReferenceDemo.sol\":920:1114  function modifyMemoryData(uint[] memory newArr) public pure returns(uint[] memory){... */\n      swap2\n      swap1\n      pop\n      jump\t// out\n        /* \"solidity-study/solidity-1base/6/ReferenceDemo.sol\":751:912  function modifyStorageData(uint index,uint x) public {... */\n    tag_31:\n        /* \"solidity-study/solidity-1base/6/ReferenceDemo.sol\":831:835  data */\n      0x01\n        /* \"solidity-study/solidity-1base/6/ReferenceDemo.sol\":831:842  data.length */\n      dup1\n      sload\n      swap1\n      pop\n        /* \"solidity-study/solidity-1base/6/ReferenceDemo.sol\":823:828  index */\n      dup3\n        /* \"solidity-study/solidity-1base/6/ReferenceDemo.sol\":823:842  index < data.length */\n      lt\n        /* \"solidity-study/solidity-1base/6/ReferenceDemo.sol\":815:878  require(index < data.length,\" index out of  data array length\") */\n      tag_55\n      jumpi\n      mload(0x40)\n      0x08c379a000000000000000000000000000000000000000000000000000000000\n      dup2\n      mstore\n      0x04\n      add\n      tag_56\n      swap1\n      tag_57\n      jump\t// in\n    tag_56:\n      mload(0x40)\n      dup1\n      swap2\n      sub\n      swap1\n      revert\n    tag_55:\n        /* \"solidity-study/solidity-1base/6/ReferenceDemo.sol\":903:904  x */\n      dup1\n        /* \"solidity-study/solidity-1base/6/ReferenceDemo.sol\":889:893  data */\n      0x01\n        /* \"solidity-study/solidity-1base/6/ReferenceDemo.sol\":894:899  index */\n      dup4\n        /* \"solidity-study/solidity-1base/6/ReferenceDemo.sol\":889:900  data[index] */\n      dup2\n      sload\n      dup2\n      lt\n      tag_58\n      jumpi\n      tag_59\n      tag_35\n      jump\t// in\n    tag_59:\n    tag_58:\n      swap1\n      0x00\n      mstore\n      keccak256(0x00, 0x20)\n      add\n        /* \"solidity-study/solidity-1base/6/ReferenceDemo.sol\":889:904  data[index] = x */\n      dup2\n      swap1\n      sstore\n      pop\n        /* \"solidity-study/solidity-1base/6/ReferenceDemo.sol\":751:912  function modifyStorageData(uint index,uint x) public {... */\n      pop\n      pop\n      jump\t// out\n    tag_42:\n      dup3\n      dup1\n      sload\n      dup3\n      dup3\n      sstore\n      swap1\n      0x00\n      mstore\n      keccak256(0x00, 0x20)\n      swap1\n      dup2\n      add\n      swap3\n      dup3\n      iszero\n      tag_61\n      jumpi\n      swap2\n      0x20\n      mul\n      dup3\n      add\n    tag_62:\n      dup3\n      dup2\n      gt\n      iszero\n      tag_63\n      jumpi\n      dup3\n      mload\n      dup3\n      sstore\n      swap2\n      0x20\n      add\n      swap2\n      swap1\n      0x01\n      add\n      swap1\n      jump(tag_62)\n    tag_63:\n    tag_61:\n      pop\n      swap1\n      pop\n      tag_64\n      swap2\n      swap1\n      tag_65\n      jump\t// in\n    tag_64:\n      pop\n      swap1\n      jump\t// out\n    tag_65:\n    tag_66:\n      dup1\n      dup3\n      gt\n      iszero\n      tag_67\n      jumpi\n      0x00\n      dup2\n      0x00\n      swap1\n      sstore\n      pop\n      0x01\n      add\n      jump(tag_66)\n    tag_67:\n      pop\n      swap1\n      jump\t// out\n        /* \"#utility.yul\":7:84   */\n    tag_68:\n        /* \"#utility.yul\":44:51   */\n      0x00\n        /* \"#utility.yul\":73:78   */\n      dup2\n        /* \"#utility.yul\":62:78   */\n      swap1\n      pop\n        /* \"#utility.yul\":7:84   */\n      swap2\n      swap1\n      pop\n      jump\t// out\n        /* \"#utility.yul\":90:208   */\n    tag_69:\n        /* \"#utility.yul\":177:201   */\n      tag_99\n        /* \"#utility.yul\":195:200   */\n      dup2\n        /* \"#utility.yul\":177:201   */\n      tag_68\n      jump\t// in\n    tag_99:\n        /* \"#utility.yul\":172:175   */\n      dup3\n        /* \"#utility.yul\":165:202   */\n      mstore\n        /* \"#utility.yul\":90:208   */\n      pop\n      pop\n      jump\t// out\n        /* \"#utility.yul\":214:436   */\n    tag_12:\n        /* \"#utility.yul\":307:311   */\n      0x00\n        /* \"#utility.yul\":345:347   */\n      0x20\n        /* \"#utility.yul\":334:343   */\n      dup3\n        /* \"#utility.yul\":330:348   */\n      add\n        /* \"#utility.yul\":322:348   */\n      swap1\n      pop\n        /* \"#utility.yul\":358:429   */\n      tag_101\n        /* \"#utility.yul\":426:427   */\n      0x00\n        /* \"#utility.yul\":415:424   */\n      dup4\n        /* \"#utility.yul\":411:428   */\n      add\n        /* \"#utility.yul\":402:408   */\n      dup5\n        /* \"#utility.yul\":358:429   */\n      tag_69\n      jump\t// in\n    tag_101:\n        /* \"#utility.yul\":214:436   */\n      swap3\n      swap2\n      pop\n      pop\n      jump\t// out\n        /* \"#utility.yul\":442:556   */\n    tag_70:\n        /* \"#utility.yul\":509:515   */\n      0x00\n        /* \"#utility.yul\":543:548   */\n      dup2\n        /* \"#utility.yul\":537:549   */\n      mload\n        /* \"#utility.yul\":527:549   */\n      swap1\n      pop\n        /* \"#utility.yul\":442:556   */\n      swap2\n      swap1\n      pop\n      jump\t// out\n        /* \"#utility.yul\":562:746   */\n    tag_71:\n        /* \"#utility.yul\":661:672   */\n      0x00\n        /* \"#utility.yul\":695:701   */\n      dup3\n        /* \"#utility.yul\":690:693   */\n      dup3\n        /* \"#utility.yul\":683:702   */\n      mstore\n        /* \"#utility.yul\":735:739   */\n      0x20\n        /* \"#utility.yul\":730:733   */\n      dup3\n        /* \"#utility.yul\":726:740   */\n      add\n        /* \"#utility.yul\":711:740   */\n      swap1\n      pop\n        /* \"#utility.yul\":562:746   */\n      swap3\n      swap2\n      pop\n      pop\n      jump\t// out\n        /* \"#utility.yul\":752:884   */\n    tag_72:\n        /* \"#utility.yul\":819:823   */\n      0x00\n        /* \"#utility.yul\":842:845   */\n      dup2\n        /* \"#utility.yul\":834:845   */\n      swap1\n      pop\n        /* \"#utility.yul\":872:876   */\n      0x20\n        /* \"#utility.yul\":867:870   */\n      dup3\n        /* \"#utility.yul\":863:877   */\n      add\n        /* \"#utility.yul\":855:877   */\n      swap1\n      pop\n        /* \"#utility.yul\":752:884   */\n      swap2\n      swap1\n      pop\n      jump\t// out\n        /* \"#utility.yul\":890:998   */\n    tag_73:\n        /* \"#utility.yul\":967:991   */\n      tag_106\n        /* \"#utility.yul\":985:990   */\n      dup2\n        /* \"#utility.yul\":967:991   */\n      tag_68\n      jump\t// in\n    tag_106:\n        /* \"#utility.yul\":962:965   */\n      dup3\n        /* \"#utility.yul\":955:992   */\n      mstore\n        /* \"#utility.yul\":890:998   */\n      pop\n      pop\n      jump\t// out\n        /* \"#utility.yul\":1004:1183   */\n    tag_74:\n        /* \"#utility.yul\":1073:1083   */\n      0x00\n        /* \"#utility.yul\":1094:1140   */\n      tag_108\n        /* \"#utility.yul\":1136:1139   */\n      dup4\n        /* \"#utility.yul\":1128:1134   */\n      dup4\n        /* \"#utility.yul\":1094:1140   */\n      tag_73\n      jump\t// in\n    tag_108:\n        /* \"#utility.yul\":1172:1176   */\n      0x20\n        /* \"#utility.yul\":1167:1170   */\n      dup4\n        /* \"#utility.yul\":1163:1177   */\n      add\n        /* \"#utility.yul\":1149:1177   */\n      swap1\n      pop\n        /* \"#utility.yul\":1004:1183   */\n      swap3\n      swap2\n      pop\n      pop\n      jump\t// out\n        /* \"#utility.yul\":1189:1302   */\n    tag_75:\n        /* \"#utility.yul\":1259:1263   */\n      0x00\n        /* \"#utility.yul\":1291:1295   */\n      0x20\n        /* \"#utility.yul\":1286:1289   */\n      dup3\n        /* \"#utility.yul\":1282:1296   */\n      add\n        /* \"#utility.yul\":1274:1296   */\n      swap1\n      pop\n        /* \"#utility.yul\":1189:1302   */\n      swap2\n      swap1\n      pop\n      jump\t// out\n        /* \"#utility.yul\":1338:2070   */\n    tag_76:\n        /* \"#utility.yul\":1457:1460   */\n      0x00\n        /* \"#utility.yul\":1486:1540   */\n      tag_111\n        /* \"#utility.yul\":1534:1539   */\n      dup3\n        /* \"#utility.yul\":1486:1540   */\n      tag_70\n      jump\t// in\n    tag_111:\n        /* \"#utility.yul\":1556:1642   */\n      tag_112\n        /* \"#utility.yul\":1635:1641   */\n      dup2\n        /* \"#utility.yul\":1630:1633   */\n      dup6\n        /* \"#utility.yul\":1556:1642   */\n      tag_71\n      jump\t// in\n    tag_112:\n        /* \"#utility.yul\":1549:1642   */\n      swap4\n      pop\n        /* \"#utility.yul\":1666:1722   */\n      tag_113\n        /* \"#utility.yul\":1716:1721   */\n      dup4\n        /* \"#utility.yul\":1666:1722   */\n      tag_72\n      jump\t// in\n    tag_113:\n        /* \"#utility.yul\":1745:1752   */\n      dup1\n        /* \"#utility.yul\":1776:1777   */\n      0x00\n        /* \"#utility.yul\":1761:2045   */\n    tag_114:\n        /* \"#utility.yul\":1786:1792   */\n      dup4\n        /* \"#utility.yul\":1783:1784   */\n      dup2\n        /* \"#utility.yul\":1780:1793   */\n      lt\n        /* \"#utility.yul\":1761:2045   */\n      iszero\n      tag_116\n      jumpi\n        /* \"#utility.yul\":1862:1868   */\n      dup2\n        /* \"#utility.yul\":1856:1869   */\n      mload\n        /* \"#utility.yul\":1889:1952   */\n      tag_117\n        /* \"#utility.yul\":1948:1951   */\n      dup9\n        /* \"#utility.yul\":1933:1946   */\n      dup3\n        /* \"#utility.yul\":1889:1952   */\n      tag_74\n      jump\t// in\n    tag_117:\n        /* \"#utility.yul\":1882:1952   */\n      swap8\n      pop\n        /* \"#utility.yul\":1975:2035   */\n      tag_118\n        /* \"#utility.yul\":2028:2034   */\n      dup4\n        /* \"#utility.yul\":1975:2035   */\n      tag_75\n      jump\t// in\n    tag_118:\n        /* \"#utility.yul\":1965:2035   */\n      swap3\n      pop\n        /* \"#utility.yul\":1821:2045   */\n      pop\n        /* \"#utility.yul\":1808:1809   */\n      0x01\n        /* \"#utility.yul\":1805:1806   */\n      dup2\n        /* \"#utility.yul\":1801:1810   */\n      add\n        /* \"#utility.yul\":1796:1810   */\n      swap1\n      pop\n        /* \"#utility.yul\":1761:2045   */\n      jump(tag_114)\n    tag_116:\n        /* \"#utility.yul\":1765:1779   */\n      pop\n        /* \"#utility.yul\":2061:2064   */\n      dup6\n        /* \"#utility.yul\":2054:2064   */\n      swap4\n      pop\n        /* \"#utility.yul\":1462:2070   */\n      pop\n      pop\n      pop\n        /* \"#utility.yul\":1338:2070   */\n      swap3\n      swap2\n      pop\n      pop\n      jump\t// out\n        /* \"#utility.yul\":2076:2449   */\n    tag_16:\n        /* \"#utility.yul\":2219:2223   */\n      0x00\n        /* \"#utility.yul\":2257:2259   */\n      0x20\n        /* \"#utility.yul\":2246:2255   */\n      dup3\n        /* \"#utility.yul\":2242:2260   */\n      add\n        /* \"#utility.yul\":2234:2260   */\n      swap1\n      pop\n        /* \"#utility.yul\":2306:2315   */\n      dup2\n        /* \"#utility.yul\":2300:2304   */\n      dup2\n        /* \"#utility.yul\":2296:2316   */\n      sub\n        /* \"#utility.yul\":2292:2293   */\n      0x00\n        /* \"#utility.yul\":2281:2290   */\n      dup4\n        /* \"#utility.yul\":2277:2294   */\n      add\n        /* \"#utility.yul\":2270:2317   */\n      mstore\n        /* \"#utility.yul\":2334:2442   */\n      tag_120\n        /* \"#utility.yul\":2437:2441   */\n      dup2\n        /* \"#utility.yul\":2428:2434   */\n      dup5\n        /* \"#utility.yul\":2334:2442   */\n      tag_76\n      jump\t// in\n    tag_120:\n        /* \"#utility.yul\":2326:2442   */\n      swap1\n      pop\n        /* \"#utility.yul\":2076:2449   */\n      swap3\n      swap2\n      pop\n      pop\n      jump\t// out\n        /* \"#utility.yul\":2455:2530   */\n    tag_77:\n        /* \"#utility.yul\":2488:2494   */\n      0x00\n        /* \"#utility.yul\":2521:2523   */\n      0x40\n        /* \"#utility.yul\":2515:2524   */\n      mload\n        /* \"#utility.yul\":2505:2524   */\n      swap1\n      pop\n        /* \"#utility.yul\":2455:2530   */\n      swap1\n      jump\t// out\n        /* \"#utility.yul\":2536:2653   */\n    tag_78:\n        /* \"#utility.yul\":2645:2646   */\n      0x00\n        /* \"#utility.yul\":2642:2643   */\n      dup1\n        /* \"#utility.yul\":2635:2647   */\n      revert\n        /* \"#utility.yul\":2659:2776   */\n    tag_79:\n        /* \"#utility.yul\":2768:2769   */\n      0x00\n        /* \"#utility.yul\":2765:2766   */\n      dup1\n        /* \"#utility.yul\":2758:2770   */\n      revert\n        /* \"#utility.yul\":2782:2899   */\n    tag_80:\n        /* \"#utility.yul\":2891:2892   */\n      0x00\n        /* \"#utility.yul\":2888:2889   */\n      dup1\n        /* \"#utility.yul\":2881:2893   */\n      revert\n        /* \"#utility.yul\":2905:3007   */\n    tag_81:\n        /* \"#utility.yul\":2946:2952   */\n      0x00\n        /* \"#utility.yul\":2997:2999   */\n      0x1f\n        /* \"#utility.yul\":2993:3000   */\n      not\n        /* \"#utility.yul\":2988:2990   */\n      0x1f\n        /* \"#utility.yul\":2981:2986   */\n      dup4\n        /* \"#utility.yul\":2977:2991   */\n      add\n        /* \"#utility.yul\":2973:3001   */\n      and\n        /* \"#utility.yul\":2963:3001   */\n      swap1\n      pop\n        /* \"#utility.yul\":2905:3007   */\n      swap2\n      swap1\n      pop\n      jump\t// out\n        /* \"#utility.yul\":3013:3193   */\n    tag_82:\n        /* \"#utility.yul\":3061:3138   */\n      0x4e487b7100000000000000000000000000000000000000000000000000000000\n        /* \"#utility.yul\":3058:3059   */\n      0x00\n        /* \"#utility.yul\":3051:3139   */\n      mstore\n        /* \"#utility.yul\":3158:3162   */\n      0x41\n        /* \"#utility.yul\":3155:3156   */\n      0x04\n        /* \"#utility.yul\":3148:3163   */\n      mstore\n        /* \"#utility.yul\":3182:3186   */\n      0x24\n        /* \"#utility.yul\":3179:3180   */\n      0x00\n        /* \"#utility.yul\":3172:3187   */\n      revert\n        /* \"#utility.yul\":3199:3480   */\n    tag_83:\n        /* \"#utility.yul\":3282:3309   */\n      tag_128\n        /* \"#utility.yul\":3304:3308   */\n      dup3\n        /* \"#utility.yul\":3282:3309   */\n      tag_81\n      jump\t// in\n    tag_128:\n        /* \"#utility.yul\":3274:3280   */\n      dup2\n        /* \"#utility.yul\":3270:3310   */\n      add\n        /* \"#utility.yul\":3412:3418   */\n      dup2\n        /* \"#utility.yul\":3400:3410   */\n      dup2\n        /* \"#utility.yul\":3397:3419   */\n      lt\n        /* \"#utility.yul\":3376:3394   */\n      0xffffffffffffffff\n        /* \"#utility.yul\":3364:3374   */\n      dup3\n        /* \"#utility.yul\":3361:3395   */\n      gt\n        /* \"#utility.yul\":3358:3420   */\n      or\n        /* \"#utility.yul\":3355:3443   */\n      iszero\n      tag_129\n      jumpi\n        /* \"#utility.yul\":3423:3441   */\n      tag_130\n      tag_82\n      jump\t// in\n    tag_130:\n        /* \"#utility.yul\":3355:3443   */\n    tag_129:\n        /* \"#utility.yul\":3463:3473   */\n      dup1\n        /* \"#utility.yul\":3459:3461   */\n      0x40\n        /* \"#utility.yul\":3452:3474   */\n      mstore\n        /* \"#utility.yul\":3242:3480   */\n      pop\n        /* \"#utility.yul\":3199:3480   */\n      pop\n      pop\n      jump\t// out\n        /* \"#utility.yul\":3486:3615   */\n    tag_84:\n        /* \"#utility.yul\":3520:3526   */\n      0x00\n        /* \"#utility.yul\":3547:3567   */\n      tag_132\n      tag_77\n      jump\t// in\n    tag_132:\n        /* \"#utility.yul\":3537:3567   */\n      swap1\n      pop\n        /* \"#utility.yul\":3576:3609   */\n      tag_133\n        /* \"#utility.yul\":3604:3608   */\n      dup3\n        /* \"#utility.yul\":3596:3602   */\n      dup3\n        /* \"#utility.yul\":3576:3609   */\n      tag_83\n      jump\t// in\n    tag_133:\n        /* \"#utility.yul\":3486:3615   */\n      swap2\n      swap1\n      pop\n      jump\t// out\n        /* \"#utility.yul\":3621:3932   */\n    tag_85:\n        /* \"#utility.yul\":3698:3702   */\n      0x00\n        /* \"#utility.yul\":3788:3806   */\n      0xffffffffffffffff\n        /* \"#utility.yul\":3780:3786   */\n      dup3\n        /* \"#utility.yul\":3777:3807   */\n      gt\n        /* \"#utility.yul\":3774:3830   */\n      iszero\n      tag_135\n      jumpi\n        /* \"#utility.yul\":3810:3828   */\n      tag_136\n      tag_82\n      jump\t// in\n    tag_136:\n        /* \"#utility.yul\":3774:3830   */\n    tag_135:\n        /* \"#utility.yul\":3860:3864   */\n      0x20\n        /* \"#utility.yul\":3852:3858   */\n      dup3\n        /* \"#utility.yul\":3848:3865   */\n      mul\n        /* \"#utility.yul\":3840:3865   */\n      swap1\n      pop\n        /* \"#utility.yul\":3920:3924   */\n      0x20\n        /* \"#utility.yul\":3914:3918   */\n      dup2\n        /* \"#utility.yul\":3910:3925   */\n      add\n        /* \"#utility.yul\":3902:3925   */\n      swap1\n      pop\n        /* \"#utility.yul\":3621:3932   */\n      swap2\n      swap1\n      pop\n      jump\t// out\n        /* \"#utility.yul\":3938:4055   */\n    tag_86:\n        /* \"#utility.yul\":4047:4048   */\n      0x00\n        /* \"#utility.yul\":4044:4045   */\n      dup1\n        /* \"#utility.yul\":4037:4049   */\n      revert\n        /* \"#utility.yul\":4061:4183   */\n    tag_87:\n        /* \"#utility.yul\":4134:4158   */\n      tag_139\n        /* \"#utility.yul\":4152:4157   */\n      dup2\n        /* \"#utility.yul\":4134:4158   */\n      tag_68\n      jump\t// in\n    tag_139:\n        /* \"#utility.yul\":4127:4132   */\n      dup2\n        /* \"#utility.yul\":4124:4159   */\n      eq\n        /* \"#utility.yul\":4114:4177   */\n      tag_140\n      jumpi\n        /* \"#utility.yul\":4173:4174   */\n      0x00\n        /* \"#utility.yul\":4170:4171   */\n      dup1\n        /* \"#utility.yul\":4163:4175   */\n      revert\n        /* \"#utility.yul\":4114:4177   */\n    tag_140:\n        /* \"#utility.yul\":4061:4183   */\n      pop\n      jump\t// out\n        /* \"#utility.yul\":4189:4328   */\n    tag_88:\n        /* \"#utility.yul\":4235:4240   */\n      0x00\n        /* \"#utility.yul\":4273:4279   */\n      dup2\n        /* \"#utility.yul\":4260:4280   */\n      calldataload\n        /* \"#utility.yul\":4251:4280   */\n      swap1\n      pop\n        /* \"#utility.yul\":4289:4322   */\n      tag_142\n        /* \"#utility.yul\":4316:4321   */\n      dup2\n        /* \"#utility.yul\":4289:4322   */\n      tag_87\n      jump\t// in\n    tag_142:\n        /* \"#utility.yul\":4189:4328   */\n      swap3\n      swap2\n      pop\n      pop\n      jump\t// out\n        /* \"#utility.yul\":4351:5061   */\n    tag_89:\n        /* \"#utility.yul\":4447:4452   */\n      0x00\n        /* \"#utility.yul\":4472:4553   */\n      tag_144\n        /* \"#utility.yul\":4488:4552   */\n      tag_145\n        /* \"#utility.yul\":4545:4551   */\n      dup5\n        /* \"#utility.yul\":4488:4552   */\n      tag_85\n      jump\t// in\n    tag_145:\n        /* \"#utility.yul\":4472:4553   */\n      tag_84\n      jump\t// in\n    tag_144:\n        /* \"#utility.yul\":4463:4553   */\n      swap1\n      pop\n        /* \"#utility.yul\":4573:4578   */\n      dup1\n        /* \"#utility.yul\":4602:4608   */\n      dup4\n        /* \"#utility.yul\":4595:4600   */\n      dup3\n        /* \"#utility.yul\":4588:4609   */\n      mstore\n        /* \"#utility.yul\":4636:4640   */\n      0x20\n        /* \"#utility.yul\":4629:4634   */\n      dup3\n        /* \"#utility.yul\":4625:4641   */\n      add\n        /* \"#utility.yul\":4618:4641   */\n      swap1\n      pop\n        /* \"#utility.yul\":4689:4693   */\n      0x20\n        /* \"#utility.yul\":4681:4687   */\n      dup5\n        /* \"#utility.yul\":4677:4694   */\n      mul\n        /* \"#utility.yul\":4669:4675   */\n      dup4\n        /* \"#utility.yul\":4665:4695   */\n      add\n        /* \"#utility.yul\":4718:4721   */\n      dup6\n        /* \"#utility.yul\":4710:4716   */\n      dup2\n        /* \"#utility.yul\":4707:4722   */\n      gt\n        /* \"#utility.yul\":4704:4826   */\n      iszero\n      tag_146\n      jumpi\n        /* \"#utility.yul\":4737:4816   */\n      tag_147\n      tag_86\n      jump\t// in\n    tag_147:\n        /* \"#utility.yul\":4704:4826   */\n    tag_146:\n        /* \"#utility.yul\":4852:4858   */\n      dup4\n        /* \"#utility.yul\":4835:5055   */\n    tag_148:\n        /* \"#utility.yul\":4869:4875   */\n      dup2\n        /* \"#utility.yul\":4864:4867   */\n      dup2\n        /* \"#utility.yul\":4861:4876   */\n      lt\n        /* \"#utility.yul\":4835:5055   */\n      iszero\n      tag_150\n      jumpi\n        /* \"#utility.yul\":4944:4947   */\n      dup1\n        /* \"#utility.yul\":4973:5010   */\n      tag_151\n        /* \"#utility.yul\":5006:5009   */\n      dup9\n        /* \"#utility.yul\":4994:5004   */\n      dup3\n        /* \"#utility.yul\":4973:5010   */\n      tag_88\n      jump\t// in\n    tag_151:\n        /* \"#utility.yul\":4968:4971   */\n      dup5\n        /* \"#utility.yul\":4961:5011   */\n      mstore\n        /* \"#utility.yul\":5040:5044   */\n      0x20\n        /* \"#utility.yul\":5035:5038   */\n      dup5\n        /* \"#utility.yul\":5031:5045   */\n      add\n        /* \"#utility.yul\":5024:5045   */\n      swap4\n      pop\n        /* \"#utility.yul\":4911:5055   */\n      pop\n        /* \"#utility.yul\":4895:4899   */\n      0x20\n        /* \"#utility.yul\":4890:4893   */\n      dup2\n        /* \"#utility.yul\":4886:4900   */\n      add\n        /* \"#utility.yul\":4879:4900   */\n      swap1\n      pop\n        /* \"#utility.yul\":4835:5055   */\n      jump(tag_148)\n    tag_150:\n        /* \"#utility.yul\":4839:4860   */\n      pop\n        /* \"#utility.yul\":4453:5061   */\n      pop\n      pop\n        /* \"#utility.yul\":4351:5061   */\n      swap4\n      swap3\n      pop\n      pop\n      pop\n      jump\t// out\n        /* \"#utility.yul\":5084:5454   */\n    tag_90:\n        /* \"#utility.yul\":5155:5160   */\n      0x00\n        /* \"#utility.yul\":5204:5207   */\n      dup3\n        /* \"#utility.yul\":5197:5201   */\n      0x1f\n        /* \"#utility.yul\":5189:5195   */\n      dup4\n        /* \"#utility.yul\":5185:5202   */\n      add\n        /* \"#utility.yul\":5181:5208   */\n      slt\n        /* \"#utility.yul\":5171:5293   */\n      tag_153\n      jumpi\n        /* \"#utility.yul\":5212:5291   */\n      tag_154\n      tag_80\n      jump\t// in\n    tag_154:\n        /* \"#utility.yul\":5171:5293   */\n    tag_153:\n        /* \"#utility.yul\":5329:5335   */\n      dup2\n        /* \"#utility.yul\":5316:5336   */\n      calldataload\n        /* \"#utility.yul\":5354:5448   */\n      tag_155\n        /* \"#utility.yul\":5444:5447   */\n      dup5\n        /* \"#utility.yul\":5436:5442   */\n      dup3\n        /* \"#utility.yul\":5429:5433   */\n      0x20\n        /* \"#utility.yul\":5421:5427   */\n      dup7\n        /* \"#utility.yul\":5417:5434   */\n      add\n        /* \"#utility.yul\":5354:5448   */\n      tag_89\n      jump\t// in\n    tag_155:\n        /* \"#utility.yul\":5345:5448   */\n      swap2\n      pop\n        /* \"#utility.yul\":5161:5454   */\n      pop\n        /* \"#utility.yul\":5084:5454   */\n      swap3\n      swap2\n      pop\n      pop\n      jump\t// out\n        /* \"#utility.yul\":5460:5999   */\n    tag_19:\n        /* \"#utility.yul\":5544:5550   */\n      0x00\n        /* \"#utility.yul\":5593:5595   */\n      0x20\n        /* \"#utility.yul\":5581:5590   */\n      dup3\n        /* \"#utility.yul\":5572:5579   */\n      dup5\n        /* \"#utility.yul\":5568:5591   */\n      sub\n        /* \"#utility.yul\":5564:5596   */\n      slt\n        /* \"#utility.yul\":5561:5680   */\n      iszero\n      tag_157\n      jumpi\n        /* \"#utility.yul\":5599:5678   */\n      tag_158\n      tag_78\n      jump\t// in\n    tag_158:\n        /* \"#utility.yul\":5561:5680   */\n    tag_157:\n        /* \"#utility.yul\":5747:5748   */\n      0x00\n        /* \"#utility.yul\":5736:5745   */\n      dup3\n        /* \"#utility.yul\":5732:5749   */\n      add\n        /* \"#utility.yul\":5719:5750   */\n      calldataload\n        /* \"#utility.yul\":5777:5795   */\n      0xffffffffffffffff\n        /* \"#utility.yul\":5769:5775   */\n      dup2\n        /* \"#utility.yul\":5766:5796   */\n      gt\n        /* \"#utility.yul\":5763:5880   */\n      iszero\n      tag_159\n      jumpi\n        /* \"#utility.yul\":5799:5878   */\n      tag_160\n      tag_79\n      jump\t// in\n    tag_160:\n        /* \"#utility.yul\":5763:5880   */\n    tag_159:\n        /* \"#utility.yul\":5904:5982   */\n      tag_161\n        /* \"#utility.yul\":5974:5981   */\n      dup5\n        /* \"#utility.yul\":5965:5971   */\n      dup3\n        /* \"#utility.yul\":5954:5963   */\n      dup6\n        /* \"#utility.yul\":5950:5972   */\n      add\n        /* \"#utility.yul\":5904:5982   */\n      tag_90\n      jump\t// in\n    tag_161:\n        /* \"#utility.yul\":5894:5982   */\n      swap2\n      pop\n        /* \"#utility.yul\":5690:5992   */\n      pop\n        /* \"#utility.yul\":5460:5999   */\n      swap3\n      swap2\n      pop\n      pop\n      jump\t// out\n        /* \"#utility.yul\":6005:6479   */\n    tag_30:\n        /* \"#utility.yul\":6073:6079   */\n      0x00\n        /* \"#utility.yul\":6081:6087   */\n      dup1\n        /* \"#utility.yul\":6130:6132   */\n      0x40\n        /* \"#utility.yul\":6118:6127   */\n      dup4\n        /* \"#utility.yul\":6109:6116   */\n      dup6\n        /* \"#utility.yul\":6105:6128   */\n      sub\n        /* \"#utility.yul\":6101:6133   */\n      slt\n        /* \"#utility.yul\":6098:6217   */\n      iszero\n      tag_163\n      jumpi\n        /* \"#utility.yul\":6136:6215   */\n      tag_164\n      tag_78\n      jump\t// in\n    tag_164:\n        /* \"#utility.yul\":6098:6217   */\n    tag_163:\n        /* \"#utility.yul\":6256:6257   */\n      0x00\n        /* \"#utility.yul\":6281:6334   */\n      tag_165\n        /* \"#utility.yul\":6326:6333   */\n      dup6\n        /* \"#utility.yul\":6317:6323   */\n      dup3\n        /* \"#utility.yul\":6306:6315   */\n      dup7\n        /* \"#utility.yul\":6302:6324   */\n      add\n        /* \"#utility.yul\":6281:6334   */\n      tag_88\n      jump\t// in\n    tag_165:\n        /* \"#utility.yul\":6271:6334   */\n      swap3\n      pop\n        /* \"#utility.yul\":6227:6344   */\n      pop\n        /* \"#utility.yul\":6383:6385   */\n      0x20\n        /* \"#utility.yul\":6409:6462   */\n      tag_166\n        /* \"#utility.yul\":6454:6461   */\n      dup6\n        /* \"#utility.yul\":6445:6451   */\n      dup3\n        /* \"#utility.yul\":6434:6443   */\n      dup7\n        /* \"#utility.yul\":6430:6452   */\n      add\n        /* \"#utility.yul\":6409:6462   */\n      tag_88\n      jump\t// in\n    tag_166:\n        /* \"#utility.yul\":6399:6462   */\n      swap2\n      pop\n        /* \"#utility.yul\":6354:6472   */\n      pop\n        /* \"#utility.yul\":6005:6479   */\n      swap3\n      pop\n      swap3\n      swap1\n      pop\n      jump\t// out\n        /* \"#utility.yul\":6485:6665   */\n    tag_35:\n        /* \"#utility.yul\":6533:6610   */\n      0x4e487b7100000000000000000000000000000000000000000000000000000000\n        /* \"#utility.yul\":6530:6531   */\n      0x00\n        /* \"#utility.yul\":6523:6611   */\n      mstore\n        /* \"#utility.yul\":6630:6634   */\n      0x32\n        /* \"#utility.yul\":6627:6628   */\n      0x04\n        /* \"#utility.yul\":6620:6635   */\n      mstore\n        /* \"#utility.yul\":6654:6658   */\n      0x24\n        /* \"#utility.yul\":6651:6652   */\n      0x00\n        /* \"#utility.yul\":6644:6659   */\n      revert\n        /* \"#utility.yul\":6671:6840   */\n    tag_91:\n        /* \"#utility.yul\":6755:6766   */\n      0x00\n        /* \"#utility.yul\":6789:6795   */\n      dup3\n        /* \"#utility.yul\":6784:6787   */\n      dup3\n        /* \"#utility.yul\":6777:6796   */\n      mstore\n        /* \"#utility.yul\":6829:6833   */\n      0x20\n        /* \"#utility.yul\":6824:6827   */\n      dup3\n        /* \"#utility.yul\":6820:6834   */\n      add\n        /* \"#utility.yul\":6805:6834   */\n      swap1\n      pop\n        /* \"#utility.yul\":6671:6840   */\n      swap3\n      swap2\n      pop\n      pop\n      jump\t// out\n        /* \"#utility.yul\":6846:7008   */\n    tag_92:\n        /* \"#utility.yul\":6986:7000   */\n      0x6572726f72206e65774172720000000000000000000000000000000000000000\n        /* \"#utility.yul\":6982:6983   */\n      0x00\n        /* \"#utility.yul\":6974:6980   */\n      dup3\n        /* \"#utility.yul\":6970:6984   */\n      add\n        /* \"#utility.yul\":6963:7001   */\n      mstore\n        /* \"#utility.yul\":6846:7008   */\n      pop\n      jump\t// out\n        /* \"#utility.yul\":7014:7380   */\n    tag_93:\n        /* \"#utility.yul\":7156:7159   */\n      0x00\n        /* \"#utility.yul\":7177:7244   */\n      tag_171\n        /* \"#utility.yul\":7241:7243   */\n      0x0c\n        /* \"#utility.yul\":7236:7239   */\n      dup4\n        /* \"#utility.yul\":7177:7244   */\n      tag_91\n      jump\t// in\n    tag_171:\n        /* \"#utility.yul\":7170:7244   */\n      swap2\n      pop\n        /* \"#utility.yul\":7253:7346   */\n      tag_172\n        /* \"#utility.yul\":7342:7345   */\n      dup3\n        /* \"#utility.yul\":7253:7346   */\n      tag_92\n      jump\t// in\n    tag_172:\n        /* \"#utility.yul\":7371:7373   */\n      0x20\n        /* \"#utility.yul\":7366:7369   */\n      dup3\n        /* \"#utility.yul\":7362:7374   */\n      add\n        /* \"#utility.yul\":7355:7374   */\n      swap1\n      pop\n        /* \"#utility.yul\":7014:7380   */\n      swap2\n      swap1\n      pop\n      jump\t// out\n        /* \"#utility.yul\":7386:7805   */\n    tag_51:\n        /* \"#utility.yul\":7552:7556   */\n      0x00\n        /* \"#utility.yul\":7590:7592   */\n      0x20\n        /* \"#utility.yul\":7579:7588   */\n      dup3\n        /* \"#utility.yul\":7575:7593   */\n      add\n        /* \"#utility.yul\":7567:7593   */\n      swap1\n      pop\n        /* \"#utility.yul\":7639:7648   */\n      dup2\n        /* \"#utility.yul\":7633:7637   */\n      dup2\n        /* \"#utility.yul\":7629:7649   */\n      sub\n        /* \"#utility.yul\":7625:7626   */\n      0x00\n        /* \"#utility.yul\":7614:7623   */\n      dup4\n        /* \"#utility.yul\":7610:7627   */\n      add\n        /* \"#utility.yul\":7603:7650   */\n      mstore\n        /* \"#utility.yul\":7667:7798   */\n      tag_174\n        /* \"#utility.yul\":7793:7797   */\n      dup2\n        /* \"#utility.yul\":7667:7798   */\n      tag_93\n      jump\t// in\n    tag_174:\n        /* \"#utility.yul\":7659:7798   */\n      swap1\n      pop\n        /* \"#utility.yul\":7386:7805   */\n      swap2\n      swap1\n      pop\n      jump\t// out\n        /* \"#utility.yul\":7811:7993   */\n    tag_94:\n        /* \"#utility.yul\":7951:7985   */\n      0x20696e646578206f7574206f66202064617461206172726179206c656e677468\n        /* \"#utility.yul\":7947:7948   */\n      0x00\n        /* \"#utility.yul\":7939:7945   */\n      dup3\n        /* \"#utility.yul\":7935:7949   */\n      add\n        /* \"#utility.yul\":7928:7986   */\n      mstore\n        /* \"#utility.yul\":7811:7993   */\n      pop\n      jump\t// out\n        /* \"#utility.yul\":7999:8365   */\n    tag_95:\n        /* \"#utility.yul\":8141:8144   */\n      0x00\n        /* \"#utility.yul\":8162:8229   */\n      tag_177\n        /* \"#utility.yul\":8226:8228   */\n      0x20\n        /* \"#utility.yul\":8221:8224   */\n      dup4\n        /* \"#utility.yul\":8162:8229   */\n      tag_91\n      jump\t// in\n    tag_177:\n        /* \"#utility.yul\":8155:8229   */\n      swap2\n      pop\n        /* \"#utility.yul\":8238:8331   */\n      tag_178\n        /* \"#utility.yul\":8327:8330   */\n      dup3\n        /* \"#utility.yul\":8238:8331   */\n      tag_94\n      jump\t// in\n    tag_178:\n        /* \"#utility.yul\":8356:8358   */\n      0x20\n        /* \"#utility.yul\":8351:8354   */\n      dup3\n        /* \"#utility.yul\":8347:8359   */\n      add\n        /* \"#utility.yul\":8340:8359   */\n      swap1\n      pop\n        /* \"#utility.yul\":7999:8365   */\n      swap2\n      swap1\n      pop\n      jump\t// out\n        /* \"#utility.yul\":8371:8790   */\n    tag_57:\n        /* \"#utility.yul\":8537:8541   */\n      0x00\n        /* \"#utility.yul\":8575:8577   */\n      0x20\n        /* \"#utility.yul\":8564:8573   */\n      dup3\n        /* \"#utility.yul\":8560:8578   */\n      add\n        /* \"#utility.yul\":8552:8578   */\n      swap1\n      pop\n        /* \"#utility.yul\":8624:8633   */\n      dup2\n        /* \"#utility.yul\":8618:8622   */\n      dup2\n        /* \"#utility.yul\":8614:8634   */\n      sub\n        /* \"#utility.yul\":8610:8611   */\n      0x00\n        /* \"#utility.yul\":8599:8608   */\n      dup4\n        /* \"#utility.yul\":8595:8612   */\n      add\n        /* \"#utility.yul\":8588:8635   */\n      mstore\n        /* \"#utility.yul\":8652:8783   */\n      tag_180\n        /* \"#utility.yul\":8778:8782   */\n      dup2\n        /* \"#utility.yul\":8652:8783   */\n      tag_95\n      jump\t// in\n    tag_180:\n        /* \"#utility.yul\":8644:8783   */\n      swap1\n      pop\n        /* \"#utility.yul\":8371:8790   */\n      swap2\n      swap1\n      pop\n      jump\t// out\n\n    auxdata: 0xa2646970667358221220ffc2b1ddd7146d72298e0579fb6dca7b7a76792879f33f9ee9efe574cacd971064736f6c634300081a0033\n}\n",
				"bytecode": {
					"linkReferences": {},
					"object": "6080604052348015600e575f80fd5b5061078e8061001c5f395ff3fe608060405234801561000f575f80fd5b5060043610610060575f3560e01c80631aca9506146100645780633bc5de30146100825780637bc5bbbf146100a0578063aa44269d146100bc578063c104210b146100d8578063e6b80ce614610108575b5f80fd5b61006c610124565b604051610079919061034b565b60405180910390f35b61008a610146565b604051610097919061041b565b60405180910390f35b6100ba60048036038101906100b591906105c6565b61019c565b005b6100d660048036038101906100d191906105c6565b6101d8565b005b6100f260048036038101906100ed91906105c6565b6101f2565b6040516100ff919061041b565b60405180910390f35b610122600480360381019061011d919061060d565b610261565b005b5f805f815481106101385761013761064b565b5b905f5260205f200154905090565b6060600180548060200260200160405190810160405280929190818152602001828054801561019257602002820191905f5260205f20905b81548152602001906001019080831161017e575b5050505050905090565b805f90805190602001906101b19291906102cd565b505f6064815f815481106101c8576101c761064b565b5b905f5260205f2001819055505050565b80600190805190602001906101ee9291906102cd565b5050565b60605f825111610237576040517f08c379a000000000000000000000000000000000000000000000000000000000815260040161022e906106d2565b60405180910390fd5b6104d2825f8151811061024d5761024c61064b565b5b602002602001018181525050819050919050565b60018054905082106102a8576040517f08c379a000000000000000000000000000000000000000000000000000000000815260040161029f9061073a565b60405180910390fd5b80600183815481106102bd576102bc61064b565b5b905f5260205f2001819055505050565b828054828255905f5260205f20908101928215610307579160200282015b828111156103065782518255916020019190600101906102eb565b5b5090506103149190610318565b5090565b5b8082111561032f575f815f905550600101610319565b5090565b5f819050919050565b61034581610333565b82525050565b5f60208201905061035e5f83018461033c565b92915050565b5f81519050919050565b5f82825260208201905092915050565b5f819050602082019050919050565b61039681610333565b82525050565b5f6103a7838361038d565b60208301905092915050565b5f602082019050919050565b5f6103c982610364565b6103d3818561036e565b93506103de8361037e565b805f5b8381101561040e5781516103f5888261039c565b9750610400836103b3565b9250506001810190506103e1565b5085935050505092915050565b5f6020820190508181035f83015261043381846103bf565b905092915050565b5f604051905090565b5f80fd5b5f80fd5b5f80fd5b5f601f19601f8301169050919050565b7f4e487b71000000000000000000000000000000000000000000000000000000005f52604160045260245ffd5b61049682610450565b810181811067ffffffffffffffff821117156104b5576104b4610460565b5b80604052505050565b5f6104c761043b565b90506104d3828261048d565b919050565b5f67ffffffffffffffff8211156104f2576104f1610460565b5b602082029050602081019050919050565b5f80fd5b61051081610333565b811461051a575f80fd5b50565b5f8135905061052b81610507565b92915050565b5f61054361053e846104d8565b6104be565b9050808382526020820190506020840283018581111561056657610565610503565b5b835b8181101561058f578061057b888261051d565b845260208401935050602081019050610568565b5050509392505050565b5f82601f8301126105ad576105ac61044c565b5b81356105bd848260208601610531565b91505092915050565b5f602082840312156105db576105da610444565b5b5f82013567ffffffffffffffff8111156105f8576105f7610448565b5b61060484828501610599565b91505092915050565b5f806040838503121561062357610622610444565b5b5f6106308582860161051d565b92505060206106418582860161051d565b9150509250929050565b7f4e487b71000000000000000000000000000000000000000000000000000000005f52603260045260245ffd5b5f82825260208201905092915050565b7f6572726f72206e657741727200000000000000000000000000000000000000005f82015250565b5f6106bc600c83610678565b91506106c782610688565b602082019050919050565b5f6020820190508181035f8301526106e9816106b0565b9050919050565b7f20696e646578206f7574206f66202064617461206172726179206c656e6774685f82015250565b5f610724602083610678565b915061072f826106f0565b602082019050919050565b5f6020820190508181035f83015261075181610718565b905091905056fea2646970667358221220ffc2b1ddd7146d72298e0579fb6dca7b7a76792879f33f9ee9efe574cacd971064736f6c634300081a0033",
					"opcodes": "PUSH1 0x80 PUSH1 0x40 MSTORE CALLVALUE DUP1 ISZERO PUSH1 0xE JUMPI PUSH0 DUP1 REVERT JUMPDEST POP PUSH2 0x78E DUP1 PUSH2 0x1C PUSH0 CODECOPY PUSH0 RETURN INVALID PUSH1 0x80 PUSH1 0x40 MSTORE CALLVALUE DUP1 ISZERO PUSH2 0xF JUMPI PUSH0 DUP1 REVERT JUMPDEST POP PUSH1 0x4 CALLDATASIZE LT PUSH2 0x60 JUMPI PUSH0 CALLDATALOAD PUSH1 0xE0 SHR DUP1 PUSH4 0x1ACA9506 EQ PUSH2 0x64 JUMPI DUP1 PUSH4 0x3BC5DE30 EQ PUSH2 0x82 JUMPI DUP1 PUSH4 0x7BC5BBBF EQ PUSH2 0xA0 JUMPI DUP1 PUSH4 0xAA44269D EQ PUSH2 0xBC JUMPI DUP1 PUSH4 0xC104210B EQ PUSH2 0xD8 JUMPI DUP1 PUSH4 0xE6B80CE6 EQ PUSH2 0x108 JUMPI JUMPDEST PUSH0 DUP1 REVERT JUMPDEST PUSH2 0x6C PUSH2 0x124 JUMP JUMPDEST PUSH1 0x40 MLOAD PUSH2 0x79 SWAP2 SWAP1 PUSH2 0x34B JUMP JUMPDEST PUSH1 0x40 MLOAD DUP1 SWAP2 SUB SWAP1 RETURN JUMPDEST PUSH2 0x8A PUSH2 0x146 JUMP JUMPDEST PUSH1 0x40 MLOAD PUSH2 0x97 SWAP2 SWAP1 PUSH2 0x41B JUMP JUMPDEST PUSH1 0x40 MLOAD DUP1 SWAP2 SUB SWAP1 RETURN JUMPDEST PUSH2 0xBA PUSH1 0x4 DUP1 CALLDATASIZE SUB DUP2 ADD SWAP1 PUSH2 0xB5 SWAP2 SWAP1 PUSH2 0x5C6 JUMP JUMPDEST PUSH2 0x19C JUMP JUMPDEST STOP JUMPDEST PUSH2 0xD6 PUSH1 0x4 DUP1 CALLDATASIZE SUB DUP2 ADD SWAP1 PUSH2 0xD1 SWAP2 SWAP1 PUSH2 0x5C6 JUMP JUMPDEST PUSH2 0x1D8 JUMP JUMPDEST STOP JUMPDEST PUSH2 0xF2 PUSH1 0x4 DUP1 CALLDATASIZE SUB DUP2 ADD SWAP1 PUSH2 0xED SWAP2 SWAP1 PUSH2 0x5C6 JUMP JUMPDEST PUSH2 0x1F2 JUMP JUMPDEST PUSH1 0x40 MLOAD PUSH2 0xFF SWAP2 SWAP1 PUSH2 0x41B JUMP JUMPDEST PUSH1 0x40 MLOAD DUP1 SWAP2 SUB SWAP1 RETURN JUMPDEST PUSH2 0x122 PUSH1 0x4 DUP1 CALLDATASIZE SUB DUP2 ADD SWAP1 PUSH2 0x11D SWAP2 SWAP1 PUSH2 0x60D JUMP JUMPDEST PUSH2 0x261 JUMP JUMPDEST STOP JUMPDEST PUSH0 DUP1 PUSH0 DUP2 SLOAD DUP2 LT PUSH2 0x138 JUMPI PUSH2 0x137 PUSH2 0x64B JUMP JUMPDEST JUMPDEST SWAP1 PUSH0 MSTORE PUSH1 0x20 PUSH0 KECCAK256 ADD SLOAD SWAP1 POP SWAP1 JUMP JUMPDEST PUSH1 0x60 PUSH1 0x1 DUP1 SLOAD DUP1 PUSH1 0x20 MUL PUSH1 0x20 ADD PUSH1 0x40 MLOAD SWAP1 DUP2 ADD PUSH1 0x40 MSTORE DUP1 SWAP3 SWAP2 SWAP1 DUP2 DUP2 MSTORE PUSH1 0x20 ADD DUP3 DUP1 SLOAD DUP1 ISZERO PUSH2 0x192 JUMPI PUSH1 0x20 MUL DUP3 ADD SWAP2 SWAP1 PUSH0 MSTORE PUSH1 0x20 PUSH0 KECCAK256 SWAP1 JUMPDEST DUP2 SLOAD DUP2 MSTORE PUSH1 0x20 ADD SWAP1 PUSH1 0x1 ADD SWAP1 DUP1 DUP4 GT PUSH2 0x17E JUMPI JUMPDEST POP POP POP POP POP SWAP1 POP SWAP1 JUMP JUMPDEST DUP1 PUSH0 SWAP1 DUP1 MLOAD SWAP1 PUSH1 0x20 ADD SWAP1 PUSH2 0x1B1 SWAP3 SWAP2 SWAP1 PUSH2 0x2CD JUMP JUMPDEST POP PUSH0 PUSH1 0x64 DUP2 PUSH0 DUP2 SLOAD DUP2 LT PUSH2 0x1C8 JUMPI PUSH2 0x1C7 PUSH2 0x64B JUMP JUMPDEST JUMPDEST SWAP1 PUSH0 MSTORE PUSH1 0x20 PUSH0 KECCAK256 ADD DUP2 SWAP1 SSTORE POP POP POP JUMP JUMPDEST DUP1 PUSH1 0x1 SWAP1 DUP1 MLOAD SWAP1 PUSH1 0x20 ADD SWAP1 PUSH2 0x1EE SWAP3 SWAP2 SWAP1 PUSH2 0x2CD JUMP JUMPDEST POP POP JUMP JUMPDEST PUSH1 0x60 PUSH0 DUP3 MLOAD GT PUSH2 0x237 JUMPI PUSH1 0x40 MLOAD PUSH32 0x8C379A000000000000000000000000000000000000000000000000000000000 DUP2 MSTORE PUSH1 0x4 ADD PUSH2 0x22E SWAP1 PUSH2 0x6D2 JUMP JUMPDEST PUSH1 0x40 MLOAD DUP1 SWAP2 SUB SWAP1 REVERT JUMPDEST PUSH2 0x4D2 DUP3 PUSH0 DUP2 MLOAD DUP2 LT PUSH2 0x24D JUMPI PUSH2 0x24C PUSH2 0x64B JUMP JUMPDEST JUMPDEST PUSH1 0x20 MUL PUSH1 0x20 ADD ADD DUP2 DUP2 MSTORE POP POP DUP2 SWAP1 POP SWAP2 SWAP1 POP JUMP JUMPDEST PUSH1 0x1 DUP1 SLOAD SWAP1 POP DUP3 LT PUSH2 0x2A8 JUMPI PUSH1 0x40 MLOAD PUSH32 0x8C379A000000000000000000000000000000000000000000000000000000000 DUP2 MSTORE PUSH1 0x4 ADD PUSH2 0x29F SWAP1 PUSH2 0x73A JUMP JUMPDEST PUSH1 0x40 MLOAD DUP1 SWAP2 SUB SWAP1 REVERT JUMPDEST DUP1 PUSH1 0x1 DUP4 DUP2 SLOAD DUP2 LT PUSH2 0x2BD JUMPI PUSH2 0x2BC PUSH2 0x64B JUMP JUMPDEST JUMPDEST SWAP1 PUSH0 MSTORE PUSH1 0x20 PUSH0 KECCAK256 ADD DUP2 SWAP1 SSTORE POP POP POP JUMP JUMPDEST DUP3 DUP1 SLOAD DUP3 DUP3 SSTORE SWAP1 PUSH0 MSTORE PUSH1 0x20 PUSH0 KECCAK256 SWAP1 DUP2 ADD SWAP3 DUP3 ISZERO PUSH2 0x307 JUMPI SWAP2 PUSH1 0x20 MUL DUP3 ADD JUMPDEST DUP3 DUP2 GT ISZERO PUSH2 0x306 JUMPI DUP3 MLOAD DUP3 SSTORE SWAP2 PUSH1 0x20 ADD SWAP2 SWAP1 PUSH1 0x1 ADD SWAP1 PUSH2 0x2EB JUMP JUMPDEST JUMPDEST POP SWAP1 POP PUSH2 0x314 SWAP2 SWAP1 PUSH2 0x318 JUMP JUMPDEST POP SWAP1 JUMP JUMPDEST JUMPDEST DUP1 DUP3 GT ISZERO PUSH2 0x32F JUMPI PUSH0 DUP2 PUSH0 SWAP1 SSTORE POP PUSH1 0x1 ADD PUSH2 0x319 JUMP JUMPDEST POP SWAP1 JUMP JUMPDEST PUSH0 DUP2 SWAP1 POP SWAP2 SWAP1 POP JUMP JUMPDEST PUSH2 0x345 DUP2 PUSH2 0x333 JUMP JUMPDEST DUP3 MSTORE POP POP JUMP JUMPDEST PUSH0 PUSH1 0x20 DUP3 ADD SWAP1 POP PUSH2 0x35E PUSH0 DUP4 ADD DUP5 PUSH2 0x33C JUMP JUMPDEST SWAP3 SWAP2 POP POP JUMP JUMPDEST PUSH0 DUP2 MLOAD SWAP1 POP SWAP2 SWAP1 POP JUMP JUMPDEST PUSH0 DUP3 DUP3 MSTORE PUSH1 0x20 DUP3 ADD SWAP1 POP SWAP3 SWAP2 POP POP JUMP JUMPDEST PUSH0 DUP2 SWAP1 POP PUSH1 0x20 DUP3 ADD SWAP1 POP SWAP2 SWAP1 POP JUMP JUMPDEST PUSH2 0x396 DUP2 PUSH2 0x333 JUMP JUMPDEST DUP3 MSTORE POP POP JUMP JUMPDEST PUSH0 PUSH2 0x3A7 DUP4 DUP4 PUSH2 0x38D JUMP JUMPDEST PUSH1 0x20 DUP4 ADD SWAP1 POP SWAP3 SWAP2 POP POP JUMP JUMPDEST PUSH0 PUSH1 0x20 DUP3 ADD SWAP1 POP SWAP2 SWAP1 POP JUMP JUMPDEST PUSH0 PUSH2 0x3C9 DUP3 PUSH2 0x364 JUMP JUMPDEST PUSH2 0x3D3 DUP2 DUP6 PUSH2 0x36E JUMP JUMPDEST SWAP4 POP PUSH2 0x3DE DUP4 PUSH2 0x37E JUMP JUMPDEST DUP1 PUSH0 JUMPDEST DUP4 DUP2 LT ISZERO PUSH2 0x40E JUMPI DUP2 MLOAD PUSH2 0x3F5 DUP9 DUP3 PUSH2 0x39C JUMP JUMPDEST SWAP8 POP PUSH2 0x400 DUP4 PUSH2 0x3B3 JUMP JUMPDEST SWAP3 POP POP PUSH1 0x1 DUP2 ADD SWAP1 POP PUSH2 0x3E1 JUMP JUMPDEST POP DUP6 SWAP4 POP POP POP POP SWAP3 SWAP2 POP POP JUMP JUMPDEST PUSH0 PUSH1 0x20 DUP3 ADD SWAP1 POP DUP2 DUP2 SUB PUSH0 DUP4 ADD MSTORE PUSH2 0x433 DUP2 DUP5 PUSH2 0x3BF JUMP JUMPDEST SWAP1 POP SWAP3 SWAP2 POP POP JUMP JUMPDEST PUSH0 PUSH1 0x40 MLOAD SWAP1 POP SWAP1 JUMP JUMPDEST PUSH0 DUP1 REVERT JUMPDEST PUSH0 DUP1 REVERT JUMPDEST PUSH0 DUP1 REVERT JUMPDEST PUSH0 PUSH1 0x1F NOT PUSH1 0x1F DUP4 ADD AND SWAP1 POP SWAP2 SWAP1 POP JUMP JUMPDEST PUSH32 0x4E487B7100000000000000000000000000000000000000000000000000000000 PUSH0 MSTORE PUSH1 0x41 PUSH1 0x4 MSTORE PUSH1 0x24 PUSH0 REVERT JUMPDEST PUSH2 0x496 DUP3 PUSH2 0x450 JUMP JUMPDEST DUP2 ADD DUP2 DUP2 LT PUSH8 0xFFFFFFFFFFFFFFFF DUP3 GT OR ISZERO PUSH2 0x4B5 JUMPI PUSH2 0x4B4 PUSH2 0x460 JUMP JUMPDEST JUMPDEST DUP1 PUSH1 0x40 MSTORE POP POP POP JUMP JUMPDEST PUSH0 PUSH2 0x4C7 PUSH2 0x43B JUMP JUMPDEST SWAP1 POP PUSH2 0x4D3 DUP3 DUP3 PUSH2 0x48D JUMP JUMPDEST SWAP2 SWAP1 POP JUMP JUMPDEST PUSH0 PUSH8 0xFFFFFFFFFFFFFFFF DUP3 GT ISZERO PUSH2 0x4F2 JUMPI PUSH2 0x4F1 PUSH2 0x460 JUMP JUMPDEST JUMPDEST PUSH1 0x20 DUP3 MUL SWAP1 POP PUSH1 0x20 DUP2 ADD SWAP1 POP SWAP2 SWAP1 POP JUMP JUMPDEST PUSH0 DUP1 REVERT JUMPDEST PUSH2 0x510 DUP2 PUSH2 0x333 JUMP JUMPDEST DUP2 EQ PUSH2 0x51A JUMPI PUSH0 DUP1 REVERT JUMPDEST POP JUMP JUMPDEST PUSH0 DUP2 CALLDATALOAD SWAP1 POP PUSH2 0x52B DUP2 PUSH2 0x507 JUMP JUMPDEST SWAP3 SWAP2 POP POP JUMP JUMPDEST PUSH0 PUSH2 0x543 PUSH2 0x53E DUP5 PUSH2 0x4D8 JUMP JUMPDEST PUSH2 0x4BE JUMP JUMPDEST SWAP1 POP DUP1 DUP4 DUP3 MSTORE PUSH1 0x20 DUP3 ADD SWAP1 POP PUSH1 0x20 DUP5 MUL DUP4 ADD DUP6 DUP2 GT ISZERO PUSH2 0x566 JUMPI PUSH2 0x565 PUSH2 0x503 JUMP JUMPDEST JUMPDEST DUP4 JUMPDEST DUP2 DUP2 LT ISZERO PUSH2 0x58F JUMPI DUP1 PUSH2 0x57B DUP9 DUP3 PUSH2 0x51D JUMP JUMPDEST DUP5 MSTORE PUSH1 0x20 DUP5 ADD SWAP4 POP POP PUSH1 0x20 DUP2 ADD SWAP1 POP PUSH2 0x568 JUMP JUMPDEST POP POP POP SWAP4 SWAP3 POP POP POP JUMP JUMPDEST PUSH0 DUP3 PUSH1 0x1F DUP4 ADD SLT PUSH2 0x5AD JUMPI PUSH2 0x5AC PUSH2 0x44C JUMP JUMPDEST JUMPDEST DUP2 CALLDATALOAD PUSH2 0x5BD DUP5 DUP3 PUSH1 0x20 DUP7 ADD PUSH2 0x531 JUMP JUMPDEST SWAP2 POP POP SWAP3 SWAP2 POP POP JUMP JUMPDEST PUSH0 PUSH1 0x20 DUP3 DUP5 SUB SLT ISZERO PUSH2 0x5DB JUMPI PUSH2 0x5DA PUSH2 0x444 JUMP JUMPDEST JUMPDEST PUSH0 DUP3 ADD CALLDATALOAD PUSH8 0xFFFFFFFFFFFFFFFF DUP2 GT ISZERO PUSH2 0x5F8 JUMPI PUSH2 0x5F7 PUSH2 0x448 JUMP JUMPDEST JUMPDEST PUSH2 0x604 DUP5 DUP3 DUP6 ADD PUSH2 0x599 JUMP JUMPDEST SWAP2 POP POP SWAP3 SWAP2 POP POP JUMP JUMPDEST PUSH0 DUP1 PUSH1 0x40 DUP4 DUP6 SUB SLT ISZERO PUSH2 0x623 JUMPI PUSH2 0x622 PUSH2 0x444 JUMP JUMPDEST JUMPDEST PUSH0 PUSH2 0x630 DUP6 DUP3 DUP7 ADD PUSH2 0x51D JUMP JUMPDEST SWAP3 POP POP PUSH1 0x20 PUSH2 0x641 DUP6 DUP3 DUP7 ADD PUSH2 0x51D JUMP JUMPDEST SWAP2 POP POP SWAP3 POP SWAP3 SWAP1 POP JUMP JUMPDEST PUSH32 0x4E487B7100000000000000000000000000000000000000000000000000000000 PUSH0 MSTORE PUSH1 0x32 PUSH1 0x4 MSTORE PUSH1 0x24 PUSH0 REVERT JUMPDEST PUSH0 DUP3 DUP3 MSTORE PUSH1 0x20 DUP3 ADD SWAP1 POP SWAP3 SWAP2 POP POP JUMP JUMPDEST PUSH32 0x6572726F72206E65774172720000000000000000000000000000000000000000 PUSH0 DUP3 ADD MSTORE POP JUMP JUMPDEST PUSH0 PUSH2 0x6BC PUSH1 0xC DUP4 PUSH2 0x678 JUMP JUMPDEST SWAP2 POP PUSH2 0x6C7 DUP3 PUSH2 0x688 JUMP JUMPDEST PUSH1 0x20 DUP3 ADD SWAP1 POP SWAP2 SWAP1 POP JUMP JUMPDEST PUSH0 PUSH1 0x20 DUP3 ADD SWAP1 POP DUP2 DUP2 SUB PUSH0 DUP4 ADD MSTORE PUSH2 0x6E9 DUP2 PUSH2 0x6B0 JUMP JUMPDEST SWAP1 POP SWAP2 SWAP1 POP JUMP JUMPDEST PUSH32 0x20696E646578206F7574206F66202064617461206172726179206C656E677468 PUSH0 DUP3 ADD MSTORE POP JUMP JUMPDEST PUSH0 PUSH2 0x724 PUSH1 0x20 DUP4 PUSH2 0x678 JUMP JUMPDEST SWAP2 POP PUSH2 0x72F DUP3 PUSH2 0x6F0 JUMP JUMPDEST PUSH1 0x20 DUP3 ADD SWAP1 POP SWAP2 SWAP1 POP JUMP JUMPDEST PUSH0 PUSH1 0x20 DUP3 ADD SWAP1 POP DUP2 DUP2 SUB PUSH0 DUP4 ADD MSTORE PUSH2 0x751 DUP2 PUSH2 0x718 JUMP JUMPDEST SWAP1 POP SWAP2 SWAP1 POP JUMP INVALID LOG2 PUSH5 0x6970667358 0x22 SLT KECCAK256 SELFDESTRUCT 0xC2 0xB1 0xDD 0xD7 EQ PUSH14 0x72298E0579FB6DCA7B7A76792879 RETURN EXTCODEHASH SWAP15 0xE9 0xEF 0xE5 PUSH21 0xCACD971064736F6C634300081A0033000000000000 "
				},
				"gasEstimates": {
					"creation": {
						"codeDepositCost": "386800",
						"executionCost": "422",
						"totalCost": "387222"
					},
					"external": {
						"f(uint256[])": "infinite",
						"getData()": "infinite",
						"modifyMemoryData(uint256[])": "infinite",
						"modifyStorageData(uint256,uint256)": "infinite",
						"printx()": "4587",
						"updateData(uint256[])": "infinite"
					}
				},
				"methodIdentifiers": {
					"f(uint256[])": "7bc5bbbf",
					"getData()": "3bc5de30",
					"modifyMemoryData(uint256[])": "c104210b",
					"modifyStorageData(uint256,uint256)": "e6b80ce6",
					"printx()": "1aca9506",
					"updateData(uint256[])": "aa44269d"
				}
			},
			"storageLayout": {
				"storage": [
					{
						"astId": 4,
						"contract": "solidity-study/solidity-1base/6/ReferenceDemo.sol:ReferenceDemo",
						"label": "x",
						"offset": 0,
						"slot": "0",
						"type": "t_array(t_uint256)dyn_storage"
					},
					{
						"astId": 41,
						"contract": "solidity-study/solidity-1base/6/ReferenceDemo.sol:ReferenceDemo",
						"label": "data",
						"offset": 0,
						"slot": "1",
						"type": "t_array(t_uint256)dyn_storage"
					}
				],
				"types": {
					"t_array(t_uint256)dyn_storage": {
						"base": "t_uint256",
						"encoding": "dynamic_array",
						"label": "uint256[]",
						"numberOfBytes": "32"
					},
					"t_uint256": {
						"encoding": "inplace",
						"label": "uint256",
						"numberOfBytes": "32"
					}
				}
			},
			"userdoc": {
				"kind": "user",
				"methods": {},
				"version": 1
			}
		}
	}
}