{
	"data": {
		"bytecode": {
			"linkReferences": {},
			"object": "60806040525f6001555f6002553480156016575f80fd5b506110eb806100245f395ff3fe608060405234801561000f575f80fd5b5060043610610091575f3560e01c80639dfc3dd1116100645780639dfc3dd114610107578063b9db15b414610123578063c62d01b014610155578063d09ef24114610173578063e4c79a4a146101a357610091565b8063125b0b3414610095578063163de5e5146100b157806379109baa146100cf57806382367b2d146100eb575b5f80fd5b6100af60048036038101906100aa91906108bf565b6101d8565b005b6100b961025e565b6040516100c6919061093a565b60405180910390f35b6100e960048036038101906100e49190610953565b610264565b005b61010560048036038101906101009190610953565b610437565b005b610121600480360381019061011c9190610953565b610458565b005b61013d60048036038101906101389190610991565b610479565b60405161014c93929190610a1c565b60405180910390f35b61015d610536565b60405161016a919061093a565b60405180910390f35b61018d60048036038101906101889190610991565b61053c565b60405161019a9190610b1f565b60405180910390f35b6101bd60048036038101906101b89190610991565b61063d565b6040516101cf96959493929190610b47565b60405180910390f35b60015f8154809291906101ea90610bd3565b919050555060405180608001604052806001548152602001848152602001838152602001828152505f8060015481526020019081526020015f205f820151815f015560208201518160010190816102419190610e14565b506040820151816002015560608201518160030155905050505050565b60025481565b5f8211801561027557506001548211155b6102b4576040517f08c379a00000000000000000000000000000000000000000000000000000000081526004016102ab90610f2d565b60405180910390fd5b5f805f8481526020019081526020015f2090505f821180156102da575080600301548211155b610319576040517f08c379a000000000000000000000000000000000000000000000000000000000815260040161031090610fbb565b60405180910390fd5b60025f81548092919061032b90610bd3565b91905055505f8160020154836103419190610fd9565b90505f6040518060c0016040528060025481526020018681526020013373ffffffffffffffffffffffffffffffffffffffff1681526020018581526020018381526020014281525090508060035f60025481526020019081526020015f205f820151815f0155602082015181600101556040820151816002015f6101000a81548173ffffffffffffffffffffffffffffffffffffffff021916908373ffffffffffffffffffffffffffffffffffffffff160217905550606082015181600301556080820151816004015560a08201518160050155905050838360030154610428919061101a565b83600301819055505050505050565b5f805f8481526020019081526020015f209050818160020181905550505050565b5f805f8481526020019081526020015f209050818160030181905550505050565b60605f805f805f8681526020019081526020015f20905080600101816002015482600301548280546104aa90610c47565b80601f01602080910402602001604051908101604052809291908181526020018280546104d690610c47565b80156105215780601f106104f857610100808354040283529160200191610521565b820191905f5260205f20905b81548152906001019060200180831161050457829003601f168201915b50505050509250935093509350509193909250565b60015481565b6105446106f9565b5f8211801561055557506002548211155b610594576040517f08c379a000000000000000000000000000000000000000000000000000000000815260040161058b90611097565b60405180910390fd5b60035f8381526020019081526020015f206040518060c00160405290815f820154815260200160018201548152602001600282015f9054906101000a900473ffffffffffffffffffffffffffffffffffffffff1673ffffffffffffffffffffffffffffffffffffffff1673ffffffffffffffffffffffffffffffffffffffff16815260200160038201548152602001600482015481526020016005820154815250509050919050565b5f805f805f805f8711801561065457506002548711155b610693576040517f08c379a000000000000000000000000000000000000000000000000000000000815260040161068a90611097565b60405180910390fd5b5f60035f8981526020019081526020015f209050805f01548160010154826002015f9054906101000a900473ffffffffffffffffffffffffffffffffffffffff168360030154846004015485600501549650965096509650965096505091939550919395565b6040518060c001604052805f81526020015f81526020015f73ffffffffffffffffffffffffffffffffffffffff1681526020015f81526020015f81526020015f81525090565b5f604051905090565b5f80fd5b5f80fd5b5f80fd5b5f80fd5b5f601f19601f8301169050919050565b7f4e487b71000000000000000000000000000000000000000000000000000000005f52604160045260245ffd5b61079e82610758565b810181811067ffffffffffffffff821117156107bd576107bc610768565b5b80604052505050565b5f6107cf61073f565b90506107db8282610795565b919050565b5f67ffffffffffffffff8211156107fa576107f9610768565b5b61080382610758565b9050602081019050919050565b828183375f83830152505050565b5f61083061082b846107e0565b6107c6565b90508281526020810184848401111561084c5761084b610754565b5b610857848285610810565b509392505050565b5f82601f83011261087357610872610750565b5b813561088384826020860161081e565b91505092915050565b5f819050919050565b61089e8161088c565b81146108a8575f80fd5b50565b5f813590506108b981610895565b92915050565b5f805f606084860312156108d6576108d5610748565b5b5f84013567ffffffffffffffff8111156108f3576108f261074c565b5b6108ff8682870161085f565b9350506020610910868287016108ab565b9250506040610921868287016108ab565b9150509250925092565b6109348161088c565b82525050565b5f60208201905061094d5f83018461092b565b92915050565b5f806040838503121561096957610968610748565b5b5f610976858286016108ab565b9250506020610987858286016108ab565b9150509250929050565b5f602082840312156109a6576109a5610748565b5b5f6109b3848285016108ab565b91505092915050565b5f81519050919050565b5f82825260208201905092915050565b8281835e5f83830152505050565b5f6109ee826109bc565b6109f881856109c6565b9350610a088185602086016109d6565b610a1181610758565b840191505092915050565b5f6060820190508181035f830152610a3481866109e4565b9050610a43602083018561092b565b610a50604083018461092b565b949350505050565b610a618161088c565b82525050565b5f73ffffffffffffffffffffffffffffffffffffffff82169050919050565b5f610a9082610a67565b9050919050565b610aa081610a86565b82525050565b60c082015f820151610aba5f850182610a58565b506020820151610acd6020850182610a58565b506040820151610ae06040850182610a97565b506060820151610af36060850182610a58565b506080820151610b066080850182610a58565b5060a0820151610b1960a0850182610a58565b50505050565b5f60c082019050610b325f830184610aa6565b92915050565b610b4181610a86565b82525050565b5f60c082019050610b5a5f83018961092b565b610b67602083018861092b565b610b746040830187610b38565b610b81606083018661092b565b610b8e608083018561092b565b610b9b60a083018461092b565b979650505050505050565b7f4e487b71000000000000000000000000000000000000000000000000000000005f52601160045260245ffd5b5f610bdd8261088c565b91507fffffffffffffffffffffffffffffffffffffffffffffffffffffffffffffffff8203610c0f57610c0e610ba6565b5b600182019050919050565b7f4e487b71000000000000000000000000000000000000000000000000000000005f52602260045260245ffd5b5f6002820490506001821680610c5e57607f821691505b602082108103610c7157610c70610c1a565b5b50919050565b5f819050815f5260205f209050919050565b5f6020601f8301049050919050565b5f82821b905092915050565b5f60088302610cd37fffffffffffffffffffffffffffffffffffffffffffffffffffffffffffffffff82610c98565b610cdd8683610c98565b95508019841693508086168417925050509392505050565b5f819050919050565b5f610d18610d13610d0e8461088c565b610cf5565b61088c565b9050919050565b5f819050919050565b610d3183610cfe565b610d45610d3d82610d1f565b848454610ca4565b825550505050565b5f90565b610d59610d4d565b610d64818484610d28565b505050565b5b81811015610d8757610d7c5f82610d51565b600181019050610d6a565b5050565b601f821115610dcc57610d9d81610c77565b610da684610c89565b81016020851015610db5578190505b610dc9610dc185610c89565b830182610d69565b50505b505050565b5f82821c905092915050565b5f610dec5f1984600802610dd1565b1980831691505092915050565b5f610e048383610ddd565b9150826002028217905092915050565b610e1d826109bc565b67ffffffffffffffff811115610e3657610e35610768565b5b610e408254610c47565b610e4b828285610d8b565b5f60209050601f831160018114610e7c575f8415610e6a578287015190505b610e748582610df9565b865550610edb565b601f198416610e8a86610c77565b5f5b82811015610eb157848901518255600182019150602085019450602081019050610e8c565b86831015610ece5784890151610eca601f891682610ddd565b8355505b6001600288020188555050505b505050505050565b7f6572726f722070726f64756374496420696e70757400000000000000000000005f82015250565b5f610f176015836109c6565b9150610f2282610ee3565b602082019050919050565b5f6020820190508181035f830152610f4481610f0b565b9050919050565b7f7175616e746974792069732067726561746572207468656e2070726f647563745f8201527f2073746f636b0000000000000000000000000000000000000000000000000000602082015250565b5f610fa56026836109c6565b9150610fb082610f4b565b604082019050919050565b5f6020820190508181035f830152610fd281610f99565b9050919050565b5f610fe38261088c565b9150610fee8361088c565b9250828202610ffc8161088c565b9150828204841483151761101357611012610ba6565b5b5092915050565b5f6110248261088c565b915061102f8361088c565b925082820390508181111561104757611046610ba6565b5b92915050565b7f6572726f72205f6f72646572496420696e7075740000000000000000000000005f82015250565b5f6110816014836109c6565b915061108c8261104d565b602082019050919050565b5f6020820190508181035f8301526110ae81611075565b905091905056fea2646970667358221220590373291bb911f39cb530dfdb0390a60c3c86b556014175a002542336e60f5764736f6c634300081a0033",
			"opcodes": "PUSH1 0x80 PUSH1 0x40 MSTORE PUSH0 PUSH1 0x1 SSTORE PUSH0 PUSH1 0x2 SSTORE CALLVALUE DUP1 ISZERO PUSH1 0x16 JUMPI PUSH0 DUP1 REVERT JUMPDEST POP PUSH2 0x10EB DUP1 PUSH2 0x24 PUSH0 CODECOPY PUSH0 RETURN INVALID PUSH1 0x80 PUSH1 0x40 MSTORE CALLVALUE DUP1 ISZERO PUSH2 0xF JUMPI PUSH0 DUP1 REVERT JUMPDEST POP PUSH1 0x4 CALLDATASIZE LT PUSH2 0x91 JUMPI PUSH0 CALLDATALOAD PUSH1 0xE0 SHR DUP1 PUSH4 0x9DFC3DD1 GT PUSH2 0x64 JUMPI DUP1 PUSH4 0x9DFC3DD1 EQ PUSH2 0x107 JUMPI DUP1 PUSH4 0xB9DB15B4 EQ PUSH2 0x123 JUMPI DUP1 PUSH4 0xC62D01B0 EQ PUSH2 0x155 JUMPI DUP1 PUSH4 0xD09EF241 EQ PUSH2 0x173 JUMPI DUP1 PUSH4 0xE4C79A4A EQ PUSH2 0x1A3 JUMPI PUSH2 0x91 JUMP JUMPDEST DUP1 PUSH4 0x125B0B34 EQ PUSH2 0x95 JUMPI DUP1 PUSH4 0x163DE5E5 EQ PUSH2 0xB1 JUMPI DUP1 PUSH4 0x79109BAA EQ PUSH2 0xCF JUMPI DUP1 PUSH4 0x82367B2D EQ PUSH2 0xEB JUMPI JUMPDEST PUSH0 DUP1 REVERT JUMPDEST PUSH2 0xAF PUSH1 0x4 DUP1 CALLDATASIZE SUB DUP2 ADD SWAP1 PUSH2 0xAA SWAP2 SWAP1 PUSH2 0x8BF JUMP JUMPDEST PUSH2 0x1D8 JUMP JUMPDEST STOP JUMPDEST PUSH2 0xB9 PUSH2 0x25E JUMP JUMPDEST PUSH1 0x40 MLOAD PUSH2 0xC6 SWAP2 SWAP1 PUSH2 0x93A JUMP JUMPDEST PUSH1 0x40 MLOAD DUP1 SWAP2 SUB SWAP1 RETURN JUMPDEST PUSH2 0xE9 PUSH1 0x4 DUP1 CALLDATASIZE SUB DUP2 ADD SWAP1 PUSH2 0xE4 SWAP2 SWAP1 PUSH2 0x953 JUMP JUMPDEST PUSH2 0x264 JUMP JUMPDEST STOP JUMPDEST PUSH2 0x105 PUSH1 0x4 DUP1 CALLDATASIZE SUB DUP2 ADD SWAP1 PUSH2 0x100 SWAP2 SWAP1 PUSH2 0x953 JUMP JUMPDEST PUSH2 0x437 JUMP JUMPDEST STOP JUMPDEST PUSH2 0x121 PUSH1 0x4 DUP1 CALLDATASIZE SUB DUP2 ADD SWAP1 PUSH2 0x11C SWAP2 SWAP1 PUSH2 0x953 JUMP JUMPDEST PUSH2 0x458 JUMP JUMPDEST STOP JUMPDEST PUSH2 0x13D PUSH1 0x4 DUP1 CALLDATASIZE SUB DUP2 ADD SWAP1 PUSH2 0x138 SWAP2 SWAP1 PUSH2 0x991 JUMP JUMPDEST PUSH2 0x479 JUMP JUMPDEST PUSH1 0x40 MLOAD PUSH2 0x14C SWAP4 SWAP3 SWAP2 SWAP1 PUSH2 0xA1C JUMP JUMPDEST PUSH1 0x40 MLOAD DUP1 SWAP2 SUB SWAP1 RETURN JUMPDEST PUSH2 0x15D PUSH2 0x536 JUMP JUMPDEST PUSH1 0x40 MLOAD PUSH2 0x16A SWAP2 SWAP1 PUSH2 0x93A JUMP JUMPDEST PUSH1 0x40 MLOAD DUP1 SWAP2 SUB SWAP1 RETURN JUMPDEST PUSH2 0x18D PUSH1 0x4 DUP1 CALLDATASIZE SUB DUP2 ADD SWAP1 PUSH2 0x188 SWAP2 SWAP1 PUSH2 0x991 JUMP JUMPDEST PUSH2 0x53C JUMP JUMPDEST PUSH1 0x40 MLOAD PUSH2 0x19A SWAP2 SWAP1 PUSH2 0xB1F JUMP JUMPDEST PUSH1 0x40 MLOAD DUP1 SWAP2 SUB SWAP1 RETURN JUMPDEST PUSH2 0x1BD PUSH1 0x4 DUP1 CALLDATASIZE SUB DUP2 ADD SWAP1 PUSH2 0x1B8 SWAP2 SWAP1 PUSH2 0x991 JUMP JUMPDEST PUSH2 0x63D JUMP JUMPDEST PUSH1 0x40 MLOAD PUSH2 0x1CF SWAP7 SWAP6 SWAP5 SWAP4 SWAP3 SWAP2 SWAP1 PUSH2 0xB47 JUMP JUMPDEST PUSH1 0x40 MLOAD DUP1 SWAP2 SUB SWAP1 RETURN JUMPDEST PUSH1 0x1 PUSH0 DUP2 SLOAD DUP1 SWAP3 SWAP2 SWAP1 PUSH2 0x1EA SWAP1 PUSH2 0xBD3 JUMP JUMPDEST SWAP2 SWAP1 POP SSTORE POP PUSH1 0x40 MLOAD DUP1 PUSH1 0x80 ADD PUSH1 0x40 MSTORE DUP1 PUSH1 0x1 SLOAD DUP2 MSTORE PUSH1 0x20 ADD DUP5 DUP2 MSTORE PUSH1 0x20 ADD DUP4 DUP2 MSTORE PUSH1 0x20 ADD DUP3 DUP2 MSTORE POP PUSH0 DUP1 PUSH1 0x1 SLOAD DUP2 MSTORE PUSH1 0x20 ADD SWAP1 DUP2 MSTORE PUSH1 0x20 ADD PUSH0 KECCAK256 PUSH0 DUP3 ADD MLOAD DUP2 PUSH0 ADD SSTORE PUSH1 0x20 DUP3 ADD MLOAD DUP2 PUSH1 0x1 ADD SWAP1 DUP2 PUSH2 0x241 SWAP2 SWAP1 PUSH2 0xE14 JUMP JUMPDEST POP PUSH1 0x40 DUP3 ADD MLOAD DUP2 PUSH1 0x2 ADD SSTORE PUSH1 0x60 DUP3 ADD MLOAD DUP2 PUSH1 0x3 ADD SSTORE SWAP1 POP POP POP POP POP JUMP JUMPDEST PUSH1 0x2 SLOAD DUP2 JUMP JUMPDEST PUSH0 DUP3 GT DUP1 ISZERO PUSH2 0x275 JUMPI POP PUSH1 0x1 SLOAD DUP3 GT ISZERO JUMPDEST PUSH2 0x2B4 JUMPI PUSH1 0x40 MLOAD PUSH32 0x8C379A000000000000000000000000000000000000000000000000000000000 DUP2 MSTORE PUSH1 0x4 ADD PUSH2 0x2AB SWAP1 PUSH2 0xF2D JUMP JUMPDEST PUSH1 0x40 MLOAD DUP1 SWAP2 SUB SWAP1 REVERT JUMPDEST PUSH0 DUP1 PUSH0 DUP5 DUP2 MSTORE PUSH1 0x20 ADD SWAP1 DUP2 MSTORE PUSH1 0x20 ADD PUSH0 KECCAK256 SWAP1 POP PUSH0 DUP3 GT DUP1 ISZERO PUSH2 0x2DA JUMPI POP DUP1 PUSH1 0x3 ADD SLOAD DUP3 GT ISZERO JUMPDEST PUSH2 0x319 JUMPI PUSH1 0x40 MLOAD PUSH32 0x8C379A000000000000000000000000000000000000000000000000000000000 DUP2 MSTORE PUSH1 0x4 ADD PUSH2 0x310 SWAP1 PUSH2 0xFBB JUMP JUMPDEST PUSH1 0x40 MLOAD DUP1 SWAP2 SUB SWAP1 REVERT JUMPDEST PUSH1 0x2 PUSH0 DUP2 SLOAD DUP1 SWAP3 SWAP2 SWAP1 PUSH2 0x32B SWAP1 PUSH2 0xBD3 JUMP JUMPDEST SWAP2 SWAP1 POP SSTORE POP PUSH0 DUP2 PUSH1 0x2 ADD SLOAD DUP4 PUSH2 0x341 SWAP2 SWAP1 PUSH2 0xFD9 JUMP JUMPDEST SWAP1 POP PUSH0 PUSH1 0x40 MLOAD DUP1 PUSH1 0xC0 ADD PUSH1 0x40 MSTORE DUP1 PUSH1 0x2 SLOAD DUP2 MSTORE PUSH1 0x20 ADD DUP7 DUP2 MSTORE PUSH1 0x20 ADD CALLER PUSH20 0xFFFFFFFFFFFFFFFFFFFFFFFFFFFFFFFFFFFFFFFF AND DUP2 MSTORE PUSH1 0x20 ADD DUP6 DUP2 MSTORE PUSH1 0x20 ADD DUP4 DUP2 MSTORE PUSH1 0x20 ADD TIMESTAMP DUP2 MSTORE POP SWAP1 POP DUP1 PUSH1 0x3 PUSH0 PUSH1 0x2 SLOAD DUP2 MSTORE PUSH1 0x20 ADD SWAP1 DUP2 MSTORE PUSH1 0x20 ADD PUSH0 KECCAK256 PUSH0 DUP3 ADD MLOAD DUP2 PUSH0 ADD SSTORE PUSH1 0x20 DUP3 ADD MLOAD DUP2 PUSH1 0x1 ADD SSTORE PUSH1 0x40 DUP3 ADD MLOAD DUP2 PUSH1 0x2 ADD PUSH0 PUSH2 0x100 EXP DUP2 SLOAD DUP2 PUSH20 0xFFFFFFFFFFFFFFFFFFFFFFFFFFFFFFFFFFFFFFFF MUL NOT AND SWAP1 DUP4 PUSH20 0xFFFFFFFFFFFFFFFFFFFFFFFFFFFFFFFFFFFFFFFF AND MUL OR SWAP1 SSTORE POP PUSH1 0x60 DUP3 ADD MLOAD DUP2 PUSH1 0x3 ADD SSTORE PUSH1 0x80 DUP3 ADD MLOAD DUP2 PUSH1 0x4 ADD SSTORE PUSH1 0xA0 DUP3 ADD MLOAD DUP2 PUSH1 0x5 ADD SSTORE SWAP1 POP POP DUP4 DUP4 PUSH1 0x3 ADD SLOAD PUSH2 0x428 SWAP2 SWAP1 PUSH2 0x101A JUMP JUMPDEST DUP4 PUSH1 0x3 ADD DUP2 SWAP1 SSTORE POP POP POP POP POP POP JUMP JUMPDEST PUSH0 DUP1 PUSH0 DUP5 DUP2 MSTORE PUSH1 0x20 ADD SWAP1 DUP2 MSTORE PUSH1 0x20 ADD PUSH0 KECCAK256 SWAP1 POP DUP2 DUP2 PUSH1 0x2 ADD DUP2 SWAP1 SSTORE POP POP POP POP JUMP JUMPDEST PUSH0 DUP1 PUSH0 DUP5 DUP2 MSTORE PUSH1 0x20 ADD SWAP1 DUP2 MSTORE PUSH1 0x20 ADD PUSH0 KECCAK256 SWAP1 POP DUP2 DUP2 PUSH1 0x3 ADD DUP2 SWAP1 SSTORE POP POP POP POP JUMP JUMPDEST PUSH1 0x60 PUSH0 DUP1 PUSH0 DUP1 PUSH0 DUP7 DUP2 MSTORE PUSH1 0x20 ADD SWAP1 DUP2 MSTORE PUSH1 0x20 ADD PUSH0 KECCAK256 SWAP1 POP DUP1 PUSH1 0x1 ADD DUP2 PUSH1 0x2 ADD SLOAD DUP3 PUSH1 0x3 ADD SLOAD DUP3 DUP1 SLOAD PUSH2 0x4AA SWAP1 PUSH2 0xC47 JUMP JUMPDEST DUP1 PUSH1 0x1F ADD PUSH1 0x20 DUP1 SWAP2 DIV MUL PUSH1 0x20 ADD PUSH1 0x40 MLOAD SWAP1 DUP2 ADD PUSH1 0x40 MSTORE DUP1 SWAP3 SWAP2 SWAP1 DUP2 DUP2 MSTORE PUSH1 0x20 ADD DUP3 DUP1 SLOAD PUSH2 0x4D6 SWAP1 PUSH2 0xC47 JUMP JUMPDEST DUP1 ISZERO PUSH2 0x521 JUMPI DUP1 PUSH1 0x1F LT PUSH2 0x4F8 JUMPI PUSH2 0x100 DUP1 DUP4 SLOAD DIV MUL DUP4 MSTORE SWAP2 PUSH1 0x20 ADD SWAP2 PUSH2 0x521 JUMP JUMPDEST DUP3 ADD SWAP2 SWAP1 PUSH0 MSTORE PUSH1 0x20 PUSH0 KECCAK256 SWAP1 JUMPDEST DUP2 SLOAD DUP2 MSTORE SWAP1 PUSH1 0x1 ADD SWAP1 PUSH1 0x20 ADD DUP1 DUP4 GT PUSH2 0x504 JUMPI DUP3 SWAP1 SUB PUSH1 0x1F AND DUP3 ADD SWAP2 JUMPDEST POP POP POP POP POP SWAP3 POP SWAP4 POP SWAP4 POP SWAP4 POP POP SWAP2 SWAP4 SWAP1 SWAP3 POP JUMP JUMPDEST PUSH1 0x1 SLOAD DUP2 JUMP JUMPDEST PUSH2 0x544 PUSH2 0x6F9 JUMP JUMPDEST PUSH0 DUP3 GT DUP1 ISZERO PUSH2 0x555 JUMPI POP PUSH1 0x2 SLOAD DUP3 GT ISZERO JUMPDEST PUSH2 0x594 JUMPI PUSH1 0x40 MLOAD PUSH32 0x8C379A000000000000000000000000000000000000000000000000000000000 DUP2 MSTORE PUSH1 0x4 ADD PUSH2 0x58B SWAP1 PUSH2 0x1097 JUMP JUMPDEST PUSH1 0x40 MLOAD DUP1 SWAP2 SUB SWAP1 REVERT JUMPDEST PUSH1 0x3 PUSH0 DUP4 DUP2 MSTORE PUSH1 0x20 ADD SWAP1 DUP2 MSTORE PUSH1 0x20 ADD PUSH0 KECCAK256 PUSH1 0x40 MLOAD DUP1 PUSH1 0xC0 ADD PUSH1 0x40 MSTORE SWAP1 DUP2 PUSH0 DUP3 ADD SLOAD DUP2 MSTORE PUSH1 0x20 ADD PUSH1 0x1 DUP3 ADD SLOAD DUP2 MSTORE PUSH1 0x20 ADD PUSH1 0x2 DUP3 ADD PUSH0 SWAP1 SLOAD SWAP1 PUSH2 0x100 EXP SWAP1 DIV PUSH20 0xFFFFFFFFFFFFFFFFFFFFFFFFFFFFFFFFFFFFFFFF AND PUSH20 0xFFFFFFFFFFFFFFFFFFFFFFFFFFFFFFFFFFFFFFFF AND PUSH20 0xFFFFFFFFFFFFFFFFFFFFFFFFFFFFFFFFFFFFFFFF AND DUP2 MSTORE PUSH1 0x20 ADD PUSH1 0x3 DUP3 ADD SLOAD DUP2 MSTORE PUSH1 0x20 ADD PUSH1 0x4 DUP3 ADD SLOAD DUP2 MSTORE PUSH1 0x20 ADD PUSH1 0x5 DUP3 ADD SLOAD DUP2 MSTORE POP POP SWAP1 POP SWAP2 SWAP1 POP JUMP JUMPDEST PUSH0 DUP1 PUSH0 DUP1 PUSH0 DUP1 PUSH0 DUP8 GT DUP1 ISZERO PUSH2 0x654 JUMPI POP PUSH1 0x2 SLOAD DUP8 GT ISZERO JUMPDEST PUSH2 0x693 JUMPI PUSH1 0x40 MLOAD PUSH32 0x8C379A000000000000000000000000000000000000000000000000000000000 DUP2 MSTORE PUSH1 0x4 ADD PUSH2 0x68A SWAP1 PUSH2 0x1097 JUMP JUMPDEST PUSH1 0x40 MLOAD DUP1 SWAP2 SUB SWAP1 REVERT JUMPDEST PUSH0 PUSH1 0x3 PUSH0 DUP10 DUP2 MSTORE PUSH1 0x20 ADD SWAP1 DUP2 MSTORE PUSH1 0x20 ADD PUSH0 KECCAK256 SWAP1 POP DUP1 PUSH0 ADD SLOAD DUP2 PUSH1 0x1 ADD SLOAD DUP3 PUSH1 0x2 ADD PUSH0 SWAP1 SLOAD SWAP1 PUSH2 0x100 EXP SWAP1 DIV PUSH20 0xFFFFFFFFFFFFFFFFFFFFFFFFFFFFFFFFFFFFFFFF AND DUP4 PUSH1 0x3 ADD SLOAD DUP5 PUSH1 0x4 ADD SLOAD DUP6 PUSH1 0x5 ADD SLOAD SWAP7 POP SWAP7 POP SWAP7 POP SWAP7 POP SWAP7 POP SWAP7 POP POP SWAP2 SWAP4 SWAP6 POP SWAP2 SWAP4 SWAP6 JUMP JUMPDEST PUSH1 0x40 MLOAD DUP1 PUSH1 0xC0 ADD PUSH1 0x40 MSTORE DUP1 PUSH0 DUP2 MSTORE PUSH1 0x20 ADD PUSH0 DUP2 MSTORE PUSH1 0x20 ADD PUSH0 PUSH20 0xFFFFFFFFFFFFFFFFFFFFFFFFFFFFFFFFFFFFFFFF AND DUP2 MSTORE PUSH1 0x20 ADD PUSH0 DUP2 MSTORE PUSH1 0x20 ADD PUSH0 DUP2 MSTORE PUSH1 0x20 ADD PUSH0 DUP2 MSTORE POP SWAP1 JUMP JUMPDEST PUSH0 PUSH1 0x40 MLOAD SWAP1 POP SWAP1 JUMP JUMPDEST PUSH0 DUP1 REVERT JUMPDEST PUSH0 DUP1 REVERT JUMPDEST PUSH0 DUP1 REVERT JUMPDEST PUSH0 DUP1 REVERT JUMPDEST PUSH0 PUSH1 0x1F NOT PUSH1 0x1F DUP4 ADD AND SWAP1 POP SWAP2 SWAP1 POP JUMP JUMPDEST PUSH32 0x4E487B7100000000000000000000000000000000000000000000000000000000 PUSH0 MSTORE PUSH1 0x41 PUSH1 0x4 MSTORE PUSH1 0x24 PUSH0 REVERT JUMPDEST PUSH2 0x79E DUP3 PUSH2 0x758 JUMP JUMPDEST DUP2 ADD DUP2 DUP2 LT PUSH8 0xFFFFFFFFFFFFFFFF DUP3 GT OR ISZERO PUSH2 0x7BD JUMPI PUSH2 0x7BC PUSH2 0x768 JUMP JUMPDEST JUMPDEST DUP1 PUSH1 0x40 MSTORE POP POP POP JUMP JUMPDEST PUSH0 PUSH2 0x7CF PUSH2 0x73F JUMP JUMPDEST SWAP1 POP PUSH2 0x7DB DUP3 DUP3 PUSH2 0x795 JUMP JUMPDEST SWAP2 SWAP1 POP JUMP JUMPDEST PUSH0 PUSH8 0xFFFFFFFFFFFFFFFF DUP3 GT ISZERO PUSH2 0x7FA JUMPI PUSH2 0x7F9 PUSH2 0x768 JUMP JUMPDEST JUMPDEST PUSH2 0x803 DUP3 PUSH2 0x758 JUMP JUMPDEST SWAP1 POP PUSH1 0x20 DUP2 ADD SWAP1 POP SWAP2 SWAP1 POP JUMP JUMPDEST DUP3 DUP2 DUP4 CALLDATACOPY PUSH0 DUP4 DUP4 ADD MSTORE POP POP POP JUMP JUMPDEST PUSH0 PUSH2 0x830 PUSH2 0x82B DUP5 PUSH2 0x7E0 JUMP JUMPDEST PUSH2 0x7C6 JUMP JUMPDEST SWAP1 POP DUP3 DUP2 MSTORE PUSH1 0x20 DUP2 ADD DUP5 DUP5 DUP5 ADD GT ISZERO PUSH2 0x84C JUMPI PUSH2 0x84B PUSH2 0x754 JUMP JUMPDEST JUMPDEST PUSH2 0x857 DUP5 DUP3 DUP6 PUSH2 0x810 JUMP JUMPDEST POP SWAP4 SWAP3 POP POP POP JUMP JUMPDEST PUSH0 DUP3 PUSH1 0x1F DUP4 ADD SLT PUSH2 0x873 JUMPI PUSH2 0x872 PUSH2 0x750 JUMP JUMPDEST JUMPDEST DUP2 CALLDATALOAD PUSH2 0x883 DUP5 DUP3 PUSH1 0x20 DUP7 ADD PUSH2 0x81E JUMP JUMPDEST SWAP2 POP POP SWAP3 SWAP2 POP POP JUMP JUMPDEST PUSH0 DUP2 SWAP1 POP SWAP2 SWAP1 POP JUMP JUMPDEST PUSH2 0x89E DUP2 PUSH2 0x88C JUMP JUMPDEST DUP2 EQ PUSH2 0x8A8 JUMPI PUSH0 DUP1 REVERT JUMPDEST POP JUMP JUMPDEST PUSH0 DUP2 CALLDATALOAD SWAP1 POP PUSH2 0x8B9 DUP2 PUSH2 0x895 JUMP JUMPDEST SWAP3 SWAP2 POP POP JUMP JUMPDEST PUSH0 DUP1 PUSH0 PUSH1 0x60 DUP5 DUP7 SUB SLT ISZERO PUSH2 0x8D6 JUMPI PUSH2 0x8D5 PUSH2 0x748 JUMP JUMPDEST JUMPDEST PUSH0 DUP5 ADD CALLDATALOAD PUSH8 0xFFFFFFFFFFFFFFFF DUP2 GT ISZERO PUSH2 0x8F3 JUMPI PUSH2 0x8F2 PUSH2 0x74C JUMP JUMPDEST JUMPDEST PUSH2 0x8FF DUP7 DUP3 DUP8 ADD PUSH2 0x85F JUMP JUMPDEST SWAP4 POP POP PUSH1 0x20 PUSH2 0x910 DUP7 DUP3 DUP8 ADD PUSH2 0x8AB JUMP JUMPDEST SWAP3 POP POP PUSH1 0x40 PUSH2 0x921 DUP7 DUP3 DUP8 ADD PUSH2 0x8AB JUMP JUMPDEST SWAP2 POP POP SWAP3 POP SWAP3 POP SWAP3 JUMP JUMPDEST PUSH2 0x934 DUP2 PUSH2 0x88C JUMP JUMPDEST DUP3 MSTORE POP POP JUMP JUMPDEST PUSH0 PUSH1 0x20 DUP3 ADD SWAP1 POP PUSH2 0x94D PUSH0 DUP4 ADD DUP5 PUSH2 0x92B JUMP JUMPDEST SWAP3 SWAP2 POP POP JUMP JUMPDEST PUSH0 DUP1 PUSH1 0x40 DUP4 DUP6 SUB SLT ISZERO PUSH2 0x969 JUMPI PUSH2 0x968 PUSH2 0x748 JUMP JUMPDEST JUMPDEST PUSH0 PUSH2 0x976 DUP6 DUP3 DUP7 ADD PUSH2 0x8AB JUMP JUMPDEST SWAP3 POP POP PUSH1 0x20 PUSH2 0x987 DUP6 DUP3 DUP7 ADD PUSH2 0x8AB JUMP JUMPDEST SWAP2 POP POP SWAP3 POP SWAP3 SWAP1 POP JUMP JUMPDEST PUSH0 PUSH1 0x20 DUP3 DUP5 SUB SLT ISZERO PUSH2 0x9A6 JUMPI PUSH2 0x9A5 PUSH2 0x748 JUMP JUMPDEST JUMPDEST PUSH0 PUSH2 0x9B3 DUP5 DUP3 DUP6 ADD PUSH2 0x8AB JUMP JUMPDEST SWAP2 POP POP SWAP3 SWAP2 POP POP JUMP JUMPDEST PUSH0 DUP2 MLOAD SWAP1 POP SWAP2 SWAP1 POP JUMP JUMPDEST PUSH0 DUP3 DUP3 MSTORE PUSH1 0x20 DUP3 ADD SWAP1 POP SWAP3 SWAP2 POP POP JUMP JUMPDEST DUP3 DUP2 DUP4 MCOPY PUSH0 DUP4 DUP4 ADD MSTORE POP POP POP JUMP JUMPDEST PUSH0 PUSH2 0x9EE DUP3 PUSH2 0x9BC JUMP JUMPDEST PUSH2 0x9F8 DUP2 DUP6 PUSH2 0x9C6 JUMP JUMPDEST SWAP4 POP PUSH2 0xA08 DUP2 DUP6 PUSH1 0x20 DUP7 ADD PUSH2 0x9D6 JUMP JUMPDEST PUSH2 0xA11 DUP2 PUSH2 0x758 JUMP JUMPDEST DUP5 ADD SWAP2 POP POP SWAP3 SWAP2 POP POP JUMP JUMPDEST PUSH0 PUSH1 0x60 DUP3 ADD SWAP1 POP DUP2 DUP2 SUB PUSH0 DUP4 ADD MSTORE PUSH2 0xA34 DUP2 DUP7 PUSH2 0x9E4 JUMP JUMPDEST SWAP1 POP PUSH2 0xA43 PUSH1 0x20 DUP4 ADD DUP6 PUSH2 0x92B JUMP JUMPDEST PUSH2 0xA50 PUSH1 0x40 DUP4 ADD DUP5 PUSH2 0x92B JUMP JUMPDEST SWAP5 SWAP4 POP POP POP POP JUMP JUMPDEST PUSH2 0xA61 DUP2 PUSH2 0x88C JUMP JUMPDEST DUP3 MSTORE POP POP JUMP JUMPDEST PUSH0 PUSH20 0xFFFFFFFFFFFFFFFFFFFFFFFFFFFFFFFFFFFFFFFF DUP3 AND SWAP1 POP SWAP2 SWAP1 POP JUMP JUMPDEST PUSH0 PUSH2 0xA90 DUP3 PUSH2 0xA67 JUMP JUMPDEST SWAP1 POP SWAP2 SWAP1 POP JUMP JUMPDEST PUSH2 0xAA0 DUP2 PUSH2 0xA86 JUMP JUMPDEST DUP3 MSTORE POP POP JUMP JUMPDEST PUSH1 0xC0 DUP3 ADD PUSH0 DUP3 ADD MLOAD PUSH2 0xABA PUSH0 DUP6 ADD DUP3 PUSH2 0xA58 JUMP JUMPDEST POP PUSH1 0x20 DUP3 ADD MLOAD PUSH2 0xACD PUSH1 0x20 DUP6 ADD DUP3 PUSH2 0xA58 JUMP JUMPDEST POP PUSH1 0x40 DUP3 ADD MLOAD PUSH2 0xAE0 PUSH1 0x40 DUP6 ADD DUP3 PUSH2 0xA97 JUMP JUMPDEST POP PUSH1 0x60 DUP3 ADD MLOAD PUSH2 0xAF3 PUSH1 0x60 DUP6 ADD DUP3 PUSH2 0xA58 JUMP JUMPDEST POP PUSH1 0x80 DUP3 ADD MLOAD PUSH2 0xB06 PUSH1 0x80 DUP6 ADD DUP3 PUSH2 0xA58 JUMP JUMPDEST POP PUSH1 0xA0 DUP3 ADD MLOAD PUSH2 0xB19 PUSH1 0xA0 DUP6 ADD DUP3 PUSH2 0xA58 JUMP JUMPDEST POP POP POP POP JUMP JUMPDEST PUSH0 PUSH1 0xC0 DUP3 ADD SWAP1 POP PUSH2 0xB32 PUSH0 DUP4 ADD DUP5 PUSH2 0xAA6 JUMP JUMPDEST SWAP3 SWAP2 POP POP JUMP JUMPDEST PUSH2 0xB41 DUP2 PUSH2 0xA86 JUMP JUMPDEST DUP3 MSTORE POP POP JUMP JUMPDEST PUSH0 PUSH1 0xC0 DUP3 ADD SWAP1 POP PUSH2 0xB5A PUSH0 DUP4 ADD DUP10 PUSH2 0x92B JUMP JUMPDEST PUSH2 0xB67 PUSH1 0x20 DUP4 ADD DUP9 PUSH2 0x92B JUMP JUMPDEST PUSH2 0xB74 PUSH1 0x40 DUP4 ADD DUP8 PUSH2 0xB38 JUMP JUMPDEST PUSH2 0xB81 PUSH1 0x60 DUP4 ADD DUP7 PUSH2 0x92B JUMP JUMPDEST PUSH2 0xB8E PUSH1 0x80 DUP4 ADD DUP6 PUSH2 0x92B JUMP JUMPDEST PUSH2 0xB9B PUSH1 0xA0 DUP4 ADD DUP5 PUSH2 0x92B JUMP JUMPDEST SWAP8 SWAP7 POP POP POP POP POP POP POP JUMP JUMPDEST PUSH32 0x4E487B7100000000000000000000000000000000000000000000000000000000 PUSH0 MSTORE PUSH1 0x11 PUSH1 0x4 MSTORE PUSH1 0x24 PUSH0 REVERT JUMPDEST PUSH0 PUSH2 0xBDD DUP3 PUSH2 0x88C JUMP JUMPDEST SWAP2 POP PUSH32 0xFFFFFFFFFFFFFFFFFFFFFFFFFFFFFFFFFFFFFFFFFFFFFFFFFFFFFFFFFFFFFFFF DUP3 SUB PUSH2 0xC0F JUMPI PUSH2 0xC0E PUSH2 0xBA6 JUMP JUMPDEST JUMPDEST PUSH1 0x1 DUP3 ADD SWAP1 POP SWAP2 SWAP1 POP JUMP JUMPDEST PUSH32 0x4E487B7100000000000000000000000000000000000000000000000000000000 PUSH0 MSTORE PUSH1 0x22 PUSH1 0x4 MSTORE PUSH1 0x24 PUSH0 REVERT JUMPDEST PUSH0 PUSH1 0x2 DUP3 DIV SWAP1 POP PUSH1 0x1 DUP3 AND DUP1 PUSH2 0xC5E JUMPI PUSH1 0x7F DUP3 AND SWAP2 POP JUMPDEST PUSH1 0x20 DUP3 LT DUP2 SUB PUSH2 0xC71 JUMPI PUSH2 0xC70 PUSH2 0xC1A JUMP JUMPDEST JUMPDEST POP SWAP2 SWAP1 POP JUMP JUMPDEST PUSH0 DUP2 SWAP1 POP DUP2 PUSH0 MSTORE PUSH1 0x20 PUSH0 KECCAK256 SWAP1 POP SWAP2 SWAP1 POP JUMP JUMPDEST PUSH0 PUSH1 0x20 PUSH1 0x1F DUP4 ADD DIV SWAP1 POP SWAP2 SWAP1 POP JUMP JUMPDEST PUSH0 DUP3 DUP3 SHL SWAP1 POP SWAP3 SWAP2 POP POP JUMP JUMPDEST PUSH0 PUSH1 0x8 DUP4 MUL PUSH2 0xCD3 PUSH32 0xFFFFFFFFFFFFFFFFFFFFFFFFFFFFFFFFFFFFFFFFFFFFFFFFFFFFFFFFFFFFFFFF DUP3 PUSH2 0xC98 JUMP JUMPDEST PUSH2 0xCDD DUP7 DUP4 PUSH2 0xC98 JUMP JUMPDEST SWAP6 POP DUP1 NOT DUP5 AND SWAP4 POP DUP1 DUP7 AND DUP5 OR SWAP3 POP POP POP SWAP4 SWAP3 POP POP POP JUMP JUMPDEST PUSH0 DUP2 SWAP1 POP SWAP2 SWAP1 POP JUMP JUMPDEST PUSH0 PUSH2 0xD18 PUSH2 0xD13 PUSH2 0xD0E DUP5 PUSH2 0x88C JUMP JUMPDEST PUSH2 0xCF5 JUMP JUMPDEST PUSH2 0x88C JUMP JUMPDEST SWAP1 POP SWAP2 SWAP1 POP JUMP JUMPDEST PUSH0 DUP2 SWAP1 POP SWAP2 SWAP1 POP JUMP JUMPDEST PUSH2 0xD31 DUP4 PUSH2 0xCFE JUMP JUMPDEST PUSH2 0xD45 PUSH2 0xD3D DUP3 PUSH2 0xD1F JUMP JUMPDEST DUP5 DUP5 SLOAD PUSH2 0xCA4 JUMP JUMPDEST DUP3 SSTORE POP POP POP POP JUMP JUMPDEST PUSH0 SWAP1 JUMP JUMPDEST PUSH2 0xD59 PUSH2 0xD4D JUMP JUMPDEST PUSH2 0xD64 DUP2 DUP5 DUP5 PUSH2 0xD28 JUMP JUMPDEST POP POP POP JUMP JUMPDEST JUMPDEST DUP2 DUP2 LT ISZERO PUSH2 0xD87 JUMPI PUSH2 0xD7C PUSH0 DUP3 PUSH2 0xD51 JUMP JUMPDEST PUSH1 0x1 DUP2 ADD SWAP1 POP PUSH2 0xD6A JUMP JUMPDEST POP POP JUMP JUMPDEST PUSH1 0x1F DUP3 GT ISZERO PUSH2 0xDCC JUMPI PUSH2 0xD9D DUP2 PUSH2 0xC77 JUMP JUMPDEST PUSH2 0xDA6 DUP5 PUSH2 0xC89 JUMP JUMPDEST DUP2 ADD PUSH1 0x20 DUP6 LT ISZERO PUSH2 0xDB5 JUMPI DUP2 SWAP1 POP JUMPDEST PUSH2 0xDC9 PUSH2 0xDC1 DUP6 PUSH2 0xC89 JUMP JUMPDEST DUP4 ADD DUP3 PUSH2 0xD69 JUMP JUMPDEST POP POP JUMPDEST POP POP POP JUMP JUMPDEST PUSH0 DUP3 DUP3 SHR SWAP1 POP SWAP3 SWAP2 POP POP JUMP JUMPDEST PUSH0 PUSH2 0xDEC PUSH0 NOT DUP5 PUSH1 0x8 MUL PUSH2 0xDD1 JUMP JUMPDEST NOT DUP1 DUP4 AND SWAP2 POP POP SWAP3 SWAP2 POP POP JUMP JUMPDEST PUSH0 PUSH2 0xE04 DUP4 DUP4 PUSH2 0xDDD JUMP JUMPDEST SWAP2 POP DUP3 PUSH1 0x2 MUL DUP3 OR SWAP1 POP SWAP3 SWAP2 POP POP JUMP JUMPDEST PUSH2 0xE1D DUP3 PUSH2 0x9BC JUMP JUMPDEST PUSH8 0xFFFFFFFFFFFFFFFF DUP2 GT ISZERO PUSH2 0xE36 JUMPI PUSH2 0xE35 PUSH2 0x768 JUMP JUMPDEST JUMPDEST PUSH2 0xE40 DUP3 SLOAD PUSH2 0xC47 JUMP JUMPDEST PUSH2 0xE4B DUP3 DUP3 DUP6 PUSH2 0xD8B JUMP JUMPDEST PUSH0 PUSH1 0x20 SWAP1 POP PUSH1 0x1F DUP4 GT PUSH1 0x1 DUP2 EQ PUSH2 0xE7C JUMPI PUSH0 DUP5 ISZERO PUSH2 0xE6A JUMPI DUP3 DUP8 ADD MLOAD SWAP1 POP JUMPDEST PUSH2 0xE74 DUP6 DUP3 PUSH2 0xDF9 JUMP JUMPDEST DUP7 SSTORE POP PUSH2 0xEDB JUMP JUMPDEST PUSH1 0x1F NOT DUP5 AND PUSH2 0xE8A DUP7 PUSH2 0xC77 JUMP JUMPDEST PUSH0 JUMPDEST DUP3 DUP2 LT ISZERO PUSH2 0xEB1 JUMPI DUP5 DUP10 ADD MLOAD DUP3 SSTORE PUSH1 0x1 DUP3 ADD SWAP2 POP PUSH1 0x20 DUP6 ADD SWAP5 POP PUSH1 0x20 DUP2 ADD SWAP1 POP PUSH2 0xE8C JUMP JUMPDEST DUP7 DUP4 LT ISZERO PUSH2 0xECE JUMPI DUP5 DUP10 ADD MLOAD PUSH2 0xECA PUSH1 0x1F DUP10 AND DUP3 PUSH2 0xDDD JUMP JUMPDEST DUP4 SSTORE POP JUMPDEST PUSH1 0x1 PUSH1 0x2 DUP9 MUL ADD DUP9 SSTORE POP POP POP JUMPDEST POP POP POP POP POP POP JUMP JUMPDEST PUSH32 0x6572726F722070726F64756374496420696E7075740000000000000000000000 PUSH0 DUP3 ADD MSTORE POP JUMP JUMPDEST PUSH0 PUSH2 0xF17 PUSH1 0x15 DUP4 PUSH2 0x9C6 JUMP JUMPDEST SWAP2 POP PUSH2 0xF22 DUP3 PUSH2 0xEE3 JUMP JUMPDEST PUSH1 0x20 DUP3 ADD SWAP1 POP SWAP2 SWAP1 POP JUMP JUMPDEST PUSH0 PUSH1 0x20 DUP3 ADD SWAP1 POP DUP2 DUP2 SUB PUSH0 DUP4 ADD MSTORE PUSH2 0xF44 DUP2 PUSH2 0xF0B JUMP JUMPDEST SWAP1 POP SWAP2 SWAP1 POP JUMP JUMPDEST PUSH32 0x7175616E746974792069732067726561746572207468656E2070726F64756374 PUSH0 DUP3 ADD MSTORE PUSH32 0x2073746F636B0000000000000000000000000000000000000000000000000000 PUSH1 0x20 DUP3 ADD MSTORE POP JUMP JUMPDEST PUSH0 PUSH2 0xFA5 PUSH1 0x26 DUP4 PUSH2 0x9C6 JUMP JUMPDEST SWAP2 POP PUSH2 0xFB0 DUP3 PUSH2 0xF4B JUMP JUMPDEST PUSH1 0x40 DUP3 ADD SWAP1 POP SWAP2 SWAP1 POP JUMP JUMPDEST PUSH0 PUSH1 0x20 DUP3 ADD SWAP1 POP DUP2 DUP2 SUB PUSH0 DUP4 ADD MSTORE PUSH2 0xFD2 DUP2 PUSH2 0xF99 JUMP JUMPDEST SWAP1 POP SWAP2 SWAP1 POP JUMP JUMPDEST PUSH0 PUSH2 0xFE3 DUP3 PUSH2 0x88C JUMP JUMPDEST SWAP2 POP PUSH2 0xFEE DUP4 PUSH2 0x88C JUMP JUMPDEST SWAP3 POP DUP3 DUP3 MUL PUSH2 0xFFC DUP2 PUSH2 0x88C JUMP JUMPDEST SWAP2 POP DUP3 DUP3 DIV DUP5 EQ DUP4 ISZERO OR PUSH2 0x1013 JUMPI PUSH2 0x1012 PUSH2 0xBA6 JUMP JUMPDEST JUMPDEST POP SWAP3 SWAP2 POP POP JUMP JUMPDEST PUSH0 PUSH2 0x1024 DUP3 PUSH2 0x88C JUMP JUMPDEST SWAP2 POP PUSH2 0x102F DUP4 PUSH2 0x88C JUMP JUMPDEST SWAP3 POP DUP3 DUP3 SUB SWAP1 POP DUP2 DUP2 GT ISZERO PUSH2 0x1047 JUMPI PUSH2 0x1046 PUSH2 0xBA6 JUMP JUMPDEST JUMPDEST SWAP3 SWAP2 POP POP JUMP JUMPDEST PUSH32 0x6572726F72205F6F72646572496420696E707574000000000000000000000000 PUSH0 DUP3 ADD MSTORE POP JUMP JUMPDEST PUSH0 PUSH2 0x1081 PUSH1 0x14 DUP4 PUSH2 0x9C6 JUMP JUMPDEST SWAP2 POP PUSH2 0x108C DUP3 PUSH2 0x104D JUMP JUMPDEST PUSH1 0x20 DUP3 ADD SWAP1 POP SWAP2 SWAP1 POP JUMP JUMPDEST PUSH0 PUSH1 0x20 DUP3 ADD SWAP1 POP DUP2 DUP2 SUB PUSH0 DUP4 ADD MSTORE PUSH2 0x10AE DUP2 PUSH2 0x1075 JUMP JUMPDEST SWAP1 POP SWAP2 SWAP1 POP JUMP INVALID LOG2 PUSH5 0x6970667358 0x22 SLT KECCAK256 MSIZE SUB PUSH20 0x291BB911F39CB530DFDB0390A60C3C86B5560141 PUSH22 0xA002542336E60F5764736F6C634300081A0033000000 "
		},
		"gasEstimates": {
			"creation": {
				"codeDepositCost": "866200",
				"executionCost": "10911",
				"totalCost": "877111"
			},
			"external": {
				"addProduct(string,uint256,uint256)": "infinite",
				"createOrder(uint256,uint256)": "infinite",
				"getOrder(uint256)": "infinite",
				"getOrderDetail(uint256)": "infinite",
				"getProduct(uint256)": "infinite",
				"mapKey()": "2469",
				"orderId()": "2448",
				"updatePrice(uint256,uint256)": "infinite",
				"updateStock(uint256,uint256)": "infinite"
			}
		},
		"methodIdentifiers": {
			"addProduct(string,uint256,uint256)": "125b0b34",
			"createOrder(uint256,uint256)": "79109baa",
			"getOrder(uint256)": "d09ef241",
			"getOrderDetail(uint256)": "e4c79a4a",
			"getProduct(uint256)": "b9db15b4",
			"mapKey()": "c62d01b0",
			"orderId()": "163de5e5",
			"updatePrice(uint256,uint256)": "82367b2d",
			"updateStock(uint256,uint256)": "9dfc3dd1"
		}
	},
	"abi": [
		{
			"inputs": [
				{
					"internalType": "string",
					"name": "_name",
					"type": "string"
				},
				{
					"internalType": "uint256",
					"name": "_price",
					"type": "uint256"
				},
				{
					"internalType": "uint256",
					"name": "_stock",
					"type": "uint256"
				}
			],
			"name": "addProduct",
			"outputs": [],
			"stateMutability": "nonpayable",
			"type": "function"
		},
		{
			"inputs": [
				{
					"internalType": "uint256",
					"name": "productId",
					"type": "uint256"
				},
				{
					"internalType": "uint256",
					"name": "quantity",
					"type": "uint256"
				}
			],
			"name": "createOrder",
			"outputs": [],
			"stateMutability": "nonpayable",
			"type": "function"
		},
		{
			"inputs": [
				{
					"internalType": "uint256",
					"name": "_orderId",
					"type": "uint256"
				}
			],
			"name": "getOrder",
			"outputs": [
				{
					"components": [
						{
							"internalType": "uint256",
							"name": "orderId",
							"type": "uint256"
						},
						{
							"internalType": "uint256",
							"name": "productId",
							"type": "uint256"
						},
						{
							"internalType": "address",
							"name": "consumerAddress",
							"type": "address"
						},
						{
							"internalType": "uint256",
							"name": "productNum",
							"type": "uint256"
						},
						{
							"internalType": "uint256",
							"name": "totalPrice",
							"type": "uint256"
						},
						{
							"internalType": "uint256",
							"name": "createTime",
							"type": "uint256"
						}
					],
					"internalType": "struct ProductContract.Order",
					"name": "",
					"type": "tuple"
				}
			],
			"stateMutability": "view",
			"type": "function"
		},
		{
			"inputs": [
				{
					"internalType": "uint256",
					"name": "_orderId",
					"type": "uint256"
				}
			],
			"name": "getOrderDetail",
			"outputs": [
				{
					"internalType": "uint256",
					"name": "",
					"type": "uint256"
				},
				{
					"internalType": "uint256",
					"name": "",
					"type": "uint256"
				},
				{
					"internalType": "address",
					"name": "",
					"type": "address"
				},
				{
					"internalType": "uint256",
					"name": "",
					"type": "uint256"
				},
				{
					"internalType": "uint256",
					"name": "",
					"type": "uint256"
				},
				{
					"internalType": "uint256",
					"name": "",
					"type": "uint256"
				}
			],
			"stateMutability": "view",
			"type": "function"
		},
		{
			"inputs": [
				{
					"internalType": "uint256",
					"name": "_mapKey",
					"type": "uint256"
				}
			],
			"name": "getProduct",
			"outputs": [
				{
					"internalType": "string",
					"name": "",
					"type": "string"
				},
				{
					"internalType": "uint256",
					"name": "",
					"type": "uint256"
				},
				{
					"internalType": "uint256",
					"name": "",
					"type": "uint256"
				}
			],
			"stateMutability": "view",
			"type": "function"
		},
		{
			"inputs": [],
			"name": "mapKey",
			"outputs": [
				{
					"internalType": "uint256",
					"name": "",
					"type": "uint256"
				}
			],
			"stateMutability": "view",
			"type": "function"
		},
		{
			"inputs": [],
			"name": "orderId",
			"outputs": [
				{
					"internalType": "uint256",
					"name": "",
					"type": "uint256"
				}
			],
			"stateMutability": "view",
			"type": "function"
		},
		{
			"inputs": [
				{
					"internalType": "uint256",
					"name": "_mapKey",
					"type": "uint256"
				},
				{
					"internalType": "uint256",
					"name": "_newPrice",
					"type": "uint256"
				}
			],
			"name": "updatePrice",
			"outputs": [],
			"stateMutability": "nonpayable",
			"type": "function"
		},
		{
			"inputs": [
				{
					"internalType": "uint256",
					"name": "_mapKey",
					"type": "uint256"
				},
				{
					"internalType": "uint256",
					"name": "_newStore",
					"type": "uint256"
				}
			],
			"name": "updateStock",
			"outputs": [],
			"stateMutability": "nonpayable",
			"type": "function"
		}
	]
}