{
	"solidity-study/solidity-1base/7/ArrayDemo.sol": {
		"ArrayDemo": {
			"abi": [
				{
					"inputs": [
						{
							"internalType": "uint256",
							"name": "x",
							"type": "uint256"
						}
					],
					"name": "add",
					"outputs": [],
					"stateMutability": "nonpayable",
					"type": "function"
				},
				{
					"inputs": [
						{
							"internalType": "uint256",
							"name": "",
							"type": "uint256"
						}
					],
					"name": "array1",
					"outputs": [
						{
							"internalType": "uint256",
							"name": "",
							"type": "uint256"
						}
					],
					"stateMutability": "view",
					"type": "function"
				},
				{
					"inputs": [
						{
							"internalType": "uint256",
							"name": "x",
							"type": "uint256"
						}
					],
					"name": "deleteByValue",
					"outputs": [
						{
							"internalType": "uint256",
							"name": "",
							"type": "uint256"
						}
					],
					"stateMutability": "nonpayable",
					"type": "function"
				},
				{
					"inputs": [
						{
							"internalType": "uint256[]",
							"name": "calldataArr",
							"type": "uint256[]"
						}
					],
					"name": "methodx",
					"outputs": [
						{
							"internalType": "uint256",
							"name": "",
							"type": "uint256"
						}
					],
					"stateMutability": "nonpayable",
					"type": "function"
				},
				{
					"inputs": [],
					"name": "printArr",
					"outputs": [
						{
							"internalType": "uint256[]",
							"name": "",
							"type": "uint256[]"
						}
					],
					"stateMutability": "view",
					"type": "function"
				},
				{
					"inputs": [
						{
							"internalType": "uint256",
							"name": "",
							"type": "uint256"
						}
					],
					"name": "storageArr",
					"outputs": [
						{
							"internalType": "uint256",
							"name": "",
							"type": "uint256"
						}
					],
					"stateMutability": "view",
					"type": "function"
				},
				{
					"inputs": [],
					"name": "sum",
					"outputs": [
						{
							"internalType": "uint256",
							"name": "",
							"type": "uint256"
						}
					],
					"stateMutability": "view",
					"type": "function"
				}
			],
			"devdoc": {
				"kind": "dev",
				"methods": {},
				"version": 1
			},
			"evm": {
				"assembly": "    /* \"solidity-study/solidity-1base/7/ArrayDemo.sol\":62:1717  contract ArrayDemo{... */\n  mstore(0x40, 0x80)\n    /* \"solidity-study/solidity-1base/7/ArrayDemo.sol\":126:150  uint[4] arr2 = [1,2,3,4] */\n  mload(0x40)\n  dup1\n  0x80\n  add\n  0x40\n  mstore\n  dup1\n    /* \"solidity-study/solidity-1base/7/ArrayDemo.sol\":142:143  1 */\n  0x01\n    /* \"solidity-study/solidity-1base/7/ArrayDemo.sol\":126:150  uint[4] arr2 = [1,2,3,4] */\n  0xff\n  and\n  dup2\n  mstore\n  0x20\n  add\n    /* \"solidity-study/solidity-1base/7/ArrayDemo.sol\":144:145  2 */\n  0x02\n    /* \"solidity-study/solidity-1base/7/ArrayDemo.sol\":126:150  uint[4] arr2 = [1,2,3,4] */\n  0xff\n  and\n  dup2\n  mstore\n  0x20\n  add\n    /* \"solidity-study/solidity-1base/7/ArrayDemo.sol\":146:147  3 */\n  0x03\n    /* \"solidity-study/solidity-1base/7/ArrayDemo.sol\":126:150  uint[4] arr2 = [1,2,3,4] */\n  0xff\n  and\n  dup2\n  mstore\n  0x20\n  add\n    /* \"solidity-study/solidity-1base/7/ArrayDemo.sol\":148:149  4 */\n  0x04\n    /* \"solidity-study/solidity-1base/7/ArrayDemo.sol\":126:150  uint[4] arr2 = [1,2,3,4] */\n  0xff\n  and\n  dup2\n  mstore\n  pop\n  0x04\n  swap1\n  0x04\n  tag_1\n  swap3\n  swap2\n  swap1\n  tag_2\n  jump\t// in\ntag_1:\n  pop\n    /* \"solidity-study/solidity-1base/7/ArrayDemo.sol\":206:233  uint[] arr4 = [12,23,34,45] */\n  mload(0x40)\n  dup1\n  0x80\n  add\n  0x40\n  mstore\n  dup1\n    /* \"solidity-study/solidity-1base/7/ArrayDemo.sol\":221:223  12 */\n  0x0c\n    /* \"solidity-study/solidity-1base/7/ArrayDemo.sol\":206:233  uint[] arr4 = [12,23,34,45] */\n  0xff\n  and\n  dup2\n  mstore\n  0x20\n  add\n    /* \"solidity-study/solidity-1base/7/ArrayDemo.sol\":224:226  23 */\n  0x17\n    /* \"solidity-study/solidity-1base/7/ArrayDemo.sol\":206:233  uint[] arr4 = [12,23,34,45] */\n  0xff\n  and\n  dup2\n  mstore\n  0x20\n  add\n    /* \"solidity-study/solidity-1base/7/ArrayDemo.sol\":227:229  34 */\n  0x22\n    /* \"solidity-study/solidity-1base/7/ArrayDemo.sol\":206:233  uint[] arr4 = [12,23,34,45] */\n  0xff\n  and\n  dup2\n  mstore\n  0x20\n  add\n    /* \"solidity-study/solidity-1base/7/ArrayDemo.sol\":230:232  45 */\n  0x2d\n    /* \"solidity-study/solidity-1base/7/ArrayDemo.sol\":206:233  uint[] arr4 = [12,23,34,45] */\n  0xff\n  and\n  dup2\n  mstore\n  pop\n  0x09\n  swap1\n  0x04\n  tag_3\n  swap3\n  swap2\n  swap1\n  tag_4\n  jump\t// in\ntag_3:\n  pop\n    /* \"solidity-study/solidity-1base/7/ArrayDemo.sol\":890:920  bytes bytesArr = \"lvbao lvcai\" */\n  mload(0x40)\n  dup1\n  0x40\n  add\n  0x40\n  mstore\n  dup1\n  0x0b\n  dup2\n  mstore\n  0x20\n  add\n  0x6c7662616f206c76636169000000000000000000000000000000000000000000\n  dup2\n  mstore\n  pop\n  0x0b\n  swap1\n  dup2\n  tag_5\n  swap2\n  swap1\n  tag_6\n  jump\t// in\ntag_5:\n  pop\n    /* \"solidity-study/solidity-1base/7/ArrayDemo.sol\":955:957  10 */\n  0x0a\n    /* \"solidity-study/solidity-1base/7/ArrayDemo.sol\":945:958  new bytes(10) */\n  0xffffffffffffffff\n  dup2\n  gt\n  iszero\n  tag_7\n  jumpi\n  tag_8\n  tag_9\n  jump\t// in\ntag_8:\ntag_7:\n  mload(0x40)\n  swap1\n  dup1\n  dup3\n  mstore\n  dup1\n  0x1f\n  add\n  not(0x1f)\n  and\n  0x20\n  add\n  dup3\n  add\n  0x40\n  mstore\n  dup1\n  iszero\n  tag_10\n  jumpi\n  dup2\n  0x20\n  add\n  0x01\n  dup3\n  mul\n  dup1\n  calldatasize\n  dup4\n  calldatacopy\n  dup1\n  dup3\n  add\n  swap2\n  pop\n  pop\n  swap1\n  pop\ntag_10:\n  pop\n    /* \"solidity-study/solidity-1base/7/ArrayDemo.sol\":927:958  bytes bytesArr1 = new bytes(10) */\n  0x0c\n  swap1\n  dup2\n  tag_11\n  swap2\n  swap1\n  tag_12\n  jump\t// in\ntag_11:\n  pop\n    /* \"solidity-study/solidity-1base/7/ArrayDemo.sol\":965:988  string str = \"wewerwer\" */\n  mload(0x40)\n  dup1\n  0x40\n  add\n  0x40\n  mstore\n  dup1\n  0x08\n  dup2\n  mstore\n  0x20\n  add\n  0x7765776572776572000000000000000000000000000000000000000000000000\n  dup2\n  mstore\n  pop\n  0x0d\n  swap1\n  dup2\n  tag_13\n  swap2\n  swap1\n  tag_14\n  jump\t// in\ntag_13:\n  pop\n    /* \"solidity-study/solidity-1base/7/ArrayDemo.sol\":62:1717  contract ArrayDemo{... */\n  callvalue\n  dup1\n  iszero\n  tag_15\n  jumpi\n  0x00\n  dup1\n  revert\ntag_15:\n  pop\n  jump(tag_16)\ntag_2:\n  dup3\n  0x04\n  dup2\n  add\n  swap3\n  dup3\n  iszero\n  tag_17\n  jumpi\n  swap2\n  0x20\n  mul\n  dup3\n  add\ntag_18:\n  dup3\n  dup2\n  gt\n  iszero\n  tag_19\n  jumpi\n  dup3\n  mload\n  dup3\n  swap1\n  0xff\n  and\n  swap1\n  sstore\n  swap2\n  0x20\n  add\n  swap2\n  swap1\n  0x01\n  add\n  swap1\n  jump(tag_18)\ntag_19:\ntag_17:\n  pop\n  swap1\n  pop\n  tag_20\n  swap2\n  swap1\n  tag_21\n  jump\t// in\ntag_20:\n  pop\n  swap1\n  jump\t// out\ntag_4:\n  dup3\n  dup1\n  sload\n  dup3\n  dup3\n  sstore\n  swap1\n  0x00\n  mstore\n  keccak256(0x00, 0x20)\n  swap1\n  dup2\n  add\n  swap3\n  dup3\n  iszero\n  tag_22\n  jumpi\n  swap2\n  0x20\n  mul\n  dup3\n  add\ntag_23:\n  dup3\n  dup2\n  gt\n  iszero\n  tag_24\n  jumpi\n  dup3\n  mload\n  dup3\n  swap1\n  0xff\n  and\n  swap1\n  sstore\n  swap2\n  0x20\n  add\n  swap2\n  swap1\n  0x01\n  add\n  swap1\n  jump(tag_23)\ntag_24:\ntag_22:\n  pop\n  swap1\n  pop\n  tag_25\n  swap2\n  swap1\n  tag_21\n  jump\t// in\ntag_25:\n  pop\n  swap1\n  jump\t// out\ntag_21:\ntag_26:\n  dup1\n  dup3\n  gt\n  iszero\n  tag_27\n  jumpi\n  0x00\n  dup2\n  0x00\n  swap1\n  sstore\n  pop\n  0x01\n  add\n  jump(tag_26)\ntag_27:\n  pop\n  swap1\n  jump\t// out\n    /* \"#utility.yul\":7:106   */\ntag_28:\n    /* \"#utility.yul\":59:65   */\n  0x00\n    /* \"#utility.yul\":93:98   */\n  dup2\n    /* \"#utility.yul\":87:99   */\n  mload\n    /* \"#utility.yul\":77:99   */\n  swap1\n  pop\n    /* \"#utility.yul\":7:106   */\n  swap2\n  swap1\n  pop\n  jump\t// out\n    /* \"#utility.yul\":112:292   */\ntag_9:\n    /* \"#utility.yul\":160:237   */\n  0x4e487b7100000000000000000000000000000000000000000000000000000000\n    /* \"#utility.yul\":157:158   */\n  0x00\n    /* \"#utility.yul\":150:238   */\n  mstore\n    /* \"#utility.yul\":257:261   */\n  0x41\n    /* \"#utility.yul\":254:255   */\n  0x04\n    /* \"#utility.yul\":247:262   */\n  mstore\n    /* \"#utility.yul\":281:285   */\n  0x24\n    /* \"#utility.yul\":278:279   */\n  0x00\n    /* \"#utility.yul\":271:286   */\n  revert\n    /* \"#utility.yul\":298:478   */\ntag_29:\n    /* \"#utility.yul\":346:423   */\n  0x4e487b7100000000000000000000000000000000000000000000000000000000\n    /* \"#utility.yul\":343:344   */\n  0x00\n    /* \"#utility.yul\":336:424   */\n  mstore\n    /* \"#utility.yul\":443:447   */\n  0x22\n    /* \"#utility.yul\":440:441   */\n  0x04\n    /* \"#utility.yul\":433:448   */\n  mstore\n    /* \"#utility.yul\":467:471   */\n  0x24\n    /* \"#utility.yul\":464:465   */\n  0x00\n    /* \"#utility.yul\":457:472   */\n  revert\n    /* \"#utility.yul\":484:804   */\ntag_30:\n    /* \"#utility.yul\":528:534   */\n  0x00\n    /* \"#utility.yul\":565:566   */\n  0x02\n    /* \"#utility.yul\":559:563   */\n  dup3\n    /* \"#utility.yul\":555:567   */\n  div\n    /* \"#utility.yul\":545:567   */\n  swap1\n  pop\n    /* \"#utility.yul\":612:613   */\n  0x01\n    /* \"#utility.yul\":606:610   */\n  dup3\n    /* \"#utility.yul\":602:614   */\n  and\n    /* \"#utility.yul\":633:651   */\n  dup1\n    /* \"#utility.yul\":623:704   */\n  tag_55\n  jumpi\n    /* \"#utility.yul\":689:693   */\n  0x7f\n    /* \"#utility.yul\":681:687   */\n  dup3\n    /* \"#utility.yul\":677:694   */\n  and\n    /* \"#utility.yul\":667:694   */\n  swap2\n  pop\n    /* \"#utility.yul\":623:704   */\ntag_55:\n    /* \"#utility.yul\":751:753   */\n  0x20\n    /* \"#utility.yul\":743:749   */\n  dup3\n    /* \"#utility.yul\":740:754   */\n  lt\n    /* \"#utility.yul\":720:738   */\n  dup2\n    /* \"#utility.yul\":717:755   */\n  sub\n    /* \"#utility.yul\":714:798   */\n  tag_56\n  jumpi\n    /* \"#utility.yul\":770:788   */\n  tag_57\n  tag_29\n  jump\t// in\ntag_57:\n    /* \"#utility.yul\":714:798   */\ntag_56:\n    /* \"#utility.yul\":535:804   */\n  pop\n    /* \"#utility.yul\":484:804   */\n  swap2\n  swap1\n  pop\n  jump\t// out\n    /* \"#utility.yul\":810:950   */\ntag_31:\n    /* \"#utility.yul\":858:862   */\n  0x00\n    /* \"#utility.yul\":881:884   */\n  dup2\n    /* \"#utility.yul\":873:884   */\n  swap1\n  pop\n    /* \"#utility.yul\":904:907   */\n  dup2\n    /* \"#utility.yul\":901:902   */\n  0x00\n    /* \"#utility.yul\":894:908   */\n  mstore\n    /* \"#utility.yul\":938:942   */\n  0x20\n    /* \"#utility.yul\":935:936   */\n  0x00\n    /* \"#utility.yul\":925:943   */\n  keccak256\n    /* \"#utility.yul\":917:943   */\n  swap1\n  pop\n    /* \"#utility.yul\":810:950   */\n  swap2\n  swap1\n  pop\n  jump\t// out\n    /* \"#utility.yul\":956:1049   */\ntag_32:\n    /* \"#utility.yul\":993:999   */\n  0x00\n    /* \"#utility.yul\":1040:1042   */\n  0x20\n    /* \"#utility.yul\":1035:1037   */\n  0x1f\n    /* \"#utility.yul\":1028:1033   */\n  dup4\n    /* \"#utility.yul\":1024:1038   */\n  add\n    /* \"#utility.yul\":1020:1043   */\n  div\n    /* \"#utility.yul\":1010:1043   */\n  swap1\n  pop\n    /* \"#utility.yul\":956:1049   */\n  swap2\n  swap1\n  pop\n  jump\t// out\n    /* \"#utility.yul\":1055:1162   */\ntag_33:\n    /* \"#utility.yul\":1099:1107   */\n  0x00\n    /* \"#utility.yul\":1149:1154   */\n  dup3\n    /* \"#utility.yul\":1143:1147   */\n  dup3\n    /* \"#utility.yul\":1139:1155   */\n  shl\n    /* \"#utility.yul\":1118:1155   */\n  swap1\n  pop\n    /* \"#utility.yul\":1055:1162   */\n  swap3\n  swap2\n  pop\n  pop\n  jump\t// out\n    /* \"#utility.yul\":1168:1561   */\ntag_34:\n    /* \"#utility.yul\":1237:1243   */\n  0x00\n    /* \"#utility.yul\":1287:1288   */\n  0x08\n    /* \"#utility.yul\":1275:1285   */\n  dup4\n    /* \"#utility.yul\":1271:1289   */\n  mul\n    /* \"#utility.yul\":1310:1407   */\n  tag_62\n    /* \"#utility.yul\":1340:1406   */\n  0xffffffffffffffffffffffffffffffffffffffffffffffffffffffffffffffff\n    /* \"#utility.yul\":1329:1338   */\n  dup3\n    /* \"#utility.yul\":1310:1407   */\n  tag_33\n  jump\t// in\ntag_62:\n    /* \"#utility.yul\":1428:1467   */\n  tag_63\n    /* \"#utility.yul\":1458:1466   */\n  dup7\n    /* \"#utility.yul\":1447:1456   */\n  dup4\n    /* \"#utility.yul\":1428:1467   */\n  tag_33\n  jump\t// in\ntag_63:\n    /* \"#utility.yul\":1416:1467   */\n  swap6\n  pop\n    /* \"#utility.yul\":1500:1504   */\n  dup1\n    /* \"#utility.yul\":1496:1505   */\n  not\n    /* \"#utility.yul\":1489:1494   */\n  dup5\n    /* \"#utility.yul\":1485:1506   */\n  and\n    /* \"#utility.yul\":1476:1506   */\n  swap4\n  pop\n    /* \"#utility.yul\":1549:1553   */\n  dup1\n    /* \"#utility.yul\":1539:1547   */\n  dup7\n    /* \"#utility.yul\":1535:1554   */\n  and\n    /* \"#utility.yul\":1528:1533   */\n  dup5\n    /* \"#utility.yul\":1525:1555   */\n  or\n    /* \"#utility.yul\":1515:1555   */\n  swap3\n  pop\n    /* \"#utility.yul\":1244:1561   */\n  pop\n  pop\n    /* \"#utility.yul\":1168:1561   */\n  swap4\n  swap3\n  pop\n  pop\n  pop\n  jump\t// out\n    /* \"#utility.yul\":1567:1644   */\ntag_35:\n    /* \"#utility.yul\":1604:1611   */\n  0x00\n    /* \"#utility.yul\":1633:1638   */\n  dup2\n    /* \"#utility.yul\":1622:1638   */\n  swap1\n  pop\n    /* \"#utility.yul\":1567:1644   */\n  swap2\n  swap1\n  pop\n  jump\t// out\n    /* \"#utility.yul\":1650:1710   */\ntag_36:\n    /* \"#utility.yul\":1678:1681   */\n  0x00\n    /* \"#utility.yul\":1699:1704   */\n  dup2\n    /* \"#utility.yul\":1692:1704   */\n  swap1\n  pop\n    /* \"#utility.yul\":1650:1710   */\n  swap2\n  swap1\n  pop\n  jump\t// out\n    /* \"#utility.yul\":1716:1858   */\ntag_37:\n    /* \"#utility.yul\":1766:1775   */\n  0x00\n    /* \"#utility.yul\":1799:1852   */\n  tag_67\n    /* \"#utility.yul\":1817:1851   */\n  tag_68\n    /* \"#utility.yul\":1826:1850   */\n  tag_69\n    /* \"#utility.yul\":1844:1849   */\n  dup5\n    /* \"#utility.yul\":1826:1850   */\n  tag_35\n  jump\t// in\ntag_69:\n    /* \"#utility.yul\":1817:1851   */\n  tag_36\n  jump\t// in\ntag_68:\n    /* \"#utility.yul\":1799:1852   */\n  tag_35\n  jump\t// in\ntag_67:\n    /* \"#utility.yul\":1786:1852   */\n  swap1\n  pop\n    /* \"#utility.yul\":1716:1858   */\n  swap2\n  swap1\n  pop\n  jump\t// out\n    /* \"#utility.yul\":1864:1939   */\ntag_38:\n    /* \"#utility.yul\":1907:1910   */\n  0x00\n    /* \"#utility.yul\":1928:1933   */\n  dup2\n    /* \"#utility.yul\":1921:1933   */\n  swap1\n  pop\n    /* \"#utility.yul\":1864:1939   */\n  swap2\n  swap1\n  pop\n  jump\t// out\n    /* \"#utility.yul\":1945:2214   */\ntag_39:\n    /* \"#utility.yul\":2055:2094   */\n  tag_72\n    /* \"#utility.yul\":2086:2093   */\n  dup4\n    /* \"#utility.yul\":2055:2094   */\n  tag_37\n  jump\t// in\ntag_72:\n    /* \"#utility.yul\":2116:2207   */\n  tag_73\n    /* \"#utility.yul\":2165:2206   */\n  tag_74\n    /* \"#utility.yul\":2189:2205   */\n  dup3\n    /* \"#utility.yul\":2165:2206   */\n  tag_38\n  jump\t// in\ntag_74:\n    /* \"#utility.yul\":2157:2163   */\n  dup5\n    /* \"#utility.yul\":2150:2154   */\n  dup5\n    /* \"#utility.yul\":2144:2155   */\n  sload\n    /* \"#utility.yul\":2116:2207   */\n  tag_34\n  jump\t// in\ntag_73:\n    /* \"#utility.yul\":2110:2114   */\n  dup3\n    /* \"#utility.yul\":2103:2208   */\n  sstore\n    /* \"#utility.yul\":2021:2214   */\n  pop\n    /* \"#utility.yul\":1945:2214   */\n  pop\n  pop\n  pop\n  jump\t// out\n    /* \"#utility.yul\":2220:2293   */\ntag_40:\n    /* \"#utility.yul\":2265:2268   */\n  0x00\n    /* \"#utility.yul\":2220:2293   */\n  swap1\n  jump\t// out\n    /* \"#utility.yul\":2299:2488   */\ntag_41:\n    /* \"#utility.yul\":2376:2408   */\n  tag_77\n  tag_40\n  jump\t// in\ntag_77:\n    /* \"#utility.yul\":2417:2482   */\n  tag_78\n    /* \"#utility.yul\":2475:2481   */\n  dup2\n    /* \"#utility.yul\":2467:2473   */\n  dup5\n    /* \"#utility.yul\":2461:2465   */\n  dup5\n    /* \"#utility.yul\":2417:2482   */\n  tag_39\n  jump\t// in\ntag_78:\n    /* \"#utility.yul\":2352:2488   */\n  pop\n    /* \"#utility.yul\":2299:2488   */\n  pop\n  pop\n  jump\t// out\n    /* \"#utility.yul\":2494:2680   */\ntag_42:\n    /* \"#utility.yul\":2554:2674   */\ntag_80:\n    /* \"#utility.yul\":2571:2574   */\n  dup2\n    /* \"#utility.yul\":2564:2569   */\n  dup2\n    /* \"#utility.yul\":2561:2575   */\n  lt\n    /* \"#utility.yul\":2554:2674   */\n  iszero\n  tag_82\n  jumpi\n    /* \"#utility.yul\":2625:2664   */\n  tag_83\n    /* \"#utility.yul\":2662:2663   */\n  0x00\n    /* \"#utility.yul\":2655:2660   */\n  dup3\n    /* \"#utility.yul\":2625:2664   */\n  tag_41\n  jump\t// in\ntag_83:\n    /* \"#utility.yul\":2598:2599   */\n  0x01\n    /* \"#utility.yul\":2591:2596   */\n  dup2\n    /* \"#utility.yul\":2587:2600   */\n  add\n    /* \"#utility.yul\":2578:2600   */\n  swap1\n  pop\n    /* \"#utility.yul\":2554:2674   */\n  jump(tag_80)\ntag_82:\n    /* \"#utility.yul\":2494:2680   */\n  pop\n  pop\n  jump\t// out\n    /* \"#utility.yul\":2686:3227   */\ntag_43:\n    /* \"#utility.yul\":2786:2788   */\n  0x1f\n    /* \"#utility.yul\":2781:2784   */\n  dup3\n    /* \"#utility.yul\":2778:2789   */\n  gt\n    /* \"#utility.yul\":2775:3220   */\n  iszero\n  tag_85\n  jumpi\n    /* \"#utility.yul\":2820:2857   */\n  tag_86\n    /* \"#utility.yul\":2851:2856   */\n  dup2\n    /* \"#utility.yul\":2820:2857   */\n  tag_31\n  jump\t// in\ntag_86:\n    /* \"#utility.yul\":2903:2932   */\n  tag_87\n    /* \"#utility.yul\":2921:2931   */\n  dup5\n    /* \"#utility.yul\":2903:2932   */\n  tag_32\n  jump\t// in\ntag_87:\n    /* \"#utility.yul\":2893:2901   */\n  dup2\n    /* \"#utility.yul\":2889:2933   */\n  add\n    /* \"#utility.yul\":3086:3088   */\n  0x20\n    /* \"#utility.yul\":3074:3084   */\n  dup6\n    /* \"#utility.yul\":3071:3089   */\n  lt\n    /* \"#utility.yul\":3068:3117   */\n  iszero\n  tag_88\n  jumpi\n    /* \"#utility.yul\":3107:3115   */\n  dup2\n    /* \"#utility.yul\":3092:3115   */\n  swap1\n  pop\n    /* \"#utility.yul\":3068:3117   */\ntag_88:\n    /* \"#utility.yul\":3130:3210   */\n  tag_89\n    /* \"#utility.yul\":3186:3208   */\n  tag_90\n    /* \"#utility.yul\":3204:3207   */\n  dup6\n    /* \"#utility.yul\":3186:3208   */\n  tag_32\n  jump\t// in\ntag_90:\n    /* \"#utility.yul\":3176:3184   */\n  dup4\n    /* \"#utility.yul\":3172:3209   */\n  add\n    /* \"#utility.yul\":3159:3170   */\n  dup3\n    /* \"#utility.yul\":3130:3210   */\n  tag_42\n  jump\t// in\ntag_89:\n    /* \"#utility.yul\":2790:3220   */\n  pop\n  pop\n    /* \"#utility.yul\":2775:3220   */\ntag_85:\n    /* \"#utility.yul\":2686:3227   */\n  pop\n  pop\n  pop\n  jump\t// out\n    /* \"#utility.yul\":3233:3350   */\ntag_44:\n    /* \"#utility.yul\":3287:3295   */\n  0x00\n    /* \"#utility.yul\":3337:3342   */\n  dup3\n    /* \"#utility.yul\":3331:3335   */\n  dup3\n    /* \"#utility.yul\":3327:3343   */\n  shr\n    /* \"#utility.yul\":3306:3343   */\n  swap1\n  pop\n    /* \"#utility.yul\":3233:3350   */\n  swap3\n  swap2\n  pop\n  pop\n  jump\t// out\n    /* \"#utility.yul\":3356:3525   */\ntag_45:\n    /* \"#utility.yul\":3400:3406   */\n  0x00\n    /* \"#utility.yul\":3433:3484   */\n  tag_93\n    /* \"#utility.yul\":3481:3482   */\n  0x00\n    /* \"#utility.yul\":3477:3483   */\n  not\n    /* \"#utility.yul\":3469:3474   */\n  dup5\n    /* \"#utility.yul\":3466:3467   */\n  0x08\n    /* \"#utility.yul\":3462:3475   */\n  mul\n    /* \"#utility.yul\":3433:3484   */\n  tag_44\n  jump\t// in\ntag_93:\n    /* \"#utility.yul\":3429:3485   */\n  not\n    /* \"#utility.yul\":3514:3518   */\n  dup1\n    /* \"#utility.yul\":3508:3512   */\n  dup4\n    /* \"#utility.yul\":3504:3519   */\n  and\n    /* \"#utility.yul\":3494:3519   */\n  swap2\n  pop\n    /* \"#utility.yul\":3407:3525   */\n  pop\n    /* \"#utility.yul\":3356:3525   */\n  swap3\n  swap2\n  pop\n  pop\n  jump\t// out\n    /* \"#utility.yul\":3530:3825   */\ntag_46:\n    /* \"#utility.yul\":3606:3610   */\n  0x00\n    /* \"#utility.yul\":3752:3781   */\n  tag_95\n    /* \"#utility.yul\":3777:3780   */\n  dup4\n    /* \"#utility.yul\":3771:3775   */\n  dup4\n    /* \"#utility.yul\":3752:3781   */\n  tag_45\n  jump\t// in\ntag_95:\n    /* \"#utility.yul\":3744:3781   */\n  swap2\n  pop\n    /* \"#utility.yul\":3814:3817   */\n  dup3\n    /* \"#utility.yul\":3811:3812   */\n  0x02\n    /* \"#utility.yul\":3807:3818   */\n  mul\n    /* \"#utility.yul\":3801:3805   */\n  dup3\n    /* \"#utility.yul\":3798:3819   */\n  or\n    /* \"#utility.yul\":3790:3819   */\n  swap1\n  pop\n    /* \"#utility.yul\":3530:3825   */\n  swap3\n  swap2\n  pop\n  pop\n  jump\t// out\n    /* \"#utility.yul\":3830:5222   */\ntag_6:\n    /* \"#utility.yul\":3946:3983   */\n  tag_97\n    /* \"#utility.yul\":3979:3982   */\n  dup3\n    /* \"#utility.yul\":3946:3983   */\n  tag_28\n  jump\t// in\ntag_97:\n    /* \"#utility.yul\":4048:4066   */\n  0xffffffffffffffff\n    /* \"#utility.yul\":4040:4046   */\n  dup2\n    /* \"#utility.yul\":4037:4067   */\n  gt\n    /* \"#utility.yul\":4034:4090   */\n  iszero\n  tag_98\n  jumpi\n    /* \"#utility.yul\":4070:4088   */\n  tag_99\n  tag_9\n  jump\t// in\ntag_99:\n    /* \"#utility.yul\":4034:4090   */\ntag_98:\n    /* \"#utility.yul\":4114:4152   */\n  tag_100\n    /* \"#utility.yul\":4146:4150   */\n  dup3\n    /* \"#utility.yul\":4140:4151   */\n  sload\n    /* \"#utility.yul\":4114:4152   */\n  tag_30\n  jump\t// in\ntag_100:\n    /* \"#utility.yul\":4199:4265   */\n  tag_101\n    /* \"#utility.yul\":4258:4264   */\n  dup3\n    /* \"#utility.yul\":4250:4256   */\n  dup3\n    /* \"#utility.yul\":4244:4248   */\n  dup6\n    /* \"#utility.yul\":4199:4265   */\n  tag_43\n  jump\t// in\ntag_101:\n    /* \"#utility.yul\":4292:4293   */\n  0x00\n    /* \"#utility.yul\":4316:4320   */\n  0x20\n    /* \"#utility.yul\":4303:4320   */\n  swap1\n  pop\n    /* \"#utility.yul\":4348:4350   */\n  0x1f\n    /* \"#utility.yul\":4340:4346   */\n  dup4\n    /* \"#utility.yul\":4337:4351   */\n  gt\n    /* \"#utility.yul\":4365:4366   */\n  0x01\n    /* \"#utility.yul\":4360:4977   */\n  dup2\n  eq\n  tag_103\n  jumpi\n    /* \"#utility.yul\":5021:5022   */\n  0x00\n    /* \"#utility.yul\":5038:5044   */\n  dup5\n    /* \"#utility.yul\":5035:5112   */\n  iszero\n  tag_104\n  jumpi\n    /* \"#utility.yul\":5087:5096   */\n  dup3\n    /* \"#utility.yul\":5082:5085   */\n  dup8\n    /* \"#utility.yul\":5078:5097   */\n  add\n    /* \"#utility.yul\":5072:5098   */\n  mload\n    /* \"#utility.yul\":5063:5098   */\n  swap1\n  pop\n    /* \"#utility.yul\":5035:5112   */\ntag_104:\n    /* \"#utility.yul\":5138:5205   */\n  tag_105\n    /* \"#utility.yul\":5198:5204   */\n  dup6\n    /* \"#utility.yul\":5191:5196   */\n  dup3\n    /* \"#utility.yul\":5138:5205   */\n  tag_46\n  jump\t// in\ntag_105:\n    /* \"#utility.yul\":5132:5136   */\n  dup7\n    /* \"#utility.yul\":5125:5206   */\n  sstore\n    /* \"#utility.yul\":4994:5216   */\n  pop\n    /* \"#utility.yul\":4330:5216   */\n  jump(tag_102)\n    /* \"#utility.yul\":4360:4977   */\ntag_103:\n    /* \"#utility.yul\":4412:4416   */\n  0x1f\n    /* \"#utility.yul\":4408:4417   */\n  not\n    /* \"#utility.yul\":4400:4406   */\n  dup5\n    /* \"#utility.yul\":4396:4418   */\n  and\n    /* \"#utility.yul\":4446:4482   */\n  tag_106\n    /* \"#utility.yul\":4477:4481   */\n  dup7\n    /* \"#utility.yul\":4446:4482   */\n  tag_31\n  jump\t// in\ntag_106:\n    /* \"#utility.yul\":4504:4505   */\n  0x00\n    /* \"#utility.yul\":4518:4726   */\ntag_107:\n    /* \"#utility.yul\":4532:4539   */\n  dup3\n    /* \"#utility.yul\":4529:4530   */\n  dup2\n    /* \"#utility.yul\":4526:4540   */\n  lt\n    /* \"#utility.yul\":4518:4726   */\n  iszero\n  tag_109\n  jumpi\n    /* \"#utility.yul\":4611:4620   */\n  dup5\n    /* \"#utility.yul\":4606:4609   */\n  dup10\n    /* \"#utility.yul\":4602:4621   */\n  add\n    /* \"#utility.yul\":4596:4622   */\n  mload\n    /* \"#utility.yul\":4588:4594   */\n  dup3\n    /* \"#utility.yul\":4581:4623   */\n  sstore\n    /* \"#utility.yul\":4662:4663   */\n  0x01\n    /* \"#utility.yul\":4654:4660   */\n  dup3\n    /* \"#utility.yul\":4650:4664   */\n  add\n    /* \"#utility.yul\":4640:4664   */\n  swap2\n  pop\n    /* \"#utility.yul\":4709:4711   */\n  0x20\n    /* \"#utility.yul\":4698:4707   */\n  dup6\n    /* \"#utility.yul\":4694:4712   */\n  add\n    /* \"#utility.yul\":4681:4712   */\n  swap5\n  pop\n    /* \"#utility.yul\":4555:4559   */\n  0x20\n    /* \"#utility.yul\":4552:4553   */\n  dup2\n    /* \"#utility.yul\":4548:4560   */\n  add\n    /* \"#utility.yul\":4543:4560   */\n  swap1\n  pop\n    /* \"#utility.yul\":4518:4726   */\n  jump(tag_107)\ntag_109:\n    /* \"#utility.yul\":4754:4760   */\n  dup7\n    /* \"#utility.yul\":4745:4752   */\n  dup4\n    /* \"#utility.yul\":4742:4761   */\n  lt\n    /* \"#utility.yul\":4739:4918   */\n  iszero\n  tag_110\n  jumpi\n    /* \"#utility.yul\":4812:4821   */\n  dup5\n    /* \"#utility.yul\":4807:4810   */\n  dup10\n    /* \"#utility.yul\":4803:4822   */\n  add\n    /* \"#utility.yul\":4797:4823   */\n  mload\n    /* \"#utility.yul\":4855:4903   */\n  tag_111\n    /* \"#utility.yul\":4897:4901   */\n  0x1f\n    /* \"#utility.yul\":4889:4895   */\n  dup10\n    /* \"#utility.yul\":4885:4902   */\n  and\n    /* \"#utility.yul\":4874:4883   */\n  dup3\n    /* \"#utility.yul\":4855:4903   */\n  tag_45\n  jump\t// in\ntag_111:\n    /* \"#utility.yul\":4847:4853   */\n  dup4\n    /* \"#utility.yul\":4840:4904   */\n  sstore\n    /* \"#utility.yul\":4762:4918   */\n  pop\n    /* \"#utility.yul\":4739:4918   */\ntag_110:\n    /* \"#utility.yul\":4964:4965   */\n  0x01\n    /* \"#utility.yul\":4960:4961   */\n  0x02\n    /* \"#utility.yul\":4952:4958   */\n  dup9\n    /* \"#utility.yul\":4948:4962   */\n  mul\n    /* \"#utility.yul\":4944:4966   */\n  add\n    /* \"#utility.yul\":4938:4942   */\n  dup9\n    /* \"#utility.yul\":4931:4967   */\n  sstore\n    /* \"#utility.yul\":4367:4977   */\n  pop\n  pop\n  pop\n    /* \"#utility.yul\":4330:5216   */\ntag_102:\n  pop\n    /* \"#utility.yul\":3921:5222   */\n  pop\n  pop\n  pop\n    /* \"#utility.yul\":3830:5222   */\n  pop\n  pop\n  jump\t// out\n    /* \"#utility.yul\":5228:5326   */\ntag_47:\n    /* \"#utility.yul\":5279:5285   */\n  0x00\n    /* \"#utility.yul\":5313:5318   */\n  dup2\n    /* \"#utility.yul\":5307:5319   */\n  mload\n    /* \"#utility.yul\":5297:5319   */\n  swap1\n  pop\n    /* \"#utility.yul\":5228:5326   */\n  swap2\n  swap1\n  pop\n  jump\t// out\n    /* \"#utility.yul\":5332:6722   */\ntag_12:\n    /* \"#utility.yul\":5447:5483   */\n  tag_114\n    /* \"#utility.yul\":5479:5482   */\n  dup3\n    /* \"#utility.yul\":5447:5483   */\n  tag_47\n  jump\t// in\ntag_114:\n    /* \"#utility.yul\":5548:5566   */\n  0xffffffffffffffff\n    /* \"#utility.yul\":5540:5546   */\n  dup2\n    /* \"#utility.yul\":5537:5567   */\n  gt\n    /* \"#utility.yul\":5534:5590   */\n  iszero\n  tag_115\n  jumpi\n    /* \"#utility.yul\":5570:5588   */\n  tag_116\n  tag_9\n  jump\t// in\ntag_116:\n    /* \"#utility.yul\":5534:5590   */\ntag_115:\n    /* \"#utility.yul\":5614:5652   */\n  tag_117\n    /* \"#utility.yul\":5646:5650   */\n  dup3\n    /* \"#utility.yul\":5640:5651   */\n  sload\n    /* \"#utility.yul\":5614:5652   */\n  tag_30\n  jump\t// in\ntag_117:\n    /* \"#utility.yul\":5699:5765   */\n  tag_118\n    /* \"#utility.yul\":5758:5764   */\n  dup3\n    /* \"#utility.yul\":5750:5756   */\n  dup3\n    /* \"#utility.yul\":5744:5748   */\n  dup6\n    /* \"#utility.yul\":5699:5765   */\n  tag_43\n  jump\t// in\ntag_118:\n    /* \"#utility.yul\":5792:5793   */\n  0x00\n    /* \"#utility.yul\":5816:5820   */\n  0x20\n    /* \"#utility.yul\":5803:5820   */\n  swap1\n  pop\n    /* \"#utility.yul\":5848:5850   */\n  0x1f\n    /* \"#utility.yul\":5840:5846   */\n  dup4\n    /* \"#utility.yul\":5837:5851   */\n  gt\n    /* \"#utility.yul\":5865:5866   */\n  0x01\n    /* \"#utility.yul\":5860:6477   */\n  dup2\n  eq\n  tag_120\n  jumpi\n    /* \"#utility.yul\":6521:6522   */\n  0x00\n    /* \"#utility.yul\":6538:6544   */\n  dup5\n    /* \"#utility.yul\":6535:6612   */\n  iszero\n  tag_121\n  jumpi\n    /* \"#utility.yul\":6587:6596   */\n  dup3\n    /* \"#utility.yul\":6582:6585   */\n  dup8\n    /* \"#utility.yul\":6578:6597   */\n  add\n    /* \"#utility.yul\":6572:6598   */\n  mload\n    /* \"#utility.yul\":6563:6598   */\n  swap1\n  pop\n    /* \"#utility.yul\":6535:6612   */\ntag_121:\n    /* \"#utility.yul\":6638:6705   */\n  tag_122\n    /* \"#utility.yul\":6698:6704   */\n  dup6\n    /* \"#utility.yul\":6691:6696   */\n  dup3\n    /* \"#utility.yul\":6638:6705   */\n  tag_46\n  jump\t// in\ntag_122:\n    /* \"#utility.yul\":6632:6636   */\n  dup7\n    /* \"#utility.yul\":6625:6706   */\n  sstore\n    /* \"#utility.yul\":6494:6716   */\n  pop\n    /* \"#utility.yul\":5830:6716   */\n  jump(tag_119)\n    /* \"#utility.yul\":5860:6477   */\ntag_120:\n    /* \"#utility.yul\":5912:5916   */\n  0x1f\n    /* \"#utility.yul\":5908:5917   */\n  not\n    /* \"#utility.yul\":5900:5906   */\n  dup5\n    /* \"#utility.yul\":5896:5918   */\n  and\n    /* \"#utility.yul\":5946:5982   */\n  tag_123\n    /* \"#utility.yul\":5977:5981   */\n  dup7\n    /* \"#utility.yul\":5946:5982   */\n  tag_31\n  jump\t// in\ntag_123:\n    /* \"#utility.yul\":6004:6005   */\n  0x00\n    /* \"#utility.yul\":6018:6226   */\ntag_124:\n    /* \"#utility.yul\":6032:6039   */\n  dup3\n    /* \"#utility.yul\":6029:6030   */\n  dup2\n    /* \"#utility.yul\":6026:6040   */\n  lt\n    /* \"#utility.yul\":6018:6226   */\n  iszero\n  tag_126\n  jumpi\n    /* \"#utility.yul\":6111:6120   */\n  dup5\n    /* \"#utility.yul\":6106:6109   */\n  dup10\n    /* \"#utility.yul\":6102:6121   */\n  add\n    /* \"#utility.yul\":6096:6122   */\n  mload\n    /* \"#utility.yul\":6088:6094   */\n  dup3\n    /* \"#utility.yul\":6081:6123   */\n  sstore\n    /* \"#utility.yul\":6162:6163   */\n  0x01\n    /* \"#utility.yul\":6154:6160   */\n  dup3\n    /* \"#utility.yul\":6150:6164   */\n  add\n    /* \"#utility.yul\":6140:6164   */\n  swap2\n  pop\n    /* \"#utility.yul\":6209:6211   */\n  0x20\n    /* \"#utility.yul\":6198:6207   */\n  dup6\n    /* \"#utility.yul\":6194:6212   */\n  add\n    /* \"#utility.yul\":6181:6212   */\n  swap5\n  pop\n    /* \"#utility.yul\":6055:6059   */\n  0x20\n    /* \"#utility.yul\":6052:6053   */\n  dup2\n    /* \"#utility.yul\":6048:6060   */\n  add\n    /* \"#utility.yul\":6043:6060   */\n  swap1\n  pop\n    /* \"#utility.yul\":6018:6226   */\n  jump(tag_124)\ntag_126:\n    /* \"#utility.yul\":6254:6260   */\n  dup7\n    /* \"#utility.yul\":6245:6252   */\n  dup4\n    /* \"#utility.yul\":6242:6261   */\n  lt\n    /* \"#utility.yul\":6239:6418   */\n  iszero\n  tag_127\n  jumpi\n    /* \"#utility.yul\":6312:6321   */\n  dup5\n    /* \"#utility.yul\":6307:6310   */\n  dup10\n    /* \"#utility.yul\":6303:6322   */\n  add\n    /* \"#utility.yul\":6297:6323   */\n  mload\n    /* \"#utility.yul\":6355:6403   */\n  tag_128\n    /* \"#utility.yul\":6397:6401   */\n  0x1f\n    /* \"#utility.yul\":6389:6395   */\n  dup10\n    /* \"#utility.yul\":6385:6402   */\n  and\n    /* \"#utility.yul\":6374:6383   */\n  dup3\n    /* \"#utility.yul\":6355:6403   */\n  tag_45\n  jump\t// in\ntag_128:\n    /* \"#utility.yul\":6347:6353   */\n  dup4\n    /* \"#utility.yul\":6340:6404   */\n  sstore\n    /* \"#utility.yul\":6262:6418   */\n  pop\n    /* \"#utility.yul\":6239:6418   */\ntag_127:\n    /* \"#utility.yul\":6464:6465   */\n  0x01\n    /* \"#utility.yul\":6460:6461   */\n  0x02\n    /* \"#utility.yul\":6452:6458   */\n  dup9\n    /* \"#utility.yul\":6448:6462   */\n  mul\n    /* \"#utility.yul\":6444:6466   */\n  add\n    /* \"#utility.yul\":6438:6442   */\n  dup9\n    /* \"#utility.yul\":6431:6467   */\n  sstore\n    /* \"#utility.yul\":5867:6477   */\n  pop\n  pop\n  pop\n    /* \"#utility.yul\":5830:6716   */\ntag_119:\n  pop\n    /* \"#utility.yul\":5422:6722   */\n  pop\n  pop\n  pop\n    /* \"#utility.yul\":5332:6722   */\n  pop\n  pop\n  jump\t// out\n    /* \"#utility.yul\":6728:6869   */\ntag_48:\n    /* \"#utility.yul\":6777:6781   */\n  0x00\n    /* \"#utility.yul\":6800:6803   */\n  dup2\n    /* \"#utility.yul\":6792:6803   */\n  swap1\n  pop\n    /* \"#utility.yul\":6823:6826   */\n  dup2\n    /* \"#utility.yul\":6820:6821   */\n  0x00\n    /* \"#utility.yul\":6813:6827   */\n  mstore\n    /* \"#utility.yul\":6857:6861   */\n  0x20\n    /* \"#utility.yul\":6854:6855   */\n  0x00\n    /* \"#utility.yul\":6844:6862   */\n  keccak256\n    /* \"#utility.yul\":6836:6862   */\n  swap1\n  pop\n    /* \"#utility.yul\":6728:6869   */\n  swap2\n  swap1\n  pop\n  jump\t// out\n    /* \"#utility.yul\":6875:7418   */\ntag_49:\n    /* \"#utility.yul\":6976:6978   */\n  0x1f\n    /* \"#utility.yul\":6971:6974   */\n  dup3\n    /* \"#utility.yul\":6968:6979   */\n  gt\n    /* \"#utility.yul\":6965:7411   */\n  iszero\n  tag_131\n  jumpi\n    /* \"#utility.yul\":7010:7048   */\n  tag_132\n    /* \"#utility.yul\":7042:7047   */\n  dup2\n    /* \"#utility.yul\":7010:7048   */\n  tag_48\n  jump\t// in\ntag_132:\n    /* \"#utility.yul\":7094:7123   */\n  tag_133\n    /* \"#utility.yul\":7112:7122   */\n  dup5\n    /* \"#utility.yul\":7094:7123   */\n  tag_32\n  jump\t// in\ntag_133:\n    /* \"#utility.yul\":7084:7092   */\n  dup2\n    /* \"#utility.yul\":7080:7124   */\n  add\n    /* \"#utility.yul\":7277:7279   */\n  0x20\n    /* \"#utility.yul\":7265:7275   */\n  dup6\n    /* \"#utility.yul\":7262:7280   */\n  lt\n    /* \"#utility.yul\":7259:7308   */\n  iszero\n  tag_134\n  jumpi\n    /* \"#utility.yul\":7298:7306   */\n  dup2\n    /* \"#utility.yul\":7283:7306   */\n  swap1\n  pop\n    /* \"#utility.yul\":7259:7308   */\ntag_134:\n    /* \"#utility.yul\":7321:7401   */\n  tag_135\n    /* \"#utility.yul\":7377:7399   */\n  tag_136\n    /* \"#utility.yul\":7395:7398   */\n  dup6\n    /* \"#utility.yul\":7377:7399   */\n  tag_32\n  jump\t// in\ntag_136:\n    /* \"#utility.yul\":7367:7375   */\n  dup4\n    /* \"#utility.yul\":7363:7400   */\n  add\n    /* \"#utility.yul\":7350:7361   */\n  dup3\n    /* \"#utility.yul\":7321:7401   */\n  tag_42\n  jump\t// in\ntag_135:\n    /* \"#utility.yul\":6980:7411   */\n  pop\n  pop\n    /* \"#utility.yul\":6965:7411   */\ntag_131:\n    /* \"#utility.yul\":6875:7418   */\n  pop\n  pop\n  pop\n  jump\t// out\n    /* \"#utility.yul\":7424:8819   */\ntag_14:\n    /* \"#utility.yul\":7541:7578   */\n  tag_138\n    /* \"#utility.yul\":7574:7577   */\n  dup3\n    /* \"#utility.yul\":7541:7578   */\n  tag_28\n  jump\t// in\ntag_138:\n    /* \"#utility.yul\":7643:7661   */\n  0xffffffffffffffff\n    /* \"#utility.yul\":7635:7641   */\n  dup2\n    /* \"#utility.yul\":7632:7662   */\n  gt\n    /* \"#utility.yul\":7629:7685   */\n  iszero\n  tag_139\n  jumpi\n    /* \"#utility.yul\":7665:7683   */\n  tag_140\n  tag_9\n  jump\t// in\ntag_140:\n    /* \"#utility.yul\":7629:7685   */\ntag_139:\n    /* \"#utility.yul\":7709:7747   */\n  tag_141\n    /* \"#utility.yul\":7741:7745   */\n  dup3\n    /* \"#utility.yul\":7735:7746   */\n  sload\n    /* \"#utility.yul\":7709:7747   */\n  tag_30\n  jump\t// in\ntag_141:\n    /* \"#utility.yul\":7794:7861   */\n  tag_142\n    /* \"#utility.yul\":7854:7860   */\n  dup3\n    /* \"#utility.yul\":7846:7852   */\n  dup3\n    /* \"#utility.yul\":7840:7844   */\n  dup6\n    /* \"#utility.yul\":7794:7861   */\n  tag_49\n  jump\t// in\ntag_142:\n    /* \"#utility.yul\":7888:7889   */\n  0x00\n    /* \"#utility.yul\":7912:7916   */\n  0x20\n    /* \"#utility.yul\":7899:7916   */\n  swap1\n  pop\n    /* \"#utility.yul\":7944:7946   */\n  0x1f\n    /* \"#utility.yul\":7936:7942   */\n  dup4\n    /* \"#utility.yul\":7933:7947   */\n  gt\n    /* \"#utility.yul\":7961:7962   */\n  0x01\n    /* \"#utility.yul\":7956:8574   */\n  dup2\n  eq\n  tag_144\n  jumpi\n    /* \"#utility.yul\":8618:8619   */\n  0x00\n    /* \"#utility.yul\":8635:8641   */\n  dup5\n    /* \"#utility.yul\":8632:8709   */\n  iszero\n  tag_145\n  jumpi\n    /* \"#utility.yul\":8684:8693   */\n  dup3\n    /* \"#utility.yul\":8679:8682   */\n  dup8\n    /* \"#utility.yul\":8675:8694   */\n  add\n    /* \"#utility.yul\":8669:8695   */\n  mload\n    /* \"#utility.yul\":8660:8695   */\n  swap1\n  pop\n    /* \"#utility.yul\":8632:8709   */\ntag_145:\n    /* \"#utility.yul\":8735:8802   */\n  tag_146\n    /* \"#utility.yul\":8795:8801   */\n  dup6\n    /* \"#utility.yul\":8788:8793   */\n  dup3\n    /* \"#utility.yul\":8735:8802   */\n  tag_46\n  jump\t// in\ntag_146:\n    /* \"#utility.yul\":8729:8733   */\n  dup7\n    /* \"#utility.yul\":8722:8803   */\n  sstore\n    /* \"#utility.yul\":8591:8813   */\n  pop\n    /* \"#utility.yul\":7926:8813   */\n  jump(tag_143)\n    /* \"#utility.yul\":7956:8574   */\ntag_144:\n    /* \"#utility.yul\":8008:8012   */\n  0x1f\n    /* \"#utility.yul\":8004:8013   */\n  not\n    /* \"#utility.yul\":7996:8002   */\n  dup5\n    /* \"#utility.yul\":7992:8014   */\n  and\n    /* \"#utility.yul\":8042:8079   */\n  tag_147\n    /* \"#utility.yul\":8074:8078   */\n  dup7\n    /* \"#utility.yul\":8042:8079   */\n  tag_48\n  jump\t// in\ntag_147:\n    /* \"#utility.yul\":8101:8102   */\n  0x00\n    /* \"#utility.yul\":8115:8323   */\ntag_148:\n    /* \"#utility.yul\":8129:8136   */\n  dup3\n    /* \"#utility.yul\":8126:8127   */\n  dup2\n    /* \"#utility.yul\":8123:8137   */\n  lt\n    /* \"#utility.yul\":8115:8323   */\n  iszero\n  tag_150\n  jumpi\n    /* \"#utility.yul\":8208:8217   */\n  dup5\n    /* \"#utility.yul\":8203:8206   */\n  dup10\n    /* \"#utility.yul\":8199:8218   */\n  add\n    /* \"#utility.yul\":8193:8219   */\n  mload\n    /* \"#utility.yul\":8185:8191   */\n  dup3\n    /* \"#utility.yul\":8178:8220   */\n  sstore\n    /* \"#utility.yul\":8259:8260   */\n  0x01\n    /* \"#utility.yul\":8251:8257   */\n  dup3\n    /* \"#utility.yul\":8247:8261   */\n  add\n    /* \"#utility.yul\":8237:8261   */\n  swap2\n  pop\n    /* \"#utility.yul\":8306:8308   */\n  0x20\n    /* \"#utility.yul\":8295:8304   */\n  dup6\n    /* \"#utility.yul\":8291:8309   */\n  add\n    /* \"#utility.yul\":8278:8309   */\n  swap5\n  pop\n    /* \"#utility.yul\":8152:8156   */\n  0x20\n    /* \"#utility.yul\":8149:8150   */\n  dup2\n    /* \"#utility.yul\":8145:8157   */\n  add\n    /* \"#utility.yul\":8140:8157   */\n  swap1\n  pop\n    /* \"#utility.yul\":8115:8323   */\n  jump(tag_148)\ntag_150:\n    /* \"#utility.yul\":8351:8357   */\n  dup7\n    /* \"#utility.yul\":8342:8349   */\n  dup4\n    /* \"#utility.yul\":8339:8358   */\n  lt\n    /* \"#utility.yul\":8336:8515   */\n  iszero\n  tag_151\n  jumpi\n    /* \"#utility.yul\":8409:8418   */\n  dup5\n    /* \"#utility.yul\":8404:8407   */\n  dup10\n    /* \"#utility.yul\":8400:8419   */\n  add\n    /* \"#utility.yul\":8394:8420   */\n  mload\n    /* \"#utility.yul\":8452:8500   */\n  tag_152\n    /* \"#utility.yul\":8494:8498   */\n  0x1f\n    /* \"#utility.yul\":8486:8492   */\n  dup10\n    /* \"#utility.yul\":8482:8499   */\n  and\n    /* \"#utility.yul\":8471:8480   */\n  dup3\n    /* \"#utility.yul\":8452:8500   */\n  tag_45\n  jump\t// in\ntag_152:\n    /* \"#utility.yul\":8444:8450   */\n  dup4\n    /* \"#utility.yul\":8437:8501   */\n  sstore\n    /* \"#utility.yul\":8359:8515   */\n  pop\n    /* \"#utility.yul\":8336:8515   */\ntag_151:\n    /* \"#utility.yul\":8561:8562   */\n  0x01\n    /* \"#utility.yul\":8557:8558   */\n  0x02\n    /* \"#utility.yul\":8549:8555   */\n  dup9\n    /* \"#utility.yul\":8545:8559   */\n  mul\n    /* \"#utility.yul\":8541:8563   */\n  add\n    /* \"#utility.yul\":8535:8539   */\n  dup9\n    /* \"#utility.yul\":8528:8564   */\n  sstore\n    /* \"#utility.yul\":7963:8574   */\n  pop\n  pop\n  pop\n    /* \"#utility.yul\":7926:8813   */\ntag_143:\n  pop\n    /* \"#utility.yul\":7516:8819   */\n  pop\n  pop\n  pop\n    /* \"#utility.yul\":7424:8819   */\n  pop\n  pop\n  jump\t// out\n    /* \"solidity-study/solidity-1base/7/ArrayDemo.sol\":62:1717  contract ArrayDemo{... */\ntag_16:\n  dataSize(sub_0)\n  dup1\n  dataOffset(sub_0)\n  0x00\n  codecopy\n  0x00\n  return\nstop\n\nsub_0: assembly {\n        /* \"solidity-study/solidity-1base/7/ArrayDemo.sol\":62:1717  contract ArrayDemo{... */\n      mstore(0x40, 0x80)\n      callvalue\n      dup1\n      iszero\n      tag_1\n      jumpi\n      0x00\n      dup1\n      revert\n    tag_1:\n      pop\n      jumpi(tag_2, lt(calldatasize, 0x04))\n      shr(0xe0, calldataload(0x00))\n      dup1\n      0x576c8650\n      gt\n      tag_10\n      jumpi\n      dup1\n      0x576c8650\n      eq\n      tag_6\n      jumpi\n      dup1\n      0x5e49bb50\n      eq\n      tag_7\n      jumpi\n      dup1\n      0x853255cc\n      eq\n      tag_8\n      jumpi\n      dup1\n      0xaba63989\n      eq\n      tag_9\n      jumpi\n      jump(tag_2)\n    tag_10:\n      dup1\n      0x1003e2d2\n      eq\n      tag_3\n      jumpi\n      dup1\n      0x2c3e7e19\n      eq\n      tag_4\n      jumpi\n      dup1\n      0x4bae89cb\n      eq\n      tag_5\n      jumpi\n    tag_2:\n      0x00\n      dup1\n      revert\n        /* \"solidity-study/solidity-1base/7/ArrayDemo.sol\":1050:1161  function add(uint x) public {... */\n    tag_3:\n      tag_11\n      0x04\n      dup1\n      calldatasize\n      sub\n      dup2\n      add\n      swap1\n      tag_12\n      swap2\n      swap1\n      tag_13\n      jump\t// in\n    tag_12:\n      tag_14\n      jump\t// in\n    tag_11:\n      stop\n        /* \"solidity-study/solidity-1base/7/ArrayDemo.sol\":1357:1622  function deleteByValue(uint x) public returns(uint){... */\n    tag_4:\n      tag_15\n      0x04\n      dup1\n      calldatasize\n      sub\n      dup2\n      add\n      swap1\n      tag_16\n      swap2\n      swap1\n      tag_13\n      jump\t// in\n    tag_16:\n      tag_17\n      jump\t// in\n    tag_15:\n      mload(0x40)\n      tag_18\n      swap2\n      swap1\n      tag_19\n      jump\t// in\n    tag_18:\n      mload(0x40)\n      dup1\n      swap2\n      sub\n      swap1\n      return\n        /* \"solidity-study/solidity-1base/7/ArrayDemo.sol\":999:1019  uint[] public array1 */\n    tag_5:\n      tag_20\n      0x04\n      dup1\n      calldatasize\n      sub\n      dup2\n      add\n      swap1\n      tag_21\n      swap2\n      swap1\n      tag_13\n      jump\t// in\n    tag_21:\n      tag_22\n      jump\t// in\n    tag_20:\n      mload(0x40)\n      tag_23\n      swap2\n      swap1\n      tag_19\n      jump\t// in\n    tag_23:\n      mload(0x40)\n      dup1\n      swap2\n      sub\n      swap1\n      return\n        /* \"solidity-study/solidity-1base/7/ArrayDemo.sol\":276:300  uint[] public storageArr */\n    tag_6:\n      tag_24\n      0x04\n      dup1\n      calldatasize\n      sub\n      dup2\n      add\n      swap1\n      tag_25\n      swap2\n      swap1\n      tag_13\n      jump\t// in\n    tag_25:\n      tag_26\n      jump\t// in\n    tag_24:\n      mload(0x40)\n      tag_27\n      swap2\n      swap1\n      tag_19\n      jump\t// in\n    tag_27:\n      mload(0x40)\n      dup1\n      swap2\n      sub\n      swap1\n      return\n        /* \"solidity-study/solidity-1base/7/ArrayDemo.sol\":428:820  function methodx(uint[] calldata calldataArr) public returns(uint ){... */\n    tag_7:\n      tag_28\n      0x04\n      dup1\n      calldatasize\n      sub\n      dup2\n      add\n      swap1\n      tag_29\n      swap2\n      swap1\n      tag_30\n      jump\t// in\n    tag_29:\n      tag_31\n      jump\t// in\n    tag_28:\n      mload(0x40)\n      tag_32\n      swap2\n      swap1\n      tag_19\n      jump\t// in\n    tag_32:\n      mload(0x40)\n      dup1\n      swap2\n      sub\n      swap1\n      return\n        /* \"solidity-study/solidity-1base/7/ArrayDemo.sol\":1167:1351  function sum() public view returns(uint){... */\n    tag_8:\n      tag_33\n      tag_34\n      jump\t// in\n    tag_33:\n      mload(0x40)\n      tag_35\n      swap2\n      swap1\n      tag_19\n      jump\t// in\n    tag_35:\n      mload(0x40)\n      dup1\n      swap2\n      sub\n      swap1\n      return\n        /* \"solidity-study/solidity-1base/7/ArrayDemo.sol\":1628:1714  function printArr() public view returns(uint[] memory){... */\n    tag_9:\n      tag_36\n      tag_37\n      jump\t// in\n    tag_36:\n      mload(0x40)\n      tag_38\n      swap2\n      swap1\n      tag_39\n      jump\t// in\n    tag_38:\n      mload(0x40)\n      dup1\n      swap2\n      sub\n      swap1\n      return\n        /* \"solidity-study/solidity-1base/7/ArrayDemo.sol\":1050:1161  function add(uint x) public {... */\n    tag_14:\n        /* \"solidity-study/solidity-1base/7/ArrayDemo.sol\":1139:1145  array1 */\n      0x0e\n        /* \"solidity-study/solidity-1base/7/ArrayDemo.sol\":1151:1152  x */\n      dup2\n        /* \"solidity-study/solidity-1base/7/ArrayDemo.sol\":1139:1153  array1.push(x) */\n      swap1\n      dup1\n      0x01\n      dup2\n      sload\n      add\n      dup1\n      dup3\n      sstore\n      dup1\n      swap2\n      pop\n      pop\n      0x01\n      swap1\n      sub\n      swap1\n      0x00\n      mstore\n      keccak256(0x00, 0x20)\n      add\n      0x00\n      swap1\n      swap2\n      swap1\n      swap2\n      swap1\n      swap2\n      pop\n      sstore\n        /* \"solidity-study/solidity-1base/7/ArrayDemo.sol\":1050:1161  function add(uint x) public {... */\n      pop\n      jump\t// out\n        /* \"solidity-study/solidity-1base/7/ArrayDemo.sol\":1357:1622  function deleteByValue(uint x) public returns(uint){... */\n    tag_17:\n        /* \"solidity-study/solidity-1base/7/ArrayDemo.sol\":1403:1407  uint */\n      0x00\n        /* \"solidity-study/solidity-1base/7/ArrayDemo.sol\":1432:1438  uint y */\n      dup1\n        /* \"solidity-study/solidity-1base/7/ArrayDemo.sol\":1441:1442  0 */\n      0x00\n        /* \"solidity-study/solidity-1base/7/ArrayDemo.sol\":1432:1442  uint y = 0 */\n      swap1\n      pop\n        /* \"solidity-study/solidity-1base/7/ArrayDemo.sol\":1428:1615  for(uint y = 0 ;y < array1.length ; y++){... */\n    tag_43:\n        /* \"solidity-study/solidity-1base/7/ArrayDemo.sol\":1448:1454  array1 */\n      0x0e\n        /* \"solidity-study/solidity-1base/7/ArrayDemo.sol\":1448:1461  array1.length */\n      dup1\n      sload\n      swap1\n      pop\n        /* \"solidity-study/solidity-1base/7/ArrayDemo.sol\":1444:1445  y */\n      dup2\n        /* \"solidity-study/solidity-1base/7/ArrayDemo.sol\":1444:1461  y < array1.length */\n      lt\n        /* \"solidity-study/solidity-1base/7/ArrayDemo.sol\":1428:1615  for(uint y = 0 ;y < array1.length ; y++){... */\n      iszero\n      tag_44\n      jumpi\n        /* \"solidity-study/solidity-1base/7/ArrayDemo.sol\":1499:1500  x */\n      dup3\n        /* \"solidity-study/solidity-1base/7/ArrayDemo.sol\":1486:1492  array1 */\n      0x0e\n        /* \"solidity-study/solidity-1base/7/ArrayDemo.sol\":1493:1494  y */\n      dup3\n        /* \"solidity-study/solidity-1base/7/ArrayDemo.sol\":1486:1495  array1[y] */\n      dup2\n      sload\n      dup2\n      lt\n      tag_46\n      jumpi\n      tag_47\n      tag_48\n      jump\t// in\n    tag_47:\n    tag_46:\n      swap1\n      0x00\n      mstore\n      keccak256(0x00, 0x20)\n      add\n      sload\n        /* \"solidity-study/solidity-1base/7/ArrayDemo.sol\":1486:1500  array1[y] == x */\n      sub\n        /* \"solidity-study/solidity-1base/7/ArrayDemo.sol\":1483:1604  if(array1[y] == x){... */\n      tag_50\n      jumpi\n        /* \"solidity-study/solidity-1base/7/ArrayDemo.sol\":1532:1538  array1 */\n      0x0e\n        /* \"solidity-study/solidity-1base/7/ArrayDemo.sol\":1555:1556  1 */\n      0x01\n        /* \"solidity-study/solidity-1base/7/ArrayDemo.sol\":1539:1545  array1 */\n      0x0e\n        /* \"solidity-study/solidity-1base/7/ArrayDemo.sol\":1539:1552  array1.length */\n      dup1\n      sload\n      swap1\n      pop\n        /* \"solidity-study/solidity-1base/7/ArrayDemo.sol\":1539:1556  array1.length - 1 */\n      tag_51\n      swap2\n      swap1\n      tag_52\n      jump\t// in\n    tag_51:\n        /* \"solidity-study/solidity-1base/7/ArrayDemo.sol\":1532:1557  array1[array1.length - 1] */\n      dup2\n      sload\n      dup2\n      lt\n      tag_53\n      jumpi\n      tag_54\n      tag_48\n      jump\t// in\n    tag_54:\n    tag_53:\n      swap1\n      0x00\n      mstore\n      keccak256(0x00, 0x20)\n      add\n      sload\n        /* \"solidity-study/solidity-1base/7/ArrayDemo.sol\":1520:1526  array1 */\n      0x0e\n        /* \"solidity-study/solidity-1base/7/ArrayDemo.sol\":1527:1528  y */\n      dup3\n        /* \"solidity-study/solidity-1base/7/ArrayDemo.sol\":1520:1529  array1[y] */\n      dup2\n      sload\n      dup2\n      lt\n      tag_56\n      jumpi\n      tag_57\n      tag_48\n      jump\t// in\n    tag_57:\n    tag_56:\n      swap1\n      0x00\n      mstore\n      keccak256(0x00, 0x20)\n      add\n        /* \"solidity-study/solidity-1base/7/ArrayDemo.sol\":1520:1557  array1[y] = array1[array1.length - 1] */\n      dup2\n      swap1\n      sstore\n      pop\n        /* \"solidity-study/solidity-1base/7/ArrayDemo.sol\":1576:1582  array1 */\n      0x0e\n        /* \"solidity-study/solidity-1base/7/ArrayDemo.sol\":1576:1588  array1.pop() */\n      dup1\n      sload\n      dup1\n      tag_59\n      jumpi\n      tag_60\n      tag_61\n      jump\t// in\n    tag_60:\n    tag_59:\n      0x01\n      swap1\n      sub\n      dup2\n      dup2\n      swap1\n      0x00\n      mstore\n      keccak256(0x00, 0x20)\n      add\n      0x00\n      swap1\n      sstore\n      swap1\n      sstore\n        /* \"solidity-study/solidity-1base/7/ArrayDemo.sol\":1483:1604  if(array1[y] == x){... */\n    tag_50:\n        /* \"solidity-study/solidity-1base/7/ArrayDemo.sol\":1464:1467  y++ */\n      dup1\n      dup1\n      0x01\n      add\n      swap2\n      pop\n      pop\n        /* \"solidity-study/solidity-1base/7/ArrayDemo.sol\":1428:1615  for(uint y = 0 ;y < array1.length ; y++){... */\n      jump(tag_43)\n    tag_44:\n      pop\n        /* \"solidity-study/solidity-1base/7/ArrayDemo.sol\":1357:1622  function deleteByValue(uint x) public returns(uint){... */\n      swap2\n      swap1\n      pop\n      jump\t// out\n        /* \"solidity-study/solidity-1base/7/ArrayDemo.sol\":999:1019  uint[] public array1 */\n    tag_22:\n      0x0e\n      dup2\n      dup2\n      sload\n      dup2\n      lt\n      tag_63\n      jumpi\n      0x00\n      dup1\n      revert\n    tag_63:\n      swap1\n      0x00\n      mstore\n      keccak256(0x00, 0x20)\n      add\n      0x00\n      swap2\n      pop\n      swap1\n      pop\n      sload\n      dup2\n      jump\t// out\n        /* \"solidity-study/solidity-1base/7/ArrayDemo.sol\":276:300  uint[] public storageArr */\n    tag_26:\n      0x0a\n      dup2\n      dup2\n      sload\n      dup2\n      lt\n      tag_65\n      jumpi\n      0x00\n      dup1\n      revert\n    tag_65:\n      swap1\n      0x00\n      mstore\n      keccak256(0x00, 0x20)\n      add\n      0x00\n      swap2\n      pop\n      swap1\n      pop\n      sload\n      dup2\n      jump\t// out\n        /* \"solidity-study/solidity-1base/7/ArrayDemo.sol\":428:820  function methodx(uint[] calldata calldataArr) public returns(uint ){... */\n    tag_31:\n        /* \"solidity-study/solidity-1base/7/ArrayDemo.sol\":489:493  uint */\n      0x00\n        /* \"solidity-study/solidity-1base/7/ArrayDemo.sol\":516:519  223 */\n      0xdf\n        /* \"solidity-study/solidity-1base/7/ArrayDemo.sol\":506:510  arr4 */\n      0x09\n        /* \"solidity-study/solidity-1base/7/ArrayDemo.sol\":511:512  1 */\n      0x01\n        /* \"solidity-study/solidity-1base/7/ArrayDemo.sol\":506:513  arr4[1] */\n      dup2\n      sload\n      dup2\n      lt\n      tag_68\n      jumpi\n      tag_69\n      tag_48\n      jump\t// in\n    tag_69:\n    tag_68:\n      swap1\n      0x00\n      mstore\n      keccak256(0x00, 0x20)\n      add\n        /* \"solidity-study/solidity-1base/7/ArrayDemo.sol\":506:519  arr4[1] = 223 */\n      dup2\n      swap1\n      sstore\n      pop\n        /* \"solidity-study/solidity-1base/7/ArrayDemo.sol\":530:536  uint x */\n      0x00\n        /* \"solidity-study/solidity-1base/7/ArrayDemo.sol\":539:543  arr4 */\n      0x09\n        /* \"solidity-study/solidity-1base/7/ArrayDemo.sol\":544:545  1 */\n      0x01\n        /* \"solidity-study/solidity-1base/7/ArrayDemo.sol\":539:546  arr4[1] */\n      dup2\n      sload\n      dup2\n      lt\n      tag_71\n      jumpi\n      tag_72\n      tag_48\n      jump\t// in\n    tag_72:\n    tag_71:\n      swap1\n      0x00\n      mstore\n      keccak256(0x00, 0x20)\n      add\n      sload\n        /* \"solidity-study/solidity-1base/7/ArrayDemo.sol\":530:546  uint x = arr4[1] */\n      swap1\n      pop\n        /* \"solidity-study/solidity-1base/7/ArrayDemo.sol\":561:565  arr4 */\n      0x09\n        /* \"solidity-study/solidity-1base/7/ArrayDemo.sol\":571:574  123 */\n      0x7b\n        /* \"solidity-study/solidity-1base/7/ArrayDemo.sol\":561:575  arr4.push(123) */\n      swap1\n      dup1\n      0x01\n      dup2\n      sload\n      add\n      dup1\n      dup3\n      sstore\n      dup1\n      swap2\n      pop\n      pop\n      0x01\n      swap1\n      sub\n      swap1\n      0x00\n      mstore\n      keccak256(0x00, 0x20)\n      add\n      0x00\n      swap1\n      swap2\n      swap1\n      swap2\n      swap1\n      swap2\n      pop\n      sstore\n        /* \"solidity-study/solidity-1base/7/ArrayDemo.sol\":586:590  arr4 */\n      0x09\n        /* \"solidity-study/solidity-1base/7/ArrayDemo.sol\":596:598  45 */\n      0x2d\n        /* \"solidity-study/solidity-1base/7/ArrayDemo.sol\":586:599  arr4.push(45) */\n      swap1\n      dup1\n      0x01\n      dup2\n      sload\n      add\n      dup1\n      dup3\n      sstore\n      dup1\n      swap2\n      pop\n      pop\n      0x01\n      swap1\n      sub\n      swap1\n      0x00\n      mstore\n      keccak256(0x00, 0x20)\n      add\n      0x00\n      swap1\n      swap2\n      swap1\n      swap2\n      swap1\n      swap2\n      pop\n      sstore\n        /* \"solidity-study/solidity-1base/7/ArrayDemo.sol\":612:616  arr4 */\n      0x09\n        /* \"solidity-study/solidity-1base/7/ArrayDemo.sol\":612:622  arr4.pop() */\n      dup1\n      sload\n      dup1\n      tag_76\n      jumpi\n      tag_77\n      tag_61\n      jump\t// in\n    tag_77:\n    tag_76:\n      0x01\n      swap1\n      sub\n      dup2\n      dup2\n      swap1\n      0x00\n      mstore\n      keccak256(0x00, 0x20)\n      add\n      0x00\n      swap1\n      sstore\n      swap1\n      sstore\n        /* \"solidity-study/solidity-1base/7/ArrayDemo.sol\":695:714  uint[] memory slice */\n      0x00\n        /* \"solidity-study/solidity-1base/7/ArrayDemo.sol\":717:728  calldataArr */\n      dup5\n      dup5\n        /* \"solidity-study/solidity-1base/7/ArrayDemo.sol\":729:730  1 */\n      0x01\n        /* \"solidity-study/solidity-1base/7/ArrayDemo.sol\":717:733  calldataArr[1:3] */\n      swap1\n        /* \"solidity-study/solidity-1base/7/ArrayDemo.sol\":731:732  3 */\n      0x03\n        /* \"solidity-study/solidity-1base/7/ArrayDemo.sol\":717:733  calldataArr[1:3] */\n      swap3\n      tag_79\n      swap4\n      swap3\n      swap2\n      swap1\n      tag_80\n      jump\t// in\n    tag_79:\n        /* \"solidity-study/solidity-1base/7/ArrayDemo.sol\":695:733  uint[] memory slice = calldataArr[1:3] */\n      dup1\n      dup1\n      0x20\n      mul\n      0x20\n      add\n      mload(0x40)\n      swap1\n      dup2\n      add\n      0x40\n      mstore\n      dup1\n      swap4\n      swap3\n      swap2\n      swap1\n      dup2\n      dup2\n      mstore\n      0x20\n      add\n      dup4\n      dup4\n      0x20\n      mul\n      dup1\n      dup3\n      dup5\n      calldatacopy\n      0x00\n      dup2\n      dup5\n      add\n      mstore\n      not(0x1f)\n      0x1f\n      dup3\n      add\n      and\n      swap1\n      pop\n      dup1\n      dup4\n      add\n      swap3\n      pop\n      pop\n      pop\n      pop\n      pop\n      pop\n      pop\n      swap1\n      pop\n        /* \"solidity-study/solidity-1base/7/ArrayDemo.sol\":744:755  uint length */\n      0x00\n        /* \"solidity-study/solidity-1base/7/ArrayDemo.sol\":758:762  arr4 */\n      0x09\n        /* \"solidity-study/solidity-1base/7/ArrayDemo.sol\":758:769  arr4.length */\n      dup1\n      sload\n      swap1\n      pop\n        /* \"solidity-study/solidity-1base/7/ArrayDemo.sol\":744:769  uint length = arr4.length */\n      swap1\n      pop\n        /* \"solidity-study/solidity-1base/7/ArrayDemo.sol\":811:812  x */\n      dup3\n        /* \"solidity-study/solidity-1base/7/ArrayDemo.sol\":802:808  length */\n      dup2\n        /* \"solidity-study/solidity-1base/7/ArrayDemo.sol\":787:792  slice */\n      dup4\n        /* \"solidity-study/solidity-1base/7/ArrayDemo.sol\":787:799  slice.length */\n      mload\n        /* \"solidity-study/solidity-1base/7/ArrayDemo.sol\":787:808  slice.length + length */\n      tag_81\n      swap2\n      swap1\n      tag_82\n      jump\t// in\n    tag_81:\n        /* \"solidity-study/solidity-1base/7/ArrayDemo.sol\":787:812  slice.length + length + x */\n      tag_83\n      swap2\n      swap1\n      tag_82\n      jump\t// in\n    tag_83:\n        /* \"solidity-study/solidity-1base/7/ArrayDemo.sol\":780:812  return slice.length + length + x */\n      swap4\n      pop\n      pop\n      pop\n      pop\n        /* \"solidity-study/solidity-1base/7/ArrayDemo.sol\":428:820  function methodx(uint[] calldata calldataArr) public returns(uint ){... */\n      swap3\n      swap2\n      pop\n      pop\n      jump\t// out\n        /* \"solidity-study/solidity-1base/7/ArrayDemo.sol\":1167:1351  function sum() public view returns(uint){... */\n    tag_34:\n        /* \"solidity-study/solidity-1base/7/ArrayDemo.sol\":1202:1206  uint */\n      0x00\n        /* \"solidity-study/solidity-1base/7/ArrayDemo.sol\":1218:1226  uint sum */\n      dup1\n        /* \"solidity-study/solidity-1base/7/ArrayDemo.sol\":1229:1230  0 */\n      0x00\n        /* \"solidity-study/solidity-1base/7/ArrayDemo.sol\":1218:1230  uint sum = 0 */\n      swap1\n      pop\n        /* \"solidity-study/solidity-1base/7/ArrayDemo.sol\":1245:1251  uint x */\n      0x00\n        /* \"solidity-study/solidity-1base/7/ArrayDemo.sol\":1241:1323  for(uint x = 0; x < array1.length; x++){... */\n    tag_85:\n        /* \"solidity-study/solidity-1base/7/ArrayDemo.sol\":1261:1267  array1 */\n      0x0e\n        /* \"solidity-study/solidity-1base/7/ArrayDemo.sol\":1261:1274  array1.length */\n      dup1\n      sload\n      swap1\n      pop\n        /* \"solidity-study/solidity-1base/7/ArrayDemo.sol\":1257:1258  x */\n      dup2\n        /* \"solidity-study/solidity-1base/7/ArrayDemo.sol\":1257:1274  x < array1.length */\n      lt\n        /* \"solidity-study/solidity-1base/7/ArrayDemo.sol\":1241:1323  for(uint x = 0; x < array1.length; x++){... */\n      iszero\n      tag_86\n      jumpi\n        /* \"solidity-study/solidity-1base/7/ArrayDemo.sol\":1302:1308  array1 */\n      0x0e\n        /* \"solidity-study/solidity-1base/7/ArrayDemo.sol\":1309:1310  x */\n      dup2\n        /* \"solidity-study/solidity-1base/7/ArrayDemo.sol\":1302:1311  array1[x] */\n      dup2\n      sload\n      dup2\n      lt\n      tag_88\n      jumpi\n      tag_89\n      tag_48\n      jump\t// in\n    tag_89:\n    tag_88:\n      swap1\n      0x00\n      mstore\n      keccak256(0x00, 0x20)\n      add\n      sload\n        /* \"solidity-study/solidity-1base/7/ArrayDemo.sol\":1295:1311  sum += array1[x] */\n      dup3\n      tag_91\n      swap2\n      swap1\n      tag_82\n      jump\t// in\n    tag_91:\n      swap2\n      pop\n        /* \"solidity-study/solidity-1base/7/ArrayDemo.sol\":1276:1279  x++ */\n      dup1\n      dup1\n      0x01\n      add\n      swap2\n      pop\n      pop\n        /* \"solidity-study/solidity-1base/7/ArrayDemo.sol\":1241:1323  for(uint x = 0; x < array1.length; x++){... */\n      jump(tag_85)\n    tag_86:\n      pop\n        /* \"solidity-study/solidity-1base/7/ArrayDemo.sol\":1340:1343  sum */\n      dup1\n        /* \"solidity-study/solidity-1base/7/ArrayDemo.sol\":1333:1343  return sum */\n      swap2\n      pop\n      pop\n        /* \"solidity-study/solidity-1base/7/ArrayDemo.sol\":1167:1351  function sum() public view returns(uint){... */\n      swap1\n      jump\t// out\n        /* \"solidity-study/solidity-1base/7/ArrayDemo.sol\":1628:1714  function printArr() public view returns(uint[] memory){... */\n    tag_37:\n        /* \"solidity-study/solidity-1base/7/ArrayDemo.sol\":1668:1681  uint[] memory */\n      0x60\n        /* \"solidity-study/solidity-1base/7/ArrayDemo.sol\":1700:1706  array1 */\n      0x0e\n        /* \"solidity-study/solidity-1base/7/ArrayDemo.sol\":1693:1706  return array1 */\n      dup1\n      sload\n      dup1\n      0x20\n      mul\n      0x20\n      add\n      mload(0x40)\n      swap1\n      dup2\n      add\n      0x40\n      mstore\n      dup1\n      swap3\n      swap2\n      swap1\n      dup2\n      dup2\n      mstore\n      0x20\n      add\n      dup3\n      dup1\n      sload\n      dup1\n      iszero\n      tag_93\n      jumpi\n      0x20\n      mul\n      dup3\n      add\n      swap2\n      swap1\n      0x00\n      mstore\n      keccak256(0x00, 0x20)\n      swap1\n    tag_94:\n      dup2\n      sload\n      dup2\n      mstore\n      0x20\n      add\n      swap1\n      0x01\n      add\n      swap1\n      dup1\n      dup4\n      gt\n      tag_94\n      jumpi\n    tag_93:\n      pop\n      pop\n      pop\n      pop\n      pop\n      swap1\n      pop\n        /* \"solidity-study/solidity-1base/7/ArrayDemo.sol\":1628:1714  function printArr() public view returns(uint[] memory){... */\n      swap1\n      jump\t// out\n        /* \"#utility.yul\":88:205   */\n    tag_96:\n        /* \"#utility.yul\":197:198   */\n      0x00\n        /* \"#utility.yul\":194:195   */\n      dup1\n        /* \"#utility.yul\":187:199   */\n      revert\n        /* \"#utility.yul\":211:328   */\n    tag_97:\n        /* \"#utility.yul\":320:321   */\n      0x00\n        /* \"#utility.yul\":317:318   */\n      dup1\n        /* \"#utility.yul\":310:322   */\n      revert\n        /* \"#utility.yul\":334:411   */\n    tag_98:\n        /* \"#utility.yul\":371:378   */\n      0x00\n        /* \"#utility.yul\":400:405   */\n      dup2\n        /* \"#utility.yul\":389:405   */\n      swap1\n      pop\n        /* \"#utility.yul\":334:411   */\n      swap2\n      swap1\n      pop\n      jump\t// out\n        /* \"#utility.yul\":417:539   */\n    tag_99:\n        /* \"#utility.yul\":490:514   */\n      tag_122\n        /* \"#utility.yul\":508:513   */\n      dup2\n        /* \"#utility.yul\":490:514   */\n      tag_98\n      jump\t// in\n    tag_122:\n        /* \"#utility.yul\":483:488   */\n      dup2\n        /* \"#utility.yul\":480:515   */\n      eq\n        /* \"#utility.yul\":470:533   */\n      tag_123\n      jumpi\n        /* \"#utility.yul\":529:530   */\n      0x00\n        /* \"#utility.yul\":526:527   */\n      dup1\n        /* \"#utility.yul\":519:531   */\n      revert\n        /* \"#utility.yul\":470:533   */\n    tag_123:\n        /* \"#utility.yul\":417:539   */\n      pop\n      jump\t// out\n        /* \"#utility.yul\":545:684   */\n    tag_100:\n        /* \"#utility.yul\":591:596   */\n      0x00\n        /* \"#utility.yul\":629:635   */\n      dup2\n        /* \"#utility.yul\":616:636   */\n      calldataload\n        /* \"#utility.yul\":607:636   */\n      swap1\n      pop\n        /* \"#utility.yul\":645:678   */\n      tag_125\n        /* \"#utility.yul\":672:677   */\n      dup2\n        /* \"#utility.yul\":645:678   */\n      tag_99\n      jump\t// in\n    tag_125:\n        /* \"#utility.yul\":545:684   */\n      swap3\n      swap2\n      pop\n      pop\n      jump\t// out\n        /* \"#utility.yul\":690:1019   */\n    tag_13:\n        /* \"#utility.yul\":749:755   */\n      0x00\n        /* \"#utility.yul\":798:800   */\n      0x20\n        /* \"#utility.yul\":786:795   */\n      dup3\n        /* \"#utility.yul\":777:784   */\n      dup5\n        /* \"#utility.yul\":773:796   */\n      sub\n        /* \"#utility.yul\":769:801   */\n      slt\n        /* \"#utility.yul\":766:885   */\n      iszero\n      tag_127\n      jumpi\n        /* \"#utility.yul\":804:883   */\n      tag_128\n      tag_96\n      jump\t// in\n    tag_128:\n        /* \"#utility.yul\":766:885   */\n    tag_127:\n        /* \"#utility.yul\":924:925   */\n      0x00\n        /* \"#utility.yul\":949:1002   */\n      tag_129\n        /* \"#utility.yul\":994:1001   */\n      dup5\n        /* \"#utility.yul\":985:991   */\n      dup3\n        /* \"#utility.yul\":974:983   */\n      dup6\n        /* \"#utility.yul\":970:992   */\n      add\n        /* \"#utility.yul\":949:1002   */\n      tag_100\n      jump\t// in\n    tag_129:\n        /* \"#utility.yul\":939:1002   */\n      swap2\n      pop\n        /* \"#utility.yul\":895:1012   */\n      pop\n        /* \"#utility.yul\":690:1019   */\n      swap3\n      swap2\n      pop\n      pop\n      jump\t// out\n        /* \"#utility.yul\":1025:1143   */\n    tag_101:\n        /* \"#utility.yul\":1112:1136   */\n      tag_131\n        /* \"#utility.yul\":1130:1135   */\n      dup2\n        /* \"#utility.yul\":1112:1136   */\n      tag_98\n      jump\t// in\n    tag_131:\n        /* \"#utility.yul\":1107:1110   */\n      dup3\n        /* \"#utility.yul\":1100:1137   */\n      mstore\n        /* \"#utility.yul\":1025:1143   */\n      pop\n      pop\n      jump\t// out\n        /* \"#utility.yul\":1149:1371   */\n    tag_19:\n        /* \"#utility.yul\":1242:1246   */\n      0x00\n        /* \"#utility.yul\":1280:1282   */\n      0x20\n        /* \"#utility.yul\":1269:1278   */\n      dup3\n        /* \"#utility.yul\":1265:1283   */\n      add\n        /* \"#utility.yul\":1257:1283   */\n      swap1\n      pop\n        /* \"#utility.yul\":1293:1364   */\n      tag_133\n        /* \"#utility.yul\":1361:1362   */\n      0x00\n        /* \"#utility.yul\":1350:1359   */\n      dup4\n        /* \"#utility.yul\":1346:1363   */\n      add\n        /* \"#utility.yul\":1337:1343   */\n      dup5\n        /* \"#utility.yul\":1293:1364   */\n      tag_101\n      jump\t// in\n    tag_133:\n        /* \"#utility.yul\":1149:1371   */\n      swap3\n      swap2\n      pop\n      pop\n      jump\t// out\n        /* \"#utility.yul\":1377:1494   */\n    tag_102:\n        /* \"#utility.yul\":1486:1487   */\n      0x00\n        /* \"#utility.yul\":1483:1484   */\n      dup1\n        /* \"#utility.yul\":1476:1488   */\n      revert\n        /* \"#utility.yul\":1500:1617   */\n    tag_103:\n        /* \"#utility.yul\":1609:1610   */\n      0x00\n        /* \"#utility.yul\":1606:1607   */\n      dup1\n        /* \"#utility.yul\":1599:1611   */\n      revert\n        /* \"#utility.yul\":1623:1740   */\n    tag_104:\n        /* \"#utility.yul\":1732:1733   */\n      0x00\n        /* \"#utility.yul\":1729:1730   */\n      dup1\n        /* \"#utility.yul\":1722:1734   */\n      revert\n        /* \"#utility.yul\":1763:2331   */\n    tag_105:\n        /* \"#utility.yul\":1836:1844   */\n      0x00\n        /* \"#utility.yul\":1846:1852   */\n      dup1\n        /* \"#utility.yul\":1896:1899   */\n      dup4\n        /* \"#utility.yul\":1889:1893   */\n      0x1f\n        /* \"#utility.yul\":1881:1887   */\n      dup5\n        /* \"#utility.yul\":1877:1894   */\n      add\n        /* \"#utility.yul\":1873:1900   */\n      slt\n        /* \"#utility.yul\":1863:1985   */\n      tag_138\n      jumpi\n        /* \"#utility.yul\":1904:1983   */\n      tag_139\n      tag_102\n      jump\t// in\n    tag_139:\n        /* \"#utility.yul\":1863:1985   */\n    tag_138:\n        /* \"#utility.yul\":2017:2023   */\n      dup3\n        /* \"#utility.yul\":2004:2024   */\n      calldataload\n        /* \"#utility.yul\":1994:2024   */\n      swap1\n      pop\n        /* \"#utility.yul\":2047:2065   */\n      0xffffffffffffffff\n        /* \"#utility.yul\":2039:2045   */\n      dup2\n        /* \"#utility.yul\":2036:2066   */\n      gt\n        /* \"#utility.yul\":2033:2150   */\n      iszero\n      tag_140\n      jumpi\n        /* \"#utility.yul\":2069:2148   */\n      tag_141\n      tag_103\n      jump\t// in\n    tag_141:\n        /* \"#utility.yul\":2033:2150   */\n    tag_140:\n        /* \"#utility.yul\":2183:2187   */\n      0x20\n        /* \"#utility.yul\":2175:2181   */\n      dup4\n        /* \"#utility.yul\":2171:2188   */\n      add\n        /* \"#utility.yul\":2159:2188   */\n      swap2\n      pop\n        /* \"#utility.yul\":2237:2240   */\n      dup4\n        /* \"#utility.yul\":2229:2233   */\n      0x20\n        /* \"#utility.yul\":2221:2227   */\n      dup3\n        /* \"#utility.yul\":2217:2234   */\n      mul\n        /* \"#utility.yul\":2207:2215   */\n      dup4\n        /* \"#utility.yul\":2203:2235   */\n      add\n        /* \"#utility.yul\":2200:2241   */\n      gt\n        /* \"#utility.yul\":2197:2325   */\n      iszero\n      tag_142\n      jumpi\n        /* \"#utility.yul\":2244:2323   */\n      tag_143\n      tag_104\n      jump\t// in\n    tag_143:\n        /* \"#utility.yul\":2197:2325   */\n    tag_142:\n        /* \"#utility.yul\":1763:2331   */\n      swap3\n      pop\n      swap3\n      swap1\n      pop\n      jump\t// out\n        /* \"#utility.yul\":2337:2896   */\n    tag_30:\n        /* \"#utility.yul\":2423:2429   */\n      0x00\n        /* \"#utility.yul\":2431:2437   */\n      dup1\n        /* \"#utility.yul\":2480:2482   */\n      0x20\n        /* \"#utility.yul\":2468:2477   */\n      dup4\n        /* \"#utility.yul\":2459:2466   */\n      dup6\n        /* \"#utility.yul\":2455:2478   */\n      sub\n        /* \"#utility.yul\":2451:2483   */\n      slt\n        /* \"#utility.yul\":2448:2567   */\n      iszero\n      tag_145\n      jumpi\n        /* \"#utility.yul\":2486:2565   */\n      tag_146\n      tag_96\n      jump\t// in\n    tag_146:\n        /* \"#utility.yul\":2448:2567   */\n    tag_145:\n        /* \"#utility.yul\":2634:2635   */\n      0x00\n        /* \"#utility.yul\":2623:2632   */\n      dup4\n        /* \"#utility.yul\":2619:2636   */\n      add\n        /* \"#utility.yul\":2606:2637   */\n      calldataload\n        /* \"#utility.yul\":2664:2682   */\n      0xffffffffffffffff\n        /* \"#utility.yul\":2656:2662   */\n      dup2\n        /* \"#utility.yul\":2653:2683   */\n      gt\n        /* \"#utility.yul\":2650:2767   */\n      iszero\n      tag_147\n      jumpi\n        /* \"#utility.yul\":2686:2765   */\n      tag_148\n      tag_97\n      jump\t// in\n    tag_148:\n        /* \"#utility.yul\":2650:2767   */\n    tag_147:\n        /* \"#utility.yul\":2799:2879   */\n      tag_149\n        /* \"#utility.yul\":2871:2878   */\n      dup6\n        /* \"#utility.yul\":2862:2868   */\n      dup3\n        /* \"#utility.yul\":2851:2860   */\n      dup7\n        /* \"#utility.yul\":2847:2869   */\n      add\n        /* \"#utility.yul\":2799:2879   */\n      tag_105\n      jump\t// in\n    tag_149:\n        /* \"#utility.yul\":2781:2879   */\n      swap3\n      pop\n      swap3\n      pop\n        /* \"#utility.yul\":2577:2889   */\n      pop\n        /* \"#utility.yul\":2337:2896   */\n      swap3\n      pop\n      swap3\n      swap1\n      pop\n      jump\t// out\n        /* \"#utility.yul\":2902:3016   */\n    tag_106:\n        /* \"#utility.yul\":2969:2975   */\n      0x00\n        /* \"#utility.yul\":3003:3008   */\n      dup2\n        /* \"#utility.yul\":2997:3009   */\n      mload\n        /* \"#utility.yul\":2987:3009   */\n      swap1\n      pop\n        /* \"#utility.yul\":2902:3016   */\n      swap2\n      swap1\n      pop\n      jump\t// out\n        /* \"#utility.yul\":3022:3206   */\n    tag_107:\n        /* \"#utility.yul\":3121:3132   */\n      0x00\n        /* \"#utility.yul\":3155:3161   */\n      dup3\n        /* \"#utility.yul\":3150:3153   */\n      dup3\n        /* \"#utility.yul\":3143:3162   */\n      mstore\n        /* \"#utility.yul\":3195:3199   */\n      0x20\n        /* \"#utility.yul\":3190:3193   */\n      dup3\n        /* \"#utility.yul\":3186:3200   */\n      add\n        /* \"#utility.yul\":3171:3200   */\n      swap1\n      pop\n        /* \"#utility.yul\":3022:3206   */\n      swap3\n      swap2\n      pop\n      pop\n      jump\t// out\n        /* \"#utility.yul\":3212:3344   */\n    tag_108:\n        /* \"#utility.yul\":3279:3283   */\n      0x00\n        /* \"#utility.yul\":3302:3305   */\n      dup2\n        /* \"#utility.yul\":3294:3305   */\n      swap1\n      pop\n        /* \"#utility.yul\":3332:3336   */\n      0x20\n        /* \"#utility.yul\":3327:3330   */\n      dup3\n        /* \"#utility.yul\":3323:3337   */\n      add\n        /* \"#utility.yul\":3315:3337   */\n      swap1\n      pop\n        /* \"#utility.yul\":3212:3344   */\n      swap2\n      swap1\n      pop\n      jump\t// out\n        /* \"#utility.yul\":3350:3458   */\n    tag_109:\n        /* \"#utility.yul\":3427:3451   */\n      tag_154\n        /* \"#utility.yul\":3445:3450   */\n      dup2\n        /* \"#utility.yul\":3427:3451   */\n      tag_98\n      jump\t// in\n    tag_154:\n        /* \"#utility.yul\":3422:3425   */\n      dup3\n        /* \"#utility.yul\":3415:3452   */\n      mstore\n        /* \"#utility.yul\":3350:3458   */\n      pop\n      pop\n      jump\t// out\n        /* \"#utility.yul\":3464:3643   */\n    tag_110:\n        /* \"#utility.yul\":3533:3543   */\n      0x00\n        /* \"#utility.yul\":3554:3600   */\n      tag_156\n        /* \"#utility.yul\":3596:3599   */\n      dup4\n        /* \"#utility.yul\":3588:3594   */\n      dup4\n        /* \"#utility.yul\":3554:3600   */\n      tag_109\n      jump\t// in\n    tag_156:\n        /* \"#utility.yul\":3632:3636   */\n      0x20\n        /* \"#utility.yul\":3627:3630   */\n      dup4\n        /* \"#utility.yul\":3623:3637   */\n      add\n        /* \"#utility.yul\":3609:3637   */\n      swap1\n      pop\n        /* \"#utility.yul\":3464:3643   */\n      swap3\n      swap2\n      pop\n      pop\n      jump\t// out\n        /* \"#utility.yul\":3649:3762   */\n    tag_111:\n        /* \"#utility.yul\":3719:3723   */\n      0x00\n        /* \"#utility.yul\":3751:3755   */\n      0x20\n        /* \"#utility.yul\":3746:3749   */\n      dup3\n        /* \"#utility.yul\":3742:3756   */\n      add\n        /* \"#utility.yul\":3734:3756   */\n      swap1\n      pop\n        /* \"#utility.yul\":3649:3762   */\n      swap2\n      swap1\n      pop\n      jump\t// out\n        /* \"#utility.yul\":3798:4530   */\n    tag_112:\n        /* \"#utility.yul\":3917:3920   */\n      0x00\n        /* \"#utility.yul\":3946:4000   */\n      tag_159\n        /* \"#utility.yul\":3994:3999   */\n      dup3\n        /* \"#utility.yul\":3946:4000   */\n      tag_106\n      jump\t// in\n    tag_159:\n        /* \"#utility.yul\":4016:4102   */\n      tag_160\n        /* \"#utility.yul\":4095:4101   */\n      dup2\n        /* \"#utility.yul\":4090:4093   */\n      dup6\n        /* \"#utility.yul\":4016:4102   */\n      tag_107\n      jump\t// in\n    tag_160:\n        /* \"#utility.yul\":4009:4102   */\n      swap4\n      pop\n        /* \"#utility.yul\":4126:4182   */\n      tag_161\n        /* \"#utility.yul\":4176:4181   */\n      dup4\n        /* \"#utility.yul\":4126:4182   */\n      tag_108\n      jump\t// in\n    tag_161:\n        /* \"#utility.yul\":4205:4212   */\n      dup1\n        /* \"#utility.yul\":4236:4237   */\n      0x00\n        /* \"#utility.yul\":4221:4505   */\n    tag_162:\n        /* \"#utility.yul\":4246:4252   */\n      dup4\n        /* \"#utility.yul\":4243:4244   */\n      dup2\n        /* \"#utility.yul\":4240:4253   */\n      lt\n        /* \"#utility.yul\":4221:4505   */\n      iszero\n      tag_164\n      jumpi\n        /* \"#utility.yul\":4322:4328   */\n      dup2\n        /* \"#utility.yul\":4316:4329   */\n      mload\n        /* \"#utility.yul\":4349:4412   */\n      tag_165\n        /* \"#utility.yul\":4408:4411   */\n      dup9\n        /* \"#utility.yul\":4393:4406   */\n      dup3\n        /* \"#utility.yul\":4349:4412   */\n      tag_110\n      jump\t// in\n    tag_165:\n        /* \"#utility.yul\":4342:4412   */\n      swap8\n      pop\n        /* \"#utility.yul\":4435:4495   */\n      tag_166\n        /* \"#utility.yul\":4488:4494   */\n      dup4\n        /* \"#utility.yul\":4435:4495   */\n      tag_111\n      jump\t// in\n    tag_166:\n        /* \"#utility.yul\":4425:4495   */\n      swap3\n      pop\n        /* \"#utility.yul\":4281:4505   */\n      pop\n        /* \"#utility.yul\":4268:4269   */\n      0x01\n        /* \"#utility.yul\":4265:4266   */\n      dup2\n        /* \"#utility.yul\":4261:4270   */\n      add\n        /* \"#utility.yul\":4256:4270   */\n      swap1\n      pop\n        /* \"#utility.yul\":4221:4505   */\n      jump(tag_162)\n    tag_164:\n        /* \"#utility.yul\":4225:4239   */\n      pop\n        /* \"#utility.yul\":4521:4524   */\n      dup6\n        /* \"#utility.yul\":4514:4524   */\n      swap4\n      pop\n        /* \"#utility.yul\":3922:4530   */\n      pop\n      pop\n      pop\n        /* \"#utility.yul\":3798:4530   */\n      swap3\n      swap2\n      pop\n      pop\n      jump\t// out\n        /* \"#utility.yul\":4536:4909   */\n    tag_39:\n        /* \"#utility.yul\":4679:4683   */\n      0x00\n        /* \"#utility.yul\":4717:4719   */\n      0x20\n        /* \"#utility.yul\":4706:4715   */\n      dup3\n        /* \"#utility.yul\":4702:4720   */\n      add\n        /* \"#utility.yul\":4694:4720   */\n      swap1\n      pop\n        /* \"#utility.yul\":4766:4775   */\n      dup2\n        /* \"#utility.yul\":4760:4764   */\n      dup2\n        /* \"#utility.yul\":4756:4776   */\n      sub\n        /* \"#utility.yul\":4752:4753   */\n      0x00\n        /* \"#utility.yul\":4741:4750   */\n      dup4\n        /* \"#utility.yul\":4737:4754   */\n      add\n        /* \"#utility.yul\":4730:4777   */\n      mstore\n        /* \"#utility.yul\":4794:4902   */\n      tag_168\n        /* \"#utility.yul\":4897:4901   */\n      dup2\n        /* \"#utility.yul\":4888:4894   */\n      dup5\n        /* \"#utility.yul\":4794:4902   */\n      tag_112\n      jump\t// in\n    tag_168:\n        /* \"#utility.yul\":4786:4902   */\n      swap1\n      pop\n        /* \"#utility.yul\":4536:4909   */\n      swap3\n      swap2\n      pop\n      pop\n      jump\t// out\n        /* \"#utility.yul\":4915:5095   */\n    tag_48:\n        /* \"#utility.yul\":4963:5040   */\n      0x4e487b7100000000000000000000000000000000000000000000000000000000\n        /* \"#utility.yul\":4960:4961   */\n      0x00\n        /* \"#utility.yul\":4953:5041   */\n      mstore\n        /* \"#utility.yul\":5060:5064   */\n      0x32\n        /* \"#utility.yul\":5057:5058   */\n      0x04\n        /* \"#utility.yul\":5050:5065   */\n      mstore\n        /* \"#utility.yul\":5084:5088   */\n      0x24\n        /* \"#utility.yul\":5081:5082   */\n      0x00\n        /* \"#utility.yul\":5074:5089   */\n      revert\n        /* \"#utility.yul\":5101:5281   */\n    tag_113:\n        /* \"#utility.yul\":5149:5226   */\n      0x4e487b7100000000000000000000000000000000000000000000000000000000\n        /* \"#utility.yul\":5146:5147   */\n      0x00\n        /* \"#utility.yul\":5139:5227   */\n      mstore\n        /* \"#utility.yul\":5246:5250   */\n      0x11\n        /* \"#utility.yul\":5243:5244   */\n      0x04\n        /* \"#utility.yul\":5236:5251   */\n      mstore\n        /* \"#utility.yul\":5270:5274   */\n      0x24\n        /* \"#utility.yul\":5267:5268   */\n      0x00\n        /* \"#utility.yul\":5260:5275   */\n      revert\n        /* \"#utility.yul\":5287:5481   */\n    tag_52:\n        /* \"#utility.yul\":5327:5331   */\n      0x00\n        /* \"#utility.yul\":5347:5367   */\n      tag_172\n        /* \"#utility.yul\":5365:5366   */\n      dup3\n        /* \"#utility.yul\":5347:5367   */\n      tag_98\n      jump\t// in\n    tag_172:\n        /* \"#utility.yul\":5342:5367   */\n      swap2\n      pop\n        /* \"#utility.yul\":5381:5401   */\n      tag_173\n        /* \"#utility.yul\":5399:5400   */\n      dup4\n        /* \"#utility.yul\":5381:5401   */\n      tag_98\n      jump\t// in\n    tag_173:\n        /* \"#utility.yul\":5376:5401   */\n      swap3\n      pop\n        /* \"#utility.yul\":5425:5426   */\n      dup3\n        /* \"#utility.yul\":5422:5423   */\n      dup3\n        /* \"#utility.yul\":5418:5427   */\n      sub\n        /* \"#utility.yul\":5410:5427   */\n      swap1\n      pop\n        /* \"#utility.yul\":5449:5450   */\n      dup2\n        /* \"#utility.yul\":5443:5447   */\n      dup2\n        /* \"#utility.yul\":5440:5451   */\n      gt\n        /* \"#utility.yul\":5437:5474   */\n      iszero\n      tag_174\n      jumpi\n        /* \"#utility.yul\":5454:5472   */\n      tag_175\n      tag_113\n      jump\t// in\n    tag_175:\n        /* \"#utility.yul\":5437:5474   */\n    tag_174:\n        /* \"#utility.yul\":5287:5481   */\n      swap3\n      swap2\n      pop\n      pop\n      jump\t// out\n        /* \"#utility.yul\":5487:5667   */\n    tag_61:\n        /* \"#utility.yul\":5535:5612   */\n      0x4e487b7100000000000000000000000000000000000000000000000000000000\n        /* \"#utility.yul\":5532:5533   */\n      0x00\n        /* \"#utility.yul\":5525:5613   */\n      mstore\n        /* \"#utility.yul\":5632:5636   */\n      0x31\n        /* \"#utility.yul\":5629:5630   */\n      0x04\n        /* \"#utility.yul\":5622:5637   */\n      mstore\n        /* \"#utility.yul\":5656:5660   */\n      0x24\n        /* \"#utility.yul\":5653:5654   */\n      0x00\n        /* \"#utility.yul\":5646:5661   */\n      revert\n        /* \"#utility.yul\":5673:5790   */\n    tag_114:\n        /* \"#utility.yul\":5782:5783   */\n      0x00\n        /* \"#utility.yul\":5779:5780   */\n      dup1\n        /* \"#utility.yul\":5772:5784   */\n      revert\n        /* \"#utility.yul\":5796:5913   */\n    tag_115:\n        /* \"#utility.yul\":5905:5906   */\n      0x00\n        /* \"#utility.yul\":5902:5903   */\n      dup1\n        /* \"#utility.yul\":5895:5907   */\n      revert\n        /* \"#utility.yul\":5919:6405   */\n    tag_80:\n        /* \"#utility.yul\":6040:6049   */\n      0x00\n        /* \"#utility.yul\":6051:6060   */\n      dup1\n        /* \"#utility.yul\":6089:6097   */\n      dup6\n        /* \"#utility.yul\":6077:6087   */\n      dup6\n        /* \"#utility.yul\":6074:6098   */\n      gt\n        /* \"#utility.yul\":6071:6182   */\n      iszero\n      tag_180\n      jumpi\n        /* \"#utility.yul\":6101:6180   */\n      tag_181\n      tag_114\n      jump\t// in\n    tag_181:\n        /* \"#utility.yul\":6071:6182   */\n    tag_180:\n        /* \"#utility.yul\":6207:6213   */\n      dup4\n        /* \"#utility.yul\":6197:6205   */\n      dup7\n        /* \"#utility.yul\":6194:6214   */\n      gt\n        /* \"#utility.yul\":6191:6298   */\n      iszero\n      tag_182\n      jumpi\n        /* \"#utility.yul\":6217:6296   */\n      tag_183\n      tag_115\n      jump\t// in\n    tag_183:\n        /* \"#utility.yul\":6191:6298   */\n    tag_182:\n        /* \"#utility.yul\":6348:6350   */\n      0x20\n        /* \"#utility.yul\":6336:6346   */\n      dup6\n        /* \"#utility.yul\":6332:6351   */\n      mul\n        /* \"#utility.yul\":6324:6330   */\n      dup4\n        /* \"#utility.yul\":6320:6352   */\n      add\n        /* \"#utility.yul\":6307:6352   */\n      swap2\n      pop\n        /* \"#utility.yul\":6388:6398   */\n      dup5\n        /* \"#utility.yul\":6378:6386   */\n      dup7\n        /* \"#utility.yul\":6374:6399   */\n      sub\n        /* \"#utility.yul\":6361:6399   */\n      swap1\n      pop\n        /* \"#utility.yul\":5919:6405   */\n      swap5\n      pop\n      swap5\n      swap3\n      pop\n      pop\n      pop\n      jump\t// out\n        /* \"#utility.yul\":6411:6602   */\n    tag_82:\n        /* \"#utility.yul\":6451:6454   */\n      0x00\n        /* \"#utility.yul\":6470:6490   */\n      tag_185\n        /* \"#utility.yul\":6488:6489   */\n      dup3\n        /* \"#utility.yul\":6470:6490   */\n      tag_98\n      jump\t// in\n    tag_185:\n        /* \"#utility.yul\":6465:6490   */\n      swap2\n      pop\n        /* \"#utility.yul\":6504:6524   */\n      tag_186\n        /* \"#utility.yul\":6522:6523   */\n      dup4\n        /* \"#utility.yul\":6504:6524   */\n      tag_98\n      jump\t// in\n    tag_186:\n        /* \"#utility.yul\":6499:6524   */\n      swap3\n      pop\n        /* \"#utility.yul\":6547:6548   */\n      dup3\n        /* \"#utility.yul\":6544:6545   */\n      dup3\n        /* \"#utility.yul\":6540:6549   */\n      add\n        /* \"#utility.yul\":6533:6549   */\n      swap1\n      pop\n        /* \"#utility.yul\":6568:6571   */\n      dup1\n        /* \"#utility.yul\":6565:6566   */\n      dup3\n        /* \"#utility.yul\":6562:6572   */\n      gt\n        /* \"#utility.yul\":6559:6595   */\n      iszero\n      tag_187\n      jumpi\n        /* \"#utility.yul\":6575:6593   */\n      tag_188\n      tag_113\n      jump\t// in\n    tag_188:\n        /* \"#utility.yul\":6559:6595   */\n    tag_187:\n        /* \"#utility.yul\":6411:6602   */\n      swap3\n      swap2\n      pop\n      pop\n      jump\t// out\n\n    auxdata: 0xa2646970667358221220eeb9d37f4ee5f35f85be0649efc36e9399bbc059a939535702571d565f72385e64736f6c634300081a0033\n}\n",
				"bytecode": {
					"linkReferences": {},
					"object": "60806040526040518060800160405280600160ff168152602001600260ff168152602001600360ff168152602001600460ff168152506004906004610045929190610180565b506040518060800160405280600c60ff168152602001601760ff168152602001602260ff168152602001602d60ff1681525060099060046100879291906101c5565b506040518060400160405280600b81526020017f6c7662616f206c76636169000000000000000000000000000000000000000000815250600b90816100cc919061046a565b50600a67ffffffffffffffff8111156100e8576100e761023a565b5b6040519080825280601f01601f19166020018201604052801561011a5781602001600182028036833780820191505090505b50600c90816101299190610543565b506040518060400160405280600881526020017f7765776572776572000000000000000000000000000000000000000000000000815250600d908161016e919061066a565b5034801561017a575f80fd5b50610739565b82600481019282156101b4579160200282015b828111156101b3578251829060ff16905591602001919060010190610193565b5b5090506101c19190610215565b5090565b828054828255905f5260205f20908101928215610204579160200282015b82811115610203578251829060ff169055916020019190600101906101e3565b5b5090506102119190610215565b5090565b5b8082111561022c575f815f905550600101610216565b5090565b5f81519050919050565b7f4e487b71000000000000000000000000000000000000000000000000000000005f52604160045260245ffd5b7f4e487b71000000000000000000000000000000000000000000000000000000005f52602260045260245ffd5b5f60028204905060018216806102ab57607f821691505b6020821081036102be576102bd610267565b5b50919050565b5f819050815f5260205f209050919050565b5f6020601f8301049050919050565b5f82821b905092915050565b5f600883026103207fffffffffffffffffffffffffffffffffffffffffffffffffffffffffffffffff826102e5565b61032a86836102e5565b95508019841693508086168417925050509392505050565b5f819050919050565b5f819050919050565b5f61036e61036961036484610342565b61034b565b610342565b9050919050565b5f819050919050565b61038783610354565b61039b61039382610375565b8484546102f1565b825550505050565b5f90565b6103af6103a3565b6103ba81848461037e565b505050565b5b818110156103dd576103d25f826103a7565b6001810190506103c0565b5050565b601f821115610422576103f3816102c4565b6103fc846102d6565b8101602085101561040b578190505b61041f610417856102d6565b8301826103bf565b50505b505050565b5f82821c905092915050565b5f6104425f1984600802610427565b1980831691505092915050565b5f61045a8383610433565b9150826002028217905092915050565b61047382610230565b67ffffffffffffffff81111561048c5761048b61023a565b5b6104968254610294565b6104a18282856103e1565b5f60209050601f8311600181146104d2575f84156104c0578287015190505b6104ca858261044f565b865550610531565b601f1984166104e0866102c4565b5f5b82811015610507578489015182556001820191506020850194506020810190506104e2565b868310156105245784890151610520601f891682610433565b8355505b6001600288020188555050505b505050505050565b5f81519050919050565b61054c82610539565b67ffffffffffffffff8111156105655761056461023a565b5b61056f8254610294565b61057a8282856103e1565b5f60209050601f8311600181146105ab575f8415610599578287015190505b6105a3858261044f565b86555061060a565b601f1984166105b9866102c4565b5f5b828110156105e0578489015182556001820191506020850194506020810190506105bb565b868310156105fd57848901516105f9601f891682610433565b8355505b6001600288020188555050505b505050505050565b5f819050815f5260205f209050919050565b601f8211156106655761063681610612565b61063f846102d6565b8101602085101561064e578190505b61066261065a856102d6565b8301826103bf565b50505b505050565b61067382610230565b67ffffffffffffffff81111561068c5761068b61023a565b5b6106968254610294565b6106a1828285610624565b5f60209050601f8311600181146106d2575f84156106c0578287015190505b6106ca858261044f565b865550610731565b601f1984166106e086610612565b5f5b82811015610707578489015182556001820191506020850194506020810190506106e2565b868310156107245784890151610720601f891682610433565b8355505b6001600288020188555050505b505050505050565b610816806107465f395ff3fe608060405234801561000f575f80fd5b506004361061007b575f3560e01c8063576c865011610059578063576c8650146100fb5780635e49bb501461012b578063853255cc1461015b578063aba63989146101795761007b565b80631003e2d21461007f5780632c3e7e191461009b5780634bae89cb146100cb575b5f80fd5b610099600480360381019061009491906104db565b610197565b005b6100b560048036038101906100b091906104db565b6101c0565b6040516100c29190610515565b60405180910390f35b6100e560048036038101906100e091906104db565b61027d565b6040516100f29190610515565b60405180910390f35b610115600480360381019061011091906104db565b61029d565b6040516101229190610515565b60405180910390f35b6101456004803603810190610140919061058f565b6102bd565b6040516101529190610515565b60405180910390f35b6101636103f7565b6040516101709190610515565b60405180910390f35b61018161044a565b60405161018e9190610691565b60405180910390f35b600e81908060018154018082558091505060019003905f5260205f20015f909190919091505550565b5f805f90505b600e805490508110156102775782600e82815481106101e8576101e76106b1565b5b905f5260205f2001540361026a57600e6001600e8054905061020a919061070b565b8154811061021b5761021a6106b1565b5b905f5260205f200154600e8281548110610238576102376106b1565b5b905f5260205f200181905550600e8054806102565761025561073e565b5b600190038181905f5260205f20015f905590555b80806001019150506101c6565b50919050565b600e818154811061028c575f80fd5b905f5260205f20015f915090505481565b600a81815481106102ac575f80fd5b905f5260205f20015f915090505481565b5f60df60096001815481106102d5576102d46106b1565b5b905f5260205f2001819055505f60096001815481106102f7576102f66106b1565b5b905f5260205f20015490506009607b908060018154018082558091505060019003905f5260205f20015f90919091909150556009602d908060018154018082558091505060019003905f5260205f20015f909190919091505560098054806103625761036161073e565b5b600190038181905f5260205f20015f905590555f848460019060039261038a93929190610773565b808060200260200160405190810160405280939291908181526020018383602002808284375f81840152601f19601f8201169050808301925050505050505090505f6009805490509050828183516103e291906107ad565b6103ec91906107ad565b935050505092915050565b5f805f90505f5b600e8054905081101561044257600e818154811061041f5761041e6106b1565b5b905f5260205f2001548261043391906107ad565b915080806001019150506103fe565b508091505090565b6060600e80548060200260200160405190810160405280929190818152602001828054801561049657602002820191905f5260205f20905b815481526020019060010190808311610482575b5050505050905090565b5f80fd5b5f80fd5b5f819050919050565b6104ba816104a8565b81146104c4575f80fd5b50565b5f813590506104d5816104b1565b92915050565b5f602082840312156104f0576104ef6104a0565b5b5f6104fd848285016104c7565b91505092915050565b61050f816104a8565b82525050565b5f6020820190506105285f830184610506565b92915050565b5f80fd5b5f80fd5b5f80fd5b5f8083601f84011261054f5761054e61052e565b5b8235905067ffffffffffffffff81111561056c5761056b610532565b5b60208301915083602082028301111561058857610587610536565b5b9250929050565b5f80602083850312156105a5576105a46104a0565b5b5f83013567ffffffffffffffff8111156105c2576105c16104a4565b5b6105ce8582860161053a565b92509250509250929050565b5f81519050919050565b5f82825260208201905092915050565b5f819050602082019050919050565b61060c816104a8565b82525050565b5f61061d8383610603565b60208301905092915050565b5f602082019050919050565b5f61063f826105da565b61064981856105e4565b9350610654836105f4565b805f5b8381101561068457815161066b8882610612565b975061067683610629565b925050600181019050610657565b5085935050505092915050565b5f6020820190508181035f8301526106a98184610635565b905092915050565b7f4e487b71000000000000000000000000000000000000000000000000000000005f52603260045260245ffd5b7f4e487b71000000000000000000000000000000000000000000000000000000005f52601160045260245ffd5b5f610715826104a8565b9150610720836104a8565b9250828203905081811115610738576107376106de565b5b92915050565b7f4e487b71000000000000000000000000000000000000000000000000000000005f52603160045260245ffd5b5f80fd5b5f80fd5b5f80858511156107865761078561076b565b5b838611156107975761079661076f565b5b6020850283019150848603905094509492505050565b5f6107b7826104a8565b91506107c2836104a8565b92508282019050808211156107da576107d96106de565b5b9291505056fea2646970667358221220eeb9d37f4ee5f35f85be0649efc36e9399bbc059a939535702571d565f72385e64736f6c634300081a0033",
					"opcodes": "PUSH1 0x80 PUSH1 0x40 MSTORE PUSH1 0x40 MLOAD DUP1 PUSH1 0x80 ADD PUSH1 0x40 MSTORE DUP1 PUSH1 0x1 PUSH1 0xFF AND DUP2 MSTORE PUSH1 0x20 ADD PUSH1 0x2 PUSH1 0xFF AND DUP2 MSTORE PUSH1 0x20 ADD PUSH1 0x3 PUSH1 0xFF AND DUP2 MSTORE PUSH1 0x20 ADD PUSH1 0x4 PUSH1 0xFF AND DUP2 MSTORE POP PUSH1 0x4 SWAP1 PUSH1 0x4 PUSH2 0x45 SWAP3 SWAP2 SWAP1 PUSH2 0x180 JUMP JUMPDEST POP PUSH1 0x40 MLOAD DUP1 PUSH1 0x80 ADD PUSH1 0x40 MSTORE DUP1 PUSH1 0xC PUSH1 0xFF AND DUP2 MSTORE PUSH1 0x20 ADD PUSH1 0x17 PUSH1 0xFF AND DUP2 MSTORE PUSH1 0x20 ADD PUSH1 0x22 PUSH1 0xFF AND DUP2 MSTORE PUSH1 0x20 ADD PUSH1 0x2D PUSH1 0xFF AND DUP2 MSTORE POP PUSH1 0x9 SWAP1 PUSH1 0x4 PUSH2 0x87 SWAP3 SWAP2 SWAP1 PUSH2 0x1C5 JUMP JUMPDEST POP PUSH1 0x40 MLOAD DUP1 PUSH1 0x40 ADD PUSH1 0x40 MSTORE DUP1 PUSH1 0xB DUP2 MSTORE PUSH1 0x20 ADD PUSH32 0x6C7662616F206C76636169000000000000000000000000000000000000000000 DUP2 MSTORE POP PUSH1 0xB SWAP1 DUP2 PUSH2 0xCC SWAP2 SWAP1 PUSH2 0x46A JUMP JUMPDEST POP PUSH1 0xA PUSH8 0xFFFFFFFFFFFFFFFF DUP2 GT ISZERO PUSH2 0xE8 JUMPI PUSH2 0xE7 PUSH2 0x23A JUMP JUMPDEST JUMPDEST PUSH1 0x40 MLOAD SWAP1 DUP1 DUP3 MSTORE DUP1 PUSH1 0x1F ADD PUSH1 0x1F NOT AND PUSH1 0x20 ADD DUP3 ADD PUSH1 0x40 MSTORE DUP1 ISZERO PUSH2 0x11A JUMPI DUP2 PUSH1 0x20 ADD PUSH1 0x1 DUP3 MUL DUP1 CALLDATASIZE DUP4 CALLDATACOPY DUP1 DUP3 ADD SWAP2 POP POP SWAP1 POP JUMPDEST POP PUSH1 0xC SWAP1 DUP2 PUSH2 0x129 SWAP2 SWAP1 PUSH2 0x543 JUMP JUMPDEST POP PUSH1 0x40 MLOAD DUP1 PUSH1 0x40 ADD PUSH1 0x40 MSTORE DUP1 PUSH1 0x8 DUP2 MSTORE PUSH1 0x20 ADD PUSH32 0x7765776572776572000000000000000000000000000000000000000000000000 DUP2 MSTORE POP PUSH1 0xD SWAP1 DUP2 PUSH2 0x16E SWAP2 SWAP1 PUSH2 0x66A JUMP JUMPDEST POP CALLVALUE DUP1 ISZERO PUSH2 0x17A JUMPI PUSH0 DUP1 REVERT JUMPDEST POP PUSH2 0x739 JUMP JUMPDEST DUP3 PUSH1 0x4 DUP2 ADD SWAP3 DUP3 ISZERO PUSH2 0x1B4 JUMPI SWAP2 PUSH1 0x20 MUL DUP3 ADD JUMPDEST DUP3 DUP2 GT ISZERO PUSH2 0x1B3 JUMPI DUP3 MLOAD DUP3 SWAP1 PUSH1 0xFF AND SWAP1 SSTORE SWAP2 PUSH1 0x20 ADD SWAP2 SWAP1 PUSH1 0x1 ADD SWAP1 PUSH2 0x193 JUMP JUMPDEST JUMPDEST POP SWAP1 POP PUSH2 0x1C1 SWAP2 SWAP1 PUSH2 0x215 JUMP JUMPDEST POP SWAP1 JUMP JUMPDEST DUP3 DUP1 SLOAD DUP3 DUP3 SSTORE SWAP1 PUSH0 MSTORE PUSH1 0x20 PUSH0 KECCAK256 SWAP1 DUP2 ADD SWAP3 DUP3 ISZERO PUSH2 0x204 JUMPI SWAP2 PUSH1 0x20 MUL DUP3 ADD JUMPDEST DUP3 DUP2 GT ISZERO PUSH2 0x203 JUMPI DUP3 MLOAD DUP3 SWAP1 PUSH1 0xFF AND SWAP1 SSTORE SWAP2 PUSH1 0x20 ADD SWAP2 SWAP1 PUSH1 0x1 ADD SWAP1 PUSH2 0x1E3 JUMP JUMPDEST JUMPDEST POP SWAP1 POP PUSH2 0x211 SWAP2 SWAP1 PUSH2 0x215 JUMP JUMPDEST POP SWAP1 JUMP JUMPDEST JUMPDEST DUP1 DUP3 GT ISZERO PUSH2 0x22C JUMPI PUSH0 DUP2 PUSH0 SWAP1 SSTORE POP PUSH1 0x1 ADD PUSH2 0x216 JUMP JUMPDEST POP SWAP1 JUMP JUMPDEST PUSH0 DUP2 MLOAD SWAP1 POP SWAP2 SWAP1 POP JUMP JUMPDEST PUSH32 0x4E487B7100000000000000000000000000000000000000000000000000000000 PUSH0 MSTORE PUSH1 0x41 PUSH1 0x4 MSTORE PUSH1 0x24 PUSH0 REVERT JUMPDEST PUSH32 0x4E487B7100000000000000000000000000000000000000000000000000000000 PUSH0 MSTORE PUSH1 0x22 PUSH1 0x4 MSTORE PUSH1 0x24 PUSH0 REVERT JUMPDEST PUSH0 PUSH1 0x2 DUP3 DIV SWAP1 POP PUSH1 0x1 DUP3 AND DUP1 PUSH2 0x2AB JUMPI PUSH1 0x7F DUP3 AND SWAP2 POP JUMPDEST PUSH1 0x20 DUP3 LT DUP2 SUB PUSH2 0x2BE JUMPI PUSH2 0x2BD PUSH2 0x267 JUMP JUMPDEST JUMPDEST POP SWAP2 SWAP1 POP JUMP JUMPDEST PUSH0 DUP2 SWAP1 POP DUP2 PUSH0 MSTORE PUSH1 0x20 PUSH0 KECCAK256 SWAP1 POP SWAP2 SWAP1 POP JUMP JUMPDEST PUSH0 PUSH1 0x20 PUSH1 0x1F DUP4 ADD DIV SWAP1 POP SWAP2 SWAP1 POP JUMP JUMPDEST PUSH0 DUP3 DUP3 SHL SWAP1 POP SWAP3 SWAP2 POP POP JUMP JUMPDEST PUSH0 PUSH1 0x8 DUP4 MUL PUSH2 0x320 PUSH32 0xFFFFFFFFFFFFFFFFFFFFFFFFFFFFFFFFFFFFFFFFFFFFFFFFFFFFFFFFFFFFFFFF DUP3 PUSH2 0x2E5 JUMP JUMPDEST PUSH2 0x32A DUP7 DUP4 PUSH2 0x2E5 JUMP JUMPDEST SWAP6 POP DUP1 NOT DUP5 AND SWAP4 POP DUP1 DUP7 AND DUP5 OR SWAP3 POP POP POP SWAP4 SWAP3 POP POP POP JUMP JUMPDEST PUSH0 DUP2 SWAP1 POP SWAP2 SWAP1 POP JUMP JUMPDEST PUSH0 DUP2 SWAP1 POP SWAP2 SWAP1 POP JUMP JUMPDEST PUSH0 PUSH2 0x36E PUSH2 0x369 PUSH2 0x364 DUP5 PUSH2 0x342 JUMP JUMPDEST PUSH2 0x34B JUMP JUMPDEST PUSH2 0x342 JUMP JUMPDEST SWAP1 POP SWAP2 SWAP1 POP JUMP JUMPDEST PUSH0 DUP2 SWAP1 POP SWAP2 SWAP1 POP JUMP JUMPDEST PUSH2 0x387 DUP4 PUSH2 0x354 JUMP JUMPDEST PUSH2 0x39B PUSH2 0x393 DUP3 PUSH2 0x375 JUMP JUMPDEST DUP5 DUP5 SLOAD PUSH2 0x2F1 JUMP JUMPDEST DUP3 SSTORE POP POP POP POP JUMP JUMPDEST PUSH0 SWAP1 JUMP JUMPDEST PUSH2 0x3AF PUSH2 0x3A3 JUMP JUMPDEST PUSH2 0x3BA DUP2 DUP5 DUP5 PUSH2 0x37E JUMP JUMPDEST POP POP POP JUMP JUMPDEST JUMPDEST DUP2 DUP2 LT ISZERO PUSH2 0x3DD JUMPI PUSH2 0x3D2 PUSH0 DUP3 PUSH2 0x3A7 JUMP JUMPDEST PUSH1 0x1 DUP2 ADD SWAP1 POP PUSH2 0x3C0 JUMP JUMPDEST POP POP JUMP JUMPDEST PUSH1 0x1F DUP3 GT ISZERO PUSH2 0x422 JUMPI PUSH2 0x3F3 DUP2 PUSH2 0x2C4 JUMP JUMPDEST PUSH2 0x3FC DUP5 PUSH2 0x2D6 JUMP JUMPDEST DUP2 ADD PUSH1 0x20 DUP6 LT ISZERO PUSH2 0x40B JUMPI DUP2 SWAP1 POP JUMPDEST PUSH2 0x41F PUSH2 0x417 DUP6 PUSH2 0x2D6 JUMP JUMPDEST DUP4 ADD DUP3 PUSH2 0x3BF JUMP JUMPDEST POP POP JUMPDEST POP POP POP JUMP JUMPDEST PUSH0 DUP3 DUP3 SHR SWAP1 POP SWAP3 SWAP2 POP POP JUMP JUMPDEST PUSH0 PUSH2 0x442 PUSH0 NOT DUP5 PUSH1 0x8 MUL PUSH2 0x427 JUMP JUMPDEST NOT DUP1 DUP4 AND SWAP2 POP POP SWAP3 SWAP2 POP POP JUMP JUMPDEST PUSH0 PUSH2 0x45A DUP4 DUP4 PUSH2 0x433 JUMP JUMPDEST SWAP2 POP DUP3 PUSH1 0x2 MUL DUP3 OR SWAP1 POP SWAP3 SWAP2 POP POP JUMP JUMPDEST PUSH2 0x473 DUP3 PUSH2 0x230 JUMP JUMPDEST PUSH8 0xFFFFFFFFFFFFFFFF DUP2 GT ISZERO PUSH2 0x48C JUMPI PUSH2 0x48B PUSH2 0x23A JUMP JUMPDEST JUMPDEST PUSH2 0x496 DUP3 SLOAD PUSH2 0x294 JUMP JUMPDEST PUSH2 0x4A1 DUP3 DUP3 DUP6 PUSH2 0x3E1 JUMP JUMPDEST PUSH0 PUSH1 0x20 SWAP1 POP PUSH1 0x1F DUP4 GT PUSH1 0x1 DUP2 EQ PUSH2 0x4D2 JUMPI PUSH0 DUP5 ISZERO PUSH2 0x4C0 JUMPI DUP3 DUP8 ADD MLOAD SWAP1 POP JUMPDEST PUSH2 0x4CA DUP6 DUP3 PUSH2 0x44F JUMP JUMPDEST DUP7 SSTORE POP PUSH2 0x531 JUMP JUMPDEST PUSH1 0x1F NOT DUP5 AND PUSH2 0x4E0 DUP7 PUSH2 0x2C4 JUMP JUMPDEST PUSH0 JUMPDEST DUP3 DUP2 LT ISZERO PUSH2 0x507 JUMPI DUP5 DUP10 ADD MLOAD DUP3 SSTORE PUSH1 0x1 DUP3 ADD SWAP2 POP PUSH1 0x20 DUP6 ADD SWAP5 POP PUSH1 0x20 DUP2 ADD SWAP1 POP PUSH2 0x4E2 JUMP JUMPDEST DUP7 DUP4 LT ISZERO PUSH2 0x524 JUMPI DUP5 DUP10 ADD MLOAD PUSH2 0x520 PUSH1 0x1F DUP10 AND DUP3 PUSH2 0x433 JUMP JUMPDEST DUP4 SSTORE POP JUMPDEST PUSH1 0x1 PUSH1 0x2 DUP9 MUL ADD DUP9 SSTORE POP POP POP JUMPDEST POP POP POP POP POP POP JUMP JUMPDEST PUSH0 DUP2 MLOAD SWAP1 POP SWAP2 SWAP1 POP JUMP JUMPDEST PUSH2 0x54C DUP3 PUSH2 0x539 JUMP JUMPDEST PUSH8 0xFFFFFFFFFFFFFFFF DUP2 GT ISZERO PUSH2 0x565 JUMPI PUSH2 0x564 PUSH2 0x23A JUMP JUMPDEST JUMPDEST PUSH2 0x56F DUP3 SLOAD PUSH2 0x294 JUMP JUMPDEST PUSH2 0x57A DUP3 DUP3 DUP6 PUSH2 0x3E1 JUMP JUMPDEST PUSH0 PUSH1 0x20 SWAP1 POP PUSH1 0x1F DUP4 GT PUSH1 0x1 DUP2 EQ PUSH2 0x5AB JUMPI PUSH0 DUP5 ISZERO PUSH2 0x599 JUMPI DUP3 DUP8 ADD MLOAD SWAP1 POP JUMPDEST PUSH2 0x5A3 DUP6 DUP3 PUSH2 0x44F JUMP JUMPDEST DUP7 SSTORE POP PUSH2 0x60A JUMP JUMPDEST PUSH1 0x1F NOT DUP5 AND PUSH2 0x5B9 DUP7 PUSH2 0x2C4 JUMP JUMPDEST PUSH0 JUMPDEST DUP3 DUP2 LT ISZERO PUSH2 0x5E0 JUMPI DUP5 DUP10 ADD MLOAD DUP3 SSTORE PUSH1 0x1 DUP3 ADD SWAP2 POP PUSH1 0x20 DUP6 ADD SWAP5 POP PUSH1 0x20 DUP2 ADD SWAP1 POP PUSH2 0x5BB JUMP JUMPDEST DUP7 DUP4 LT ISZERO PUSH2 0x5FD JUMPI DUP5 DUP10 ADD MLOAD PUSH2 0x5F9 PUSH1 0x1F DUP10 AND DUP3 PUSH2 0x433 JUMP JUMPDEST DUP4 SSTORE POP JUMPDEST PUSH1 0x1 PUSH1 0x2 DUP9 MUL ADD DUP9 SSTORE POP POP POP JUMPDEST POP POP POP POP POP POP JUMP JUMPDEST PUSH0 DUP2 SWAP1 POP DUP2 PUSH0 MSTORE PUSH1 0x20 PUSH0 KECCAK256 SWAP1 POP SWAP2 SWAP1 POP JUMP JUMPDEST PUSH1 0x1F DUP3 GT ISZERO PUSH2 0x665 JUMPI PUSH2 0x636 DUP2 PUSH2 0x612 JUMP JUMPDEST PUSH2 0x63F DUP5 PUSH2 0x2D6 JUMP JUMPDEST DUP2 ADD PUSH1 0x20 DUP6 LT ISZERO PUSH2 0x64E JUMPI DUP2 SWAP1 POP JUMPDEST PUSH2 0x662 PUSH2 0x65A DUP6 PUSH2 0x2D6 JUMP JUMPDEST DUP4 ADD DUP3 PUSH2 0x3BF JUMP JUMPDEST POP POP JUMPDEST POP POP POP JUMP JUMPDEST PUSH2 0x673 DUP3 PUSH2 0x230 JUMP JUMPDEST PUSH8 0xFFFFFFFFFFFFFFFF DUP2 GT ISZERO PUSH2 0x68C JUMPI PUSH2 0x68B PUSH2 0x23A JUMP JUMPDEST JUMPDEST PUSH2 0x696 DUP3 SLOAD PUSH2 0x294 JUMP JUMPDEST PUSH2 0x6A1 DUP3 DUP3 DUP6 PUSH2 0x624 JUMP JUMPDEST PUSH0 PUSH1 0x20 SWAP1 POP PUSH1 0x1F DUP4 GT PUSH1 0x1 DUP2 EQ PUSH2 0x6D2 JUMPI PUSH0 DUP5 ISZERO PUSH2 0x6C0 JUMPI DUP3 DUP8 ADD MLOAD SWAP1 POP JUMPDEST PUSH2 0x6CA DUP6 DUP3 PUSH2 0x44F JUMP JUMPDEST DUP7 SSTORE POP PUSH2 0x731 JUMP JUMPDEST PUSH1 0x1F NOT DUP5 AND PUSH2 0x6E0 DUP7 PUSH2 0x612 JUMP JUMPDEST PUSH0 JUMPDEST DUP3 DUP2 LT ISZERO PUSH2 0x707 JUMPI DUP5 DUP10 ADD MLOAD DUP3 SSTORE PUSH1 0x1 DUP3 ADD SWAP2 POP PUSH1 0x20 DUP6 ADD SWAP5 POP PUSH1 0x20 DUP2 ADD SWAP1 POP PUSH2 0x6E2 JUMP JUMPDEST DUP7 DUP4 LT ISZERO PUSH2 0x724 JUMPI DUP5 DUP10 ADD MLOAD PUSH2 0x720 PUSH1 0x1F DUP10 AND DUP3 PUSH2 0x433 JUMP JUMPDEST DUP4 SSTORE POP JUMPDEST PUSH1 0x1 PUSH1 0x2 DUP9 MUL ADD DUP9 SSTORE POP POP POP JUMPDEST POP POP POP POP POP POP JUMP JUMPDEST PUSH2 0x816 DUP1 PUSH2 0x746 PUSH0 CODECOPY PUSH0 RETURN INVALID PUSH1 0x80 PUSH1 0x40 MSTORE CALLVALUE DUP1 ISZERO PUSH2 0xF JUMPI PUSH0 DUP1 REVERT JUMPDEST POP PUSH1 0x4 CALLDATASIZE LT PUSH2 0x7B JUMPI PUSH0 CALLDATALOAD PUSH1 0xE0 SHR DUP1 PUSH4 0x576C8650 GT PUSH2 0x59 JUMPI DUP1 PUSH4 0x576C8650 EQ PUSH2 0xFB JUMPI DUP1 PUSH4 0x5E49BB50 EQ PUSH2 0x12B JUMPI DUP1 PUSH4 0x853255CC EQ PUSH2 0x15B JUMPI DUP1 PUSH4 0xABA63989 EQ PUSH2 0x179 JUMPI PUSH2 0x7B JUMP JUMPDEST DUP1 PUSH4 0x1003E2D2 EQ PUSH2 0x7F JUMPI DUP1 PUSH4 0x2C3E7E19 EQ PUSH2 0x9B JUMPI DUP1 PUSH4 0x4BAE89CB EQ PUSH2 0xCB JUMPI JUMPDEST PUSH0 DUP1 REVERT JUMPDEST PUSH2 0x99 PUSH1 0x4 DUP1 CALLDATASIZE SUB DUP2 ADD SWAP1 PUSH2 0x94 SWAP2 SWAP1 PUSH2 0x4DB JUMP JUMPDEST PUSH2 0x197 JUMP JUMPDEST STOP JUMPDEST PUSH2 0xB5 PUSH1 0x4 DUP1 CALLDATASIZE SUB DUP2 ADD SWAP1 PUSH2 0xB0 SWAP2 SWAP1 PUSH2 0x4DB JUMP JUMPDEST PUSH2 0x1C0 JUMP JUMPDEST PUSH1 0x40 MLOAD PUSH2 0xC2 SWAP2 SWAP1 PUSH2 0x515 JUMP JUMPDEST PUSH1 0x40 MLOAD DUP1 SWAP2 SUB SWAP1 RETURN JUMPDEST PUSH2 0xE5 PUSH1 0x4 DUP1 CALLDATASIZE SUB DUP2 ADD SWAP1 PUSH2 0xE0 SWAP2 SWAP1 PUSH2 0x4DB JUMP JUMPDEST PUSH2 0x27D JUMP JUMPDEST PUSH1 0x40 MLOAD PUSH2 0xF2 SWAP2 SWAP1 PUSH2 0x515 JUMP JUMPDEST PUSH1 0x40 MLOAD DUP1 SWAP2 SUB SWAP1 RETURN JUMPDEST PUSH2 0x115 PUSH1 0x4 DUP1 CALLDATASIZE SUB DUP2 ADD SWAP1 PUSH2 0x110 SWAP2 SWAP1 PUSH2 0x4DB JUMP JUMPDEST PUSH2 0x29D JUMP JUMPDEST PUSH1 0x40 MLOAD PUSH2 0x122 SWAP2 SWAP1 PUSH2 0x515 JUMP JUMPDEST PUSH1 0x40 MLOAD DUP1 SWAP2 SUB SWAP1 RETURN JUMPDEST PUSH2 0x145 PUSH1 0x4 DUP1 CALLDATASIZE SUB DUP2 ADD SWAP1 PUSH2 0x140 SWAP2 SWAP1 PUSH2 0x58F JUMP JUMPDEST PUSH2 0x2BD JUMP JUMPDEST PUSH1 0x40 MLOAD PUSH2 0x152 SWAP2 SWAP1 PUSH2 0x515 JUMP JUMPDEST PUSH1 0x40 MLOAD DUP1 SWAP2 SUB SWAP1 RETURN JUMPDEST PUSH2 0x163 PUSH2 0x3F7 JUMP JUMPDEST PUSH1 0x40 MLOAD PUSH2 0x170 SWAP2 SWAP1 PUSH2 0x515 JUMP JUMPDEST PUSH1 0x40 MLOAD DUP1 SWAP2 SUB SWAP1 RETURN JUMPDEST PUSH2 0x181 PUSH2 0x44A JUMP JUMPDEST PUSH1 0x40 MLOAD PUSH2 0x18E SWAP2 SWAP1 PUSH2 0x691 JUMP JUMPDEST PUSH1 0x40 MLOAD DUP1 SWAP2 SUB SWAP1 RETURN JUMPDEST PUSH1 0xE DUP2 SWAP1 DUP1 PUSH1 0x1 DUP2 SLOAD ADD DUP1 DUP3 SSTORE DUP1 SWAP2 POP POP PUSH1 0x1 SWAP1 SUB SWAP1 PUSH0 MSTORE PUSH1 0x20 PUSH0 KECCAK256 ADD PUSH0 SWAP1 SWAP2 SWAP1 SWAP2 SWAP1 SWAP2 POP SSTORE POP JUMP JUMPDEST PUSH0 DUP1 PUSH0 SWAP1 POP JUMPDEST PUSH1 0xE DUP1 SLOAD SWAP1 POP DUP2 LT ISZERO PUSH2 0x277 JUMPI DUP3 PUSH1 0xE DUP3 DUP2 SLOAD DUP2 LT PUSH2 0x1E8 JUMPI PUSH2 0x1E7 PUSH2 0x6B1 JUMP JUMPDEST JUMPDEST SWAP1 PUSH0 MSTORE PUSH1 0x20 PUSH0 KECCAK256 ADD SLOAD SUB PUSH2 0x26A JUMPI PUSH1 0xE PUSH1 0x1 PUSH1 0xE DUP1 SLOAD SWAP1 POP PUSH2 0x20A SWAP2 SWAP1 PUSH2 0x70B JUMP JUMPDEST DUP2 SLOAD DUP2 LT PUSH2 0x21B JUMPI PUSH2 0x21A PUSH2 0x6B1 JUMP JUMPDEST JUMPDEST SWAP1 PUSH0 MSTORE PUSH1 0x20 PUSH0 KECCAK256 ADD SLOAD PUSH1 0xE DUP3 DUP2 SLOAD DUP2 LT PUSH2 0x238 JUMPI PUSH2 0x237 PUSH2 0x6B1 JUMP JUMPDEST JUMPDEST SWAP1 PUSH0 MSTORE PUSH1 0x20 PUSH0 KECCAK256 ADD DUP2 SWAP1 SSTORE POP PUSH1 0xE DUP1 SLOAD DUP1 PUSH2 0x256 JUMPI PUSH2 0x255 PUSH2 0x73E JUMP JUMPDEST JUMPDEST PUSH1 0x1 SWAP1 SUB DUP2 DUP2 SWAP1 PUSH0 MSTORE PUSH1 0x20 PUSH0 KECCAK256 ADD PUSH0 SWAP1 SSTORE SWAP1 SSTORE JUMPDEST DUP1 DUP1 PUSH1 0x1 ADD SWAP2 POP POP PUSH2 0x1C6 JUMP JUMPDEST POP SWAP2 SWAP1 POP JUMP JUMPDEST PUSH1 0xE DUP2 DUP2 SLOAD DUP2 LT PUSH2 0x28C JUMPI PUSH0 DUP1 REVERT JUMPDEST SWAP1 PUSH0 MSTORE PUSH1 0x20 PUSH0 KECCAK256 ADD PUSH0 SWAP2 POP SWAP1 POP SLOAD DUP2 JUMP JUMPDEST PUSH1 0xA DUP2 DUP2 SLOAD DUP2 LT PUSH2 0x2AC JUMPI PUSH0 DUP1 REVERT JUMPDEST SWAP1 PUSH0 MSTORE PUSH1 0x20 PUSH0 KECCAK256 ADD PUSH0 SWAP2 POP SWAP1 POP SLOAD DUP2 JUMP JUMPDEST PUSH0 PUSH1 0xDF PUSH1 0x9 PUSH1 0x1 DUP2 SLOAD DUP2 LT PUSH2 0x2D5 JUMPI PUSH2 0x2D4 PUSH2 0x6B1 JUMP JUMPDEST JUMPDEST SWAP1 PUSH0 MSTORE PUSH1 0x20 PUSH0 KECCAK256 ADD DUP2 SWAP1 SSTORE POP PUSH0 PUSH1 0x9 PUSH1 0x1 DUP2 SLOAD DUP2 LT PUSH2 0x2F7 JUMPI PUSH2 0x2F6 PUSH2 0x6B1 JUMP JUMPDEST JUMPDEST SWAP1 PUSH0 MSTORE PUSH1 0x20 PUSH0 KECCAK256 ADD SLOAD SWAP1 POP PUSH1 0x9 PUSH1 0x7B SWAP1 DUP1 PUSH1 0x1 DUP2 SLOAD ADD DUP1 DUP3 SSTORE DUP1 SWAP2 POP POP PUSH1 0x1 SWAP1 SUB SWAP1 PUSH0 MSTORE PUSH1 0x20 PUSH0 KECCAK256 ADD PUSH0 SWAP1 SWAP2 SWAP1 SWAP2 SWAP1 SWAP2 POP SSTORE PUSH1 0x9 PUSH1 0x2D SWAP1 DUP1 PUSH1 0x1 DUP2 SLOAD ADD DUP1 DUP3 SSTORE DUP1 SWAP2 POP POP PUSH1 0x1 SWAP1 SUB SWAP1 PUSH0 MSTORE PUSH1 0x20 PUSH0 KECCAK256 ADD PUSH0 SWAP1 SWAP2 SWAP1 SWAP2 SWAP1 SWAP2 POP SSTORE PUSH1 0x9 DUP1 SLOAD DUP1 PUSH2 0x362 JUMPI PUSH2 0x361 PUSH2 0x73E JUMP JUMPDEST JUMPDEST PUSH1 0x1 SWAP1 SUB DUP2 DUP2 SWAP1 PUSH0 MSTORE PUSH1 0x20 PUSH0 KECCAK256 ADD PUSH0 SWAP1 SSTORE SWAP1 SSTORE PUSH0 DUP5 DUP5 PUSH1 0x1 SWAP1 PUSH1 0x3 SWAP3 PUSH2 0x38A SWAP4 SWAP3 SWAP2 SWAP1 PUSH2 0x773 JUMP JUMPDEST DUP1 DUP1 PUSH1 0x20 MUL PUSH1 0x20 ADD PUSH1 0x40 MLOAD SWAP1 DUP2 ADD PUSH1 0x40 MSTORE DUP1 SWAP4 SWAP3 SWAP2 SWAP1 DUP2 DUP2 MSTORE PUSH1 0x20 ADD DUP4 DUP4 PUSH1 0x20 MUL DUP1 DUP3 DUP5 CALLDATACOPY PUSH0 DUP2 DUP5 ADD MSTORE PUSH1 0x1F NOT PUSH1 0x1F DUP3 ADD AND SWAP1 POP DUP1 DUP4 ADD SWAP3 POP POP POP POP POP POP POP SWAP1 POP PUSH0 PUSH1 0x9 DUP1 SLOAD SWAP1 POP SWAP1 POP DUP3 DUP2 DUP4 MLOAD PUSH2 0x3E2 SWAP2 SWAP1 PUSH2 0x7AD JUMP JUMPDEST PUSH2 0x3EC SWAP2 SWAP1 PUSH2 0x7AD JUMP JUMPDEST SWAP4 POP POP POP POP SWAP3 SWAP2 POP POP JUMP JUMPDEST PUSH0 DUP1 PUSH0 SWAP1 POP PUSH0 JUMPDEST PUSH1 0xE DUP1 SLOAD SWAP1 POP DUP2 LT ISZERO PUSH2 0x442 JUMPI PUSH1 0xE DUP2 DUP2 SLOAD DUP2 LT PUSH2 0x41F JUMPI PUSH2 0x41E PUSH2 0x6B1 JUMP JUMPDEST JUMPDEST SWAP1 PUSH0 MSTORE PUSH1 0x20 PUSH0 KECCAK256 ADD SLOAD DUP3 PUSH2 0x433 SWAP2 SWAP1 PUSH2 0x7AD JUMP JUMPDEST SWAP2 POP DUP1 DUP1 PUSH1 0x1 ADD SWAP2 POP POP PUSH2 0x3FE JUMP JUMPDEST POP DUP1 SWAP2 POP POP SWAP1 JUMP JUMPDEST PUSH1 0x60 PUSH1 0xE DUP1 SLOAD DUP1 PUSH1 0x20 MUL PUSH1 0x20 ADD PUSH1 0x40 MLOAD SWAP1 DUP2 ADD PUSH1 0x40 MSTORE DUP1 SWAP3 SWAP2 SWAP1 DUP2 DUP2 MSTORE PUSH1 0x20 ADD DUP3 DUP1 SLOAD DUP1 ISZERO PUSH2 0x496 JUMPI PUSH1 0x20 MUL DUP3 ADD SWAP2 SWAP1 PUSH0 MSTORE PUSH1 0x20 PUSH0 KECCAK256 SWAP1 JUMPDEST DUP2 SLOAD DUP2 MSTORE PUSH1 0x20 ADD SWAP1 PUSH1 0x1 ADD SWAP1 DUP1 DUP4 GT PUSH2 0x482 JUMPI JUMPDEST POP POP POP POP POP SWAP1 POP SWAP1 JUMP JUMPDEST PUSH0 DUP1 REVERT JUMPDEST PUSH0 DUP1 REVERT JUMPDEST PUSH0 DUP2 SWAP1 POP SWAP2 SWAP1 POP JUMP JUMPDEST PUSH2 0x4BA DUP2 PUSH2 0x4A8 JUMP JUMPDEST DUP2 EQ PUSH2 0x4C4 JUMPI PUSH0 DUP1 REVERT JUMPDEST POP JUMP JUMPDEST PUSH0 DUP2 CALLDATALOAD SWAP1 POP PUSH2 0x4D5 DUP2 PUSH2 0x4B1 JUMP JUMPDEST SWAP3 SWAP2 POP POP JUMP JUMPDEST PUSH0 PUSH1 0x20 DUP3 DUP5 SUB SLT ISZERO PUSH2 0x4F0 JUMPI PUSH2 0x4EF PUSH2 0x4A0 JUMP JUMPDEST JUMPDEST PUSH0 PUSH2 0x4FD DUP5 DUP3 DUP6 ADD PUSH2 0x4C7 JUMP JUMPDEST SWAP2 POP POP SWAP3 SWAP2 POP POP JUMP JUMPDEST PUSH2 0x50F DUP2 PUSH2 0x4A8 JUMP JUMPDEST DUP3 MSTORE POP POP JUMP JUMPDEST PUSH0 PUSH1 0x20 DUP3 ADD SWAP1 POP PUSH2 0x528 PUSH0 DUP4 ADD DUP5 PUSH2 0x506 JUMP JUMPDEST SWAP3 SWAP2 POP POP JUMP JUMPDEST PUSH0 DUP1 REVERT JUMPDEST PUSH0 DUP1 REVERT JUMPDEST PUSH0 DUP1 REVERT JUMPDEST PUSH0 DUP1 DUP4 PUSH1 0x1F DUP5 ADD SLT PUSH2 0x54F JUMPI PUSH2 0x54E PUSH2 0x52E JUMP JUMPDEST JUMPDEST DUP3 CALLDATALOAD SWAP1 POP PUSH8 0xFFFFFFFFFFFFFFFF DUP2 GT ISZERO PUSH2 0x56C JUMPI PUSH2 0x56B PUSH2 0x532 JUMP JUMPDEST JUMPDEST PUSH1 0x20 DUP4 ADD SWAP2 POP DUP4 PUSH1 0x20 DUP3 MUL DUP4 ADD GT ISZERO PUSH2 0x588 JUMPI PUSH2 0x587 PUSH2 0x536 JUMP JUMPDEST JUMPDEST SWAP3 POP SWAP3 SWAP1 POP JUMP JUMPDEST PUSH0 DUP1 PUSH1 0x20 DUP4 DUP6 SUB SLT ISZERO PUSH2 0x5A5 JUMPI PUSH2 0x5A4 PUSH2 0x4A0 JUMP JUMPDEST JUMPDEST PUSH0 DUP4 ADD CALLDATALOAD PUSH8 0xFFFFFFFFFFFFFFFF DUP2 GT ISZERO PUSH2 0x5C2 JUMPI PUSH2 0x5C1 PUSH2 0x4A4 JUMP JUMPDEST JUMPDEST PUSH2 0x5CE DUP6 DUP3 DUP7 ADD PUSH2 0x53A JUMP JUMPDEST SWAP3 POP SWAP3 POP POP SWAP3 POP SWAP3 SWAP1 POP JUMP JUMPDEST PUSH0 DUP2 MLOAD SWAP1 POP SWAP2 SWAP1 POP JUMP JUMPDEST PUSH0 DUP3 DUP3 MSTORE PUSH1 0x20 DUP3 ADD SWAP1 POP SWAP3 SWAP2 POP POP JUMP JUMPDEST PUSH0 DUP2 SWAP1 POP PUSH1 0x20 DUP3 ADD SWAP1 POP SWAP2 SWAP1 POP JUMP JUMPDEST PUSH2 0x60C DUP2 PUSH2 0x4A8 JUMP JUMPDEST DUP3 MSTORE POP POP JUMP JUMPDEST PUSH0 PUSH2 0x61D DUP4 DUP4 PUSH2 0x603 JUMP JUMPDEST PUSH1 0x20 DUP4 ADD SWAP1 POP SWAP3 SWAP2 POP POP JUMP JUMPDEST PUSH0 PUSH1 0x20 DUP3 ADD SWAP1 POP SWAP2 SWAP1 POP JUMP JUMPDEST PUSH0 PUSH2 0x63F DUP3 PUSH2 0x5DA JUMP JUMPDEST PUSH2 0x649 DUP2 DUP6 PUSH2 0x5E4 JUMP JUMPDEST SWAP4 POP PUSH2 0x654 DUP4 PUSH2 0x5F4 JUMP JUMPDEST DUP1 PUSH0 JUMPDEST DUP4 DUP2 LT ISZERO PUSH2 0x684 JUMPI DUP2 MLOAD PUSH2 0x66B DUP9 DUP3 PUSH2 0x612 JUMP JUMPDEST SWAP8 POP PUSH2 0x676 DUP4 PUSH2 0x629 JUMP JUMPDEST SWAP3 POP POP PUSH1 0x1 DUP2 ADD SWAP1 POP PUSH2 0x657 JUMP JUMPDEST POP DUP6 SWAP4 POP POP POP POP SWAP3 SWAP2 POP POP JUMP JUMPDEST PUSH0 PUSH1 0x20 DUP3 ADD SWAP1 POP DUP2 DUP2 SUB PUSH0 DUP4 ADD MSTORE PUSH2 0x6A9 DUP2 DUP5 PUSH2 0x635 JUMP JUMPDEST SWAP1 POP SWAP3 SWAP2 POP POP JUMP JUMPDEST PUSH32 0x4E487B7100000000000000000000000000000000000000000000000000000000 PUSH0 MSTORE PUSH1 0x32 PUSH1 0x4 MSTORE PUSH1 0x24 PUSH0 REVERT JUMPDEST PUSH32 0x4E487B7100000000000000000000000000000000000000000000000000000000 PUSH0 MSTORE PUSH1 0x11 PUSH1 0x4 MSTORE PUSH1 0x24 PUSH0 REVERT JUMPDEST PUSH0 PUSH2 0x715 DUP3 PUSH2 0x4A8 JUMP JUMPDEST SWAP2 POP PUSH2 0x720 DUP4 PUSH2 0x4A8 JUMP JUMPDEST SWAP3 POP DUP3 DUP3 SUB SWAP1 POP DUP2 DUP2 GT ISZERO PUSH2 0x738 JUMPI PUSH2 0x737 PUSH2 0x6DE JUMP JUMPDEST JUMPDEST SWAP3 SWAP2 POP POP JUMP JUMPDEST PUSH32 0x4E487B7100000000000000000000000000000000000000000000000000000000 PUSH0 MSTORE PUSH1 0x31 PUSH1 0x4 MSTORE PUSH1 0x24 PUSH0 REVERT JUMPDEST PUSH0 DUP1 REVERT JUMPDEST PUSH0 DUP1 REVERT JUMPDEST PUSH0 DUP1 DUP6 DUP6 GT ISZERO PUSH2 0x786 JUMPI PUSH2 0x785 PUSH2 0x76B JUMP JUMPDEST JUMPDEST DUP4 DUP7 GT ISZERO PUSH2 0x797 JUMPI PUSH2 0x796 PUSH2 0x76F JUMP JUMPDEST JUMPDEST PUSH1 0x20 DUP6 MUL DUP4 ADD SWAP2 POP DUP5 DUP7 SUB SWAP1 POP SWAP5 POP SWAP5 SWAP3 POP POP POP JUMP JUMPDEST PUSH0 PUSH2 0x7B7 DUP3 PUSH2 0x4A8 JUMP JUMPDEST SWAP2 POP PUSH2 0x7C2 DUP4 PUSH2 0x4A8 JUMP JUMPDEST SWAP3 POP DUP3 DUP3 ADD SWAP1 POP DUP1 DUP3 GT ISZERO PUSH2 0x7DA JUMPI PUSH2 0x7D9 PUSH2 0x6DE JUMP JUMPDEST JUMPDEST SWAP3 SWAP2 POP POP JUMP INVALID LOG2 PUSH5 0x6970667358 0x22 SLT KECCAK256 0xEE 0xB9 0xD3 PUSH32 0x4EE5F35F85BE0649EFC36E9399BBC059A939535702571D565F72385E64736F6C PUSH4 0x4300081A STOP CALLER "
				},
				"gasEstimates": {
					"creation": {
						"codeDepositCost": "414000",
						"executionCost": "infinite",
						"totalCost": "infinite"
					},
					"external": {
						"add(uint256)": "46822",
						"array1(uint256)": "infinite",
						"deleteByValue(uint256)": "infinite",
						"methodx(uint256[])": "infinite",
						"printArr()": "infinite",
						"storageArr(uint256)": "infinite",
						"sum()": "infinite"
					}
				},
				"methodIdentifiers": {
					"add(uint256)": "1003e2d2",
					"array1(uint256)": "4bae89cb",
					"deleteByValue(uint256)": "2c3e7e19",
					"methodx(uint256[])": "5e49bb50",
					"printArr()": "aba63989",
					"storageArr(uint256)": "576c8650",
					"sum()": "853255cc"
				}
			},
			"storageLayout": {
				"storage": [
					{
						"astId": 5,
						"contract": "solidity-study/solidity-1base/7/ArrayDemo.sol:ArrayDemo",
						"label": "arr1",
						"offset": 0,
						"slot": "0",
						"type": "t_array(t_uint256)4_storage"
					},
					{
						"astId": 14,
						"contract": "solidity-study/solidity-1base/7/ArrayDemo.sol:ArrayDemo",
						"label": "arr2",
						"offset": 0,
						"slot": "4",
						"type": "t_array(t_uint256)4_storage"
					},
					{
						"astId": 17,
						"contract": "solidity-study/solidity-1base/7/ArrayDemo.sol:ArrayDemo",
						"label": "arr3",
						"offset": 0,
						"slot": "8",
						"type": "t_array(t_uint256)dyn_storage"
					},
					{
						"astId": 25,
						"contract": "solidity-study/solidity-1base/7/ArrayDemo.sol:ArrayDemo",
						"label": "arr4",
						"offset": 0,
						"slot": "9",
						"type": "t_array(t_uint256)dyn_storage"
					},
					{
						"astId": 28,
						"contract": "solidity-study/solidity-1base/7/ArrayDemo.sol:ArrayDemo",
						"label": "storageArr",
						"offset": 0,
						"slot": "10",
						"type": "t_array(t_uint256)dyn_storage"
					},
					{
						"astId": 91,
						"contract": "solidity-study/solidity-1base/7/ArrayDemo.sol:ArrayDemo",
						"label": "bytesArr",
						"offset": 0,
						"slot": "11",
						"type": "t_bytes_storage"
					},
					{
						"astId": 97,
						"contract": "solidity-study/solidity-1base/7/ArrayDemo.sol:ArrayDemo",
						"label": "bytesArr1",
						"offset": 0,
						"slot": "12",
						"type": "t_bytes_storage"
					},
					{
						"astId": 100,
						"contract": "solidity-study/solidity-1base/7/ArrayDemo.sol:ArrayDemo",
						"label": "str",
						"offset": 0,
						"slot": "13",
						"type": "t_string_storage"
					},
					{
						"astId": 103,
						"contract": "solidity-study/solidity-1base/7/ArrayDemo.sol:ArrayDemo",
						"label": "array1",
						"offset": 0,
						"slot": "14",
						"type": "t_array(t_uint256)dyn_storage"
					}
				],
				"types": {
					"t_array(t_uint256)4_storage": {
						"base": "t_uint256",
						"encoding": "inplace",
						"label": "uint256[4]",
						"numberOfBytes": "128"
					},
					"t_array(t_uint256)dyn_storage": {
						"base": "t_uint256",
						"encoding": "dynamic_array",
						"label": "uint256[]",
						"numberOfBytes": "32"
					},
					"t_bytes_storage": {
						"encoding": "bytes",
						"label": "bytes",
						"numberOfBytes": "32"
					},
					"t_string_storage": {
						"encoding": "bytes",
						"label": "string",
						"numberOfBytes": "32"
					},
					"t_uint256": {
						"encoding": "inplace",
						"label": "uint256",
						"numberOfBytes": "32"
					}
				}
			},
			"userdoc": {
				"kind": "user",
				"methods": {},
				"version": 1
			}
		}
	}
}