{
	"solidity-study/solidity-1base/2/2.1/Value.sol": {
		"Value": {
			"abi": [
				{
					"inputs": [],
					"name": "addValue",
					"outputs": [],
					"stateMutability": "payable",
					"type": "function"
				},
				{
					"inputs": [],
					"name": "getTokenBalance",
					"outputs": [
						{
							"internalType": "uint256",
							"name": "",
							"type": "uint256"
						}
					],
					"stateMutability": "view",
					"type": "function"
				},
				{
					"inputs": [],
					"name": "tokenBalance",
					"outputs": [
						{
							"internalType": "uint256",
							"name": "",
							"type": "uint256"
						}
					],
					"stateMutability": "view",
					"type": "function"
				}
			],
			"devdoc": {
				"kind": "dev",
				"methods": {},
				"version": 1
			},
			"evm": {
				"assembly": "    /* \"solidity-study/solidity-1base/2/2.1/Value.sol\":61:1088  contract Value {... */\n  mstore(0x40, 0x80)\n    /* \"solidity-study/solidity-1base/2/2.1/Value.sol\":112:113  0 */\n  0x00\n    /* \"solidity-study/solidity-1base/2/2.1/Value.sol\":82:113  uint256 public tokenBalance = 0 */\n  dup1\n  sstore\n    /* \"solidity-study/solidity-1base/2/2.1/Value.sol\":135:138  255 */\n  0xff\n    /* \"solidity-study/solidity-1base/2/2.1/Value.sol\":119:138  uint8 uintval = 255 */\n  0x01\n  exp(0x0100, 0x00)\n  dup2\n  sload\n  dup2\n  0xff\n  mul\n  not\n  and\n  swap1\n  dup4\n  0xff\n  and\n  mul\n  or\n  swap1\n  sstore\n  pop\n    /* \"solidity-study/solidity-1base/2/2.1/Value.sol\":61:1088  contract Value {... */\n  callvalue\n  dup1\n  iszero\n  tag_1\n  jumpi\n  0x00\n  dup1\n  revert\ntag_1:\n  pop\n  dataSize(sub_0)\n  dup1\n  dataOffset(sub_0)\n  0x00\n  codecopy\n  0x00\n  return\nstop\n\nsub_0: assembly {\n        /* \"solidity-study/solidity-1base/2/2.1/Value.sol\":61:1088  contract Value {... */\n      mstore(0x40, 0x80)\n      jumpi(tag_1, lt(calldatasize, 0x04))\n      shr(0xe0, calldataload(0x00))\n      dup1\n      0x040f0aee\n      eq\n      tag_2\n      jumpi\n      dup1\n      0x82b2e257\n      eq\n      tag_3\n      jumpi\n      dup1\n      0x9e1a4d19\n      eq\n      tag_4\n      jumpi\n    tag_1:\n      0x00\n      dup1\n      revert\n        /* \"solidity-study/solidity-1base/2/2.1/Value.sol\":145:243  function addValue() public payable {... */\n    tag_2:\n      tag_5\n      tag_6\n      jump\t// in\n    tag_5:\n      stop\n        /* \"solidity-study/solidity-1base/2/2.1/Value.sol\":249:342  function getTokenBalance() public view returns (uint256) {... */\n    tag_3:\n      callvalue\n      dup1\n      iszero\n      tag_7\n      jumpi\n      0x00\n      dup1\n      revert\n    tag_7:\n      pop\n      tag_8\n      tag_9\n      jump\t// in\n    tag_8:\n      mload(0x40)\n      tag_10\n      swap2\n      swap1\n      tag_11\n      jump\t// in\n    tag_10:\n      mload(0x40)\n      dup1\n      swap2\n      sub\n      swap1\n      return\n        /* \"solidity-study/solidity-1base/2/2.1/Value.sol\":82:113  uint256 public tokenBalance = 0 */\n    tag_4:\n      callvalue\n      dup1\n      iszero\n      tag_12\n      jumpi\n      0x00\n      dup1\n      revert\n    tag_12:\n      pop\n      tag_13\n      tag_14\n      jump\t// in\n    tag_13:\n      mload(0x40)\n      tag_15\n      swap2\n      swap1\n      tag_11\n      jump\t// in\n    tag_15:\n      mload(0x40)\n      dup1\n      swap2\n      sub\n      swap1\n      return\n        /* \"solidity-study/solidity-1base/2/2.1/Value.sol\":145:243  function addValue() public payable {... */\n    tag_6:\n        /* \"solidity-study/solidity-1base/2/2.1/Value.sol\":233:235  10 */\n      0x0a\n        /* \"solidity-study/solidity-1base/2/2.1/Value.sol\":221:230  msg.value */\n      callvalue\n        /* \"solidity-study/solidity-1base/2/2.1/Value.sol\":221:235  msg.value / 10 */\n      tag_17\n      swap2\n      swap1\n      tag_18\n      jump\t// in\n    tag_17:\n        /* \"solidity-study/solidity-1base/2/2.1/Value.sol\":205:217  tokenBalance */\n      sload(0x00)\n        /* \"solidity-study/solidity-1base/2/2.1/Value.sol\":205:236  tokenBalance + (msg.value / 10) */\n      tag_19\n      swap2\n      swap1\n      tag_20\n      jump\t// in\n    tag_19:\n        /* \"solidity-study/solidity-1base/2/2.1/Value.sol\":190:202  tokenBalance */\n      0x00\n        /* \"solidity-study/solidity-1base/2/2.1/Value.sol\":190:236  tokenBalance = tokenBalance + (msg.value / 10) */\n      dup2\n      swap1\n      sstore\n      pop\n        /* \"solidity-study/solidity-1base/2/2.1/Value.sol\":145:243  function addValue() public payable {... */\n      jump\t// out\n        /* \"solidity-study/solidity-1base/2/2.1/Value.sol\":249:342  function getTokenBalance() public view returns (uint256) {... */\n    tag_9:\n        /* \"solidity-study/solidity-1base/2/2.1/Value.sol\":297:304  uint256 */\n      0x00\n        /* \"solidity-study/solidity-1base/2/2.1/Value.sol\":323:335  tokenBalance */\n      dup1\n      sload\n        /* \"solidity-study/solidity-1base/2/2.1/Value.sol\":316:335  return tokenBalance */\n      swap1\n      pop\n        /* \"solidity-study/solidity-1base/2/2.1/Value.sol\":249:342  function getTokenBalance() public view returns (uint256) {... */\n      swap1\n      jump\t// out\n        /* \"solidity-study/solidity-1base/2/2.1/Value.sol\":82:113  uint256 public tokenBalance = 0 */\n    tag_14:\n      sload(0x00)\n      dup2\n      jump\t// out\n        /* \"#utility.yul\":7:84   */\n    tag_22:\n        /* \"#utility.yul\":44:51   */\n      0x00\n        /* \"#utility.yul\":73:78   */\n      dup2\n        /* \"#utility.yul\":62:78   */\n      swap1\n      pop\n        /* \"#utility.yul\":7:84   */\n      swap2\n      swap1\n      pop\n      jump\t// out\n        /* \"#utility.yul\":90:208   */\n    tag_23:\n        /* \"#utility.yul\":177:201   */\n      tag_29\n        /* \"#utility.yul\":195:200   */\n      dup2\n        /* \"#utility.yul\":177:201   */\n      tag_22\n      jump\t// in\n    tag_29:\n        /* \"#utility.yul\":172:175   */\n      dup3\n        /* \"#utility.yul\":165:202   */\n      mstore\n        /* \"#utility.yul\":90:208   */\n      pop\n      pop\n      jump\t// out\n        /* \"#utility.yul\":214:436   */\n    tag_11:\n        /* \"#utility.yul\":307:311   */\n      0x00\n        /* \"#utility.yul\":345:347   */\n      0x20\n        /* \"#utility.yul\":334:343   */\n      dup3\n        /* \"#utility.yul\":330:348   */\n      add\n        /* \"#utility.yul\":322:348   */\n      swap1\n      pop\n        /* \"#utility.yul\":358:429   */\n      tag_31\n        /* \"#utility.yul\":426:427   */\n      0x00\n        /* \"#utility.yul\":415:424   */\n      dup4\n        /* \"#utility.yul\":411:428   */\n      add\n        /* \"#utility.yul\":402:408   */\n      dup5\n        /* \"#utility.yul\":358:429   */\n      tag_23\n      jump\t// in\n    tag_31:\n        /* \"#utility.yul\":214:436   */\n      swap3\n      swap2\n      pop\n      pop\n      jump\t// out\n        /* \"#utility.yul\":442:622   */\n    tag_24:\n        /* \"#utility.yul\":490:567   */\n      0x4e487b7100000000000000000000000000000000000000000000000000000000\n        /* \"#utility.yul\":487:488   */\n      0x00\n        /* \"#utility.yul\":480:568   */\n      mstore\n        /* \"#utility.yul\":587:591   */\n      0x12\n        /* \"#utility.yul\":584:585   */\n      0x04\n        /* \"#utility.yul\":577:592   */\n      mstore\n        /* \"#utility.yul\":611:615   */\n      0x24\n        /* \"#utility.yul\":608:609   */\n      0x00\n        /* \"#utility.yul\":601:616   */\n      revert\n        /* \"#utility.yul\":628:808   */\n    tag_25:\n        /* \"#utility.yul\":676:753   */\n      0x4e487b7100000000000000000000000000000000000000000000000000000000\n        /* \"#utility.yul\":673:674   */\n      0x00\n        /* \"#utility.yul\":666:754   */\n      mstore\n        /* \"#utility.yul\":773:777   */\n      0x11\n        /* \"#utility.yul\":770:771   */\n      0x04\n        /* \"#utility.yul\":763:778   */\n      mstore\n        /* \"#utility.yul\":797:801   */\n      0x24\n        /* \"#utility.yul\":794:795   */\n      0x00\n        /* \"#utility.yul\":787:802   */\n      revert\n        /* \"#utility.yul\":814:999   */\n    tag_18:\n        /* \"#utility.yul\":854:855   */\n      0x00\n        /* \"#utility.yul\":871:891   */\n      tag_35\n        /* \"#utility.yul\":889:890   */\n      dup3\n        /* \"#utility.yul\":871:891   */\n      tag_22\n      jump\t// in\n    tag_35:\n        /* \"#utility.yul\":866:891   */\n      swap2\n      pop\n        /* \"#utility.yul\":905:925   */\n      tag_36\n        /* \"#utility.yul\":923:924   */\n      dup4\n        /* \"#utility.yul\":905:925   */\n      tag_22\n      jump\t// in\n    tag_36:\n        /* \"#utility.yul\":900:925   */\n      swap3\n      pop\n        /* \"#utility.yul\":944:945   */\n      dup3\n        /* \"#utility.yul\":934:969   */\n      tag_37\n      jumpi\n        /* \"#utility.yul\":949:967   */\n      tag_38\n      tag_24\n      jump\t// in\n    tag_38:\n        /* \"#utility.yul\":934:969   */\n    tag_37:\n        /* \"#utility.yul\":991:992   */\n      dup3\n        /* \"#utility.yul\":988:989   */\n      dup3\n        /* \"#utility.yul\":984:993   */\n      div\n        /* \"#utility.yul\":979:993   */\n      swap1\n      pop\n        /* \"#utility.yul\":814:999   */\n      swap3\n      swap2\n      pop\n      pop\n      jump\t// out\n        /* \"#utility.yul\":1005:1196   */\n    tag_20:\n        /* \"#utility.yul\":1045:1048   */\n      0x00\n        /* \"#utility.yul\":1064:1084   */\n      tag_40\n        /* \"#utility.yul\":1082:1083   */\n      dup3\n        /* \"#utility.yul\":1064:1084   */\n      tag_22\n      jump\t// in\n    tag_40:\n        /* \"#utility.yul\":1059:1084   */\n      swap2\n      pop\n        /* \"#utility.yul\":1098:1118   */\n      tag_41\n        /* \"#utility.yul\":1116:1117   */\n      dup4\n        /* \"#utility.yul\":1098:1118   */\n      tag_22\n      jump\t// in\n    tag_41:\n        /* \"#utility.yul\":1093:1118   */\n      swap3\n      pop\n        /* \"#utility.yul\":1141:1142   */\n      dup3\n        /* \"#utility.yul\":1138:1139   */\n      dup3\n        /* \"#utility.yul\":1134:1143   */\n      add\n        /* \"#utility.yul\":1127:1143   */\n      swap1\n      pop\n        /* \"#utility.yul\":1162:1165   */\n      dup1\n        /* \"#utility.yul\":1159:1160   */\n      dup3\n        /* \"#utility.yul\":1156:1166   */\n      gt\n        /* \"#utility.yul\":1153:1189   */\n      iszero\n      tag_42\n      jumpi\n        /* \"#utility.yul\":1169:1187   */\n      tag_43\n      tag_25\n      jump\t// in\n    tag_43:\n        /* \"#utility.yul\":1153:1189   */\n    tag_42:\n        /* \"#utility.yul\":1005:1196   */\n      swap3\n      swap2\n      pop\n      pop\n      jump\t// out\n\n    auxdata: 0xa26469706673582212203da703b76522795a226a8f0943457726c5075a8ed740d7f1e82c06b6c9ffee8664736f6c634300081a0033\n}\n",
				"bytecode": {
					"linkReferences": {},
					"object": "60806040525f805560ff60015f6101000a81548160ff021916908360ff160217905550348015602c575f80fd5b506101e68061003a5f395ff3fe608060405260043610610033575f3560e01c8063040f0aee1461003757806382b2e257146100415780639e1a4d191461006b575b5f80fd5b61003f610095565b005b34801561004c575f80fd5b506100556100b5565b60405161006291906100da565b60405180910390f35b348015610076575f80fd5b5061007f6100bd565b60405161008c91906100da565b60405180910390f35b600a346100a2919061014d565b5f546100ae919061017d565b5f81905550565b5f8054905090565b5f5481565b5f819050919050565b6100d4816100c2565b82525050565b5f6020820190506100ed5f8301846100cb565b92915050565b7f4e487b71000000000000000000000000000000000000000000000000000000005f52601260045260245ffd5b7f4e487b71000000000000000000000000000000000000000000000000000000005f52601160045260245ffd5b5f610157826100c2565b9150610162836100c2565b925082610172576101716100f3565b5b828204905092915050565b5f610187826100c2565b9150610192836100c2565b92508282019050808211156101aa576101a9610120565b5b9291505056fea26469706673582212203da703b76522795a226a8f0943457726c5075a8ed740d7f1e82c06b6c9ffee8664736f6c634300081a0033",
					"opcodes": "PUSH1 0x80 PUSH1 0x40 MSTORE PUSH0 DUP1 SSTORE PUSH1 0xFF PUSH1 0x1 PUSH0 PUSH2 0x100 EXP DUP2 SLOAD DUP2 PUSH1 0xFF MUL NOT AND SWAP1 DUP4 PUSH1 0xFF AND MUL OR SWAP1 SSTORE POP CALLVALUE DUP1 ISZERO PUSH1 0x2C JUMPI PUSH0 DUP1 REVERT JUMPDEST POP PUSH2 0x1E6 DUP1 PUSH2 0x3A PUSH0 CODECOPY PUSH0 RETURN INVALID PUSH1 0x80 PUSH1 0x40 MSTORE PUSH1 0x4 CALLDATASIZE LT PUSH2 0x33 JUMPI PUSH0 CALLDATALOAD PUSH1 0xE0 SHR DUP1 PUSH4 0x40F0AEE EQ PUSH2 0x37 JUMPI DUP1 PUSH4 0x82B2E257 EQ PUSH2 0x41 JUMPI DUP1 PUSH4 0x9E1A4D19 EQ PUSH2 0x6B JUMPI JUMPDEST PUSH0 DUP1 REVERT JUMPDEST PUSH2 0x3F PUSH2 0x95 JUMP JUMPDEST STOP JUMPDEST CALLVALUE DUP1 ISZERO PUSH2 0x4C JUMPI PUSH0 DUP1 REVERT JUMPDEST POP PUSH2 0x55 PUSH2 0xB5 JUMP JUMPDEST PUSH1 0x40 MLOAD PUSH2 0x62 SWAP2 SWAP1 PUSH2 0xDA JUMP JUMPDEST PUSH1 0x40 MLOAD DUP1 SWAP2 SUB SWAP1 RETURN JUMPDEST CALLVALUE DUP1 ISZERO PUSH2 0x76 JUMPI PUSH0 DUP1 REVERT JUMPDEST POP PUSH2 0x7F PUSH2 0xBD JUMP JUMPDEST PUSH1 0x40 MLOAD PUSH2 0x8C SWAP2 SWAP1 PUSH2 0xDA JUMP JUMPDEST PUSH1 0x40 MLOAD DUP1 SWAP2 SUB SWAP1 RETURN JUMPDEST PUSH1 0xA CALLVALUE PUSH2 0xA2 SWAP2 SWAP1 PUSH2 0x14D JUMP JUMPDEST PUSH0 SLOAD PUSH2 0xAE SWAP2 SWAP1 PUSH2 0x17D JUMP JUMPDEST PUSH0 DUP2 SWAP1 SSTORE POP JUMP JUMPDEST PUSH0 DUP1 SLOAD SWAP1 POP SWAP1 JUMP JUMPDEST PUSH0 SLOAD DUP2 JUMP JUMPDEST PUSH0 DUP2 SWAP1 POP SWAP2 SWAP1 POP JUMP JUMPDEST PUSH2 0xD4 DUP2 PUSH2 0xC2 JUMP JUMPDEST DUP3 MSTORE POP POP JUMP JUMPDEST PUSH0 PUSH1 0x20 DUP3 ADD SWAP1 POP PUSH2 0xED PUSH0 DUP4 ADD DUP5 PUSH2 0xCB JUMP JUMPDEST SWAP3 SWAP2 POP POP JUMP JUMPDEST PUSH32 0x4E487B7100000000000000000000000000000000000000000000000000000000 PUSH0 MSTORE PUSH1 0x12 PUSH1 0x4 MSTORE PUSH1 0x24 PUSH0 REVERT JUMPDEST PUSH32 0x4E487B7100000000000000000000000000000000000000000000000000000000 PUSH0 MSTORE PUSH1 0x11 PUSH1 0x4 MSTORE PUSH1 0x24 PUSH0 REVERT JUMPDEST PUSH0 PUSH2 0x157 DUP3 PUSH2 0xC2 JUMP JUMPDEST SWAP2 POP PUSH2 0x162 DUP4 PUSH2 0xC2 JUMP JUMPDEST SWAP3 POP DUP3 PUSH2 0x172 JUMPI PUSH2 0x171 PUSH2 0xF3 JUMP JUMPDEST JUMPDEST DUP3 DUP3 DIV SWAP1 POP SWAP3 SWAP2 POP POP JUMP JUMPDEST PUSH0 PUSH2 0x187 DUP3 PUSH2 0xC2 JUMP JUMPDEST SWAP2 POP PUSH2 0x192 DUP4 PUSH2 0xC2 JUMP JUMPDEST SWAP3 POP DUP3 DUP3 ADD SWAP1 POP DUP1 DUP3 GT ISZERO PUSH2 0x1AA JUMPI PUSH2 0x1A9 PUSH2 0x120 JUMP JUMPDEST JUMPDEST SWAP3 SWAP2 POP POP JUMP INVALID LOG2 PUSH5 0x6970667358 0x22 SLT KECCAK256 RETURNDATASIZE 0xA7 SUB 0xB7 PUSH6 0x22795A226A8F MULMOD NUMBER GASLIMIT PUSH24 0x26C5075A8ED740D7F1E82C06B6C9FFEE8664736F6C634300 ADDMOD BYTE STOP CALLER "
				},
				"gasEstimates": {
					"creation": {
						"codeDepositCost": "97200",
						"executionCost": "29416",
						"totalCost": "126616"
					},
					"external": {
						"addValue()": "infinite",
						"getTokenBalance()": "2432",
						"tokenBalance()": "2446"
					}
				},
				"methodIdentifiers": {
					"addValue()": "040f0aee",
					"getTokenBalance()": "82b2e257",
					"tokenBalance()": "9e1a4d19"
				}
			},
			"storageLayout": {
				"storage": [
					{
						"astId": 4,
						"contract": "solidity-study/solidity-1base/2/2.1/Value.sol:Value",
						"label": "tokenBalance",
						"offset": 0,
						"slot": "0",
						"type": "t_uint256"
					},
					{
						"astId": 7,
						"contract": "solidity-study/solidity-1base/2/2.1/Value.sol:Value",
						"label": "uintval",
						"offset": 0,
						"slot": "1",
						"type": "t_uint8"
					}
				],
				"types": {
					"t_uint256": {
						"encoding": "inplace",
						"label": "uint256",
						"numberOfBytes": "32"
					},
					"t_uint8": {
						"encoding": "inplace",
						"label": "uint8",
						"numberOfBytes": "1"
					}
				}
			},
			"userdoc": {
				"kind": "user",
				"methods": {},
				"version": 1
			}
		}
	}
}