{
	"solidity-study/solidity-1base/4/SelectorDemo.sol": {
		"SelectorDemo": {
			"abi": [
				{
					"inputs": [
						{
							"internalType": "uint256",
							"name": "y",
							"type": "uint256"
						}
					],
					"name": "double",
					"outputs": [
						{
							"internalType": "uint256",
							"name": "",
							"type": "uint256"
						}
					],
					"stateMutability": "pure",
					"type": "function"
				},
				{
					"inputs": [
						{
							"internalType": "bytes4",
							"name": "selector",
							"type": "bytes4"
						},
						{
							"internalType": "uint256",
							"name": "x",
							"type": "uint256"
						}
					],
					"name": "executeFunction",
					"outputs": [
						{
							"internalType": "uint256",
							"name": "",
							"type": "uint256"
						}
					],
					"stateMutability": "nonpayable",
					"type": "function"
				},
				{
					"inputs": [
						{
							"internalType": "uint256",
							"name": "x",
							"type": "uint256"
						}
					],
					"name": "executeStoredFunction",
					"outputs": [
						{
							"internalType": "uint256",
							"name": "",
							"type": "uint256"
						}
					],
					"stateMutability": "nonpayable",
					"type": "function"
				},
				{
					"inputs": [],
					"name": "getDoubleSelector",
					"outputs": [
						{
							"internalType": "bytes4",
							"name": "",
							"type": "bytes4"
						}
					],
					"stateMutability": "pure",
					"type": "function"
				},
				{
					"inputs": [],
					"name": "getSquareSelector",
					"outputs": [
						{
							"internalType": "bytes4",
							"name": "",
							"type": "bytes4"
						}
					],
					"stateMutability": "pure",
					"type": "function"
				},
				{
					"inputs": [
						{
							"internalType": "uint256",
							"name": "x",
							"type": "uint256"
						}
					],
					"name": "square",
					"outputs": [
						{
							"internalType": "uint256",
							"name": "",
							"type": "uint256"
						}
					],
					"stateMutability": "pure",
					"type": "function"
				},
				{
					"inputs": [
						{
							"internalType": "bytes4",
							"name": "selector",
							"type": "bytes4"
						}
					],
					"name": "store",
					"outputs": [],
					"stateMutability": "nonpayable",
					"type": "function"
				},
				{
					"inputs": [],
					"name": "storedSelector",
					"outputs": [
						{
							"internalType": "bytes4",
							"name": "",
							"type": "bytes4"
						}
					],
					"stateMutability": "view",
					"type": "function"
				}
			],
			"devdoc": {
				"kind": "dev",
				"methods": {},
				"version": 1
			},
			"evm": {
				"assembly": "    /* \"solidity-study/solidity-1base/4/SelectorDemo.sol\":62:1254  contract SelectorDemo{... */\n  mstore(0x40, 0x80)\n  callvalue\n  dup1\n  iszero\n  tag_1\n  jumpi\n  0x00\n  dup1\n  revert\ntag_1:\n  pop\n  dataSize(sub_0)\n  dup1\n  dataOffset(sub_0)\n  0x00\n  codecopy\n  0x00\n  return\nstop\n\nsub_0: assembly {\n        /* \"solidity-study/solidity-1base/4/SelectorDemo.sol\":62:1254  contract SelectorDemo{... */\n      mstore(0x40, 0x80)\n      callvalue\n      dup1\n      iszero\n      tag_1\n      jumpi\n      0x00\n      dup1\n      revert\n    tag_1:\n      pop\n      jumpi(tag_2, lt(calldatasize, 0x04))\n      shr(0xe0, calldataload(0x00))\n      dup1\n      0xa25f4d31\n      gt\n      tag_11\n      jumpi\n      dup1\n      0xa25f4d31\n      eq\n      tag_7\n      jumpi\n      dup1\n      0xa69d2766\n      eq\n      tag_8\n      jumpi\n      dup1\n      0xd3dc22e4\n      eq\n      tag_9\n      jumpi\n      dup1\n      0xeee97206\n      eq\n      tag_10\n      jumpi\n      jump(tag_2)\n    tag_11:\n      dup1\n      0x2edc3142\n      eq\n      tag_3\n      jumpi\n      dup1\n      0x3b377b3c\n      eq\n      tag_4\n      jumpi\n      dup1\n      0x53308370\n      eq\n      tag_5\n      jumpi\n      dup1\n      0x7b292909\n      eq\n      tag_6\n      jumpi\n    tag_2:\n      0x00\n      dup1\n      revert\n        /* \"solidity-study/solidity-1base/4/SelectorDemo.sol\":129:212  function store(bytes4 selector) public {... */\n    tag_3:\n      tag_12\n      0x04\n      dup1\n      calldatasize\n      sub\n      dup2\n      add\n      swap1\n      tag_13\n      swap2\n      swap1\n      tag_14\n      jump\t// in\n    tag_13:\n      tag_15\n      jump\t// in\n    tag_12:\n      stop\n        /* \"solidity-study/solidity-1base/4/SelectorDemo.sol\":90:118  bytes4 public storedSelector */\n    tag_4:\n      tag_16\n      tag_17\n      jump\t// in\n    tag_16:\n      mload(0x40)\n      tag_18\n      swap2\n      swap1\n      tag_19\n      jump\t// in\n    tag_18:\n      mload(0x40)\n      dup1\n      swap2\n      sub\n      swap1\n      return\n        /* \"solidity-study/solidity-1base/4/SelectorDemo.sol\":899:1251  function executeStoredFunction(uint x) public returns(uint){... */\n    tag_5:\n      tag_20\n      0x04\n      dup1\n      calldatasize\n      sub\n      dup2\n      add\n      swap1\n      tag_21\n      swap2\n      swap1\n      tag_22\n      jump\t// in\n    tag_21:\n      tag_23\n      jump\t// in\n    tag_20:\n      mload(0x40)\n      tag_24\n      swap2\n      swap1\n      tag_25\n      jump\t// in\n    tag_24:\n      mload(0x40)\n      dup1\n      swap2\n      sub\n      swap1\n      return\n        /* \"solidity-study/solidity-1base/4/SelectorDemo.sol\":218:298  function square(uint x) public pure returns(uint){... */\n    tag_6:\n      tag_26\n      0x04\n      dup1\n      calldatasize\n      sub\n      dup2\n      add\n      swap1\n      tag_27\n      swap2\n      swap1\n      tag_22\n      jump\t// in\n    tag_27:\n      tag_28\n      jump\t// in\n    tag_26:\n      mload(0x40)\n      tag_29\n      swap2\n      swap1\n      tag_25\n      jump\t// in\n    tag_29:\n      mload(0x40)\n      dup1\n      swap2\n      sub\n      swap1\n      return\n        /* \"solidity-study/solidity-1base/4/SelectorDemo.sol\":610:891  function executeFunction(bytes4 selector, uint x) public returns(uint) {... */\n    tag_7:\n      tag_30\n      0x04\n      dup1\n      calldatasize\n      sub\n      dup2\n      add\n      swap1\n      tag_31\n      swap2\n      swap1\n      tag_32\n      jump\t// in\n    tag_31:\n      tag_33\n      jump\t// in\n    tag_30:\n      mload(0x40)\n      tag_34\n      swap2\n      swap1\n      tag_25\n      jump\t// in\n    tag_34:\n      mload(0x40)\n      dup1\n      swap2\n      sub\n      swap1\n      return\n        /* \"solidity-study/solidity-1base/4/SelectorDemo.sol\":390:493  function getSquareSelector() public pure returns(bytes4){... */\n    tag_8:\n      tag_35\n      tag_36\n      jump\t// in\n    tag_35:\n      mload(0x40)\n      tag_37\n      swap2\n      swap1\n      tag_19\n      jump\t// in\n    tag_37:\n      mload(0x40)\n      dup1\n      swap2\n      sub\n      swap1\n      return\n        /* \"solidity-study/solidity-1base/4/SelectorDemo.sol\":499:601  function getDoubleSelector() public pure returns(bytes4){... */\n    tag_9:\n      tag_38\n      tag_39\n      jump\t// in\n    tag_38:\n      mload(0x40)\n      tag_40\n      swap2\n      swap1\n      tag_19\n      jump\t// in\n    tag_40:\n      mload(0x40)\n      dup1\n      swap2\n      sub\n      swap1\n      return\n        /* \"solidity-study/solidity-1base/4/SelectorDemo.sol\":304:384  function double(uint y) public pure returns(uint){... */\n    tag_10:\n      tag_41\n      0x04\n      dup1\n      calldatasize\n      sub\n      dup2\n      add\n      swap1\n      tag_42\n      swap2\n      swap1\n      tag_22\n      jump\t// in\n    tag_42:\n      tag_43\n      jump\t// in\n    tag_41:\n      mload(0x40)\n      tag_44\n      swap2\n      swap1\n      tag_25\n      jump\t// in\n    tag_44:\n      mload(0x40)\n      dup1\n      swap2\n      sub\n      swap1\n      return\n        /* \"solidity-study/solidity-1base/4/SelectorDemo.sol\":129:212  function store(bytes4 selector) public {... */\n    tag_15:\n        /* \"solidity-study/solidity-1base/4/SelectorDemo.sol\":196:204  selector */\n      dup1\n        /* \"solidity-study/solidity-1base/4/SelectorDemo.sol\":179:193  storedSelector */\n      0x00\n      dup1\n        /* \"solidity-study/solidity-1base/4/SelectorDemo.sol\":179:204  storedSelector = selector */\n      0x0100\n      exp\n      dup2\n      sload\n      dup2\n      0xffffffff\n      mul\n      not\n      and\n      swap1\n      dup4\n      0xe0\n      shr\n      mul\n      or\n      swap1\n      sstore\n      pop\n        /* \"solidity-study/solidity-1base/4/SelectorDemo.sol\":129:212  function store(bytes4 selector) public {... */\n      pop\n      jump\t// out\n        /* \"solidity-study/solidity-1base/4/SelectorDemo.sol\":90:118  bytes4 public storedSelector */\n    tag_17:\n      0x00\n      dup1\n      sload\n      swap1\n      0x0100\n      exp\n      swap1\n      div\n      0xe0\n      shl\n      dup2\n      jump\t// out\n        /* \"solidity-study/solidity-1base/4/SelectorDemo.sol\":899:1251  function executeStoredFunction(uint x) public returns(uint){... */\n    tag_23:\n        /* \"solidity-study/solidity-1base/4/SelectorDemo.sol\":953:957  uint */\n      0x00\n        /* \"solidity-study/solidity-1base/4/SelectorDemo.sol\":1002:1003  0 */\n      dup1\n        /* \"solidity-study/solidity-1base/4/SelectorDemo.sol\":995:1004  bytes4(0) */\n      0xe0\n      shl\n        /* \"solidity-study/solidity-1base/4/SelectorDemo.sol\":977:1004  storedSelector != bytes4(0) */\n      not(0xffffffffffffffffffffffffffffffffffffffffffffffffffffffff)\n      and\n        /* \"solidity-study/solidity-1base/4/SelectorDemo.sol\":977:991  storedSelector */\n      0x00\n      dup1\n      sload\n      swap1\n      0x0100\n      exp\n      swap1\n      div\n      0xe0\n      shl\n        /* \"solidity-study/solidity-1base/4/SelectorDemo.sol\":977:1004  storedSelector != bytes4(0) */\n      not(0xffffffffffffffffffffffffffffffffffffffffffffffffffffffff)\n      and\n      sub\n        /* \"solidity-study/solidity-1base/4/SelectorDemo.sol\":969:1030  require(storedSelector != bytes4(0),\"storedSelector not set\") */\n      tag_47\n      jumpi\n      mload(0x40)\n      0x08c379a000000000000000000000000000000000000000000000000000000000\n      dup2\n      mstore\n      0x04\n      add\n      tag_48\n      swap1\n      tag_49\n      jump\t// in\n    tag_48:\n      mload(0x40)\n      dup1\n      swap2\n      sub\n      swap1\n      revert\n    tag_47:\n        /* \"solidity-study/solidity-1base/4/SelectorDemo.sol\":1042:1054  bool success */\n      0x00\n        /* \"solidity-study/solidity-1base/4/SelectorDemo.sol\":1056:1073  bytes memory data */\n      dup1\n        /* \"solidity-study/solidity-1base/4/SelectorDemo.sol\":1085:1089  this */\n      address\n        /* \"solidity-study/solidity-1base/4/SelectorDemo.sol\":1077:1095  address(this).call */\n      0xffffffffffffffffffffffffffffffffffffffff\n      and\n        /* \"solidity-study/solidity-1base/4/SelectorDemo.sol\":1119:1133  storedSelector */\n      0x00\n      dup1\n      sload\n      swap1\n      0x0100\n      exp\n      swap1\n      div\n      0xe0\n      shl\n        /* \"solidity-study/solidity-1base/4/SelectorDemo.sol\":1134:1135  x */\n      dup6\n        /* \"solidity-study/solidity-1base/4/SelectorDemo.sol\":1096:1136  abi.encodeWithSelector(storedSelector,x) */\n      add(0x24, mload(0x40))\n      tag_50\n      swap2\n      swap1\n      tag_25\n      jump\t// in\n    tag_50:\n      mload(0x40)\n      0x20\n      dup2\n      dup4\n      sub\n      sub\n      dup2\n      mstore\n      swap1\n      0x40\n      mstore\n      swap1\n      not(0xffffffffffffffffffffffffffffffffffffffffffffffffffffffff)\n      and\n      0x20\n      dup3\n      add\n      dup1\n      mload\n      0xffffffffffffffffffffffffffffffffffffffffffffffffffffffff\n      dup4\n      dup2\n      dup4\n      and\n      or\n      dup4\n      mstore\n      pop\n      pop\n      pop\n      pop\n        /* \"solidity-study/solidity-1base/4/SelectorDemo.sol\":1077:1137  address(this).call(abi.encodeWithSelector(storedSelector,x)) */\n      mload(0x40)\n      tag_51\n      swap2\n      swap1\n      tag_52\n      jump\t// in\n    tag_51:\n      0x00\n      mload(0x40)\n      dup1\n      dup4\n      sub\n      dup2\n      0x00\n      dup7\n      gas\n      call\n      swap2\n      pop\n      pop\n      returndatasize\n      dup1\n      0x00\n      dup2\n      eq\n      tag_55\n      jumpi\n      mload(0x40)\n      swap2\n      pop\n      and(add(returndatasize, 0x3f), not(0x1f))\n      dup3\n      add\n      0x40\n      mstore\n      returndatasize\n      dup3\n      mstore\n      returndatasize\n      0x00\n      0x20\n      dup5\n      add\n      returndatacopy\n      jump(tag_54)\n    tag_55:\n      0x60\n      swap2\n      pop\n    tag_54:\n      pop\n        /* \"solidity-study/solidity-1base/4/SelectorDemo.sol\":1041:1137  (bool success ,bytes memory data) = address(this).call(abi.encodeWithSelector(storedSelector,x)) */\n      swap2\n      pop\n      swap2\n      pop\n        /* \"solidity-study/solidity-1base/4/SelectorDemo.sol\":1156:1163  success */\n      dup2\n        /* \"solidity-study/solidity-1base/4/SelectorDemo.sol\":1148:1202  require(success,\"executeStoredFunction result failed\") */\n      tag_56\n      jumpi\n      mload(0x40)\n      0x08c379a000000000000000000000000000000000000000000000000000000000\n      dup2\n      mstore\n      0x04\n      add\n      tag_57\n      swap1\n      tag_58\n      jump\t// in\n    tag_57:\n      mload(0x40)\n      dup1\n      swap2\n      sub\n      swap1\n      revert\n    tag_56:\n        /* \"solidity-study/solidity-1base/4/SelectorDemo.sol\":1231:1235  data */\n      dup1\n        /* \"solidity-study/solidity-1base/4/SelectorDemo.sol\":1220:1243  abi.decode(data,(uint)) */\n      dup1\n      0x20\n      add\n      swap1\n      mload\n      dup2\n      add\n      swap1\n      tag_59\n      swap2\n      swap1\n      tag_60\n      jump\t// in\n    tag_59:\n        /* \"solidity-study/solidity-1base/4/SelectorDemo.sol\":1213:1243  return abi.decode(data,(uint)) */\n      swap3\n      pop\n      pop\n      pop\n        /* \"solidity-study/solidity-1base/4/SelectorDemo.sol\":899:1251  function executeStoredFunction(uint x) public returns(uint){... */\n      swap2\n      swap1\n      pop\n      jump\t// out\n        /* \"solidity-study/solidity-1base/4/SelectorDemo.sol\":218:298  function square(uint x) public pure returns(uint){... */\n    tag_28:\n        /* \"solidity-study/solidity-1base/4/SelectorDemo.sol\":262:266  uint */\n      0x00\n        /* \"solidity-study/solidity-1base/4/SelectorDemo.sol\":289:290  x */\n      dup2\n        /* \"solidity-study/solidity-1base/4/SelectorDemo.sol\":285:286  x */\n      dup3\n        /* \"solidity-study/solidity-1base/4/SelectorDemo.sol\":285:290  x * x */\n      tag_62\n      swap2\n      swap1\n      tag_63\n      jump\t// in\n    tag_62:\n        /* \"solidity-study/solidity-1base/4/SelectorDemo.sol\":278:290  return x * x */\n      swap1\n      pop\n        /* \"solidity-study/solidity-1base/4/SelectorDemo.sol\":218:298  function square(uint x) public pure returns(uint){... */\n      swap2\n      swap1\n      pop\n      jump\t// out\n        /* \"solidity-study/solidity-1base/4/SelectorDemo.sol\":610:891  function executeFunction(bytes4 selector, uint x) public returns(uint) {... */\n    tag_33:\n        /* \"solidity-study/solidity-1base/4/SelectorDemo.sol\":675:679  uint */\n      0x00\n        /* \"solidity-study/solidity-1base/4/SelectorDemo.sol\":693:705  bool success */\n      dup1\n        /* \"solidity-study/solidity-1base/4/SelectorDemo.sol\":706:723  bytes memory data */\n      0x00\n        /* \"solidity-study/solidity-1base/4/SelectorDemo.sol\":735:739  this */\n      address\n        /* \"solidity-study/solidity-1base/4/SelectorDemo.sol\":727:745  address(this).call */\n      0xffffffffffffffffffffffffffffffffffffffff\n      and\n        /* \"solidity-study/solidity-1base/4/SelectorDemo.sol\":769:777  selector */\n      dup6\n        /* \"solidity-study/solidity-1base/4/SelectorDemo.sol\":779:780  x */\n      dup6\n        /* \"solidity-study/solidity-1base/4/SelectorDemo.sol\":746:781  abi.encodeWithSelector(selector, x) */\n      add(0x24, mload(0x40))\n      tag_65\n      swap2\n      swap1\n      tag_25\n      jump\t// in\n    tag_65:\n      mload(0x40)\n      0x20\n      dup2\n      dup4\n      sub\n      sub\n      dup2\n      mstore\n      swap1\n      0x40\n      mstore\n      swap1\n      not(0xffffffffffffffffffffffffffffffffffffffffffffffffffffffff)\n      and\n      0x20\n      dup3\n      add\n      dup1\n      mload\n      0xffffffffffffffffffffffffffffffffffffffffffffffffffffffff\n      dup4\n      dup2\n      dup4\n      and\n      or\n      dup4\n      mstore\n      pop\n      pop\n      pop\n      pop\n        /* \"solidity-study/solidity-1base/4/SelectorDemo.sol\":727:782  address(this).call(abi.encodeWithSelector(selector, x)) */\n      mload(0x40)\n      tag_66\n      swap2\n      swap1\n      tag_52\n      jump\t// in\n    tag_66:\n      0x00\n      mload(0x40)\n      dup1\n      dup4\n      sub\n      dup2\n      0x00\n      dup7\n      gas\n      call\n      swap2\n      pop\n      pop\n      returndatasize\n      dup1\n      0x00\n      dup2\n      eq\n      tag_69\n      jumpi\n      mload(0x40)\n      swap2\n      pop\n      and(add(returndatasize, 0x3f), not(0x1f))\n      dup3\n      add\n      0x40\n      mstore\n      returndatasize\n      dup3\n      mstore\n      returndatasize\n      0x00\n      0x20\n      dup5\n      add\n      returndatacopy\n      jump(tag_68)\n    tag_69:\n      0x60\n      swap2\n      pop\n    tag_68:\n      pop\n        /* \"solidity-study/solidity-1base/4/SelectorDemo.sol\":692:782  (bool success,bytes memory data) = address(this).call(abi.encodeWithSelector(selector, x)) */\n      swap2\n      pop\n      swap2\n      pop\n        /* \"solidity-study/solidity-1base/4/SelectorDemo.sol\":801:808  success */\n      dup2\n        /* \"solidity-study/solidity-1base/4/SelectorDemo.sol\":793:841  require(success,\"executeFunction result failed\") */\n      tag_70\n      jumpi\n      mload(0x40)\n      0x08c379a000000000000000000000000000000000000000000000000000000000\n      dup2\n      mstore\n      0x04\n      add\n      tag_71\n      swap1\n      tag_72\n      jump\t// in\n    tag_71:\n      mload(0x40)\n      dup1\n      swap2\n      sub\n      swap1\n      revert\n    tag_70:\n        /* \"solidity-study/solidity-1base/4/SelectorDemo.sol\":870:874  data */\n      dup1\n        /* \"solidity-study/solidity-1base/4/SelectorDemo.sol\":859:883  abi.decode(data, (uint)) */\n      dup1\n      0x20\n      add\n      swap1\n      mload\n      dup2\n      add\n      swap1\n      tag_73\n      swap2\n      swap1\n      tag_60\n      jump\t// in\n    tag_73:\n        /* \"solidity-study/solidity-1base/4/SelectorDemo.sol\":852:883  return abi.decode(data, (uint)) */\n      swap3\n      pop\n      pop\n      pop\n        /* \"solidity-study/solidity-1base/4/SelectorDemo.sol\":610:891  function executeFunction(bytes4 selector, uint x) public returns(uint) {... */\n      swap3\n      swap2\n      pop\n      pop\n      jump\t// out\n        /* \"solidity-study/solidity-1base/4/SelectorDemo.sol\":390:493  function getSquareSelector() public pure returns(bytes4){... */\n    tag_36:\n        /* \"solidity-study/solidity-1base/4/SelectorDemo.sol\":439:445  bytes4 */\n      0x00\n        /* \"solidity-study/solidity-1base/4/SelectorDemo.sol\":464:484  this.square.selector */\n      shl(0xe0, 0x7b292909)\n        /* \"solidity-study/solidity-1base/4/SelectorDemo.sol\":457:484  return this.square.selector */\n      swap1\n      pop\n        /* \"solidity-study/solidity-1base/4/SelectorDemo.sol\":390:493  function getSquareSelector() public pure returns(bytes4){... */\n      swap1\n      jump\t// out\n        /* \"solidity-study/solidity-1base/4/SelectorDemo.sol\":499:601  function getDoubleSelector() public pure returns(bytes4){... */\n    tag_39:\n        /* \"solidity-study/solidity-1base/4/SelectorDemo.sol\":548:554  bytes4 */\n      0x00\n        /* \"solidity-study/solidity-1base/4/SelectorDemo.sol\":573:593  this.double.selector */\n      shl(0xe0, 0xeee97206)\n        /* \"solidity-study/solidity-1base/4/SelectorDemo.sol\":566:593  return this.double.selector */\n      swap1\n      pop\n        /* \"solidity-study/solidity-1base/4/SelectorDemo.sol\":499:601  function getDoubleSelector() public pure returns(bytes4){... */\n      swap1\n      jump\t// out\n        /* \"solidity-study/solidity-1base/4/SelectorDemo.sol\":304:384  function double(uint y) public pure returns(uint){... */\n    tag_43:\n        /* \"solidity-study/solidity-1base/4/SelectorDemo.sol\":348:352  uint */\n      0x00\n        /* \"solidity-study/solidity-1base/4/SelectorDemo.sol\":375:376  y */\n      dup2\n        /* \"solidity-study/solidity-1base/4/SelectorDemo.sol\":371:372  2 */\n      0x02\n        /* \"solidity-study/solidity-1base/4/SelectorDemo.sol\":371:376  2 * y */\n      tag_77\n      swap2\n      swap1\n      tag_63\n      jump\t// in\n    tag_77:\n        /* \"solidity-study/solidity-1base/4/SelectorDemo.sol\":364:376  return 2 * y */\n      swap1\n      pop\n        /* \"solidity-study/solidity-1base/4/SelectorDemo.sol\":304:384  function double(uint y) public pure returns(uint){... */\n      swap2\n      swap1\n      pop\n      jump\t// out\n        /* \"#utility.yul\":88:205   */\n    tag_79:\n        /* \"#utility.yul\":197:198   */\n      0x00\n        /* \"#utility.yul\":194:195   */\n      dup1\n        /* \"#utility.yul\":187:199   */\n      revert\n        /* \"#utility.yul\":334:483   */\n    tag_81:\n        /* \"#utility.yul\":370:377   */\n      0x00\n        /* \"#utility.yul\":410:476   */\n      0xffffffff00000000000000000000000000000000000000000000000000000000\n        /* \"#utility.yul\":403:408   */\n      dup3\n        /* \"#utility.yul\":399:477   */\n      and\n        /* \"#utility.yul\":388:477   */\n      swap1\n      pop\n        /* \"#utility.yul\":334:483   */\n      swap2\n      swap1\n      pop\n      jump\t// out\n        /* \"#utility.yul\":489:609   */\n    tag_82:\n        /* \"#utility.yul\":561:584   */\n      tag_108\n        /* \"#utility.yul\":578:583   */\n      dup2\n        /* \"#utility.yul\":561:584   */\n      tag_81\n      jump\t// in\n    tag_108:\n        /* \"#utility.yul\":554:559   */\n      dup2\n        /* \"#utility.yul\":551:585   */\n      eq\n        /* \"#utility.yul\":541:603   */\n      tag_109\n      jumpi\n        /* \"#utility.yul\":599:600   */\n      0x00\n        /* \"#utility.yul\":596:597   */\n      dup1\n        /* \"#utility.yul\":589:601   */\n      revert\n        /* \"#utility.yul\":541:603   */\n    tag_109:\n        /* \"#utility.yul\":489:609   */\n      pop\n      jump\t// out\n        /* \"#utility.yul\":615:752   */\n    tag_83:\n        /* \"#utility.yul\":660:665   */\n      0x00\n        /* \"#utility.yul\":698:704   */\n      dup2\n        /* \"#utility.yul\":685:705   */\n      calldataload\n        /* \"#utility.yul\":676:705   */\n      swap1\n      pop\n        /* \"#utility.yul\":714:746   */\n      tag_111\n        /* \"#utility.yul\":740:745   */\n      dup2\n        /* \"#utility.yul\":714:746   */\n      tag_82\n      jump\t// in\n    tag_111:\n        /* \"#utility.yul\":615:752   */\n      swap3\n      swap2\n      pop\n      pop\n      jump\t// out\n        /* \"#utility.yul\":758:1085   */\n    tag_14:\n        /* \"#utility.yul\":816:822   */\n      0x00\n        /* \"#utility.yul\":865:867   */\n      0x20\n        /* \"#utility.yul\":853:862   */\n      dup3\n        /* \"#utility.yul\":844:851   */\n      dup5\n        /* \"#utility.yul\":840:863   */\n      sub\n        /* \"#utility.yul\":836:868   */\n      slt\n        /* \"#utility.yul\":833:952   */\n      iszero\n      tag_113\n      jumpi\n        /* \"#utility.yul\":871:950   */\n      tag_114\n      tag_79\n      jump\t// in\n    tag_114:\n        /* \"#utility.yul\":833:952   */\n    tag_113:\n        /* \"#utility.yul\":991:992   */\n      0x00\n        /* \"#utility.yul\":1016:1068   */\n      tag_115\n        /* \"#utility.yul\":1060:1067   */\n      dup5\n        /* \"#utility.yul\":1051:1057   */\n      dup3\n        /* \"#utility.yul\":1040:1049   */\n      dup6\n        /* \"#utility.yul\":1036:1058   */\n      add\n        /* \"#utility.yul\":1016:1068   */\n      tag_83\n      jump\t// in\n    tag_115:\n        /* \"#utility.yul\":1006:1068   */\n      swap2\n      pop\n        /* \"#utility.yul\":962:1078   */\n      pop\n        /* \"#utility.yul\":758:1085   */\n      swap3\n      swap2\n      pop\n      pop\n      jump\t// out\n        /* \"#utility.yul\":1091:1206   */\n    tag_84:\n        /* \"#utility.yul\":1176:1199   */\n      tag_117\n        /* \"#utility.yul\":1193:1198   */\n      dup2\n        /* \"#utility.yul\":1176:1199   */\n      tag_81\n      jump\t// in\n    tag_117:\n        /* \"#utility.yul\":1171:1174   */\n      dup3\n        /* \"#utility.yul\":1164:1200   */\n      mstore\n        /* \"#utility.yul\":1091:1206   */\n      pop\n      pop\n      jump\t// out\n        /* \"#utility.yul\":1212:1430   */\n    tag_19:\n        /* \"#utility.yul\":1303:1307   */\n      0x00\n        /* \"#utility.yul\":1341:1343   */\n      0x20\n        /* \"#utility.yul\":1330:1339   */\n      dup3\n        /* \"#utility.yul\":1326:1344   */\n      add\n        /* \"#utility.yul\":1318:1344   */\n      swap1\n      pop\n        /* \"#utility.yul\":1354:1423   */\n      tag_119\n        /* \"#utility.yul\":1420:1421   */\n      0x00\n        /* \"#utility.yul\":1409:1418   */\n      dup4\n        /* \"#utility.yul\":1405:1422   */\n      add\n        /* \"#utility.yul\":1396:1402   */\n      dup5\n        /* \"#utility.yul\":1354:1423   */\n      tag_84\n      jump\t// in\n    tag_119:\n        /* \"#utility.yul\":1212:1430   */\n      swap3\n      swap2\n      pop\n      pop\n      jump\t// out\n        /* \"#utility.yul\":1436:1513   */\n    tag_85:\n        /* \"#utility.yul\":1473:1480   */\n      0x00\n        /* \"#utility.yul\":1502:1507   */\n      dup2\n        /* \"#utility.yul\":1491:1507   */\n      swap1\n      pop\n        /* \"#utility.yul\":1436:1513   */\n      swap2\n      swap1\n      pop\n      jump\t// out\n        /* \"#utility.yul\":1519:1641   */\n    tag_86:\n        /* \"#utility.yul\":1592:1616   */\n      tag_122\n        /* \"#utility.yul\":1610:1615   */\n      dup2\n        /* \"#utility.yul\":1592:1616   */\n      tag_85\n      jump\t// in\n    tag_122:\n        /* \"#utility.yul\":1585:1590   */\n      dup2\n        /* \"#utility.yul\":1582:1617   */\n      eq\n        /* \"#utility.yul\":1572:1635   */\n      tag_123\n      jumpi\n        /* \"#utility.yul\":1631:1632   */\n      0x00\n        /* \"#utility.yul\":1628:1629   */\n      dup1\n        /* \"#utility.yul\":1621:1633   */\n      revert\n        /* \"#utility.yul\":1572:1635   */\n    tag_123:\n        /* \"#utility.yul\":1519:1641   */\n      pop\n      jump\t// out\n        /* \"#utility.yul\":1647:1786   */\n    tag_87:\n        /* \"#utility.yul\":1693:1698   */\n      0x00\n        /* \"#utility.yul\":1731:1737   */\n      dup2\n        /* \"#utility.yul\":1718:1738   */\n      calldataload\n        /* \"#utility.yul\":1709:1738   */\n      swap1\n      pop\n        /* \"#utility.yul\":1747:1780   */\n      tag_125\n        /* \"#utility.yul\":1774:1779   */\n      dup2\n        /* \"#utility.yul\":1747:1780   */\n      tag_86\n      jump\t// in\n    tag_125:\n        /* \"#utility.yul\":1647:1786   */\n      swap3\n      swap2\n      pop\n      pop\n      jump\t// out\n        /* \"#utility.yul\":1792:2121   */\n    tag_22:\n        /* \"#utility.yul\":1851:1857   */\n      0x00\n        /* \"#utility.yul\":1900:1902   */\n      0x20\n        /* \"#utility.yul\":1888:1897   */\n      dup3\n        /* \"#utility.yul\":1879:1886   */\n      dup5\n        /* \"#utility.yul\":1875:1898   */\n      sub\n        /* \"#utility.yul\":1871:1903   */\n      slt\n        /* \"#utility.yul\":1868:1987   */\n      iszero\n      tag_127\n      jumpi\n        /* \"#utility.yul\":1906:1985   */\n      tag_128\n      tag_79\n      jump\t// in\n    tag_128:\n        /* \"#utility.yul\":1868:1987   */\n    tag_127:\n        /* \"#utility.yul\":2026:2027   */\n      0x00\n        /* \"#utility.yul\":2051:2104   */\n      tag_129\n        /* \"#utility.yul\":2096:2103   */\n      dup5\n        /* \"#utility.yul\":2087:2093   */\n      dup3\n        /* \"#utility.yul\":2076:2085   */\n      dup6\n        /* \"#utility.yul\":2072:2094   */\n      add\n        /* \"#utility.yul\":2051:2104   */\n      tag_87\n      jump\t// in\n    tag_129:\n        /* \"#utility.yul\":2041:2104   */\n      swap2\n      pop\n        /* \"#utility.yul\":1997:2114   */\n      pop\n        /* \"#utility.yul\":1792:2121   */\n      swap3\n      swap2\n      pop\n      pop\n      jump\t// out\n        /* \"#utility.yul\":2127:2245   */\n    tag_88:\n        /* \"#utility.yul\":2214:2238   */\n      tag_131\n        /* \"#utility.yul\":2232:2237   */\n      dup2\n        /* \"#utility.yul\":2214:2238   */\n      tag_85\n      jump\t// in\n    tag_131:\n        /* \"#utility.yul\":2209:2212   */\n      dup3\n        /* \"#utility.yul\":2202:2239   */\n      mstore\n        /* \"#utility.yul\":2127:2245   */\n      pop\n      pop\n      jump\t// out\n        /* \"#utility.yul\":2251:2473   */\n    tag_25:\n        /* \"#utility.yul\":2344:2348   */\n      0x00\n        /* \"#utility.yul\":2382:2384   */\n      0x20\n        /* \"#utility.yul\":2371:2380   */\n      dup3\n        /* \"#utility.yul\":2367:2385   */\n      add\n        /* \"#utility.yul\":2359:2385   */\n      swap1\n      pop\n        /* \"#utility.yul\":2395:2466   */\n      tag_133\n        /* \"#utility.yul\":2463:2464   */\n      0x00\n        /* \"#utility.yul\":2452:2461   */\n      dup4\n        /* \"#utility.yul\":2448:2465   */\n      add\n        /* \"#utility.yul\":2439:2445   */\n      dup5\n        /* \"#utility.yul\":2395:2466   */\n      tag_88\n      jump\t// in\n    tag_133:\n        /* \"#utility.yul\":2251:2473   */\n      swap3\n      swap2\n      pop\n      pop\n      jump\t// out\n        /* \"#utility.yul\":2479:2951   */\n    tag_32:\n        /* \"#utility.yul\":2546:2552   */\n      0x00\n        /* \"#utility.yul\":2554:2560   */\n      dup1\n        /* \"#utility.yul\":2603:2605   */\n      0x40\n        /* \"#utility.yul\":2591:2600   */\n      dup4\n        /* \"#utility.yul\":2582:2589   */\n      dup6\n        /* \"#utility.yul\":2578:2601   */\n      sub\n        /* \"#utility.yul\":2574:2606   */\n      slt\n        /* \"#utility.yul\":2571:2690   */\n      iszero\n      tag_135\n      jumpi\n        /* \"#utility.yul\":2609:2688   */\n      tag_136\n      tag_79\n      jump\t// in\n    tag_136:\n        /* \"#utility.yul\":2571:2690   */\n    tag_135:\n        /* \"#utility.yul\":2729:2730   */\n      0x00\n        /* \"#utility.yul\":2754:2806   */\n      tag_137\n        /* \"#utility.yul\":2798:2805   */\n      dup6\n        /* \"#utility.yul\":2789:2795   */\n      dup3\n        /* \"#utility.yul\":2778:2787   */\n      dup7\n        /* \"#utility.yul\":2774:2796   */\n      add\n        /* \"#utility.yul\":2754:2806   */\n      tag_83\n      jump\t// in\n    tag_137:\n        /* \"#utility.yul\":2744:2806   */\n      swap3\n      pop\n        /* \"#utility.yul\":2700:2816   */\n      pop\n        /* \"#utility.yul\":2855:2857   */\n      0x20\n        /* \"#utility.yul\":2881:2934   */\n      tag_138\n        /* \"#utility.yul\":2926:2933   */\n      dup6\n        /* \"#utility.yul\":2917:2923   */\n      dup3\n        /* \"#utility.yul\":2906:2915   */\n      dup7\n        /* \"#utility.yul\":2902:2924   */\n      add\n        /* \"#utility.yul\":2881:2934   */\n      tag_87\n      jump\t// in\n    tag_138:\n        /* \"#utility.yul\":2871:2934   */\n      swap2\n      pop\n        /* \"#utility.yul\":2826:2944   */\n      pop\n        /* \"#utility.yul\":2479:2951   */\n      swap3\n      pop\n      swap3\n      swap1\n      pop\n      jump\t// out\n        /* \"#utility.yul\":2957:3126   */\n    tag_89:\n        /* \"#utility.yul\":3041:3052   */\n      0x00\n        /* \"#utility.yul\":3075:3081   */\n      dup3\n        /* \"#utility.yul\":3070:3073   */\n      dup3\n        /* \"#utility.yul\":3063:3082   */\n      mstore\n        /* \"#utility.yul\":3115:3119   */\n      0x20\n        /* \"#utility.yul\":3110:3113   */\n      dup3\n        /* \"#utility.yul\":3106:3120   */\n      add\n        /* \"#utility.yul\":3091:3120   */\n      swap1\n      pop\n        /* \"#utility.yul\":2957:3126   */\n      swap3\n      swap2\n      pop\n      pop\n      jump\t// out\n        /* \"#utility.yul\":3132:3304   */\n    tag_90:\n        /* \"#utility.yul\":3272:3296   */\n      0x73746f72656453656c6563746f72206e6f742073657400000000000000000000\n        /* \"#utility.yul\":3268:3269   */\n      0x00\n        /* \"#utility.yul\":3260:3266   */\n      dup3\n        /* \"#utility.yul\":3256:3270   */\n      add\n        /* \"#utility.yul\":3249:3297   */\n      mstore\n        /* \"#utility.yul\":3132:3304   */\n      pop\n      jump\t// out\n        /* \"#utility.yul\":3310:3676   */\n    tag_91:\n        /* \"#utility.yul\":3452:3455   */\n      0x00\n        /* \"#utility.yul\":3473:3540   */\n      tag_142\n        /* \"#utility.yul\":3537:3539   */\n      0x16\n        /* \"#utility.yul\":3532:3535   */\n      dup4\n        /* \"#utility.yul\":3473:3540   */\n      tag_89\n      jump\t// in\n    tag_142:\n        /* \"#utility.yul\":3466:3540   */\n      swap2\n      pop\n        /* \"#utility.yul\":3549:3642   */\n      tag_143\n        /* \"#utility.yul\":3638:3641   */\n      dup3\n        /* \"#utility.yul\":3549:3642   */\n      tag_90\n      jump\t// in\n    tag_143:\n        /* \"#utility.yul\":3667:3669   */\n      0x20\n        /* \"#utility.yul\":3662:3665   */\n      dup3\n        /* \"#utility.yul\":3658:3670   */\n      add\n        /* \"#utility.yul\":3651:3670   */\n      swap1\n      pop\n        /* \"#utility.yul\":3310:3676   */\n      swap2\n      swap1\n      pop\n      jump\t// out\n        /* \"#utility.yul\":3682:4101   */\n    tag_49:\n        /* \"#utility.yul\":3848:3852   */\n      0x00\n        /* \"#utility.yul\":3886:3888   */\n      0x20\n        /* \"#utility.yul\":3875:3884   */\n      dup3\n        /* \"#utility.yul\":3871:3889   */\n      add\n        /* \"#utility.yul\":3863:3889   */\n      swap1\n      pop\n        /* \"#utility.yul\":3935:3944   */\n      dup2\n        /* \"#utility.yul\":3929:3933   */\n      dup2\n        /* \"#utility.yul\":3925:3945   */\n      sub\n        /* \"#utility.yul\":3921:3922   */\n      0x00\n        /* \"#utility.yul\":3910:3919   */\n      dup4\n        /* \"#utility.yul\":3906:3923   */\n      add\n        /* \"#utility.yul\":3899:3946   */\n      mstore\n        /* \"#utility.yul\":3963:4094   */\n      tag_145\n        /* \"#utility.yul\":4089:4093   */\n      dup2\n        /* \"#utility.yul\":3963:4094   */\n      tag_91\n      jump\t// in\n    tag_145:\n        /* \"#utility.yul\":3955:4094   */\n      swap1\n      pop\n        /* \"#utility.yul\":3682:4101   */\n      swap2\n      swap1\n      pop\n      jump\t// out\n        /* \"#utility.yul\":4107:4205   */\n    tag_92:\n        /* \"#utility.yul\":4158:4164   */\n      0x00\n        /* \"#utility.yul\":4192:4197   */\n      dup2\n        /* \"#utility.yul\":4186:4198   */\n      mload\n        /* \"#utility.yul\":4176:4198   */\n      swap1\n      pop\n        /* \"#utility.yul\":4107:4205   */\n      swap2\n      swap1\n      pop\n      jump\t// out\n        /* \"#utility.yul\":4211:4358   */\n    tag_93:\n        /* \"#utility.yul\":4312:4323   */\n      0x00\n        /* \"#utility.yul\":4349:4352   */\n      dup2\n        /* \"#utility.yul\":4334:4352   */\n      swap1\n      pop\n        /* \"#utility.yul\":4211:4358   */\n      swap3\n      swap2\n      pop\n      pop\n      jump\t// out\n        /* \"#utility.yul\":4364:4503   */\n    tag_94:\n        /* \"#utility.yul\":4453:4459   */\n      dup3\n        /* \"#utility.yul\":4448:4451   */\n      dup2\n        /* \"#utility.yul\":4443:4446   */\n      dup4\n        /* \"#utility.yul\":4437:4460   */\n      mcopy\n        /* \"#utility.yul\":4494:4495   */\n      0x00\n        /* \"#utility.yul\":4485:4491   */\n      dup4\n        /* \"#utility.yul\":4480:4483   */\n      dup4\n        /* \"#utility.yul\":4476:4492   */\n      add\n        /* \"#utility.yul\":4469:4496   */\n      mstore\n        /* \"#utility.yul\":4364:4503   */\n      pop\n      pop\n      pop\n      jump\t// out\n        /* \"#utility.yul\":4509:4895   */\n    tag_95:\n        /* \"#utility.yul\":4613:4616   */\n      0x00\n        /* \"#utility.yul\":4641:4679   */\n      tag_150\n        /* \"#utility.yul\":4673:4678   */\n      dup3\n        /* \"#utility.yul\":4641:4679   */\n      tag_92\n      jump\t// in\n    tag_150:\n        /* \"#utility.yul\":4695:4783   */\n      tag_151\n        /* \"#utility.yul\":4776:4782   */\n      dup2\n        /* \"#utility.yul\":4771:4774   */\n      dup6\n        /* \"#utility.yul\":4695:4783   */\n      tag_93\n      jump\t// in\n    tag_151:\n        /* \"#utility.yul\":4688:4783   */\n      swap4\n      pop\n        /* \"#utility.yul\":4792:4857   */\n      tag_152\n        /* \"#utility.yul\":4850:4856   */\n      dup2\n        /* \"#utility.yul\":4845:4848   */\n      dup6\n        /* \"#utility.yul\":4838:4842   */\n      0x20\n        /* \"#utility.yul\":4831:4836   */\n      dup7\n        /* \"#utility.yul\":4827:4843   */\n      add\n        /* \"#utility.yul\":4792:4857   */\n      tag_94\n      jump\t// in\n    tag_152:\n        /* \"#utility.yul\":4882:4888   */\n      dup1\n        /* \"#utility.yul\":4877:4880   */\n      dup5\n        /* \"#utility.yul\":4873:4889   */\n      add\n        /* \"#utility.yul\":4866:4889   */\n      swap2\n      pop\n        /* \"#utility.yul\":4617:4895   */\n      pop\n        /* \"#utility.yul\":4509:4895   */\n      swap3\n      swap2\n      pop\n      pop\n      jump\t// out\n        /* \"#utility.yul\":4901:5172   */\n    tag_52:\n        /* \"#utility.yul\":5031:5034   */\n      0x00\n        /* \"#utility.yul\":5053:5146   */\n      tag_154\n        /* \"#utility.yul\":5142:5145   */\n      dup3\n        /* \"#utility.yul\":5133:5139   */\n      dup5\n        /* \"#utility.yul\":5053:5146   */\n      tag_95\n      jump\t// in\n    tag_154:\n        /* \"#utility.yul\":5046:5146   */\n      swap2\n      pop\n        /* \"#utility.yul\":5163:5166   */\n      dup2\n        /* \"#utility.yul\":5156:5166   */\n      swap1\n      pop\n        /* \"#utility.yul\":4901:5172   */\n      swap3\n      swap2\n      pop\n      pop\n      jump\t// out\n        /* \"#utility.yul\":5178:5400   */\n    tag_96:\n        /* \"#utility.yul\":5318:5352   */\n      0x6578656375746553746f72656446756e6374696f6e20726573756c7420666169\n        /* \"#utility.yul\":5314:5315   */\n      0x00\n        /* \"#utility.yul\":5306:5312   */\n      dup3\n        /* \"#utility.yul\":5302:5316   */\n      add\n        /* \"#utility.yul\":5295:5353   */\n      mstore\n        /* \"#utility.yul\":5387:5392   */\n      0x6c65640000000000000000000000000000000000000000000000000000000000\n        /* \"#utility.yul\":5382:5384   */\n      0x20\n        /* \"#utility.yul\":5374:5380   */\n      dup3\n        /* \"#utility.yul\":5370:5385   */\n      add\n        /* \"#utility.yul\":5363:5393   */\n      mstore\n        /* \"#utility.yul\":5178:5400   */\n      pop\n      jump\t// out\n        /* \"#utility.yul\":5406:5772   */\n    tag_97:\n        /* \"#utility.yul\":5548:5551   */\n      0x00\n        /* \"#utility.yul\":5569:5636   */\n      tag_157\n        /* \"#utility.yul\":5633:5635   */\n      0x23\n        /* \"#utility.yul\":5628:5631   */\n      dup4\n        /* \"#utility.yul\":5569:5636   */\n      tag_89\n      jump\t// in\n    tag_157:\n        /* \"#utility.yul\":5562:5636   */\n      swap2\n      pop\n        /* \"#utility.yul\":5645:5738   */\n      tag_158\n        /* \"#utility.yul\":5734:5737   */\n      dup3\n        /* \"#utility.yul\":5645:5738   */\n      tag_96\n      jump\t// in\n    tag_158:\n        /* \"#utility.yul\":5763:5765   */\n      0x40\n        /* \"#utility.yul\":5758:5761   */\n      dup3\n        /* \"#utility.yul\":5754:5766   */\n      add\n        /* \"#utility.yul\":5747:5766   */\n      swap1\n      pop\n        /* \"#utility.yul\":5406:5772   */\n      swap2\n      swap1\n      pop\n      jump\t// out\n        /* \"#utility.yul\":5778:6197   */\n    tag_58:\n        /* \"#utility.yul\":5944:5948   */\n      0x00\n        /* \"#utility.yul\":5982:5984   */\n      0x20\n        /* \"#utility.yul\":5971:5980   */\n      dup3\n        /* \"#utility.yul\":5967:5985   */\n      add\n        /* \"#utility.yul\":5959:5985   */\n      swap1\n      pop\n        /* \"#utility.yul\":6031:6040   */\n      dup2\n        /* \"#utility.yul\":6025:6029   */\n      dup2\n        /* \"#utility.yul\":6021:6041   */\n      sub\n        /* \"#utility.yul\":6017:6018   */\n      0x00\n        /* \"#utility.yul\":6006:6015   */\n      dup4\n        /* \"#utility.yul\":6002:6019   */\n      add\n        /* \"#utility.yul\":5995:6042   */\n      mstore\n        /* \"#utility.yul\":6059:6190   */\n      tag_160\n        /* \"#utility.yul\":6185:6189   */\n      dup2\n        /* \"#utility.yul\":6059:6190   */\n      tag_97\n      jump\t// in\n    tag_160:\n        /* \"#utility.yul\":6051:6190   */\n      swap1\n      pop\n        /* \"#utility.yul\":5778:6197   */\n      swap2\n      swap1\n      pop\n      jump\t// out\n        /* \"#utility.yul\":6203:6346   */\n    tag_98:\n        /* \"#utility.yul\":6260:6265   */\n      0x00\n        /* \"#utility.yul\":6291:6297   */\n      dup2\n        /* \"#utility.yul\":6285:6298   */\n      mload\n        /* \"#utility.yul\":6276:6298   */\n      swap1\n      pop\n        /* \"#utility.yul\":6307:6340   */\n      tag_162\n        /* \"#utility.yul\":6334:6339   */\n      dup2\n        /* \"#utility.yul\":6307:6340   */\n      tag_86\n      jump\t// in\n    tag_162:\n        /* \"#utility.yul\":6203:6346   */\n      swap3\n      swap2\n      pop\n      pop\n      jump\t// out\n        /* \"#utility.yul\":6352:6703   */\n    tag_60:\n        /* \"#utility.yul\":6422:6428   */\n      0x00\n        /* \"#utility.yul\":6471:6473   */\n      0x20\n        /* \"#utility.yul\":6459:6468   */\n      dup3\n        /* \"#utility.yul\":6450:6457   */\n      dup5\n        /* \"#utility.yul\":6446:6469   */\n      sub\n        /* \"#utility.yul\":6442:6474   */\n      slt\n        /* \"#utility.yul\":6439:6558   */\n      iszero\n      tag_164\n      jumpi\n        /* \"#utility.yul\":6477:6556   */\n      tag_165\n      tag_79\n      jump\t// in\n    tag_165:\n        /* \"#utility.yul\":6439:6558   */\n    tag_164:\n        /* \"#utility.yul\":6597:6598   */\n      0x00\n        /* \"#utility.yul\":6622:6686   */\n      tag_166\n        /* \"#utility.yul\":6678:6685   */\n      dup5\n        /* \"#utility.yul\":6669:6675   */\n      dup3\n        /* \"#utility.yul\":6658:6667   */\n      dup6\n        /* \"#utility.yul\":6654:6676   */\n      add\n        /* \"#utility.yul\":6622:6686   */\n      tag_98\n      jump\t// in\n    tag_166:\n        /* \"#utility.yul\":6612:6686   */\n      swap2\n      pop\n        /* \"#utility.yul\":6568:6696   */\n      pop\n        /* \"#utility.yul\":6352:6703   */\n      swap3\n      swap2\n      pop\n      pop\n      jump\t// out\n        /* \"#utility.yul\":6709:6889   */\n    tag_99:\n        /* \"#utility.yul\":6757:6834   */\n      0x4e487b7100000000000000000000000000000000000000000000000000000000\n        /* \"#utility.yul\":6754:6755   */\n      0x00\n        /* \"#utility.yul\":6747:6835   */\n      mstore\n        /* \"#utility.yul\":6854:6858   */\n      0x11\n        /* \"#utility.yul\":6851:6852   */\n      0x04\n        /* \"#utility.yul\":6844:6859   */\n      mstore\n        /* \"#utility.yul\":6878:6882   */\n      0x24\n        /* \"#utility.yul\":6875:6876   */\n      0x00\n        /* \"#utility.yul\":6868:6883   */\n      revert\n        /* \"#utility.yul\":6895:7305   */\n    tag_63:\n        /* \"#utility.yul\":6935:6942   */\n      0x00\n        /* \"#utility.yul\":6958:6978   */\n      tag_169\n        /* \"#utility.yul\":6976:6977   */\n      dup3\n        /* \"#utility.yul\":6958:6978   */\n      tag_85\n      jump\t// in\n    tag_169:\n        /* \"#utility.yul\":6953:6978   */\n      swap2\n      pop\n        /* \"#utility.yul\":6992:7012   */\n      tag_170\n        /* \"#utility.yul\":7010:7011   */\n      dup4\n        /* \"#utility.yul\":6992:7012   */\n      tag_85\n      jump\t// in\n    tag_170:\n        /* \"#utility.yul\":6987:7012   */\n      swap3\n      pop\n        /* \"#utility.yul\":7047:7048   */\n      dup3\n        /* \"#utility.yul\":7044:7045   */\n      dup3\n        /* \"#utility.yul\":7040:7049   */\n      mul\n        /* \"#utility.yul\":7069:7099   */\n      tag_171\n        /* \"#utility.yul\":7087:7098   */\n      dup2\n        /* \"#utility.yul\":7069:7099   */\n      tag_85\n      jump\t// in\n    tag_171:\n        /* \"#utility.yul\":7058:7099   */\n      swap2\n      pop\n        /* \"#utility.yul\":7248:7249   */\n      dup3\n        /* \"#utility.yul\":7239:7246   */\n      dup3\n        /* \"#utility.yul\":7235:7250   */\n      div\n        /* \"#utility.yul\":7232:7233   */\n      dup5\n        /* \"#utility.yul\":7229:7251   */\n      eq\n        /* \"#utility.yul\":7209:7210   */\n      dup4\n        /* \"#utility.yul\":7202:7211   */\n      iszero\n        /* \"#utility.yul\":7182:7265   */\n      or\n        /* \"#utility.yul\":7159:7298   */\n      tag_172\n      jumpi\n        /* \"#utility.yul\":7278:7296   */\n      tag_173\n      tag_99\n      jump\t// in\n    tag_173:\n        /* \"#utility.yul\":7159:7298   */\n    tag_172:\n        /* \"#utility.yul\":6943:7305   */\n      pop\n        /* \"#utility.yul\":6895:7305   */\n      swap3\n      swap2\n      pop\n      pop\n      jump\t// out\n        /* \"#utility.yul\":7311:7490   */\n    tag_100:\n        /* \"#utility.yul\":7451:7482   */\n      0x6578656375746546756e6374696f6e20726573756c74206661696c6564000000\n        /* \"#utility.yul\":7447:7448   */\n      0x00\n        /* \"#utility.yul\":7439:7445   */\n      dup3\n        /* \"#utility.yul\":7435:7449   */\n      add\n        /* \"#utility.yul\":7428:7483   */\n      mstore\n        /* \"#utility.yul\":7311:7490   */\n      pop\n      jump\t// out\n        /* \"#utility.yul\":7496:7862   */\n    tag_101:\n        /* \"#utility.yul\":7638:7641   */\n      0x00\n        /* \"#utility.yul\":7659:7726   */\n      tag_176\n        /* \"#utility.yul\":7723:7725   */\n      0x1d\n        /* \"#utility.yul\":7718:7721   */\n      dup4\n        /* \"#utility.yul\":7659:7726   */\n      tag_89\n      jump\t// in\n    tag_176:\n        /* \"#utility.yul\":7652:7726   */\n      swap2\n      pop\n        /* \"#utility.yul\":7735:7828   */\n      tag_177\n        /* \"#utility.yul\":7824:7827   */\n      dup3\n        /* \"#utility.yul\":7735:7828   */\n      tag_100\n      jump\t// in\n    tag_177:\n        /* \"#utility.yul\":7853:7855   */\n      0x20\n        /* \"#utility.yul\":7848:7851   */\n      dup3\n        /* \"#utility.yul\":7844:7856   */\n      add\n        /* \"#utility.yul\":7837:7856   */\n      swap1\n      pop\n        /* \"#utility.yul\":7496:7862   */\n      swap2\n      swap1\n      pop\n      jump\t// out\n        /* \"#utility.yul\":7868:8287   */\n    tag_72:\n        /* \"#utility.yul\":8034:8038   */\n      0x00\n        /* \"#utility.yul\":8072:8074   */\n      0x20\n        /* \"#utility.yul\":8061:8070   */\n      dup3\n        /* \"#utility.yul\":8057:8075   */\n      add\n        /* \"#utility.yul\":8049:8075   */\n      swap1\n      pop\n        /* \"#utility.yul\":8121:8130   */\n      dup2\n        /* \"#utility.yul\":8115:8119   */\n      dup2\n        /* \"#utility.yul\":8111:8131   */\n      sub\n        /* \"#utility.yul\":8107:8108   */\n      0x00\n        /* \"#utility.yul\":8096:8105   */\n      dup4\n        /* \"#utility.yul\":8092:8109   */\n      add\n        /* \"#utility.yul\":8085:8132   */\n      mstore\n        /* \"#utility.yul\":8149:8280   */\n      tag_179\n        /* \"#utility.yul\":8275:8279   */\n      dup2\n        /* \"#utility.yul\":8149:8280   */\n      tag_101\n      jump\t// in\n    tag_179:\n        /* \"#utility.yul\":8141:8280   */\n      swap1\n      pop\n        /* \"#utility.yul\":7868:8287   */\n      swap2\n      swap1\n      pop\n      jump\t// out\n\n    auxdata: 0xa2646970667358221220dc8f4abe86dd10aa3e8974b339a94857438dde859d4d4e6bbbee2a4dc1722efc64736f6c634300081a0033\n}\n",
				"bytecode": {
					"linkReferences": {},
					"object": "6080604052348015600e575f80fd5b506109658061001c5f395ff3fe608060405234801561000f575f80fd5b5060043610610086575f3560e01c8063a25f4d3111610059578063a25f4d3114610124578063a69d276614610154578063d3dc22e414610172578063eee972061461019057610086565b80632edc31421461008a5780633b377b3c146100a657806353308370146100c45780637b292909146100f4575b5f80fd5b6100a4600480360381019061009f9190610595565b6101c0565b005b6100ae6101df565b6040516100bb91906105cf565b60405180910390f35b6100de60048036038101906100d9919061061b565b6101ef565b6040516100eb9190610655565b60405180910390f35b61010e6004803603810190610109919061061b565b6103c0565b60405161011b9190610655565b60405180910390f35b61013e6004803603810190610139919061066e565b6103d4565b60405161014b9190610655565b60405180910390f35b61015c61050b565b60405161016991906105cf565b60405180910390f35b61017a610519565b60405161018791906105cf565b60405180910390f35b6101aa60048036038101906101a5919061061b565b610527565b6040516101b79190610655565b60405180910390f35b805f806101000a81548163ffffffff021916908360e01c021790555050565b5f8054906101000a900460e01b81565b5f8060e01b7bffffffffffffffffffffffffffffffffffffffffffffffffffffffff19165f8054906101000a900460e01b7bffffffffffffffffffffffffffffffffffffffffffffffffffffffff19160361027f576040517f08c379a000000000000000000000000000000000000000000000000000000000815260040161027690610706565b60405180910390fd5b5f803073ffffffffffffffffffffffffffffffffffffffff165f8054906101000a900460e01b856040516024016102b69190610655565b604051602081830303815290604052907bffffffffffffffffffffffffffffffffffffffffffffffffffffffff19166020820180517bffffffffffffffffffffffffffffffffffffffffffffffffffffffff83818316178352505050506040516103209190610776565b5f604051808303815f865af19150503d805f8114610359576040519150601f19603f3d011682016040523d82523d5f602084013e61035e565b606091505b5091509150816103a3576040517f08c379a000000000000000000000000000000000000000000000000000000000815260040161039a906107fc565b60405180910390fd5b808060200190518101906103b7919061082e565b92505050919050565b5f81826103cd9190610886565b9050919050565b5f805f3073ffffffffffffffffffffffffffffffffffffffff1685856040516024016104009190610655565b604051602081830303815290604052907bffffffffffffffffffffffffffffffffffffffffffffffffffffffff19166020820180517bffffffffffffffffffffffffffffffffffffffffffffffffffffffff838183161783525050505060405161046a9190610776565b5f604051808303815f865af19150503d805f81146104a3576040519150601f19603f3d011682016040523d82523d5f602084013e6104a8565b606091505b5091509150816104ed576040517f08c379a00000000000000000000000000000000000000000000000000000000081526004016104e490610911565b60405180910390fd5b80806020019051810190610501919061082e565b9250505092915050565b5f637b29290960e01b905090565b5f63eee9720660e01b905090565b5f8160026105359190610886565b9050919050565b5f80fd5b5f7fffffffff0000000000000000000000000000000000000000000000000000000082169050919050565b61057481610540565b811461057e575f80fd5b50565b5f8135905061058f8161056b565b92915050565b5f602082840312156105aa576105a961053c565b5b5f6105b784828501610581565b91505092915050565b6105c981610540565b82525050565b5f6020820190506105e25f8301846105c0565b92915050565b5f819050919050565b6105fa816105e8565b8114610604575f80fd5b50565b5f81359050610615816105f1565b92915050565b5f602082840312156106305761062f61053c565b5b5f61063d84828501610607565b91505092915050565b61064f816105e8565b82525050565b5f6020820190506106685f830184610646565b92915050565b5f80604083850312156106845761068361053c565b5b5f61069185828601610581565b92505060206106a285828601610607565b9150509250929050565b5f82825260208201905092915050565b7f73746f72656453656c6563746f72206e6f7420736574000000000000000000005f82015250565b5f6106f06016836106ac565b91506106fb826106bc565b602082019050919050565b5f6020820190508181035f83015261071d816106e4565b9050919050565b5f81519050919050565b5f81905092915050565b8281835e5f83830152505050565b5f61075082610724565b61075a818561072e565b935061076a818560208601610738565b80840191505092915050565b5f6107818284610746565b915081905092915050565b7f6578656375746553746f72656446756e6374696f6e20726573756c74206661695f8201527f6c65640000000000000000000000000000000000000000000000000000000000602082015250565b5f6107e66023836106ac565b91506107f18261078c565b604082019050919050565b5f6020820190508181035f830152610813816107da565b9050919050565b5f81519050610828816105f1565b92915050565b5f602082840312156108435761084261053c565b5b5f6108508482850161081a565b91505092915050565b7f4e487b71000000000000000000000000000000000000000000000000000000005f52601160045260245ffd5b5f610890826105e8565b915061089b836105e8565b92508282026108a9816105e8565b915082820484148315176108c0576108bf610859565b5b5092915050565b7f6578656375746546756e6374696f6e20726573756c74206661696c65640000005f82015250565b5f6108fb601d836106ac565b9150610906826108c7565b602082019050919050565b5f6020820190508181035f830152610928816108ef565b905091905056fea2646970667358221220dc8f4abe86dd10aa3e8974b339a94857438dde859d4d4e6bbbee2a4dc1722efc64736f6c634300081a0033",
					"opcodes": "PUSH1 0x80 PUSH1 0x40 MSTORE CALLVALUE DUP1 ISZERO PUSH1 0xE JUMPI PUSH0 DUP1 REVERT JUMPDEST POP PUSH2 0x965 DUP1 PUSH2 0x1C PUSH0 CODECOPY PUSH0 RETURN INVALID PUSH1 0x80 PUSH1 0x40 MSTORE CALLVALUE DUP1 ISZERO PUSH2 0xF JUMPI PUSH0 DUP1 REVERT JUMPDEST POP PUSH1 0x4 CALLDATASIZE LT PUSH2 0x86 JUMPI PUSH0 CALLDATALOAD PUSH1 0xE0 SHR DUP1 PUSH4 0xA25F4D31 GT PUSH2 0x59 JUMPI DUP1 PUSH4 0xA25F4D31 EQ PUSH2 0x124 JUMPI DUP1 PUSH4 0xA69D2766 EQ PUSH2 0x154 JUMPI DUP1 PUSH4 0xD3DC22E4 EQ PUSH2 0x172 JUMPI DUP1 PUSH4 0xEEE97206 EQ PUSH2 0x190 JUMPI PUSH2 0x86 JUMP JUMPDEST DUP1 PUSH4 0x2EDC3142 EQ PUSH2 0x8A JUMPI DUP1 PUSH4 0x3B377B3C EQ PUSH2 0xA6 JUMPI DUP1 PUSH4 0x53308370 EQ PUSH2 0xC4 JUMPI DUP1 PUSH4 0x7B292909 EQ PUSH2 0xF4 JUMPI JUMPDEST PUSH0 DUP1 REVERT JUMPDEST PUSH2 0xA4 PUSH1 0x4 DUP1 CALLDATASIZE SUB DUP2 ADD SWAP1 PUSH2 0x9F SWAP2 SWAP1 PUSH2 0x595 JUMP JUMPDEST PUSH2 0x1C0 JUMP JUMPDEST STOP JUMPDEST PUSH2 0xAE PUSH2 0x1DF JUMP JUMPDEST PUSH1 0x40 MLOAD PUSH2 0xBB SWAP2 SWAP1 PUSH2 0x5CF JUMP JUMPDEST PUSH1 0x40 MLOAD DUP1 SWAP2 SUB SWAP1 RETURN JUMPDEST PUSH2 0xDE PUSH1 0x4 DUP1 CALLDATASIZE SUB DUP2 ADD SWAP1 PUSH2 0xD9 SWAP2 SWAP1 PUSH2 0x61B JUMP JUMPDEST PUSH2 0x1EF JUMP JUMPDEST PUSH1 0x40 MLOAD PUSH2 0xEB SWAP2 SWAP1 PUSH2 0x655 JUMP JUMPDEST PUSH1 0x40 MLOAD DUP1 SWAP2 SUB SWAP1 RETURN JUMPDEST PUSH2 0x10E PUSH1 0x4 DUP1 CALLDATASIZE SUB DUP2 ADD SWAP1 PUSH2 0x109 SWAP2 SWAP1 PUSH2 0x61B JUMP JUMPDEST PUSH2 0x3C0 JUMP JUMPDEST PUSH1 0x40 MLOAD PUSH2 0x11B SWAP2 SWAP1 PUSH2 0x655 JUMP JUMPDEST PUSH1 0x40 MLOAD DUP1 SWAP2 SUB SWAP1 RETURN JUMPDEST PUSH2 0x13E PUSH1 0x4 DUP1 CALLDATASIZE SUB DUP2 ADD SWAP1 PUSH2 0x139 SWAP2 SWAP1 PUSH2 0x66E JUMP JUMPDEST PUSH2 0x3D4 JUMP JUMPDEST PUSH1 0x40 MLOAD PUSH2 0x14B SWAP2 SWAP1 PUSH2 0x655 JUMP JUMPDEST PUSH1 0x40 MLOAD DUP1 SWAP2 SUB SWAP1 RETURN JUMPDEST PUSH2 0x15C PUSH2 0x50B JUMP JUMPDEST PUSH1 0x40 MLOAD PUSH2 0x169 SWAP2 SWAP1 PUSH2 0x5CF JUMP JUMPDEST PUSH1 0x40 MLOAD DUP1 SWAP2 SUB SWAP1 RETURN JUMPDEST PUSH2 0x17A PUSH2 0x519 JUMP JUMPDEST PUSH1 0x40 MLOAD PUSH2 0x187 SWAP2 SWAP1 PUSH2 0x5CF JUMP JUMPDEST PUSH1 0x40 MLOAD DUP1 SWAP2 SUB SWAP1 RETURN JUMPDEST PUSH2 0x1AA PUSH1 0x4 DUP1 CALLDATASIZE SUB DUP2 ADD SWAP1 PUSH2 0x1A5 SWAP2 SWAP1 PUSH2 0x61B JUMP JUMPDEST PUSH2 0x527 JUMP JUMPDEST PUSH1 0x40 MLOAD PUSH2 0x1B7 SWAP2 SWAP1 PUSH2 0x655 JUMP JUMPDEST PUSH1 0x40 MLOAD DUP1 SWAP2 SUB SWAP1 RETURN JUMPDEST DUP1 PUSH0 DUP1 PUSH2 0x100 EXP DUP2 SLOAD DUP2 PUSH4 0xFFFFFFFF MUL NOT AND SWAP1 DUP4 PUSH1 0xE0 SHR MUL OR SWAP1 SSTORE POP POP JUMP JUMPDEST PUSH0 DUP1 SLOAD SWAP1 PUSH2 0x100 EXP SWAP1 DIV PUSH1 0xE0 SHL DUP2 JUMP JUMPDEST PUSH0 DUP1 PUSH1 0xE0 SHL PUSH28 0xFFFFFFFFFFFFFFFFFFFFFFFFFFFFFFFFFFFFFFFFFFFFFFFFFFFFFFFF NOT AND PUSH0 DUP1 SLOAD SWAP1 PUSH2 0x100 EXP SWAP1 DIV PUSH1 0xE0 SHL PUSH28 0xFFFFFFFFFFFFFFFFFFFFFFFFFFFFFFFFFFFFFFFFFFFFFFFFFFFFFFFF NOT AND SUB PUSH2 0x27F JUMPI PUSH1 0x40 MLOAD PUSH32 0x8C379A000000000000000000000000000000000000000000000000000000000 DUP2 MSTORE PUSH1 0x4 ADD PUSH2 0x276 SWAP1 PUSH2 0x706 JUMP JUMPDEST PUSH1 0x40 MLOAD DUP1 SWAP2 SUB SWAP1 REVERT JUMPDEST PUSH0 DUP1 ADDRESS PUSH20 0xFFFFFFFFFFFFFFFFFFFFFFFFFFFFFFFFFFFFFFFF AND PUSH0 DUP1 SLOAD SWAP1 PUSH2 0x100 EXP SWAP1 DIV PUSH1 0xE0 SHL DUP6 PUSH1 0x40 MLOAD PUSH1 0x24 ADD PUSH2 0x2B6 SWAP2 SWAP1 PUSH2 0x655 JUMP JUMPDEST PUSH1 0x40 MLOAD PUSH1 0x20 DUP2 DUP4 SUB SUB DUP2 MSTORE SWAP1 PUSH1 0x40 MSTORE SWAP1 PUSH28 0xFFFFFFFFFFFFFFFFFFFFFFFFFFFFFFFFFFFFFFFFFFFFFFFFFFFFFFFF NOT AND PUSH1 0x20 DUP3 ADD DUP1 MLOAD PUSH28 0xFFFFFFFFFFFFFFFFFFFFFFFFFFFFFFFFFFFFFFFFFFFFFFFFFFFFFFFF DUP4 DUP2 DUP4 AND OR DUP4 MSTORE POP POP POP POP PUSH1 0x40 MLOAD PUSH2 0x320 SWAP2 SWAP1 PUSH2 0x776 JUMP JUMPDEST PUSH0 PUSH1 0x40 MLOAD DUP1 DUP4 SUB DUP2 PUSH0 DUP7 GAS CALL SWAP2 POP POP RETURNDATASIZE DUP1 PUSH0 DUP2 EQ PUSH2 0x359 JUMPI PUSH1 0x40 MLOAD SWAP2 POP PUSH1 0x1F NOT PUSH1 0x3F RETURNDATASIZE ADD AND DUP3 ADD PUSH1 0x40 MSTORE RETURNDATASIZE DUP3 MSTORE RETURNDATASIZE PUSH0 PUSH1 0x20 DUP5 ADD RETURNDATACOPY PUSH2 0x35E JUMP JUMPDEST PUSH1 0x60 SWAP2 POP JUMPDEST POP SWAP2 POP SWAP2 POP DUP2 PUSH2 0x3A3 JUMPI PUSH1 0x40 MLOAD PUSH32 0x8C379A000000000000000000000000000000000000000000000000000000000 DUP2 MSTORE PUSH1 0x4 ADD PUSH2 0x39A SWAP1 PUSH2 0x7FC JUMP JUMPDEST PUSH1 0x40 MLOAD DUP1 SWAP2 SUB SWAP1 REVERT JUMPDEST DUP1 DUP1 PUSH1 0x20 ADD SWAP1 MLOAD DUP2 ADD SWAP1 PUSH2 0x3B7 SWAP2 SWAP1 PUSH2 0x82E JUMP JUMPDEST SWAP3 POP POP POP SWAP2 SWAP1 POP JUMP JUMPDEST PUSH0 DUP2 DUP3 PUSH2 0x3CD SWAP2 SWAP1 PUSH2 0x886 JUMP JUMPDEST SWAP1 POP SWAP2 SWAP1 POP JUMP JUMPDEST PUSH0 DUP1 PUSH0 ADDRESS PUSH20 0xFFFFFFFFFFFFFFFFFFFFFFFFFFFFFFFFFFFFFFFF AND DUP6 DUP6 PUSH1 0x40 MLOAD PUSH1 0x24 ADD PUSH2 0x400 SWAP2 SWAP1 PUSH2 0x655 JUMP JUMPDEST PUSH1 0x40 MLOAD PUSH1 0x20 DUP2 DUP4 SUB SUB DUP2 MSTORE SWAP1 PUSH1 0x40 MSTORE SWAP1 PUSH28 0xFFFFFFFFFFFFFFFFFFFFFFFFFFFFFFFFFFFFFFFFFFFFFFFFFFFFFFFF NOT AND PUSH1 0x20 DUP3 ADD DUP1 MLOAD PUSH28 0xFFFFFFFFFFFFFFFFFFFFFFFFFFFFFFFFFFFFFFFFFFFFFFFFFFFFFFFF DUP4 DUP2 DUP4 AND OR DUP4 MSTORE POP POP POP POP PUSH1 0x40 MLOAD PUSH2 0x46A SWAP2 SWAP1 PUSH2 0x776 JUMP JUMPDEST PUSH0 PUSH1 0x40 MLOAD DUP1 DUP4 SUB DUP2 PUSH0 DUP7 GAS CALL SWAP2 POP POP RETURNDATASIZE DUP1 PUSH0 DUP2 EQ PUSH2 0x4A3 JUMPI PUSH1 0x40 MLOAD SWAP2 POP PUSH1 0x1F NOT PUSH1 0x3F RETURNDATASIZE ADD AND DUP3 ADD PUSH1 0x40 MSTORE RETURNDATASIZE DUP3 MSTORE RETURNDATASIZE PUSH0 PUSH1 0x20 DUP5 ADD RETURNDATACOPY PUSH2 0x4A8 JUMP JUMPDEST PUSH1 0x60 SWAP2 POP JUMPDEST POP SWAP2 POP SWAP2 POP DUP2 PUSH2 0x4ED JUMPI PUSH1 0x40 MLOAD PUSH32 0x8C379A000000000000000000000000000000000000000000000000000000000 DUP2 MSTORE PUSH1 0x4 ADD PUSH2 0x4E4 SWAP1 PUSH2 0x911 JUMP JUMPDEST PUSH1 0x40 MLOAD DUP1 SWAP2 SUB SWAP1 REVERT JUMPDEST DUP1 DUP1 PUSH1 0x20 ADD SWAP1 MLOAD DUP2 ADD SWAP1 PUSH2 0x501 SWAP2 SWAP1 PUSH2 0x82E JUMP JUMPDEST SWAP3 POP POP POP SWAP3 SWAP2 POP POP JUMP JUMPDEST PUSH0 PUSH4 0x7B292909 PUSH1 0xE0 SHL SWAP1 POP SWAP1 JUMP JUMPDEST PUSH0 PUSH4 0xEEE97206 PUSH1 0xE0 SHL SWAP1 POP SWAP1 JUMP JUMPDEST PUSH0 DUP2 PUSH1 0x2 PUSH2 0x535 SWAP2 SWAP1 PUSH2 0x886 JUMP JUMPDEST SWAP1 POP SWAP2 SWAP1 POP JUMP JUMPDEST PUSH0 DUP1 REVERT JUMPDEST PUSH0 PUSH32 0xFFFFFFFF00000000000000000000000000000000000000000000000000000000 DUP3 AND SWAP1 POP SWAP2 SWAP1 POP JUMP JUMPDEST PUSH2 0x574 DUP2 PUSH2 0x540 JUMP JUMPDEST DUP2 EQ PUSH2 0x57E JUMPI PUSH0 DUP1 REVERT JUMPDEST POP JUMP JUMPDEST PUSH0 DUP2 CALLDATALOAD SWAP1 POP PUSH2 0x58F DUP2 PUSH2 0x56B JUMP JUMPDEST SWAP3 SWAP2 POP POP JUMP JUMPDEST PUSH0 PUSH1 0x20 DUP3 DUP5 SUB SLT ISZERO PUSH2 0x5AA JUMPI PUSH2 0x5A9 PUSH2 0x53C JUMP JUMPDEST JUMPDEST PUSH0 PUSH2 0x5B7 DUP5 DUP3 DUP6 ADD PUSH2 0x581 JUMP JUMPDEST SWAP2 POP POP SWAP3 SWAP2 POP POP JUMP JUMPDEST PUSH2 0x5C9 DUP2 PUSH2 0x540 JUMP JUMPDEST DUP3 MSTORE POP POP JUMP JUMPDEST PUSH0 PUSH1 0x20 DUP3 ADD SWAP1 POP PUSH2 0x5E2 PUSH0 DUP4 ADD DUP5 PUSH2 0x5C0 JUMP JUMPDEST SWAP3 SWAP2 POP POP JUMP JUMPDEST PUSH0 DUP2 SWAP1 POP SWAP2 SWAP1 POP JUMP JUMPDEST PUSH2 0x5FA DUP2 PUSH2 0x5E8 JUMP JUMPDEST DUP2 EQ PUSH2 0x604 JUMPI PUSH0 DUP1 REVERT JUMPDEST POP JUMP JUMPDEST PUSH0 DUP2 CALLDATALOAD SWAP1 POP PUSH2 0x615 DUP2 PUSH2 0x5F1 JUMP JUMPDEST SWAP3 SWAP2 POP POP JUMP JUMPDEST PUSH0 PUSH1 0x20 DUP3 DUP5 SUB SLT ISZERO PUSH2 0x630 JUMPI PUSH2 0x62F PUSH2 0x53C JUMP JUMPDEST JUMPDEST PUSH0 PUSH2 0x63D DUP5 DUP3 DUP6 ADD PUSH2 0x607 JUMP JUMPDEST SWAP2 POP POP SWAP3 SWAP2 POP POP JUMP JUMPDEST PUSH2 0x64F DUP2 PUSH2 0x5E8 JUMP JUMPDEST DUP3 MSTORE POP POP JUMP JUMPDEST PUSH0 PUSH1 0x20 DUP3 ADD SWAP1 POP PUSH2 0x668 PUSH0 DUP4 ADD DUP5 PUSH2 0x646 JUMP JUMPDEST SWAP3 SWAP2 POP POP JUMP JUMPDEST PUSH0 DUP1 PUSH1 0x40 DUP4 DUP6 SUB SLT ISZERO PUSH2 0x684 JUMPI PUSH2 0x683 PUSH2 0x53C JUMP JUMPDEST JUMPDEST PUSH0 PUSH2 0x691 DUP6 DUP3 DUP7 ADD PUSH2 0x581 JUMP JUMPDEST SWAP3 POP POP PUSH1 0x20 PUSH2 0x6A2 DUP6 DUP3 DUP7 ADD PUSH2 0x607 JUMP JUMPDEST SWAP2 POP POP SWAP3 POP SWAP3 SWAP1 POP JUMP JUMPDEST PUSH0 DUP3 DUP3 MSTORE PUSH1 0x20 DUP3 ADD SWAP1 POP SWAP3 SWAP2 POP POP JUMP JUMPDEST PUSH32 0x73746F72656453656C6563746F72206E6F742073657400000000000000000000 PUSH0 DUP3 ADD MSTORE POP JUMP JUMPDEST PUSH0 PUSH2 0x6F0 PUSH1 0x16 DUP4 PUSH2 0x6AC JUMP JUMPDEST SWAP2 POP PUSH2 0x6FB DUP3 PUSH2 0x6BC JUMP JUMPDEST PUSH1 0x20 DUP3 ADD SWAP1 POP SWAP2 SWAP1 POP JUMP JUMPDEST PUSH0 PUSH1 0x20 DUP3 ADD SWAP1 POP DUP2 DUP2 SUB PUSH0 DUP4 ADD MSTORE PUSH2 0x71D DUP2 PUSH2 0x6E4 JUMP JUMPDEST SWAP1 POP SWAP2 SWAP1 POP JUMP JUMPDEST PUSH0 DUP2 MLOAD SWAP1 POP SWAP2 SWAP1 POP JUMP JUMPDEST PUSH0 DUP2 SWAP1 POP SWAP3 SWAP2 POP POP JUMP JUMPDEST DUP3 DUP2 DUP4 MCOPY PUSH0 DUP4 DUP4 ADD MSTORE POP POP POP JUMP JUMPDEST PUSH0 PUSH2 0x750 DUP3 PUSH2 0x724 JUMP JUMPDEST PUSH2 0x75A DUP2 DUP6 PUSH2 0x72E JUMP JUMPDEST SWAP4 POP PUSH2 0x76A DUP2 DUP6 PUSH1 0x20 DUP7 ADD PUSH2 0x738 JUMP JUMPDEST DUP1 DUP5 ADD SWAP2 POP POP SWAP3 SWAP2 POP POP JUMP JUMPDEST PUSH0 PUSH2 0x781 DUP3 DUP5 PUSH2 0x746 JUMP JUMPDEST SWAP2 POP DUP2 SWAP1 POP SWAP3 SWAP2 POP POP JUMP JUMPDEST PUSH32 0x6578656375746553746F72656446756E6374696F6E20726573756C7420666169 PUSH0 DUP3 ADD MSTORE PUSH32 0x6C65640000000000000000000000000000000000000000000000000000000000 PUSH1 0x20 DUP3 ADD MSTORE POP JUMP JUMPDEST PUSH0 PUSH2 0x7E6 PUSH1 0x23 DUP4 PUSH2 0x6AC JUMP JUMPDEST SWAP2 POP PUSH2 0x7F1 DUP3 PUSH2 0x78C JUMP JUMPDEST PUSH1 0x40 DUP3 ADD SWAP1 POP SWAP2 SWAP1 POP JUMP JUMPDEST PUSH0 PUSH1 0x20 DUP3 ADD SWAP1 POP DUP2 DUP2 SUB PUSH0 DUP4 ADD MSTORE PUSH2 0x813 DUP2 PUSH2 0x7DA JUMP JUMPDEST SWAP1 POP SWAP2 SWAP1 POP JUMP JUMPDEST PUSH0 DUP2 MLOAD SWAP1 POP PUSH2 0x828 DUP2 PUSH2 0x5F1 JUMP JUMPDEST SWAP3 SWAP2 POP POP JUMP JUMPDEST PUSH0 PUSH1 0x20 DUP3 DUP5 SUB SLT ISZERO PUSH2 0x843 JUMPI PUSH2 0x842 PUSH2 0x53C JUMP JUMPDEST JUMPDEST PUSH0 PUSH2 0x850 DUP5 DUP3 DUP6 ADD PUSH2 0x81A JUMP JUMPDEST SWAP2 POP POP SWAP3 SWAP2 POP POP JUMP JUMPDEST PUSH32 0x4E487B7100000000000000000000000000000000000000000000000000000000 PUSH0 MSTORE PUSH1 0x11 PUSH1 0x4 MSTORE PUSH1 0x24 PUSH0 REVERT JUMPDEST PUSH0 PUSH2 0x890 DUP3 PUSH2 0x5E8 JUMP JUMPDEST SWAP2 POP PUSH2 0x89B DUP4 PUSH2 0x5E8 JUMP JUMPDEST SWAP3 POP DUP3 DUP3 MUL PUSH2 0x8A9 DUP2 PUSH2 0x5E8 JUMP JUMPDEST SWAP2 POP DUP3 DUP3 DIV DUP5 EQ DUP4 ISZERO OR PUSH2 0x8C0 JUMPI PUSH2 0x8BF PUSH2 0x859 JUMP JUMPDEST JUMPDEST POP SWAP3 SWAP2 POP POP JUMP JUMPDEST PUSH32 0x6578656375746546756E6374696F6E20726573756C74206661696C6564000000 PUSH0 DUP3 ADD MSTORE POP JUMP JUMPDEST PUSH0 PUSH2 0x8FB PUSH1 0x1D DUP4 PUSH2 0x6AC JUMP JUMPDEST SWAP2 POP PUSH2 0x906 DUP3 PUSH2 0x8C7 JUMP JUMPDEST PUSH1 0x20 DUP3 ADD SWAP1 POP SWAP2 SWAP1 POP JUMP JUMPDEST PUSH0 PUSH1 0x20 DUP3 ADD SWAP1 POP DUP2 DUP2 SUB PUSH0 DUP4 ADD MSTORE PUSH2 0x928 DUP2 PUSH2 0x8EF JUMP JUMPDEST SWAP1 POP SWAP2 SWAP1 POP JUMP INVALID LOG2 PUSH5 0x6970667358 0x22 SLT KECCAK256 0xDC DUP16 BLOBBASEFEE 0xBE DUP7 0xDD LT 0xAA RETURNDATACOPY DUP10 PUSH21 0xB339A94857438DDE859D4D4E6BBBEE2A4DC1722EFC PUSH5 0x736F6C6343 STOP ADDMOD BYTE STOP CALLER "
				},
				"gasEstimates": {
					"creation": {
						"codeDepositCost": "481000",
						"executionCost": "516",
						"totalCost": "481516"
					},
					"external": {
						"double(uint256)": "infinite",
						"executeFunction(bytes4,uint256)": "infinite",
						"executeStoredFunction(uint256)": "infinite",
						"getDoubleSelector()": "388",
						"getSquareSelector()": "366",
						"square(uint256)": "infinite",
						"store(bytes4)": "24674",
						"storedSelector()": "2486"
					}
				},
				"methodIdentifiers": {
					"double(uint256)": "eee97206",
					"executeFunction(bytes4,uint256)": "a25f4d31",
					"executeStoredFunction(uint256)": "53308370",
					"getDoubleSelector()": "d3dc22e4",
					"getSquareSelector()": "a69d2766",
					"square(uint256)": "7b292909",
					"store(bytes4)": "2edc3142",
					"storedSelector()": "3b377b3c"
				}
			},
			"storageLayout": {
				"storage": [
					{
						"astId": 3,
						"contract": "solidity-study/solidity-1base/4/SelectorDemo.sol:SelectorDemo",
						"label": "storedSelector",
						"offset": 0,
						"slot": "0",
						"type": "t_bytes4"
					}
				],
				"types": {
					"t_bytes4": {
						"encoding": "inplace",
						"label": "bytes4",
						"numberOfBytes": "4"
					}
				}
			},
			"userdoc": {
				"kind": "user",
				"methods": {},
				"version": 1
			}
		}
	}
}