{
	"solidity-study/solidity-1base/4/Hello.sol": {
		"Hello": {
			"abi": [
				{
					"inputs": [],
					"name": "getFunctionSelector1",
					"outputs": [
						{
							"internalType": "bytes4",
							"name": "",
							"type": "bytes4"
						}
					],
					"stateMutability": "pure",
					"type": "function"
				},
				{
					"inputs": [],
					"name": "getFunctionSelector2",
					"outputs": [
						{
							"internalType": "bytes4",
							"name": "",
							"type": "bytes4"
						}
					],
					"stateMutability": "pure",
					"type": "function"
				},
				{
					"inputs": [],
					"name": "getName",
					"outputs": [
						{
							"internalType": "string",
							"name": "",
							"type": "string"
						}
					],
					"stateMutability": "pure",
					"type": "function"
				},
				{
					"inputs": [
						{
							"internalType": "address",
							"name": "addr",
							"type": "address"
						}
					],
					"name": "isContract",
					"outputs": [
						{
							"internalType": "bool",
							"name": "",
							"type": "bool"
						}
					],
					"stateMutability": "view",
					"type": "function"
				},
				{
					"inputs": [
						{
							"internalType": "bytes4",
							"name": "selector",
							"type": "bytes4"
						},
						{
							"internalType": "uint256",
							"name": "x",
							"type": "uint256"
						}
					],
					"name": "select",
					"outputs": [
						{
							"internalType": "uint256",
							"name": "z",
							"type": "uint256"
						}
					],
					"stateMutability": "nonpayable",
					"type": "function"
				},
				{
					"inputs": [
						{
							"internalType": "bytes4",
							"name": "selector",
							"type": "bytes4"
						}
					],
					"name": "transferSelector",
					"outputs": [],
					"stateMutability": "nonpayable",
					"type": "function"
				}
			],
			"devdoc": {
				"kind": "dev",
				"methods": {},
				"version": 1
			},
			"evm": {
				"assembly": "    /* \"solidity-study/solidity-1base/4/Hello.sol\":62:1581  contract Hello{... */\n  mstore(0x40, 0x80)\n  callvalue\n  dup1\n  iszero\n  tag_1\n  jumpi\n  0x00\n  dup1\n  revert\ntag_1:\n  pop\n  dataSize(sub_0)\n  dup1\n  dataOffset(sub_0)\n  0x00\n  codecopy\n  0x00\n  return\nstop\n\nsub_0: assembly {\n        /* \"solidity-study/solidity-1base/4/Hello.sol\":62:1581  contract Hello{... */\n      mstore(0x40, 0x80)\n      callvalue\n      dup1\n      iszero\n      tag_1\n      jumpi\n      0x00\n      dup1\n      revert\n    tag_1:\n      pop\n      jumpi(tag_2, lt(calldatasize, 0x04))\n      shr(0xe0, calldataload(0x00))\n      dup1\n      0x03275a05\n      eq\n      tag_3\n      jumpi\n      dup1\n      0x16279055\n      eq\n      tag_4\n      jumpi\n      dup1\n      0x17d7de7c\n      eq\n      tag_5\n      jumpi\n      dup1\n      0x4c93bab5\n      eq\n      tag_6\n      jumpi\n      dup1\n      0x674b3f63\n      eq\n      tag_7\n      jumpi\n      dup1\n      0x674e0fcc\n      eq\n      tag_8\n      jumpi\n    tag_2:\n      0x00\n      dup1\n      revert\n        /* \"solidity-study/solidity-1base/4/Hello.sol\":1485:1572  function transferSelector(bytes4 selector) external {... */\n    tag_3:\n      tag_9\n      0x04\n      dup1\n      calldatasize\n      sub\n      dup2\n      add\n      swap1\n      tag_10\n      swap2\n      swap1\n      tag_11\n      jump\t// in\n    tag_10:\n      tag_12\n      jump\t// in\n    tag_9:\n      stop\n        /* \"solidity-study/solidity-1base/4/Hello.sol\":537:696  function isContract(address addr) public view returns(bool){... */\n    tag_4:\n      tag_13\n      0x04\n      dup1\n      calldatasize\n      sub\n      dup2\n      add\n      swap1\n      tag_14\n      swap2\n      swap1\n      tag_15\n      jump\t// in\n    tag_14:\n      tag_16\n      jump\t// in\n    tag_13:\n      mload(0x40)\n      tag_17\n      swap2\n      swap1\n      tag_18\n      jump\t// in\n    tag_17:\n      mload(0x40)\n      dup1\n      swap2\n      sub\n      swap1\n      return\n        /* \"solidity-study/solidity-1base/4/Hello.sol\":85:217  function getName() public  pure returns(string memory){... */\n    tag_5:\n      tag_19\n      tag_20\n      jump\t// in\n    tag_19:\n      mload(0x40)\n      tag_21\n      swap2\n      swap1\n      tag_22\n      jump\t// in\n    tag_21:\n      mload(0x40)\n      dup1\n      swap2\n      sub\n      swap1\n      return\n        /* \"solidity-study/solidity-1base/4/Hello.sol\":1163:1444  function select(bytes4 selector, uint x) external returns(uint z){... */\n    tag_6:\n      tag_23\n      0x04\n      dup1\n      calldatasize\n      sub\n      dup2\n      add\n      swap1\n      tag_24\n      swap2\n      swap1\n      tag_25\n      jump\t// in\n    tag_24:\n      tag_26\n      jump\t// in\n    tag_23:\n      mload(0x40)\n      tag_27\n      swap2\n      swap1\n      tag_28\n      jump\t// in\n    tag_27:\n      mload(0x40)\n      dup1\n      swap2\n      sub\n      swap1\n      return\n        /* \"solidity-study/solidity-1base/4/Hello.sol\":704:883  function getFunctionSelector1() public pure returns(bytes4){... */\n    tag_7:\n      tag_29\n      tag_30\n      jump\t// in\n    tag_29:\n      mload(0x40)\n      tag_31\n      swap2\n      swap1\n      tag_32\n      jump\t// in\n    tag_31:\n      mload(0x40)\n      dup1\n      swap2\n      sub\n      swap1\n      return\n        /* \"solidity-study/solidity-1base/4/Hello.sol\":890:1115  function getFunctionSelector2() public pure returns(bytes4){... */\n    tag_8:\n      tag_33\n      tag_34\n      jump\t// in\n    tag_33:\n      mload(0x40)\n      tag_35\n      swap2\n      swap1\n      tag_32\n      jump\t// in\n    tag_35:\n      mload(0x40)\n      dup1\n      swap2\n      sub\n      swap1\n      return\n        /* \"solidity-study/solidity-1base/4/Hello.sol\":1485:1572  function transferSelector(bytes4 selector) external {... */\n    tag_12:\n        /* \"solidity-study/solidity-1base/4/Hello.sol\":1556:1564  selector */\n      dup1\n        /* \"solidity-study/solidity-1base/4/Hello.sol\":1548:1553  state */\n      0x00\n      dup1\n        /* \"solidity-study/solidity-1base/4/Hello.sol\":1548:1564  state = selector */\n      0x0100\n      exp\n      dup2\n      sload\n      dup2\n      0xffffffff\n      mul\n      not\n      and\n      swap1\n      dup4\n      0xe0\n      shr\n      mul\n      or\n      swap1\n      sstore\n      pop\n        /* \"solidity-study/solidity-1base/4/Hello.sol\":1485:1572  function transferSelector(bytes4 selector) external {... */\n      pop\n      jump\t// out\n        /* \"solidity-study/solidity-1base/4/Hello.sol\":537:696  function isContract(address addr) public view returns(bool){... */\n    tag_16:\n        /* \"solidity-study/solidity-1base/4/Hello.sol\":591:595  bool */\n      0x00\n        /* \"solidity-study/solidity-1base/4/Hello.sol\":607:619  uint256 size */\n      dup1\n        /* \"solidity-study/solidity-1base/4/Hello.sol\":659:663  addr */\n      dup3\n        /* \"solidity-study/solidity-1base/4/Hello.sol\":647:664  extcodesize(addr) */\n      extcodesize\n        /* \"solidity-study/solidity-1base/4/Hello.sol\":640:664  size:= extcodesize(addr) */\n      swap1\n      pop\n        /* \"solidity-study/solidity-1base/4/Hello.sol\":687:688  0 */\n      0x00\n        /* \"solidity-study/solidity-1base/4/Hello.sol\":682:686  size */\n      dup2\n        /* \"solidity-study/solidity-1base/4/Hello.sol\":682:688  size>0 */\n      gt\n        /* \"solidity-study/solidity-1base/4/Hello.sol\":675:688  return size>0 */\n      swap2\n      pop\n      pop\n        /* \"solidity-study/solidity-1base/4/Hello.sol\":537:696  function isContract(address addr) public view returns(bool){... */\n      swap2\n      swap1\n      pop\n      jump\t// out\n        /* \"solidity-study/solidity-1base/4/Hello.sol\":85:217  function getName() public  pure returns(string memory){... */\n    tag_20:\n        /* \"solidity-study/solidity-1base/4/Hello.sol\":125:138  string memory */\n      0x60\n        /* \"solidity-study/solidity-1base/4/Hello.sol\":193:209  type(Hello).name */\n      mload(0x40)\n      dup1\n      0x40\n      add\n      0x40\n      mstore\n      0x05\n      dup2\n      mstore\n      dup1\n      0x20\n      add\n      0x48656c6c6f000000000000000000000000000000000000000000000000000000\n      dup2\n      mstore\n      pop\n        /* \"solidity-study/solidity-1base/4/Hello.sol\":186:209  return type(Hello).name */\n      swap1\n      pop\n        /* \"solidity-study/solidity-1base/4/Hello.sol\":85:217  function getName() public  pure returns(string memory){... */\n      swap1\n      jump\t// out\n        /* \"solidity-study/solidity-1base/4/Hello.sol\":1163:1444  function select(bytes4 selector, uint x) external returns(uint z){... */\n    tag_26:\n        /* \"solidity-study/solidity-1base/4/Hello.sol\":1221:1227  uint z */\n      0x00\n        /* \"solidity-study/solidity-1base/4/Hello.sol\":1240:1252  bool success */\n      dup1\n        /* \"solidity-study/solidity-1base/4/Hello.sol\":1254:1271  bytes memory data */\n      0x00\n        /* \"solidity-study/solidity-1base/4/Hello.sol\":1283:1287  this */\n      address\n        /* \"solidity-study/solidity-1base/4/Hello.sol\":1275:1293  address(this).call */\n      0xffffffffffffffffffffffffffffffffffffffff\n      and\n        /* \"solidity-study/solidity-1base/4/Hello.sol\":1317:1325  selector */\n      dup6\n        /* \"solidity-study/solidity-1base/4/Hello.sol\":1326:1327  x */\n      dup6\n        /* \"solidity-study/solidity-1base/4/Hello.sol\":1294:1328  abi.encodeWithSelector(selector,x) */\n      add(0x24, mload(0x40))\n      tag_40\n      swap2\n      swap1\n      tag_28\n      jump\t// in\n    tag_40:\n      mload(0x40)\n      0x20\n      dup2\n      dup4\n      sub\n      sub\n      dup2\n      mstore\n      swap1\n      0x40\n      mstore\n      swap1\n      not(0xffffffffffffffffffffffffffffffffffffffffffffffffffffffff)\n      and\n      0x20\n      dup3\n      add\n      dup1\n      mload\n      0xffffffffffffffffffffffffffffffffffffffffffffffffffffffff\n      dup4\n      dup2\n      dup4\n      and\n      or\n      dup4\n      mstore\n      pop\n      pop\n      pop\n      pop\n        /* \"solidity-study/solidity-1base/4/Hello.sol\":1275:1329  address(this).call(abi.encodeWithSelector(selector,x)) */\n      mload(0x40)\n      tag_41\n      swap2\n      swap1\n      tag_42\n      jump\t// in\n    tag_41:\n      0x00\n      mload(0x40)\n      dup1\n      dup4\n      sub\n      dup2\n      0x00\n      dup7\n      gas\n      call\n      swap2\n      pop\n      pop\n      returndatasize\n      dup1\n      0x00\n      dup2\n      eq\n      tag_45\n      jumpi\n      mload(0x40)\n      swap2\n      pop\n      and(add(returndatasize, 0x3f), not(0x1f))\n      dup3\n      add\n      0x40\n      mstore\n      returndatasize\n      dup3\n      mstore\n      returndatasize\n      0x00\n      0x20\n      dup5\n      add\n      returndatacopy\n      jump(tag_44)\n    tag_45:\n      0x60\n      swap2\n      pop\n    tag_44:\n      pop\n        /* \"solidity-study/solidity-1base/4/Hello.sol\":1239:1329  (bool success, bytes memory data) = address(this).call(abi.encodeWithSelector(selector,x)) */\n      swap2\n      pop\n      swap2\n      pop\n        /* \"solidity-study/solidity-1base/4/Hello.sol\":1348:1355  success */\n      dup2\n        /* \"solidity-study/solidity-1base/4/Hello.sol\":1340:1379  require(success,\"Function call failed\") */\n      tag_46\n      jumpi\n      mload(0x40)\n      0x08c379a000000000000000000000000000000000000000000000000000000000\n      dup2\n      mstore\n      0x04\n      add\n      tag_47\n      swap1\n      tag_48\n      jump\t// in\n    tag_47:\n      mload(0x40)\n      dup1\n      swap2\n      sub\n      swap1\n      revert\n    tag_46:\n        /* \"solidity-study/solidity-1base/4/Hello.sol\":1405:1409  data */\n      dup1\n        /* \"solidity-study/solidity-1base/4/Hello.sol\":1394:1417  abi.decode(data,(uint)) */\n      dup1\n      0x20\n      add\n      swap1\n      mload\n      dup2\n      add\n      swap1\n      tag_49\n      swap2\n      swap1\n      tag_50\n      jump\t// in\n    tag_49:\n        /* \"solidity-study/solidity-1base/4/Hello.sol\":1390:1417  z = abi.decode(data,(uint)) */\n      swap3\n      pop\n        /* \"solidity-study/solidity-1base/4/Hello.sol\":1428:1436  return z */\n      pop\n      pop\n        /* \"solidity-study/solidity-1base/4/Hello.sol\":1163:1444  function select(bytes4 selector, uint x) external returns(uint z){... */\n      swap3\n      swap2\n      pop\n      pop\n      jump\t// out\n        /* \"solidity-study/solidity-1base/4/Hello.sol\":704:883  function getFunctionSelector1() public pure returns(bytes4){... */\n    tag_30:\n        /* \"solidity-study/solidity-1base/4/Hello.sol\":756:762  bytes4 */\n      0x00\n        /* \"solidity-study/solidity-1base/4/Hello.sol\":854:875  this.getName.selector */\n      shl(0xe0, 0x17d7de7c)\n        /* \"solidity-study/solidity-1base/4/Hello.sol\":847:875  return this.getName.selector */\n      swap1\n      pop\n        /* \"solidity-study/solidity-1base/4/Hello.sol\":704:883  function getFunctionSelector1() public pure returns(bytes4){... */\n      swap1\n      jump\t// out\n        /* \"solidity-study/solidity-1base/4/Hello.sol\":890:1115  function getFunctionSelector2() public pure returns(bytes4){... */\n    tag_34:\n        /* \"solidity-study/solidity-1base/4/Hello.sol\":942:948  bytes4 */\n      0x00\n        /* \"solidity-study/solidity-1base/4/Hello.sol\":974:994  keccak256(\"getName\") */\n      0x609278fa5f64a571de10741418f1c4c0c4322aef645dd9d94a429c1f3e99a8a5\n        /* \"solidity-study/solidity-1base/4/Hello.sol\":960:995  return bytes4(keccak256(\"getName\")) */\n      swap1\n      pop\n        /* \"solidity-study/solidity-1base/4/Hello.sol\":890:1115  function getFunctionSelector2() public pure returns(bytes4){... */\n      swap1\n      jump\t// out\n        /* \"#utility.yul\":88:205   */\n    tag_54:\n        /* \"#utility.yul\":197:198   */\n      0x00\n        /* \"#utility.yul\":194:195   */\n      dup1\n        /* \"#utility.yul\":187:199   */\n      revert\n        /* \"#utility.yul\":334:483   */\n    tag_56:\n        /* \"#utility.yul\":370:377   */\n      0x00\n        /* \"#utility.yul\":410:476   */\n      0xffffffff00000000000000000000000000000000000000000000000000000000\n        /* \"#utility.yul\":403:408   */\n      dup3\n        /* \"#utility.yul\":399:477   */\n      and\n        /* \"#utility.yul\":388:477   */\n      swap1\n      pop\n        /* \"#utility.yul\":334:483   */\n      swap2\n      swap1\n      pop\n      jump\t// out\n        /* \"#utility.yul\":489:609   */\n    tag_57:\n        /* \"#utility.yul\":561:584   */\n      tag_87\n        /* \"#utility.yul\":578:583   */\n      dup2\n        /* \"#utility.yul\":561:584   */\n      tag_56\n      jump\t// in\n    tag_87:\n        /* \"#utility.yul\":554:559   */\n      dup2\n        /* \"#utility.yul\":551:585   */\n      eq\n        /* \"#utility.yul\":541:603   */\n      tag_88\n      jumpi\n        /* \"#utility.yul\":599:600   */\n      0x00\n        /* \"#utility.yul\":596:597   */\n      dup1\n        /* \"#utility.yul\":589:601   */\n      revert\n        /* \"#utility.yul\":541:603   */\n    tag_88:\n        /* \"#utility.yul\":489:609   */\n      pop\n      jump\t// out\n        /* \"#utility.yul\":615:752   */\n    tag_58:\n        /* \"#utility.yul\":660:665   */\n      0x00\n        /* \"#utility.yul\":698:704   */\n      dup2\n        /* \"#utility.yul\":685:705   */\n      calldataload\n        /* \"#utility.yul\":676:705   */\n      swap1\n      pop\n        /* \"#utility.yul\":714:746   */\n      tag_90\n        /* \"#utility.yul\":740:745   */\n      dup2\n        /* \"#utility.yul\":714:746   */\n      tag_57\n      jump\t// in\n    tag_90:\n        /* \"#utility.yul\":615:752   */\n      swap3\n      swap2\n      pop\n      pop\n      jump\t// out\n        /* \"#utility.yul\":758:1085   */\n    tag_11:\n        /* \"#utility.yul\":816:822   */\n      0x00\n        /* \"#utility.yul\":865:867   */\n      0x20\n        /* \"#utility.yul\":853:862   */\n      dup3\n        /* \"#utility.yul\":844:851   */\n      dup5\n        /* \"#utility.yul\":840:863   */\n      sub\n        /* \"#utility.yul\":836:868   */\n      slt\n        /* \"#utility.yul\":833:952   */\n      iszero\n      tag_92\n      jumpi\n        /* \"#utility.yul\":871:950   */\n      tag_93\n      tag_54\n      jump\t// in\n    tag_93:\n        /* \"#utility.yul\":833:952   */\n    tag_92:\n        /* \"#utility.yul\":991:992   */\n      0x00\n        /* \"#utility.yul\":1016:1068   */\n      tag_94\n        /* \"#utility.yul\":1060:1067   */\n      dup5\n        /* \"#utility.yul\":1051:1057   */\n      dup3\n        /* \"#utility.yul\":1040:1049   */\n      dup6\n        /* \"#utility.yul\":1036:1058   */\n      add\n        /* \"#utility.yul\":1016:1068   */\n      tag_58\n      jump\t// in\n    tag_94:\n        /* \"#utility.yul\":1006:1068   */\n      swap2\n      pop\n        /* \"#utility.yul\":962:1078   */\n      pop\n        /* \"#utility.yul\":758:1085   */\n      swap3\n      swap2\n      pop\n      pop\n      jump\t// out\n        /* \"#utility.yul\":1091:1217   */\n    tag_59:\n        /* \"#utility.yul\":1128:1135   */\n      0x00\n        /* \"#utility.yul\":1168:1210   */\n      0xffffffffffffffffffffffffffffffffffffffff\n        /* \"#utility.yul\":1161:1166   */\n      dup3\n        /* \"#utility.yul\":1157:1211   */\n      and\n        /* \"#utility.yul\":1146:1211   */\n      swap1\n      pop\n        /* \"#utility.yul\":1091:1217   */\n      swap2\n      swap1\n      pop\n      jump\t// out\n        /* \"#utility.yul\":1223:1319   */\n    tag_60:\n        /* \"#utility.yul\":1260:1267   */\n      0x00\n        /* \"#utility.yul\":1289:1313   */\n      tag_97\n        /* \"#utility.yul\":1307:1312   */\n      dup3\n        /* \"#utility.yul\":1289:1313   */\n      tag_59\n      jump\t// in\n    tag_97:\n        /* \"#utility.yul\":1278:1313   */\n      swap1\n      pop\n        /* \"#utility.yul\":1223:1319   */\n      swap2\n      swap1\n      pop\n      jump\t// out\n        /* \"#utility.yul\":1325:1447   */\n    tag_61:\n        /* \"#utility.yul\":1398:1422   */\n      tag_99\n        /* \"#utility.yul\":1416:1421   */\n      dup2\n        /* \"#utility.yul\":1398:1422   */\n      tag_60\n      jump\t// in\n    tag_99:\n        /* \"#utility.yul\":1391:1396   */\n      dup2\n        /* \"#utility.yul\":1388:1423   */\n      eq\n        /* \"#utility.yul\":1378:1441   */\n      tag_100\n      jumpi\n        /* \"#utility.yul\":1437:1438   */\n      0x00\n        /* \"#utility.yul\":1434:1435   */\n      dup1\n        /* \"#utility.yul\":1427:1439   */\n      revert\n        /* \"#utility.yul\":1378:1441   */\n    tag_100:\n        /* \"#utility.yul\":1325:1447   */\n      pop\n      jump\t// out\n        /* \"#utility.yul\":1453:1592   */\n    tag_62:\n        /* \"#utility.yul\":1499:1504   */\n      0x00\n        /* \"#utility.yul\":1537:1543   */\n      dup2\n        /* \"#utility.yul\":1524:1544   */\n      calldataload\n        /* \"#utility.yul\":1515:1544   */\n      swap1\n      pop\n        /* \"#utility.yul\":1553:1586   */\n      tag_102\n        /* \"#utility.yul\":1580:1585   */\n      dup2\n        /* \"#utility.yul\":1553:1586   */\n      tag_61\n      jump\t// in\n    tag_102:\n        /* \"#utility.yul\":1453:1592   */\n      swap3\n      swap2\n      pop\n      pop\n      jump\t// out\n        /* \"#utility.yul\":1598:1927   */\n    tag_15:\n        /* \"#utility.yul\":1657:1663   */\n      0x00\n        /* \"#utility.yul\":1706:1708   */\n      0x20\n        /* \"#utility.yul\":1694:1703   */\n      dup3\n        /* \"#utility.yul\":1685:1692   */\n      dup5\n        /* \"#utility.yul\":1681:1704   */\n      sub\n        /* \"#utility.yul\":1677:1709   */\n      slt\n        /* \"#utility.yul\":1674:1793   */\n      iszero\n      tag_104\n      jumpi\n        /* \"#utility.yul\":1712:1791   */\n      tag_105\n      tag_54\n      jump\t// in\n    tag_105:\n        /* \"#utility.yul\":1674:1793   */\n    tag_104:\n        /* \"#utility.yul\":1832:1833   */\n      0x00\n        /* \"#utility.yul\":1857:1910   */\n      tag_106\n        /* \"#utility.yul\":1902:1909   */\n      dup5\n        /* \"#utility.yul\":1893:1899   */\n      dup3\n        /* \"#utility.yul\":1882:1891   */\n      dup6\n        /* \"#utility.yul\":1878:1900   */\n      add\n        /* \"#utility.yul\":1857:1910   */\n      tag_62\n      jump\t// in\n    tag_106:\n        /* \"#utility.yul\":1847:1910   */\n      swap2\n      pop\n        /* \"#utility.yul\":1803:1920   */\n      pop\n        /* \"#utility.yul\":1598:1927   */\n      swap3\n      swap2\n      pop\n      pop\n      jump\t// out\n        /* \"#utility.yul\":1933:2023   */\n    tag_63:\n        /* \"#utility.yul\":1967:1974   */\n      0x00\n        /* \"#utility.yul\":2010:2015   */\n      dup2\n        /* \"#utility.yul\":2003:2016   */\n      iszero\n        /* \"#utility.yul\":1996:2017   */\n      iszero\n        /* \"#utility.yul\":1985:2017   */\n      swap1\n      pop\n        /* \"#utility.yul\":1933:2023   */\n      swap2\n      swap1\n      pop\n      jump\t// out\n        /* \"#utility.yul\":2029:2138   */\n    tag_64:\n        /* \"#utility.yul\":2110:2131   */\n      tag_109\n        /* \"#utility.yul\":2125:2130   */\n      dup2\n        /* \"#utility.yul\":2110:2131   */\n      tag_63\n      jump\t// in\n    tag_109:\n        /* \"#utility.yul\":2105:2108   */\n      dup3\n        /* \"#utility.yul\":2098:2132   */\n      mstore\n        /* \"#utility.yul\":2029:2138   */\n      pop\n      pop\n      jump\t// out\n        /* \"#utility.yul\":2144:2354   */\n    tag_18:\n        /* \"#utility.yul\":2231:2235   */\n      0x00\n        /* \"#utility.yul\":2269:2271   */\n      0x20\n        /* \"#utility.yul\":2258:2267   */\n      dup3\n        /* \"#utility.yul\":2254:2272   */\n      add\n        /* \"#utility.yul\":2246:2272   */\n      swap1\n      pop\n        /* \"#utility.yul\":2282:2347   */\n      tag_111\n        /* \"#utility.yul\":2344:2345   */\n      0x00\n        /* \"#utility.yul\":2333:2342   */\n      dup4\n        /* \"#utility.yul\":2329:2346   */\n      add\n        /* \"#utility.yul\":2320:2326   */\n      dup5\n        /* \"#utility.yul\":2282:2347   */\n      tag_64\n      jump\t// in\n    tag_111:\n        /* \"#utility.yul\":2144:2354   */\n      swap3\n      swap2\n      pop\n      pop\n      jump\t// out\n        /* \"#utility.yul\":2360:2459   */\n    tag_65:\n        /* \"#utility.yul\":2412:2418   */\n      0x00\n        /* \"#utility.yul\":2446:2451   */\n      dup2\n        /* \"#utility.yul\":2440:2452   */\n      mload\n        /* \"#utility.yul\":2430:2452   */\n      swap1\n      pop\n        /* \"#utility.yul\":2360:2459   */\n      swap2\n      swap1\n      pop\n      jump\t// out\n        /* \"#utility.yul\":2465:2634   */\n    tag_66:\n        /* \"#utility.yul\":2549:2560   */\n      0x00\n        /* \"#utility.yul\":2583:2589   */\n      dup3\n        /* \"#utility.yul\":2578:2581   */\n      dup3\n        /* \"#utility.yul\":2571:2590   */\n      mstore\n        /* \"#utility.yul\":2623:2627   */\n      0x20\n        /* \"#utility.yul\":2618:2621   */\n      dup3\n        /* \"#utility.yul\":2614:2628   */\n      add\n        /* \"#utility.yul\":2599:2628   */\n      swap1\n      pop\n        /* \"#utility.yul\":2465:2634   */\n      swap3\n      swap2\n      pop\n      pop\n      jump\t// out\n        /* \"#utility.yul\":2640:2779   */\n    tag_67:\n        /* \"#utility.yul\":2729:2735   */\n      dup3\n        /* \"#utility.yul\":2724:2727   */\n      dup2\n        /* \"#utility.yul\":2719:2722   */\n      dup4\n        /* \"#utility.yul\":2713:2736   */\n      mcopy\n        /* \"#utility.yul\":2770:2771   */\n      0x00\n        /* \"#utility.yul\":2761:2767   */\n      dup4\n        /* \"#utility.yul\":2756:2759   */\n      dup4\n        /* \"#utility.yul\":2752:2768   */\n      add\n        /* \"#utility.yul\":2745:2772   */\n      mstore\n        /* \"#utility.yul\":2640:2779   */\n      pop\n      pop\n      pop\n      jump\t// out\n        /* \"#utility.yul\":2785:2887   */\n    tag_68:\n        /* \"#utility.yul\":2826:2832   */\n      0x00\n        /* \"#utility.yul\":2877:2879   */\n      0x1f\n        /* \"#utility.yul\":2873:2880   */\n      not\n        /* \"#utility.yul\":2868:2870   */\n      0x1f\n        /* \"#utility.yul\":2861:2866   */\n      dup4\n        /* \"#utility.yul\":2857:2871   */\n      add\n        /* \"#utility.yul\":2853:2881   */\n      and\n        /* \"#utility.yul\":2843:2881   */\n      swap1\n      pop\n        /* \"#utility.yul\":2785:2887   */\n      swap2\n      swap1\n      pop\n      jump\t// out\n        /* \"#utility.yul\":2893:3270   */\n    tag_69:\n        /* \"#utility.yul\":2981:2984   */\n      0x00\n        /* \"#utility.yul\":3009:3048   */\n      tag_117\n        /* \"#utility.yul\":3042:3047   */\n      dup3\n        /* \"#utility.yul\":3009:3048   */\n      tag_65\n      jump\t// in\n    tag_117:\n        /* \"#utility.yul\":3064:3135   */\n      tag_118\n        /* \"#utility.yul\":3128:3134   */\n      dup2\n        /* \"#utility.yul\":3123:3126   */\n      dup6\n        /* \"#utility.yul\":3064:3135   */\n      tag_66\n      jump\t// in\n    tag_118:\n        /* \"#utility.yul\":3057:3135   */\n      swap4\n      pop\n        /* \"#utility.yul\":3144:3209   */\n      tag_119\n        /* \"#utility.yul\":3202:3208   */\n      dup2\n        /* \"#utility.yul\":3197:3200   */\n      dup6\n        /* \"#utility.yul\":3190:3194   */\n      0x20\n        /* \"#utility.yul\":3183:3188   */\n      dup7\n        /* \"#utility.yul\":3179:3195   */\n      add\n        /* \"#utility.yul\":3144:3209   */\n      tag_67\n      jump\t// in\n    tag_119:\n        /* \"#utility.yul\":3234:3263   */\n      tag_120\n        /* \"#utility.yul\":3256:3262   */\n      dup2\n        /* \"#utility.yul\":3234:3263   */\n      tag_68\n      jump\t// in\n    tag_120:\n        /* \"#utility.yul\":3229:3232   */\n      dup5\n        /* \"#utility.yul\":3225:3264   */\n      add\n        /* \"#utility.yul\":3218:3264   */\n      swap2\n      pop\n        /* \"#utility.yul\":2985:3270   */\n      pop\n        /* \"#utility.yul\":2893:3270   */\n      swap3\n      swap2\n      pop\n      pop\n      jump\t// out\n        /* \"#utility.yul\":3276:3589   */\n    tag_22:\n        /* \"#utility.yul\":3389:3393   */\n      0x00\n        /* \"#utility.yul\":3427:3429   */\n      0x20\n        /* \"#utility.yul\":3416:3425   */\n      dup3\n        /* \"#utility.yul\":3412:3430   */\n      add\n        /* \"#utility.yul\":3404:3430   */\n      swap1\n      pop\n        /* \"#utility.yul\":3476:3485   */\n      dup2\n        /* \"#utility.yul\":3470:3474   */\n      dup2\n        /* \"#utility.yul\":3466:3486   */\n      sub\n        /* \"#utility.yul\":3462:3463   */\n      0x00\n        /* \"#utility.yul\":3451:3460   */\n      dup4\n        /* \"#utility.yul\":3447:3464   */\n      add\n        /* \"#utility.yul\":3440:3487   */\n      mstore\n        /* \"#utility.yul\":3504:3582   */\n      tag_122\n        /* \"#utility.yul\":3577:3581   */\n      dup2\n        /* \"#utility.yul\":3568:3574   */\n      dup5\n        /* \"#utility.yul\":3504:3582   */\n      tag_69\n      jump\t// in\n    tag_122:\n        /* \"#utility.yul\":3496:3582   */\n      swap1\n      pop\n        /* \"#utility.yul\":3276:3589   */\n      swap3\n      swap2\n      pop\n      pop\n      jump\t// out\n        /* \"#utility.yul\":3595:3672   */\n    tag_70:\n        /* \"#utility.yul\":3632:3639   */\n      0x00\n        /* \"#utility.yul\":3661:3666   */\n      dup2\n        /* \"#utility.yul\":3650:3666   */\n      swap1\n      pop\n        /* \"#utility.yul\":3595:3672   */\n      swap2\n      swap1\n      pop\n      jump\t// out\n        /* \"#utility.yul\":3678:3800   */\n    tag_71:\n        /* \"#utility.yul\":3751:3775   */\n      tag_125\n        /* \"#utility.yul\":3769:3774   */\n      dup2\n        /* \"#utility.yul\":3751:3775   */\n      tag_70\n      jump\t// in\n    tag_125:\n        /* \"#utility.yul\":3744:3749   */\n      dup2\n        /* \"#utility.yul\":3741:3776   */\n      eq\n        /* \"#utility.yul\":3731:3794   */\n      tag_126\n      jumpi\n        /* \"#utility.yul\":3790:3791   */\n      0x00\n        /* \"#utility.yul\":3787:3788   */\n      dup1\n        /* \"#utility.yul\":3780:3792   */\n      revert\n        /* \"#utility.yul\":3731:3794   */\n    tag_126:\n        /* \"#utility.yul\":3678:3800   */\n      pop\n      jump\t// out\n        /* \"#utility.yul\":3806:3945   */\n    tag_72:\n        /* \"#utility.yul\":3852:3857   */\n      0x00\n        /* \"#utility.yul\":3890:3896   */\n      dup2\n        /* \"#utility.yul\":3877:3897   */\n      calldataload\n        /* \"#utility.yul\":3868:3897   */\n      swap1\n      pop\n        /* \"#utility.yul\":3906:3939   */\n      tag_128\n        /* \"#utility.yul\":3933:3938   */\n      dup2\n        /* \"#utility.yul\":3906:3939   */\n      tag_71\n      jump\t// in\n    tag_128:\n        /* \"#utility.yul\":3806:3945   */\n      swap3\n      swap2\n      pop\n      pop\n      jump\t// out\n        /* \"#utility.yul\":3951:4423   */\n    tag_25:\n        /* \"#utility.yul\":4018:4024   */\n      0x00\n        /* \"#utility.yul\":4026:4032   */\n      dup1\n        /* \"#utility.yul\":4075:4077   */\n      0x40\n        /* \"#utility.yul\":4063:4072   */\n      dup4\n        /* \"#utility.yul\":4054:4061   */\n      dup6\n        /* \"#utility.yul\":4050:4073   */\n      sub\n        /* \"#utility.yul\":4046:4078   */\n      slt\n        /* \"#utility.yul\":4043:4162   */\n      iszero\n      tag_130\n      jumpi\n        /* \"#utility.yul\":4081:4160   */\n      tag_131\n      tag_54\n      jump\t// in\n    tag_131:\n        /* \"#utility.yul\":4043:4162   */\n    tag_130:\n        /* \"#utility.yul\":4201:4202   */\n      0x00\n        /* \"#utility.yul\":4226:4278   */\n      tag_132\n        /* \"#utility.yul\":4270:4277   */\n      dup6\n        /* \"#utility.yul\":4261:4267   */\n      dup3\n        /* \"#utility.yul\":4250:4259   */\n      dup7\n        /* \"#utility.yul\":4246:4268   */\n      add\n        /* \"#utility.yul\":4226:4278   */\n      tag_58\n      jump\t// in\n    tag_132:\n        /* \"#utility.yul\":4216:4278   */\n      swap3\n      pop\n        /* \"#utility.yul\":4172:4288   */\n      pop\n        /* \"#utility.yul\":4327:4329   */\n      0x20\n        /* \"#utility.yul\":4353:4406   */\n      tag_133\n        /* \"#utility.yul\":4398:4405   */\n      dup6\n        /* \"#utility.yul\":4389:4395   */\n      dup3\n        /* \"#utility.yul\":4378:4387   */\n      dup7\n        /* \"#utility.yul\":4374:4396   */\n      add\n        /* \"#utility.yul\":4353:4406   */\n      tag_72\n      jump\t// in\n    tag_133:\n        /* \"#utility.yul\":4343:4406   */\n      swap2\n      pop\n        /* \"#utility.yul\":4298:4416   */\n      pop\n        /* \"#utility.yul\":3951:4423   */\n      swap3\n      pop\n      swap3\n      swap1\n      pop\n      jump\t// out\n        /* \"#utility.yul\":4429:4547   */\n    tag_73:\n        /* \"#utility.yul\":4516:4540   */\n      tag_135\n        /* \"#utility.yul\":4534:4539   */\n      dup2\n        /* \"#utility.yul\":4516:4540   */\n      tag_70\n      jump\t// in\n    tag_135:\n        /* \"#utility.yul\":4511:4514   */\n      dup3\n        /* \"#utility.yul\":4504:4541   */\n      mstore\n        /* \"#utility.yul\":4429:4547   */\n      pop\n      pop\n      jump\t// out\n        /* \"#utility.yul\":4553:4775   */\n    tag_28:\n        /* \"#utility.yul\":4646:4650   */\n      0x00\n        /* \"#utility.yul\":4684:4686   */\n      0x20\n        /* \"#utility.yul\":4673:4682   */\n      dup3\n        /* \"#utility.yul\":4669:4687   */\n      add\n        /* \"#utility.yul\":4661:4687   */\n      swap1\n      pop\n        /* \"#utility.yul\":4697:4768   */\n      tag_137\n        /* \"#utility.yul\":4765:4766   */\n      0x00\n        /* \"#utility.yul\":4754:4763   */\n      dup4\n        /* \"#utility.yul\":4750:4767   */\n      add\n        /* \"#utility.yul\":4741:4747   */\n      dup5\n        /* \"#utility.yul\":4697:4768   */\n      tag_73\n      jump\t// in\n    tag_137:\n        /* \"#utility.yul\":4553:4775   */\n      swap3\n      swap2\n      pop\n      pop\n      jump\t// out\n        /* \"#utility.yul\":4781:4896   */\n    tag_74:\n        /* \"#utility.yul\":4866:4889   */\n      tag_139\n        /* \"#utility.yul\":4883:4888   */\n      dup2\n        /* \"#utility.yul\":4866:4889   */\n      tag_56\n      jump\t// in\n    tag_139:\n        /* \"#utility.yul\":4861:4864   */\n      dup3\n        /* \"#utility.yul\":4854:4890   */\n      mstore\n        /* \"#utility.yul\":4781:4896   */\n      pop\n      pop\n      jump\t// out\n        /* \"#utility.yul\":4902:5120   */\n    tag_32:\n        /* \"#utility.yul\":4993:4997   */\n      0x00\n        /* \"#utility.yul\":5031:5033   */\n      0x20\n        /* \"#utility.yul\":5020:5029   */\n      dup3\n        /* \"#utility.yul\":5016:5034   */\n      add\n        /* \"#utility.yul\":5008:5034   */\n      swap1\n      pop\n        /* \"#utility.yul\":5044:5113   */\n      tag_141\n        /* \"#utility.yul\":5110:5111   */\n      0x00\n        /* \"#utility.yul\":5099:5108   */\n      dup4\n        /* \"#utility.yul\":5095:5112   */\n      add\n        /* \"#utility.yul\":5086:5092   */\n      dup5\n        /* \"#utility.yul\":5044:5113   */\n      tag_74\n      jump\t// in\n    tag_141:\n        /* \"#utility.yul\":4902:5120   */\n      swap3\n      swap2\n      pop\n      pop\n      jump\t// out\n        /* \"#utility.yul\":5126:5224   */\n    tag_75:\n        /* \"#utility.yul\":5177:5183   */\n      0x00\n        /* \"#utility.yul\":5211:5216   */\n      dup2\n        /* \"#utility.yul\":5205:5217   */\n      mload\n        /* \"#utility.yul\":5195:5217   */\n      swap1\n      pop\n        /* \"#utility.yul\":5126:5224   */\n      swap2\n      swap1\n      pop\n      jump\t// out\n        /* \"#utility.yul\":5230:5377   */\n    tag_76:\n        /* \"#utility.yul\":5331:5342   */\n      0x00\n        /* \"#utility.yul\":5368:5371   */\n      dup2\n        /* \"#utility.yul\":5353:5371   */\n      swap1\n      pop\n        /* \"#utility.yul\":5230:5377   */\n      swap3\n      swap2\n      pop\n      pop\n      jump\t// out\n        /* \"#utility.yul\":5383:5769   */\n    tag_77:\n        /* \"#utility.yul\":5487:5490   */\n      0x00\n        /* \"#utility.yul\":5515:5553   */\n      tag_145\n        /* \"#utility.yul\":5547:5552   */\n      dup3\n        /* \"#utility.yul\":5515:5553   */\n      tag_75\n      jump\t// in\n    tag_145:\n        /* \"#utility.yul\":5569:5657   */\n      tag_146\n        /* \"#utility.yul\":5650:5656   */\n      dup2\n        /* \"#utility.yul\":5645:5648   */\n      dup6\n        /* \"#utility.yul\":5569:5657   */\n      tag_76\n      jump\t// in\n    tag_146:\n        /* \"#utility.yul\":5562:5657   */\n      swap4\n      pop\n        /* \"#utility.yul\":5666:5731   */\n      tag_147\n        /* \"#utility.yul\":5724:5730   */\n      dup2\n        /* \"#utility.yul\":5719:5722   */\n      dup6\n        /* \"#utility.yul\":5712:5716   */\n      0x20\n        /* \"#utility.yul\":5705:5710   */\n      dup7\n        /* \"#utility.yul\":5701:5717   */\n      add\n        /* \"#utility.yul\":5666:5731   */\n      tag_67\n      jump\t// in\n    tag_147:\n        /* \"#utility.yul\":5756:5762   */\n      dup1\n        /* \"#utility.yul\":5751:5754   */\n      dup5\n        /* \"#utility.yul\":5747:5763   */\n      add\n        /* \"#utility.yul\":5740:5763   */\n      swap2\n      pop\n        /* \"#utility.yul\":5491:5769   */\n      pop\n        /* \"#utility.yul\":5383:5769   */\n      swap3\n      swap2\n      pop\n      pop\n      jump\t// out\n        /* \"#utility.yul\":5775:6046   */\n    tag_42:\n        /* \"#utility.yul\":5905:5908   */\n      0x00\n        /* \"#utility.yul\":5927:6020   */\n      tag_149\n        /* \"#utility.yul\":6016:6019   */\n      dup3\n        /* \"#utility.yul\":6007:6013   */\n      dup5\n        /* \"#utility.yul\":5927:6020   */\n      tag_77\n      jump\t// in\n    tag_149:\n        /* \"#utility.yul\":5920:6020   */\n      swap2\n      pop\n        /* \"#utility.yul\":6037:6040   */\n      dup2\n        /* \"#utility.yul\":6030:6040   */\n      swap1\n      pop\n        /* \"#utility.yul\":5775:6046   */\n      swap3\n      swap2\n      pop\n      pop\n      jump\t// out\n        /* \"#utility.yul\":6052:6222   */\n    tag_78:\n        /* \"#utility.yul\":6192:6214   */\n      0x46756e6374696f6e2063616c6c206661696c6564000000000000000000000000\n        /* \"#utility.yul\":6188:6189   */\n      0x00\n        /* \"#utility.yul\":6180:6186   */\n      dup3\n        /* \"#utility.yul\":6176:6190   */\n      add\n        /* \"#utility.yul\":6169:6215   */\n      mstore\n        /* \"#utility.yul\":6052:6222   */\n      pop\n      jump\t// out\n        /* \"#utility.yul\":6228:6594   */\n    tag_79:\n        /* \"#utility.yul\":6370:6373   */\n      0x00\n        /* \"#utility.yul\":6391:6458   */\n      tag_152\n        /* \"#utility.yul\":6455:6457   */\n      0x14\n        /* \"#utility.yul\":6450:6453   */\n      dup4\n        /* \"#utility.yul\":6391:6458   */\n      tag_66\n      jump\t// in\n    tag_152:\n        /* \"#utility.yul\":6384:6458   */\n      swap2\n      pop\n        /* \"#utility.yul\":6467:6560   */\n      tag_153\n        /* \"#utility.yul\":6556:6559   */\n      dup3\n        /* \"#utility.yul\":6467:6560   */\n      tag_78\n      jump\t// in\n    tag_153:\n        /* \"#utility.yul\":6585:6587   */\n      0x20\n        /* \"#utility.yul\":6580:6583   */\n      dup3\n        /* \"#utility.yul\":6576:6588   */\n      add\n        /* \"#utility.yul\":6569:6588   */\n      swap1\n      pop\n        /* \"#utility.yul\":6228:6594   */\n      swap2\n      swap1\n      pop\n      jump\t// out\n        /* \"#utility.yul\":6600:7019   */\n    tag_48:\n        /* \"#utility.yul\":6766:6770   */\n      0x00\n        /* \"#utility.yul\":6804:6806   */\n      0x20\n        /* \"#utility.yul\":6793:6802   */\n      dup3\n        /* \"#utility.yul\":6789:6807   */\n      add\n        /* \"#utility.yul\":6781:6807   */\n      swap1\n      pop\n        /* \"#utility.yul\":6853:6862   */\n      dup2\n        /* \"#utility.yul\":6847:6851   */\n      dup2\n        /* \"#utility.yul\":6843:6863   */\n      sub\n        /* \"#utility.yul\":6839:6840   */\n      0x00\n        /* \"#utility.yul\":6828:6837   */\n      dup4\n        /* \"#utility.yul\":6824:6841   */\n      add\n        /* \"#utility.yul\":6817:6864   */\n      mstore\n        /* \"#utility.yul\":6881:7012   */\n      tag_155\n        /* \"#utility.yul\":7007:7011   */\n      dup2\n        /* \"#utility.yul\":6881:7012   */\n      tag_79\n      jump\t// in\n    tag_155:\n        /* \"#utility.yul\":6873:7012   */\n      swap1\n      pop\n        /* \"#utility.yul\":6600:7019   */\n      swap2\n      swap1\n      pop\n      jump\t// out\n        /* \"#utility.yul\":7025:7168   */\n    tag_80:\n        /* \"#utility.yul\":7082:7087   */\n      0x00\n        /* \"#utility.yul\":7113:7119   */\n      dup2\n        /* \"#utility.yul\":7107:7120   */\n      mload\n        /* \"#utility.yul\":7098:7120   */\n      swap1\n      pop\n        /* \"#utility.yul\":7129:7162   */\n      tag_157\n        /* \"#utility.yul\":7156:7161   */\n      dup2\n        /* \"#utility.yul\":7129:7162   */\n      tag_71\n      jump\t// in\n    tag_157:\n        /* \"#utility.yul\":7025:7168   */\n      swap3\n      swap2\n      pop\n      pop\n      jump\t// out\n        /* \"#utility.yul\":7174:7525   */\n    tag_50:\n        /* \"#utility.yul\":7244:7250   */\n      0x00\n        /* \"#utility.yul\":7293:7295   */\n      0x20\n        /* \"#utility.yul\":7281:7290   */\n      dup3\n        /* \"#utility.yul\":7272:7279   */\n      dup5\n        /* \"#utility.yul\":7268:7291   */\n      sub\n        /* \"#utility.yul\":7264:7296   */\n      slt\n        /* \"#utility.yul\":7261:7380   */\n      iszero\n      tag_159\n      jumpi\n        /* \"#utility.yul\":7299:7378   */\n      tag_160\n      tag_54\n      jump\t// in\n    tag_160:\n        /* \"#utility.yul\":7261:7380   */\n    tag_159:\n        /* \"#utility.yul\":7419:7420   */\n      0x00\n        /* \"#utility.yul\":7444:7508   */\n      tag_161\n        /* \"#utility.yul\":7500:7507   */\n      dup5\n        /* \"#utility.yul\":7491:7497   */\n      dup3\n        /* \"#utility.yul\":7480:7489   */\n      dup6\n        /* \"#utility.yul\":7476:7498   */\n      add\n        /* \"#utility.yul\":7444:7508   */\n      tag_80\n      jump\t// in\n    tag_161:\n        /* \"#utility.yul\":7434:7508   */\n      swap2\n      pop\n        /* \"#utility.yul\":7390:7518   */\n      pop\n        /* \"#utility.yul\":7174:7525   */\n      swap3\n      swap2\n      pop\n      pop\n      jump\t// out\n\n    auxdata: 0xa2646970667358221220e71bd7702429827debbad7b1b8868a6db887de7d5d80d0bbb58df7333393e42864736f6c634300081a0033\n}\n",
				"bytecode": {
					"linkReferences": {},
					"object": "6080604052348015600e575f80fd5b506106d78061001c5f395ff3fe608060405234801561000f575f80fd5b5060043610610060575f3560e01c806303275a0514610064578063162790551461008057806317d7de7c146100b05780634c93bab5146100ce578063674b3f63146100fe578063674e0fcc1461011c575b5f80fd5b61007e6004803603810190610079919061036c565b61013a565b005b61009a600480360381019061009591906103f1565b610159565b6040516100a79190610436565b60405180910390f35b6100b861016a565b6040516100c591906104bf565b60405180910390f35b6100e860048036038101906100e39190610512565b6101a7565b6040516100f5919061055f565b60405180910390f35b6101066102de565b6040516101139190610587565b60405180910390f35b6101246102ec565b6040516101319190610587565b60405180910390f35b805f806101000a81548163ffffffff021916908360e01c021790555050565b5f80823b90505f8111915050919050565b60606040518060400160405260058152806020017f48656c6c6f000000000000000000000000000000000000000000000000000000815250905090565b5f805f3073ffffffffffffffffffffffffffffffffffffffff1685856040516024016101d3919061055f565b604051602081830303815290604052907bffffffffffffffffffffffffffffffffffffffffffffffffffffffff19166020820180517bffffffffffffffffffffffffffffffffffffffffffffffffffffffff838183161783525050505060405161023d91906105e4565b5f604051808303815f865af19150503d805f8114610276576040519150601f19603f3d011682016040523d82523d5f602084013e61027b565b606091505b5091509150816102c0576040517f08c379a00000000000000000000000000000000000000000000000000000000081526004016102b790610644565b60405180910390fd5b808060200190518101906102d49190610676565b9250505092915050565b5f6317d7de7c60e01b905090565b5f7f609278fa5f64a571de10741418f1c4c0c4322aef645dd9d94a429c1f3e99a8a5905090565b5f80fd5b5f7fffffffff0000000000000000000000000000000000000000000000000000000082169050919050565b61034b81610317565b8114610355575f80fd5b50565b5f8135905061036681610342565b92915050565b5f6020828403121561038157610380610313565b5b5f61038e84828501610358565b91505092915050565b5f73ffffffffffffffffffffffffffffffffffffffff82169050919050565b5f6103c082610397565b9050919050565b6103d0816103b6565b81146103da575f80fd5b50565b5f813590506103eb816103c7565b92915050565b5f6020828403121561040657610405610313565b5b5f610413848285016103dd565b91505092915050565b5f8115159050919050565b6104308161041c565b82525050565b5f6020820190506104495f830184610427565b92915050565b5f81519050919050565b5f82825260208201905092915050565b8281835e5f83830152505050565b5f601f19601f8301169050919050565b5f6104918261044f565b61049b8185610459565b93506104ab818560208601610469565b6104b481610477565b840191505092915050565b5f6020820190508181035f8301526104d78184610487565b905092915050565b5f819050919050565b6104f1816104df565b81146104fb575f80fd5b50565b5f8135905061050c816104e8565b92915050565b5f806040838503121561052857610527610313565b5b5f61053585828601610358565b9250506020610546858286016104fe565b9150509250929050565b610559816104df565b82525050565b5f6020820190506105725f830184610550565b92915050565b61058181610317565b82525050565b5f60208201905061059a5f830184610578565b92915050565b5f81519050919050565b5f81905092915050565b5f6105be826105a0565b6105c881856105aa565b93506105d8818560208601610469565b80840191505092915050565b5f6105ef82846105b4565b915081905092915050565b7f46756e6374696f6e2063616c6c206661696c65640000000000000000000000005f82015250565b5f61062e601483610459565b9150610639826105fa565b602082019050919050565b5f6020820190508181035f83015261065b81610622565b9050919050565b5f81519050610670816104e8565b92915050565b5f6020828403121561068b5761068a610313565b5b5f61069884828501610662565b9150509291505056fea2646970667358221220e71bd7702429827debbad7b1b8868a6db887de7d5d80d0bbb58df7333393e42864736f6c634300081a0033",
					"opcodes": "PUSH1 0x80 PUSH1 0x40 MSTORE CALLVALUE DUP1 ISZERO PUSH1 0xE JUMPI PUSH0 DUP1 REVERT JUMPDEST POP PUSH2 0x6D7 DUP1 PUSH2 0x1C PUSH0 CODECOPY PUSH0 RETURN INVALID PUSH1 0x80 PUSH1 0x40 MSTORE CALLVALUE DUP1 ISZERO PUSH2 0xF JUMPI PUSH0 DUP1 REVERT JUMPDEST POP PUSH1 0x4 CALLDATASIZE LT PUSH2 0x60 JUMPI PUSH0 CALLDATALOAD PUSH1 0xE0 SHR DUP1 PUSH4 0x3275A05 EQ PUSH2 0x64 JUMPI DUP1 PUSH4 0x16279055 EQ PUSH2 0x80 JUMPI DUP1 PUSH4 0x17D7DE7C EQ PUSH2 0xB0 JUMPI DUP1 PUSH4 0x4C93BAB5 EQ PUSH2 0xCE JUMPI DUP1 PUSH4 0x674B3F63 EQ PUSH2 0xFE JUMPI DUP1 PUSH4 0x674E0FCC EQ PUSH2 0x11C JUMPI JUMPDEST PUSH0 DUP1 REVERT JUMPDEST PUSH2 0x7E PUSH1 0x4 DUP1 CALLDATASIZE SUB DUP2 ADD SWAP1 PUSH2 0x79 SWAP2 SWAP1 PUSH2 0x36C JUMP JUMPDEST PUSH2 0x13A JUMP JUMPDEST STOP JUMPDEST PUSH2 0x9A PUSH1 0x4 DUP1 CALLDATASIZE SUB DUP2 ADD SWAP1 PUSH2 0x95 SWAP2 SWAP1 PUSH2 0x3F1 JUMP JUMPDEST PUSH2 0x159 JUMP JUMPDEST PUSH1 0x40 MLOAD PUSH2 0xA7 SWAP2 SWAP1 PUSH2 0x436 JUMP JUMPDEST PUSH1 0x40 MLOAD DUP1 SWAP2 SUB SWAP1 RETURN JUMPDEST PUSH2 0xB8 PUSH2 0x16A JUMP JUMPDEST PUSH1 0x40 MLOAD PUSH2 0xC5 SWAP2 SWAP1 PUSH2 0x4BF JUMP JUMPDEST PUSH1 0x40 MLOAD DUP1 SWAP2 SUB SWAP1 RETURN JUMPDEST PUSH2 0xE8 PUSH1 0x4 DUP1 CALLDATASIZE SUB DUP2 ADD SWAP1 PUSH2 0xE3 SWAP2 SWAP1 PUSH2 0x512 JUMP JUMPDEST PUSH2 0x1A7 JUMP JUMPDEST PUSH1 0x40 MLOAD PUSH2 0xF5 SWAP2 SWAP1 PUSH2 0x55F JUMP JUMPDEST PUSH1 0x40 MLOAD DUP1 SWAP2 SUB SWAP1 RETURN JUMPDEST PUSH2 0x106 PUSH2 0x2DE JUMP JUMPDEST PUSH1 0x40 MLOAD PUSH2 0x113 SWAP2 SWAP1 PUSH2 0x587 JUMP JUMPDEST PUSH1 0x40 MLOAD DUP1 SWAP2 SUB SWAP1 RETURN JUMPDEST PUSH2 0x124 PUSH2 0x2EC JUMP JUMPDEST PUSH1 0x40 MLOAD PUSH2 0x131 SWAP2 SWAP1 PUSH2 0x587 JUMP JUMPDEST PUSH1 0x40 MLOAD DUP1 SWAP2 SUB SWAP1 RETURN JUMPDEST DUP1 PUSH0 DUP1 PUSH2 0x100 EXP DUP2 SLOAD DUP2 PUSH4 0xFFFFFFFF MUL NOT AND SWAP1 DUP4 PUSH1 0xE0 SHR MUL OR SWAP1 SSTORE POP POP JUMP JUMPDEST PUSH0 DUP1 DUP3 EXTCODESIZE SWAP1 POP PUSH0 DUP2 GT SWAP2 POP POP SWAP2 SWAP1 POP JUMP JUMPDEST PUSH1 0x60 PUSH1 0x40 MLOAD DUP1 PUSH1 0x40 ADD PUSH1 0x40 MSTORE PUSH1 0x5 DUP2 MSTORE DUP1 PUSH1 0x20 ADD PUSH32 0x48656C6C6F000000000000000000000000000000000000000000000000000000 DUP2 MSTORE POP SWAP1 POP SWAP1 JUMP JUMPDEST PUSH0 DUP1 PUSH0 ADDRESS PUSH20 0xFFFFFFFFFFFFFFFFFFFFFFFFFFFFFFFFFFFFFFFF AND DUP6 DUP6 PUSH1 0x40 MLOAD PUSH1 0x24 ADD PUSH2 0x1D3 SWAP2 SWAP1 PUSH2 0x55F JUMP JUMPDEST PUSH1 0x40 MLOAD PUSH1 0x20 DUP2 DUP4 SUB SUB DUP2 MSTORE SWAP1 PUSH1 0x40 MSTORE SWAP1 PUSH28 0xFFFFFFFFFFFFFFFFFFFFFFFFFFFFFFFFFFFFFFFFFFFFFFFFFFFFFFFF NOT AND PUSH1 0x20 DUP3 ADD DUP1 MLOAD PUSH28 0xFFFFFFFFFFFFFFFFFFFFFFFFFFFFFFFFFFFFFFFFFFFFFFFFFFFFFFFF DUP4 DUP2 DUP4 AND OR DUP4 MSTORE POP POP POP POP PUSH1 0x40 MLOAD PUSH2 0x23D SWAP2 SWAP1 PUSH2 0x5E4 JUMP JUMPDEST PUSH0 PUSH1 0x40 MLOAD DUP1 DUP4 SUB DUP2 PUSH0 DUP7 GAS CALL SWAP2 POP POP RETURNDATASIZE DUP1 PUSH0 DUP2 EQ PUSH2 0x276 JUMPI PUSH1 0x40 MLOAD SWAP2 POP PUSH1 0x1F NOT PUSH1 0x3F RETURNDATASIZE ADD AND DUP3 ADD PUSH1 0x40 MSTORE RETURNDATASIZE DUP3 MSTORE RETURNDATASIZE PUSH0 PUSH1 0x20 DUP5 ADD RETURNDATACOPY PUSH2 0x27B JUMP JUMPDEST PUSH1 0x60 SWAP2 POP JUMPDEST POP SWAP2 POP SWAP2 POP DUP2 PUSH2 0x2C0 JUMPI PUSH1 0x40 MLOAD PUSH32 0x8C379A000000000000000000000000000000000000000000000000000000000 DUP2 MSTORE PUSH1 0x4 ADD PUSH2 0x2B7 SWAP1 PUSH2 0x644 JUMP JUMPDEST PUSH1 0x40 MLOAD DUP1 SWAP2 SUB SWAP1 REVERT JUMPDEST DUP1 DUP1 PUSH1 0x20 ADD SWAP1 MLOAD DUP2 ADD SWAP1 PUSH2 0x2D4 SWAP2 SWAP1 PUSH2 0x676 JUMP JUMPDEST SWAP3 POP POP POP SWAP3 SWAP2 POP POP JUMP JUMPDEST PUSH0 PUSH4 0x17D7DE7C PUSH1 0xE0 SHL SWAP1 POP SWAP1 JUMP JUMPDEST PUSH0 PUSH32 0x609278FA5F64A571DE10741418F1C4C0C4322AEF645DD9D94A429C1F3E99A8A5 SWAP1 POP SWAP1 JUMP JUMPDEST PUSH0 DUP1 REVERT JUMPDEST PUSH0 PUSH32 0xFFFFFFFF00000000000000000000000000000000000000000000000000000000 DUP3 AND SWAP1 POP SWAP2 SWAP1 POP JUMP JUMPDEST PUSH2 0x34B DUP2 PUSH2 0x317 JUMP JUMPDEST DUP2 EQ PUSH2 0x355 JUMPI PUSH0 DUP1 REVERT JUMPDEST POP JUMP JUMPDEST PUSH0 DUP2 CALLDATALOAD SWAP1 POP PUSH2 0x366 DUP2 PUSH2 0x342 JUMP JUMPDEST SWAP3 SWAP2 POP POP JUMP JUMPDEST PUSH0 PUSH1 0x20 DUP3 DUP5 SUB SLT ISZERO PUSH2 0x381 JUMPI PUSH2 0x380 PUSH2 0x313 JUMP JUMPDEST JUMPDEST PUSH0 PUSH2 0x38E DUP5 DUP3 DUP6 ADD PUSH2 0x358 JUMP JUMPDEST SWAP2 POP POP SWAP3 SWAP2 POP POP JUMP JUMPDEST PUSH0 PUSH20 0xFFFFFFFFFFFFFFFFFFFFFFFFFFFFFFFFFFFFFFFF DUP3 AND SWAP1 POP SWAP2 SWAP1 POP JUMP JUMPDEST PUSH0 PUSH2 0x3C0 DUP3 PUSH2 0x397 JUMP JUMPDEST SWAP1 POP SWAP2 SWAP1 POP JUMP JUMPDEST PUSH2 0x3D0 DUP2 PUSH2 0x3B6 JUMP JUMPDEST DUP2 EQ PUSH2 0x3DA JUMPI PUSH0 DUP1 REVERT JUMPDEST POP JUMP JUMPDEST PUSH0 DUP2 CALLDATALOAD SWAP1 POP PUSH2 0x3EB DUP2 PUSH2 0x3C7 JUMP JUMPDEST SWAP3 SWAP2 POP POP JUMP JUMPDEST PUSH0 PUSH1 0x20 DUP3 DUP5 SUB SLT ISZERO PUSH2 0x406 JUMPI PUSH2 0x405 PUSH2 0x313 JUMP JUMPDEST JUMPDEST PUSH0 PUSH2 0x413 DUP5 DUP3 DUP6 ADD PUSH2 0x3DD JUMP JUMPDEST SWAP2 POP POP SWAP3 SWAP2 POP POP JUMP JUMPDEST PUSH0 DUP2 ISZERO ISZERO SWAP1 POP SWAP2 SWAP1 POP JUMP JUMPDEST PUSH2 0x430 DUP2 PUSH2 0x41C JUMP JUMPDEST DUP3 MSTORE POP POP JUMP JUMPDEST PUSH0 PUSH1 0x20 DUP3 ADD SWAP1 POP PUSH2 0x449 PUSH0 DUP4 ADD DUP5 PUSH2 0x427 JUMP JUMPDEST SWAP3 SWAP2 POP POP JUMP JUMPDEST PUSH0 DUP2 MLOAD SWAP1 POP SWAP2 SWAP1 POP JUMP JUMPDEST PUSH0 DUP3 DUP3 MSTORE PUSH1 0x20 DUP3 ADD SWAP1 POP SWAP3 SWAP2 POP POP JUMP JUMPDEST DUP3 DUP2 DUP4 MCOPY PUSH0 DUP4 DUP4 ADD MSTORE POP POP POP JUMP JUMPDEST PUSH0 PUSH1 0x1F NOT PUSH1 0x1F DUP4 ADD AND SWAP1 POP SWAP2 SWAP1 POP JUMP JUMPDEST PUSH0 PUSH2 0x491 DUP3 PUSH2 0x44F JUMP JUMPDEST PUSH2 0x49B DUP2 DUP6 PUSH2 0x459 JUMP JUMPDEST SWAP4 POP PUSH2 0x4AB DUP2 DUP6 PUSH1 0x20 DUP7 ADD PUSH2 0x469 JUMP JUMPDEST PUSH2 0x4B4 DUP2 PUSH2 0x477 JUMP JUMPDEST DUP5 ADD SWAP2 POP POP SWAP3 SWAP2 POP POP JUMP JUMPDEST PUSH0 PUSH1 0x20 DUP3 ADD SWAP1 POP DUP2 DUP2 SUB PUSH0 DUP4 ADD MSTORE PUSH2 0x4D7 DUP2 DUP5 PUSH2 0x487 JUMP JUMPDEST SWAP1 POP SWAP3 SWAP2 POP POP JUMP JUMPDEST PUSH0 DUP2 SWAP1 POP SWAP2 SWAP1 POP JUMP JUMPDEST PUSH2 0x4F1 DUP2 PUSH2 0x4DF JUMP JUMPDEST DUP2 EQ PUSH2 0x4FB JUMPI PUSH0 DUP1 REVERT JUMPDEST POP JUMP JUMPDEST PUSH0 DUP2 CALLDATALOAD SWAP1 POP PUSH2 0x50C DUP2 PUSH2 0x4E8 JUMP JUMPDEST SWAP3 SWAP2 POP POP JUMP JUMPDEST PUSH0 DUP1 PUSH1 0x40 DUP4 DUP6 SUB SLT ISZERO PUSH2 0x528 JUMPI PUSH2 0x527 PUSH2 0x313 JUMP JUMPDEST JUMPDEST PUSH0 PUSH2 0x535 DUP6 DUP3 DUP7 ADD PUSH2 0x358 JUMP JUMPDEST SWAP3 POP POP PUSH1 0x20 PUSH2 0x546 DUP6 DUP3 DUP7 ADD PUSH2 0x4FE JUMP JUMPDEST SWAP2 POP POP SWAP3 POP SWAP3 SWAP1 POP JUMP JUMPDEST PUSH2 0x559 DUP2 PUSH2 0x4DF JUMP JUMPDEST DUP3 MSTORE POP POP JUMP JUMPDEST PUSH0 PUSH1 0x20 DUP3 ADD SWAP1 POP PUSH2 0x572 PUSH0 DUP4 ADD DUP5 PUSH2 0x550 JUMP JUMPDEST SWAP3 SWAP2 POP POP JUMP JUMPDEST PUSH2 0x581 DUP2 PUSH2 0x317 JUMP JUMPDEST DUP3 MSTORE POP POP JUMP JUMPDEST PUSH0 PUSH1 0x20 DUP3 ADD SWAP1 POP PUSH2 0x59A PUSH0 DUP4 ADD DUP5 PUSH2 0x578 JUMP JUMPDEST SWAP3 SWAP2 POP POP JUMP JUMPDEST PUSH0 DUP2 MLOAD SWAP1 POP SWAP2 SWAP1 POP JUMP JUMPDEST PUSH0 DUP2 SWAP1 POP SWAP3 SWAP2 POP POP JUMP JUMPDEST PUSH0 PUSH2 0x5BE DUP3 PUSH2 0x5A0 JUMP JUMPDEST PUSH2 0x5C8 DUP2 DUP6 PUSH2 0x5AA JUMP JUMPDEST SWAP4 POP PUSH2 0x5D8 DUP2 DUP6 PUSH1 0x20 DUP7 ADD PUSH2 0x469 JUMP JUMPDEST DUP1 DUP5 ADD SWAP2 POP POP SWAP3 SWAP2 POP POP JUMP JUMPDEST PUSH0 PUSH2 0x5EF DUP3 DUP5 PUSH2 0x5B4 JUMP JUMPDEST SWAP2 POP DUP2 SWAP1 POP SWAP3 SWAP2 POP POP JUMP JUMPDEST PUSH32 0x46756E6374696F6E2063616C6C206661696C6564000000000000000000000000 PUSH0 DUP3 ADD MSTORE POP JUMP JUMPDEST PUSH0 PUSH2 0x62E PUSH1 0x14 DUP4 PUSH2 0x459 JUMP JUMPDEST SWAP2 POP PUSH2 0x639 DUP3 PUSH2 0x5FA JUMP JUMPDEST PUSH1 0x20 DUP3 ADD SWAP1 POP SWAP2 SWAP1 POP JUMP JUMPDEST PUSH0 PUSH1 0x20 DUP3 ADD SWAP1 POP DUP2 DUP2 SUB PUSH0 DUP4 ADD MSTORE PUSH2 0x65B DUP2 PUSH2 0x622 JUMP JUMPDEST SWAP1 POP SWAP2 SWAP1 POP JUMP JUMPDEST PUSH0 DUP2 MLOAD SWAP1 POP PUSH2 0x670 DUP2 PUSH2 0x4E8 JUMP JUMPDEST SWAP3 SWAP2 POP POP JUMP JUMPDEST PUSH0 PUSH1 0x20 DUP3 DUP5 SUB SLT ISZERO PUSH2 0x68B JUMPI PUSH2 0x68A PUSH2 0x313 JUMP JUMPDEST JUMPDEST PUSH0 PUSH2 0x698 DUP5 DUP3 DUP6 ADD PUSH2 0x662 JUMP JUMPDEST SWAP2 POP POP SWAP3 SWAP2 POP POP JUMP INVALID LOG2 PUSH5 0x6970667358 0x22 SLT KECCAK256 0xE7 SHL 0xD7 PUSH17 0x2429827DEBBAD7B1B8868A6DB887DE7D5D DUP1 0xD0 0xBB 0xB5 DUP14 0xF7 CALLER CALLER SWAP4 0xE4 0x28 PUSH5 0x736F6C6343 STOP ADDMOD BYTE STOP CALLER "
				},
				"gasEstimates": {
					"creation": {
						"codeDepositCost": "350200",
						"executionCost": "384",
						"totalCost": "350584"
					},
					"external": {
						"getFunctionSelector1()": "410",
						"getFunctionSelector2()": "426",
						"getName()": "infinite",
						"isContract(address)": "3265",
						"select(bytes4,uint256)": "infinite",
						"transferSelector(bytes4)": "24651"
					}
				},
				"methodIdentifiers": {
					"getFunctionSelector1()": "674b3f63",
					"getFunctionSelector2()": "674e0fcc",
					"getName()": "17d7de7c",
					"isContract(address)": "16279055",
					"select(bytes4,uint256)": "4c93bab5",
					"transferSelector(bytes4)": "03275a05"
				}
			},
			"storageLayout": {
				"storage": [
					{
						"astId": 96,
						"contract": "solidity-study/solidity-1base/4/Hello.sol:Hello",
						"label": "state",
						"offset": 0,
						"slot": "0",
						"type": "t_bytes4"
					}
				],
				"types": {
					"t_bytes4": {
						"encoding": "inplace",
						"label": "bytes4",
						"numberOfBytes": "4"
					}
				}
			},
			"userdoc": {
				"kind": "user",
				"methods": {},
				"version": 1
			}
		}
	}
}