{
	"solidity-study/solidity-1base/2/2.2/UintDemo.sol": {
		"UintDemo": {
			"abi": [
				{
					"inputs": [],
					"name": "add1",
					"outputs": [
						{
							"internalType": "uint8",
							"name": "",
							"type": "uint8"
						}
					],
					"stateMutability": "pure",
					"type": "function"
				},
				{
					"inputs": [],
					"name": "add2",
					"outputs": [
						{
							"internalType": "uint8",
							"name": "",
							"type": "uint8"
						}
					],
					"stateMutability": "pure",
					"type": "function"
				},
				{
					"inputs": [],
					"name": "add3",
					"outputs": [
						{
							"internalType": "uint8",
							"name": "",
							"type": "uint8"
						}
					],
					"stateMutability": "pure",
					"type": "function"
				}
			],
			"devdoc": {
				"kind": "dev",
				"methods": {},
				"version": 1
			},
			"evm": {
				"assembly": "    /* \"solidity-study/solidity-1base/2/2.2/UintDemo.sol\":62:999  contract UintDemo{... */\n  mstore(0x40, 0x80)\n  callvalue\n  dup1\n  iszero\n  tag_1\n  jumpi\n  0x00\n  dup1\n  revert\ntag_1:\n  pop\n  dataSize(sub_0)\n  dup1\n  dataOffset(sub_0)\n  0x00\n  codecopy\n  0x00\n  return\nstop\n\nsub_0: assembly {\n        /* \"solidity-study/solidity-1base/2/2.2/UintDemo.sol\":62:999  contract UintDemo{... */\n      mstore(0x40, 0x80)\n      callvalue\n      dup1\n      iszero\n      tag_1\n      jumpi\n      0x00\n      dup1\n      revert\n    tag_1:\n      pop\n      jumpi(tag_2, lt(calldatasize, 0x04))\n      shr(0xe0, calldataload(0x00))\n      dup1\n      0x35921a\n      eq\n      tag_3\n      jumpi\n      dup1\n      0x6c1f222f\n      eq\n      tag_4\n      jumpi\n      dup1\n      0x92735f4a\n      eq\n      tag_5\n      jumpi\n    tag_2:\n      0x00\n      dup1\n      revert\n        /* \"solidity-study/solidity-1base/2/2.2/UintDemo.sol\":226:403  function add1() public pure returns(uint8){... */\n    tag_3:\n      tag_6\n      tag_7\n      jump\t// in\n    tag_6:\n      mload(0x40)\n      tag_8\n      swap2\n      swap1\n      tag_9\n      jump\t// in\n    tag_8:\n      mload(0x40)\n      dup1\n      swap2\n      sub\n      swap1\n      return\n        /* \"solidity-study/solidity-1base/2/2.2/UintDemo.sol\":411:542  function add2() public pure returns(uint8){... */\n    tag_4:\n      tag_10\n      tag_11\n      jump\t// in\n    tag_10:\n      mload(0x40)\n      tag_12\n      swap2\n      swap1\n      tag_9\n      jump\t// in\n    tag_12:\n      mload(0x40)\n      dup1\n      swap2\n      sub\n      swap1\n      return\n        /* \"solidity-study/solidity-1base/2/2.2/UintDemo.sol\":548:738  function add3() public pure returns(uint8){... */\n    tag_5:\n      tag_13\n      tag_14\n      jump\t// in\n    tag_13:\n      mload(0x40)\n      tag_15\n      swap2\n      swap1\n      tag_9\n      jump\t// in\n    tag_15:\n      mload(0x40)\n      dup1\n      swap2\n      sub\n      swap1\n      return\n        /* \"solidity-study/solidity-1base/2/2.2/UintDemo.sol\":226:403  function add1() public pure returns(uint8){... */\n    tag_7:\n        /* \"solidity-study/solidity-1base/2/2.2/UintDemo.sol\":262:267  uint8 */\n      0x00\n        /* \"solidity-study/solidity-1base/2/2.2/UintDemo.sol\":279:286  uint8 x */\n      dup1\n        /* \"solidity-study/solidity-1base/2/2.2/UintDemo.sol\":289:292  128 */\n      0x80\n        /* \"solidity-study/solidity-1base/2/2.2/UintDemo.sol\":279:292  uint8 x = 128 */\n      swap1\n      pop\n        /* \"solidity-study/solidity-1base/2/2.2/UintDemo.sol\":303:310  uint8 y */\n      0x00\n        /* \"solidity-study/solidity-1base/2/2.2/UintDemo.sol\":313:314  2 */\n      0x02\n        /* \"solidity-study/solidity-1base/2/2.2/UintDemo.sol\":303:314  uint8 y = 2 */\n      swap1\n      pop\n        /* \"solidity-study/solidity-1base/2/2.2/UintDemo.sol\":334:335  y */\n      dup1\n        /* \"solidity-study/solidity-1base/2/2.2/UintDemo.sol\":332:333  x */\n      dup3\n        /* \"solidity-study/solidity-1base/2/2.2/UintDemo.sol\":332:335  x*y */\n      tag_17\n      swap2\n      swap1\n      tag_18\n      jump\t// in\n    tag_17:\n        /* \"solidity-study/solidity-1base/2/2.2/UintDemo.sol\":325:335  return x*y */\n      swap3\n      pop\n      pop\n      pop\n        /* \"solidity-study/solidity-1base/2/2.2/UintDemo.sol\":226:403  function add1() public pure returns(uint8){... */\n      swap1\n      jump\t// out\n        /* \"solidity-study/solidity-1base/2/2.2/UintDemo.sol\":411:542  function add2() public pure returns(uint8){... */\n    tag_11:\n        /* \"solidity-study/solidity-1base/2/2.2/UintDemo.sol\":447:452  uint8 */\n      0x00\n        /* \"solidity-study/solidity-1base/2/2.2/UintDemo.sol\":464:471  uint8 x */\n      dup1\n        /* \"solidity-study/solidity-1base/2/2.2/UintDemo.sol\":474:477  140 */\n      0x8c\n        /* \"solidity-study/solidity-1base/2/2.2/UintDemo.sol\":464:477  uint8 x = 140 */\n      swap1\n      pop\n        /* \"solidity-study/solidity-1base/2/2.2/UintDemo.sol\":488:495  uint8 y */\n      0x00\n        /* \"solidity-study/solidity-1base/2/2.2/UintDemo.sol\":498:501  116 */\n      0x74\n        /* \"solidity-study/solidity-1base/2/2.2/UintDemo.sol\":488:501  uint8 y = 116 */\n      swap1\n      pop\n        /* \"solidity-study/solidity-1base/2/2.2/UintDemo.sol\":521:522  y */\n      dup1\n        /* \"solidity-study/solidity-1base/2/2.2/UintDemo.sol\":519:520  x */\n      dup3\n        /* \"solidity-study/solidity-1base/2/2.2/UintDemo.sol\":519:522  x+y */\n      tag_20\n      swap2\n      swap1\n      tag_21\n      jump\t// in\n    tag_20:\n        /* \"solidity-study/solidity-1base/2/2.2/UintDemo.sol\":512:522  return x+y */\n      swap3\n      pop\n      pop\n      pop\n        /* \"solidity-study/solidity-1base/2/2.2/UintDemo.sol\":411:542  function add2() public pure returns(uint8){... */\n      swap1\n      jump\t// out\n        /* \"solidity-study/solidity-1base/2/2.2/UintDemo.sol\":548:738  function add3() public pure returns(uint8){... */\n    tag_14:\n        /* \"solidity-study/solidity-1base/2/2.2/UintDemo.sol\":584:589  uint8 */\n      0x00\n        /* \"solidity-study/solidity-1base/2/2.2/UintDemo.sol\":601:608  uint8 x */\n      dup1\n        /* \"solidity-study/solidity-1base/2/2.2/UintDemo.sol\":611:612  1 */\n      0x01\n        /* \"solidity-study/solidity-1base/2/2.2/UintDemo.sol\":601:612  uint8 x = 1 */\n      swap1\n      pop\n        /* \"solidity-study/solidity-1base/2/2.2/UintDemo.sol\":623:630  uint8 y */\n      0x00\n        /* \"solidity-study/solidity-1base/2/2.2/UintDemo.sol\":633:634  2 */\n      0x02\n        /* \"solidity-study/solidity-1base/2/2.2/UintDemo.sol\":623:634  uint8 y = 2 */\n      swap1\n      pop\n        /* \"solidity-study/solidity-1base/2/2.2/UintDemo.sol\":645:651  uint z */\n      0x00\n        /* \"solidity-study/solidity-1base/2/2.2/UintDemo.sol\":656:657  y */\n      dup2\n        /* \"solidity-study/solidity-1base/2/2.2/UintDemo.sol\":654:655  x */\n      dup4\n        /* \"solidity-study/solidity-1base/2/2.2/UintDemo.sol\":654:657  x-y */\n      tag_23\n      swap2\n      swap1\n      tag_24\n      jump\t// in\n    tag_23:\n        /* \"solidity-study/solidity-1base/2/2.2/UintDemo.sol\":645:657  uint z = x-y */\n      0xff\n      and\n      swap1\n      pop\n        /* \"solidity-study/solidity-1base/2/2.2/UintDemo.sol\":681:682  0 */\n      0x00\n        /* \"solidity-study/solidity-1base/2/2.2/UintDemo.sol\":676:677  z */\n      dup2\n        /* \"solidity-study/solidity-1base/2/2.2/UintDemo.sol\":676:682  z >= 0 */\n      lt\n      iszero\n        /* \"solidity-study/solidity-1base/2/2.2/UintDemo.sol\":668:694  require(z >= 0,\"rollback\") */\n      tag_25\n      jumpi\n      mload(0x40)\n      0x08c379a000000000000000000000000000000000000000000000000000000000\n      dup2\n      mstore\n      0x04\n      add\n      tag_26\n      swap1\n      tag_27\n      jump\t// in\n    tag_26:\n      mload(0x40)\n      dup1\n      swap2\n      sub\n      swap1\n      revert\n    tag_25:\n        /* \"solidity-study/solidity-1base/2/2.2/UintDemo.sol\":714:715  y */\n      dup2\n        /* \"solidity-study/solidity-1base/2/2.2/UintDemo.sol\":712:713  x */\n      dup4\n        /* \"solidity-study/solidity-1base/2/2.2/UintDemo.sol\":712:715  x-y */\n      tag_28\n      swap2\n      swap1\n      tag_24\n      jump\t// in\n    tag_28:\n        /* \"solidity-study/solidity-1base/2/2.2/UintDemo.sol\":705:715  return x-y */\n      swap4\n      pop\n      pop\n      pop\n      pop\n        /* \"solidity-study/solidity-1base/2/2.2/UintDemo.sol\":548:738  function add3() public pure returns(uint8){... */\n      swap1\n      jump\t// out\n        /* \"#utility.yul\":7:93   */\n    tag_29:\n        /* \"#utility.yul\":42:49   */\n      0x00\n        /* \"#utility.yul\":82:86   */\n      0xff\n        /* \"#utility.yul\":75:80   */\n      dup3\n        /* \"#utility.yul\":71:87   */\n      and\n        /* \"#utility.yul\":60:87   */\n      swap1\n      pop\n        /* \"#utility.yul\":7:93   */\n      swap2\n      swap1\n      pop\n      jump\t// out\n        /* \"#utility.yul\":99:211   */\n    tag_30:\n        /* \"#utility.yul\":182:204   */\n      tag_38\n        /* \"#utility.yul\":198:203   */\n      dup2\n        /* \"#utility.yul\":182:204   */\n      tag_29\n      jump\t// in\n    tag_38:\n        /* \"#utility.yul\":177:180   */\n      dup3\n        /* \"#utility.yul\":170:205   */\n      mstore\n        /* \"#utility.yul\":99:211   */\n      pop\n      pop\n      jump\t// out\n        /* \"#utility.yul\":217:431   */\n    tag_9:\n        /* \"#utility.yul\":306:310   */\n      0x00\n        /* \"#utility.yul\":344:346   */\n      0x20\n        /* \"#utility.yul\":333:342   */\n      dup3\n        /* \"#utility.yul\":329:347   */\n      add\n        /* \"#utility.yul\":321:347   */\n      swap1\n      pop\n        /* \"#utility.yul\":357:424   */\n      tag_40\n        /* \"#utility.yul\":421:422   */\n      0x00\n        /* \"#utility.yul\":410:419   */\n      dup4\n        /* \"#utility.yul\":406:423   */\n      add\n        /* \"#utility.yul\":397:403   */\n      dup5\n        /* \"#utility.yul\":357:424   */\n      tag_30\n      jump\t// in\n    tag_40:\n        /* \"#utility.yul\":217:431   */\n      swap3\n      swap2\n      pop\n      pop\n      jump\t// out\n        /* \"#utility.yul\":437:617   */\n    tag_31:\n        /* \"#utility.yul\":485:562   */\n      0x4e487b7100000000000000000000000000000000000000000000000000000000\n        /* \"#utility.yul\":482:483   */\n      0x00\n        /* \"#utility.yul\":475:563   */\n      mstore\n        /* \"#utility.yul\":582:586   */\n      0x11\n        /* \"#utility.yul\":579:580   */\n      0x04\n        /* \"#utility.yul\":572:587   */\n      mstore\n        /* \"#utility.yul\":606:610   */\n      0x24\n        /* \"#utility.yul\":603:604   */\n      0x00\n        /* \"#utility.yul\":596:611   */\n      revert\n        /* \"#utility.yul\":623:894   */\n    tag_18:\n        /* \"#utility.yul\":661:668   */\n      0x00\n        /* \"#utility.yul\":684:702   */\n      tag_43\n        /* \"#utility.yul\":700:701   */\n      dup3\n        /* \"#utility.yul\":684:702   */\n      tag_29\n      jump\t// in\n    tag_43:\n        /* \"#utility.yul\":679:702   */\n      swap2\n      pop\n        /* \"#utility.yul\":716:734   */\n      tag_44\n        /* \"#utility.yul\":732:733   */\n      dup4\n        /* \"#utility.yul\":716:734   */\n      tag_29\n      jump\t// in\n    tag_44:\n        /* \"#utility.yul\":711:734   */\n      swap3\n      pop\n        /* \"#utility.yul\":769:770   */\n      dup3\n        /* \"#utility.yul\":766:767   */\n      dup3\n        /* \"#utility.yul\":762:771   */\n      mul\n        /* \"#utility.yul\":791:819   */\n      tag_45\n        /* \"#utility.yul\":807:818   */\n      dup2\n        /* \"#utility.yul\":791:819   */\n      tag_29\n      jump\t// in\n    tag_45:\n        /* \"#utility.yul\":780:819   */\n      swap2\n      pop\n        /* \"#utility.yul\":851:862   */\n      dup1\n        /* \"#utility.yul\":842:849   */\n      dup3\n        /* \"#utility.yul\":839:863   */\n      eq\n        /* \"#utility.yul\":829:887   */\n      tag_46\n      jumpi\n        /* \"#utility.yul\":867:885   */\n      tag_47\n      tag_31\n      jump\t// in\n    tag_47:\n        /* \"#utility.yul\":829:887   */\n    tag_46:\n        /* \"#utility.yul\":669:894   */\n      pop\n        /* \"#utility.yul\":623:894   */\n      swap3\n      swap2\n      pop\n      pop\n      jump\t// out\n        /* \"#utility.yul\":900:1088   */\n    tag_21:\n        /* \"#utility.yul\":938:941   */\n      0x00\n        /* \"#utility.yul\":957:975   */\n      tag_49\n        /* \"#utility.yul\":973:974   */\n      dup3\n        /* \"#utility.yul\":957:975   */\n      tag_29\n      jump\t// in\n    tag_49:\n        /* \"#utility.yul\":952:975   */\n      swap2\n      pop\n        /* \"#utility.yul\":989:1007   */\n      tag_50\n        /* \"#utility.yul\":1005:1006   */\n      dup4\n        /* \"#utility.yul\":989:1007   */\n      tag_29\n      jump\t// in\n    tag_50:\n        /* \"#utility.yul\":984:1007   */\n      swap3\n      pop\n        /* \"#utility.yul\":1030:1031   */\n      dup3\n        /* \"#utility.yul\":1027:1028   */\n      dup3\n        /* \"#utility.yul\":1023:1032   */\n      add\n        /* \"#utility.yul\":1016:1032   */\n      swap1\n      pop\n        /* \"#utility.yul\":1053:1057   */\n      0xff\n        /* \"#utility.yul\":1048:1051   */\n      dup2\n        /* \"#utility.yul\":1045:1058   */\n      gt\n        /* \"#utility.yul\":1042:1081   */\n      iszero\n      tag_51\n      jumpi\n        /* \"#utility.yul\":1061:1079   */\n      tag_52\n      tag_31\n      jump\t// in\n    tag_52:\n        /* \"#utility.yul\":1042:1081   */\n    tag_51:\n        /* \"#utility.yul\":900:1088   */\n      swap3\n      swap2\n      pop\n      pop\n      jump\t// out\n        /* \"#utility.yul\":1094:1285   */\n    tag_24:\n        /* \"#utility.yul\":1132:1136   */\n      0x00\n        /* \"#utility.yul\":1152:1170   */\n      tag_54\n        /* \"#utility.yul\":1168:1169   */\n      dup3\n        /* \"#utility.yul\":1152:1170   */\n      tag_29\n      jump\t// in\n    tag_54:\n        /* \"#utility.yul\":1147:1170   */\n      swap2\n      pop\n        /* \"#utility.yul\":1184:1202   */\n      tag_55\n        /* \"#utility.yul\":1200:1201   */\n      dup4\n        /* \"#utility.yul\":1184:1202   */\n      tag_29\n      jump\t// in\n    tag_55:\n        /* \"#utility.yul\":1179:1202   */\n      swap3\n      pop\n        /* \"#utility.yul\":1226:1227   */\n      dup3\n        /* \"#utility.yul\":1223:1224   */\n      dup3\n        /* \"#utility.yul\":1219:1228   */\n      sub\n        /* \"#utility.yul\":1211:1228   */\n      swap1\n      pop\n        /* \"#utility.yul\":1250:1254   */\n      0xff\n        /* \"#utility.yul\":1244:1248   */\n      dup2\n        /* \"#utility.yul\":1241:1255   */\n      gt\n        /* \"#utility.yul\":1238:1278   */\n      iszero\n      tag_56\n      jumpi\n        /* \"#utility.yul\":1258:1276   */\n      tag_57\n      tag_31\n      jump\t// in\n    tag_57:\n        /* \"#utility.yul\":1238:1278   */\n    tag_56:\n        /* \"#utility.yul\":1094:1285   */\n      swap3\n      swap2\n      pop\n      pop\n      jump\t// out\n        /* \"#utility.yul\":1291:1460   */\n    tag_32:\n        /* \"#utility.yul\":1375:1386   */\n      0x00\n        /* \"#utility.yul\":1409:1415   */\n      dup3\n        /* \"#utility.yul\":1404:1407   */\n      dup3\n        /* \"#utility.yul\":1397:1416   */\n      mstore\n        /* \"#utility.yul\":1449:1453   */\n      0x20\n        /* \"#utility.yul\":1444:1447   */\n      dup3\n        /* \"#utility.yul\":1440:1454   */\n      add\n        /* \"#utility.yul\":1425:1454   */\n      swap1\n      pop\n        /* \"#utility.yul\":1291:1460   */\n      swap3\n      swap2\n      pop\n      pop\n      jump\t// out\n        /* \"#utility.yul\":1466:1624   */\n    tag_33:\n        /* \"#utility.yul\":1606:1616   */\n      0x726f6c6c6261636b000000000000000000000000000000000000000000000000\n        /* \"#utility.yul\":1602:1603   */\n      0x00\n        /* \"#utility.yul\":1594:1600   */\n      dup3\n        /* \"#utility.yul\":1590:1604   */\n      add\n        /* \"#utility.yul\":1583:1617   */\n      mstore\n        /* \"#utility.yul\":1466:1624   */\n      pop\n      jump\t// out\n        /* \"#utility.yul\":1630:1995   */\n    tag_34:\n        /* \"#utility.yul\":1772:1775   */\n      0x00\n        /* \"#utility.yul\":1793:1859   */\n      tag_61\n        /* \"#utility.yul\":1857:1858   */\n      0x08\n        /* \"#utility.yul\":1852:1855   */\n      dup4\n        /* \"#utility.yul\":1793:1859   */\n      tag_32\n      jump\t// in\n    tag_61:\n        /* \"#utility.yul\":1786:1859   */\n      swap2\n      pop\n        /* \"#utility.yul\":1868:1961   */\n      tag_62\n        /* \"#utility.yul\":1957:1960   */\n      dup3\n        /* \"#utility.yul\":1868:1961   */\n      tag_33\n      jump\t// in\n    tag_62:\n        /* \"#utility.yul\":1986:1988   */\n      0x20\n        /* \"#utility.yul\":1981:1984   */\n      dup3\n        /* \"#utility.yul\":1977:1989   */\n      add\n        /* \"#utility.yul\":1970:1989   */\n      swap1\n      pop\n        /* \"#utility.yul\":1630:1995   */\n      swap2\n      swap1\n      pop\n      jump\t// out\n        /* \"#utility.yul\":2001:2420   */\n    tag_27:\n        /* \"#utility.yul\":2167:2171   */\n      0x00\n        /* \"#utility.yul\":2205:2207   */\n      0x20\n        /* \"#utility.yul\":2194:2203   */\n      dup3\n        /* \"#utility.yul\":2190:2208   */\n      add\n        /* \"#utility.yul\":2182:2208   */\n      swap1\n      pop\n        /* \"#utility.yul\":2254:2263   */\n      dup2\n        /* \"#utility.yul\":2248:2252   */\n      dup2\n        /* \"#utility.yul\":2244:2264   */\n      sub\n        /* \"#utility.yul\":2240:2241   */\n      0x00\n        /* \"#utility.yul\":2229:2238   */\n      dup4\n        /* \"#utility.yul\":2225:2242   */\n      add\n        /* \"#utility.yul\":2218:2265   */\n      mstore\n        /* \"#utility.yul\":2282:2413   */\n      tag_64\n        /* \"#utility.yul\":2408:2412   */\n      dup2\n        /* \"#utility.yul\":2282:2413   */\n      tag_34\n      jump\t// in\n    tag_64:\n        /* \"#utility.yul\":2274:2413   */\n      swap1\n      pop\n        /* \"#utility.yul\":2001:2420   */\n      swap2\n      swap1\n      pop\n      jump\t// out\n\n    auxdata: 0xa2646970667358221220ad7f383477b3c908f7448f4b14e92bc9b539a1a63604291f373543156598536f64736f6c634300081a0033\n}\n",
				"bytecode": {
					"linkReferences": {},
					"object": "6080604052348015600e575f80fd5b506102ff8061001c5f395ff3fe608060405234801561000f575f80fd5b506004361061003e575f3560e01c806235921a146100425780636c1f222f1461006057806392735f4a1461007e575b5f80fd5b61004a61009c565b6040516100579190610167565b60405180910390f35b6100686100ba565b6040516100759190610167565b60405180910390f35b6100866100d8565b6040516100939190610167565b60405180910390f35b5f80608090505f6002905080826100b391906101ad565b9250505090565b5f80608c90505f6074905080826100d191906101e9565b9250505090565b5f80600190505f600290505f81836100f0919061021d565b60ff1690505f811015610138576040517f08c379a000000000000000000000000000000000000000000000000000000000815260040161012f906102ab565b60405180910390fd5b8183610144919061021d565b935050505090565b5f60ff82169050919050565b6101618161014c565b82525050565b5f60208201905061017a5f830184610158565b92915050565b7f4e487b71000000000000000000000000000000000000000000000000000000005f52601160045260245ffd5b5f6101b78261014c565b91506101c28361014c565b92508282026101d08161014c565b91508082146101e2576101e1610180565b5b5092915050565b5f6101f38261014c565b91506101fe8361014c565b9250828201905060ff81111561021757610216610180565b5b92915050565b5f6102278261014c565b91506102328361014c565b9250828203905060ff81111561024b5761024a610180565b5b92915050565b5f82825260208201905092915050565b7f726f6c6c6261636b0000000000000000000000000000000000000000000000005f82015250565b5f610295600883610251565b91506102a082610261565b602082019050919050565b5f6020820190508181035f8301526102c281610289565b905091905056fea2646970667358221220ad7f383477b3c908f7448f4b14e92bc9b539a1a63604291f373543156598536f64736f6c634300081a0033",
					"opcodes": "PUSH1 0x80 PUSH1 0x40 MSTORE CALLVALUE DUP1 ISZERO PUSH1 0xE JUMPI PUSH0 DUP1 REVERT JUMPDEST POP PUSH2 0x2FF DUP1 PUSH2 0x1C PUSH0 CODECOPY PUSH0 RETURN INVALID PUSH1 0x80 PUSH1 0x40 MSTORE CALLVALUE DUP1 ISZERO PUSH2 0xF JUMPI PUSH0 DUP1 REVERT JUMPDEST POP PUSH1 0x4 CALLDATASIZE LT PUSH2 0x3E JUMPI PUSH0 CALLDATALOAD PUSH1 0xE0 SHR DUP1 PUSH3 0x35921A EQ PUSH2 0x42 JUMPI DUP1 PUSH4 0x6C1F222F EQ PUSH2 0x60 JUMPI DUP1 PUSH4 0x92735F4A EQ PUSH2 0x7E JUMPI JUMPDEST PUSH0 DUP1 REVERT JUMPDEST PUSH2 0x4A PUSH2 0x9C JUMP JUMPDEST PUSH1 0x40 MLOAD PUSH2 0x57 SWAP2 SWAP1 PUSH2 0x167 JUMP JUMPDEST PUSH1 0x40 MLOAD DUP1 SWAP2 SUB SWAP1 RETURN JUMPDEST PUSH2 0x68 PUSH2 0xBA JUMP JUMPDEST PUSH1 0x40 MLOAD PUSH2 0x75 SWAP2 SWAP1 PUSH2 0x167 JUMP JUMPDEST PUSH1 0x40 MLOAD DUP1 SWAP2 SUB SWAP1 RETURN JUMPDEST PUSH2 0x86 PUSH2 0xD8 JUMP JUMPDEST PUSH1 0x40 MLOAD PUSH2 0x93 SWAP2 SWAP1 PUSH2 0x167 JUMP JUMPDEST PUSH1 0x40 MLOAD DUP1 SWAP2 SUB SWAP1 RETURN JUMPDEST PUSH0 DUP1 PUSH1 0x80 SWAP1 POP PUSH0 PUSH1 0x2 SWAP1 POP DUP1 DUP3 PUSH2 0xB3 SWAP2 SWAP1 PUSH2 0x1AD JUMP JUMPDEST SWAP3 POP POP POP SWAP1 JUMP JUMPDEST PUSH0 DUP1 PUSH1 0x8C SWAP1 POP PUSH0 PUSH1 0x74 SWAP1 POP DUP1 DUP3 PUSH2 0xD1 SWAP2 SWAP1 PUSH2 0x1E9 JUMP JUMPDEST SWAP3 POP POP POP SWAP1 JUMP JUMPDEST PUSH0 DUP1 PUSH1 0x1 SWAP1 POP PUSH0 PUSH1 0x2 SWAP1 POP PUSH0 DUP2 DUP4 PUSH2 0xF0 SWAP2 SWAP1 PUSH2 0x21D JUMP JUMPDEST PUSH1 0xFF AND SWAP1 POP PUSH0 DUP2 LT ISZERO PUSH2 0x138 JUMPI PUSH1 0x40 MLOAD PUSH32 0x8C379A000000000000000000000000000000000000000000000000000000000 DUP2 MSTORE PUSH1 0x4 ADD PUSH2 0x12F SWAP1 PUSH2 0x2AB JUMP JUMPDEST PUSH1 0x40 MLOAD DUP1 SWAP2 SUB SWAP1 REVERT JUMPDEST DUP2 DUP4 PUSH2 0x144 SWAP2 SWAP1 PUSH2 0x21D JUMP JUMPDEST SWAP4 POP POP POP POP SWAP1 JUMP JUMPDEST PUSH0 PUSH1 0xFF DUP3 AND SWAP1 POP SWAP2 SWAP1 POP JUMP JUMPDEST PUSH2 0x161 DUP2 PUSH2 0x14C JUMP JUMPDEST DUP3 MSTORE POP POP JUMP JUMPDEST PUSH0 PUSH1 0x20 DUP3 ADD SWAP1 POP PUSH2 0x17A PUSH0 DUP4 ADD DUP5 PUSH2 0x158 JUMP JUMPDEST SWAP3 SWAP2 POP POP JUMP JUMPDEST PUSH32 0x4E487B7100000000000000000000000000000000000000000000000000000000 PUSH0 MSTORE PUSH1 0x11 PUSH1 0x4 MSTORE PUSH1 0x24 PUSH0 REVERT JUMPDEST PUSH0 PUSH2 0x1B7 DUP3 PUSH2 0x14C JUMP JUMPDEST SWAP2 POP PUSH2 0x1C2 DUP4 PUSH2 0x14C JUMP JUMPDEST SWAP3 POP DUP3 DUP3 MUL PUSH2 0x1D0 DUP2 PUSH2 0x14C JUMP JUMPDEST SWAP2 POP DUP1 DUP3 EQ PUSH2 0x1E2 JUMPI PUSH2 0x1E1 PUSH2 0x180 JUMP JUMPDEST JUMPDEST POP SWAP3 SWAP2 POP POP JUMP JUMPDEST PUSH0 PUSH2 0x1F3 DUP3 PUSH2 0x14C JUMP JUMPDEST SWAP2 POP PUSH2 0x1FE DUP4 PUSH2 0x14C JUMP JUMPDEST SWAP3 POP DUP3 DUP3 ADD SWAP1 POP PUSH1 0xFF DUP2 GT ISZERO PUSH2 0x217 JUMPI PUSH2 0x216 PUSH2 0x180 JUMP JUMPDEST JUMPDEST SWAP3 SWAP2 POP POP JUMP JUMPDEST PUSH0 PUSH2 0x227 DUP3 PUSH2 0x14C JUMP JUMPDEST SWAP2 POP PUSH2 0x232 DUP4 PUSH2 0x14C JUMP JUMPDEST SWAP3 POP DUP3 DUP3 SUB SWAP1 POP PUSH1 0xFF DUP2 GT ISZERO PUSH2 0x24B JUMPI PUSH2 0x24A PUSH2 0x180 JUMP JUMPDEST JUMPDEST SWAP3 SWAP2 POP POP JUMP JUMPDEST PUSH0 DUP3 DUP3 MSTORE PUSH1 0x20 DUP3 ADD SWAP1 POP SWAP3 SWAP2 POP POP JUMP JUMPDEST PUSH32 0x726F6C6C6261636B000000000000000000000000000000000000000000000000 PUSH0 DUP3 ADD MSTORE POP JUMP JUMPDEST PUSH0 PUSH2 0x295 PUSH1 0x8 DUP4 PUSH2 0x251 JUMP JUMPDEST SWAP2 POP PUSH2 0x2A0 DUP3 PUSH2 0x261 JUMP JUMPDEST PUSH1 0x20 DUP3 ADD SWAP1 POP SWAP2 SWAP1 POP JUMP JUMPDEST PUSH0 PUSH1 0x20 DUP3 ADD SWAP1 POP DUP2 DUP2 SUB PUSH0 DUP4 ADD MSTORE PUSH2 0x2C2 DUP2 PUSH2 0x289 JUMP JUMPDEST SWAP1 POP SWAP2 SWAP1 POP JUMP INVALID LOG2 PUSH5 0x6970667358 0x22 SLT KECCAK256 0xAD PUSH32 0x383477B3C908F7448F4B14E92BC9B539A1A63604291F373543156598536F6473 PUSH16 0x6C634300081A00330000000000000000 "
				},
				"gasEstimates": {
					"creation": {
						"codeDepositCost": "153400",
						"executionCost": "194",
						"totalCost": "153594"
					},
					"external": {
						"add1()": "infinite",
						"add2()": "infinite",
						"add3()": "infinite"
					}
				},
				"methodIdentifiers": {
					"add1()": "0035921a",
					"add2()": "6c1f222f",
					"add3()": "92735f4a"
				}
			},
			"storageLayout": {
				"storage": [],
				"types": null
			},
			"userdoc": {
				"kind": "user",
				"methods": {},
				"version": 1
			}
		}
	}
}