{
	"data": {
		"bytecode": {
			"linkReferences": {},
			"object": "6080604052348015600e575f80fd5b506102ff8061001c5f395ff3fe608060405234801561000f575f80fd5b506004361061003e575f3560e01c806235921a146100425780636c1f222f1461006057806392735f4a1461007e575b5f80fd5b61004a61009c565b6040516100579190610167565b60405180910390f35b6100686100ba565b6040516100759190610167565b60405180910390f35b6100866100d8565b6040516100939190610167565b60405180910390f35b5f80608090505f6002905080826100b391906101ad565b9250505090565b5f80608c90505f6074905080826100d191906101e9565b9250505090565b5f80600190505f600290505f81836100f0919061021d565b60ff1690505f811015610138576040517f08c379a000000000000000000000000000000000000000000000000000000000815260040161012f906102ab565b60405180910390fd5b8183610144919061021d565b935050505090565b5f60ff82169050919050565b6101618161014c565b82525050565b5f60208201905061017a5f830184610158565b92915050565b7f4e487b71000000000000000000000000000000000000000000000000000000005f52601160045260245ffd5b5f6101b78261014c565b91506101c28361014c565b92508282026101d08161014c565b91508082146101e2576101e1610180565b5b5092915050565b5f6101f38261014c565b91506101fe8361014c565b9250828201905060ff81111561021757610216610180565b5b92915050565b5f6102278261014c565b91506102328361014c565b9250828203905060ff81111561024b5761024a610180565b5b92915050565b5f82825260208201905092915050565b7f726f6c6c6261636b0000000000000000000000000000000000000000000000005f82015250565b5f610295600883610251565b91506102a082610261565b602082019050919050565b5f6020820190508181035f8301526102c281610289565b905091905056fea2646970667358221220ad7f383477b3c908f7448f4b14e92bc9b539a1a63604291f373543156598536f64736f6c634300081a0033",
			"opcodes": "PUSH1 0x80 PUSH1 0x40 MSTORE CALLVALUE DUP1 ISZERO PUSH1 0xE JUMPI PUSH0 DUP1 REVERT JUMPDEST POP PUSH2 0x2FF DUP1 PUSH2 0x1C PUSH0 CODECOPY PUSH0 RETURN INVALID PUSH1 0x80 PUSH1 0x40 MSTORE CALLVALUE DUP1 ISZERO PUSH2 0xF JUMPI PUSH0 DUP1 REVERT JUMPDEST POP PUSH1 0x4 CALLDATASIZE LT PUSH2 0x3E JUMPI PUSH0 CALLDATALOAD PUSH1 0xE0 SHR DUP1 PUSH3 0x35921A EQ PUSH2 0x42 JUMPI DUP1 PUSH4 0x6C1F222F EQ PUSH2 0x60 JUMPI DUP1 PUSH4 0x92735F4A EQ PUSH2 0x7E JUMPI JUMPDEST PUSH0 DUP1 REVERT JUMPDEST PUSH2 0x4A PUSH2 0x9C JUMP JUMPDEST PUSH1 0x40 MLOAD PUSH2 0x57 SWAP2 SWAP1 PUSH2 0x167 JUMP JUMPDEST PUSH1 0x40 MLOAD DUP1 SWAP2 SUB SWAP1 RETURN JUMPDEST PUSH2 0x68 PUSH2 0xBA JUMP JUMPDEST PUSH1 0x40 MLOAD PUSH2 0x75 SWAP2 SWAP1 PUSH2 0x167 JUMP JUMPDEST PUSH1 0x40 MLOAD DUP1 SWAP2 SUB SWAP1 RETURN JUMPDEST PUSH2 0x86 PUSH2 0xD8 JUMP JUMPDEST PUSH1 0x40 MLOAD PUSH2 0x93 SWAP2 SWAP1 PUSH2 0x167 JUMP JUMPDEST PUSH1 0x40 MLOAD DUP1 SWAP2 SUB SWAP1 RETURN JUMPDEST PUSH0 DUP1 PUSH1 0x80 SWAP1 POP PUSH0 PUSH1 0x2 SWAP1 POP DUP1 DUP3 PUSH2 0xB3 SWAP2 SWAP1 PUSH2 0x1AD JUMP JUMPDEST SWAP3 POP POP POP SWAP1 JUMP JUMPDEST PUSH0 DUP1 PUSH1 0x8C SWAP1 POP PUSH0 PUSH1 0x74 SWAP1 POP DUP1 DUP3 PUSH2 0xD1 SWAP2 SWAP1 PUSH2 0x1E9 JUMP JUMPDEST SWAP3 POP POP POP SWAP1 JUMP JUMPDEST PUSH0 DUP1 PUSH1 0x1 SWAP1 POP PUSH0 PUSH1 0x2 SWAP1 POP PUSH0 DUP2 DUP4 PUSH2 0xF0 SWAP2 SWAP1 PUSH2 0x21D JUMP JUMPDEST PUSH1 0xFF AND SWAP1 POP PUSH0 DUP2 LT ISZERO PUSH2 0x138 JUMPI PUSH1 0x40 MLOAD PUSH32 0x8C379A000000000000000000000000000000000000000000000000000000000 DUP2 MSTORE PUSH1 0x4 ADD PUSH2 0x12F SWAP1 PUSH2 0x2AB JUMP JUMPDEST PUSH1 0x40 MLOAD DUP1 SWAP2 SUB SWAP1 REVERT JUMPDEST DUP2 DUP4 PUSH2 0x144 SWAP2 SWAP1 PUSH2 0x21D JUMP JUMPDEST SWAP4 POP POP POP POP SWAP1 JUMP JUMPDEST PUSH0 PUSH1 0xFF DUP3 AND SWAP1 POP SWAP2 SWAP1 POP JUMP JUMPDEST PUSH2 0x161 DUP2 PUSH2 0x14C JUMP JUMPDEST DUP3 MSTORE POP POP JUMP JUMPDEST PUSH0 PUSH1 0x20 DUP3 ADD SWAP1 POP PUSH2 0x17A PUSH0 DUP4 ADD DUP5 PUSH2 0x158 JUMP JUMPDEST SWAP3 SWAP2 POP POP JUMP JUMPDEST PUSH32 0x4E487B7100000000000000000000000000000000000000000000000000000000 PUSH0 MSTORE PUSH1 0x11 PUSH1 0x4 MSTORE PUSH1 0x24 PUSH0 REVERT JUMPDEST PUSH0 PUSH2 0x1B7 DUP3 PUSH2 0x14C JUMP JUMPDEST SWAP2 POP PUSH2 0x1C2 DUP4 PUSH2 0x14C JUMP JUMPDEST SWAP3 POP DUP3 DUP3 MUL PUSH2 0x1D0 DUP2 PUSH2 0x14C JUMP JUMPDEST SWAP2 POP DUP1 DUP3 EQ PUSH2 0x1E2 JUMPI PUSH2 0x1E1 PUSH2 0x180 JUMP JUMPDEST JUMPDEST POP SWAP3 SWAP2 POP POP JUMP JUMPDEST PUSH0 PUSH2 0x1F3 DUP3 PUSH2 0x14C JUMP JUMPDEST SWAP2 POP PUSH2 0x1FE DUP4 PUSH2 0x14C JUMP JUMPDEST SWAP3 POP DUP3 DUP3 ADD SWAP1 POP PUSH1 0xFF DUP2 GT ISZERO PUSH2 0x217 JUMPI PUSH2 0x216 PUSH2 0x180 JUMP JUMPDEST JUMPDEST SWAP3 SWAP2 POP POP JUMP JUMPDEST PUSH0 PUSH2 0x227 DUP3 PUSH2 0x14C JUMP JUMPDEST SWAP2 POP PUSH2 0x232 DUP4 PUSH2 0x14C JUMP JUMPDEST SWAP3 POP DUP3 DUP3 SUB SWAP1 POP PUSH1 0xFF DUP2 GT ISZERO PUSH2 0x24B JUMPI PUSH2 0x24A PUSH2 0x180 JUMP JUMPDEST JUMPDEST SWAP3 SWAP2 POP POP JUMP JUMPDEST PUSH0 DUP3 DUP3 MSTORE PUSH1 0x20 DUP3 ADD SWAP1 POP SWAP3 SWAP2 POP POP JUMP JUMPDEST PUSH32 0x726F6C6C6261636B000000000000000000000000000000000000000000000000 PUSH0 DUP3 ADD MSTORE POP JUMP JUMPDEST PUSH0 PUSH2 0x295 PUSH1 0x8 DUP4 PUSH2 0x251 JUMP JUMPDEST SWAP2 POP PUSH2 0x2A0 DUP3 PUSH2 0x261 JUMP JUMPDEST PUSH1 0x20 DUP3 ADD SWAP1 POP SWAP2 SWAP1 POP JUMP JUMPDEST PUSH0 PUSH1 0x20 DUP3 ADD SWAP1 POP DUP2 DUP2 SUB PUSH0 DUP4 ADD MSTORE PUSH2 0x2C2 DUP2 PUSH2 0x289 JUMP JUMPDEST SWAP1 POP SWAP2 SWAP1 POP JUMP INVALID LOG2 PUSH5 0x6970667358 0x22 SLT KECCAK256 0xAD PUSH32 0x383477B3C908F7448F4B14E92BC9B539A1A63604291F373543156598536F6473 PUSH16 0x6C634300081A00330000000000000000 "
		},
		"gasEstimates": {
			"creation": {
				"codeDepositCost": "153400",
				"executionCost": "194",
				"totalCost": "153594"
			},
			"external": {
				"add1()": "infinite",
				"add2()": "infinite",
				"add3()": "infinite"
			}
		},
		"methodIdentifiers": {
			"add1()": "0035921a",
			"add2()": "6c1f222f",
			"add3()": "92735f4a"
		}
	},
	"abi": [
		{
			"inputs": [],
			"name": "add1",
			"outputs": [
				{
					"internalType": "uint8",
					"name": "",
					"type": "uint8"
				}
			],
			"stateMutability": "pure",
			"type": "function"
		},
		{
			"inputs": [],
			"name": "add2",
			"outputs": [
				{
					"internalType": "uint8",
					"name": "",
					"type": "uint8"
				}
			],
			"stateMutability": "pure",
			"type": "function"
		},
		{
			"inputs": [],
			"name": "add3",
			"outputs": [
				{
					"internalType": "uint8",
					"name": "",
					"type": "uint8"
				}
			],
			"stateMutability": "pure",
			"type": "function"
		}
	]
}