{
	"solidity-1base/9/Demo.sol": {
		"Demo": {
			"abi": [
				{
					"inputs": [
						{
							"internalType": "uint256",
							"name": "num",
							"type": "uint256"
						}
					],
					"name": "addStock",
					"outputs": [],
					"stateMutability": "nonpayable",
					"type": "function"
				},
				{
					"inputs": [],
					"name": "getDetail",
					"outputs": [
						{
							"internalType": "string",
							"name": "",
							"type": "string"
						},
						{
							"internalType": "uint256",
							"name": "",
							"type": "uint256"
						},
						{
							"internalType": "uint256",
							"name": "",
							"type": "uint256"
						},
						{
							"internalType": "uint256",
							"name": "",
							"type": "uint256"
						}
					],
					"stateMutability": "view",
					"type": "function"
				},
				{
					"inputs": [
						{
							"internalType": "uint256",
							"name": "_price",
							"type": "uint256"
						}
					],
					"name": "updatePrice",
					"outputs": [],
					"stateMutability": "nonpayable",
					"type": "function"
				}
			],
			"devdoc": {
				"kind": "dev",
				"methods": {},
				"version": 1
			},
			"evm": {
				"assembly": "    /* \"solidity-1base/9/Demo.sol\":62:817  contract Demo{... */\n  mstore(0x40, 0x80)\n  callvalue\n  dup1\n  iszero\n  tag_1\n  jumpi\n  0x00\n  dup1\n  revert\ntag_1:\n  pop\n  dataSize(sub_0)\n  dup1\n  dataOffset(sub_0)\n  0x00\n  codecopy\n  0x00\n  return\nstop\n\nsub_0: assembly {\n        /* \"solidity-1base/9/Demo.sol\":62:817  contract Demo{... */\n      mstore(0x40, 0x80)\n      callvalue\n      dup1\n      iszero\n      tag_1\n      jumpi\n      0x00\n      dup1\n      revert\n    tag_1:\n      pop\n      jumpi(tag_2, lt(calldatasize, 0x04))\n      shr(0xe0, calldataload(0x00))\n      dup1\n      0x3d650626\n      eq\n      tag_3\n      jumpi\n      dup1\n      0x5b2a4cff\n      eq\n      tag_4\n      jumpi\n      dup1\n      0x8d6cc56d\n      eq\n      tag_5\n      jumpi\n    tag_2:\n      0x00\n      dup1\n      revert\n        /* \"solidity-1base/9/Demo.sol\":270:403  function addStock(uint num) public {... */\n    tag_3:\n      tag_6\n      0x04\n      dup1\n      calldatasize\n      sub\n      dup2\n      add\n      swap1\n      tag_7\n      swap2\n      swap1\n      tag_8\n      jump\t// in\n    tag_7:\n      tag_9\n      jump\t// in\n    tag_6:\n      stop\n        /* \"solidity-1base/9/Demo.sol\":596:814  function getDetail() public view returns(string memory , uint , uint  , uint ){... */\n    tag_4:\n      tag_10\n      tag_11\n      jump\t// in\n    tag_10:\n      mload(0x40)\n      tag_12\n      swap5\n      swap4\n      swap3\n      swap2\n      swap1\n      tag_13\n      jump\t// in\n    tag_12:\n      mload(0x40)\n      dup1\n      swap2\n      sub\n      swap1\n      return\n        /* \"solidity-1base/9/Demo.sol\":428:569  function updatePrice(uint _price) public {... */\n    tag_5:\n      tag_14\n      0x04\n      dup1\n      calldatasize\n      sub\n      dup2\n      add\n      swap1\n      tag_15\n      swap2\n      swap1\n      tag_8\n      jump\t// in\n    tag_15:\n      tag_16\n      jump\t// in\n    tag_14:\n      stop\n        /* \"solidity-1base/9/Demo.sol\":270:403  function addStock(uint num) public {... */\n    tag_9:\n        /* \"solidity-1base/9/Demo.sol\":316:339  Product storage product */\n      0x00\n        /* \"solidity-1base/9/Demo.sol\":342:352  productMap */\n      dup1\n        /* \"solidity-1base/9/Demo.sol\":342:364  productMap[msg.sender] */\n      0x00\n        /* \"solidity-1base/9/Demo.sol\":353:363  msg.sender */\n      caller\n        /* \"solidity-1base/9/Demo.sol\":342:364  productMap[msg.sender] */\n      0xffffffffffffffffffffffffffffffffffffffff\n      and\n      0xffffffffffffffffffffffffffffffffffffffff\n      and\n      dup2\n      mstore\n      0x20\n      add\n      swap1\n      dup2\n      mstore\n      0x20\n      add\n      0x00\n      keccak256\n        /* \"solidity-1base/9/Demo.sol\":316:364  Product storage product = productMap[msg.sender] */\n      swap1\n      pop\n        /* \"solidity-1base/9/Demo.sol\":392:395  num */\n      dup2\n        /* \"solidity-1base/9/Demo.sol\":375:382  product */\n      dup2\n        /* \"solidity-1base/9/Demo.sol\":375:388  product.stock */\n      0x03\n      add\n      0x00\n        /* \"solidity-1base/9/Demo.sol\":375:395  product.stock += num */\n      dup3\n      dup3\n      sload\n      tag_18\n      swap2\n      swap1\n      tag_19\n      jump\t// in\n    tag_18:\n      swap3\n      pop\n      pop\n      dup2\n      swap1\n      sstore\n      pop\n        /* \"solidity-1base/9/Demo.sol\":305:403  {... */\n      pop\n        /* \"solidity-1base/9/Demo.sol\":270:403  function addStock(uint num) public {... */\n      pop\n      jump\t// out\n        /* \"solidity-1base/9/Demo.sol\":596:814  function getDetail() public view returns(string memory , uint , uint  , uint ){... */\n    tag_11:\n        /* \"solidity-1base/9/Demo.sol\":637:650  string memory */\n      0x60\n        /* \"solidity-1base/9/Demo.sol\":653:657  uint */\n      0x00\n        /* \"solidity-1base/9/Demo.sol\":660:664  uint */\n      dup1\n        /* \"solidity-1base/9/Demo.sol\":668:672  uint */\n      0x00\n        /* \"solidity-1base/9/Demo.sol\":685:708  Product storage product */\n      dup1\n        /* \"solidity-1base/9/Demo.sol\":711:721  productMap */\n      0x00\n        /* \"solidity-1base/9/Demo.sol\":711:733  productMap[msg.sender] */\n      dup1\n        /* \"solidity-1base/9/Demo.sol\":722:732  msg.sender */\n      caller\n        /* \"solidity-1base/9/Demo.sol\":711:733  productMap[msg.sender] */\n      0xffffffffffffffffffffffffffffffffffffffff\n      and\n      0xffffffffffffffffffffffffffffffffffffffff\n      and\n      dup2\n      mstore\n      0x20\n      add\n      swap1\n      dup2\n      mstore\n      0x20\n      add\n      0x00\n      keccak256\n        /* \"solidity-1base/9/Demo.sol\":685:733  Product storage product = productMap[msg.sender] */\n      swap1\n      pop\n        /* \"solidity-1base/9/Demo.sol\":752:759  product */\n      dup1\n        /* \"solidity-1base/9/Demo.sol\":752:764  product.name */\n      0x00\n      add\n        /* \"solidity-1base/9/Demo.sol\":766:773  product */\n      dup2\n        /* \"solidity-1base/9/Demo.sol\":766:776  product.id */\n      0x01\n      add\n      sload\n        /* \"solidity-1base/9/Demo.sol\":778:785  product */\n      dup3\n        /* \"solidity-1base/9/Demo.sol\":778:791  product.price */\n      0x02\n      add\n      sload\n        /* \"solidity-1base/9/Demo.sol\":792:799  product */\n      dup4\n        /* \"solidity-1base/9/Demo.sol\":792:805  product.stock */\n      0x03\n      add\n      sload\n        /* \"solidity-1base/9/Demo.sol\":744:806  return (product.name, product.id, product.price,product.stock) */\n      dup4\n      dup1\n      sload\n      tag_21\n      swap1\n      tag_22\n      jump\t// in\n    tag_21:\n      dup1\n      0x1f\n      add\n      0x20\n      dup1\n      swap2\n      div\n      mul\n      0x20\n      add\n      mload(0x40)\n      swap1\n      dup2\n      add\n      0x40\n      mstore\n      dup1\n      swap3\n      swap2\n      swap1\n      dup2\n      dup2\n      mstore\n      0x20\n      add\n      dup3\n      dup1\n      sload\n      tag_23\n      swap1\n      tag_22\n      jump\t// in\n    tag_23:\n      dup1\n      iszero\n      tag_24\n      jumpi\n      dup1\n      0x1f\n      lt\n      tag_25\n      jumpi\n      0x0100\n      dup1\n      dup4\n      sload\n      div\n      mul\n      dup4\n      mstore\n      swap2\n      0x20\n      add\n      swap2\n      jump(tag_24)\n    tag_25:\n      dup3\n      add\n      swap2\n      swap1\n      0x00\n      mstore\n      keccak256(0x00, 0x20)\n      swap1\n    tag_26:\n      dup2\n      sload\n      dup2\n      mstore\n      swap1\n      0x01\n      add\n      swap1\n      0x20\n      add\n      dup1\n      dup4\n      gt\n      tag_26\n      jumpi\n      dup3\n      swap1\n      sub\n      0x1f\n      and\n      dup3\n      add\n      swap2\n    tag_24:\n      pop\n      pop\n      pop\n      pop\n      pop\n      swap4\n      pop\n      swap5\n      pop\n      swap5\n      pop\n      swap5\n      pop\n      swap5\n      pop\n      pop\n        /* \"solidity-1base/9/Demo.sol\":596:814  function getDetail() public view returns(string memory , uint , uint  , uint ){... */\n      swap1\n      swap2\n      swap3\n      swap4\n      jump\t// out\n        /* \"solidity-1base/9/Demo.sol\":428:569  function updatePrice(uint _price) public {... */\n    tag_16:\n        /* \"solidity-1base/9/Demo.sol\":480:503  Product storage product */\n      0x00\n        /* \"solidity-1base/9/Demo.sol\":506:516  productMap */\n      dup1\n        /* \"solidity-1base/9/Demo.sol\":506:528  productMap[msg.sender] */\n      0x00\n        /* \"solidity-1base/9/Demo.sol\":517:527  msg.sender */\n      caller\n        /* \"solidity-1base/9/Demo.sol\":506:528  productMap[msg.sender] */\n      0xffffffffffffffffffffffffffffffffffffffff\n      and\n      0xffffffffffffffffffffffffffffffffffffffff\n      and\n      dup2\n      mstore\n      0x20\n      add\n      swap1\n      dup2\n      mstore\n      0x20\n      add\n      0x00\n      keccak256\n        /* \"solidity-1base/9/Demo.sol\":480:528  Product storage product = productMap[msg.sender] */\n      swap1\n      pop\n        /* \"solidity-1base/9/Demo.sol\":555:561  _price */\n      dup2\n        /* \"solidity-1base/9/Demo.sol\":539:546  product */\n      dup2\n        /* \"solidity-1base/9/Demo.sol\":539:552  product.price */\n      0x02\n      add\n        /* \"solidity-1base/9/Demo.sol\":539:561  product.price = _price */\n      dup2\n      swap1\n      sstore\n      pop\n        /* \"solidity-1base/9/Demo.sol\":469:569  {... */\n      pop\n        /* \"solidity-1base/9/Demo.sol\":428:569  function updatePrice(uint _price) public {... */\n      pop\n      jump\t// out\n        /* \"#utility.yul\":88:205   */\n    tag_29:\n        /* \"#utility.yul\":197:198   */\n      0x00\n        /* \"#utility.yul\":194:195   */\n      dup1\n        /* \"#utility.yul\":187:199   */\n      revert\n        /* \"#utility.yul\":334:411   */\n    tag_31:\n        /* \"#utility.yul\":371:378   */\n      0x00\n        /* \"#utility.yul\":400:405   */\n      dup2\n        /* \"#utility.yul\":389:405   */\n      swap1\n      pop\n        /* \"#utility.yul\":334:411   */\n      swap2\n      swap1\n      pop\n      jump\t// out\n        /* \"#utility.yul\":417:539   */\n    tag_32:\n        /* \"#utility.yul\":490:514   */\n      tag_48\n        /* \"#utility.yul\":508:513   */\n      dup2\n        /* \"#utility.yul\":490:514   */\n      tag_31\n      jump\t// in\n    tag_48:\n        /* \"#utility.yul\":483:488   */\n      dup2\n        /* \"#utility.yul\":480:515   */\n      eq\n        /* \"#utility.yul\":470:533   */\n      tag_49\n      jumpi\n        /* \"#utility.yul\":529:530   */\n      0x00\n        /* \"#utility.yul\":526:527   */\n      dup1\n        /* \"#utility.yul\":519:531   */\n      revert\n        /* \"#utility.yul\":470:533   */\n    tag_49:\n        /* \"#utility.yul\":417:539   */\n      pop\n      jump\t// out\n        /* \"#utility.yul\":545:684   */\n    tag_33:\n        /* \"#utility.yul\":591:596   */\n      0x00\n        /* \"#utility.yul\":629:635   */\n      dup2\n        /* \"#utility.yul\":616:636   */\n      calldataload\n        /* \"#utility.yul\":607:636   */\n      swap1\n      pop\n        /* \"#utility.yul\":645:678   */\n      tag_51\n        /* \"#utility.yul\":672:677   */\n      dup2\n        /* \"#utility.yul\":645:678   */\n      tag_32\n      jump\t// in\n    tag_51:\n        /* \"#utility.yul\":545:684   */\n      swap3\n      swap2\n      pop\n      pop\n      jump\t// out\n        /* \"#utility.yul\":690:1019   */\n    tag_8:\n        /* \"#utility.yul\":749:755   */\n      0x00\n        /* \"#utility.yul\":798:800   */\n      0x20\n        /* \"#utility.yul\":786:795   */\n      dup3\n        /* \"#utility.yul\":777:784   */\n      dup5\n        /* \"#utility.yul\":773:796   */\n      sub\n        /* \"#utility.yul\":769:801   */\n      slt\n        /* \"#utility.yul\":766:885   */\n      iszero\n      tag_53\n      jumpi\n        /* \"#utility.yul\":804:883   */\n      tag_54\n      tag_29\n      jump\t// in\n    tag_54:\n        /* \"#utility.yul\":766:885   */\n    tag_53:\n        /* \"#utility.yul\":924:925   */\n      0x00\n        /* \"#utility.yul\":949:1002   */\n      tag_55\n        /* \"#utility.yul\":994:1001   */\n      dup5\n        /* \"#utility.yul\":985:991   */\n      dup3\n        /* \"#utility.yul\":974:983   */\n      dup6\n        /* \"#utility.yul\":970:992   */\n      add\n        /* \"#utility.yul\":949:1002   */\n      tag_33\n      jump\t// in\n    tag_55:\n        /* \"#utility.yul\":939:1002   */\n      swap2\n      pop\n        /* \"#utility.yul\":895:1012   */\n      pop\n        /* \"#utility.yul\":690:1019   */\n      swap3\n      swap2\n      pop\n      pop\n      jump\t// out\n        /* \"#utility.yul\":1025:1124   */\n    tag_34:\n        /* \"#utility.yul\":1077:1083   */\n      0x00\n        /* \"#utility.yul\":1111:1116   */\n      dup2\n        /* \"#utility.yul\":1105:1117   */\n      mload\n        /* \"#utility.yul\":1095:1117   */\n      swap1\n      pop\n        /* \"#utility.yul\":1025:1124   */\n      swap2\n      swap1\n      pop\n      jump\t// out\n        /* \"#utility.yul\":1130:1299   */\n    tag_35:\n        /* \"#utility.yul\":1214:1225   */\n      0x00\n        /* \"#utility.yul\":1248:1254   */\n      dup3\n        /* \"#utility.yul\":1243:1246   */\n      dup3\n        /* \"#utility.yul\":1236:1255   */\n      mstore\n        /* \"#utility.yul\":1288:1292   */\n      0x20\n        /* \"#utility.yul\":1283:1286   */\n      dup3\n        /* \"#utility.yul\":1279:1293   */\n      add\n        /* \"#utility.yul\":1264:1293   */\n      swap1\n      pop\n        /* \"#utility.yul\":1130:1299   */\n      swap3\n      swap2\n      pop\n      pop\n      jump\t// out\n        /* \"#utility.yul\":1305:1444   */\n    tag_36:\n        /* \"#utility.yul\":1394:1400   */\n      dup3\n        /* \"#utility.yul\":1389:1392   */\n      dup2\n        /* \"#utility.yul\":1384:1387   */\n      dup4\n        /* \"#utility.yul\":1378:1401   */\n      mcopy\n        /* \"#utility.yul\":1435:1436   */\n      0x00\n        /* \"#utility.yul\":1426:1432   */\n      dup4\n        /* \"#utility.yul\":1421:1424   */\n      dup4\n        /* \"#utility.yul\":1417:1433   */\n      add\n        /* \"#utility.yul\":1410:1437   */\n      mstore\n        /* \"#utility.yul\":1305:1444   */\n      pop\n      pop\n      pop\n      jump\t// out\n        /* \"#utility.yul\":1450:1552   */\n    tag_37:\n        /* \"#utility.yul\":1491:1497   */\n      0x00\n        /* \"#utility.yul\":1542:1544   */\n      0x1f\n        /* \"#utility.yul\":1538:1545   */\n      not\n        /* \"#utility.yul\":1533:1535   */\n      0x1f\n        /* \"#utility.yul\":1526:1531   */\n      dup4\n        /* \"#utility.yul\":1522:1536   */\n      add\n        /* \"#utility.yul\":1518:1546   */\n      and\n        /* \"#utility.yul\":1508:1546   */\n      swap1\n      pop\n        /* \"#utility.yul\":1450:1552   */\n      swap2\n      swap1\n      pop\n      jump\t// out\n        /* \"#utility.yul\":1558:1935   */\n    tag_38:\n        /* \"#utility.yul\":1646:1649   */\n      0x00\n        /* \"#utility.yul\":1674:1713   */\n      tag_61\n        /* \"#utility.yul\":1707:1712   */\n      dup3\n        /* \"#utility.yul\":1674:1713   */\n      tag_34\n      jump\t// in\n    tag_61:\n        /* \"#utility.yul\":1729:1800   */\n      tag_62\n        /* \"#utility.yul\":1793:1799   */\n      dup2\n        /* \"#utility.yul\":1788:1791   */\n      dup6\n        /* \"#utility.yul\":1729:1800   */\n      tag_35\n      jump\t// in\n    tag_62:\n        /* \"#utility.yul\":1722:1800   */\n      swap4\n      pop\n        /* \"#utility.yul\":1809:1874   */\n      tag_63\n        /* \"#utility.yul\":1867:1873   */\n      dup2\n        /* \"#utility.yul\":1862:1865   */\n      dup6\n        /* \"#utility.yul\":1855:1859   */\n      0x20\n        /* \"#utility.yul\":1848:1853   */\n      dup7\n        /* \"#utility.yul\":1844:1860   */\n      add\n        /* \"#utility.yul\":1809:1874   */\n      tag_36\n      jump\t// in\n    tag_63:\n        /* \"#utility.yul\":1899:1928   */\n      tag_64\n        /* \"#utility.yul\":1921:1927   */\n      dup2\n        /* \"#utility.yul\":1899:1928   */\n      tag_37\n      jump\t// in\n    tag_64:\n        /* \"#utility.yul\":1894:1897   */\n      dup5\n        /* \"#utility.yul\":1890:1929   */\n      add\n        /* \"#utility.yul\":1883:1929   */\n      swap2\n      pop\n        /* \"#utility.yul\":1650:1935   */\n      pop\n        /* \"#utility.yul\":1558:1935   */\n      swap3\n      swap2\n      pop\n      pop\n      jump\t// out\n        /* \"#utility.yul\":1941:2059   */\n    tag_39:\n        /* \"#utility.yul\":2028:2052   */\n      tag_66\n        /* \"#utility.yul\":2046:2051   */\n      dup2\n        /* \"#utility.yul\":2028:2052   */\n      tag_31\n      jump\t// in\n    tag_66:\n        /* \"#utility.yul\":2023:2026   */\n      dup3\n        /* \"#utility.yul\":2016:2053   */\n      mstore\n        /* \"#utility.yul\":1941:2059   */\n      pop\n      pop\n      jump\t// out\n        /* \"#utility.yul\":2065:2709   */\n    tag_13:\n        /* \"#utility.yul\":2262:2266   */\n      0x00\n        /* \"#utility.yul\":2300:2303   */\n      0x80\n        /* \"#utility.yul\":2289:2298   */\n      dup3\n        /* \"#utility.yul\":2285:2304   */\n      add\n        /* \"#utility.yul\":2277:2304   */\n      swap1\n      pop\n        /* \"#utility.yul\":2350:2359   */\n      dup2\n        /* \"#utility.yul\":2344:2348   */\n      dup2\n        /* \"#utility.yul\":2340:2360   */\n      sub\n        /* \"#utility.yul\":2336:2337   */\n      0x00\n        /* \"#utility.yul\":2325:2334   */\n      dup4\n        /* \"#utility.yul\":2321:2338   */\n      add\n        /* \"#utility.yul\":2314:2361   */\n      mstore\n        /* \"#utility.yul\":2378:2456   */\n      tag_68\n        /* \"#utility.yul\":2451:2455   */\n      dup2\n        /* \"#utility.yul\":2442:2448   */\n      dup8\n        /* \"#utility.yul\":2378:2456   */\n      tag_38\n      jump\t// in\n    tag_68:\n        /* \"#utility.yul\":2370:2456   */\n      swap1\n      pop\n        /* \"#utility.yul\":2466:2538   */\n      tag_69\n        /* \"#utility.yul\":2534:2536   */\n      0x20\n        /* \"#utility.yul\":2523:2532   */\n      dup4\n        /* \"#utility.yul\":2519:2537   */\n      add\n        /* \"#utility.yul\":2510:2516   */\n      dup7\n        /* \"#utility.yul\":2466:2538   */\n      tag_39\n      jump\t// in\n    tag_69:\n        /* \"#utility.yul\":2548:2620   */\n      tag_70\n        /* \"#utility.yul\":2616:2618   */\n      0x40\n        /* \"#utility.yul\":2605:2614   */\n      dup4\n        /* \"#utility.yul\":2601:2619   */\n      add\n        /* \"#utility.yul\":2592:2598   */\n      dup6\n        /* \"#utility.yul\":2548:2620   */\n      tag_39\n      jump\t// in\n    tag_70:\n        /* \"#utility.yul\":2630:2702   */\n      tag_71\n        /* \"#utility.yul\":2698:2700   */\n      0x60\n        /* \"#utility.yul\":2687:2696   */\n      dup4\n        /* \"#utility.yul\":2683:2701   */\n      add\n        /* \"#utility.yul\":2674:2680   */\n      dup5\n        /* \"#utility.yul\":2630:2702   */\n      tag_39\n      jump\t// in\n    tag_71:\n        /* \"#utility.yul\":2065:2709   */\n      swap6\n      swap5\n      pop\n      pop\n      pop\n      pop\n      pop\n      jump\t// out\n        /* \"#utility.yul\":2715:2895   */\n    tag_40:\n        /* \"#utility.yul\":2763:2840   */\n      0x4e487b7100000000000000000000000000000000000000000000000000000000\n        /* \"#utility.yul\":2760:2761   */\n      0x00\n        /* \"#utility.yul\":2753:2841   */\n      mstore\n        /* \"#utility.yul\":2860:2864   */\n      0x11\n        /* \"#utility.yul\":2857:2858   */\n      0x04\n        /* \"#utility.yul\":2850:2865   */\n      mstore\n        /* \"#utility.yul\":2884:2888   */\n      0x24\n        /* \"#utility.yul\":2881:2882   */\n      0x00\n        /* \"#utility.yul\":2874:2889   */\n      revert\n        /* \"#utility.yul\":2901:3092   */\n    tag_19:\n        /* \"#utility.yul\":2941:2944   */\n      0x00\n        /* \"#utility.yul\":2960:2980   */\n      tag_74\n        /* \"#utility.yul\":2978:2979   */\n      dup3\n        /* \"#utility.yul\":2960:2980   */\n      tag_31\n      jump\t// in\n    tag_74:\n        /* \"#utility.yul\":2955:2980   */\n      swap2\n      pop\n        /* \"#utility.yul\":2994:3014   */\n      tag_75\n        /* \"#utility.yul\":3012:3013   */\n      dup4\n        /* \"#utility.yul\":2994:3014   */\n      tag_31\n      jump\t// in\n    tag_75:\n        /* \"#utility.yul\":2989:3014   */\n      swap3\n      pop\n        /* \"#utility.yul\":3037:3038   */\n      dup3\n        /* \"#utility.yul\":3034:3035   */\n      dup3\n        /* \"#utility.yul\":3030:3039   */\n      add\n        /* \"#utility.yul\":3023:3039   */\n      swap1\n      pop\n        /* \"#utility.yul\":3058:3061   */\n      dup1\n        /* \"#utility.yul\":3055:3056   */\n      dup3\n        /* \"#utility.yul\":3052:3062   */\n      gt\n        /* \"#utility.yul\":3049:3085   */\n      iszero\n      tag_76\n      jumpi\n        /* \"#utility.yul\":3065:3083   */\n      tag_77\n      tag_40\n      jump\t// in\n    tag_77:\n        /* \"#utility.yul\":3049:3085   */\n    tag_76:\n        /* \"#utility.yul\":2901:3092   */\n      swap3\n      swap2\n      pop\n      pop\n      jump\t// out\n        /* \"#utility.yul\":3098:3278   */\n    tag_41:\n        /* \"#utility.yul\":3146:3223   */\n      0x4e487b7100000000000000000000000000000000000000000000000000000000\n        /* \"#utility.yul\":3143:3144   */\n      0x00\n        /* \"#utility.yul\":3136:3224   */\n      mstore\n        /* \"#utility.yul\":3243:3247   */\n      0x22\n        /* \"#utility.yul\":3240:3241   */\n      0x04\n        /* \"#utility.yul\":3233:3248   */\n      mstore\n        /* \"#utility.yul\":3267:3271   */\n      0x24\n        /* \"#utility.yul\":3264:3265   */\n      0x00\n        /* \"#utility.yul\":3257:3272   */\n      revert\n        /* \"#utility.yul\":3284:3604   */\n    tag_22:\n        /* \"#utility.yul\":3328:3334   */\n      0x00\n        /* \"#utility.yul\":3365:3366   */\n      0x02\n        /* \"#utility.yul\":3359:3363   */\n      dup3\n        /* \"#utility.yul\":3355:3367   */\n      div\n        /* \"#utility.yul\":3345:3367   */\n      swap1\n      pop\n        /* \"#utility.yul\":3412:3413   */\n      0x01\n        /* \"#utility.yul\":3406:3410   */\n      dup3\n        /* \"#utility.yul\":3402:3414   */\n      and\n        /* \"#utility.yul\":3433:3451   */\n      dup1\n        /* \"#utility.yul\":3423:3504   */\n      tag_80\n      jumpi\n        /* \"#utility.yul\":3489:3493   */\n      0x7f\n        /* \"#utility.yul\":3481:3487   */\n      dup3\n        /* \"#utility.yul\":3477:3494   */\n      and\n        /* \"#utility.yul\":3467:3494   */\n      swap2\n      pop\n        /* \"#utility.yul\":3423:3504   */\n    tag_80:\n        /* \"#utility.yul\":3551:3553   */\n      0x20\n        /* \"#utility.yul\":3543:3549   */\n      dup3\n        /* \"#utility.yul\":3540:3554   */\n      lt\n        /* \"#utility.yul\":3520:3538   */\n      dup2\n        /* \"#utility.yul\":3517:3555   */\n      sub\n        /* \"#utility.yul\":3514:3598   */\n      tag_81\n      jumpi\n        /* \"#utility.yul\":3570:3588   */\n      tag_82\n      tag_41\n      jump\t// in\n    tag_82:\n        /* \"#utility.yul\":3514:3598   */\n    tag_81:\n        /* \"#utility.yul\":3335:3604   */\n      pop\n        /* \"#utility.yul\":3284:3604   */\n      swap2\n      swap1\n      pop\n      jump\t// out\n\n    auxdata: 0xa2646970667358221220167efa9c601a0d0e77ad7c24760a3bbd30f52d0bc760071a2c735527ad1d50b264736f6c634300081a0033\n}\n",
				"bytecode": {
					"linkReferences": {},
					"object": "6080604052348015600e575f80fd5b506104528061001c5f395ff3fe608060405234801561000f575f80fd5b506004361061003f575f3560e01c80633d650626146100435780635b2a4cff1461005f5780638d6cc56d14610080575b5f80fd5b61005d6004803603810190610058919061026b565b61009c565b005b6100676100f9565b6040516100779493929190610315565b60405180910390f35b61009a6004803603810190610095919061026b565b6101e8565b005b5f805f3373ffffffffffffffffffffffffffffffffffffffff1673ffffffffffffffffffffffffffffffffffffffff1681526020019081526020015f20905081816003015f8282546100ee919061038c565b925050819055505050565b60605f805f805f803373ffffffffffffffffffffffffffffffffffffffff1673ffffffffffffffffffffffffffffffffffffffff1681526020019081526020015f209050805f0181600101548260020154836003015483805461015b906103ec565b80601f0160208091040260200160405190810160405280929190818152602001828054610187906103ec565b80156101d25780601f106101a9576101008083540402835291602001916101d2565b820191905f5260205f20905b8154815290600101906020018083116101b557829003601f168201915b5050505050935094509450945094505090919293565b5f805f3373ffffffffffffffffffffffffffffffffffffffff1673ffffffffffffffffffffffffffffffffffffffff1681526020019081526020015f2090508181600201819055505050565b5f80fd5b5f819050919050565b61024a81610238565b8114610254575f80fd5b50565b5f8135905061026581610241565b92915050565b5f602082840312156102805761027f610234565b5b5f61028d84828501610257565b91505092915050565b5f81519050919050565b5f82825260208201905092915050565b8281835e5f83830152505050565b5f601f19601f8301169050919050565b5f6102d882610296565b6102e281856102a0565b93506102f28185602086016102b0565b6102fb816102be565b840191505092915050565b61030f81610238565b82525050565b5f6080820190508181035f83015261032d81876102ce565b905061033c6020830186610306565b6103496040830185610306565b6103566060830184610306565b95945050505050565b7f4e487b71000000000000000000000000000000000000000000000000000000005f52601160045260245ffd5b5f61039682610238565b91506103a183610238565b92508282019050808211156103b9576103b861035f565b5b92915050565b7f4e487b71000000000000000000000000000000000000000000000000000000005f52602260045260245ffd5b5f600282049050600182168061040357607f821691505b602082108103610416576104156103bf565b5b5091905056fea2646970667358221220167efa9c601a0d0e77ad7c24760a3bbd30f52d0bc760071a2c735527ad1d50b264736f6c634300081a0033",
					"opcodes": "PUSH1 0x80 PUSH1 0x40 MSTORE CALLVALUE DUP1 ISZERO PUSH1 0xE JUMPI PUSH0 DUP1 REVERT JUMPDEST POP PUSH2 0x452 DUP1 PUSH2 0x1C PUSH0 CODECOPY PUSH0 RETURN INVALID PUSH1 0x80 PUSH1 0x40 MSTORE CALLVALUE DUP1 ISZERO PUSH2 0xF JUMPI PUSH0 DUP1 REVERT JUMPDEST POP PUSH1 0x4 CALLDATASIZE LT PUSH2 0x3F JUMPI PUSH0 CALLDATALOAD PUSH1 0xE0 SHR DUP1 PUSH4 0x3D650626 EQ PUSH2 0x43 JUMPI DUP1 PUSH4 0x5B2A4CFF EQ PUSH2 0x5F JUMPI DUP1 PUSH4 0x8D6CC56D EQ PUSH2 0x80 JUMPI JUMPDEST PUSH0 DUP1 REVERT JUMPDEST PUSH2 0x5D PUSH1 0x4 DUP1 CALLDATASIZE SUB DUP2 ADD SWAP1 PUSH2 0x58 SWAP2 SWAP1 PUSH2 0x26B JUMP JUMPDEST PUSH2 0x9C JUMP JUMPDEST STOP JUMPDEST PUSH2 0x67 PUSH2 0xF9 JUMP JUMPDEST PUSH1 0x40 MLOAD PUSH2 0x77 SWAP5 SWAP4 SWAP3 SWAP2 SWAP1 PUSH2 0x315 JUMP JUMPDEST PUSH1 0x40 MLOAD DUP1 SWAP2 SUB SWAP1 RETURN JUMPDEST PUSH2 0x9A PUSH1 0x4 DUP1 CALLDATASIZE SUB DUP2 ADD SWAP1 PUSH2 0x95 SWAP2 SWAP1 PUSH2 0x26B JUMP JUMPDEST PUSH2 0x1E8 JUMP JUMPDEST STOP JUMPDEST PUSH0 DUP1 PUSH0 CALLER PUSH20 0xFFFFFFFFFFFFFFFFFFFFFFFFFFFFFFFFFFFFFFFF AND PUSH20 0xFFFFFFFFFFFFFFFFFFFFFFFFFFFFFFFFFFFFFFFF AND DUP2 MSTORE PUSH1 0x20 ADD SWAP1 DUP2 MSTORE PUSH1 0x20 ADD PUSH0 KECCAK256 SWAP1 POP DUP2 DUP2 PUSH1 0x3 ADD PUSH0 DUP3 DUP3 SLOAD PUSH2 0xEE SWAP2 SWAP1 PUSH2 0x38C JUMP JUMPDEST SWAP3 POP POP DUP2 SWAP1 SSTORE POP POP POP JUMP JUMPDEST PUSH1 0x60 PUSH0 DUP1 PUSH0 DUP1 PUSH0 DUP1 CALLER PUSH20 0xFFFFFFFFFFFFFFFFFFFFFFFFFFFFFFFFFFFFFFFF AND PUSH20 0xFFFFFFFFFFFFFFFFFFFFFFFFFFFFFFFFFFFFFFFF AND DUP2 MSTORE PUSH1 0x20 ADD SWAP1 DUP2 MSTORE PUSH1 0x20 ADD PUSH0 KECCAK256 SWAP1 POP DUP1 PUSH0 ADD DUP2 PUSH1 0x1 ADD SLOAD DUP3 PUSH1 0x2 ADD SLOAD DUP4 PUSH1 0x3 ADD SLOAD DUP4 DUP1 SLOAD PUSH2 0x15B SWAP1 PUSH2 0x3EC JUMP JUMPDEST DUP1 PUSH1 0x1F ADD PUSH1 0x20 DUP1 SWAP2 DIV MUL PUSH1 0x20 ADD PUSH1 0x40 MLOAD SWAP1 DUP2 ADD PUSH1 0x40 MSTORE DUP1 SWAP3 SWAP2 SWAP1 DUP2 DUP2 MSTORE PUSH1 0x20 ADD DUP3 DUP1 SLOAD PUSH2 0x187 SWAP1 PUSH2 0x3EC JUMP JUMPDEST DUP1 ISZERO PUSH2 0x1D2 JUMPI DUP1 PUSH1 0x1F LT PUSH2 0x1A9 JUMPI PUSH2 0x100 DUP1 DUP4 SLOAD DIV MUL DUP4 MSTORE SWAP2 PUSH1 0x20 ADD SWAP2 PUSH2 0x1D2 JUMP JUMPDEST DUP3 ADD SWAP2 SWAP1 PUSH0 MSTORE PUSH1 0x20 PUSH0 KECCAK256 SWAP1 JUMPDEST DUP2 SLOAD DUP2 MSTORE SWAP1 PUSH1 0x1 ADD SWAP1 PUSH1 0x20 ADD DUP1 DUP4 GT PUSH2 0x1B5 JUMPI DUP3 SWAP1 SUB PUSH1 0x1F AND DUP3 ADD SWAP2 JUMPDEST POP POP POP POP POP SWAP4 POP SWAP5 POP SWAP5 POP SWAP5 POP SWAP5 POP POP SWAP1 SWAP2 SWAP3 SWAP4 JUMP JUMPDEST PUSH0 DUP1 PUSH0 CALLER PUSH20 0xFFFFFFFFFFFFFFFFFFFFFFFFFFFFFFFFFFFFFFFF AND PUSH20 0xFFFFFFFFFFFFFFFFFFFFFFFFFFFFFFFFFFFFFFFF AND DUP2 MSTORE PUSH1 0x20 ADD SWAP1 DUP2 MSTORE PUSH1 0x20 ADD PUSH0 KECCAK256 SWAP1 POP DUP2 DUP2 PUSH1 0x2 ADD DUP2 SWAP1 SSTORE POP POP POP JUMP JUMPDEST PUSH0 DUP1 REVERT JUMPDEST PUSH0 DUP2 SWAP1 POP SWAP2 SWAP1 POP JUMP JUMPDEST PUSH2 0x24A DUP2 PUSH2 0x238 JUMP JUMPDEST DUP2 EQ PUSH2 0x254 JUMPI PUSH0 DUP1 REVERT JUMPDEST POP JUMP JUMPDEST PUSH0 DUP2 CALLDATALOAD SWAP1 POP PUSH2 0x265 DUP2 PUSH2 0x241 JUMP JUMPDEST SWAP3 SWAP2 POP POP JUMP JUMPDEST PUSH0 PUSH1 0x20 DUP3 DUP5 SUB SLT ISZERO PUSH2 0x280 JUMPI PUSH2 0x27F PUSH2 0x234 JUMP JUMPDEST JUMPDEST PUSH0 PUSH2 0x28D DUP5 DUP3 DUP6 ADD PUSH2 0x257 JUMP JUMPDEST SWAP2 POP POP SWAP3 SWAP2 POP POP JUMP JUMPDEST PUSH0 DUP2 MLOAD SWAP1 POP SWAP2 SWAP1 POP JUMP JUMPDEST PUSH0 DUP3 DUP3 MSTORE PUSH1 0x20 DUP3 ADD SWAP1 POP SWAP3 SWAP2 POP POP JUMP JUMPDEST DUP3 DUP2 DUP4 MCOPY PUSH0 DUP4 DUP4 ADD MSTORE POP POP POP JUMP JUMPDEST PUSH0 PUSH1 0x1F NOT PUSH1 0x1F DUP4 ADD AND SWAP1 POP SWAP2 SWAP1 POP JUMP JUMPDEST PUSH0 PUSH2 0x2D8 DUP3 PUSH2 0x296 JUMP JUMPDEST PUSH2 0x2E2 DUP2 DUP6 PUSH2 0x2A0 JUMP JUMPDEST SWAP4 POP PUSH2 0x2F2 DUP2 DUP6 PUSH1 0x20 DUP7 ADD PUSH2 0x2B0 JUMP JUMPDEST PUSH2 0x2FB DUP2 PUSH2 0x2BE JUMP JUMPDEST DUP5 ADD SWAP2 POP POP SWAP3 SWAP2 POP POP JUMP JUMPDEST PUSH2 0x30F DUP2 PUSH2 0x238 JUMP JUMPDEST DUP3 MSTORE POP POP JUMP JUMPDEST PUSH0 PUSH1 0x80 DUP3 ADD SWAP1 POP DUP2 DUP2 SUB PUSH0 DUP4 ADD MSTORE PUSH2 0x32D DUP2 DUP8 PUSH2 0x2CE JUMP JUMPDEST SWAP1 POP PUSH2 0x33C PUSH1 0x20 DUP4 ADD DUP7 PUSH2 0x306 JUMP JUMPDEST PUSH2 0x349 PUSH1 0x40 DUP4 ADD DUP6 PUSH2 0x306 JUMP JUMPDEST PUSH2 0x356 PUSH1 0x60 DUP4 ADD DUP5 PUSH2 0x306 JUMP JUMPDEST SWAP6 SWAP5 POP POP POP POP POP JUMP JUMPDEST PUSH32 0x4E487B7100000000000000000000000000000000000000000000000000000000 PUSH0 MSTORE PUSH1 0x11 PUSH1 0x4 MSTORE PUSH1 0x24 PUSH0 REVERT JUMPDEST PUSH0 PUSH2 0x396 DUP3 PUSH2 0x238 JUMP JUMPDEST SWAP2 POP PUSH2 0x3A1 DUP4 PUSH2 0x238 JUMP JUMPDEST SWAP3 POP DUP3 DUP3 ADD SWAP1 POP DUP1 DUP3 GT ISZERO PUSH2 0x3B9 JUMPI PUSH2 0x3B8 PUSH2 0x35F JUMP JUMPDEST JUMPDEST SWAP3 SWAP2 POP POP JUMP JUMPDEST PUSH32 0x4E487B7100000000000000000000000000000000000000000000000000000000 PUSH0 MSTORE PUSH1 0x22 PUSH1 0x4 MSTORE PUSH1 0x24 PUSH0 REVERT JUMPDEST PUSH0 PUSH1 0x2 DUP3 DIV SWAP1 POP PUSH1 0x1 DUP3 AND DUP1 PUSH2 0x403 JUMPI PUSH1 0x7F DUP3 AND SWAP2 POP JUMPDEST PUSH1 0x20 DUP3 LT DUP2 SUB PUSH2 0x416 JUMPI PUSH2 0x415 PUSH2 0x3BF JUMP JUMPDEST JUMPDEST POP SWAP2 SWAP1 POP JUMP INVALID LOG2 PUSH5 0x6970667358 0x22 SLT KECCAK256 AND PUSH31 0xFA9C601A0D0E77AD7C24760A3BBD30F52D0BC760071A2C735527AD1D50B264 PUSH20 0x6F6C634300081A00330000000000000000000000 "
				},
				"gasEstimates": {
					"creation": {
						"codeDepositCost": "221200",
						"executionCost": "261",
						"totalCost": "221461"
					},
					"external": {
						"addStock(uint256)": "infinite",
						"getDetail()": "infinite",
						"updatePrice(uint256)": "22642"
					}
				},
				"methodIdentifiers": {
					"addStock(uint256)": "3d650626",
					"getDetail()": "5b2a4cff",
					"updatePrice(uint256)": "8d6cc56d"
				}
			},
			"storageLayout": {
				"storage": [
					{
						"astId": 15,
						"contract": "solidity-1base/9/Demo.sol:Demo",
						"label": "productMap",
						"offset": 0,
						"slot": "0",
						"type": "t_mapping(t_address,t_struct(Product)10_storage)"
					}
				],
				"types": {
					"t_address": {
						"encoding": "inplace",
						"label": "address",
						"numberOfBytes": "20"
					},
					"t_mapping(t_address,t_struct(Product)10_storage)": {
						"encoding": "mapping",
						"key": "t_address",
						"label": "mapping(address => struct Demo.Product)",
						"numberOfBytes": "32",
						"value": "t_struct(Product)10_storage"
					},
					"t_string_storage": {
						"encoding": "bytes",
						"label": "string",
						"numberOfBytes": "32"
					},
					"t_struct(Product)10_storage": {
						"encoding": "inplace",
						"label": "struct Demo.Product",
						"members": [
							{
								"astId": 3,
								"contract": "solidity-1base/9/Demo.sol:Demo",
								"label": "name",
								"offset": 0,
								"slot": "0",
								"type": "t_string_storage"
							},
							{
								"astId": 5,
								"contract": "solidity-1base/9/Demo.sol:Demo",
								"label": "id",
								"offset": 0,
								"slot": "1",
								"type": "t_uint256"
							},
							{
								"astId": 7,
								"contract": "solidity-1base/9/Demo.sol:Demo",
								"label": "price",
								"offset": 0,
								"slot": "2",
								"type": "t_uint256"
							},
							{
								"astId": 9,
								"contract": "solidity-1base/9/Demo.sol:Demo",
								"label": "stock",
								"offset": 0,
								"slot": "3",
								"type": "t_uint256"
							}
						],
						"numberOfBytes": "128"
					},
					"t_uint256": {
						"encoding": "inplace",
						"label": "uint256",
						"numberOfBytes": "32"
					}
				}
			},
			"userdoc": {
				"kind": "user",
				"methods": {},
				"version": 1
			}
		}
	}
}