{
	"solidity-1base/9/StructDemo.sol": {
		"StructDemo": {
			"abi": [
				{
					"inputs": [],
					"stateMutability": "nonpayable",
					"type": "constructor"
				},
				{
					"inputs": [
						{
							"internalType": "string",
							"name": "_name",
							"type": "string"
						},
						{
							"internalType": "uint256",
							"name": "_age",
							"type": "uint256"
						}
					],
					"name": "createUser",
					"outputs": [],
					"stateMutability": "nonpayable",
					"type": "function"
				},
				{
					"inputs": [
						{
							"internalType": "string",
							"name": "course",
							"type": "string"
						}
					],
					"name": "getUsersScore",
					"outputs": [
						{
							"internalType": "uint256",
							"name": "",
							"type": "uint256"
						}
					],
					"stateMutability": "view",
					"type": "function"
				},
				{
					"inputs": [
						{
							"internalType": "string",
							"name": "",
							"type": "string"
						}
					],
					"name": "map",
					"outputs": [
						{
							"internalType": "contract StructDemo",
							"name": "",
							"type": "address"
						}
					],
					"stateMutability": "view",
					"type": "function"
				},
				{
					"inputs": [
						{
							"internalType": "uint256",
							"name": "",
							"type": "uint256"
						}
					],
					"name": "structArr",
					"outputs": [
						{
							"internalType": "contract StructDemo",
							"name": "",
							"type": "address"
						}
					],
					"stateMutability": "view",
					"type": "function"
				},
				{
					"inputs": [
						{
							"internalType": "string",
							"name": "course",
							"type": "string"
						},
						{
							"internalType": "uint256",
							"name": "_score",
							"type": "uint256"
						}
					],
					"name": "updateUsersScore",
					"outputs": [],
					"stateMutability": "nonpayable",
					"type": "function"
				},
				{
					"inputs": [
						{
							"internalType": "address",
							"name": "",
							"type": "address"
						}
					],
					"name": "users",
					"outputs": [
						{
							"internalType": "string",
							"name": "name",
							"type": "string"
						},
						{
							"internalType": "uint256",
							"name": "age",
							"type": "uint256"
						}
					],
					"stateMutability": "view",
					"type": "function"
				}
			],
			"devdoc": {
				"kind": "dev",
				"methods": {},
				"version": 1
			},
			"evm": {
				"assembly": "    /* \"solidity-1base/9/StructDemo.sol\":64:2249  contract StructDemo{... */\n  mstore(0x40, 0x80)\n    /* \"solidity-1base/9/StructDemo.sol\":419:764  constructor(){... */\n  callvalue\n  dup1\n  iszero\n  tag_1\n  jumpi\n  0x00\n  dup1\n  revert\ntag_1:\n  pop\n    /* \"solidity-1base/9/StructDemo.sol\":505:522  st2.str = \"lvbao\" */\n  mload(0x40)\n  dup1\n  0x40\n  add\n  0x40\n  mstore\n  dup1\n  0x05\n  dup2\n  mstore\n  0x20\n  add\n  0x6c7662616f000000000000000000000000000000000000000000000000000000\n  dup2\n  mstore\n  pop\n    /* \"solidity-1base/9/StructDemo.sol\":505:508  st2 */\n  0x06\n    /* \"solidity-1base/9/StructDemo.sol\":505:512  st2.str */\n  0x00\n  add\n    /* \"solidity-1base/9/StructDemo.sol\":505:522  st2.str = \"lvbao\" */\n  swap1\n  dup2\n  tag_4\n  swap2\n  swap1\n  tag_5\n  jump\t// in\ntag_4:\n  pop\n    /* \"solidity-1base/9/StructDemo.sol\":557:559  10 */\n  0x0a\n    /* \"solidity-1base/9/StructDemo.sol\":544:560  new string[](10) */\n  0xffffffffffffffff\n  dup2\n  gt\n  iszero\n  tag_6\n  jumpi\n  tag_7\n  tag_8\n  jump\t// in\ntag_7:\ntag_6:\n  mload(0x40)\n  swap1\n  dup1\n  dup3\n  mstore\n  dup1\n  0x20\n  mul\n  0x20\n  add\n  dup3\n  add\n  0x40\n  mstore\n  dup1\n  iszero\n  tag_9\n  jumpi\n  dup2\n  0x20\n  add\ntag_10:\n  0x60\n  dup2\n  mstore\n  0x20\n  add\n  swap1\n  0x01\n  swap1\n  sub\n  swap1\n  dup2\n  tag_10\n  jumpi\n  swap1\n  pop\ntag_9:\n  pop\n    /* \"solidity-1base/9/StructDemo.sol\":531:534  st2 */\n  0x06\n    /* \"solidity-1base/9/StructDemo.sol\":531:541  st2.strArr */\n  0x01\n  add\n    /* \"solidity-1base/9/StructDemo.sol\":531:560  st2.strArr = new string[](10) */\n  swap1\n  dup1\n  mload\n  swap1\n  0x20\n  add\n  swap1\n  tag_11\n  swap3\n  swap2\n  swap1\n  tag_12\n  jump\t// in\ntag_11:\n  pop\n    /* \"solidity-1base/9/StructDemo.sol\":675:698  st2.strArr[0] = \"12312\" */\n  mload(0x40)\n  dup1\n  0x40\n  add\n  0x40\n  mstore\n  dup1\n  0x05\n  dup2\n  mstore\n  0x20\n  add\n  0x3132333132000000000000000000000000000000000000000000000000000000\n  dup2\n  mstore\n  pop\n    /* \"solidity-1base/9/StructDemo.sol\":675:678  st2 */\n  0x06\n    /* \"solidity-1base/9/StructDemo.sol\":675:685  st2.strArr */\n  0x01\n  add\n    /* \"solidity-1base/9/StructDemo.sol\":686:687  0 */\n  0x00\n    /* \"solidity-1base/9/StructDemo.sol\":675:688  st2.strArr[0] */\n  dup2\n  sload\n  dup2\n  lt\n  tag_13\n  jumpi\n  tag_14\n  tag_15\n  jump\t// in\ntag_14:\ntag_13:\n  swap1\n  0x00\n  mstore\n  keccak256(0x00, 0x20)\n  add\n    /* \"solidity-1base/9/StructDemo.sol\":675:698  st2.strArr[0] = \"12312\" */\n  swap1\n  dup2\n  tag_17\n  swap2\n  swap1\n  tag_5\n  jump\t// in\ntag_17:\n  pop\n    /* \"solidity-1base/9/StructDemo.sol\":707:728  st2.strArr[1] = \"ses\" */\n  mload(0x40)\n  dup1\n  0x40\n  add\n  0x40\n  mstore\n  dup1\n  0x03\n  dup2\n  mstore\n  0x20\n  add\n  0x7365730000000000000000000000000000000000000000000000000000000000\n  dup2\n  mstore\n  pop\n    /* \"solidity-1base/9/StructDemo.sol\":707:710  st2 */\n  0x06\n    /* \"solidity-1base/9/StructDemo.sol\":707:717  st2.strArr */\n  0x01\n  add\n    /* \"solidity-1base/9/StructDemo.sol\":718:719  1 */\n  0x01\n    /* \"solidity-1base/9/StructDemo.sol\":707:720  st2.strArr[1] */\n  dup2\n  sload\n  dup2\n  lt\n  tag_18\n  jumpi\n  tag_19\n  tag_15\n  jump\t// in\ntag_19:\ntag_18:\n  swap1\n  0x00\n  mstore\n  keccak256(0x00, 0x20)\n  add\n    /* \"solidity-1base/9/StructDemo.sol\":707:728  st2.strArr[1] = \"ses\" */\n  swap1\n  dup2\n  tag_21\n  swap2\n  swap1\n  tag_5\n  jump\t// in\ntag_21:\n  pop\n    /* \"solidity-1base/9/StructDemo.sol\":746:749  123 */\n  0x7b\n    /* \"solidity-1base/9/StructDemo.sol\":737:740  st2 */\n  0x06\n    /* \"solidity-1base/9/StructDemo.sol\":737:743  st2.ut */\n  0x02\n  add\n    /* \"solidity-1base/9/StructDemo.sol\":737:749  st2.ut = 123 */\n  dup2\n  swap1\n  sstore\n  pop\n    /* \"solidity-1base/9/StructDemo.sol\":64:2249  contract StructDemo{... */\n  jump(tag_22)\ntag_12:\n  dup3\n  dup1\n  sload\n  dup3\n  dup3\n  sstore\n  swap1\n  0x00\n  mstore\n  keccak256(0x00, 0x20)\n  swap1\n  dup2\n  add\n  swap3\n  dup3\n  iszero\n  tag_23\n  jumpi\n  swap2\n  0x20\n  mul\n  dup3\n  add\ntag_24:\n  dup3\n  dup2\n  gt\n  iszero\n  tag_25\n  jumpi\n  dup3\n  mload\n  dup3\n  swap1\n  dup2\n  tag_26\n  swap2\n  swap1\n  tag_5\n  jump\t// in\ntag_26:\n  pop\n  swap2\n  0x20\n  add\n  swap2\n  swap1\n  0x01\n  add\n  swap1\n  jump(tag_24)\ntag_25:\ntag_23:\n  pop\n  swap1\n  pop\n  tag_27\n  swap2\n  swap1\n  tag_28\n  jump\t// in\ntag_27:\n  pop\n  swap1\n  jump\t// out\ntag_28:\ntag_29:\n  dup1\n  dup3\n  gt\n  iszero\n  tag_30\n  jumpi\n  0x00\n  dup2\n  dup2\n  tag_31\n  swap2\n  swap1\n  tag_32\n  jump\t// in\ntag_31:\n  pop\n  0x01\n  add\n  jump(tag_29)\ntag_30:\n  pop\n  swap1\n  jump\t// out\ntag_32:\n  pop\n  dup1\n  sload\n  tag_33\n  swap1\n  tag_34\n  jump\t// in\ntag_33:\n  0x00\n  dup3\n  sstore\n  dup1\n  0x1f\n  lt\n  tag_36\n  jumpi\n  pop\n  jump(tag_35)\ntag_36:\n  0x1f\n  add\n  0x20\n  swap1\n  div\n  swap1\n  0x00\n  mstore\n  keccak256(0x00, 0x20)\n  swap1\n  dup2\n  add\n  swap1\n  tag_37\n  swap2\n  swap1\n  tag_38\n  jump\t// in\ntag_37:\ntag_35:\n  pop\n  jump\t// out\ntag_38:\ntag_39:\n  dup1\n  dup3\n  gt\n  iszero\n  tag_40\n  jumpi\n  0x00\n  dup2\n  0x00\n  swap1\n  sstore\n  pop\n  0x01\n  add\n  jump(tag_39)\ntag_40:\n  pop\n  swap1\n  jump\t// out\n    /* \"#utility.yul\":7:106   */\ntag_41:\n    /* \"#utility.yul\":59:65   */\n  0x00\n    /* \"#utility.yul\":93:98   */\n  dup2\n    /* \"#utility.yul\":87:99   */\n  mload\n    /* \"#utility.yul\":77:99   */\n  swap1\n  pop\n    /* \"#utility.yul\":7:106   */\n  swap2\n  swap1\n  pop\n  jump\t// out\n    /* \"#utility.yul\":112:292   */\ntag_8:\n    /* \"#utility.yul\":160:237   */\n  0x4e487b7100000000000000000000000000000000000000000000000000000000\n    /* \"#utility.yul\":157:158   */\n  0x00\n    /* \"#utility.yul\":150:238   */\n  mstore\n    /* \"#utility.yul\":257:261   */\n  0x41\n    /* \"#utility.yul\":254:255   */\n  0x04\n    /* \"#utility.yul\":247:262   */\n  mstore\n    /* \"#utility.yul\":281:285   */\n  0x24\n    /* \"#utility.yul\":278:279   */\n  0x00\n    /* \"#utility.yul\":271:286   */\n  revert\n    /* \"#utility.yul\":298:478   */\ntag_42:\n    /* \"#utility.yul\":346:423   */\n  0x4e487b7100000000000000000000000000000000000000000000000000000000\n    /* \"#utility.yul\":343:344   */\n  0x00\n    /* \"#utility.yul\":336:424   */\n  mstore\n    /* \"#utility.yul\":443:447   */\n  0x22\n    /* \"#utility.yul\":440:441   */\n  0x04\n    /* \"#utility.yul\":433:448   */\n  mstore\n    /* \"#utility.yul\":467:471   */\n  0x24\n    /* \"#utility.yul\":464:465   */\n  0x00\n    /* \"#utility.yul\":457:472   */\n  revert\n    /* \"#utility.yul\":484:804   */\ntag_34:\n    /* \"#utility.yul\":528:534   */\n  0x00\n    /* \"#utility.yul\":565:566   */\n  0x02\n    /* \"#utility.yul\":559:563   */\n  dup3\n    /* \"#utility.yul\":555:567   */\n  div\n    /* \"#utility.yul\":545:567   */\n  swap1\n  pop\n    /* \"#utility.yul\":612:613   */\n  0x01\n    /* \"#utility.yul\":606:610   */\n  dup3\n    /* \"#utility.yul\":602:614   */\n  and\n    /* \"#utility.yul\":633:651   */\n  dup1\n    /* \"#utility.yul\":623:704   */\n  tag_64\n  jumpi\n    /* \"#utility.yul\":689:693   */\n  0x7f\n    /* \"#utility.yul\":681:687   */\n  dup3\n    /* \"#utility.yul\":677:694   */\n  and\n    /* \"#utility.yul\":667:694   */\n  swap2\n  pop\n    /* \"#utility.yul\":623:704   */\ntag_64:\n    /* \"#utility.yul\":751:753   */\n  0x20\n    /* \"#utility.yul\":743:749   */\n  dup3\n    /* \"#utility.yul\":740:754   */\n  lt\n    /* \"#utility.yul\":720:738   */\n  dup2\n    /* \"#utility.yul\":717:755   */\n  sub\n    /* \"#utility.yul\":714:798   */\n  tag_65\n  jumpi\n    /* \"#utility.yul\":770:788   */\n  tag_66\n  tag_42\n  jump\t// in\ntag_66:\n    /* \"#utility.yul\":714:798   */\ntag_65:\n    /* \"#utility.yul\":535:804   */\n  pop\n    /* \"#utility.yul\":484:804   */\n  swap2\n  swap1\n  pop\n  jump\t// out\n    /* \"#utility.yul\":810:951   */\ntag_43:\n    /* \"#utility.yul\":859:863   */\n  0x00\n    /* \"#utility.yul\":882:885   */\n  dup2\n    /* \"#utility.yul\":874:885   */\n  swap1\n  pop\n    /* \"#utility.yul\":905:908   */\n  dup2\n    /* \"#utility.yul\":902:903   */\n  0x00\n    /* \"#utility.yul\":895:909   */\n  mstore\n    /* \"#utility.yul\":939:943   */\n  0x20\n    /* \"#utility.yul\":936:937   */\n  0x00\n    /* \"#utility.yul\":926:944   */\n  keccak256\n    /* \"#utility.yul\":918:944   */\n  swap1\n  pop\n    /* \"#utility.yul\":810:951   */\n  swap2\n  swap1\n  pop\n  jump\t// out\n    /* \"#utility.yul\":957:1050   */\ntag_44:\n    /* \"#utility.yul\":994:1000   */\n  0x00\n    /* \"#utility.yul\":1041:1043   */\n  0x20\n    /* \"#utility.yul\":1036:1038   */\n  0x1f\n    /* \"#utility.yul\":1029:1034   */\n  dup4\n    /* \"#utility.yul\":1025:1039   */\n  add\n    /* \"#utility.yul\":1021:1044   */\n  div\n    /* \"#utility.yul\":1011:1044   */\n  swap1\n  pop\n    /* \"#utility.yul\":957:1050   */\n  swap2\n  swap1\n  pop\n  jump\t// out\n    /* \"#utility.yul\":1056:1163   */\ntag_45:\n    /* \"#utility.yul\":1100:1108   */\n  0x00\n    /* \"#utility.yul\":1150:1155   */\n  dup3\n    /* \"#utility.yul\":1144:1148   */\n  dup3\n    /* \"#utility.yul\":1140:1156   */\n  shl\n    /* \"#utility.yul\":1119:1156   */\n  swap1\n  pop\n    /* \"#utility.yul\":1056:1163   */\n  swap3\n  swap2\n  pop\n  pop\n  jump\t// out\n    /* \"#utility.yul\":1169:1562   */\ntag_46:\n    /* \"#utility.yul\":1238:1244   */\n  0x00\n    /* \"#utility.yul\":1288:1289   */\n  0x08\n    /* \"#utility.yul\":1276:1286   */\n  dup4\n    /* \"#utility.yul\":1272:1290   */\n  mul\n    /* \"#utility.yul\":1311:1408   */\n  tag_71\n    /* \"#utility.yul\":1341:1407   */\n  0xffffffffffffffffffffffffffffffffffffffffffffffffffffffffffffffff\n    /* \"#utility.yul\":1330:1339   */\n  dup3\n    /* \"#utility.yul\":1311:1408   */\n  tag_45\n  jump\t// in\ntag_71:\n    /* \"#utility.yul\":1429:1468   */\n  tag_72\n    /* \"#utility.yul\":1459:1467   */\n  dup7\n    /* \"#utility.yul\":1448:1457   */\n  dup4\n    /* \"#utility.yul\":1429:1468   */\n  tag_45\n  jump\t// in\ntag_72:\n    /* \"#utility.yul\":1417:1468   */\n  swap6\n  pop\n    /* \"#utility.yul\":1501:1505   */\n  dup1\n    /* \"#utility.yul\":1497:1506   */\n  not\n    /* \"#utility.yul\":1490:1495   */\n  dup5\n    /* \"#utility.yul\":1486:1507   */\n  and\n    /* \"#utility.yul\":1477:1507   */\n  swap4\n  pop\n    /* \"#utility.yul\":1550:1554   */\n  dup1\n    /* \"#utility.yul\":1540:1548   */\n  dup7\n    /* \"#utility.yul\":1536:1555   */\n  and\n    /* \"#utility.yul\":1529:1534   */\n  dup5\n    /* \"#utility.yul\":1526:1556   */\n  or\n    /* \"#utility.yul\":1516:1556   */\n  swap3\n  pop\n    /* \"#utility.yul\":1245:1562   */\n  pop\n  pop\n    /* \"#utility.yul\":1169:1562   */\n  swap4\n  swap3\n  pop\n  pop\n  pop\n  jump\t// out\n    /* \"#utility.yul\":1568:1645   */\ntag_47:\n    /* \"#utility.yul\":1605:1612   */\n  0x00\n    /* \"#utility.yul\":1634:1639   */\n  dup2\n    /* \"#utility.yul\":1623:1639   */\n  swap1\n  pop\n    /* \"#utility.yul\":1568:1645   */\n  swap2\n  swap1\n  pop\n  jump\t// out\n    /* \"#utility.yul\":1651:1711   */\ntag_48:\n    /* \"#utility.yul\":1679:1682   */\n  0x00\n    /* \"#utility.yul\":1700:1705   */\n  dup2\n    /* \"#utility.yul\":1693:1705   */\n  swap1\n  pop\n    /* \"#utility.yul\":1651:1711   */\n  swap2\n  swap1\n  pop\n  jump\t// out\n    /* \"#utility.yul\":1717:1859   */\ntag_49:\n    /* \"#utility.yul\":1767:1776   */\n  0x00\n    /* \"#utility.yul\":1800:1853   */\n  tag_76\n    /* \"#utility.yul\":1818:1852   */\n  tag_77\n    /* \"#utility.yul\":1827:1851   */\n  tag_78\n    /* \"#utility.yul\":1845:1850   */\n  dup5\n    /* \"#utility.yul\":1827:1851   */\n  tag_47\n  jump\t// in\ntag_78:\n    /* \"#utility.yul\":1818:1852   */\n  tag_48\n  jump\t// in\ntag_77:\n    /* \"#utility.yul\":1800:1853   */\n  tag_47\n  jump\t// in\ntag_76:\n    /* \"#utility.yul\":1787:1853   */\n  swap1\n  pop\n    /* \"#utility.yul\":1717:1859   */\n  swap2\n  swap1\n  pop\n  jump\t// out\n    /* \"#utility.yul\":1865:1940   */\ntag_50:\n    /* \"#utility.yul\":1908:1911   */\n  0x00\n    /* \"#utility.yul\":1929:1934   */\n  dup2\n    /* \"#utility.yul\":1922:1934   */\n  swap1\n  pop\n    /* \"#utility.yul\":1865:1940   */\n  swap2\n  swap1\n  pop\n  jump\t// out\n    /* \"#utility.yul\":1946:2215   */\ntag_51:\n    /* \"#utility.yul\":2056:2095   */\n  tag_81\n    /* \"#utility.yul\":2087:2094   */\n  dup4\n    /* \"#utility.yul\":2056:2095   */\n  tag_49\n  jump\t// in\ntag_81:\n    /* \"#utility.yul\":2117:2208   */\n  tag_82\n    /* \"#utility.yul\":2166:2207   */\n  tag_83\n    /* \"#utility.yul\":2190:2206   */\n  dup3\n    /* \"#utility.yul\":2166:2207   */\n  tag_50\n  jump\t// in\ntag_83:\n    /* \"#utility.yul\":2158:2164   */\n  dup5\n    /* \"#utility.yul\":2151:2155   */\n  dup5\n    /* \"#utility.yul\":2145:2156   */\n  sload\n    /* \"#utility.yul\":2117:2208   */\n  tag_46\n  jump\t// in\ntag_82:\n    /* \"#utility.yul\":2111:2115   */\n  dup3\n    /* \"#utility.yul\":2104:2209   */\n  sstore\n    /* \"#utility.yul\":2022:2215   */\n  pop\n    /* \"#utility.yul\":1946:2215   */\n  pop\n  pop\n  pop\n  jump\t// out\n    /* \"#utility.yul\":2221:2294   */\ntag_52:\n    /* \"#utility.yul\":2266:2269   */\n  0x00\n    /* \"#utility.yul\":2221:2294   */\n  swap1\n  jump\t// out\n    /* \"#utility.yul\":2300:2489   */\ntag_53:\n    /* \"#utility.yul\":2377:2409   */\n  tag_86\n  tag_52\n  jump\t// in\ntag_86:\n    /* \"#utility.yul\":2418:2483   */\n  tag_87\n    /* \"#utility.yul\":2476:2482   */\n  dup2\n    /* \"#utility.yul\":2468:2474   */\n  dup5\n    /* \"#utility.yul\":2462:2466   */\n  dup5\n    /* \"#utility.yul\":2418:2483   */\n  tag_51\n  jump\t// in\ntag_87:\n    /* \"#utility.yul\":2353:2489   */\n  pop\n    /* \"#utility.yul\":2300:2489   */\n  pop\n  pop\n  jump\t// out\n    /* \"#utility.yul\":2495:2681   */\ntag_54:\n    /* \"#utility.yul\":2555:2675   */\ntag_89:\n    /* \"#utility.yul\":2572:2575   */\n  dup2\n    /* \"#utility.yul\":2565:2570   */\n  dup2\n    /* \"#utility.yul\":2562:2576   */\n  lt\n    /* \"#utility.yul\":2555:2675   */\n  iszero\n  tag_91\n  jumpi\n    /* \"#utility.yul\":2626:2665   */\n  tag_92\n    /* \"#utility.yul\":2663:2664   */\n  0x00\n    /* \"#utility.yul\":2656:2661   */\n  dup3\n    /* \"#utility.yul\":2626:2665   */\n  tag_53\n  jump\t// in\ntag_92:\n    /* \"#utility.yul\":2599:2600   */\n  0x01\n    /* \"#utility.yul\":2592:2597   */\n  dup2\n    /* \"#utility.yul\":2588:2601   */\n  add\n    /* \"#utility.yul\":2579:2601   */\n  swap1\n  pop\n    /* \"#utility.yul\":2555:2675   */\n  jump(tag_89)\ntag_91:\n    /* \"#utility.yul\":2495:2681   */\n  pop\n  pop\n  jump\t// out\n    /* \"#utility.yul\":2687:3230   */\ntag_55:\n    /* \"#utility.yul\":2788:2790   */\n  0x1f\n    /* \"#utility.yul\":2783:2786   */\n  dup3\n    /* \"#utility.yul\":2780:2791   */\n  gt\n    /* \"#utility.yul\":2777:3223   */\n  iszero\n  tag_94\n  jumpi\n    /* \"#utility.yul\":2822:2860   */\n  tag_95\n    /* \"#utility.yul\":2854:2859   */\n  dup2\n    /* \"#utility.yul\":2822:2860   */\n  tag_43\n  jump\t// in\ntag_95:\n    /* \"#utility.yul\":2906:2935   */\n  tag_96\n    /* \"#utility.yul\":2924:2934   */\n  dup5\n    /* \"#utility.yul\":2906:2935   */\n  tag_44\n  jump\t// in\ntag_96:\n    /* \"#utility.yul\":2896:2904   */\n  dup2\n    /* \"#utility.yul\":2892:2936   */\n  add\n    /* \"#utility.yul\":3089:3091   */\n  0x20\n    /* \"#utility.yul\":3077:3087   */\n  dup6\n    /* \"#utility.yul\":3074:3092   */\n  lt\n    /* \"#utility.yul\":3071:3120   */\n  iszero\n  tag_97\n  jumpi\n    /* \"#utility.yul\":3110:3118   */\n  dup2\n    /* \"#utility.yul\":3095:3118   */\n  swap1\n  pop\n    /* \"#utility.yul\":3071:3120   */\ntag_97:\n    /* \"#utility.yul\":3133:3213   */\n  tag_98\n    /* \"#utility.yul\":3189:3211   */\n  tag_99\n    /* \"#utility.yul\":3207:3210   */\n  dup6\n    /* \"#utility.yul\":3189:3211   */\n  tag_44\n  jump\t// in\ntag_99:\n    /* \"#utility.yul\":3179:3187   */\n  dup4\n    /* \"#utility.yul\":3175:3212   */\n  add\n    /* \"#utility.yul\":3162:3173   */\n  dup3\n    /* \"#utility.yul\":3133:3213   */\n  tag_54\n  jump\t// in\ntag_98:\n    /* \"#utility.yul\":2792:3223   */\n  pop\n  pop\n    /* \"#utility.yul\":2777:3223   */\ntag_94:\n    /* \"#utility.yul\":2687:3230   */\n  pop\n  pop\n  pop\n  jump\t// out\n    /* \"#utility.yul\":3236:3353   */\ntag_56:\n    /* \"#utility.yul\":3290:3298   */\n  0x00\n    /* \"#utility.yul\":3340:3345   */\n  dup3\n    /* \"#utility.yul\":3334:3338   */\n  dup3\n    /* \"#utility.yul\":3330:3346   */\n  shr\n    /* \"#utility.yul\":3309:3346   */\n  swap1\n  pop\n    /* \"#utility.yul\":3236:3353   */\n  swap3\n  swap2\n  pop\n  pop\n  jump\t// out\n    /* \"#utility.yul\":3359:3528   */\ntag_57:\n    /* \"#utility.yul\":3403:3409   */\n  0x00\n    /* \"#utility.yul\":3436:3487   */\n  tag_102\n    /* \"#utility.yul\":3484:3485   */\n  0x00\n    /* \"#utility.yul\":3480:3486   */\n  not\n    /* \"#utility.yul\":3472:3477   */\n  dup5\n    /* \"#utility.yul\":3469:3470   */\n  0x08\n    /* \"#utility.yul\":3465:3478   */\n  mul\n    /* \"#utility.yul\":3436:3487   */\n  tag_56\n  jump\t// in\ntag_102:\n    /* \"#utility.yul\":3432:3488   */\n  not\n    /* \"#utility.yul\":3517:3521   */\n  dup1\n    /* \"#utility.yul\":3511:3515   */\n  dup4\n    /* \"#utility.yul\":3507:3522   */\n  and\n    /* \"#utility.yul\":3497:3522   */\n  swap2\n  pop\n    /* \"#utility.yul\":3410:3528   */\n  pop\n    /* \"#utility.yul\":3359:3528   */\n  swap3\n  swap2\n  pop\n  pop\n  jump\t// out\n    /* \"#utility.yul\":3533:3828   */\ntag_58:\n    /* \"#utility.yul\":3609:3613   */\n  0x00\n    /* \"#utility.yul\":3755:3784   */\n  tag_104\n    /* \"#utility.yul\":3780:3783   */\n  dup4\n    /* \"#utility.yul\":3774:3778   */\n  dup4\n    /* \"#utility.yul\":3755:3784   */\n  tag_57\n  jump\t// in\ntag_104:\n    /* \"#utility.yul\":3747:3784   */\n  swap2\n  pop\n    /* \"#utility.yul\":3817:3820   */\n  dup3\n    /* \"#utility.yul\":3814:3815   */\n  0x02\n    /* \"#utility.yul\":3810:3821   */\n  mul\n    /* \"#utility.yul\":3804:3808   */\n  dup3\n    /* \"#utility.yul\":3801:3822   */\n  or\n    /* \"#utility.yul\":3793:3822   */\n  swap1\n  pop\n    /* \"#utility.yul\":3533:3828   */\n  swap3\n  swap2\n  pop\n  pop\n  jump\t// out\n    /* \"#utility.yul\":3833:5228   */\ntag_5:\n    /* \"#utility.yul\":3950:3987   */\n  tag_106\n    /* \"#utility.yul\":3983:3986   */\n  dup3\n    /* \"#utility.yul\":3950:3987   */\n  tag_41\n  jump\t// in\ntag_106:\n    /* \"#utility.yul\":4052:4070   */\n  0xffffffffffffffff\n    /* \"#utility.yul\":4044:4050   */\n  dup2\n    /* \"#utility.yul\":4041:4071   */\n  gt\n    /* \"#utility.yul\":4038:4094   */\n  iszero\n  tag_107\n  jumpi\n    /* \"#utility.yul\":4074:4092   */\n  tag_108\n  tag_8\n  jump\t// in\ntag_108:\n    /* \"#utility.yul\":4038:4094   */\ntag_107:\n    /* \"#utility.yul\":4118:4156   */\n  tag_109\n    /* \"#utility.yul\":4150:4154   */\n  dup3\n    /* \"#utility.yul\":4144:4155   */\n  sload\n    /* \"#utility.yul\":4118:4156   */\n  tag_34\n  jump\t// in\ntag_109:\n    /* \"#utility.yul\":4203:4270   */\n  tag_110\n    /* \"#utility.yul\":4263:4269   */\n  dup3\n    /* \"#utility.yul\":4255:4261   */\n  dup3\n    /* \"#utility.yul\":4249:4253   */\n  dup6\n    /* \"#utility.yul\":4203:4270   */\n  tag_55\n  jump\t// in\ntag_110:\n    /* \"#utility.yul\":4297:4298   */\n  0x00\n    /* \"#utility.yul\":4321:4325   */\n  0x20\n    /* \"#utility.yul\":4308:4325   */\n  swap1\n  pop\n    /* \"#utility.yul\":4353:4355   */\n  0x1f\n    /* \"#utility.yul\":4345:4351   */\n  dup4\n    /* \"#utility.yul\":4342:4356   */\n  gt\n    /* \"#utility.yul\":4370:4371   */\n  0x01\n    /* \"#utility.yul\":4365:4983   */\n  dup2\n  eq\n  tag_112\n  jumpi\n    /* \"#utility.yul\":5027:5028   */\n  0x00\n    /* \"#utility.yul\":5044:5050   */\n  dup5\n    /* \"#utility.yul\":5041:5118   */\n  iszero\n  tag_113\n  jumpi\n    /* \"#utility.yul\":5093:5102   */\n  dup3\n    /* \"#utility.yul\":5088:5091   */\n  dup8\n    /* \"#utility.yul\":5084:5103   */\n  add\n    /* \"#utility.yul\":5078:5104   */\n  mload\n    /* \"#utility.yul\":5069:5104   */\n  swap1\n  pop\n    /* \"#utility.yul\":5041:5118   */\ntag_113:\n    /* \"#utility.yul\":5144:5211   */\n  tag_114\n    /* \"#utility.yul\":5204:5210   */\n  dup6\n    /* \"#utility.yul\":5197:5202   */\n  dup3\n    /* \"#utility.yul\":5144:5211   */\n  tag_58\n  jump\t// in\ntag_114:\n    /* \"#utility.yul\":5138:5142   */\n  dup7\n    /* \"#utility.yul\":5131:5212   */\n  sstore\n    /* \"#utility.yul\":5000:5222   */\n  pop\n    /* \"#utility.yul\":4335:5222   */\n  jump(tag_111)\n    /* \"#utility.yul\":4365:4983   */\ntag_112:\n    /* \"#utility.yul\":4417:4421   */\n  0x1f\n    /* \"#utility.yul\":4413:4422   */\n  not\n    /* \"#utility.yul\":4405:4411   */\n  dup5\n    /* \"#utility.yul\":4401:4423   */\n  and\n    /* \"#utility.yul\":4451:4488   */\n  tag_115\n    /* \"#utility.yul\":4483:4487   */\n  dup7\n    /* \"#utility.yul\":4451:4488   */\n  tag_43\n  jump\t// in\ntag_115:\n    /* \"#utility.yul\":4510:4511   */\n  0x00\n    /* \"#utility.yul\":4524:4732   */\ntag_116:\n    /* \"#utility.yul\":4538:4545   */\n  dup3\n    /* \"#utility.yul\":4535:4536   */\n  dup2\n    /* \"#utility.yul\":4532:4546   */\n  lt\n    /* \"#utility.yul\":4524:4732   */\n  iszero\n  tag_118\n  jumpi\n    /* \"#utility.yul\":4617:4626   */\n  dup5\n    /* \"#utility.yul\":4612:4615   */\n  dup10\n    /* \"#utility.yul\":4608:4627   */\n  add\n    /* \"#utility.yul\":4602:4628   */\n  mload\n    /* \"#utility.yul\":4594:4600   */\n  dup3\n    /* \"#utility.yul\":4587:4629   */\n  sstore\n    /* \"#utility.yul\":4668:4669   */\n  0x01\n    /* \"#utility.yul\":4660:4666   */\n  dup3\n    /* \"#utility.yul\":4656:4670   */\n  add\n    /* \"#utility.yul\":4646:4670   */\n  swap2\n  pop\n    /* \"#utility.yul\":4715:4717   */\n  0x20\n    /* \"#utility.yul\":4704:4713   */\n  dup6\n    /* \"#utility.yul\":4700:4718   */\n  add\n    /* \"#utility.yul\":4687:4718   */\n  swap5\n  pop\n    /* \"#utility.yul\":4561:4565   */\n  0x20\n    /* \"#utility.yul\":4558:4559   */\n  dup2\n    /* \"#utility.yul\":4554:4566   */\n  add\n    /* \"#utility.yul\":4549:4566   */\n  swap1\n  pop\n    /* \"#utility.yul\":4524:4732   */\n  jump(tag_116)\ntag_118:\n    /* \"#utility.yul\":4760:4766   */\n  dup7\n    /* \"#utility.yul\":4751:4758   */\n  dup4\n    /* \"#utility.yul\":4748:4767   */\n  lt\n    /* \"#utility.yul\":4745:4924   */\n  iszero\n  tag_119\n  jumpi\n    /* \"#utility.yul\":4818:4827   */\n  dup5\n    /* \"#utility.yul\":4813:4816   */\n  dup10\n    /* \"#utility.yul\":4809:4828   */\n  add\n    /* \"#utility.yul\":4803:4829   */\n  mload\n    /* \"#utility.yul\":4861:4909   */\n  tag_120\n    /* \"#utility.yul\":4903:4907   */\n  0x1f\n    /* \"#utility.yul\":4895:4901   */\n  dup10\n    /* \"#utility.yul\":4891:4908   */\n  and\n    /* \"#utility.yul\":4880:4889   */\n  dup3\n    /* \"#utility.yul\":4861:4909   */\n  tag_57\n  jump\t// in\ntag_120:\n    /* \"#utility.yul\":4853:4859   */\n  dup4\n    /* \"#utility.yul\":4846:4910   */\n  sstore\n    /* \"#utility.yul\":4768:4924   */\n  pop\n    /* \"#utility.yul\":4745:4924   */\ntag_119:\n    /* \"#utility.yul\":4970:4971   */\n  0x01\n    /* \"#utility.yul\":4966:4967   */\n  0x02\n    /* \"#utility.yul\":4958:4964   */\n  dup9\n    /* \"#utility.yul\":4954:4968   */\n  mul\n    /* \"#utility.yul\":4950:4972   */\n  add\n    /* \"#utility.yul\":4944:4948   */\n  dup9\n    /* \"#utility.yul\":4937:4973   */\n  sstore\n    /* \"#utility.yul\":4372:4983   */\n  pop\n  pop\n  pop\n    /* \"#utility.yul\":4335:5222   */\ntag_111:\n  pop\n    /* \"#utility.yul\":3925:5228   */\n  pop\n  pop\n  pop\n    /* \"#utility.yul\":3833:5228   */\n  pop\n  pop\n  jump\t// out\n    /* \"#utility.yul\":5234:5414   */\ntag_15:\n    /* \"#utility.yul\":5282:5359   */\n  0x4e487b7100000000000000000000000000000000000000000000000000000000\n    /* \"#utility.yul\":5279:5280   */\n  0x00\n    /* \"#utility.yul\":5272:5360   */\n  mstore\n    /* \"#utility.yul\":5379:5383   */\n  0x32\n    /* \"#utility.yul\":5376:5377   */\n  0x04\n    /* \"#utility.yul\":5369:5384   */\n  mstore\n    /* \"#utility.yul\":5403:5407   */\n  0x24\n    /* \"#utility.yul\":5400:5401   */\n  0x00\n    /* \"#utility.yul\":5393:5408   */\n  revert\n    /* \"solidity-1base/9/StructDemo.sol\":64:2249  contract StructDemo{... */\ntag_22:\n  dataSize(sub_0)\n  dup1\n  dataOffset(sub_0)\n  0x00\n  codecopy\n  0x00\n  return\nstop\n\nsub_0: assembly {\n        /* \"solidity-1base/9/StructDemo.sol\":64:2249  contract StructDemo{... */\n      mstore(0x40, 0x80)\n      callvalue\n      dup1\n      iszero\n      tag_1\n      jumpi\n      0x00\n      dup1\n      revert\n    tag_1:\n      pop\n      jumpi(tag_2, lt(calldatasize, 0x04))\n      shr(0xe0, calldataload(0x00))\n      dup1\n      0x121ef243\n      eq\n      tag_3\n      jumpi\n      dup1\n      0x1d8974b1\n      eq\n      tag_4\n      jumpi\n      dup1\n      0x23814fc5\n      eq\n      tag_5\n      jumpi\n      dup1\n      0x40b8037f\n      eq\n      tag_6\n      jumpi\n      dup1\n      0xa87430ba\n      eq\n      tag_7\n      jumpi\n      dup1\n      0xed15b01c\n      eq\n      tag_8\n      jumpi\n    tag_2:\n      0x00\n      dup1\n      revert\n        /* \"solidity-1base/9/StructDemo.sol\":1423:1984  function createUser(string memory _name,uint _age) public {... */\n    tag_3:\n      tag_9\n      0x04\n      dup1\n      calldatasize\n      sub\n      dup2\n      add\n      swap1\n      tag_10\n      swap2\n      swap1\n      tag_11\n      jump\t// in\n    tag_10:\n      tag_12\n      jump\t// in\n    tag_9:\n      stop\n        /* \"solidity-1base/9/StructDemo.sol\":1991:2115  function updateUsersScore(string memory course, uint _score) public {... */\n    tag_4:\n      tag_13\n      0x04\n      dup1\n      calldatasize\n      sub\n      dup2\n      add\n      swap1\n      tag_14\n      swap2\n      swap1\n      tag_11\n      jump\t// in\n    tag_14:\n      tag_15\n      jump\t// in\n    tag_13:\n      stop\n        /* \"solidity-1base/9/StructDemo.sol\":154:194  mapping(string => StructDemo) public map */\n    tag_5:\n      tag_16\n      0x04\n      dup1\n      calldatasize\n      sub\n      dup2\n      add\n      swap1\n      tag_17\n      swap2\n      swap1\n      tag_18\n      jump\t// in\n    tag_17:\n      tag_19\n      jump\t// in\n    tag_16:\n      mload(0x40)\n      tag_20\n      swap2\n      swap1\n      tag_21\n      jump\t// in\n    tag_20:\n      mload(0x40)\n      dup1\n      swap2\n      sub\n      swap1\n      return\n        /* \"solidity-1base/9/StructDemo.sol\":201:230  StructDemo[] public structArr */\n    tag_6:\n      tag_22\n      0x04\n      dup1\n      calldatasize\n      sub\n      dup2\n      add\n      swap1\n      tag_23\n      swap2\n      swap1\n      tag_24\n      jump\t// in\n    tag_23:\n      tag_25\n      jump\t// in\n    tag_22:\n      mload(0x40)\n      tag_26\n      swap2\n      swap1\n      tag_21\n      jump\t// in\n    tag_26:\n      mload(0x40)\n      dup1\n      swap2\n      sub\n      swap1\n      return\n        /* \"solidity-1base/9/StructDemo.sol\":1380:1417  mapping(address => User) public users */\n    tag_7:\n      tag_27\n      0x04\n      dup1\n      calldatasize\n      sub\n      dup2\n      add\n      swap1\n      tag_28\n      swap2\n      swap1\n      tag_29\n      jump\t// in\n    tag_28:\n      tag_30\n      jump\t// in\n    tag_27:\n      mload(0x40)\n      tag_31\n      swap3\n      swap2\n      swap1\n      tag_32\n      jump\t// in\n    tag_31:\n      mload(0x40)\n      dup1\n      swap2\n      sub\n      swap1\n      return\n        /* \"solidity-1base/9/StructDemo.sol\":2122:2246  function getUsersScore(string memory course) public view returns(uint){... */\n    tag_8:\n      tag_33\n      0x04\n      dup1\n      calldatasize\n      sub\n      dup2\n      add\n      swap1\n      tag_34\n      swap2\n      swap1\n      tag_18\n      jump\t// in\n    tag_34:\n      tag_35\n      jump\t// in\n    tag_33:\n      mload(0x40)\n      tag_36\n      swap2\n      swap1\n      tag_37\n      jump\t// in\n    tag_36:\n      mload(0x40)\n      dup1\n      swap2\n      sub\n      swap1\n      return\n        /* \"solidity-1base/9/StructDemo.sol\":1423:1984  function createUser(string memory _name,uint _age) public {... */\n    tag_12:\n        /* \"solidity-1base/9/StructDemo.sol\":1890:1907  User storage user */\n      0x00\n        /* \"solidity-1base/9/StructDemo.sol\":1910:1915  users */\n      0x09\n        /* \"solidity-1base/9/StructDemo.sol\":1910:1927  users[msg.sender] */\n      0x00\n        /* \"solidity-1base/9/StructDemo.sol\":1916:1926  msg.sender */\n      caller\n        /* \"solidity-1base/9/StructDemo.sol\":1910:1927  users[msg.sender] */\n      0xffffffffffffffffffffffffffffffffffffffff\n      and\n      0xffffffffffffffffffffffffffffffffffffffff\n      and\n      dup2\n      mstore\n      0x20\n      add\n      swap1\n      dup2\n      mstore\n      0x20\n      add\n      0x00\n      keccak256\n        /* \"solidity-1base/9/StructDemo.sol\":1890:1927  User storage user = users[msg.sender] */\n      swap1\n      pop\n        /* \"solidity-1base/9/StructDemo.sol\":1948:1953  _name */\n      dup3\n        /* \"solidity-1base/9/StructDemo.sol\":1936:1940  user */\n      dup2\n        /* \"solidity-1base/9/StructDemo.sol\":1936:1945  user.name */\n      0x00\n      add\n        /* \"solidity-1base/9/StructDemo.sol\":1936:1953  user.name = _name */\n      swap1\n      dup2\n      tag_39\n      swap2\n      swap1\n      tag_40\n      jump\t// in\n    tag_39:\n      pop\n        /* \"solidity-1base/9/StructDemo.sol\":1973:1977  _age */\n      dup2\n        /* \"solidity-1base/9/StructDemo.sol\":1962:1966  user */\n      dup2\n        /* \"solidity-1base/9/StructDemo.sol\":1962:1970  user.age */\n      0x01\n      add\n        /* \"solidity-1base/9/StructDemo.sol\":1962:1977  user.age = _age */\n      dup2\n      swap1\n      sstore\n      pop\n        /* \"solidity-1base/9/StructDemo.sol\":1481:1984  {... */\n      pop\n        /* \"solidity-1base/9/StructDemo.sol\":1423:1984  function createUser(string memory _name,uint _age) public {... */\n      pop\n      pop\n      jump\t// out\n        /* \"solidity-1base/9/StructDemo.sol\":1991:2115  function updateUsersScore(string memory course, uint _score) public {... */\n    tag_15:\n        /* \"solidity-1base/9/StructDemo.sol\":2102:2108  _score */\n      dup1\n        /* \"solidity-1base/9/StructDemo.sol\":2068:2073  users */\n      0x09\n        /* \"solidity-1base/9/StructDemo.sol\":2068:2085  users[msg.sender] */\n      0x00\n        /* \"solidity-1base/9/StructDemo.sol\":2074:2084  msg.sender */\n      caller\n        /* \"solidity-1base/9/StructDemo.sol\":2068:2085  users[msg.sender] */\n      0xffffffffffffffffffffffffffffffffffffffff\n      and\n      0xffffffffffffffffffffffffffffffffffffffff\n      and\n      dup2\n      mstore\n      0x20\n      add\n      swap1\n      dup2\n      mstore\n      0x20\n      add\n      0x00\n      keccak256\n        /* \"solidity-1base/9/StructDemo.sol\":2068:2091  users[msg.sender].score */\n      0x02\n      add\n        /* \"solidity-1base/9/StructDemo.sol\":2092:2098  course */\n      dup4\n        /* \"solidity-1base/9/StructDemo.sol\":2068:2099  users[msg.sender].score[course] */\n      mload(0x40)\n      tag_42\n      swap2\n      swap1\n      tag_43\n      jump\t// in\n    tag_42:\n      swap1\n      dup2\n      mstore\n      0x20\n      add\n      mload(0x40)\n      dup1\n      swap2\n      sub\n      swap1\n      keccak256\n        /* \"solidity-1base/9/StructDemo.sol\":2068:2108  users[msg.sender].score[course] = _score */\n      dup2\n      swap1\n      sstore\n      pop\n        /* \"solidity-1base/9/StructDemo.sol\":1991:2115  function updateUsersScore(string memory course, uint _score) public {... */\n      pop\n      pop\n      jump\t// out\n        /* \"solidity-1base/9/StructDemo.sol\":154:194  mapping(string => StructDemo) public map */\n    tag_19:\n      0x00\n      dup2\n      dup1\n      mload\n      0x20\n      dup2\n      add\n      dup3\n      add\n      dup1\n      mload\n      dup5\n      dup3\n      mstore\n      0x20\n      dup4\n      add\n      0x20\n      dup6\n      add\n      keccak256\n      dup2\n      dup4\n      mstore\n      dup1\n      swap6\n      pop\n      pop\n      pop\n      pop\n      pop\n      pop\n      0x00\n      swap2\n      pop\n      sload\n      swap1\n      0x0100\n      exp\n      swap1\n      div\n      0xffffffffffffffffffffffffffffffffffffffff\n      and\n      dup2\n      jump\t// out\n        /* \"solidity-1base/9/StructDemo.sol\":201:230  StructDemo[] public structArr */\n    tag_25:\n      0x01\n      dup2\n      dup2\n      sload\n      dup2\n      lt\n      tag_44\n      jumpi\n      0x00\n      dup1\n      revert\n    tag_44:\n      swap1\n      0x00\n      mstore\n      keccak256(0x00, 0x20)\n      add\n      0x00\n      swap2\n      pop\n      sload\n      swap1\n      0x0100\n      exp\n      swap1\n      div\n      0xffffffffffffffffffffffffffffffffffffffff\n      and\n      dup2\n      jump\t// out\n        /* \"solidity-1base/9/StructDemo.sol\":1380:1417  mapping(address => User) public users */\n    tag_30:\n      mstore(0x20, 0x09)\n      dup1\n      0x00\n      mstore\n      keccak256(0x00, 0x40)\n      0x00\n      swap2\n      pop\n      swap1\n      pop\n      dup1\n      0x00\n      add\n      dup1\n      sload\n      tag_46\n      swap1\n      tag_47\n      jump\t// in\n    tag_46:\n      dup1\n      0x1f\n      add\n      0x20\n      dup1\n      swap2\n      div\n      mul\n      0x20\n      add\n      mload(0x40)\n      swap1\n      dup2\n      add\n      0x40\n      mstore\n      dup1\n      swap3\n      swap2\n      swap1\n      dup2\n      dup2\n      mstore\n      0x20\n      add\n      dup3\n      dup1\n      sload\n      tag_48\n      swap1\n      tag_47\n      jump\t// in\n    tag_48:\n      dup1\n      iszero\n      tag_49\n      jumpi\n      dup1\n      0x1f\n      lt\n      tag_50\n      jumpi\n      0x0100\n      dup1\n      dup4\n      sload\n      div\n      mul\n      dup4\n      mstore\n      swap2\n      0x20\n      add\n      swap2\n      jump(tag_49)\n    tag_50:\n      dup3\n      add\n      swap2\n      swap1\n      0x00\n      mstore\n      keccak256(0x00, 0x20)\n      swap1\n    tag_51:\n      dup2\n      sload\n      dup2\n      mstore\n      swap1\n      0x01\n      add\n      swap1\n      0x20\n      add\n      dup1\n      dup4\n      gt\n      tag_51\n      jumpi\n      dup3\n      swap1\n      sub\n      0x1f\n      and\n      dup3\n      add\n      swap2\n    tag_49:\n      pop\n      pop\n      pop\n      pop\n      pop\n      swap1\n      dup1\n      0x01\n      add\n      sload\n      swap1\n      pop\n      dup3\n      jump\t// out\n        /* \"solidity-1base/9/StructDemo.sol\":2122:2246  function getUsersScore(string memory course) public view returns(uint){... */\n    tag_35:\n        /* \"solidity-1base/9/StructDemo.sol\":2187:2191  uint */\n      0x00\n        /* \"solidity-1base/9/StructDemo.sol\":2208:2213  users */\n      0x09\n        /* \"solidity-1base/9/StructDemo.sol\":2208:2225  users[msg.sender] */\n      0x00\n        /* \"solidity-1base/9/StructDemo.sol\":2214:2224  msg.sender */\n      caller\n        /* \"solidity-1base/9/StructDemo.sol\":2208:2225  users[msg.sender] */\n      0xffffffffffffffffffffffffffffffffffffffff\n      and\n      0xffffffffffffffffffffffffffffffffffffffff\n      and\n      dup2\n      mstore\n      0x20\n      add\n      swap1\n      dup2\n      mstore\n      0x20\n      add\n      0x00\n      keccak256\n        /* \"solidity-1base/9/StructDemo.sol\":2208:2231  users[msg.sender].score */\n      0x02\n      add\n        /* \"solidity-1base/9/StructDemo.sol\":2232:2238  course */\n      dup3\n        /* \"solidity-1base/9/StructDemo.sol\":2208:2239  users[msg.sender].score[course] */\n      mload(0x40)\n      tag_53\n      swap2\n      swap1\n      tag_43\n      jump\t// in\n    tag_53:\n      swap1\n      dup2\n      mstore\n      0x20\n      add\n      mload(0x40)\n      dup1\n      swap2\n      sub\n      swap1\n      keccak256\n      sload\n        /* \"solidity-1base/9/StructDemo.sol\":2201:2239  return users[msg.sender].score[course] */\n      swap1\n      pop\n        /* \"solidity-1base/9/StructDemo.sol\":2122:2246  function getUsersScore(string memory course) public view returns(uint){... */\n      swap2\n      swap1\n      pop\n      jump\t// out\n        /* \"#utility.yul\":7:82   */\n    tag_54:\n        /* \"#utility.yul\":40:46   */\n      0x00\n        /* \"#utility.yul\":73:75   */\n      0x40\n        /* \"#utility.yul\":67:76   */\n      mload\n        /* \"#utility.yul\":57:76   */\n      swap1\n      pop\n        /* \"#utility.yul\":7:82   */\n      swap1\n      jump\t// out\n        /* \"#utility.yul\":88:205   */\n    tag_55:\n        /* \"#utility.yul\":197:198   */\n      0x00\n        /* \"#utility.yul\":194:195   */\n      dup1\n        /* \"#utility.yul\":187:199   */\n      revert\n        /* \"#utility.yul\":211:328   */\n    tag_56:\n        /* \"#utility.yul\":320:321   */\n      0x00\n        /* \"#utility.yul\":317:318   */\n      dup1\n        /* \"#utility.yul\":310:322   */\n      revert\n        /* \"#utility.yul\":334:451   */\n    tag_57:\n        /* \"#utility.yul\":443:444   */\n      0x00\n        /* \"#utility.yul\":440:441   */\n      dup1\n        /* \"#utility.yul\":433:445   */\n      revert\n        /* \"#utility.yul\":457:574   */\n    tag_58:\n        /* \"#utility.yul\":566:567   */\n      0x00\n        /* \"#utility.yul\":563:564   */\n      dup1\n        /* \"#utility.yul\":556:568   */\n      revert\n        /* \"#utility.yul\":580:682   */\n    tag_59:\n        /* \"#utility.yul\":621:627   */\n      0x00\n        /* \"#utility.yul\":672:674   */\n      0x1f\n        /* \"#utility.yul\":668:675   */\n      not\n        /* \"#utility.yul\":663:665   */\n      0x1f\n        /* \"#utility.yul\":656:661   */\n      dup4\n        /* \"#utility.yul\":652:666   */\n      add\n        /* \"#utility.yul\":648:676   */\n      and\n        /* \"#utility.yul\":638:676   */\n      swap1\n      pop\n        /* \"#utility.yul\":580:682   */\n      swap2\n      swap1\n      pop\n      jump\t// out\n        /* \"#utility.yul\":688:868   */\n    tag_60:\n        /* \"#utility.yul\":736:813   */\n      0x4e487b7100000000000000000000000000000000000000000000000000000000\n        /* \"#utility.yul\":733:734   */\n      0x00\n        /* \"#utility.yul\":726:814   */\n      mstore\n        /* \"#utility.yul\":833:837   */\n      0x41\n        /* \"#utility.yul\":830:831   */\n      0x04\n        /* \"#utility.yul\":823:838   */\n      mstore\n        /* \"#utility.yul\":857:861   */\n      0x24\n        /* \"#utility.yul\":854:855   */\n      0x00\n        /* \"#utility.yul\":847:862   */\n      revert\n        /* \"#utility.yul\":874:1155   */\n    tag_61:\n        /* \"#utility.yul\":957:984   */\n      tag_110\n        /* \"#utility.yul\":979:983   */\n      dup3\n        /* \"#utility.yul\":957:984   */\n      tag_59\n      jump\t// in\n    tag_110:\n        /* \"#utility.yul\":949:955   */\n      dup2\n        /* \"#utility.yul\":945:985   */\n      add\n        /* \"#utility.yul\":1087:1093   */\n      dup2\n        /* \"#utility.yul\":1075:1085   */\n      dup2\n        /* \"#utility.yul\":1072:1094   */\n      lt\n        /* \"#utility.yul\":1051:1069   */\n      0xffffffffffffffff\n        /* \"#utility.yul\":1039:1049   */\n      dup3\n        /* \"#utility.yul\":1036:1070   */\n      gt\n        /* \"#utility.yul\":1033:1095   */\n      or\n        /* \"#utility.yul\":1030:1118   */\n      iszero\n      tag_111\n      jumpi\n        /* \"#utility.yul\":1098:1116   */\n      tag_112\n      tag_60\n      jump\t// in\n    tag_112:\n        /* \"#utility.yul\":1030:1118   */\n    tag_111:\n        /* \"#utility.yul\":1138:1148   */\n      dup1\n        /* \"#utility.yul\":1134:1136   */\n      0x40\n        /* \"#utility.yul\":1127:1149   */\n      mstore\n        /* \"#utility.yul\":917:1155   */\n      pop\n        /* \"#utility.yul\":874:1155   */\n      pop\n      pop\n      jump\t// out\n        /* \"#utility.yul\":1161:1290   */\n    tag_62:\n        /* \"#utility.yul\":1195:1201   */\n      0x00\n        /* \"#utility.yul\":1222:1242   */\n      tag_114\n      tag_54\n      jump\t// in\n    tag_114:\n        /* \"#utility.yul\":1212:1242   */\n      swap1\n      pop\n        /* \"#utility.yul\":1251:1284   */\n      tag_115\n        /* \"#utility.yul\":1279:1283   */\n      dup3\n        /* \"#utility.yul\":1271:1277   */\n      dup3\n        /* \"#utility.yul\":1251:1284   */\n      tag_61\n      jump\t// in\n    tag_115:\n        /* \"#utility.yul\":1161:1290   */\n      swap2\n      swap1\n      pop\n      jump\t// out\n        /* \"#utility.yul\":1296:1604   */\n    tag_63:\n        /* \"#utility.yul\":1358:1362   */\n      0x00\n        /* \"#utility.yul\":1448:1466   */\n      0xffffffffffffffff\n        /* \"#utility.yul\":1440:1446   */\n      dup3\n        /* \"#utility.yul\":1437:1467   */\n      gt\n        /* \"#utility.yul\":1434:1490   */\n      iszero\n      tag_117\n      jumpi\n        /* \"#utility.yul\":1470:1488   */\n      tag_118\n      tag_60\n      jump\t// in\n    tag_118:\n        /* \"#utility.yul\":1434:1490   */\n    tag_117:\n        /* \"#utility.yul\":1508:1537   */\n      tag_119\n        /* \"#utility.yul\":1530:1536   */\n      dup3\n        /* \"#utility.yul\":1508:1537   */\n      tag_59\n      jump\t// in\n    tag_119:\n        /* \"#utility.yul\":1500:1537   */\n      swap1\n      pop\n        /* \"#utility.yul\":1592:1596   */\n      0x20\n        /* \"#utility.yul\":1586:1590   */\n      dup2\n        /* \"#utility.yul\":1582:1597   */\n      add\n        /* \"#utility.yul\":1574:1597   */\n      swap1\n      pop\n        /* \"#utility.yul\":1296:1604   */\n      swap2\n      swap1\n      pop\n      jump\t// out\n        /* \"#utility.yul\":1610:1758   */\n    tag_64:\n        /* \"#utility.yul\":1708:1714   */\n      dup3\n        /* \"#utility.yul\":1703:1706   */\n      dup2\n        /* \"#utility.yul\":1698:1701   */\n      dup4\n        /* \"#utility.yul\":1685:1715   */\n      calldatacopy\n        /* \"#utility.yul\":1749:1750   */\n      0x00\n        /* \"#utility.yul\":1740:1746   */\n      dup4\n        /* \"#utility.yul\":1735:1738   */\n      dup4\n        /* \"#utility.yul\":1731:1747   */\n      add\n        /* \"#utility.yul\":1724:1751   */\n      mstore\n        /* \"#utility.yul\":1610:1758   */\n      pop\n      pop\n      pop\n      jump\t// out\n        /* \"#utility.yul\":1764:2189   */\n    tag_65:\n        /* \"#utility.yul\":1842:1847   */\n      0x00\n        /* \"#utility.yul\":1867:1933   */\n      tag_122\n        /* \"#utility.yul\":1883:1932   */\n      tag_123\n        /* \"#utility.yul\":1925:1931   */\n      dup5\n        /* \"#utility.yul\":1883:1932   */\n      tag_63\n      jump\t// in\n    tag_123:\n        /* \"#utility.yul\":1867:1933   */\n      tag_62\n      jump\t// in\n    tag_122:\n        /* \"#utility.yul\":1858:1933   */\n      swap1\n      pop\n        /* \"#utility.yul\":1956:1962   */\n      dup3\n        /* \"#utility.yul\":1949:1954   */\n      dup2\n        /* \"#utility.yul\":1942:1963   */\n      mstore\n        /* \"#utility.yul\":1994:1998   */\n      0x20\n        /* \"#utility.yul\":1987:1992   */\n      dup2\n        /* \"#utility.yul\":1983:1999   */\n      add\n        /* \"#utility.yul\":2032:2035   */\n      dup5\n        /* \"#utility.yul\":2023:2029   */\n      dup5\n        /* \"#utility.yul\":2018:2021   */\n      dup5\n        /* \"#utility.yul\":2014:2030   */\n      add\n        /* \"#utility.yul\":2011:2036   */\n      gt\n        /* \"#utility.yul\":2008:2120   */\n      iszero\n      tag_124\n      jumpi\n        /* \"#utility.yul\":2039:2118   */\n      tag_125\n      tag_58\n      jump\t// in\n    tag_125:\n        /* \"#utility.yul\":2008:2120   */\n    tag_124:\n        /* \"#utility.yul\":2129:2183   */\n      tag_126\n        /* \"#utility.yul\":2176:2182   */\n      dup5\n        /* \"#utility.yul\":2171:2174   */\n      dup3\n        /* \"#utility.yul\":2166:2169   */\n      dup6\n        /* \"#utility.yul\":2129:2183   */\n      tag_64\n      jump\t// in\n    tag_126:\n        /* \"#utility.yul\":1848:2189   */\n      pop\n        /* \"#utility.yul\":1764:2189   */\n      swap4\n      swap3\n      pop\n      pop\n      pop\n      jump\t// out\n        /* \"#utility.yul\":2209:2549   */\n    tag_66:\n        /* \"#utility.yul\":2265:2270   */\n      0x00\n        /* \"#utility.yul\":2314:2317   */\n      dup3\n        /* \"#utility.yul\":2307:2311   */\n      0x1f\n        /* \"#utility.yul\":2299:2305   */\n      dup4\n        /* \"#utility.yul\":2295:2312   */\n      add\n        /* \"#utility.yul\":2291:2318   */\n      slt\n        /* \"#utility.yul\":2281:2403   */\n      tag_128\n      jumpi\n        /* \"#utility.yul\":2322:2401   */\n      tag_129\n      tag_57\n      jump\t// in\n    tag_129:\n        /* \"#utility.yul\":2281:2403   */\n    tag_128:\n        /* \"#utility.yul\":2439:2445   */\n      dup2\n        /* \"#utility.yul\":2426:2446   */\n      calldataload\n        /* \"#utility.yul\":2464:2543   */\n      tag_130\n        /* \"#utility.yul\":2539:2542   */\n      dup5\n        /* \"#utility.yul\":2531:2537   */\n      dup3\n        /* \"#utility.yul\":2524:2528   */\n      0x20\n        /* \"#utility.yul\":2516:2522   */\n      dup7\n        /* \"#utility.yul\":2512:2529   */\n      add\n        /* \"#utility.yul\":2464:2543   */\n      tag_65\n      jump\t// in\n    tag_130:\n        /* \"#utility.yul\":2455:2543   */\n      swap2\n      pop\n        /* \"#utility.yul\":2271:2549   */\n      pop\n        /* \"#utility.yul\":2209:2549   */\n      swap3\n      swap2\n      pop\n      pop\n      jump\t// out\n        /* \"#utility.yul\":2555:2632   */\n    tag_67:\n        /* \"#utility.yul\":2592:2599   */\n      0x00\n        /* \"#utility.yul\":2621:2626   */\n      dup2\n        /* \"#utility.yul\":2610:2626   */\n      swap1\n      pop\n        /* \"#utility.yul\":2555:2632   */\n      swap2\n      swap1\n      pop\n      jump\t// out\n        /* \"#utility.yul\":2638:2760   */\n    tag_68:\n        /* \"#utility.yul\":2711:2735   */\n      tag_133\n        /* \"#utility.yul\":2729:2734   */\n      dup2\n        /* \"#utility.yul\":2711:2735   */\n      tag_67\n      jump\t// in\n    tag_133:\n        /* \"#utility.yul\":2704:2709   */\n      dup2\n        /* \"#utility.yul\":2701:2736   */\n      eq\n        /* \"#utility.yul\":2691:2754   */\n      tag_134\n      jumpi\n        /* \"#utility.yul\":2750:2751   */\n      0x00\n        /* \"#utility.yul\":2747:2748   */\n      dup1\n        /* \"#utility.yul\":2740:2752   */\n      revert\n        /* \"#utility.yul\":2691:2754   */\n    tag_134:\n        /* \"#utility.yul\":2638:2760   */\n      pop\n      jump\t// out\n        /* \"#utility.yul\":2766:2905   */\n    tag_69:\n        /* \"#utility.yul\":2812:2817   */\n      0x00\n        /* \"#utility.yul\":2850:2856   */\n      dup2\n        /* \"#utility.yul\":2837:2857   */\n      calldataload\n        /* \"#utility.yul\":2828:2857   */\n      swap1\n      pop\n        /* \"#utility.yul\":2866:2899   */\n      tag_136\n        /* \"#utility.yul\":2893:2898   */\n      dup2\n        /* \"#utility.yul\":2866:2899   */\n      tag_68\n      jump\t// in\n    tag_136:\n        /* \"#utility.yul\":2766:2905   */\n      swap3\n      swap2\n      pop\n      pop\n      jump\t// out\n        /* \"#utility.yul\":2911:3565   */\n    tag_11:\n        /* \"#utility.yul\":2989:2995   */\n      0x00\n        /* \"#utility.yul\":2997:3003   */\n      dup1\n        /* \"#utility.yul\":3046:3048   */\n      0x40\n        /* \"#utility.yul\":3034:3043   */\n      dup4\n        /* \"#utility.yul\":3025:3032   */\n      dup6\n        /* \"#utility.yul\":3021:3044   */\n      sub\n        /* \"#utility.yul\":3017:3049   */\n      slt\n        /* \"#utility.yul\":3014:3133   */\n      iszero\n      tag_138\n      jumpi\n        /* \"#utility.yul\":3052:3131   */\n      tag_139\n      tag_55\n      jump\t// in\n    tag_139:\n        /* \"#utility.yul\":3014:3133   */\n    tag_138:\n        /* \"#utility.yul\":3200:3201   */\n      0x00\n        /* \"#utility.yul\":3189:3198   */\n      dup4\n        /* \"#utility.yul\":3185:3202   */\n      add\n        /* \"#utility.yul\":3172:3203   */\n      calldataload\n        /* \"#utility.yul\":3230:3248   */\n      0xffffffffffffffff\n        /* \"#utility.yul\":3222:3228   */\n      dup2\n        /* \"#utility.yul\":3219:3249   */\n      gt\n        /* \"#utility.yul\":3216:3333   */\n      iszero\n      tag_140\n      jumpi\n        /* \"#utility.yul\":3252:3331   */\n      tag_141\n      tag_56\n      jump\t// in\n    tag_141:\n        /* \"#utility.yul\":3216:3333   */\n    tag_140:\n        /* \"#utility.yul\":3357:3420   */\n      tag_142\n        /* \"#utility.yul\":3412:3419   */\n      dup6\n        /* \"#utility.yul\":3403:3409   */\n      dup3\n        /* \"#utility.yul\":3392:3401   */\n      dup7\n        /* \"#utility.yul\":3388:3410   */\n      add\n        /* \"#utility.yul\":3357:3420   */\n      tag_66\n      jump\t// in\n    tag_142:\n        /* \"#utility.yul\":3347:3420   */\n      swap3\n      pop\n        /* \"#utility.yul\":3143:3430   */\n      pop\n        /* \"#utility.yul\":3469:3471   */\n      0x20\n        /* \"#utility.yul\":3495:3548   */\n      tag_143\n        /* \"#utility.yul\":3540:3547   */\n      dup6\n        /* \"#utility.yul\":3531:3537   */\n      dup3\n        /* \"#utility.yul\":3520:3529   */\n      dup7\n        /* \"#utility.yul\":3516:3538   */\n      add\n        /* \"#utility.yul\":3495:3548   */\n      tag_69\n      jump\t// in\n    tag_143:\n        /* \"#utility.yul\":3485:3548   */\n      swap2\n      pop\n        /* \"#utility.yul\":3440:3558   */\n      pop\n        /* \"#utility.yul\":2911:3565   */\n      swap3\n      pop\n      swap3\n      swap1\n      pop\n      jump\t// out\n        /* \"#utility.yul\":3571:4080   */\n    tag_18:\n        /* \"#utility.yul\":3640:3646   */\n      0x00\n        /* \"#utility.yul\":3689:3691   */\n      0x20\n        /* \"#utility.yul\":3677:3686   */\n      dup3\n        /* \"#utility.yul\":3668:3675   */\n      dup5\n        /* \"#utility.yul\":3664:3687   */\n      sub\n        /* \"#utility.yul\":3660:3692   */\n      slt\n        /* \"#utility.yul\":3657:3776   */\n      iszero\n      tag_145\n      jumpi\n        /* \"#utility.yul\":3695:3774   */\n      tag_146\n      tag_55\n      jump\t// in\n    tag_146:\n        /* \"#utility.yul\":3657:3776   */\n    tag_145:\n        /* \"#utility.yul\":3843:3844   */\n      0x00\n        /* \"#utility.yul\":3832:3841   */\n      dup3\n        /* \"#utility.yul\":3828:3845   */\n      add\n        /* \"#utility.yul\":3815:3846   */\n      calldataload\n        /* \"#utility.yul\":3873:3891   */\n      0xffffffffffffffff\n        /* \"#utility.yul\":3865:3871   */\n      dup2\n        /* \"#utility.yul\":3862:3892   */\n      gt\n        /* \"#utility.yul\":3859:3976   */\n      iszero\n      tag_147\n      jumpi\n        /* \"#utility.yul\":3895:3974   */\n      tag_148\n      tag_56\n      jump\t// in\n    tag_148:\n        /* \"#utility.yul\":3859:3976   */\n    tag_147:\n        /* \"#utility.yul\":4000:4063   */\n      tag_149\n        /* \"#utility.yul\":4055:4062   */\n      dup5\n        /* \"#utility.yul\":4046:4052   */\n      dup3\n        /* \"#utility.yul\":4035:4044   */\n      dup6\n        /* \"#utility.yul\":4031:4053   */\n      add\n        /* \"#utility.yul\":4000:4063   */\n      tag_66\n      jump\t// in\n    tag_149:\n        /* \"#utility.yul\":3990:4063   */\n      swap2\n      pop\n        /* \"#utility.yul\":3786:4073   */\n      pop\n        /* \"#utility.yul\":3571:4080   */\n      swap3\n      swap2\n      pop\n      pop\n      jump\t// out\n        /* \"#utility.yul\":4086:4212   */\n    tag_70:\n        /* \"#utility.yul\":4123:4130   */\n      0x00\n        /* \"#utility.yul\":4163:4205   */\n      0xffffffffffffffffffffffffffffffffffffffff\n        /* \"#utility.yul\":4156:4161   */\n      dup3\n        /* \"#utility.yul\":4152:4206   */\n      and\n        /* \"#utility.yul\":4141:4206   */\n      swap1\n      pop\n        /* \"#utility.yul\":4086:4212   */\n      swap2\n      swap1\n      pop\n      jump\t// out\n        /* \"#utility.yul\":4218:4278   */\n    tag_71:\n        /* \"#utility.yul\":4246:4249   */\n      0x00\n        /* \"#utility.yul\":4267:4272   */\n      dup2\n        /* \"#utility.yul\":4260:4272   */\n      swap1\n      pop\n        /* \"#utility.yul\":4218:4278   */\n      swap2\n      swap1\n      pop\n      jump\t// out\n        /* \"#utility.yul\":4284:4426   */\n    tag_72:\n        /* \"#utility.yul\":4334:4343   */\n      0x00\n        /* \"#utility.yul\":4367:4420   */\n      tag_153\n        /* \"#utility.yul\":4385:4419   */\n      tag_154\n        /* \"#utility.yul\":4394:4418   */\n      tag_155\n        /* \"#utility.yul\":4412:4417   */\n      dup5\n        /* \"#utility.yul\":4394:4418   */\n      tag_70\n      jump\t// in\n    tag_155:\n        /* \"#utility.yul\":4385:4419   */\n      tag_71\n      jump\t// in\n    tag_154:\n        /* \"#utility.yul\":4367:4420   */\n      tag_70\n      jump\t// in\n    tag_153:\n        /* \"#utility.yul\":4354:4420   */\n      swap1\n      pop\n        /* \"#utility.yul\":4284:4426   */\n      swap2\n      swap1\n      pop\n      jump\t// out\n        /* \"#utility.yul\":4432:4558   */\n    tag_73:\n        /* \"#utility.yul\":4482:4491   */\n      0x00\n        /* \"#utility.yul\":4515:4552   */\n      tag_157\n        /* \"#utility.yul\":4546:4551   */\n      dup3\n        /* \"#utility.yul\":4515:4552   */\n      tag_72\n      jump\t// in\n    tag_157:\n        /* \"#utility.yul\":4502:4552   */\n      swap1\n      pop\n        /* \"#utility.yul\":4432:4558   */\n      swap2\n      swap1\n      pop\n      jump\t// out\n        /* \"#utility.yul\":4564:4708   */\n    tag_74:\n        /* \"#utility.yul\":4632:4641   */\n      0x00\n        /* \"#utility.yul\":4665:4702   */\n      tag_159\n        /* \"#utility.yul\":4696:4701   */\n      dup3\n        /* \"#utility.yul\":4665:4702   */\n      tag_73\n      jump\t// in\n    tag_159:\n        /* \"#utility.yul\":4652:4702   */\n      swap1\n      pop\n        /* \"#utility.yul\":4564:4708   */\n      swap2\n      swap1\n      pop\n      jump\t// out\n        /* \"#utility.yul\":4714:4881   */\n    tag_75:\n        /* \"#utility.yul\":4819:4874   */\n      tag_161\n        /* \"#utility.yul\":4868:4873   */\n      dup2\n        /* \"#utility.yul\":4819:4874   */\n      tag_74\n      jump\t// in\n    tag_161:\n        /* \"#utility.yul\":4814:4817   */\n      dup3\n        /* \"#utility.yul\":4807:4875   */\n      mstore\n        /* \"#utility.yul\":4714:4881   */\n      pop\n      pop\n      jump\t// out\n        /* \"#utility.yul\":4887:5145   */\n    tag_21:\n        /* \"#utility.yul\":4998:5002   */\n      0x00\n        /* \"#utility.yul\":5036:5038   */\n      0x20\n        /* \"#utility.yul\":5025:5034   */\n      dup3\n        /* \"#utility.yul\":5021:5039   */\n      add\n        /* \"#utility.yul\":5013:5039   */\n      swap1\n      pop\n        /* \"#utility.yul\":5049:5138   */\n      tag_163\n        /* \"#utility.yul\":5135:5136   */\n      0x00\n        /* \"#utility.yul\":5124:5133   */\n      dup4\n        /* \"#utility.yul\":5120:5137   */\n      add\n        /* \"#utility.yul\":5111:5117   */\n      dup5\n        /* \"#utility.yul\":5049:5138   */\n      tag_75\n      jump\t// in\n    tag_163:\n        /* \"#utility.yul\":4887:5145   */\n      swap3\n      swap2\n      pop\n      pop\n      jump\t// out\n        /* \"#utility.yul\":5151:5480   */\n    tag_24:\n        /* \"#utility.yul\":5210:5216   */\n      0x00\n        /* \"#utility.yul\":5259:5261   */\n      0x20\n        /* \"#utility.yul\":5247:5256   */\n      dup3\n        /* \"#utility.yul\":5238:5245   */\n      dup5\n        /* \"#utility.yul\":5234:5257   */\n      sub\n        /* \"#utility.yul\":5230:5262   */\n      slt\n        /* \"#utility.yul\":5227:5346   */\n      iszero\n      tag_165\n      jumpi\n        /* \"#utility.yul\":5265:5344   */\n      tag_166\n      tag_55\n      jump\t// in\n    tag_166:\n        /* \"#utility.yul\":5227:5346   */\n    tag_165:\n        /* \"#utility.yul\":5385:5386   */\n      0x00\n        /* \"#utility.yul\":5410:5463   */\n      tag_167\n        /* \"#utility.yul\":5455:5462   */\n      dup5\n        /* \"#utility.yul\":5446:5452   */\n      dup3\n        /* \"#utility.yul\":5435:5444   */\n      dup6\n        /* \"#utility.yul\":5431:5453   */\n      add\n        /* \"#utility.yul\":5410:5463   */\n      tag_69\n      jump\t// in\n    tag_167:\n        /* \"#utility.yul\":5400:5463   */\n      swap2\n      pop\n        /* \"#utility.yul\":5356:5473   */\n      pop\n        /* \"#utility.yul\":5151:5480   */\n      swap3\n      swap2\n      pop\n      pop\n      jump\t// out\n        /* \"#utility.yul\":5486:5582   */\n    tag_76:\n        /* \"#utility.yul\":5523:5530   */\n      0x00\n        /* \"#utility.yul\":5552:5576   */\n      tag_169\n        /* \"#utility.yul\":5570:5575   */\n      dup3\n        /* \"#utility.yul\":5552:5576   */\n      tag_70\n      jump\t// in\n    tag_169:\n        /* \"#utility.yul\":5541:5576   */\n      swap1\n      pop\n        /* \"#utility.yul\":5486:5582   */\n      swap2\n      swap1\n      pop\n      jump\t// out\n        /* \"#utility.yul\":5588:5710   */\n    tag_77:\n        /* \"#utility.yul\":5661:5685   */\n      tag_171\n        /* \"#utility.yul\":5679:5684   */\n      dup2\n        /* \"#utility.yul\":5661:5685   */\n      tag_76\n      jump\t// in\n    tag_171:\n        /* \"#utility.yul\":5654:5659   */\n      dup2\n        /* \"#utility.yul\":5651:5686   */\n      eq\n        /* \"#utility.yul\":5641:5704   */\n      tag_172\n      jumpi\n        /* \"#utility.yul\":5700:5701   */\n      0x00\n        /* \"#utility.yul\":5697:5698   */\n      dup1\n        /* \"#utility.yul\":5690:5702   */\n      revert\n        /* \"#utility.yul\":5641:5704   */\n    tag_172:\n        /* \"#utility.yul\":5588:5710   */\n      pop\n      jump\t// out\n        /* \"#utility.yul\":5716:5855   */\n    tag_78:\n        /* \"#utility.yul\":5762:5767   */\n      0x00\n        /* \"#utility.yul\":5800:5806   */\n      dup2\n        /* \"#utility.yul\":5787:5807   */\n      calldataload\n        /* \"#utility.yul\":5778:5807   */\n      swap1\n      pop\n        /* \"#utility.yul\":5816:5849   */\n      tag_174\n        /* \"#utility.yul\":5843:5848   */\n      dup2\n        /* \"#utility.yul\":5816:5849   */\n      tag_77\n      jump\t// in\n    tag_174:\n        /* \"#utility.yul\":5716:5855   */\n      swap3\n      swap2\n      pop\n      pop\n      jump\t// out\n        /* \"#utility.yul\":5861:6190   */\n    tag_29:\n        /* \"#utility.yul\":5920:5926   */\n      0x00\n        /* \"#utility.yul\":5969:5971   */\n      0x20\n        /* \"#utility.yul\":5957:5966   */\n      dup3\n        /* \"#utility.yul\":5948:5955   */\n      dup5\n        /* \"#utility.yul\":5944:5967   */\n      sub\n        /* \"#utility.yul\":5940:5972   */\n      slt\n        /* \"#utility.yul\":5937:6056   */\n      iszero\n      tag_176\n      jumpi\n        /* \"#utility.yul\":5975:6054   */\n      tag_177\n      tag_55\n      jump\t// in\n    tag_177:\n        /* \"#utility.yul\":5937:6056   */\n    tag_176:\n        /* \"#utility.yul\":6095:6096   */\n      0x00\n        /* \"#utility.yul\":6120:6173   */\n      tag_178\n        /* \"#utility.yul\":6165:6172   */\n      dup5\n        /* \"#utility.yul\":6156:6162   */\n      dup3\n        /* \"#utility.yul\":6145:6154   */\n      dup6\n        /* \"#utility.yul\":6141:6163   */\n      add\n        /* \"#utility.yul\":6120:6173   */\n      tag_78\n      jump\t// in\n    tag_178:\n        /* \"#utility.yul\":6110:6173   */\n      swap2\n      pop\n        /* \"#utility.yul\":6066:6183   */\n      pop\n        /* \"#utility.yul\":5861:6190   */\n      swap3\n      swap2\n      pop\n      pop\n      jump\t// out\n        /* \"#utility.yul\":6196:6295   */\n    tag_79:\n        /* \"#utility.yul\":6248:6254   */\n      0x00\n        /* \"#utility.yul\":6282:6287   */\n      dup2\n        /* \"#utility.yul\":6276:6288   */\n      mload\n        /* \"#utility.yul\":6266:6288   */\n      swap1\n      pop\n        /* \"#utility.yul\":6196:6295   */\n      swap2\n      swap1\n      pop\n      jump\t// out\n        /* \"#utility.yul\":6301:6470   */\n    tag_80:\n        /* \"#utility.yul\":6385:6396   */\n      0x00\n        /* \"#utility.yul\":6419:6425   */\n      dup3\n        /* \"#utility.yul\":6414:6417   */\n      dup3\n        /* \"#utility.yul\":6407:6426   */\n      mstore\n        /* \"#utility.yul\":6459:6463   */\n      0x20\n        /* \"#utility.yul\":6454:6457   */\n      dup3\n        /* \"#utility.yul\":6450:6464   */\n      add\n        /* \"#utility.yul\":6435:6464   */\n      swap1\n      pop\n        /* \"#utility.yul\":6301:6470   */\n      swap3\n      swap2\n      pop\n      pop\n      jump\t// out\n        /* \"#utility.yul\":6476:6615   */\n    tag_81:\n        /* \"#utility.yul\":6565:6571   */\n      dup3\n        /* \"#utility.yul\":6560:6563   */\n      dup2\n        /* \"#utility.yul\":6555:6558   */\n      dup4\n        /* \"#utility.yul\":6549:6572   */\n      mcopy\n        /* \"#utility.yul\":6606:6607   */\n      0x00\n        /* \"#utility.yul\":6597:6603   */\n      dup4\n        /* \"#utility.yul\":6592:6595   */\n      dup4\n        /* \"#utility.yul\":6588:6604   */\n      add\n        /* \"#utility.yul\":6581:6608   */\n      mstore\n        /* \"#utility.yul\":6476:6615   */\n      pop\n      pop\n      pop\n      jump\t// out\n        /* \"#utility.yul\":6621:6998   */\n    tag_82:\n        /* \"#utility.yul\":6709:6712   */\n      0x00\n        /* \"#utility.yul\":6737:6776   */\n      tag_183\n        /* \"#utility.yul\":6770:6775   */\n      dup3\n        /* \"#utility.yul\":6737:6776   */\n      tag_79\n      jump\t// in\n    tag_183:\n        /* \"#utility.yul\":6792:6863   */\n      tag_184\n        /* \"#utility.yul\":6856:6862   */\n      dup2\n        /* \"#utility.yul\":6851:6854   */\n      dup6\n        /* \"#utility.yul\":6792:6863   */\n      tag_80\n      jump\t// in\n    tag_184:\n        /* \"#utility.yul\":6785:6863   */\n      swap4\n      pop\n        /* \"#utility.yul\":6872:6937   */\n      tag_185\n        /* \"#utility.yul\":6930:6936   */\n      dup2\n        /* \"#utility.yul\":6925:6928   */\n      dup6\n        /* \"#utility.yul\":6918:6922   */\n      0x20\n        /* \"#utility.yul\":6911:6916   */\n      dup7\n        /* \"#utility.yul\":6907:6923   */\n      add\n        /* \"#utility.yul\":6872:6937   */\n      tag_81\n      jump\t// in\n    tag_185:\n        /* \"#utility.yul\":6962:6991   */\n      tag_186\n        /* \"#utility.yul\":6984:6990   */\n      dup2\n        /* \"#utility.yul\":6962:6991   */\n      tag_59\n      jump\t// in\n    tag_186:\n        /* \"#utility.yul\":6957:6960   */\n      dup5\n        /* \"#utility.yul\":6953:6992   */\n      add\n        /* \"#utility.yul\":6946:6992   */\n      swap2\n      pop\n        /* \"#utility.yul\":6713:6998   */\n      pop\n        /* \"#utility.yul\":6621:6998   */\n      swap3\n      swap2\n      pop\n      pop\n      jump\t// out\n        /* \"#utility.yul\":7004:7122   */\n    tag_83:\n        /* \"#utility.yul\":7091:7115   */\n      tag_188\n        /* \"#utility.yul\":7109:7114   */\n      dup2\n        /* \"#utility.yul\":7091:7115   */\n      tag_67\n      jump\t// in\n    tag_188:\n        /* \"#utility.yul\":7086:7089   */\n      dup3\n        /* \"#utility.yul\":7079:7116   */\n      mstore\n        /* \"#utility.yul\":7004:7122   */\n      pop\n      pop\n      jump\t// out\n        /* \"#utility.yul\":7128:7551   */\n    tag_32:\n        /* \"#utility.yul\":7269:7273   */\n      0x00\n        /* \"#utility.yul\":7307:7309   */\n      0x40\n        /* \"#utility.yul\":7296:7305   */\n      dup3\n        /* \"#utility.yul\":7292:7310   */\n      add\n        /* \"#utility.yul\":7284:7310   */\n      swap1\n      pop\n        /* \"#utility.yul\":7356:7365   */\n      dup2\n        /* \"#utility.yul\":7350:7354   */\n      dup2\n        /* \"#utility.yul\":7346:7366   */\n      sub\n        /* \"#utility.yul\":7342:7343   */\n      0x00\n        /* \"#utility.yul\":7331:7340   */\n      dup4\n        /* \"#utility.yul\":7327:7344   */\n      add\n        /* \"#utility.yul\":7320:7367   */\n      mstore\n        /* \"#utility.yul\":7384:7462   */\n      tag_190\n        /* \"#utility.yul\":7457:7461   */\n      dup2\n        /* \"#utility.yul\":7448:7454   */\n      dup6\n        /* \"#utility.yul\":7384:7462   */\n      tag_82\n      jump\t// in\n    tag_190:\n        /* \"#utility.yul\":7376:7462   */\n      swap1\n      pop\n        /* \"#utility.yul\":7472:7544   */\n      tag_191\n        /* \"#utility.yul\":7540:7542   */\n      0x20\n        /* \"#utility.yul\":7529:7538   */\n      dup4\n        /* \"#utility.yul\":7525:7543   */\n      add\n        /* \"#utility.yul\":7516:7522   */\n      dup5\n        /* \"#utility.yul\":7472:7544   */\n      tag_83\n      jump\t// in\n    tag_191:\n        /* \"#utility.yul\":7128:7551   */\n      swap4\n      swap3\n      pop\n      pop\n      pop\n      jump\t// out\n        /* \"#utility.yul\":7557:7779   */\n    tag_37:\n        /* \"#utility.yul\":7650:7654   */\n      0x00\n        /* \"#utility.yul\":7688:7690   */\n      0x20\n        /* \"#utility.yul\":7677:7686   */\n      dup3\n        /* \"#utility.yul\":7673:7691   */\n      add\n        /* \"#utility.yul\":7665:7691   */\n      swap1\n      pop\n        /* \"#utility.yul\":7701:7772   */\n      tag_193\n        /* \"#utility.yul\":7769:7770   */\n      0x00\n        /* \"#utility.yul\":7758:7767   */\n      dup4\n        /* \"#utility.yul\":7754:7771   */\n      add\n        /* \"#utility.yul\":7745:7751   */\n      dup5\n        /* \"#utility.yul\":7701:7772   */\n      tag_83\n      jump\t// in\n    tag_193:\n        /* \"#utility.yul\":7557:7779   */\n      swap3\n      swap2\n      pop\n      pop\n      jump\t// out\n        /* \"#utility.yul\":7785:7965   */\n    tag_84:\n        /* \"#utility.yul\":7833:7910   */\n      0x4e487b7100000000000000000000000000000000000000000000000000000000\n        /* \"#utility.yul\":7830:7831   */\n      0x00\n        /* \"#utility.yul\":7823:7911   */\n      mstore\n        /* \"#utility.yul\":7930:7934   */\n      0x22\n        /* \"#utility.yul\":7927:7928   */\n      0x04\n        /* \"#utility.yul\":7920:7935   */\n      mstore\n        /* \"#utility.yul\":7954:7958   */\n      0x24\n        /* \"#utility.yul\":7951:7952   */\n      0x00\n        /* \"#utility.yul\":7944:7959   */\n      revert\n        /* \"#utility.yul\":7971:8291   */\n    tag_47:\n        /* \"#utility.yul\":8015:8021   */\n      0x00\n        /* \"#utility.yul\":8052:8053   */\n      0x02\n        /* \"#utility.yul\":8046:8050   */\n      dup3\n        /* \"#utility.yul\":8042:8054   */\n      div\n        /* \"#utility.yul\":8032:8054   */\n      swap1\n      pop\n        /* \"#utility.yul\":8099:8100   */\n      0x01\n        /* \"#utility.yul\":8093:8097   */\n      dup3\n        /* \"#utility.yul\":8089:8101   */\n      and\n        /* \"#utility.yul\":8120:8138   */\n      dup1\n        /* \"#utility.yul\":8110:8191   */\n      tag_196\n      jumpi\n        /* \"#utility.yul\":8176:8180   */\n      0x7f\n        /* \"#utility.yul\":8168:8174   */\n      dup3\n        /* \"#utility.yul\":8164:8181   */\n      and\n        /* \"#utility.yul\":8154:8181   */\n      swap2\n      pop\n        /* \"#utility.yul\":8110:8191   */\n    tag_196:\n        /* \"#utility.yul\":8238:8240   */\n      0x20\n        /* \"#utility.yul\":8230:8236   */\n      dup3\n        /* \"#utility.yul\":8227:8241   */\n      lt\n        /* \"#utility.yul\":8207:8225   */\n      dup2\n        /* \"#utility.yul\":8204:8242   */\n      sub\n        /* \"#utility.yul\":8201:8285   */\n      tag_197\n      jumpi\n        /* \"#utility.yul\":8257:8275   */\n      tag_198\n      tag_84\n      jump\t// in\n    tag_198:\n        /* \"#utility.yul\":8201:8285   */\n    tag_197:\n        /* \"#utility.yul\":8022:8291   */\n      pop\n        /* \"#utility.yul\":7971:8291   */\n      swap2\n      swap1\n      pop\n      jump\t// out\n        /* \"#utility.yul\":8297:8438   */\n    tag_85:\n        /* \"#utility.yul\":8346:8350   */\n      0x00\n        /* \"#utility.yul\":8369:8372   */\n      dup2\n        /* \"#utility.yul\":8361:8372   */\n      swap1\n      pop\n        /* \"#utility.yul\":8392:8395   */\n      dup2\n        /* \"#utility.yul\":8389:8390   */\n      0x00\n        /* \"#utility.yul\":8382:8396   */\n      mstore\n        /* \"#utility.yul\":8426:8430   */\n      0x20\n        /* \"#utility.yul\":8423:8424   */\n      0x00\n        /* \"#utility.yul\":8413:8431   */\n      keccak256\n        /* \"#utility.yul\":8405:8431   */\n      swap1\n      pop\n        /* \"#utility.yul\":8297:8438   */\n      swap2\n      swap1\n      pop\n      jump\t// out\n        /* \"#utility.yul\":8444:8537   */\n    tag_86:\n        /* \"#utility.yul\":8481:8487   */\n      0x00\n        /* \"#utility.yul\":8528:8530   */\n      0x20\n        /* \"#utility.yul\":8523:8525   */\n      0x1f\n        /* \"#utility.yul\":8516:8521   */\n      dup4\n        /* \"#utility.yul\":8512:8526   */\n      add\n        /* \"#utility.yul\":8508:8531   */\n      div\n        /* \"#utility.yul\":8498:8531   */\n      swap1\n      pop\n        /* \"#utility.yul\":8444:8537   */\n      swap2\n      swap1\n      pop\n      jump\t// out\n        /* \"#utility.yul\":8543:8650   */\n    tag_87:\n        /* \"#utility.yul\":8587:8595   */\n      0x00\n        /* \"#utility.yul\":8637:8642   */\n      dup3\n        /* \"#utility.yul\":8631:8635   */\n      dup3\n        /* \"#utility.yul\":8627:8643   */\n      shl\n        /* \"#utility.yul\":8606:8643   */\n      swap1\n      pop\n        /* \"#utility.yul\":8543:8650   */\n      swap3\n      swap2\n      pop\n      pop\n      jump\t// out\n        /* \"#utility.yul\":8656:9049   */\n    tag_88:\n        /* \"#utility.yul\":8725:8731   */\n      0x00\n        /* \"#utility.yul\":8775:8776   */\n      0x08\n        /* \"#utility.yul\":8763:8773   */\n      dup4\n        /* \"#utility.yul\":8759:8777   */\n      mul\n        /* \"#utility.yul\":8798:8895   */\n      tag_203\n        /* \"#utility.yul\":8828:8894   */\n      0xffffffffffffffffffffffffffffffffffffffffffffffffffffffffffffffff\n        /* \"#utility.yul\":8817:8826   */\n      dup3\n        /* \"#utility.yul\":8798:8895   */\n      tag_87\n      jump\t// in\n    tag_203:\n        /* \"#utility.yul\":8916:8955   */\n      tag_204\n        /* \"#utility.yul\":8946:8954   */\n      dup7\n        /* \"#utility.yul\":8935:8944   */\n      dup4\n        /* \"#utility.yul\":8916:8955   */\n      tag_87\n      jump\t// in\n    tag_204:\n        /* \"#utility.yul\":8904:8955   */\n      swap6\n      pop\n        /* \"#utility.yul\":8988:8992   */\n      dup1\n        /* \"#utility.yul\":8984:8993   */\n      not\n        /* \"#utility.yul\":8977:8982   */\n      dup5\n        /* \"#utility.yul\":8973:8994   */\n      and\n        /* \"#utility.yul\":8964:8994   */\n      swap4\n      pop\n        /* \"#utility.yul\":9037:9041   */\n      dup1\n        /* \"#utility.yul\":9027:9035   */\n      dup7\n        /* \"#utility.yul\":9023:9042   */\n      and\n        /* \"#utility.yul\":9016:9021   */\n      dup5\n        /* \"#utility.yul\":9013:9043   */\n      or\n        /* \"#utility.yul\":9003:9043   */\n      swap3\n      pop\n        /* \"#utility.yul\":8732:9049   */\n      pop\n      pop\n        /* \"#utility.yul\":8656:9049   */\n      swap4\n      swap3\n      pop\n      pop\n      pop\n      jump\t// out\n        /* \"#utility.yul\":9055:9197   */\n    tag_89:\n        /* \"#utility.yul\":9105:9114   */\n      0x00\n        /* \"#utility.yul\":9138:9191   */\n      tag_206\n        /* \"#utility.yul\":9156:9190   */\n      tag_207\n        /* \"#utility.yul\":9165:9189   */\n      tag_208\n        /* \"#utility.yul\":9183:9188   */\n      dup5\n        /* \"#utility.yul\":9165:9189   */\n      tag_67\n      jump\t// in\n    tag_208:\n        /* \"#utility.yul\":9156:9190   */\n      tag_71\n      jump\t// in\n    tag_207:\n        /* \"#utility.yul\":9138:9191   */\n      tag_67\n      jump\t// in\n    tag_206:\n        /* \"#utility.yul\":9125:9191   */\n      swap1\n      pop\n        /* \"#utility.yul\":9055:9197   */\n      swap2\n      swap1\n      pop\n      jump\t// out\n        /* \"#utility.yul\":9203:9278   */\n    tag_90:\n        /* \"#utility.yul\":9246:9249   */\n      0x00\n        /* \"#utility.yul\":9267:9272   */\n      dup2\n        /* \"#utility.yul\":9260:9272   */\n      swap1\n      pop\n        /* \"#utility.yul\":9203:9278   */\n      swap2\n      swap1\n      pop\n      jump\t// out\n        /* \"#utility.yul\":9284:9553   */\n    tag_91:\n        /* \"#utility.yul\":9394:9433   */\n      tag_211\n        /* \"#utility.yul\":9425:9432   */\n      dup4\n        /* \"#utility.yul\":9394:9433   */\n      tag_89\n      jump\t// in\n    tag_211:\n        /* \"#utility.yul\":9455:9546   */\n      tag_212\n        /* \"#utility.yul\":9504:9545   */\n      tag_213\n        /* \"#utility.yul\":9528:9544   */\n      dup3\n        /* \"#utility.yul\":9504:9545   */\n      tag_90\n      jump\t// in\n    tag_213:\n        /* \"#utility.yul\":9496:9502   */\n      dup5\n        /* \"#utility.yul\":9489:9493   */\n      dup5\n        /* \"#utility.yul\":9483:9494   */\n      sload\n        /* \"#utility.yul\":9455:9546   */\n      tag_88\n      jump\t// in\n    tag_212:\n        /* \"#utility.yul\":9449:9453   */\n      dup3\n        /* \"#utility.yul\":9442:9547   */\n      sstore\n        /* \"#utility.yul\":9360:9553   */\n      pop\n        /* \"#utility.yul\":9284:9553   */\n      pop\n      pop\n      pop\n      jump\t// out\n        /* \"#utility.yul\":9559:9632   */\n    tag_92:\n        /* \"#utility.yul\":9604:9607   */\n      0x00\n        /* \"#utility.yul\":9559:9632   */\n      swap1\n      jump\t// out\n        /* \"#utility.yul\":9638:9827   */\n    tag_93:\n        /* \"#utility.yul\":9715:9747   */\n      tag_216\n      tag_92\n      jump\t// in\n    tag_216:\n        /* \"#utility.yul\":9756:9821   */\n      tag_217\n        /* \"#utility.yul\":9814:9820   */\n      dup2\n        /* \"#utility.yul\":9806:9812   */\n      dup5\n        /* \"#utility.yul\":9800:9804   */\n      dup5\n        /* \"#utility.yul\":9756:9821   */\n      tag_91\n      jump\t// in\n    tag_217:\n        /* \"#utility.yul\":9691:9827   */\n      pop\n        /* \"#utility.yul\":9638:9827   */\n      pop\n      pop\n      jump\t// out\n        /* \"#utility.yul\":9833:10019   */\n    tag_94:\n        /* \"#utility.yul\":9893:10013   */\n    tag_219:\n        /* \"#utility.yul\":9910:9913   */\n      dup2\n        /* \"#utility.yul\":9903:9908   */\n      dup2\n        /* \"#utility.yul\":9900:9914   */\n      lt\n        /* \"#utility.yul\":9893:10013   */\n      iszero\n      tag_221\n      jumpi\n        /* \"#utility.yul\":9964:10003   */\n      tag_222\n        /* \"#utility.yul\":10001:10002   */\n      0x00\n        /* \"#utility.yul\":9994:9999   */\n      dup3\n        /* \"#utility.yul\":9964:10003   */\n      tag_93\n      jump\t// in\n    tag_222:\n        /* \"#utility.yul\":9937:9938   */\n      0x01\n        /* \"#utility.yul\":9930:9935   */\n      dup2\n        /* \"#utility.yul\":9926:9939   */\n      add\n        /* \"#utility.yul\":9917:9939   */\n      swap1\n      pop\n        /* \"#utility.yul\":9893:10013   */\n      jump(tag_219)\n    tag_221:\n        /* \"#utility.yul\":9833:10019   */\n      pop\n      pop\n      jump\t// out\n        /* \"#utility.yul\":10025:10568   */\n    tag_95:\n        /* \"#utility.yul\":10126:10128   */\n      0x1f\n        /* \"#utility.yul\":10121:10124   */\n      dup3\n        /* \"#utility.yul\":10118:10129   */\n      gt\n        /* \"#utility.yul\":10115:10561   */\n      iszero\n      tag_224\n      jumpi\n        /* \"#utility.yul\":10160:10198   */\n      tag_225\n        /* \"#utility.yul\":10192:10197   */\n      dup2\n        /* \"#utility.yul\":10160:10198   */\n      tag_85\n      jump\t// in\n    tag_225:\n        /* \"#utility.yul\":10244:10273   */\n      tag_226\n        /* \"#utility.yul\":10262:10272   */\n      dup5\n        /* \"#utility.yul\":10244:10273   */\n      tag_86\n      jump\t// in\n    tag_226:\n        /* \"#utility.yul\":10234:10242   */\n      dup2\n        /* \"#utility.yul\":10230:10274   */\n      add\n        /* \"#utility.yul\":10427:10429   */\n      0x20\n        /* \"#utility.yul\":10415:10425   */\n      dup6\n        /* \"#utility.yul\":10412:10430   */\n      lt\n        /* \"#utility.yul\":10409:10458   */\n      iszero\n      tag_227\n      jumpi\n        /* \"#utility.yul\":10448:10456   */\n      dup2\n        /* \"#utility.yul\":10433:10456   */\n      swap1\n      pop\n        /* \"#utility.yul\":10409:10458   */\n    tag_227:\n        /* \"#utility.yul\":10471:10551   */\n      tag_228\n        /* \"#utility.yul\":10527:10549   */\n      tag_229\n        /* \"#utility.yul\":10545:10548   */\n      dup6\n        /* \"#utility.yul\":10527:10549   */\n      tag_86\n      jump\t// in\n    tag_229:\n        /* \"#utility.yul\":10517:10525   */\n      dup4\n        /* \"#utility.yul\":10513:10550   */\n      add\n        /* \"#utility.yul\":10500:10511   */\n      dup3\n        /* \"#utility.yul\":10471:10551   */\n      tag_94\n      jump\t// in\n    tag_228:\n        /* \"#utility.yul\":10130:10561   */\n      pop\n      pop\n        /* \"#utility.yul\":10115:10561   */\n    tag_224:\n        /* \"#utility.yul\":10025:10568   */\n      pop\n      pop\n      pop\n      jump\t// out\n        /* \"#utility.yul\":10574:10691   */\n    tag_96:\n        /* \"#utility.yul\":10628:10636   */\n      0x00\n        /* \"#utility.yul\":10678:10683   */\n      dup3\n        /* \"#utility.yul\":10672:10676   */\n      dup3\n        /* \"#utility.yul\":10668:10684   */\n      shr\n        /* \"#utility.yul\":10647:10684   */\n      swap1\n      pop\n        /* \"#utility.yul\":10574:10691   */\n      swap3\n      swap2\n      pop\n      pop\n      jump\t// out\n        /* \"#utility.yul\":10697:10866   */\n    tag_97:\n        /* \"#utility.yul\":10741:10747   */\n      0x00\n        /* \"#utility.yul\":10774:10825   */\n      tag_232\n        /* \"#utility.yul\":10822:10823   */\n      0x00\n        /* \"#utility.yul\":10818:10824   */\n      not\n        /* \"#utility.yul\":10810:10815   */\n      dup5\n        /* \"#utility.yul\":10807:10808   */\n      0x08\n        /* \"#utility.yul\":10803:10816   */\n      mul\n        /* \"#utility.yul\":10774:10825   */\n      tag_96\n      jump\t// in\n    tag_232:\n        /* \"#utility.yul\":10770:10826   */\n      not\n        /* \"#utility.yul\":10855:10859   */\n      dup1\n        /* \"#utility.yul\":10849:10853   */\n      dup4\n        /* \"#utility.yul\":10845:10860   */\n      and\n        /* \"#utility.yul\":10835:10860   */\n      swap2\n      pop\n        /* \"#utility.yul\":10748:10866   */\n      pop\n        /* \"#utility.yul\":10697:10866   */\n      swap3\n      swap2\n      pop\n      pop\n      jump\t// out\n        /* \"#utility.yul\":10871:11166   */\n    tag_98:\n        /* \"#utility.yul\":10947:10951   */\n      0x00\n        /* \"#utility.yul\":11093:11122   */\n      tag_234\n        /* \"#utility.yul\":11118:11121   */\n      dup4\n        /* \"#utility.yul\":11112:11116   */\n      dup4\n        /* \"#utility.yul\":11093:11122   */\n      tag_97\n      jump\t// in\n    tag_234:\n        /* \"#utility.yul\":11085:11122   */\n      swap2\n      pop\n        /* \"#utility.yul\":11155:11158   */\n      dup3\n        /* \"#utility.yul\":11152:11153   */\n      0x02\n        /* \"#utility.yul\":11148:11159   */\n      mul\n        /* \"#utility.yul\":11142:11146   */\n      dup3\n        /* \"#utility.yul\":11139:11160   */\n      or\n        /* \"#utility.yul\":11131:11160   */\n      swap1\n      pop\n        /* \"#utility.yul\":10871:11166   */\n      swap3\n      swap2\n      pop\n      pop\n      jump\t// out\n        /* \"#utility.yul\":11171:12566   */\n    tag_40:\n        /* \"#utility.yul\":11288:11325   */\n      tag_236\n        /* \"#utility.yul\":11321:11324   */\n      dup3\n        /* \"#utility.yul\":11288:11325   */\n      tag_79\n      jump\t// in\n    tag_236:\n        /* \"#utility.yul\":11390:11408   */\n      0xffffffffffffffff\n        /* \"#utility.yul\":11382:11388   */\n      dup2\n        /* \"#utility.yul\":11379:11409   */\n      gt\n        /* \"#utility.yul\":11376:11432   */\n      iszero\n      tag_237\n      jumpi\n        /* \"#utility.yul\":11412:11430   */\n      tag_238\n      tag_60\n      jump\t// in\n    tag_238:\n        /* \"#utility.yul\":11376:11432   */\n    tag_237:\n        /* \"#utility.yul\":11456:11494   */\n      tag_239\n        /* \"#utility.yul\":11488:11492   */\n      dup3\n        /* \"#utility.yul\":11482:11493   */\n      sload\n        /* \"#utility.yul\":11456:11494   */\n      tag_47\n      jump\t// in\n    tag_239:\n        /* \"#utility.yul\":11541:11608   */\n      tag_240\n        /* \"#utility.yul\":11601:11607   */\n      dup3\n        /* \"#utility.yul\":11593:11599   */\n      dup3\n        /* \"#utility.yul\":11587:11591   */\n      dup6\n        /* \"#utility.yul\":11541:11608   */\n      tag_95\n      jump\t// in\n    tag_240:\n        /* \"#utility.yul\":11635:11636   */\n      0x00\n        /* \"#utility.yul\":11659:11663   */\n      0x20\n        /* \"#utility.yul\":11646:11663   */\n      swap1\n      pop\n        /* \"#utility.yul\":11691:11693   */\n      0x1f\n        /* \"#utility.yul\":11683:11689   */\n      dup4\n        /* \"#utility.yul\":11680:11694   */\n      gt\n        /* \"#utility.yul\":11708:11709   */\n      0x01\n        /* \"#utility.yul\":11703:12321   */\n      dup2\n      eq\n      tag_242\n      jumpi\n        /* \"#utility.yul\":12365:12366   */\n      0x00\n        /* \"#utility.yul\":12382:12388   */\n      dup5\n        /* \"#utility.yul\":12379:12456   */\n      iszero\n      tag_243\n      jumpi\n        /* \"#utility.yul\":12431:12440   */\n      dup3\n        /* \"#utility.yul\":12426:12429   */\n      dup8\n        /* \"#utility.yul\":12422:12441   */\n      add\n        /* \"#utility.yul\":12416:12442   */\n      mload\n        /* \"#utility.yul\":12407:12442   */\n      swap1\n      pop\n        /* \"#utility.yul\":12379:12456   */\n    tag_243:\n        /* \"#utility.yul\":12482:12549   */\n      tag_244\n        /* \"#utility.yul\":12542:12548   */\n      dup6\n        /* \"#utility.yul\":12535:12540   */\n      dup3\n        /* \"#utility.yul\":12482:12549   */\n      tag_98\n      jump\t// in\n    tag_244:\n        /* \"#utility.yul\":12476:12480   */\n      dup7\n        /* \"#utility.yul\":12469:12550   */\n      sstore\n        /* \"#utility.yul\":12338:12560   */\n      pop\n        /* \"#utility.yul\":11673:12560   */\n      jump(tag_241)\n        /* \"#utility.yul\":11703:12321   */\n    tag_242:\n        /* \"#utility.yul\":11755:11759   */\n      0x1f\n        /* \"#utility.yul\":11751:11760   */\n      not\n        /* \"#utility.yul\":11743:11749   */\n      dup5\n        /* \"#utility.yul\":11739:11761   */\n      and\n        /* \"#utility.yul\":11789:11826   */\n      tag_245\n        /* \"#utility.yul\":11821:11825   */\n      dup7\n        /* \"#utility.yul\":11789:11826   */\n      tag_85\n      jump\t// in\n    tag_245:\n        /* \"#utility.yul\":11848:11849   */\n      0x00\n        /* \"#utility.yul\":11862:12070   */\n    tag_246:\n        /* \"#utility.yul\":11876:11883   */\n      dup3\n        /* \"#utility.yul\":11873:11874   */\n      dup2\n        /* \"#utility.yul\":11870:11884   */\n      lt\n        /* \"#utility.yul\":11862:12070   */\n      iszero\n      tag_248\n      jumpi\n        /* \"#utility.yul\":11955:11964   */\n      dup5\n        /* \"#utility.yul\":11950:11953   */\n      dup10\n        /* \"#utility.yul\":11946:11965   */\n      add\n        /* \"#utility.yul\":11940:11966   */\n      mload\n        /* \"#utility.yul\":11932:11938   */\n      dup3\n        /* \"#utility.yul\":11925:11967   */\n      sstore\n        /* \"#utility.yul\":12006:12007   */\n      0x01\n        /* \"#utility.yul\":11998:12004   */\n      dup3\n        /* \"#utility.yul\":11994:12008   */\n      add\n        /* \"#utility.yul\":11984:12008   */\n      swap2\n      pop\n        /* \"#utility.yul\":12053:12055   */\n      0x20\n        /* \"#utility.yul\":12042:12051   */\n      dup6\n        /* \"#utility.yul\":12038:12056   */\n      add\n        /* \"#utility.yul\":12025:12056   */\n      swap5\n      pop\n        /* \"#utility.yul\":11899:11903   */\n      0x20\n        /* \"#utility.yul\":11896:11897   */\n      dup2\n        /* \"#utility.yul\":11892:11904   */\n      add\n        /* \"#utility.yul\":11887:11904   */\n      swap1\n      pop\n        /* \"#utility.yul\":11862:12070   */\n      jump(tag_246)\n    tag_248:\n        /* \"#utility.yul\":12098:12104   */\n      dup7\n        /* \"#utility.yul\":12089:12096   */\n      dup4\n        /* \"#utility.yul\":12086:12105   */\n      lt\n        /* \"#utility.yul\":12083:12262   */\n      iszero\n      tag_249\n      jumpi\n        /* \"#utility.yul\":12156:12165   */\n      dup5\n        /* \"#utility.yul\":12151:12154   */\n      dup10\n        /* \"#utility.yul\":12147:12166   */\n      add\n        /* \"#utility.yul\":12141:12167   */\n      mload\n        /* \"#utility.yul\":12199:12247   */\n      tag_250\n        /* \"#utility.yul\":12241:12245   */\n      0x1f\n        /* \"#utility.yul\":12233:12239   */\n      dup10\n        /* \"#utility.yul\":12229:12246   */\n      and\n        /* \"#utility.yul\":12218:12227   */\n      dup3\n        /* \"#utility.yul\":12199:12247   */\n      tag_97\n      jump\t// in\n    tag_250:\n        /* \"#utility.yul\":12191:12197   */\n      dup4\n        /* \"#utility.yul\":12184:12248   */\n      sstore\n        /* \"#utility.yul\":12106:12262   */\n      pop\n        /* \"#utility.yul\":12083:12262   */\n    tag_249:\n        /* \"#utility.yul\":12308:12309   */\n      0x01\n        /* \"#utility.yul\":12304:12305   */\n      0x02\n        /* \"#utility.yul\":12296:12302   */\n      dup9\n        /* \"#utility.yul\":12292:12306   */\n      mul\n        /* \"#utility.yul\":12288:12310   */\n      add\n        /* \"#utility.yul\":12282:12286   */\n      dup9\n        /* \"#utility.yul\":12275:12311   */\n      sstore\n        /* \"#utility.yul\":11710:12321   */\n      pop\n      pop\n      pop\n        /* \"#utility.yul\":11673:12560   */\n    tag_241:\n      pop\n        /* \"#utility.yul\":11263:12566   */\n      pop\n      pop\n      pop\n        /* \"#utility.yul\":11171:12566   */\n      pop\n      pop\n      jump\t// out\n        /* \"#utility.yul\":12572:12720   */\n    tag_99:\n        /* \"#utility.yul\":12674:12685   */\n      0x00\n        /* \"#utility.yul\":12711:12714   */\n      dup2\n        /* \"#utility.yul\":12696:12714   */\n      swap1\n      pop\n        /* \"#utility.yul\":12572:12720   */\n      swap3\n      swap2\n      pop\n      pop\n      jump\t// out\n        /* \"#utility.yul\":12726:13116   */\n    tag_100:\n        /* \"#utility.yul\":12832:12835   */\n      0x00\n        /* \"#utility.yul\":12860:12899   */\n      tag_253\n        /* \"#utility.yul\":12893:12898   */\n      dup3\n        /* \"#utility.yul\":12860:12899   */\n      tag_79\n      jump\t// in\n    tag_253:\n        /* \"#utility.yul\":12915:13004   */\n      tag_254\n        /* \"#utility.yul\":12997:13003   */\n      dup2\n        /* \"#utility.yul\":12992:12995   */\n      dup6\n        /* \"#utility.yul\":12915:13004   */\n      tag_99\n      jump\t// in\n    tag_254:\n        /* \"#utility.yul\":12908:13004   */\n      swap4\n      pop\n        /* \"#utility.yul\":13013:13078   */\n      tag_255\n        /* \"#utility.yul\":13071:13077   */\n      dup2\n        /* \"#utility.yul\":13066:13069   */\n      dup6\n        /* \"#utility.yul\":13059:13063   */\n      0x20\n        /* \"#utility.yul\":13052:13057   */\n      dup7\n        /* \"#utility.yul\":13048:13064   */\n      add\n        /* \"#utility.yul\":13013:13078   */\n      tag_81\n      jump\t// in\n    tag_255:\n        /* \"#utility.yul\":13103:13109   */\n      dup1\n        /* \"#utility.yul\":13098:13101   */\n      dup5\n        /* \"#utility.yul\":13094:13110   */\n      add\n        /* \"#utility.yul\":13087:13110   */\n      swap2\n      pop\n        /* \"#utility.yul\":12836:13116   */\n      pop\n        /* \"#utility.yul\":12726:13116   */\n      swap3\n      swap2\n      pop\n      pop\n      jump\t// out\n        /* \"#utility.yul\":13122:13397   */\n    tag_43:\n        /* \"#utility.yul\":13254:13257   */\n      0x00\n        /* \"#utility.yul\":13276:13371   */\n      tag_257\n        /* \"#utility.yul\":13367:13370   */\n      dup3\n        /* \"#utility.yul\":13358:13364   */\n      dup5\n        /* \"#utility.yul\":13276:13371   */\n      tag_100\n      jump\t// in\n    tag_257:\n        /* \"#utility.yul\":13269:13371   */\n      swap2\n      pop\n        /* \"#utility.yul\":13388:13391   */\n      dup2\n        /* \"#utility.yul\":13381:13391   */\n      swap1\n      pop\n        /* \"#utility.yul\":13122:13397   */\n      swap3\n      swap2\n      pop\n      pop\n      jump\t// out\n\n    auxdata: 0xa2646970667358221220963a0be5618643c33b9fa1d514aafb3b3f31a0801801d3aa039c15f27d8b02d364736f6c634300081a0033\n}\n",
				"bytecode": {
					"linkReferences": {},
					"object": "608060405234801561000f575f80fd5b506040518060400160405280600581526020017f6c7662616f00000000000000000000000000000000000000000000000000000081525060065f01908161005691906104a0565b50600a67ffffffffffffffff81111561007257610071610270565b5b6040519080825280602002602001820160405280156100a557816020015b60608152602001906001900390816100905790505b50600660010190805190602001906100be929190610194565b506040518060400160405280600581526020017f313233313200000000000000000000000000000000000000000000000000000081525060066001015f8154811061010c5761010b61056f565b5b905f5260205f2001908161012091906104a0565b506040518060400160405280600381526020017f7365730000000000000000000000000000000000000000000000000000000000815250600660010160018154811061016f5761016e61056f565b5b905f5260205f2001908161018391906104a0565b50607b60066002018190555061059c565b828054828255905f5260205f209081019282156101da579160200282015b828111156101d95782518290816101c991906104a0565b50916020019190600101906101b2565b5b5090506101e791906101eb565b5090565b5b8082111561020a575f8181610201919061020e565b506001016101ec565b5090565b50805461021a906102ca565b5f825580601f1061022b5750610248565b601f0160209004905f5260205f2090810190610247919061024b565b5b50565b5b80821115610262575f815f90555060010161024c565b5090565b5f81519050919050565b7f4e487b71000000000000000000000000000000000000000000000000000000005f52604160045260245ffd5b7f4e487b71000000000000000000000000000000000000000000000000000000005f52602260045260245ffd5b5f60028204905060018216806102e157607f821691505b6020821081036102f4576102f361029d565b5b50919050565b5f819050815f5260205f209050919050565b5f6020601f8301049050919050565b5f82821b905092915050565b5f600883026103567fffffffffffffffffffffffffffffffffffffffffffffffffffffffffffffffff8261031b565b610360868361031b565b95508019841693508086168417925050509392505050565b5f819050919050565b5f819050919050565b5f6103a461039f61039a84610378565b610381565b610378565b9050919050565b5f819050919050565b6103bd8361038a565b6103d16103c9826103ab565b848454610327565b825550505050565b5f90565b6103e56103d9565b6103f08184846103b4565b505050565b5b81811015610413576104085f826103dd565b6001810190506103f6565b5050565b601f82111561045857610429816102fa565b6104328461030c565b81016020851015610441578190505b61045561044d8561030c565b8301826103f5565b50505b505050565b5f82821c905092915050565b5f6104785f198460080261045d565b1980831691505092915050565b5f6104908383610469565b9150826002028217905092915050565b6104a982610266565b67ffffffffffffffff8111156104c2576104c1610270565b5b6104cc82546102ca565b6104d7828285610417565b5f60209050601f831160018114610508575f84156104f6578287015190505b6105008582610485565b865550610567565b601f198416610516866102fa565b5f5b8281101561053d57848901518255600182019150602085019450602081019050610518565b8683101561055a5784890151610556601f891682610469565b8355505b6001600288020188555050505b505050505050565b7f4e487b71000000000000000000000000000000000000000000000000000000005f52603260045260245ffd5b610aef806105a95f395ff3fe608060405234801561000f575f80fd5b5060043610610060575f3560e01c8063121ef243146100645780631d8974b11461008057806323814fc51461009c57806340b8037f146100cc578063a87430ba146100fc578063ed15b01c1461012d575b5f80fd5b61007e6004803603810190610079919061052e565b61015d565b005b61009a6004803603810190610095919061052e565b6101bc565b005b6100b660048036038101906100b19190610588565b610221565b6040516100c39190610649565b60405180910390f35b6100e660048036038101906100e19190610662565b610268565b6040516100f39190610649565b60405180910390f35b610116600480360381019061011191906106c8565b6102a3565b604051610124929190610762565b60405180910390f35b61014760048036038101906101429190610588565b610349565b6040516101549190610790565b60405180910390f35b5f60095f3373ffffffffffffffffffffffffffffffffffffffff1673ffffffffffffffffffffffffffffffffffffffff1681526020019081526020015f20905082815f0190816101ad919061099a565b50818160010181905550505050565b8060095f3373ffffffffffffffffffffffffffffffffffffffff1673ffffffffffffffffffffffffffffffffffffffff1681526020019081526020015f206002018360405161020b9190610aa3565b9081526020016040518091039020819055505050565b5f818051602081018201805184825260208301602085012081835280955050505050505f915054906101000a900473ffffffffffffffffffffffffffffffffffffffff1681565b60018181548110610277575f80fd5b905f5260205f20015f915054906101000a900473ffffffffffffffffffffffffffffffffffffffff1681565b6009602052805f5260405f205f91509050805f0180546102c2906107d6565b80601f01602080910402602001604051908101604052809291908181526020018280546102ee906107d6565b80156103395780601f1061031057610100808354040283529160200191610339565b820191905f5260205f20905b81548152906001019060200180831161031c57829003601f168201915b5050505050908060010154905082565b5f60095f3373ffffffffffffffffffffffffffffffffffffffff1673ffffffffffffffffffffffffffffffffffffffff1681526020019081526020015f20600201826040516103989190610aa3565b9081526020016040518091039020549050919050565b5f604051905090565b5f80fd5b5f80fd5b5f80fd5b5f80fd5b5f601f19601f8301169050919050565b7f4e487b71000000000000000000000000000000000000000000000000000000005f52604160045260245ffd5b61040d826103c7565b810181811067ffffffffffffffff8211171561042c5761042b6103d7565b5b80604052505050565b5f61043e6103ae565b905061044a8282610404565b919050565b5f67ffffffffffffffff821115610469576104686103d7565b5b610472826103c7565b9050602081019050919050565b828183375f83830152505050565b5f61049f61049a8461044f565b610435565b9050828152602081018484840111156104bb576104ba6103c3565b5b6104c684828561047f565b509392505050565b5f82601f8301126104e2576104e16103bf565b5b81356104f284826020860161048d565b91505092915050565b5f819050919050565b61050d816104fb565b8114610517575f80fd5b50565b5f8135905061052881610504565b92915050565b5f8060408385031215610544576105436103b7565b5b5f83013567ffffffffffffffff811115610561576105606103bb565b5b61056d858286016104ce565b925050602061057e8582860161051a565b9150509250929050565b5f6020828403121561059d5761059c6103b7565b5b5f82013567ffffffffffffffff8111156105ba576105b96103bb565b5b6105c6848285016104ce565b91505092915050565b5f73ffffffffffffffffffffffffffffffffffffffff82169050919050565b5f819050919050565b5f61061161060c610607846105cf565b6105ee565b6105cf565b9050919050565b5f610622826105f7565b9050919050565b5f61063382610618565b9050919050565b61064381610629565b82525050565b5f60208201905061065c5f83018461063a565b92915050565b5f60208284031215610677576106766103b7565b5b5f6106848482850161051a565b91505092915050565b5f610697826105cf565b9050919050565b6106a78161068d565b81146106b1575f80fd5b50565b5f813590506106c28161069e565b92915050565b5f602082840312156106dd576106dc6103b7565b5b5f6106ea848285016106b4565b91505092915050565b5f81519050919050565b5f82825260208201905092915050565b8281835e5f83830152505050565b5f610725826106f3565b61072f81856106fd565b935061073f81856020860161070d565b610748816103c7565b840191505092915050565b61075c816104fb565b82525050565b5f6040820190508181035f83015261077a818561071b565b90506107896020830184610753565b9392505050565b5f6020820190506107a35f830184610753565b92915050565b7f4e487b71000000000000000000000000000000000000000000000000000000005f52602260045260245ffd5b5f60028204905060018216806107ed57607f821691505b602082108103610800576107ff6107a9565b5b50919050565b5f819050815f5260205f209050919050565b5f6020601f8301049050919050565b5f82821b905092915050565b5f600883026108627fffffffffffffffffffffffffffffffffffffffffffffffffffffffffffffffff82610827565b61086c8683610827565b95508019841693508086168417925050509392505050565b5f61089e610899610894846104fb565b6105ee565b6104fb565b9050919050565b5f819050919050565b6108b783610884565b6108cb6108c3826108a5565b848454610833565b825550505050565b5f90565b6108df6108d3565b6108ea8184846108ae565b505050565b5b8181101561090d576109025f826108d7565b6001810190506108f0565b5050565b601f8211156109525761092381610806565b61092c84610818565b8101602085101561093b578190505b61094f61094785610818565b8301826108ef565b50505b505050565b5f82821c905092915050565b5f6109725f1984600802610957565b1980831691505092915050565b5f61098a8383610963565b9150826002028217905092915050565b6109a3826106f3565b67ffffffffffffffff8111156109bc576109bb6103d7565b5b6109c682546107d6565b6109d1828285610911565b5f60209050601f831160018114610a02575f84156109f0578287015190505b6109fa858261097f565b865550610a61565b601f198416610a1086610806565b5f5b82811015610a3757848901518255600182019150602085019450602081019050610a12565b86831015610a545784890151610a50601f891682610963565b8355505b6001600288020188555050505b505050505050565b5f81905092915050565b5f610a7d826106f3565b610a878185610a69565b9350610a9781856020860161070d565b80840191505092915050565b5f610aae8284610a73565b91508190509291505056fea2646970667358221220963a0be5618643c33b9fa1d514aafb3b3f31a0801801d3aa039c15f27d8b02d364736f6c634300081a0033",
					"opcodes": "PUSH1 0x80 PUSH1 0x40 MSTORE CALLVALUE DUP1 ISZERO PUSH2 0xF JUMPI PUSH0 DUP1 REVERT JUMPDEST POP PUSH1 0x40 MLOAD DUP1 PUSH1 0x40 ADD PUSH1 0x40 MSTORE DUP1 PUSH1 0x5 DUP2 MSTORE PUSH1 0x20 ADD PUSH32 0x6C7662616F000000000000000000000000000000000000000000000000000000 DUP2 MSTORE POP PUSH1 0x6 PUSH0 ADD SWAP1 DUP2 PUSH2 0x56 SWAP2 SWAP1 PUSH2 0x4A0 JUMP JUMPDEST POP PUSH1 0xA PUSH8 0xFFFFFFFFFFFFFFFF DUP2 GT ISZERO PUSH2 0x72 JUMPI PUSH2 0x71 PUSH2 0x270 JUMP JUMPDEST JUMPDEST PUSH1 0x40 MLOAD SWAP1 DUP1 DUP3 MSTORE DUP1 PUSH1 0x20 MUL PUSH1 0x20 ADD DUP3 ADD PUSH1 0x40 MSTORE DUP1 ISZERO PUSH2 0xA5 JUMPI DUP2 PUSH1 0x20 ADD JUMPDEST PUSH1 0x60 DUP2 MSTORE PUSH1 0x20 ADD SWAP1 PUSH1 0x1 SWAP1 SUB SWAP1 DUP2 PUSH2 0x90 JUMPI SWAP1 POP JUMPDEST POP PUSH1 0x6 PUSH1 0x1 ADD SWAP1 DUP1 MLOAD SWAP1 PUSH1 0x20 ADD SWAP1 PUSH2 0xBE SWAP3 SWAP2 SWAP1 PUSH2 0x194 JUMP JUMPDEST POP PUSH1 0x40 MLOAD DUP1 PUSH1 0x40 ADD PUSH1 0x40 MSTORE DUP1 PUSH1 0x5 DUP2 MSTORE PUSH1 0x20 ADD PUSH32 0x3132333132000000000000000000000000000000000000000000000000000000 DUP2 MSTORE POP PUSH1 0x6 PUSH1 0x1 ADD PUSH0 DUP2 SLOAD DUP2 LT PUSH2 0x10C JUMPI PUSH2 0x10B PUSH2 0x56F JUMP JUMPDEST JUMPDEST SWAP1 PUSH0 MSTORE PUSH1 0x20 PUSH0 KECCAK256 ADD SWAP1 DUP2 PUSH2 0x120 SWAP2 SWAP1 PUSH2 0x4A0 JUMP JUMPDEST POP PUSH1 0x40 MLOAD DUP1 PUSH1 0x40 ADD PUSH1 0x40 MSTORE DUP1 PUSH1 0x3 DUP2 MSTORE PUSH1 0x20 ADD PUSH32 0x7365730000000000000000000000000000000000000000000000000000000000 DUP2 MSTORE POP PUSH1 0x6 PUSH1 0x1 ADD PUSH1 0x1 DUP2 SLOAD DUP2 LT PUSH2 0x16F JUMPI PUSH2 0x16E PUSH2 0x56F JUMP JUMPDEST JUMPDEST SWAP1 PUSH0 MSTORE PUSH1 0x20 PUSH0 KECCAK256 ADD SWAP1 DUP2 PUSH2 0x183 SWAP2 SWAP1 PUSH2 0x4A0 JUMP JUMPDEST POP PUSH1 0x7B PUSH1 0x6 PUSH1 0x2 ADD DUP2 SWAP1 SSTORE POP PUSH2 0x59C JUMP JUMPDEST DUP3 DUP1 SLOAD DUP3 DUP3 SSTORE SWAP1 PUSH0 MSTORE PUSH1 0x20 PUSH0 KECCAK256 SWAP1 DUP2 ADD SWAP3 DUP3 ISZERO PUSH2 0x1DA JUMPI SWAP2 PUSH1 0x20 MUL DUP3 ADD JUMPDEST DUP3 DUP2 GT ISZERO PUSH2 0x1D9 JUMPI DUP3 MLOAD DUP3 SWAP1 DUP2 PUSH2 0x1C9 SWAP2 SWAP1 PUSH2 0x4A0 JUMP JUMPDEST POP SWAP2 PUSH1 0x20 ADD SWAP2 SWAP1 PUSH1 0x1 ADD SWAP1 PUSH2 0x1B2 JUMP JUMPDEST JUMPDEST POP SWAP1 POP PUSH2 0x1E7 SWAP2 SWAP1 PUSH2 0x1EB JUMP JUMPDEST POP SWAP1 JUMP JUMPDEST JUMPDEST DUP1 DUP3 GT ISZERO PUSH2 0x20A JUMPI PUSH0 DUP2 DUP2 PUSH2 0x201 SWAP2 SWAP1 PUSH2 0x20E JUMP JUMPDEST POP PUSH1 0x1 ADD PUSH2 0x1EC JUMP JUMPDEST POP SWAP1 JUMP JUMPDEST POP DUP1 SLOAD PUSH2 0x21A SWAP1 PUSH2 0x2CA JUMP JUMPDEST PUSH0 DUP3 SSTORE DUP1 PUSH1 0x1F LT PUSH2 0x22B JUMPI POP PUSH2 0x248 JUMP JUMPDEST PUSH1 0x1F ADD PUSH1 0x20 SWAP1 DIV SWAP1 PUSH0 MSTORE PUSH1 0x20 PUSH0 KECCAK256 SWAP1 DUP2 ADD SWAP1 PUSH2 0x247 SWAP2 SWAP1 PUSH2 0x24B JUMP JUMPDEST JUMPDEST POP JUMP JUMPDEST JUMPDEST DUP1 DUP3 GT ISZERO PUSH2 0x262 JUMPI PUSH0 DUP2 PUSH0 SWAP1 SSTORE POP PUSH1 0x1 ADD PUSH2 0x24C JUMP JUMPDEST POP SWAP1 JUMP JUMPDEST PUSH0 DUP2 MLOAD SWAP1 POP SWAP2 SWAP1 POP JUMP JUMPDEST PUSH32 0x4E487B7100000000000000000000000000000000000000000000000000000000 PUSH0 MSTORE PUSH1 0x41 PUSH1 0x4 MSTORE PUSH1 0x24 PUSH0 REVERT JUMPDEST PUSH32 0x4E487B7100000000000000000000000000000000000000000000000000000000 PUSH0 MSTORE PUSH1 0x22 PUSH1 0x4 MSTORE PUSH1 0x24 PUSH0 REVERT JUMPDEST PUSH0 PUSH1 0x2 DUP3 DIV SWAP1 POP PUSH1 0x1 DUP3 AND DUP1 PUSH2 0x2E1 JUMPI PUSH1 0x7F DUP3 AND SWAP2 POP JUMPDEST PUSH1 0x20 DUP3 LT DUP2 SUB PUSH2 0x2F4 JUMPI PUSH2 0x2F3 PUSH2 0x29D JUMP JUMPDEST JUMPDEST POP SWAP2 SWAP1 POP JUMP JUMPDEST PUSH0 DUP2 SWAP1 POP DUP2 PUSH0 MSTORE PUSH1 0x20 PUSH0 KECCAK256 SWAP1 POP SWAP2 SWAP1 POP JUMP JUMPDEST PUSH0 PUSH1 0x20 PUSH1 0x1F DUP4 ADD DIV SWAP1 POP SWAP2 SWAP1 POP JUMP JUMPDEST PUSH0 DUP3 DUP3 SHL SWAP1 POP SWAP3 SWAP2 POP POP JUMP JUMPDEST PUSH0 PUSH1 0x8 DUP4 MUL PUSH2 0x356 PUSH32 0xFFFFFFFFFFFFFFFFFFFFFFFFFFFFFFFFFFFFFFFFFFFFFFFFFFFFFFFFFFFFFFFF DUP3 PUSH2 0x31B JUMP JUMPDEST PUSH2 0x360 DUP7 DUP4 PUSH2 0x31B JUMP JUMPDEST SWAP6 POP DUP1 NOT DUP5 AND SWAP4 POP DUP1 DUP7 AND DUP5 OR SWAP3 POP POP POP SWAP4 SWAP3 POP POP POP JUMP JUMPDEST PUSH0 DUP2 SWAP1 POP SWAP2 SWAP1 POP JUMP JUMPDEST PUSH0 DUP2 SWAP1 POP SWAP2 SWAP1 POP JUMP JUMPDEST PUSH0 PUSH2 0x3A4 PUSH2 0x39F PUSH2 0x39A DUP5 PUSH2 0x378 JUMP JUMPDEST PUSH2 0x381 JUMP JUMPDEST PUSH2 0x378 JUMP JUMPDEST SWAP1 POP SWAP2 SWAP1 POP JUMP JUMPDEST PUSH0 DUP2 SWAP1 POP SWAP2 SWAP1 POP JUMP JUMPDEST PUSH2 0x3BD DUP4 PUSH2 0x38A JUMP JUMPDEST PUSH2 0x3D1 PUSH2 0x3C9 DUP3 PUSH2 0x3AB JUMP JUMPDEST DUP5 DUP5 SLOAD PUSH2 0x327 JUMP JUMPDEST DUP3 SSTORE POP POP POP POP JUMP JUMPDEST PUSH0 SWAP1 JUMP JUMPDEST PUSH2 0x3E5 PUSH2 0x3D9 JUMP JUMPDEST PUSH2 0x3F0 DUP2 DUP5 DUP5 PUSH2 0x3B4 JUMP JUMPDEST POP POP POP JUMP JUMPDEST JUMPDEST DUP2 DUP2 LT ISZERO PUSH2 0x413 JUMPI PUSH2 0x408 PUSH0 DUP3 PUSH2 0x3DD JUMP JUMPDEST PUSH1 0x1 DUP2 ADD SWAP1 POP PUSH2 0x3F6 JUMP JUMPDEST POP POP JUMP JUMPDEST PUSH1 0x1F DUP3 GT ISZERO PUSH2 0x458 JUMPI PUSH2 0x429 DUP2 PUSH2 0x2FA JUMP JUMPDEST PUSH2 0x432 DUP5 PUSH2 0x30C JUMP JUMPDEST DUP2 ADD PUSH1 0x20 DUP6 LT ISZERO PUSH2 0x441 JUMPI DUP2 SWAP1 POP JUMPDEST PUSH2 0x455 PUSH2 0x44D DUP6 PUSH2 0x30C JUMP JUMPDEST DUP4 ADD DUP3 PUSH2 0x3F5 JUMP JUMPDEST POP POP JUMPDEST POP POP POP JUMP JUMPDEST PUSH0 DUP3 DUP3 SHR SWAP1 POP SWAP3 SWAP2 POP POP JUMP JUMPDEST PUSH0 PUSH2 0x478 PUSH0 NOT DUP5 PUSH1 0x8 MUL PUSH2 0x45D JUMP JUMPDEST NOT DUP1 DUP4 AND SWAP2 POP POP SWAP3 SWAP2 POP POP JUMP JUMPDEST PUSH0 PUSH2 0x490 DUP4 DUP4 PUSH2 0x469 JUMP JUMPDEST SWAP2 POP DUP3 PUSH1 0x2 MUL DUP3 OR SWAP1 POP SWAP3 SWAP2 POP POP JUMP JUMPDEST PUSH2 0x4A9 DUP3 PUSH2 0x266 JUMP JUMPDEST PUSH8 0xFFFFFFFFFFFFFFFF DUP2 GT ISZERO PUSH2 0x4C2 JUMPI PUSH2 0x4C1 PUSH2 0x270 JUMP JUMPDEST JUMPDEST PUSH2 0x4CC DUP3 SLOAD PUSH2 0x2CA JUMP JUMPDEST PUSH2 0x4D7 DUP3 DUP3 DUP6 PUSH2 0x417 JUMP JUMPDEST PUSH0 PUSH1 0x20 SWAP1 POP PUSH1 0x1F DUP4 GT PUSH1 0x1 DUP2 EQ PUSH2 0x508 JUMPI PUSH0 DUP5 ISZERO PUSH2 0x4F6 JUMPI DUP3 DUP8 ADD MLOAD SWAP1 POP JUMPDEST PUSH2 0x500 DUP6 DUP3 PUSH2 0x485 JUMP JUMPDEST DUP7 SSTORE POP PUSH2 0x567 JUMP JUMPDEST PUSH1 0x1F NOT DUP5 AND PUSH2 0x516 DUP7 PUSH2 0x2FA JUMP JUMPDEST PUSH0 JUMPDEST DUP3 DUP2 LT ISZERO PUSH2 0x53D JUMPI DUP5 DUP10 ADD MLOAD DUP3 SSTORE PUSH1 0x1 DUP3 ADD SWAP2 POP PUSH1 0x20 DUP6 ADD SWAP5 POP PUSH1 0x20 DUP2 ADD SWAP1 POP PUSH2 0x518 JUMP JUMPDEST DUP7 DUP4 LT ISZERO PUSH2 0x55A JUMPI DUP5 DUP10 ADD MLOAD PUSH2 0x556 PUSH1 0x1F DUP10 AND DUP3 PUSH2 0x469 JUMP JUMPDEST DUP4 SSTORE POP JUMPDEST PUSH1 0x1 PUSH1 0x2 DUP9 MUL ADD DUP9 SSTORE POP POP POP JUMPDEST POP POP POP POP POP POP JUMP JUMPDEST PUSH32 0x4E487B7100000000000000000000000000000000000000000000000000000000 PUSH0 MSTORE PUSH1 0x32 PUSH1 0x4 MSTORE PUSH1 0x24 PUSH0 REVERT JUMPDEST PUSH2 0xAEF DUP1 PUSH2 0x5A9 PUSH0 CODECOPY PUSH0 RETURN INVALID PUSH1 0x80 PUSH1 0x40 MSTORE CALLVALUE DUP1 ISZERO PUSH2 0xF JUMPI PUSH0 DUP1 REVERT JUMPDEST POP PUSH1 0x4 CALLDATASIZE LT PUSH2 0x60 JUMPI PUSH0 CALLDATALOAD PUSH1 0xE0 SHR DUP1 PUSH4 0x121EF243 EQ PUSH2 0x64 JUMPI DUP1 PUSH4 0x1D8974B1 EQ PUSH2 0x80 JUMPI DUP1 PUSH4 0x23814FC5 EQ PUSH2 0x9C JUMPI DUP1 PUSH4 0x40B8037F EQ PUSH2 0xCC JUMPI DUP1 PUSH4 0xA87430BA EQ PUSH2 0xFC JUMPI DUP1 PUSH4 0xED15B01C EQ PUSH2 0x12D JUMPI JUMPDEST PUSH0 DUP1 REVERT JUMPDEST PUSH2 0x7E PUSH1 0x4 DUP1 CALLDATASIZE SUB DUP2 ADD SWAP1 PUSH2 0x79 SWAP2 SWAP1 PUSH2 0x52E JUMP JUMPDEST PUSH2 0x15D JUMP JUMPDEST STOP JUMPDEST PUSH2 0x9A PUSH1 0x4 DUP1 CALLDATASIZE SUB DUP2 ADD SWAP1 PUSH2 0x95 SWAP2 SWAP1 PUSH2 0x52E JUMP JUMPDEST PUSH2 0x1BC JUMP JUMPDEST STOP JUMPDEST PUSH2 0xB6 PUSH1 0x4 DUP1 CALLDATASIZE SUB DUP2 ADD SWAP1 PUSH2 0xB1 SWAP2 SWAP1 PUSH2 0x588 JUMP JUMPDEST PUSH2 0x221 JUMP JUMPDEST PUSH1 0x40 MLOAD PUSH2 0xC3 SWAP2 SWAP1 PUSH2 0x649 JUMP JUMPDEST PUSH1 0x40 MLOAD DUP1 SWAP2 SUB SWAP1 RETURN JUMPDEST PUSH2 0xE6 PUSH1 0x4 DUP1 CALLDATASIZE SUB DUP2 ADD SWAP1 PUSH2 0xE1 SWAP2 SWAP1 PUSH2 0x662 JUMP JUMPDEST PUSH2 0x268 JUMP JUMPDEST PUSH1 0x40 MLOAD PUSH2 0xF3 SWAP2 SWAP1 PUSH2 0x649 JUMP JUMPDEST PUSH1 0x40 MLOAD DUP1 SWAP2 SUB SWAP1 RETURN JUMPDEST PUSH2 0x116 PUSH1 0x4 DUP1 CALLDATASIZE SUB DUP2 ADD SWAP1 PUSH2 0x111 SWAP2 SWAP1 PUSH2 0x6C8 JUMP JUMPDEST PUSH2 0x2A3 JUMP JUMPDEST PUSH1 0x40 MLOAD PUSH2 0x124 SWAP3 SWAP2 SWAP1 PUSH2 0x762 JUMP JUMPDEST PUSH1 0x40 MLOAD DUP1 SWAP2 SUB SWAP1 RETURN JUMPDEST PUSH2 0x147 PUSH1 0x4 DUP1 CALLDATASIZE SUB DUP2 ADD SWAP1 PUSH2 0x142 SWAP2 SWAP1 PUSH2 0x588 JUMP JUMPDEST PUSH2 0x349 JUMP JUMPDEST PUSH1 0x40 MLOAD PUSH2 0x154 SWAP2 SWAP1 PUSH2 0x790 JUMP JUMPDEST PUSH1 0x40 MLOAD DUP1 SWAP2 SUB SWAP1 RETURN JUMPDEST PUSH0 PUSH1 0x9 PUSH0 CALLER PUSH20 0xFFFFFFFFFFFFFFFFFFFFFFFFFFFFFFFFFFFFFFFF AND PUSH20 0xFFFFFFFFFFFFFFFFFFFFFFFFFFFFFFFFFFFFFFFF AND DUP2 MSTORE PUSH1 0x20 ADD SWAP1 DUP2 MSTORE PUSH1 0x20 ADD PUSH0 KECCAK256 SWAP1 POP DUP3 DUP2 PUSH0 ADD SWAP1 DUP2 PUSH2 0x1AD SWAP2 SWAP1 PUSH2 0x99A JUMP JUMPDEST POP DUP2 DUP2 PUSH1 0x1 ADD DUP2 SWAP1 SSTORE POP POP POP POP JUMP JUMPDEST DUP1 PUSH1 0x9 PUSH0 CALLER PUSH20 0xFFFFFFFFFFFFFFFFFFFFFFFFFFFFFFFFFFFFFFFF AND PUSH20 0xFFFFFFFFFFFFFFFFFFFFFFFFFFFFFFFFFFFFFFFF AND DUP2 MSTORE PUSH1 0x20 ADD SWAP1 DUP2 MSTORE PUSH1 0x20 ADD PUSH0 KECCAK256 PUSH1 0x2 ADD DUP4 PUSH1 0x40 MLOAD PUSH2 0x20B SWAP2 SWAP1 PUSH2 0xAA3 JUMP JUMPDEST SWAP1 DUP2 MSTORE PUSH1 0x20 ADD PUSH1 0x40 MLOAD DUP1 SWAP2 SUB SWAP1 KECCAK256 DUP2 SWAP1 SSTORE POP POP POP JUMP JUMPDEST PUSH0 DUP2 DUP1 MLOAD PUSH1 0x20 DUP2 ADD DUP3 ADD DUP1 MLOAD DUP5 DUP3 MSTORE PUSH1 0x20 DUP4 ADD PUSH1 0x20 DUP6 ADD KECCAK256 DUP2 DUP4 MSTORE DUP1 SWAP6 POP POP POP POP POP POP PUSH0 SWAP2 POP SLOAD SWAP1 PUSH2 0x100 EXP SWAP1 DIV PUSH20 0xFFFFFFFFFFFFFFFFFFFFFFFFFFFFFFFFFFFFFFFF AND DUP2 JUMP JUMPDEST PUSH1 0x1 DUP2 DUP2 SLOAD DUP2 LT PUSH2 0x277 JUMPI PUSH0 DUP1 REVERT JUMPDEST SWAP1 PUSH0 MSTORE PUSH1 0x20 PUSH0 KECCAK256 ADD PUSH0 SWAP2 POP SLOAD SWAP1 PUSH2 0x100 EXP SWAP1 DIV PUSH20 0xFFFFFFFFFFFFFFFFFFFFFFFFFFFFFFFFFFFFFFFF AND DUP2 JUMP JUMPDEST PUSH1 0x9 PUSH1 0x20 MSTORE DUP1 PUSH0 MSTORE PUSH1 0x40 PUSH0 KECCAK256 PUSH0 SWAP2 POP SWAP1 POP DUP1 PUSH0 ADD DUP1 SLOAD PUSH2 0x2C2 SWAP1 PUSH2 0x7D6 JUMP JUMPDEST DUP1 PUSH1 0x1F ADD PUSH1 0x20 DUP1 SWAP2 DIV MUL PUSH1 0x20 ADD PUSH1 0x40 MLOAD SWAP1 DUP2 ADD PUSH1 0x40 MSTORE DUP1 SWAP3 SWAP2 SWAP1 DUP2 DUP2 MSTORE PUSH1 0x20 ADD DUP3 DUP1 SLOAD PUSH2 0x2EE SWAP1 PUSH2 0x7D6 JUMP JUMPDEST DUP1 ISZERO PUSH2 0x339 JUMPI DUP1 PUSH1 0x1F LT PUSH2 0x310 JUMPI PUSH2 0x100 DUP1 DUP4 SLOAD DIV MUL DUP4 MSTORE SWAP2 PUSH1 0x20 ADD SWAP2 PUSH2 0x339 JUMP JUMPDEST DUP3 ADD SWAP2 SWAP1 PUSH0 MSTORE PUSH1 0x20 PUSH0 KECCAK256 SWAP1 JUMPDEST DUP2 SLOAD DUP2 MSTORE SWAP1 PUSH1 0x1 ADD SWAP1 PUSH1 0x20 ADD DUP1 DUP4 GT PUSH2 0x31C JUMPI DUP3 SWAP1 SUB PUSH1 0x1F AND DUP3 ADD SWAP2 JUMPDEST POP POP POP POP POP SWAP1 DUP1 PUSH1 0x1 ADD SLOAD SWAP1 POP DUP3 JUMP JUMPDEST PUSH0 PUSH1 0x9 PUSH0 CALLER PUSH20 0xFFFFFFFFFFFFFFFFFFFFFFFFFFFFFFFFFFFFFFFF AND PUSH20 0xFFFFFFFFFFFFFFFFFFFFFFFFFFFFFFFFFFFFFFFF AND DUP2 MSTORE PUSH1 0x20 ADD SWAP1 DUP2 MSTORE PUSH1 0x20 ADD PUSH0 KECCAK256 PUSH1 0x2 ADD DUP3 PUSH1 0x40 MLOAD PUSH2 0x398 SWAP2 SWAP1 PUSH2 0xAA3 JUMP JUMPDEST SWAP1 DUP2 MSTORE PUSH1 0x20 ADD PUSH1 0x40 MLOAD DUP1 SWAP2 SUB SWAP1 KECCAK256 SLOAD SWAP1 POP SWAP2 SWAP1 POP JUMP JUMPDEST PUSH0 PUSH1 0x40 MLOAD SWAP1 POP SWAP1 JUMP JUMPDEST PUSH0 DUP1 REVERT JUMPDEST PUSH0 DUP1 REVERT JUMPDEST PUSH0 DUP1 REVERT JUMPDEST PUSH0 DUP1 REVERT JUMPDEST PUSH0 PUSH1 0x1F NOT PUSH1 0x1F DUP4 ADD AND SWAP1 POP SWAP2 SWAP1 POP JUMP JUMPDEST PUSH32 0x4E487B7100000000000000000000000000000000000000000000000000000000 PUSH0 MSTORE PUSH1 0x41 PUSH1 0x4 MSTORE PUSH1 0x24 PUSH0 REVERT JUMPDEST PUSH2 0x40D DUP3 PUSH2 0x3C7 JUMP JUMPDEST DUP2 ADD DUP2 DUP2 LT PUSH8 0xFFFFFFFFFFFFFFFF DUP3 GT OR ISZERO PUSH2 0x42C JUMPI PUSH2 0x42B PUSH2 0x3D7 JUMP JUMPDEST JUMPDEST DUP1 PUSH1 0x40 MSTORE POP POP POP JUMP JUMPDEST PUSH0 PUSH2 0x43E PUSH2 0x3AE JUMP JUMPDEST SWAP1 POP PUSH2 0x44A DUP3 DUP3 PUSH2 0x404 JUMP JUMPDEST SWAP2 SWAP1 POP JUMP JUMPDEST PUSH0 PUSH8 0xFFFFFFFFFFFFFFFF DUP3 GT ISZERO PUSH2 0x469 JUMPI PUSH2 0x468 PUSH2 0x3D7 JUMP JUMPDEST JUMPDEST PUSH2 0x472 DUP3 PUSH2 0x3C7 JUMP JUMPDEST SWAP1 POP PUSH1 0x20 DUP2 ADD SWAP1 POP SWAP2 SWAP1 POP JUMP JUMPDEST DUP3 DUP2 DUP4 CALLDATACOPY PUSH0 DUP4 DUP4 ADD MSTORE POP POP POP JUMP JUMPDEST PUSH0 PUSH2 0x49F PUSH2 0x49A DUP5 PUSH2 0x44F JUMP JUMPDEST PUSH2 0x435 JUMP JUMPDEST SWAP1 POP DUP3 DUP2 MSTORE PUSH1 0x20 DUP2 ADD DUP5 DUP5 DUP5 ADD GT ISZERO PUSH2 0x4BB JUMPI PUSH2 0x4BA PUSH2 0x3C3 JUMP JUMPDEST JUMPDEST PUSH2 0x4C6 DUP5 DUP3 DUP6 PUSH2 0x47F JUMP JUMPDEST POP SWAP4 SWAP3 POP POP POP JUMP JUMPDEST PUSH0 DUP3 PUSH1 0x1F DUP4 ADD SLT PUSH2 0x4E2 JUMPI PUSH2 0x4E1 PUSH2 0x3BF JUMP JUMPDEST JUMPDEST DUP2 CALLDATALOAD PUSH2 0x4F2 DUP5 DUP3 PUSH1 0x20 DUP7 ADD PUSH2 0x48D JUMP JUMPDEST SWAP2 POP POP SWAP3 SWAP2 POP POP JUMP JUMPDEST PUSH0 DUP2 SWAP1 POP SWAP2 SWAP1 POP JUMP JUMPDEST PUSH2 0x50D DUP2 PUSH2 0x4FB JUMP JUMPDEST DUP2 EQ PUSH2 0x517 JUMPI PUSH0 DUP1 REVERT JUMPDEST POP JUMP JUMPDEST PUSH0 DUP2 CALLDATALOAD SWAP1 POP PUSH2 0x528 DUP2 PUSH2 0x504 JUMP JUMPDEST SWAP3 SWAP2 POP POP JUMP JUMPDEST PUSH0 DUP1 PUSH1 0x40 DUP4 DUP6 SUB SLT ISZERO PUSH2 0x544 JUMPI PUSH2 0x543 PUSH2 0x3B7 JUMP JUMPDEST JUMPDEST PUSH0 DUP4 ADD CALLDATALOAD PUSH8 0xFFFFFFFFFFFFFFFF DUP2 GT ISZERO PUSH2 0x561 JUMPI PUSH2 0x560 PUSH2 0x3BB JUMP JUMPDEST JUMPDEST PUSH2 0x56D DUP6 DUP3 DUP7 ADD PUSH2 0x4CE JUMP JUMPDEST SWAP3 POP POP PUSH1 0x20 PUSH2 0x57E DUP6 DUP3 DUP7 ADD PUSH2 0x51A JUMP JUMPDEST SWAP2 POP POP SWAP3 POP SWAP3 SWAP1 POP JUMP JUMPDEST PUSH0 PUSH1 0x20 DUP3 DUP5 SUB SLT ISZERO PUSH2 0x59D JUMPI PUSH2 0x59C PUSH2 0x3B7 JUMP JUMPDEST JUMPDEST PUSH0 DUP3 ADD CALLDATALOAD PUSH8 0xFFFFFFFFFFFFFFFF DUP2 GT ISZERO PUSH2 0x5BA JUMPI PUSH2 0x5B9 PUSH2 0x3BB JUMP JUMPDEST JUMPDEST PUSH2 0x5C6 DUP5 DUP3 DUP6 ADD PUSH2 0x4CE JUMP JUMPDEST SWAP2 POP POP SWAP3 SWAP2 POP POP JUMP JUMPDEST PUSH0 PUSH20 0xFFFFFFFFFFFFFFFFFFFFFFFFFFFFFFFFFFFFFFFF DUP3 AND SWAP1 POP SWAP2 SWAP1 POP JUMP JUMPDEST PUSH0 DUP2 SWAP1 POP SWAP2 SWAP1 POP JUMP JUMPDEST PUSH0 PUSH2 0x611 PUSH2 0x60C PUSH2 0x607 DUP5 PUSH2 0x5CF JUMP JUMPDEST PUSH2 0x5EE JUMP JUMPDEST PUSH2 0x5CF JUMP JUMPDEST SWAP1 POP SWAP2 SWAP1 POP JUMP JUMPDEST PUSH0 PUSH2 0x622 DUP3 PUSH2 0x5F7 JUMP JUMPDEST SWAP1 POP SWAP2 SWAP1 POP JUMP JUMPDEST PUSH0 PUSH2 0x633 DUP3 PUSH2 0x618 JUMP JUMPDEST SWAP1 POP SWAP2 SWAP1 POP JUMP JUMPDEST PUSH2 0x643 DUP2 PUSH2 0x629 JUMP JUMPDEST DUP3 MSTORE POP POP JUMP JUMPDEST PUSH0 PUSH1 0x20 DUP3 ADD SWAP1 POP PUSH2 0x65C PUSH0 DUP4 ADD DUP5 PUSH2 0x63A JUMP JUMPDEST SWAP3 SWAP2 POP POP JUMP JUMPDEST PUSH0 PUSH1 0x20 DUP3 DUP5 SUB SLT ISZERO PUSH2 0x677 JUMPI PUSH2 0x676 PUSH2 0x3B7 JUMP JUMPDEST JUMPDEST PUSH0 PUSH2 0x684 DUP5 DUP3 DUP6 ADD PUSH2 0x51A JUMP JUMPDEST SWAP2 POP POP SWAP3 SWAP2 POP POP JUMP JUMPDEST PUSH0 PUSH2 0x697 DUP3 PUSH2 0x5CF JUMP JUMPDEST SWAP1 POP SWAP2 SWAP1 POP JUMP JUMPDEST PUSH2 0x6A7 DUP2 PUSH2 0x68D JUMP JUMPDEST DUP2 EQ PUSH2 0x6B1 JUMPI PUSH0 DUP1 REVERT JUMPDEST POP JUMP JUMPDEST PUSH0 DUP2 CALLDATALOAD SWAP1 POP PUSH2 0x6C2 DUP2 PUSH2 0x69E JUMP JUMPDEST SWAP3 SWAP2 POP POP JUMP JUMPDEST PUSH0 PUSH1 0x20 DUP3 DUP5 SUB SLT ISZERO PUSH2 0x6DD JUMPI PUSH2 0x6DC PUSH2 0x3B7 JUMP JUMPDEST JUMPDEST PUSH0 PUSH2 0x6EA DUP5 DUP3 DUP6 ADD PUSH2 0x6B4 JUMP JUMPDEST SWAP2 POP POP SWAP3 SWAP2 POP POP JUMP JUMPDEST PUSH0 DUP2 MLOAD SWAP1 POP SWAP2 SWAP1 POP JUMP JUMPDEST PUSH0 DUP3 DUP3 MSTORE PUSH1 0x20 DUP3 ADD SWAP1 POP SWAP3 SWAP2 POP POP JUMP JUMPDEST DUP3 DUP2 DUP4 MCOPY PUSH0 DUP4 DUP4 ADD MSTORE POP POP POP JUMP JUMPDEST PUSH0 PUSH2 0x725 DUP3 PUSH2 0x6F3 JUMP JUMPDEST PUSH2 0x72F DUP2 DUP6 PUSH2 0x6FD JUMP JUMPDEST SWAP4 POP PUSH2 0x73F DUP2 DUP6 PUSH1 0x20 DUP7 ADD PUSH2 0x70D JUMP JUMPDEST PUSH2 0x748 DUP2 PUSH2 0x3C7 JUMP JUMPDEST DUP5 ADD SWAP2 POP POP SWAP3 SWAP2 POP POP JUMP JUMPDEST PUSH2 0x75C DUP2 PUSH2 0x4FB JUMP JUMPDEST DUP3 MSTORE POP POP JUMP JUMPDEST PUSH0 PUSH1 0x40 DUP3 ADD SWAP1 POP DUP2 DUP2 SUB PUSH0 DUP4 ADD MSTORE PUSH2 0x77A DUP2 DUP6 PUSH2 0x71B JUMP JUMPDEST SWAP1 POP PUSH2 0x789 PUSH1 0x20 DUP4 ADD DUP5 PUSH2 0x753 JUMP JUMPDEST SWAP4 SWAP3 POP POP POP JUMP JUMPDEST PUSH0 PUSH1 0x20 DUP3 ADD SWAP1 POP PUSH2 0x7A3 PUSH0 DUP4 ADD DUP5 PUSH2 0x753 JUMP JUMPDEST SWAP3 SWAP2 POP POP JUMP JUMPDEST PUSH32 0x4E487B7100000000000000000000000000000000000000000000000000000000 PUSH0 MSTORE PUSH1 0x22 PUSH1 0x4 MSTORE PUSH1 0x24 PUSH0 REVERT JUMPDEST PUSH0 PUSH1 0x2 DUP3 DIV SWAP1 POP PUSH1 0x1 DUP3 AND DUP1 PUSH2 0x7ED JUMPI PUSH1 0x7F DUP3 AND SWAP2 POP JUMPDEST PUSH1 0x20 DUP3 LT DUP2 SUB PUSH2 0x800 JUMPI PUSH2 0x7FF PUSH2 0x7A9 JUMP JUMPDEST JUMPDEST POP SWAP2 SWAP1 POP JUMP JUMPDEST PUSH0 DUP2 SWAP1 POP DUP2 PUSH0 MSTORE PUSH1 0x20 PUSH0 KECCAK256 SWAP1 POP SWAP2 SWAP1 POP JUMP JUMPDEST PUSH0 PUSH1 0x20 PUSH1 0x1F DUP4 ADD DIV SWAP1 POP SWAP2 SWAP1 POP JUMP JUMPDEST PUSH0 DUP3 DUP3 SHL SWAP1 POP SWAP3 SWAP2 POP POP JUMP JUMPDEST PUSH0 PUSH1 0x8 DUP4 MUL PUSH2 0x862 PUSH32 0xFFFFFFFFFFFFFFFFFFFFFFFFFFFFFFFFFFFFFFFFFFFFFFFFFFFFFFFFFFFFFFFF DUP3 PUSH2 0x827 JUMP JUMPDEST PUSH2 0x86C DUP7 DUP4 PUSH2 0x827 JUMP JUMPDEST SWAP6 POP DUP1 NOT DUP5 AND SWAP4 POP DUP1 DUP7 AND DUP5 OR SWAP3 POP POP POP SWAP4 SWAP3 POP POP POP JUMP JUMPDEST PUSH0 PUSH2 0x89E PUSH2 0x899 PUSH2 0x894 DUP5 PUSH2 0x4FB JUMP JUMPDEST PUSH2 0x5EE JUMP JUMPDEST PUSH2 0x4FB JUMP JUMPDEST SWAP1 POP SWAP2 SWAP1 POP JUMP JUMPDEST PUSH0 DUP2 SWAP1 POP SWAP2 SWAP1 POP JUMP JUMPDEST PUSH2 0x8B7 DUP4 PUSH2 0x884 JUMP JUMPDEST PUSH2 0x8CB PUSH2 0x8C3 DUP3 PUSH2 0x8A5 JUMP JUMPDEST DUP5 DUP5 SLOAD PUSH2 0x833 JUMP JUMPDEST DUP3 SSTORE POP POP POP POP JUMP JUMPDEST PUSH0 SWAP1 JUMP JUMPDEST PUSH2 0x8DF PUSH2 0x8D3 JUMP JUMPDEST PUSH2 0x8EA DUP2 DUP5 DUP5 PUSH2 0x8AE JUMP JUMPDEST POP POP POP JUMP JUMPDEST JUMPDEST DUP2 DUP2 LT ISZERO PUSH2 0x90D JUMPI PUSH2 0x902 PUSH0 DUP3 PUSH2 0x8D7 JUMP JUMPDEST PUSH1 0x1 DUP2 ADD SWAP1 POP PUSH2 0x8F0 JUMP JUMPDEST POP POP JUMP JUMPDEST PUSH1 0x1F DUP3 GT ISZERO PUSH2 0x952 JUMPI PUSH2 0x923 DUP2 PUSH2 0x806 JUMP JUMPDEST PUSH2 0x92C DUP5 PUSH2 0x818 JUMP JUMPDEST DUP2 ADD PUSH1 0x20 DUP6 LT ISZERO PUSH2 0x93B JUMPI DUP2 SWAP1 POP JUMPDEST PUSH2 0x94F PUSH2 0x947 DUP6 PUSH2 0x818 JUMP JUMPDEST DUP4 ADD DUP3 PUSH2 0x8EF JUMP JUMPDEST POP POP JUMPDEST POP POP POP JUMP JUMPDEST PUSH0 DUP3 DUP3 SHR SWAP1 POP SWAP3 SWAP2 POP POP JUMP JUMPDEST PUSH0 PUSH2 0x972 PUSH0 NOT DUP5 PUSH1 0x8 MUL PUSH2 0x957 JUMP JUMPDEST NOT DUP1 DUP4 AND SWAP2 POP POP SWAP3 SWAP2 POP POP JUMP JUMPDEST PUSH0 PUSH2 0x98A DUP4 DUP4 PUSH2 0x963 JUMP JUMPDEST SWAP2 POP DUP3 PUSH1 0x2 MUL DUP3 OR SWAP1 POP SWAP3 SWAP2 POP POP JUMP JUMPDEST PUSH2 0x9A3 DUP3 PUSH2 0x6F3 JUMP JUMPDEST PUSH8 0xFFFFFFFFFFFFFFFF DUP2 GT ISZERO PUSH2 0x9BC JUMPI PUSH2 0x9BB PUSH2 0x3D7 JUMP JUMPDEST JUMPDEST PUSH2 0x9C6 DUP3 SLOAD PUSH2 0x7D6 JUMP JUMPDEST PUSH2 0x9D1 DUP3 DUP3 DUP6 PUSH2 0x911 JUMP JUMPDEST PUSH0 PUSH1 0x20 SWAP1 POP PUSH1 0x1F DUP4 GT PUSH1 0x1 DUP2 EQ PUSH2 0xA02 JUMPI PUSH0 DUP5 ISZERO PUSH2 0x9F0 JUMPI DUP3 DUP8 ADD MLOAD SWAP1 POP JUMPDEST PUSH2 0x9FA DUP6 DUP3 PUSH2 0x97F JUMP JUMPDEST DUP7 SSTORE POP PUSH2 0xA61 JUMP JUMPDEST PUSH1 0x1F NOT DUP5 AND PUSH2 0xA10 DUP7 PUSH2 0x806 JUMP JUMPDEST PUSH0 JUMPDEST DUP3 DUP2 LT ISZERO PUSH2 0xA37 JUMPI DUP5 DUP10 ADD MLOAD DUP3 SSTORE PUSH1 0x1 DUP3 ADD SWAP2 POP PUSH1 0x20 DUP6 ADD SWAP5 POP PUSH1 0x20 DUP2 ADD SWAP1 POP PUSH2 0xA12 JUMP JUMPDEST DUP7 DUP4 LT ISZERO PUSH2 0xA54 JUMPI DUP5 DUP10 ADD MLOAD PUSH2 0xA50 PUSH1 0x1F DUP10 AND DUP3 PUSH2 0x963 JUMP JUMPDEST DUP4 SSTORE POP JUMPDEST PUSH1 0x1 PUSH1 0x2 DUP9 MUL ADD DUP9 SSTORE POP POP POP JUMPDEST POP POP POP POP POP POP JUMP JUMPDEST PUSH0 DUP2 SWAP1 POP SWAP3 SWAP2 POP POP JUMP JUMPDEST PUSH0 PUSH2 0xA7D DUP3 PUSH2 0x6F3 JUMP JUMPDEST PUSH2 0xA87 DUP2 DUP6 PUSH2 0xA69 JUMP JUMPDEST SWAP4 POP PUSH2 0xA97 DUP2 DUP6 PUSH1 0x20 DUP7 ADD PUSH2 0x70D JUMP JUMPDEST DUP1 DUP5 ADD SWAP2 POP POP SWAP3 SWAP2 POP POP JUMP JUMPDEST PUSH0 PUSH2 0xAAE DUP3 DUP5 PUSH2 0xA73 JUMP JUMPDEST SWAP2 POP DUP2 SWAP1 POP SWAP3 SWAP2 POP POP JUMP INVALID LOG2 PUSH5 0x6970667358 0x22 SLT KECCAK256 SWAP7 GASPRICE SIGNEXTEND 0xE5 PUSH2 0x8643 0xC3 EXTCODESIZE SWAP16 LOG1 0xD5 EQ 0xAA 0xFB EXTCODESIZE EXTCODEHASH BALANCE LOG0 DUP1 XOR ADD 0xD3 0xAA SUB SWAP13 ISZERO CALLCODE PUSH30 0x8B02D364736F6C634300081A003300000000000000000000000000000000 "
				},
				"gasEstimates": {
					"creation": {
						"codeDepositCost": "559800",
						"executionCost": "infinite",
						"totalCost": "infinite"
					},
					"external": {
						"createUser(string,uint256)": "infinite",
						"getUsersScore(string)": "infinite",
						"map(string)": "infinite",
						"structArr(uint256)": "infinite",
						"updateUsersScore(string,uint256)": "infinite",
						"users(address)": "infinite"
					}
				},
				"methodIdentifiers": {
					"createUser(string,uint256)": "121ef243",
					"getUsersScore(string)": "ed15b01c",
					"map(string)": "23814fc5",
					"structArr(uint256)": "40b8037f",
					"updateUsersScore(string,uint256)": "1d8974b1",
					"users(address)": "a87430ba"
				}
			},
			"storageLayout": {
				"storage": [
					{
						"astId": 6,
						"contract": "solidity-1base/9/StructDemo.sol:StructDemo",
						"label": "map",
						"offset": 0,
						"slot": "0",
						"type": "t_mapping(t_string_memory_ptr,t_contract(StructDemo)146)"
					},
					{
						"astId": 10,
						"contract": "solidity-1base/9/StructDemo.sol:StructDemo",
						"label": "structArr",
						"offset": 0,
						"slot": "1",
						"type": "t_array(t_contract(StructDemo)146)dyn_storage"
					},
					{
						"astId": 13,
						"contract": "solidity-1base/9/StructDemo.sol:StructDemo",
						"label": "demo",
						"offset": 0,
						"slot": "2",
						"type": "t_contract(StructDemo)146"
					},
					{
						"astId": 16,
						"contract": "solidity-1base/9/StructDemo.sol:StructDemo",
						"label": "st1",
						"offset": 0,
						"slot": "3",
						"type": "t_struct(StructType1)69_storage"
					},
					{
						"astId": 19,
						"contract": "solidity-1base/9/StructDemo.sol:StructDemo",
						"label": "st2",
						"offset": 0,
						"slot": "6",
						"type": "t_struct(StructType1)69_storage"
					},
					{
						"astId": 83,
						"contract": "solidity-1base/9/StructDemo.sol:StructDemo",
						"label": "users",
						"offset": 0,
						"slot": "9",
						"type": "t_mapping(t_address,t_struct(User)78_storage)"
					}
				],
				"types": {
					"t_address": {
						"encoding": "inplace",
						"label": "address",
						"numberOfBytes": "20"
					},
					"t_array(t_contract(StructDemo)146)dyn_storage": {
						"base": "t_contract(StructDemo)146",
						"encoding": "dynamic_array",
						"label": "contract StructDemo[]",
						"numberOfBytes": "32"
					},
					"t_array(t_string_storage)dyn_storage": {
						"base": "t_string_storage",
						"encoding": "dynamic_array",
						"label": "string[]",
						"numberOfBytes": "32"
					},
					"t_contract(StructDemo)146": {
						"encoding": "inplace",
						"label": "contract StructDemo",
						"numberOfBytes": "20"
					},
					"t_mapping(t_address,t_struct(User)78_storage)": {
						"encoding": "mapping",
						"key": "t_address",
						"label": "mapping(address => struct StructDemo.User)",
						"numberOfBytes": "32",
						"value": "t_struct(User)78_storage"
					},
					"t_mapping(t_string_memory_ptr,t_contract(StructDemo)146)": {
						"encoding": "mapping",
						"key": "t_string_memory_ptr",
						"label": "mapping(string => contract StructDemo)",
						"numberOfBytes": "32",
						"value": "t_contract(StructDemo)146"
					},
					"t_mapping(t_string_memory_ptr,t_uint256)": {
						"encoding": "mapping",
						"key": "t_string_memory_ptr",
						"label": "mapping(string => uint256)",
						"numberOfBytes": "32",
						"value": "t_uint256"
					},
					"t_string_memory_ptr": {
						"encoding": "bytes",
						"label": "string",
						"numberOfBytes": "32"
					},
					"t_string_storage": {
						"encoding": "bytes",
						"label": "string",
						"numberOfBytes": "32"
					},
					"t_struct(StructType1)69_storage": {
						"encoding": "inplace",
						"label": "struct StructDemo.StructType1",
						"members": [
							{
								"astId": 63,
								"contract": "solidity-1base/9/StructDemo.sol:StructDemo",
								"label": "str",
								"offset": 0,
								"slot": "0",
								"type": "t_string_storage"
							},
							{
								"astId": 66,
								"contract": "solidity-1base/9/StructDemo.sol:StructDemo",
								"label": "strArr",
								"offset": 0,
								"slot": "1",
								"type": "t_array(t_string_storage)dyn_storage"
							},
							{
								"astId": 68,
								"contract": "solidity-1base/9/StructDemo.sol:StructDemo",
								"label": "ut",
								"offset": 0,
								"slot": "2",
								"type": "t_uint256"
							}
						],
						"numberOfBytes": "96"
					},
					"t_struct(User)78_storage": {
						"encoding": "inplace",
						"label": "struct StructDemo.User",
						"members": [
							{
								"astId": 71,
								"contract": "solidity-1base/9/StructDemo.sol:StructDemo",
								"label": "name",
								"offset": 0,
								"slot": "0",
								"type": "t_string_storage"
							},
							{
								"astId": 73,
								"contract": "solidity-1base/9/StructDemo.sol:StructDemo",
								"label": "age",
								"offset": 0,
								"slot": "1",
								"type": "t_uint256"
							},
							{
								"astId": 77,
								"contract": "solidity-1base/9/StructDemo.sol:StructDemo",
								"label": "score",
								"offset": 0,
								"slot": "2",
								"type": "t_mapping(t_string_memory_ptr,t_uint256)"
							}
						],
						"numberOfBytes": "96"
					},
					"t_uint256": {
						"encoding": "inplace",
						"label": "uint256",
						"numberOfBytes": "32"
					}
				}
			},
			"userdoc": {
				"kind": "user",
				"methods": {},
				"version": 1
			}
		}
	}
}